{"abi":[{"type":"constructor","inputs":[{"name":"name_","type":"string","internalType":"string"},{"name":"symbol_","type":"string","internalType":"string"}],"stateMutability":"nonpayable"},{"type":"function","name":"acceptOwnership","inputs":[],"outputs":[],"stateMutability":"nonpayable"},{"type":"function","name":"allowance","inputs":[{"name":"owner","type":"address","internalType":"address"},{"name":"spender","type":"address","internalType":"address"}],"outputs":[{"name":"","type":"uint256","internalType":"euint256"}],"stateMutability":"view"},{"type":"function","name":"approve","inputs":[{"name":"spender","type":"address","internalType":"address"},{"name":"amount","type":"uint256","internalType":"euint256"}],"outputs":[{"name":"","type":"bool","internalType":"bool"}],"stateMutability":"nonpayable"},{"type":"function","name":"approve","inputs":[{"name":"spender","type":"address","internalType":"address"},{"name":"encryptedAmount","type":"bytes32","internalType":"einput"},{"name":"inputProof","type":"bytes","internalType":"bytes"}],"outputs":[{"name":"","type":"bool","internalType":"bool"}],"stateMutability":"nonpayable"},{"type":"function","name":"balanceOf","inputs":[{"name":"account","type":"address","internalType":"address"}],"outputs":[{"name":"","type":"uint256","internalType":"euint256"}],"stateMutability":"view"},{"type":"function","name":"decimals","inputs":[],"outputs":[{"name":"","type":"uint8","internalType":"uint8"}],"stateMutability":"view"},{"type":"function","name":"errorGetCounter","inputs":[],"outputs":[{"name":"countErrors","type":"uint256","internalType":"uint256"}],"stateMutability":"view"},{"type":"function","name":"getErrorCodeForTransferId","inputs":[{"name":"transferId","type":"uint256","internalType":"uint256"}],"outputs":[{"name":"errorCode","type":"uint8","internalType":"uint8"}],"stateMutability":"view"},{"type":"function","name":"mint","inputs":[{"name":"to","type":"address","internalType":"address"},{"name":"amount","type":"uint256","internalType":"uint256"}],"outputs":[],"stateMutability":"nonpayable"},{"type":"function","name":"name","inputs":[],"outputs":[{"name":"","type":"string","internalType":"string"}],"stateMutability":"view"},{"type":"function","name":"owner","inputs":[],"outputs":[{"name":"","type":"address","internalType":"address"}],"stateMutability":"view"},{"type":"function","name":"pendingOwner","inputs":[],"outputs":[{"name":"","type":"address","internalType":"address"}],"stateMutability":"view"},{"type":"function","name":"renounceOwnership","inputs":[],"outputs":[],"stateMutability":"nonpayable"},{"type":"function","name":"symbol","inputs":[],"outputs":[{"name":"","type":"string","internalType":"string"}],"stateMutability":"view"},{"type":"function","name":"totalSupply","inputs":[],"outputs":[{"name":"","type":"uint256","internalType":"uint256"}],"stateMutability":"view"},{"type":"function","name":"transfer","inputs":[{"name":"to","type":"address","internalType":"address"},{"name":"encryptedAmount","type":"bytes32","internalType":"einput"},{"name":"inputProof","type":"bytes","internalType":"bytes"}],"outputs":[{"name":"","type":"bool","internalType":"bool"}],"stateMutability":"nonpayable"},{"type":"function","name":"transfer","inputs":[{"name":"to","type":"address","internalType":"address"},{"name":"amount","type":"uint256","internalType":"euint256"}],"outputs":[{"name":"","type":"bool","internalType":"bool"}],"stateMutability":"nonpayable"},{"type":"function","name":"transferCallback","inputs":[{"name":"","type":"uint256","internalType":"uint256"},{"name":"decryptedErrorCode","type":"uint8","internalType":"uint8"}],"outputs":[],"stateMutability":"nonpayable"},{"type":"function","name":"transferFrom","inputs":[{"name":"from","type":"address","internalType":"address"},{"name":"to","type":"address","internalType":"address"},{"name":"amount","type":"uint256","internalType":"euint256"}],"outputs":[{"name":"","type":"bool","internalType":"bool"}],"stateMutability":"nonpayable"},{"type":"function","name":"transferFrom","inputs":[{"name":"from","type":"address","internalType":"address"},{"name":"to","type":"address","internalType":"address"},{"name":"encryptedAmount","type":"bytes32","internalType":"einput"},{"name":"inputProof","type":"bytes","internalType":"bytes"}],"outputs":[{"name":"","type":"bool","internalType":"bool"}],"stateMutability":"nonpayable"},{"type":"function","name":"transferOwnership","inputs":[{"name":"newOwner","type":"address","internalType":"address"}],"outputs":[],"stateMutability":"nonpayable"},{"type":"event","name":"Approval","inputs":[{"name":"owner","type":"address","indexed":true,"internalType":"address"},{"name":"spender","type":"address","indexed":true,"internalType":"address"},{"name":"placeholder","type":"uint256","indexed":false,"internalType":"uint256"}],"anonymous":false},{"type":"event","name":"Mint","inputs":[{"name":"to","type":"address","indexed":true,"internalType":"address"},{"name":"amount","type":"uint256","indexed":false,"internalType":"uint256"}],"anonymous":false},{"type":"event","name":"OwnershipTransferStarted","inputs":[{"name":"previousOwner","type":"address","indexed":true,"internalType":"address"},{"name":"newOwner","type":"address","indexed":true,"internalType":"address"}],"anonymous":false},{"type":"event","name":"OwnershipTransferred","inputs":[{"name":"previousOwner","type":"address","indexed":true,"internalType":"address"},{"name":"newOwner","type":"address","indexed":true,"internalType":"address"}],"anonymous":false},{"type":"event","name":"Transfer","inputs":[{"name":"from","type":"address","indexed":true,"internalType":"address"},{"name":"to","type":"address","indexed":true,"internalType":"address"},{"name":"transferId","type":"uint256","indexed":false,"internalType":"uint256"}],"anonymous":false},{"type":"error","name":"ERC20InsufficientAllowance","inputs":[{"name":"spender","type":"address","internalType":"address"},{"name":"allowance","type":"uint256","internalType":"uint256"},{"name":"needed","type":"uint256","internalType":"uint256"}]},{"type":"error","name":"ERC20InsufficientBalance","inputs":[{"name":"sender","type":"address","internalType":"address"},{"name":"balance","type":"uint256","internalType":"uint256"},{"name":"needed","type":"uint256","internalType":"uint256"}]},{"type":"error","name":"ERC20InvalidApprover","inputs":[{"name":"approver","type":"address","internalType":"address"}]},{"type":"error","name":"ERC20InvalidReceiver","inputs":[{"name":"receiver","type":"address","internalType":"address"}]},{"type":"error","name":"ERC20InvalidSender","inputs":[{"name":"sender","type":"address","internalType":"address"}]},{"type":"error","name":"ERC20InvalidSpender","inputs":[{"name":"spender","type":"address","internalType":"address"}]},{"type":"error","name":"OwnableInvalidOwner","inputs":[{"name":"owner","type":"address","internalType":"address"}]},{"type":"error","name":"OwnableUnauthorizedAccount","inputs":[{"name":"account","type":"address","internalType":"address"}]},{"type":"error","name":"TFHESenderNotAllowed","inputs":[]}],"bytecode":{"object":"0x60806040523461050c57611c57803803806100198161052f565b92833981019060408183031261050c5780516001600160401b03811161050c5782610045918301610554565b60208201519092906001600160401b03811161050c576100659201610554565b33156104f957600180546001600160a01b03199081169091555f805433928116831782556001600160a01b0316907f8be0079c531659141344cd1fd0a4f28419497f9722a3daafe3b4186f6b6457e09080a381516001600160401b03811161040c57600354600181811c911680156104ef575b60208210146103ee57601f811161048c575b50602092601f821160011461042b57928192935f92610420575b50508160011b915f199060031b1c1916176003555b80516001600160401b03811161040c57600454600181811c91168015610402575b60208210146103ee57601f811161038b575b50602091601f821160011461032b579181925f92610320575b50508160011b915f199060031b1c1916176004555b5f6060610185610510565b8281528260208201528260408201520152739d6891a6240d6130c54ae243d8005063d05fe14b60606101b5610510565b73fee8407e2f5e3ee68ad77cae98c434e637f516e580825273687408ab54661ba0b4aef3a44156c616c6955e076020830181905273fb03be574d14c256d56f09a198b586bdfc0a9de2604080850182905294909301949094527fed8d60e34876f751cc8b014c560745351147d9de11b9347c854e881b128ea60080546001600160a01b031990811690921790557fed8d60e34876f751cc8b014c560745351147d9de11b9347c854e881b128ea601805482169094179093557fed8d60e34876f751cc8b014c560745351147d9de11b9347c854e881b128ea6028054841690911790557fed8d60e34876f751cc8b014c560745351147d9de11b9347c854e881b128ea60380548316739d6891a6240d6130c54ae243d8005063d05fe14b1790557f93ab6e17f2c461cce6ea5d4ec117e51dda77a64affc2b2c05f8cd440def0e70080549092167333347831500f1e73f0cccbb95c9f86b94d7b112317909155516116b190816105a68239f35b015190505f80610165565b601f1982169260045f52805f20915f5b8581106103735750836001951061035b575b505050811b0160045561017a565b01515f1960f88460031b161c191690555f808061034d565b9192602060018192868501518155019401920161033b565b60045f527f8a35acfbc15ff81a39ae7d344fd709f28e8600b4aa8c65c6b64bfe7fe36bd19b601f830160051c810191602084106103e4575b601f0160051c01905b8181106103d9575061014c565b5f81556001016103cc565b90915081906103c3565b634e487b7160e01b5f52602260045260245ffd5b90607f169061013a565b634e487b7160e01b5f52604160045260245ffd5b015190505f80610104565b601f1982169360035f52805f20915f5b868110610474575083600195961061045c575b505050811b01600355610119565b01515f1960f88460031b161c191690555f808061044e565b9192602060018192868501518155019401920161043b565b60035f527fc2575a0e9e593c00f959f8c92f12db2869c3395a3b0502d05e2516446f71f85b601f830160051c810191602084106104e5575b601f0160051c01905b8181106104da57506100ea565b5f81556001016104cd565b90915081906104c4565b90607f16906100d8565b631e4fbdf760e01b5f525f60045260245ffd5b5f80fd5b60405190608082016001600160401b0381118382101761040c57604052565b6040519190601f01601f191682016001600160401b0381118382101761040c57604052565b81601f8201121561050c578051906001600160401b03821161040c57610583601f8301601f191660200161052f565b928284526020838301011161050c57815f9260208093018386015e830101529056fe6080806040526004361015610012575f80fd5b5f3560e01c90816306fdde031461081357508063095ea7b3146107ec57806318160ddd146107cf5780632207ea631461075457806323b872dd14610725578063313ce5671461070a57806340c10f191461057757806367a74a281461055a57806370a0823114610522578063715018a6146104bf57806379ba50971461043a5780637b7e0a5a1461041d5780638da5cb5b146103f657806395d89b41146102ea5780639a09435214610289578063a5184baf1461025c578063a9059cbb1461022b578063b32c1001146101f1578063dd62ed3e146101a1578063e30c3978146101795763f2fde38b14610103575f80fd5b346101755760203660031901126101755761011c6108ef565b6101246110f8565b60018060a01b0316806bffffffffffffffffffffffff60a01b600154161760015560018060a01b035f54167f38d16b8cac22d99fc7c124b9cd0de2d3fa1faef420bfe791d8c362d765e227005f80a3005b5f80fd5b34610175575f366003190112610175576001546040516001600160a01b039091168152602090f35b34610175576040366003190112610175576101ba6108ef565b6101c2610905565b6001600160a01b039182165f908152600660209081526040808320949093168252928352819020549051908152f35b346101755761021f61021361021961020836610949565b949192943691610d3c565b9061110b565b906109c6565b50602060405160018152f35b346101755760403660031901126101755760206102526102496108ef565b60243590610da3565b6040519015158152f35b34610175576020366003190112610175576004355f526011602052602060ff60405f205416604051908152f35b34610175576080366003190112610175576102a26108ef565b6102aa610905565b906064359167ffffffffffffffff8311610175576102e46102dc6102d561021f95369060040161091b565b3691610d3c565b60443561110b565b91610a1b565b34610175575f366003190112610175576040515f6004548060011c906001811680156103ec575b6020831081146103d8578285529081156103b45750600114610356575b6103528361033e81850382610990565b6040519182916020835260208301906108cb565b0390f35b91905060045f527f8a35acfbc15ff81a39ae7d344fd709f28e8600b4aa8c65c6b64bfe7fe36bd19b915f905b80821061039a5750909150810160200161033e61032e565b919260018160209254838588010152019101909291610382565b60ff191660208086019190915291151560051b8401909101915061033e905061032e565b634e487b7160e01b5f52602260045260245ffd5b91607f1691610311565b34610175575f366003190112610175575f546040516001600160a01b039091168152602090f35b346101755761021f61021361043461020836610949565b90610da3565b34610175575f36600319011261017557600154336001600160a01b03909116036104ac57600180546001600160a01b03199081169091555f805433928116831782556001600160a01b0316907f8be0079c531659141344cd1fd0a4f28419497f9722a3daafe3b4186f6b6457e09080a3005b63118cdaa760e01b5f523360045260245ffd5b34610175575f366003190112610175576104d76110f8565b600180546001600160a01b03199081169091555f80549182168155906001600160a01b03167f8be0079c531659141344cd1fd0a4f28419497f9722a3daafe3b4186f6b6457e08280a3005b34610175576020366003190112610175576001600160a01b036105436108ef565b165f526005602052602060405f2054604051908152f35b34610175575f366003190112610175576020601254604051908152f35b34610175576040366003190112610175576105906108ef565b60243561059b6110f8565b6001600160a01b0382165f818152600560205260408120549193909180156106f8575b5f8051602061165c8339815191525460405163f953e42760e01b8152600481019290925260248201859052600160f81b6044830152909260209184916064918391906001600160a01b03165af180156106ed575f906106b9575b61063a9250845f5260056020528060405f205561063530826114d1565b6114d1565b815f7fddf252ad1be2c89b69c2b068fc378daa952ba7f163c4a11628f55a4df523b3ef602060405183198152a36002548181018091116106a5577f0f6798a560793a54c3bcfe86a93cde1e73087d944c0ea20544137d412139688591602091600255604051908152a2005b634e487b7160e01b5f52601160045260245ffd5b506020823d6020116106e5575b816106d360209383610990565b810103126101755761063a9151610618565b3d91506106c6565b6040513d5f823e3d90fd5b506020610703611539565b90506105be565b34610175575f36600319011261017557602060405160068152f35b346101755760603660031901126101755760206102526107436108ef565b61074b610905565b60443591610a1b565b346101755760403660031901126101755760243560ff8116809103610175577f93ab6e17f2c461cce6ea5d4ec117e51dda77a64affc2b2c05f8cd440def0e700546001600160a01b03163303610175576012545f1981146106a557600181016012555f52601160205260405f209060ff198254161790555f80f35b34610175575f366003190112610175576020600254604051908152f35b3461017557604036600319011261017557602061025261080a6108ef565b602435906109c6565b34610175575f366003190112610175575f6003548060011c906001811680156108c1575b6020831081146103d8578285529081156103b45750600114610863576103528361033e81850382610990565b91905060035f527fc2575a0e9e593c00f959f8c92f12db2869c3395a3b0502d05e2516446f71f85b915f905b8082106108a75750909150810160200161033e61032e565b91926001816020925483858801015201910190929161088f565b91607f1691610837565b805180835260209291819084018484015e5f828201840152601f01601f1916010190565b600435906001600160a01b038216820361017557565b602435906001600160a01b038216820361017557565b9181601f840112156101755782359167ffffffffffffffff8311610175576020838186019501011161017557565b6060600319820112610175576004356001600160a01b03811681036101755791602435916044359067ffffffffffffffff82116101755761098c9160040161091b565b9091565b90601f8019910116810190811067ffffffffffffffff8211176109b257604052565b634e487b7160e01b5f52604160045260245ffd5b906109db906109d481610e23565b8233610ec2565b6040515f1981526001600160a01b039091169033907f8c5be1e5ebec7d5bd14f71427d1e84f3dd0314c0f7b2291e5b200ac8c7c3b92590602090a3600190565b91610a2581610e23565b6001600160a01b0383165f81815260066020908152604080832033845290915290205493909290610a56858461120b565b935f610a6061158f565b5f8051602061165c83398151915254604051631ce2e8d760e31b815260026004820152600160f91b60248201529260209184916044918391906001600160a01b03165af19081156106ed575f91610d06575b610abd92508761147f565b505f526005602052610ad360405f20548461120b565b5f8051602061165c833981519152546040516309c00ffd60e11b81526004810183905290602090829060249082905f906001600160a01b03165af19081156106ed575f91610cd3575b505f8051602061165c83398151915254604051630ccd46b160e31b81526004810192909252602482018790525f6044830181905260209183916064918391906001600160a01b03165af180156106ed575f90610c9f575b610b8e9150610b806115e5565b610b8861158f565b9161147f565b604095865191610b9e8884610990565b60018352601f19880136602085013780610bb784610d82565b5260644201908142116106a557610bd3610be5926020956112f1565b50610bde86826114d1565b33906114d1565b606460018060a01b035f8051602061165c8339815191525416935f89519586948593630ccd46b160e31b8552600485015260248401528160448401525af1948515610c9657505f94610c5e575b50610c54610c4d86610c4786610c59996113fb565b8761147f565b3383610ec2565b610f3f565b600190565b9493506020853d602011610c8e575b81610c7a60209383610990565b810103126101755793519293610c54610c32565b3d9150610c6d565b513d5f823e3d90fd5b506020813d602011610ccb575b81610cb960209383610990565b8101031261017557610b8e9051610b73565b3d9150610cac565b90506020813d602011610cfe575b81610cee60209383610990565b8101031261017557516020610b1c565b3d9150610ce1565b90506020823d602011610d34575b81610d2160209383610990565b8101031261017557610abd915190610ab2565b3d9150610d14565b92919267ffffffffffffffff82116109b25760405191610d66601f8201601f191660200184610990565b829481845281830111610175578281602093845f960137010152565b805115610d8f5760200190565b634e487b7160e01b5f52603260045260245ffd5b90610dad81610e23565b335f526005602052610dc360405f20548261120b565b90610dde610dcf61158f565b610dd76115e5565b908461147f565b9260405193610dee604086610990565b6001855260203681870137610e0285610d82565b5260644201938442116106a557610c5994610e1c916112f1565b5033610f3f565b5f8051602061163c83398151915254604051632fd514cd60e11b81526004810192909252336024830152602090829060449082906001600160a01b03165afa9081156106ed575f91610e87575b5015610e7857565b632fa38b3f60e01b5f5260045ffd5b90506020813d602011610eba575b81610ea260209383610990565b8101031261017557518015158103610175575f610e70565b3d9150610e95565b6001600160a01b0381169392908415610f2c576001600160a01b038316948515610f195790610f179495610635925f52600660205260405f20905f526020528260405f2055610f1130846114d1565b826114d1565b565b85634a1406b160e11b5f5260045260245ffd5b8463e602df0560e01b5f5260045260245ffd5b91926001600160a01b038316929083156110e5576001600160a01b0383169485156110d25790610f7191610b88611539565b91845f5260056020525f602060408220548581156110c2575b86156110b4575b5f8051602061165c8339815191525460405163f953e42760e01b8152600480820194909452848101909301919091526001600160f81b0319841660448301529092839160649183916001600160a01b03165af19081156106ed575f9161107e575b509261101961102b92856110439650885f5260056020528060405f205561063530826114d1565b845f52600560205260405f20546113fb565b835f5260056020528060405f205561063530826114d1565b6012545f1981019081116106a55760207fddf252ad1be2c89b69c2b068fc378daa952ba7f163c4a11628f55a4df523b3ef91604051908152a3565b9390506020843d6020116110ac575b8161109a60209383610990565b81010312610175579251611019610ff2565b3d915061108d565b506110bd611539565b610f91565b90506110cc611539565b90610f8a565b8563ec442f0560e01b5f5260045260245ffd5b83634b637e8f60e11b5f5260045260245ffd5b5f546001600160a01b031633036104ac57565b61115a9160209160018060a01b035f8051602061165c8339815191525416905f6040518096819582946302e817ff60e41b845260048401523360248401526080604484015260848301906108cb565b600160fb1b606483015203925af19081156106ed575f916111d9575b505f8051602061163c833981519152546001600160a01b0316803b15610175576040516346ce4e4960e11b815260048101839052336024820152905f908290604490829084905af180156106ed576111cc575090565b5f6111d691610990565b90565b90506020813d602011611203575b816111f460209383610990565b8101031261017557515f611176565b3d91506111e7565b9081156112ae575b801561129c575b602090606460018060a01b035f8051602061165c8339815191525416935f60405195869485936334a6d7b960e11b8552600485015260248401528160448401525af19081156106ed575f9161126d575090565b90506020813d602011611294575b8161128860209383610990565b81010312610175575190565b3d915061127b565b5060206112a7611539565b905061121a565b90506112b8611539565b90611213565b90602080835192838152019201905f5b8181106112db5750505090565b82518452602093840193909201916001016112ce565b5f8051602061163c833981519152545f9291906001600160a01b0316803b15610175575f604051809263155f840160e21b82526020600483015281838161133b60248201896112be565b03925af180156106ed576113e4575b507f93ab6e17f2c461cce6ea5d4ec117e51dda77a64affc2b2c05f8cd440def0e70054604051634c0d927760e01b815260a060048201529260209284926001600160a01b0316918391879183916113a59060a48401906112be565b90632207ea6360e01b6024840152836044840152606483015282608483015203925af19182156113d8579161126d575090565b604051903d90823e3d90fd5b6113f19193505f90610990565b5f916113a561134a565b90811561146f575b801561145d575b602090606460018060a01b035f8051602061165c8339815191525416935f6040519586948593638c14cc2160e01b8552600485015260248401528160448401525af19081156106ed575f9161126d575090565b506020611468611539565b905061140a565b9050611479611539565b90611403565b9060646020925f60018060a01b035f8051602061165c8339815191525416604051968795869463cb3b940760e01b86526004860152602485015260448401525af19081156106ed575f9161126d575090565b5f8051602061163c833981519152546001600160a01b031691823b1561017557604051631974142760e21b815260048101929092526001600160a01b03166024820152905f908290604490829084905af180156106ed5761152f5750565b5f610f1791610990565b5f8051602061165c83398151915254604051631ce2e8d760e31b81525f60048201819052600160fb1b60248301529091602091839160449183916001600160a01b03165af19081156106ed575f9161126d575090565b5f8051602061165c83398151915254604051631ce2e8d760e31b81525f60048201819052600160f91b60248301529091602091839160449183916001600160a01b03165af19081156106ed575f9161126d575090565b5f8051602061165c83398151915254604051631ce2e8d760e31b815260016004820152600160f91b602482015290602090829060449082905f906001600160a01b03165af19081156106ed575f9161126d57509056feed8d60e34876f751cc8b014c560745351147d9de11b9347c854e881b128ea600ed8d60e34876f751cc8b014c560745351147d9de11b9347c854e881b128ea601a26469706673582212206a3da75aabc9b061112873adb37ed4bffb2f99d50e39740fb7e078121921565d64736f6c634300081a0033","linkReferences":{}},"methodIdentifiers":{"acceptOwnership()":"79ba5097","allowance(address,address)":"dd62ed3e","approve(address,bytes32,bytes)":"b32c1001","approve(address,uint256)":"095ea7b3","balanceOf(address)":"70a08231","decimals()":"313ce567","errorGetCounter()":"67a74a28","getErrorCodeForTransferId(uint256)":"a5184baf","mint(address,uint256)":"40c10f19","name()":"06fdde03","owner()":"8da5cb5b","pendingOwner()":"e30c3978","renounceOwnership()":"715018a6","symbol()":"95d89b41","totalSupply()":"18160ddd","transfer(address,bytes32,bytes)":"7b7e0a5a","transfer(address,uint256)":"a9059cbb","transferCallback(uint256,uint8)":"2207ea63","transferFrom(address,address,bytes32,bytes)":"9a094352","transferFrom(address,address,uint256)":"23b872dd","transferOwnership(address)":"f2fde38b"},"id":6}