{"abi":[{"type":"constructor","inputs":[{"name":"name_","type":"string","internalType":"string"},{"name":"symbol_","type":"string","internalType":"string"}],"stateMutability":"nonpayable"},{"type":"function","name":"acceptOwnership","inputs":[],"outputs":[],"stateMutability":"nonpayable"},{"type":"function","name":"allowance","inputs":[{"name":"owner","type":"address","internalType":"address"},{"name":"spender","type":"address","internalType":"address"}],"outputs":[{"name":"","type":"uint256","internalType":"euint64"}],"stateMutability":"view"},{"type":"function","name":"approve","inputs":[{"name":"spender","type":"address","internalType":"address"},{"name":"amount","type":"uint256","internalType":"euint64"}],"outputs":[{"name":"","type":"bool","internalType":"bool"}],"stateMutability":"nonpayable"},{"type":"function","name":"approve","inputs":[{"name":"spender","type":"address","internalType":"address"},{"name":"encryptedAmount","type":"bytes32","internalType":"einput"},{"name":"inputProof","type":"bytes","internalType":"bytes"}],"outputs":[{"name":"","type":"bool","internalType":"bool"}],"stateMutability":"nonpayable"},{"type":"function","name":"balanceOf","inputs":[{"name":"account","type":"address","internalType":"address"}],"outputs":[{"name":"","type":"uint256","internalType":"euint64"}],"stateMutability":"view"},{"type":"function","name":"balanceOfAllow","inputs":[{"name":"account","type":"address","internalType":"address"}],"outputs":[{"name":"","type":"uint256","internalType":"euint64"}],"stateMutability":"nonpayable"},{"type":"function","name":"burn","inputs":[{"name":"amount","type":"uint64","internalType":"uint64"}],"outputs":[],"stateMutability":"nonpayable"},{"type":"function","name":"decimals","inputs":[],"outputs":[{"name":"","type":"uint8","internalType":"uint8"}],"stateMutability":"view"},{"type":"function","name":"errorGetCounter","inputs":[],"outputs":[{"name":"errorsCount","type":"uint256","internalType":"uint256"}],"stateMutability":"view"},{"type":"function","name":"getErrorCodeForTransferId","inputs":[{"name":"transferId","type":"uint256","internalType":"uint256"}],"outputs":[{"name":"errorCode","type":"uint256","internalType":"euint8"}],"stateMutability":"view"},{"type":"function","name":"mint","inputs":[{"name":"to","type":"address","internalType":"address"},{"name":"amount","type":"uint64","internalType":"uint64"}],"outputs":[],"stateMutability":"nonpayable"},{"type":"function","name":"name","inputs":[],"outputs":[{"name":"","type":"string","internalType":"string"}],"stateMutability":"view"},{"type":"function","name":"owner","inputs":[],"outputs":[{"name":"","type":"address","internalType":"address"}],"stateMutability":"view"},{"type":"function","name":"pendingOwner","inputs":[],"outputs":[{"name":"","type":"address","internalType":"address"}],"stateMutability":"view"},{"type":"function","name":"renounceOwnership","inputs":[],"outputs":[],"stateMutability":"nonpayable"},{"type":"function","name":"symbol","inputs":[],"outputs":[{"name":"","type":"string","internalType":"string"}],"stateMutability":"view"},{"type":"function","name":"totalSupply","inputs":[],"outputs":[{"name":"","type":"uint64","internalType":"uint64"}],"stateMutability":"view"},{"type":"function","name":"transfer","inputs":[{"name":"to","type":"address","internalType":"address"},{"name":"encryptedAmount","type":"bytes32","internalType":"einput"},{"name":"inputProof","type":"bytes","internalType":"bytes"}],"outputs":[{"name":"","type":"bool","internalType":"bool"}],"stateMutability":"nonpayable"},{"type":"function","name":"transfer","inputs":[{"name":"to","type":"address","internalType":"address"},{"name":"amount","type":"uint256","internalType":"euint64"}],"outputs":[{"name":"","type":"bool","internalType":"bool"}],"stateMutability":"nonpayable"},{"type":"function","name":"transferFrom","inputs":[{"name":"from","type":"address","internalType":"address"},{"name":"to","type":"address","internalType":"address"},{"name":"amount","type":"uint256","internalType":"euint64"}],"outputs":[{"name":"","type":"bool","internalType":"bool"}],"stateMutability":"nonpayable"},{"type":"function","name":"transferFrom","inputs":[{"name":"from","type":"address","internalType":"address"},{"name":"to","type":"address","internalType":"address"},{"name":"encryptedAmount","type":"bytes32","internalType":"einput"},{"name":"inputProof","type":"bytes","internalType":"bytes"}],"outputs":[{"name":"","type":"bool","internalType":"bool"}],"stateMutability":"nonpayable"},{"type":"function","name":"transferOwnership","inputs":[{"name":"newOwner","type":"address","internalType":"address"}],"outputs":[],"stateMutability":"nonpayable"},{"type":"event","name":"Approval","inputs":[{"name":"owner","type":"address","indexed":true,"internalType":"address"},{"name":"spender","type":"address","indexed":true,"internalType":"address"},{"name":"placeholder","type":"uint256","indexed":false,"internalType":"uint256"}],"anonymous":false},{"type":"event","name":"Burn","inputs":[{"name":"to","type":"address","indexed":true,"internalType":"address"},{"name":"amount","type":"uint64","indexed":false,"internalType":"uint64"}],"anonymous":false},{"type":"event","name":"Mint","inputs":[{"name":"to","type":"address","indexed":true,"internalType":"address"},{"name":"amount","type":"uint64","indexed":false,"internalType":"uint64"}],"anonymous":false},{"type":"event","name":"OwnershipTransferStarted","inputs":[{"name":"previousOwner","type":"address","indexed":true,"internalType":"address"},{"name":"newOwner","type":"address","indexed":true,"internalType":"address"}],"anonymous":false},{"type":"event","name":"OwnershipTransferred","inputs":[{"name":"previousOwner","type":"address","indexed":true,"internalType":"address"},{"name":"newOwner","type":"address","indexed":true,"internalType":"address"}],"anonymous":false},{"type":"event","name":"Transfer","inputs":[{"name":"from","type":"address","indexed":true,"internalType":"address"},{"name":"to","type":"address","indexed":true,"internalType":"address"},{"name":"transferId","type":"uint256","indexed":false,"internalType":"uint256"}],"anonymous":false},{"type":"error","name":"ERC20InsufficientAllowance","inputs":[{"name":"spender","type":"address","internalType":"address"},{"name":"allowance","type":"uint256","internalType":"uint256"},{"name":"needed","type":"uint256","internalType":"uint256"}]},{"type":"error","name":"ERC20InsufficientBalance","inputs":[{"name":"sender","type":"address","internalType":"address"},{"name":"balance","type":"uint256","internalType":"uint256"},{"name":"needed","type":"uint256","internalType":"uint256"}]},{"type":"error","name":"ERC20InvalidApprover","inputs":[{"name":"approver","type":"address","internalType":"address"}]},{"type":"error","name":"ERC20InvalidReceiver","inputs":[{"name":"receiver","type":"address","internalType":"address"}]},{"type":"error","name":"ERC20InvalidSender","inputs":[{"name":"sender","type":"address","internalType":"address"}]},{"type":"error","name":"ERC20InvalidSpender","inputs":[{"name":"spender","type":"address","internalType":"address"}]},{"type":"error","name":"ErrorIndexInvalid","inputs":[]},{"type":"error","name":"ErrorIndexIsNull","inputs":[]},{"type":"error","name":"OwnableInvalidOwner","inputs":[{"name":"owner","type":"address","internalType":"address"}]},{"type":"error","name":"OwnableUnauthorizedAccount","inputs":[{"name":"account","type":"address","internalType":"address"}]},{"type":"error","name":"TFHESenderNotAllowed","inputs":[]},{"type":"error","name":"TotalNumberErrorCodesEqualToZero","inputs":[]}],"bytecode":{"object":"0x60a0806040523461040957611ea9803803809161001c828561066b565b83398101906040818303126104095780516001600160401b038111610409578261004791830161068e565b60208201519092906001600160401b03811161040957610067920161068e565b5f606060405161007681610650565b8281528260208201528260408201520152739d6891a6240d6130c54ae243d8005063d05fe14b60606040516100aa81610650565b73fee8407e2f5e3ee68ad77cae98c434e637f516e5815273687408ab54661ba0b4aef3a44156c616c6955e07602082015273fb03be574d14c256d56f09a198b586bdfc0a9de26040820152015273fee8407e2f5e3ee68ad77cae98c434e637f516e560018060a01b03195f80516020611e298339815191525416175f80516020611e298339815191525573687408ab54661ba0b4aef3a44156c616c6955e0760018060a01b03195f80516020611e698339815191525416175f80516020611e698339815191525573fb03be574d14c256d56f09a198b586bdfc0a9de260018060a01b03195f80516020611e898339815191525416175f80516020611e8983398151915255739d6891a6240d6130c54ae243d8005063d05fe14b60018060a01b03195f80516020611e498339815191525416175f80516020611e4983398151915255331561063d57600180546001600160a01b03199081169091555f805433928116831782556001600160a01b0316907f8be0079c531659141344cd1fd0a4f28419497f9722a3daafe3b4186f6b6457e09080a381516001600160401b03811161055057600254600181811c91168015610633575b602082101461053257601f81116105d0575b50602092601f821160011461056f57928192935f92610564575b50508160011b915f199060031b1c1916176002555b80516001600160401b03811161055057600354600181811c91168015610546575b602082101461053257601f81116104cf575b50602091601f821160011461046f579181925f92610464575b50508160011b915f199060031b1c1916176003555b5f5b60ff81169060028211610440575f80516020611e6983398151915254604051631ce2e8d760e31b815260048101849052600160f91b60248201529290602090849060449082905f906001600160a01b03165af19283156103fe575f9361040d575b505f9081526007602052604090208290555f80516020611e29833981519152546001600160a01b031691823b15610409575f92604484926040519586938492631974142760e21b845260048401523060248401525af19182156103fe5760ff926103ee575b501660ff81146103da57600101610302565b634e487b7160e01b5f52601160045260245ffd5b5f6103f89161066b565b5f6103c8565b6040513d5f823e3d90fd5b5f80fd5b9092506020813d8211610438575b816104286020938361066b565b810103126104095751915f610363565b3d915061041b565b600260805260405161174590816106e48239608051818181610c8d0152610f910152f35b015190505f806102eb565b601f1982169260035f52805f20915f5b8581106104b75750836001951061049f575b505050811b01600355610300565b01515f1960f88460031b161c191690555f8080610491565b9192602060018192868501518155019401920161047f565b60035f527fc2575a0e9e593c00f959f8c92f12db2869c3395a3b0502d05e2516446f71f85b601f830160051c81019160208410610528575b601f0160051c01905b81811061051d57506102d2565b5f8155600101610510565b9091508190610507565b634e487b7160e01b5f52602260045260245ffd5b90607f16906102c0565b634e487b7160e01b5f52604160045260245ffd5b015190505f8061028a565b601f1982169360025f52805f20915f5b8681106105b857508360019596106105a0575b505050811b0160025561029f565b01515f1960f88460031b161c191690555f8080610592565b9192602060018192868501518155019401920161057f565b60025f527f405787fa12a823e0f2b7631cc41b3ba8828b3321ca811111fa75cd3aa3bb5ace601f830160051c81019160208410610629575b601f0160051c01905b81811061061e5750610270565b5f8155600101610611565b9091508190610608565b90607f169061025e565b631e4fbdf760e01b5f525f60045260245ffd5b608081019081106001600160401b0382111761055057604052565b601f909101601f19168101906001600160401b0382119082101761055057604052565b81601f82011215610409578051906001600160401b03821161055057604051926106c2601f8401601f19166020018561066b565b8284526020838301011161040957815f9260208093018386015e830101529056fe6080806040526004361015610012575f80fd5b5f905f3560e01c90816306e928fd14610a575750806306fdde031461099a578063095ea7b31461097257806318160ddd1461094757806323b872dd146109175780632893c5b014610734578063313ce5671461071857806367a74a28146106fa57806370a08231146106c1578063715018a61461065c57806379ba5097146105d75780637b7e0a5a146105b95780638da5cb5b1461059257806395d89b41146104815780639a0943521461041f5780639dbead42146102ac578063a5184baf14610268578063a9059cbb14610236578063b32c1001146101fb578063dd62ed3e146101a8578063e30c39781461017f5763f2fde38b14610110575f80fd5b3461017c57602036600319011261017c57610129610afd565b610131611324565b600180546001600160a01b0319166001600160a01b0392831690811790915582549091167f38d16b8cac22d99fc7c124b9cd0de2d3fa1faef420bfe791d8c362d765e227008380a380f35b80fd5b503461017c578060031936011261017c576001546040516001600160a01b039091168152602090f35b503461017c57604036600319011261017c5760406101c4610afd565b916101cd610b13565b9260018060a01b031681526005602052209060018060a01b03165f52602052602060405f2054604051908152f35b503461017c5761022a61021e61022461021336610b7b565b949192943691610f26565b9061134a565b90610bf8565b50602060405160018152f35b503461017c57604036600319011261017c57602061025e610255610afd565b60243590610f6c565b6040519015158152f35b503461017c57602036600319011261017c5760043560065481101561029d578160409160209352600883522054604051908152f35b63d65c1f3360e01b8252600482fd5b503461017c57602036600319011261017c5760043567ffffffffffffffff811680910361041b5733825260046020528160408120548015610409575b5f805160206116f083398151915254604051638c14cc2160e01b8152600481019290925260248201849052600160f81b6044830152909160209183916064918391906001600160a01b03165af180156103fe5783906103c6575b6103669150338452600460205280604085205561035f30826115bf565b33906115bf565b6001549067ffffffffffffffff8260a01c160367ffffffffffffffff81116103b25767ffffffffffffffff60a01b1990911660a09190911b67ffffffffffffffff60a01b161760015580f35b634e487b7160e01b83526011600452602483fd5b506020813d6020116103f6575b816103e060209383610bc2565b810103126103f2576103669051610342565b5f80fd5b3d91506103d3565b6040513d85823e3d90fd5b506020610414611679565b90506102e8565b5080fd5b503461017c57608036600319011261017c57610439610afd565b610441610b13565b6064359267ffffffffffffffff841161017c575061047b61047361046c61022a953690600401610b4d565b3691610f26565b60443561134a565b91610c4d565b503461017c578060031936011261017c576040519080600354908160011c91600181168015610588575b6020841081146105745783865290811561054d57506001146104f0575b6104ec846104d881860382610bc2565b604051918291602083526020830190610b29565b0390f35b600381527fc2575a0e9e593c00f959f8c92f12db2869c3395a3b0502d05e2516446f71f85b939250905b808210610533575090915081016020016104d8826104c8565b91926001816020925483858801015201910190929161051a565b60ff191660208087019190915292151560051b850190920192506104d891508390506104c8565b634e487b7160e01b83526022600452602483fd5b92607f16926104ab565b503461017c578060031936011261017c57546040516001600160a01b039091168152602090f35b503461017c5761022a61021e6105d161021336610b7b565b90610f6c565b503461017c578060031936011261017c57600154336001600160a01b039091160361064957600180546001600160a01b0319908116909155815433918116821783556001600160a01b03167f8be0079c531659141344cd1fd0a4f28419497f9722a3daafe3b4186f6b6457e08380a380f35b63118cdaa760e01b815233600452602490fd5b503461017c578060031936011261017c57610675611324565b600180546001600160a01b03199081169091558154908116825581906001600160a01b03167f8be0079c531659141344cd1fd0a4f28419497f9722a3daafe3b4186f6b6457e08280a380f35b503461017c57602036600319011261017c576020906040906001600160a01b036106e9610afd565b168152600483522054604051908152f35b503461017c578060031936011261017c576020600654604051908152f35b503461017c578060031936011261017c57602060405160068152f35b503461017c57604036600319011261017c5761074e610afd565b60243567ffffffffffffffff81168091036109135761076b611324565b6001600160a01b03821680845260046020526040842054909284918015610901575b5f805160206116f08339815191525460405163f953e42760e01b8152600481019290925260248201859052600160f81b6044830152909260209184916064918391906001600160a01b03165af180156108f65785906108c2575b6108099250848652600460205280604087205561080430826115bf565b6115bf565b81837fddf252ad1be2c89b69c2b068fc378daa952ba7f163c4a11628f55a4df523b3ef60206040515f198152a36001548167ffffffffffffffff8260a01c160167ffffffffffffffff81116108ae5767ffffffffffffffff60a01b1990911660a09190911b67ffffffffffffffff60a01b16176001556040519081527f9109de113672aaca72ede8bc906f7aafabee865311ac020fb15c71edf94a0a0190602090a280f35b634e487b7160e01b85526011600452602485fd5b506020823d6020116108ee575b816108dc60209383610bc2565b810103126103f25761080991516107e7565b3d91506108cf565b6040513d87823e3d90fd5b50602061090c611679565b905061078d565b8280fd5b503461017c57606036600319011261017c57602061025e610936610afd565b61093e610b13565b60443591610c4d565b503461017c578060031936011261017c57602067ffffffffffffffff60015460a01c16604051908152f35b503461017c57604036600319011261017c57602061025e610991610afd565b60243590610bf8565b503461017c578060031936011261017c576040519080600254908160011c91600181168015610a4d575b6020841081146105745783865290811561054d57506001146109f0576104ec846104d881860382610bc2565b600281527f405787fa12a823e0f2b7631cc41b3ba8828b3321ca811111fa75cd3aa3bb5ace939250905b808210610a33575090915081016020016104d8826104c8565b919260018160209254838588010152019101909291610a1a565b92607f16926109c4565b346103f25760203660031901126103f2576001600160a01b03610a78610afd565b165f908152600460205260409020545f805160206116d0833981519152546001600160a01b0316803b156103f2576346ce4e4960e11b8352600483018290523360248401525f908390604490829084905af1918215610af257602092610ae2575b50604051908152f35b5f610aec91610bc2565b5f610ad9565b6040513d5f823e3d90fd5b600435906001600160a01b03821682036103f257565b602435906001600160a01b03821682036103f257565b805180835260209291819084018484015e5f828201840152601f01601f1916010190565b9181601f840112156103f25782359167ffffffffffffffff83116103f257602083818601950101116103f257565b60606003198201126103f2576004356001600160a01b03811681036103f25791602435916044359067ffffffffffffffff82116103f257610bbe91600401610b4d565b9091565b90601f8019910116810190811067ffffffffffffffff821117610be457604052565b634e487b7160e01b5f52604160045260245ffd5b90610c0d90610c0681611035565b82336110d4565b6040515f1981526001600160a01b039091169033907f8c5be1e5ebec7d5bd14f71427d1e84f3dd0314c0f7b2291e5b200ac8c7c3b92590602090a3600190565b91610c5781611035565b6001600160a01b0383165f81815260056020908152604080832033845290915290205493909290610c88858461144a565b9360ff7f0000000000000000000000000000000000000000000000000000000000000000169485600211610eae5760076020527f6d5257204ebe7d88fd91ae87941cb2dd9d8062b64ae5a2bd2d28ec40b9fbf6df5460025f9081527fb7c774451310d1be4108bc180d1b52823cb0ee0274a6c0081bcaf94f115fb96d54909391610d13919084611627565b9083526004602052610d2960408420548761144a565b96602060018060a01b035f805160206116f083398151915254166024604051809781936309c00ffd60e11b83528d60048401525af1938415610af2575f94610ef1575b505f805160206116f083398151915254604051630ccd46b160e31b81526004810195909552602485018490525f6044860181905260209186916064918391906001600160a01b03165af1938415610af2575f94610ebd575b50600111610eae57610de9610dfd9160209460015f526007865260405f205490611627565b610df2816114fd565b5061035f85826115bf565b606460018060a01b035f805160206116f08339815191525416965f6040519889948593630ccd46b160e31b8552600485015260248401528160448401525af1938415610af2575f94610e76575b50610e6c610e6586610e5f86610e719961152a565b87611627565b33836110d4565b611151565b600190565b9493506020853d602011610ea6575b81610e9260209383610bc2565b810103126103f25793519293610e6c610e4a565b3d9150610e85565b63d65c1f3360e01b5f5260045ffd5b9093506020813d602011610ee9575b81610ed960209383610bc2565b810103126103f25751925f610dc4565b3d9150610ecc565b93506020843d602011610f1e575b81610f0c60209383610bc2565b810103126103f2579251926020610d6c565b3d9150610eff565b92919267ffffffffffffffff8211610be45760405191610f50601f8201601f191660200184610bc2565b8294818452818301116103f2578281602093845f960137010152565b90610f7681611035565b335f526004602052610f8c60405f20548261144a565b9060ff7f000000000000000000000000000000000000000000000000000000000000000016600111610eae5760076020527f6d5257204ebe7d88fd91ae87941cb2dd9d8062b64ae5a2bd2d28ec40b9fbf6df5460015f527fb39221ace053465ec3453ce2b36430bd138b997ecea25c1043da0c366812b82854610e71949161102f91839161101b919087611627565b611024816114fd565b5061080433826115bf565b33611151565b5f805160206116d083398151915254604051632fd514cd60e11b81526004810192909252336024830152602090829060449082906001600160a01b03165afa908115610af2575f91611099575b501561108a57565b632fa38b3f60e01b5f5260045ffd5b90506020813d6020116110cc575b816110b460209383610bc2565b810103126103f2575180151581036103f2575f611082565b3d91506110a7565b6001600160a01b038116939290841561113e576001600160a01b03831694851561112b57906111299495610804925f52600560205260405f20905f526020528260405f205561112330846115bf565b826115bf565b565b85634a1406b160e11b5f5260045260245ffd5b8463e602df0560e01b5f5260045260245ffd5b91926001600160a01b03831692908315611311576001600160a01b0383169485156112fe579061118991611183611679565b91611627565b91845f5260046020525f602060408220548581156112ee575b86156112e0575b5f805160206116f08339815191525460405163f953e42760e01b8152600480820194909452848101909301919091526001600160f81b0319841660448301529092839160649183916001600160a01b03165af1908115610af2575f916112aa575b5092611231611243928561125b9650885f5260046020528060405f205561080430826115bf565b845f52600460205260405f205461152a565b835f5260046020528060405f205561080430826115bf565b6006545f1981019081116112965760207fddf252ad1be2c89b69c2b068fc378daa952ba7f163c4a11628f55a4df523b3ef91604051908152a3565b634e487b7160e01b5f52601160045260245ffd5b9390506020843d6020116112d8575b816112c660209383610bc2565b810103126103f257925161123161120a565b3d91506112b9565b506112e9611679565b6111a9565b90506112f8611679565b906111a2565b8563ec442f0560e01b5f5260045260245ffd5b83634b637e8f60e11b5f5260045260245ffd5b5f546001600160a01b0316330361133757565b63118cdaa760e01b5f523360045260245ffd5b6113999160209160018060a01b035f805160206116f08339815191525416905f6040518096819582946302e817ff60e41b84526004840152336024840152608060448401526084830190610b29565b600560f81b606483015203925af1908115610af2575f91611418575b505f805160206116d0833981519152546001600160a01b0316803b156103f2576040516346ce4e4960e11b815260048101839052336024820152905f908290604490829084905af18015610af25761140b575090565b5f61141591610bc2565b90565b90506020813d602011611442575b8161143360209383610bc2565b810103126103f257515f6113b5565b3d9150611426565b9081156114ed575b80156114db575b602090606460018060a01b035f805160206116f08339815191525416935f60405195869485936334a6d7b960e11b8552600485015260248401528160448401525af1908115610af2575f916114ac575090565b90506020813d6020116114d3575b816114c760209383610bc2565b810103126103f2575190565b3d91506114ba565b5060206114e6611679565b9050611459565b90506114f7611679565b90611452565b60065491905f198314611296576111299060018401600655835f5260086020528060405f205530906115bf565b6020905f9281156115af575b80156115a1575b5f805160206116f083398151915254604051638c14cc2160e01b8152600480820194909452848101909301919091526001600160f81b0319841660448301529092839160649183916001600160a01b03165af1908115610af2575f916114ac575090565b506115aa611679565b61153d565b90506115b9611679565b90611536565b5f805160206116d0833981519152546001600160a01b031691823b156103f257604051631974142760e21b815260048101929092526001600160a01b03166024820152905f908290604490829084905af18015610af25761161d5750565b5f61112991610bc2565b9060646020925f60018060a01b035f805160206116f08339815191525416604051968795869463cb3b940760e01b86526004860152602485015260448401525af1908115610af2575f916114ac575090565b5f805160206116f083398151915254604051631ce2e8d760e31b81525f60048201819052600560f81b60248301529091602091839160449183916001600160a01b03165af1908115610af2575f916114ac57509056feed8d60e34876f751cc8b014c560745351147d9de11b9347c854e881b128ea600ed8d60e34876f751cc8b014c560745351147d9de11b9347c854e881b128ea601a26469706673582212202b1b5bfaadc0ea53faaa823bd15c2e09954c17af5930a1ebcb6731558fc86c8764736f6c634300081a0033ed8d60e34876f751cc8b014c560745351147d9de11b9347c854e881b128ea600ed8d60e34876f751cc8b014c560745351147d9de11b9347c854e881b128ea603ed8d60e34876f751cc8b014c560745351147d9de11b9347c854e881b128ea601ed8d60e34876f751cc8b014c560745351147d9de11b9347c854e881b128ea602","linkReferences":{}},"methodIdentifiers":{"acceptOwnership()":"79ba5097","allowance(address,address)":"dd62ed3e","approve(address,bytes32,bytes)":"b32c1001","approve(address,uint256)":"095ea7b3","balanceOf(address)":"70a08231","balanceOfAllow(address)":"06e928fd","burn(uint64)":"9dbead42","decimals()":"313ce567","errorGetCounter()":"67a74a28","getErrorCodeForTransferId(uint256)":"a5184baf","mint(address,uint64)":"2893c5b0","name()":"06fdde03","owner()":"8da5cb5b","pendingOwner()":"e30c3978","renounceOwnership()":"715018a6","symbol()":"95d89b41","totalSupply()":"18160ddd","transfer(address,bytes32,bytes)":"7b7e0a5a","transfer(address,uint256)":"a9059cbb","transferFrom(address,address,bytes32,bytes)":"9a094352","transferFrom(address,address,uint256)":"23b872dd","transferOwnership(address)":"f2fde38b"},"id":7}