{"abi":[{"type":"constructor","inputs":[{"name":"name_","type":"string","internalType":"string"},{"name":"symbol_","type":"string","internalType":"string"}],"stateMutability":"nonpayable"},{"type":"function","name":"acceptOwnership","inputs":[],"outputs":[],"stateMutability":"nonpayable"},{"type":"function","name":"allowance","inputs":[{"name":"owner","type":"address","internalType":"address"},{"name":"spender","type":"address","internalType":"address"}],"outputs":[{"name":"","type":"uint256","internalType":"euint64"}],"stateMutability":"view"},{"type":"function","name":"approve","inputs":[{"name":"spender","type":"address","internalType":"address"},{"name":"amount","type":"uint256","internalType":"euint64"}],"outputs":[{"name":"","type":"bool","internalType":"bool"}],"stateMutability":"nonpayable"},{"type":"function","name":"approve","inputs":[{"name":"spender","type":"address","internalType":"address"},{"name":"encryptedAmount","type":"bytes32","internalType":"einput"},{"name":"inputProof","type":"bytes","internalType":"bytes"}],"outputs":[{"name":"","type":"bool","internalType":"bool"}],"stateMutability":"nonpayable"},{"type":"function","name":"balanceOf","inputs":[{"name":"account","type":"address","internalType":"address"}],"outputs":[{"name":"","type":"uint256","internalType":"euint64"}],"stateMutability":"view"},{"type":"function","name":"balanceOfAllow","inputs":[{"name":"account","type":"address","internalType":"address"}],"outputs":[{"name":"","type":"uint256","internalType":"euint64"}],"stateMutability":"nonpayable"},{"type":"function","name":"burn","inputs":[{"name":"amount","type":"uint64","internalType":"uint64"}],"outputs":[],"stateMutability":"nonpayable"},{"type":"function","name":"decimals","inputs":[],"outputs":[{"name":"","type":"uint8","internalType":"uint8"}],"stateMutability":"view"},{"type":"function","name":"errorGetCounter","inputs":[],"outputs":[{"name":"errorsCount","type":"uint256","internalType":"uint256"}],"stateMutability":"view"},{"type":"function","name":"getErrorCodeForTransferId","inputs":[{"name":"transferId","type":"uint256","internalType":"uint256"}],"outputs":[{"name":"errorCode","type":"uint256","internalType":"euint8"}],"stateMutability":"view"},{"type":"function","name":"mint","inputs":[{"name":"to","type":"address","internalType":"address"},{"name":"amount","type":"uint64","internalType":"uint64"}],"outputs":[],"stateMutability":"nonpayable"},{"type":"function","name":"name","inputs":[],"outputs":[{"name":"","type":"string","internalType":"string"}],"stateMutability":"view"},{"type":"function","name":"owner","inputs":[],"outputs":[{"name":"","type":"address","internalType":"address"}],"stateMutability":"view"},{"type":"function","name":"pendingOwner","inputs":[],"outputs":[{"name":"","type":"address","internalType":"address"}],"stateMutability":"view"},{"type":"function","name":"renounceOwnership","inputs":[],"outputs":[],"stateMutability":"nonpayable"},{"type":"function","name":"symbol","inputs":[],"outputs":[{"name":"","type":"string","internalType":"string"}],"stateMutability":"view"},{"type":"function","name":"totalSupply","inputs":[],"outputs":[{"name":"","type":"uint64","internalType":"uint64"}],"stateMutability":"view"},{"type":"function","name":"transfer","inputs":[{"name":"to","type":"address","internalType":"address"},{"name":"encryptedAmount","type":"bytes32","internalType":"einput"},{"name":"inputProof","type":"bytes","internalType":"bytes"}],"outputs":[{"name":"","type":"bool","internalType":"bool"}],"stateMutability":"nonpayable"},{"type":"function","name":"transfer","inputs":[{"name":"to","type":"address","internalType":"address"},{"name":"amount","type":"uint256","internalType":"euint64"}],"outputs":[{"name":"","type":"bool","internalType":"bool"}],"stateMutability":"nonpayable"},{"type":"function","name":"transferFrom","inputs":[{"name":"from","type":"address","internalType":"address"},{"name":"to","type":"address","internalType":"address"},{"name":"amount","type":"uint256","internalType":"euint64"}],"outputs":[{"name":"","type":"bool","internalType":"bool"}],"stateMutability":"nonpayable"},{"type":"function","name":"transferFrom","inputs":[{"name":"from","type":"address","internalType":"address"},{"name":"to","type":"address","internalType":"address"},{"name":"encryptedAmount","type":"bytes32","internalType":"einput"},{"name":"inputProof","type":"bytes","internalType":"bytes"}],"outputs":[{"name":"","type":"bool","internalType":"bool"}],"stateMutability":"nonpayable"},{"type":"function","name":"transferOwnership","inputs":[{"name":"newOwner","type":"address","internalType":"address"}],"outputs":[],"stateMutability":"nonpayable"},{"type":"event","name":"Approval","inputs":[{"name":"owner","type":"address","indexed":true,"internalType":"address"},{"name":"spender","type":"address","indexed":true,"internalType":"address"},{"name":"placeholder","type":"uint256","indexed":false,"internalType":"uint256"}],"anonymous":false},{"type":"event","name":"Burn","inputs":[{"name":"to","type":"address","indexed":true,"internalType":"address"},{"name":"amount","type":"uint64","indexed":false,"internalType":"uint64"}],"anonymous":false},{"type":"event","name":"Mint","inputs":[{"name":"to","type":"address","indexed":true,"internalType":"address"},{"name":"amount","type":"uint64","indexed":false,"internalType":"uint64"}],"anonymous":false},{"type":"event","name":"OwnershipTransferStarted","inputs":[{"name":"previousOwner","type":"address","indexed":true,"internalType":"address"},{"name":"newOwner","type":"address","indexed":true,"internalType":"address"}],"anonymous":false},{"type":"event","name":"OwnershipTransferred","inputs":[{"name":"previousOwner","type":"address","indexed":true,"internalType":"address"},{"name":"newOwner","type":"address","indexed":true,"internalType":"address"}],"anonymous":false},{"type":"event","name":"Transfer","inputs":[{"name":"from","type":"address","indexed":true,"internalType":"address"},{"name":"to","type":"address","indexed":true,"internalType":"address"},{"name":"transferId","type":"uint256","indexed":false,"internalType":"uint256"}],"anonymous":false},{"type":"error","name":"ERC20InsufficientAllowance","inputs":[{"name":"spender","type":"address","internalType":"address"},{"name":"allowance","type":"uint256","internalType":"uint256"},{"name":"needed","type":"uint256","internalType":"uint256"}]},{"type":"error","name":"ERC20InsufficientBalance","inputs":[{"name":"sender","type":"address","internalType":"address"},{"name":"balance","type":"uint256","internalType":"uint256"},{"name":"needed","type":"uint256","internalType":"uint256"}]},{"type":"error","name":"ERC20InvalidApprover","inputs":[{"name":"approver","type":"address","internalType":"address"}]},{"type":"error","name":"ERC20InvalidReceiver","inputs":[{"name":"receiver","type":"address","internalType":"address"}]},{"type":"error","name":"ERC20InvalidSender","inputs":[{"name":"sender","type":"address","internalType":"address"}]},{"type":"error","name":"ERC20InvalidSpender","inputs":[{"name":"spender","type":"address","internalType":"address"}]},{"type":"error","name":"ErrorIndexInvalid","inputs":[]},{"type":"error","name":"ErrorIndexIsNull","inputs":[]},{"type":"error","name":"OwnableInvalidOwner","inputs":[{"name":"owner","type":"address","internalType":"address"}]},{"type":"error","name":"OwnableUnauthorizedAccount","inputs":[{"name":"account","type":"address","internalType":"address"}]},{"type":"error","name":"TFHESenderNotAllowed","inputs":[]},{"type":"error","name":"TotalNumberErrorCodesEqualToZero","inputs":[]}],"bytecode":{"object":"0x60a0604052346100405761001a610014610197565b906101b9565b610022610045565b612d73610d7e8239608051818181611a400152611da10152612d7390f35b61004b565b60405190565b5f80fd5b601f801991011690565b634e487b7160e01b5f52604160045260245ffd5b906100779061004f565b810190811060018060401b0382111761008f57604052565b610059565b906100a76100a0610045565b928361006d565b565b5f80fd5b5f80fd5b5f80fd5b5f80fd5b60018060401b0381116100d5576100d160209161004f565b0190565b610059565b90825f9392825e0152565b909291926100fa6100f5826100b9565b610094565b9381855260208501908284011161011657610114926100da565b565b6100b5565b9080601f8301121561013957816020610136935191016100e5565b90565b6100b1565b919091604081840312610192575f81015160018060401b03811161018d578361016891830161011b565b92602082015160018060401b03811161018857610185920161011b565b90565b6100ad565b6100ad565b6100a9565b6101b5613af1803803806101aa81610094565b92833981019061013e565b9091565b906101c6919033916101c8565b565b916101d5929190916101d7565b565b916101e492919091610221565b565b634e487b7160e01b5f52602160045260245ffd5b6003111561020457565b6101e6565b90610213826101fa565b565b61021e90610209565b90565b61023892916102306002610215565b919091610346565b565b60ff1690565b90565b90565b61025a61025561025f92610240565b610243565b61023a565b90565b5f0190565b5f90565b634e487b7160e01b5f52601160045260245ffd5b6102889061023a565b60ff81146102965760010190565b61026b565b90565b6102b26102ad6102b79261023a565b610243565b61029b565b90565b6102ce6102c96102d39261023a565b610243565b61023a565b90565b906102e0906102ba565b5f5260205260405f2090565b5f1b90565b906102fd5f19916102ec565b9181191691161790565b61031b6103166103209261029b565b610243565b61029b565b90565b90565b9061033b61033661034292610307565b610323565b82546102f1565b9055565b9290916103529261061e565b8061036561035f5f610246565b9161023a565b146103cd57610372610267565b5b806103866103808461023a565b9161023a565b116103c757806103bd6103a361039e6103c29461029e565b610771565b6103b8816103b3600786906102d6565b610326565b6107cb565b61027f565b610373565b50608052565b5f63328d4ab160e01b8152806103e560048201610262565b0390fd5b5190565b634e487b7160e01b5f52602260045260245ffd5b9060016002830492168015610421575b602083101461041c57565b6103ed565b91607f1691610411565b5f5260205f2090565b601f602091010490565b1b90565b9190600861045d9102916104575f198461043e565b9261043e565b9181191691161790565b90565b919061048061047b61048893610307565b610467565b908354610442565b9055565b5f90565b6104a29161049c61048c565b9161046a565b565b5b8181106104b0575050565b806104bd5f600193610490565b016104a5565b9190601f81116104d3575b505050565b6104df6105049361042b565b9060206104eb84610434565b8301931061050c575b6104fd90610434565b01906104a4565b5f80806104ce565b91506104fd819290506104f4565b1c90565b9061052e905f199060080261051a565b191690565b8161053d9161051e565b906002021790565b9061054f816103e9565b9060018060401b03821161060d576105718261056b8554610401565b856104c3565b602090601f83116001146105a557918091610594935f92610599575b5050610533565b90555b565b90915001515f8061058d565b601f198316916105b48561042b565b925f5b8181106105f5575091600293918560019694106105db575b50505002019055610597565b6105eb910151601f84169061051e565b90555f80806105cf565b919360206001819287870151815501950192016105b7565b610059565b9061061c91610545565b565b6106359061062e61063c9461063e565b6002610612565b6003610612565b565b61064790610649565b565b61065290610654565b565b61065d9061065f565b565b610668906106cb565b565b60018060a01b031690565b61068961068461068e92610240565b610243565b61066a565b90565b61069a90610675565b90565b6106a69061066a565b90565b6106b29061069d565b9052565b91906106c9905f602085019401906106a9565b565b6106d3610725565b806106ee6106e86106e35f610691565b61069d565b9161069d565b146106fe576106fc9061085b565b565b61072161070a5f610691565b5f918291631e4fbdf760e01b8352600483016106b6565b0390fd5b61072d61072f565b565b61073f61073a6108e6565b61097f565b565b5f90565b90565b61075c61075761076192610745565b610243565b61023a565b90565b61076e6002610748565b90565b61078f61079491610780610741565b50610789610764565b90610aa2565b610307565b90565b6107ab6107a66107b09261066a565b610243565b61066a565b90565b6107bc90610797565b90565b6107c8906107b3565b90565b6107d76107e691610307565b6107e0306107bf565b90610ba7565b565b9190600861080891029161080260018060a01b038461043e565b9261043e565b9181191691161790565b61081b906107b3565b90565b90565b919061083761083261083f93610812565b61081e565b9083546107e8565b9055565b5f90565b61085991610853610843565b91610821565b565b61086f9061086a5f6001610847565b610c84565b565b61087b6080610094565b90565b5f90565b61088a610871565b9060208080808561089961087e565b8152016108a461087e565b8152016108af61087e565b8152016108ba61087e565b81525050565b6108c8610882565b90565b6108d56080610094565b90565b906108e29061069d565b9052565b6108ee6108c0565b5073fee8407e2f5e3ee68ad77cae98c434e637f516e561097c73687408ab54661ba0b4aef3a44156c616c6955e0761097373fb03be574d14c256d56f09a198b586bdfc0a9de261096a739d6891a6240d6130c54ae243d8005063d05fe14b936109616109586108cb565b975f89016108d8565b602087016108d8565b604085016108d8565b606083016108d8565b90565b61098890610cf0565b565b5f1c90565b60018060a01b031690565b6109a66109ab9161098a565b61098f565b90565b6109b8905461099a565b90565b6109c490610797565b90565b6109d0906109bb565b90565b6109dc906107b3565b90565b60ff60f81b1690565b60f81b90565b610a026109fd610a079261023a565b6109e8565b6109df565b90565b5f80fd5b60e01b90565b610a1d8161029b565b03610a2457565b5f80fd5b90505190610a3582610a14565b565b90602082820312610a5057610a4d915f01610a28565b90565b6100a9565b610a5e9061029b565b9052565b610a6b906109df565b9052565b916020610a90929493610a8960408201965f830190610a55565b0190610a62565b565b610a9a610045565b3d5f823e3d90fd5b90602090610aae61048c565b50610ad2610acd610ac86001610ac2610d59565b016109ae565b6109c7565b6109d3565b610afd5f610ae563e71746b896946109ee565b95610b08610af1610045565b97889687958694610a0e565b845260048401610a6f565b03925af1908115610b4c575f91610b1e575b5090565b610b3f915060203d8111610b45575b610b37818361006d565b810190610a37565b5f610b1a565b503d610b2d565b610a92565b610b5a90610797565b90565b610b6690610b51565b90565b610b72906107b3565b90565b5f910312610b7f57565b6100a9565b916020610ba5929493610b9e60408201965f830190610a55565b01906106a9565b565b610bc9610bc4610bbf5f610bb9610d59565b016109ae565b610b5d565b610b69565b916365d0509c919092803b15610c4457610bf65f8094610c01610bea610045565b97889687958694610a0e565b845260048401610b84565b03925af18015610c3f57610c13575b50565b610c32905f3d8111610c38575b610c2a818361006d565b810190610b75565b5f610c10565b503d610c20565b610a92565b610a0a565b90610c5a60018060a01b03916102ec565b9181191691161790565b90610c79610c74610c8092610812565b61081e565b8254610c49565b9055565b610c8d5f6109ae565b610c97825f610c64565b90610ccb610cc57f8be0079c531659141344cd1fd0a4f28419497f9722a3daafe3b4186f6b6457e093610812565b91610812565b91610cd4610045565b80610cde81610262565b0390a3565b610ced905161069d565b90565b610d57906003610d506060610d03610d59565b93610d1a610d125f8301610ce3565b5f8701610c64565b610d32610d2960208301610ce3565b60018701610c64565b610d4a610d4160408301610ce3565b60028701610c64565b01610ce3565b9101610c64565b565b7fed8d60e34876f751cc8b014c560745351147d9de11b9347c854e881b128ea6009056fe60806040526004361015610013575b610ab1565b61001d5f3561017c565b806306e928fd1461017757806306fdde0314610172578063095ea7b31461016d57806318160ddd1461016857806323b872dd146101635780632893c5b01461015e578063313ce5671461015957806367a74a281461015457806370a082311461014f578063715018a61461014a57806379ba5097146101455780637b7e0a5a146101405780638da5cb5b1461013b57806395d89b41146101365780639a094352146101315780639dbead421461012c578063a5184baf14610127578063a9059cbb14610122578063b32c10011461011d578063dd62ed3e14610118578063e30c3978146101135763f2fde38b0361000e57610a7e565b610a49565b610a13565b6109ad565b610977565b610942565b6108ac565b610855565b6107c0565b61078b565b610730565b61063a565b610607565b6105d2565b61059d565b610546565b6104ea565b61045f565b6103f0565b61038b565b6102df565b610230565b60e01c90565b60405190565b5f80fd5b5f80fd5b5f80fd5b60018060a01b031690565b6101a890610194565b90565b6101b48161019f565b036101bb57565b5f80fd5b905035906101cc826101ab565b565b906020828203126101e7576101e4915f016101bf565b90565b61018c565b90565b90565b61020661020161020b926101ec565b6101ef565b6101ec565b90565b610217906101f2565b9052565b919061022e905f6020850194019061020e565b565b346102605761025c61024b6102463660046101ce565b610b2c565b610253610182565b9182918261021b565b0390f35b610188565b5f91031261026f57565b61018c565b5190565b60209181520190565b90825f9392825e0152565b601f801991011690565b6102b56102be6020936102c3936102ac81610274565b93848093610278565b95869101610281565b61028c565b0190565b6102dc9160208201915f818403910152610296565b90565b3461030f576102ef366004610265565b61030b6102fa610caf565b610302610182565b918291826102c7565b0390f35b610188565b61031d816101ec565b0361032457565b5f80fd5b9050359061033582610314565b565b919060408382031261035f578061035361035c925f86016101bf565b93602001610328565b90565b61018c565b151590565b61037290610364565b9052565b9190610389905f60208501940190610369565b565b346103bc576103b86103a76103a1366004610337565b90610cce565b6103af610182565b91829182610376565b0390f35b610188565b67ffffffffffffffff1690565b6103d7906103c1565b9052565b91906103ee905f602085019401906103ce565b565b3461042057610400366004610265565b61041c61040b610d82565b610413610182565b918291826103db565b0390f35b610188565b909160608284031261045a57610457610440845f85016101bf565b9361044e81602086016101bf565b93604001610328565b90565b61018c565b346104905761048c61047b610475366004610425565b91610d98565b610483610182565b91829182610376565b0390f35b610188565b61049e816103c1565b036104a557565b5f80fd5b905035906104b682610495565b565b91906040838203126104e057806104d46104dd925f86016101bf565b936020016104a9565b90565b61018c565b5f0190565b34610519576105036104fd3660046104b8565b90610eee565b61050b610182565b80610515816104e5565b0390f35b610188565b60ff1690565b61052d9061051e565b9052565b9190610544905f60208501940190610524565b565b3461057657610556366004610265565b610572610561610f1d565b610569610182565b91829182610531565b0390f35b610188565b610584906101ec565b9052565b919061059b905f6020850194019061057b565b565b346105cd576105ad366004610265565b6105c96105b8610f37565b6105c0610182565b91829182610588565b0390f35b610188565b34610602576105fe6105ed6105e83660046101ce565b610f4b565b6105f5610182565b9182918261021b565b0390f35b610188565b3461063557610617366004610265565b61061f610fba565b610627610182565b80610631816104e5565b0390f35b610188565b346106685761064a366004610265565b610652610fc4565b61065a610182565b80610664816104e5565b0390f35b610188565b90565b6106798161066d565b0361068057565b5f80fd5b9050359061069182610670565b565b5f80fd5b5f80fd5b5f80fd5b909182601f830112156106d95781359167ffffffffffffffff83116106d45760200192600183028401116106cf57565b61069b565b610697565b610693565b9160608383031261072b576106f5825f85016101bf565b926107038360208301610684565b92604082013567ffffffffffffffff811161072657610722920161069f565b9091565b610190565b61018c565b346107645761076061074f6107463660046106de565b929190916110a0565b610757610182565b91829182610376565b0390f35b610188565b6107729061019f565b9052565b9190610789905f60208501940190610769565b565b346107bb5761079b366004610265565b6107b76107a66110ff565b6107ae610182565b91829182610776565b0390f35b610188565b346107f0576107d0366004610265565b6107ec6107db611114565b6107e3610182565b918291826102c7565b0390f35b610188565b906080828203126108505761080c815f84016101bf565b9261081a82602085016101bf565b926108288360408301610684565b92606082013567ffffffffffffffff811161084b57610847920161069f565b9091565b610190565b61018c565b346108895761088561087461086b3660046107f5565b9392909261112a565b61087c610182565b91829182610376565b0390f35b610188565b906020828203126108a7576108a4915f016104a9565b90565b61018c565b346108da576108c46108bf36600461088e565b611185565b6108cc610182565b806108d6816104e5565b0390f35b610188565b6108e8816101ec565b036108ef57565b5f80fd5b90503590610900826108df565b565b9060208282031261091b57610918915f016108f3565b90565b61018c565b610929906101f2565b9052565b9190610940905f60208501940190610920565b565b346109725761096e61095d610958366004610902565b6111b3565b610965610182565b9182918261092d565b0390f35b610188565b346109a8576109a461099361098d366004610337565b90611203565b61099b610182565b91829182610376565b0390f35b610188565b346109e1576109dd6109cc6109c33660046106de565b9291909161127a565b6109d4610182565b91829182610376565b0390f35b610188565b9190604083820312610a0e5780610a02610a0b925f86016101bf565b936020016101bf565b90565b61018c565b34610a4457610a40610a2f610a293660046109e6565b906112a9565b610a37610182565b9182918261021b565b0390f35b610188565b34610a7957610a59366004610265565b610a75610a646112bf565b610a6c610182565b91829182610776565b0390f35b610188565b34610aac57610a96610a913660046101ce565b61138a565b610a9e610182565b80610aa8816104e5565b0390f35b610188565b5f80fd5b5f90565b610acd610ac8610ad292610194565b6101ef565b610194565b90565b610ade90610ab9565b90565b610aea90610ad5565b90565b90610af790610ae1565b5f5260205260405f2090565b5f1c90565b90565b610b17610b1c91610b03565b610b08565b90565b610b299054610b0b565b90565b610b43610b4891610b3b610ab5565b506004610aed565b610b1f565b610b53813390611395565b90565b606090565b634e487b7160e01b5f52602260045260245ffd5b9060016002830492168015610b8f575b6020831014610b8a57565b610b5b565b91607f1691610b7f565b60209181520190565b5f5260205f2090565b905f9291805490610bc5610bbe83610b6f565b8094610b99565b916001811690815f14610c1c5750600114610be0575b505050565b610bed9192939450610ba2565b915f925b818410610c0457505001905f8080610bdb565b60018160209295939554848601520191019290610bf1565b92949550505060ff19168252151560200201905f8080610bdb565b90610c4191610bab565b90565b634e487b7160e01b5f52604160045260245ffd5b90610c629061028c565b810190811067ffffffffffffffff821117610c7c57604052565b610c44565b90610ca1610c9a92610c91610182565b93848092610c37565b0383610c58565b565b610cac90610c81565b90565b610cb7610b56565b50610cc26002610ca3565b90565b5f90565b5f1990565b90610cd7610cc5565b50610ce1816113a9565b610cf03391829084909161142c565b90610cf9610cc9565b91610d42610d30610d2a7f8c5be1e5ebec7d5bd14f71427d1e84f3dd0314c0f7b2291e5b200ac8c7c3b92593610ae1565b93610ae1565b93610d39610182565b91829182610588565b0390a3600190565b5f90565b60a01c90565b67ffffffffffffffff1690565b610d6d610d7291610d4e565b610d54565b90565b610d7f9054610d61565b90565b610d8a610d4a565b50610d956001610d75565b90565b610dc592610da4610cc5565b50610dae816113a9565b610dbb33839083916114ef565b91929091926115fc565b600190565b90610ddc91610dd7611677565b610e81565b565b634e487b7160e01b5f52601160045260245ffd5b610dfe610e04916103c1565b916103c1565b019067ffffffffffffffff8211610e1757565b610dde565b60a01b90565b90610e3867ffffffffffffffff60a01b91610e1c565b9181191691161790565b610e56610e51610e5b926103c1565b6101ef565b6103c1565b90565b90565b90610e76610e71610e7d92610e42565b610e5e565b8254610e22565b9055565b610e8c8183906116c5565b610eaa610ea3610e9c6001610d75565b8490610df2565b6001610e61565b610ee9610ed77f9109de113672aaca72ede8bc906f7aafabee865311ac020fb15c71edf94a0a0192610ae1565b92610ee0610182565b918291826103db565b0390a2565b90610ef891610dca565b565b5f90565b90565b610f15610f10610f1a92610efe565b6101ef565b61051e565b90565b610f25610efa565b50610f306006610f01565b90565b5f90565b610f3f610f33565b50610f48611754565b90565b610f62610f6791610f5a610ab5565b506004610aed565b610b1f565b90565b610f72611677565b610f7a610fa7565b565b90565b610f93610f8e610f9892610f7c565b6101ef565b610194565b90565b610fa490610f7f565b90565b610fb8610fb35f610f9b565b6117ce565b565b610fc2610f6a565b565b610fcc6117e4565b610fd46112bf565b610fe6610fe08361019f565b9161019f565b03610ff657610ff4906117ce565b565b611011905f91829163118cdaa760e01b835260048301610776565b0390fd5b5f80fd5b9061102c611025610182565b9283610c58565b565b67ffffffffffffffff811161104c5761104860209161028c565b0190565b610c44565b90825f939282370152565b9092919261107161106c8261102e565b611019565b9381855260208501908284011161108d5761108b92611051565b565b611015565b61109d91369161105c565b90565b916110bd6110c9946110c393946110b5610cc5565b509492611092565b90611829565b90611203565b50600190565b5f90565b60018060a01b031690565b6110ea6110ef91610b03565b6110d3565b90565b6110fc90546110de565b90565b6111076110cf565b506111115f6110f2565b90565b61111c610b56565b506111276003610ca3565b90565b926111486111549561114e939561113f610cc5565b50959492611092565b90611829565b91610d98565b50600190565b61116661116c916103c1565b916103c1565b90039067ffffffffffffffff821161118057565b610dde565b6111a66111ad91611197338290611859565b6111a16001610d75565b61115a565b6001610e61565b565b5f90565b6111c5906111bf6111af565b5061189f565b90565b634e487b7160e01b5f52602160045260245ffd5b600311156111e657565b6111c8565b906111f5826111dc565b565b611200906111eb565b90565b6112759161120f610cc5565b50611219816113a9565b6112378161123161122c60043390610aed565b610b1f565b90611918565b9061126b61124f8361124960016111f7565b90611a15565b61125881611b3e565b50611264813390611b8e565b8490611b8e565b33929091926115fc565b600190565b916112976112a39461129d939461128f610cc5565b509492611092565b90611829565b90610cce565b50600190565b906112bc916112b6610ab5565b50611ba2565b90565b6112c76110cf565b506112d260016110f2565b90565b6112e6906112e1611677565b61132b565b565b5f1b90565b906112fe60018060a01b03916112e8565b9181191691161790565b90565b9061132061131b61132792610ae1565b611308565b82546112ed565b9055565b61133681600161130b565b61133e6110ff565b9061137261136c7f38d16b8cac22d99fc7c124b9cd0de2d3fa1faef420bfe791d8c362d765e2270093610ae1565b91610ae1565b9161137b610182565b80611385816104e5565b0390a3565b611393906112d5565b565b906113a26113a7926101f2565b611c3a565b565b6113b56113bb91611cdc565b15610364565b6113c157565b5f632fa38b3f60e01b8152806113d9600482016104e5565b0390fd5b906113e790610ae1565b5f5260205260405f2090565b906113ff5f19916112e8565b9181191691161790565b90565b9061142161141c611428926101f2565b611409565b82546113f3565b9055565b9190918061144a61144461143f5f610f9b565b61019f565b9161019f565b146114cc578261146a61146461145f5f610f9b565b61019f565b9161019f565b146114ad57906114a66114ab93926114978361149261148b600585906113dd565b8790610aed565b61140c565b6114a083611d07565b82611d24565b611d24565b565b6114c8835f918291634a1406b160e11b835260048301610776565b0390fd5b6114e7905f91829163e602df0560e01b835260048301610776565b0390fd5b5f90565b9291906115b6916114fe6114eb565b506115b061150d868490611ba2565b9161159b61151c828590611918565b6115308161152a60026111f7565b90611a15565b61159661157a6115548c61154e61154989926004610aed565b610b1f565b90611918565b9261156861156185611d38565b8690611d5d565b9061157360016111f7565b9091611d8e565b61158381611b3e565b5061158f818d90611b8e565b8890611b8e565b611d5d565b9693926115a9889282611e0d565b9091611ea6565b9161142c565b565b90565b6115cf6115ca6115d4926115b8565b6101ef565b6101ec565b90565b6115e66115ec919392936101ec565b926101ec565b82039182116115f757565b610dde565b9161160d9193839185909192611ee0565b90611629611619611754565b61162360016115bb565b906115d7565b9161167261166061165a7fddf252ad1be2c89b69c2b068fc378daa952ba7f163c4a11628f55a4df523b3ef93610ae1565b93610ae1565b93611669610182565b91829182610588565b0390a3565b61167f6110ff565b61169861169261168d6117e4565b61019f565b9161019f565b0361169f57565b6116c16116aa6117e4565b5f91829163118cdaa760e01b835260048301610776565b0390fd5b906116d0908261200a565b6116d95f610f9b565b906116e2610cc9565b9161172b6117196117137fddf252ad1be2c89b69c2b068fc378daa952ba7f163c4a11628f55a4df523b3ef93610ae1565b93610ae1565b93611722610182565b91829182610588565b0390a3565b90565b61173f61174491610b03565b611730565b90565b6117519054611733565b90565b61175c610f33565b506117676006611747565b90565b1b90565b9190600861178e91029161178860018060a01b038461176a565b9261176a565b9181191691161790565b91906117ae6117a96117b693610ae1565b611308565b90835461176e565b9055565b6117cc916117c66110cf565b91611798565b565b6117e2906117dd5f60016117ba565b61204f565b565b6117ec6110cf565b503390565b6117fa9061066d565b90565b90565b61181461180f611819926117fd565b6101ef565b61051e565b90565b6118266005611800565b90565b611856916118426118519261183c610ab5565b506117f1565b9061184b61181c565b916121c5565b6101f2565b90565b9061186391612314565b565b9061186f906101f2565b5f5260205260405f2090565b90565b61188a61188f91610b03565b61187b565b90565b61189c905461187e565b90565b6118a76111af565b50806118c46118be6118b96006611747565b6101ec565b916101ec565b10156118e0576118d86118dd916008611865565b611892565b90565b5f63d65c1f3360e01b8152806118f8600482016104e5565b0390fd5b61191061190b61191592610f7c565b6101ef565b6101ec565b90565b61197591611970916119286114eb565b5061193b61193582612359565b15610364565b61199a575b61195261194c83612359565b15610364565b611978575b611963611969916101f2565b916101f2565b5f91612416565b6101f2565b90565b905061196961196361199161198c5f6118fc565b612382565b92915050611957565b506119ac6119a75f6118fc565b612382565b611940565b6119c56119c06119ca92610f7c565b6101ef565b61051e565b90565b906119d7906119b1565b5f5260205260405f2090565b6119f76119f26119fc9261051e565b6101ef565b61051e565b90565b90611a09906119e3565b5f5260205260405f2090565b90611a1e6111af565b5080611a32611a2c5f6119b1565b9161051e565b14611ac05780611a6a611a647f000000000000000000000000000000000000000000000000000000000000000061051e565b9161051e565b11611aa457611aa19190611a9b611a96611a8e611a8960075f906119cd565b611892565b9260076119ff565b611892565b916124e9565b90565b5f63d65c1f3360e01b815280611abc600482016104e5565b0390fd5b5f63436badaf60e11b815280611ad8600482016104e5565b0390fd5b611ae5906101ec565b5f198114611af35760010190565b610dde565b90565b90611b10611b0b611b17926101f2565b611af8565b82546113f3565b9055565b90565b90611b33611b2e611b3a926101f2565b611b1b565b82546113f3565b9055565b90611b47610f33565b50611b8c611b556006611747565b92611b72611b6b611b666006611747565b611adc565b6006611afb565b611b8781611b8260088790611865565b611b1e565b612523565b565b90611b9b611ba0926101f2565b612540565b565b611bc791611bbd611bc292611bb5610ab5565b5060056113dd565b610aed565b610b1f565b90565b611bd390610ab9565b90565b611bdf90611bca565b90565b611beb90610ad5565b90565b5f80fd5b60e01b90565b5f910312611c0257565b61018c565b916020611c28929493611c2160408201965f83019061057b565b0190610769565b565b611c32610182565b3d5f823e3d90fd5b611c5c611c57611c525f611c4c6125e2565b016110f2565b611bd6565b611be2565b91638d9c9c92919092803b15611cd757611c895f8094611c94611c7d610182565b97889687958694611bf2565b845260048401611c07565b03925af18015611cd257611ca6575b50565b611cc5905f3d8111611ccb575b611cbd8183610c58565b810190611bf8565b5f611ca3565b503d611cb3565b611c2a565b611bee565b611cf1611cf891611ceb610cc5565b506101f2565b3390612647565b90565b611d0490610ad5565b90565b611d13611d22916101f2565b611d1c30611cfb565b90612540565b565b90611d31611d36926101f2565b612540565b565b611d55611d50611d5a92611d4a6114eb565b506101f2565b6126ec565b6101f2565b90565b611d8b91611d7f611d79611d8693611d736114eb565b506101f2565b916101f2565b5f9161278f565b6101f2565b90565b91611d976111af565b5081611dcb611dc57f000000000000000000000000000000000000000000000000000000000000000061051e565b9161051e565b11611df157611de7611de2611dee949360076119ff565b611892565b90916124e9565b90565b5f63d65c1f3360e01b815280611e09600482016104e5565b0390fd5b611e6a91611e6591611e1d610ab5565b50611e30611e2a82612359565b15610364565b611e8f575b611e47611e4183612359565b15610364565b611e6d575b611e58611e5e916101f2565b916101f2565b5f91612862565b6101f2565b90565b9050611e5e611e58611e86611e815f6118fc565b612382565b92915050611e4c565b50611ea1611e9c5f6118fc565b612382565b611e35565b90611edd92611ed2611ecc611ec6611ed895611ec0610ab5565b506101f2565b936101f2565b916101f2565b91612967565b6101f2565b90565b9190939282611eff611ef9611ef45f610f9b565b61019f565b9161019f565b14611feb5784611f1f611f19611f145f610f9b565b61019f565b9161019f565b14611fcc5793611f8e611f4c611fa793611fca969790611f46611f415f6118fc565b612382565b91611ea6565b91611f6b611f64611f5f60048490610aed565b610b1f565b8490612a0f565b611f8081611f7b60048590610aed565b61140c565b611f8981611d07565b611d24565b611fa2611f9d60048590610aed565b610b1f565b611e0d565b611fbc81611fb760048590610aed565b61140c565b611fc581611d07565b611d24565b565b611fe7855f91829163ec442f0560e01b835260048301610776565b0390fd5b612006835f918291634b637e8f60e11b835260048301610776565b0390fd5b61202a61204d9261202561202060048590610aed565b610b1f565b612ac4565b61203f8161203a60048590610aed565b61140c565b61204881611d07565b611d24565b565b6120585f6110f2565b612062825f61130b565b906120966120907f8be0079c531659141344cd1fd0a4f28419497f9722a3daafe3b4186f6b6457e093610ae1565b91610ae1565b9161209f610182565b806120a9816104e5565b0390a3565b6120b790610ab9565b90565b6120c3906120ae565b90565b6120cf90610ad5565b90565b60ff60f81b1690565b60f81b90565b6120f56120f06120fa9261051e565b6120db565b6120d2565b90565b9050519061210a826108df565b565b9060208282031261212557612122915f016120fd565b90565b61018c565b6121339061066d565b9052565b5190565b60209181520190565b61216361216c6020936121719361215a81612137565b9384809361213b565b95869101610281565b61028c565b0190565b61217e906120d2565b9052565b9493916060916121c3946121ae6121bb936121a460808b01945f8c019061212a565b60208a0190610769565b8782036040890152612144565b940190612175565b565b92916020906121d2610f33565b506121db6125e2565b946122275f6121fc6121f76121f260018b016110f2565b6120ba565b6120c6565b92612232632e817ff091956122123399916120e1565b9061221b610182565b998a9889978896611bf2565b865260048601612182565b03925af190811561230f576122585f6122629361225d9382916122e1575b5095016110f2565b611bd6565b611be2565b638d9c9c92833392803b156122dc5761228e5f8094612299612282610182565b97889687958694611bf2565b845260048401611c07565b03925af180156122d7576122ab575b50565b6122ca905f3d81116122d0575b6122c28183610c58565b810190611bf8565b5f6122a8565b503d6122b8565b611c2a565b611bee565b612302915060203d8111612308575b6122fa8183610c58565b81019061210c565b5f612250565b503d6122f0565b611c2a565b6123346123579261232f61232a60048590610aed565b610b1f565b612b2e565b6123498161234460048590610aed565b61140c565b61235281611d07565b611d24565b565b61236b90612365610cc5565b506101f2565b61237d6123775f6118fc565b916101ec565b141590565b6123a06123a591612391610ab5565b5061239a61181c565b90612bbb565b6101f2565b90565b5f90565b6123c06123bb6123c592610f7c565b6120db565b6120d2565b90565b6123dc6123d76123e1926115b8565b6120db565b6120d2565b90565b60409061240d612414949695939661240360608401985f85019061057b565b602083019061057b565b0190612175565b565b9190602091612423610f33565b5061242c6123a8565b505f146124da5761243d60016123c8565b925b6124865f61246661246161245c60016124566125e2565b016110f2565b6120ba565b6120c6565b9261249163694daf7291959761247a610182565b98899788968795611bf2565b8552600485016123e4565b03925af19081156124d5575f916124a7575b5090565b6124c8915060203d81116124ce575b6124c08183610c58565b81019061210c565b5f6124a3565b503d6124b6565b611c2a565b6124e35f6123ac565b9261243f565b906125209261251561250f61250961251b956125036111af565b506101f2565b936101f2565b916101f2565b91612967565b6101f2565b90565b61252f61253e916101f2565b61253830611cfb565b90612540565b565b61256261255d6125585f6125526125e2565b016110f2565b611bd6565b611be2565b916365d0509c919092803b156125dd5761258f5f809461259a612583610182565b97889687958694611bf2565b845260048401611c07565b03925af180156125d8576125ac575b50565b6125cb905f3d81116125d1575b6125c38183610c58565b810190611bf8565b5f6125a9565b503d6125b9565b611c2a565b611bee565b7fed8d60e34876f751cc8b014c560745351147d9de11b9347c854e881b128ea60090565b61260f81610364565b0361261657565b5f80fd5b9050519061262782612606565b565b906020828203126126425761263f915f0161261a565b90565b61018c565b90602090612653610cc5565b5061267661267161266c5f6126666125e2565b016110f2565b611bd6565b611be2565b612698635faa299a9492946126a361268c610182565b96879586948594611bf2565b845260048401611c07565b03915afa9081156126e7575f916126b9575b5090565b6126da915060203d81116126e0575b6126d28183610c58565b810190612629565b5f6126b5565b503d6126c8565b611c2a565b6020612746916126fa610f33565b5061271e612719612714600161270e6125e2565b016110f2565b6120ba565b6120c6565b61273b5f6313801ffa61272f610182565b96879586948593611bf2565b835260048301610588565b03925af190811561278a575f9161275c575b5090565b61277d915060203d8111612783575b6127758183610c58565b81019061210c565b5f612758565b503d61276b565b611c2a565b919060209161279c610f33565b506127a56123a8565b505f14612853576127b660016123c8565b925b6127ff5f6127df6127da6127d560016127cf6125e2565b016110f2565b6120ba565b6120c6565b9261280a63666a35889195976127f3610182565b98899788968795611bf2565b8552600485016123e4565b03925af190811561284e575f91612820575b5090565b612841915060203d8111612847575b6128398183610c58565b81019061210c565b5f61281c565b503d61282f565b611c2a565b61285c5f6123ac565b926127b8565b919060209161286f610f33565b506128786123a8565b505f146129265761288960016123c8565b925b6128d25f6128b26128ad6128a860016128a26125e2565b016110f2565b6120ba565b6120c6565b926128dd638c14cc219195976128c6610182565b98899788968795611bf2565b8552600485016123e4565b03925af1908115612921575f916128f3575b5090565b612914915060203d811161291a575b61290c8183610c58565b81019061210c565b5f6128ef565b503d612902565b611c2a565b61292f5f6123ac565b9261288b565b60409061295e612965949695939661295460608401985f85019061057b565b602083019061057b565b019061057b565b565b90602091612973610f33565b506129bb5f61299b612996612991600161298b6125e2565b016110f2565b6120ba565b6120c6565b926129c663cb3b94079195976129af610182565b98899788968795611bf2565b855260048501612935565b03925af1908115612a0a575f916129dc575b5090565b6129fd915060203d8111612a03575b6129f58183610c58565b81019061210c565b5f6129d8565b503d6129eb565b611c2a565b612a6c91612a6791612a1f610ab5565b50612a32612a2c82612359565b15610364565b612a91575b612a49612a4383612359565b15610364565b612a6f575b612a5a612a60916101f2565b916101f2565b5f91612c6a565b6101f2565b90565b9050612a60612a5a612a88612a835f6118fc565b612382565b92915050612a4e565b50612aa3612a9e5f6118fc565b612382565b612a37565b612abc612ab7612ac1926103c1565b6101ef565b6101ec565b90565b612b0b91612b0691612ad4610ab5565b50612ae7612ae182612359565b15610364565b612b0e575b612af8612afe916101f2565b91612aa8565b600191612c6a565b6101f2565b90565b50612afe612af8612b26612b215f6118fc565b612382565b915050612aec565b612b7591612b7091612b3e610ab5565b50612b51612b4b82612359565b15610364565b612b78575b612b62612b68916101f2565b91612aa8565b600191612862565b6101f2565b90565b50612b68612b62612b90612b8b5f6118fc565b612382565b915050612b56565b916020612bb9929493612bb260408201965f83019061057b565b0190612175565b565b90602090612bc7610f33565b50612beb612be6612be16001612bdb6125e2565b016110f2565b6120ba565b6120c6565b612c165f612bfe63e71746b896946120e1565b95612c21612c0a610182565b97889687958694611bf2565b845260048401612b98565b03925af1908115612c65575f91612c37575b5090565b612c58915060203d8111612c5e575b612c508183610c58565b81019061210c565b5f612c33565b503d612c46565b611c2a565b9190602091612c77610f33565b50612c806123a8565b505f14612d2e57612c9160016123c8565b925b612cda5f612cba612cb5612cb06001612caa6125e2565b016110f2565b6120ba565b6120c6565b92612ce563f953e427919597612cce610182565b98899788968795611bf2565b8552600485016123e4565b03925af1908115612d29575f91612cfb575b5090565b612d1c915060203d8111612d22575b612d148183610c58565b81019061210c565b5f612cf7565b503d612d0a565b611c2a565b612d375f6123ac565b92612c9356fea264697066735822122096cd666304b047dcecb5da8d431d38fb42c8b89da2b1fb463017f32e35bd30fd64736f6c634300081a0033","linkReferences":{}},"methodIdentifiers":{"acceptOwnership()":"79ba5097","allowance(address,address)":"dd62ed3e","approve(address,bytes32,bytes)":"b32c1001","approve(address,uint256)":"095ea7b3","balanceOf(address)":"70a08231","balanceOfAllow(address)":"06e928fd","burn(uint64)":"9dbead42","decimals()":"313ce567","errorGetCounter()":"67a74a28","getErrorCodeForTransferId(uint256)":"a5184baf","mint(address,uint64)":"2893c5b0","name()":"06fdde03","owner()":"8da5cb5b","pendingOwner()":"e30c3978","renounceOwnership()":"715018a6","symbol()":"95d89b41","totalSupply()":"18160ddd","transfer(address,bytes32,bytes)":"7b7e0a5a","transfer(address,uint256)":"a9059cbb","transferFrom(address,address,bytes32,bytes)":"9a094352","transferFrom(address,address,uint256)":"23b872dd","transferOwnership(address)":"f2fde38b"},"id":7}