{"abi":[{"type":"constructor","inputs":[{"name":"name_","type":"string","internalType":"string"},{"name":"symbol_","type":"string","internalType":"string"}],"stateMutability":"nonpayable"},{"type":"function","name":"acceptOwnership","inputs":[],"outputs":[],"stateMutability":"nonpayable"},{"type":"function","name":"allowance","inputs":[{"name":"owner","type":"address","internalType":"address"},{"name":"spender","type":"address","internalType":"address"}],"outputs":[{"name":"","type":"uint256","internalType":"euint256"}],"stateMutability":"view"},{"type":"function","name":"approve","inputs":[{"name":"spender","type":"address","internalType":"address"},{"name":"amount","type":"uint256","internalType":"euint256"}],"outputs":[{"name":"","type":"bool","internalType":"bool"}],"stateMutability":"nonpayable"},{"type":"function","name":"approve","inputs":[{"name":"spender","type":"address","internalType":"address"},{"name":"encryptedAmount","type":"bytes32","internalType":"einput"},{"name":"inputProof","type":"bytes","internalType":"bytes"}],"outputs":[{"name":"","type":"bool","internalType":"bool"}],"stateMutability":"nonpayable"},{"type":"function","name":"balanceOf","inputs":[{"name":"account","type":"address","internalType":"address"}],"outputs":[{"name":"","type":"uint256","internalType":"euint256"}],"stateMutability":"view"},{"type":"function","name":"burn","inputs":[{"name":"amount","type":"uint256","internalType":"uint256"}],"outputs":[],"stateMutability":"nonpayable"},{"type":"function","name":"decimals","inputs":[],"outputs":[{"name":"","type":"uint8","internalType":"uint8"}],"stateMutability":"view"},{"type":"function","name":"errorGetCounter","inputs":[],"outputs":[{"name":"countErrors","type":"uint256","internalType":"uint256"}],"stateMutability":"view"},{"type":"function","name":"getErrorCodeForTransferId","inputs":[{"name":"transferId","type":"uint256","internalType":"uint256"}],"outputs":[{"name":"errorCode","type":"uint8","internalType":"uint8"}],"stateMutability":"view"},{"type":"function","name":"mint","inputs":[{"name":"to","type":"address","internalType":"address"},{"name":"amount","type":"uint256","internalType":"uint256"}],"outputs":[],"stateMutability":"nonpayable"},{"type":"function","name":"name","inputs":[],"outputs":[{"name":"","type":"string","internalType":"string"}],"stateMutability":"view"},{"type":"function","name":"owner","inputs":[],"outputs":[{"name":"","type":"address","internalType":"address"}],"stateMutability":"view"},{"type":"function","name":"pendingOwner","inputs":[],"outputs":[{"name":"","type":"address","internalType":"address"}],"stateMutability":"view"},{"type":"function","name":"renounceOwnership","inputs":[],"outputs":[],"stateMutability":"nonpayable"},{"type":"function","name":"symbol","inputs":[],"outputs":[{"name":"","type":"string","internalType":"string"}],"stateMutability":"view"},{"type":"function","name":"totalSupply","inputs":[],"outputs":[{"name":"","type":"uint256","internalType":"uint256"}],"stateMutability":"view"},{"type":"function","name":"transfer","inputs":[{"name":"to","type":"address","internalType":"address"},{"name":"encryptedAmount","type":"bytes32","internalType":"einput"},{"name":"inputProof","type":"bytes","internalType":"bytes"}],"outputs":[{"name":"","type":"bool","internalType":"bool"}],"stateMutability":"nonpayable"},{"type":"function","name":"transfer","inputs":[{"name":"to","type":"address","internalType":"address"},{"name":"amount","type":"uint256","internalType":"euint256"}],"outputs":[{"name":"","type":"bool","internalType":"bool"}],"stateMutability":"nonpayable"},{"type":"function","name":"transferCallback","inputs":[{"name":"","type":"uint256","internalType":"uint256"},{"name":"decryptedErrorCode","type":"uint8","internalType":"uint8"}],"outputs":[],"stateMutability":"nonpayable"},{"type":"function","name":"transferFrom","inputs":[{"name":"from","type":"address","internalType":"address"},{"name":"to","type":"address","internalType":"address"},{"name":"amount","type":"uint256","internalType":"euint256"}],"outputs":[{"name":"","type":"bool","internalType":"bool"}],"stateMutability":"nonpayable"},{"type":"function","name":"transferFrom","inputs":[{"name":"from","type":"address","internalType":"address"},{"name":"to","type":"address","internalType":"address"},{"name":"encryptedAmount","type":"bytes32","internalType":"einput"},{"name":"inputProof","type":"bytes","internalType":"bytes"}],"outputs":[{"name":"","type":"bool","internalType":"bool"}],"stateMutability":"nonpayable"},{"type":"function","name":"transferOwnership","inputs":[{"name":"newOwner","type":"address","internalType":"address"}],"outputs":[],"stateMutability":"nonpayable"},{"type":"event","name":"Approval","inputs":[{"name":"owner","type":"address","indexed":true,"internalType":"address"},{"name":"spender","type":"address","indexed":true,"internalType":"address"},{"name":"placeholder","type":"uint256","indexed":false,"internalType":"uint256"}],"anonymous":false},{"type":"event","name":"Burn","inputs":[{"name":"to","type":"address","indexed":true,"internalType":"address"},{"name":"amount","type":"uint256","indexed":false,"internalType":"uint256"}],"anonymous":false},{"type":"event","name":"Mint","inputs":[{"name":"to","type":"address","indexed":true,"internalType":"address"},{"name":"amount","type":"uint256","indexed":false,"internalType":"uint256"}],"anonymous":false},{"type":"event","name":"OwnershipTransferStarted","inputs":[{"name":"previousOwner","type":"address","indexed":true,"internalType":"address"},{"name":"newOwner","type":"address","indexed":true,"internalType":"address"}],"anonymous":false},{"type":"event","name":"OwnershipTransferred","inputs":[{"name":"previousOwner","type":"address","indexed":true,"internalType":"address"},{"name":"newOwner","type":"address","indexed":true,"internalType":"address"}],"anonymous":false},{"type":"event","name":"Transfer","inputs":[{"name":"from","type":"address","indexed":true,"internalType":"address"},{"name":"to","type":"address","indexed":true,"internalType":"address"},{"name":"transferId","type":"uint256","indexed":false,"internalType":"uint256"}],"anonymous":false},{"type":"error","name":"ERC20InsufficientAllowance","inputs":[{"name":"spender","type":"address","internalType":"address"},{"name":"allowance","type":"uint256","internalType":"uint256"},{"name":"needed","type":"uint256","internalType":"uint256"}]},{"type":"error","name":"ERC20InsufficientBalance","inputs":[{"name":"sender","type":"address","internalType":"address"},{"name":"balance","type":"uint256","internalType":"uint256"},{"name":"needed","type":"uint256","internalType":"uint256"}]},{"type":"error","name":"ERC20InvalidApprover","inputs":[{"name":"approver","type":"address","internalType":"address"}]},{"type":"error","name":"ERC20InvalidReceiver","inputs":[{"name":"receiver","type":"address","internalType":"address"}]},{"type":"error","name":"ERC20InvalidSender","inputs":[{"name":"sender","type":"address","internalType":"address"}]},{"type":"error","name":"ERC20InvalidSpender","inputs":[{"name":"spender","type":"address","internalType":"address"}]},{"type":"error","name":"OwnableInvalidOwner","inputs":[{"name":"owner","type":"address","internalType":"address"}]},{"type":"error","name":"OwnableUnauthorizedAccount","inputs":[{"name":"account","type":"address","internalType":"address"}]},{"type":"error","name":"TFHESenderNotAllowed","inputs":[]}],"bytecode":{"object":"0x60806040523461050c57611d88803803806100198161052f565b92833981019060408183031261050c5780516001600160401b03811161050c5782610045918301610554565b60208201519092906001600160401b03811161050c576100659201610554565b33156104f957600180546001600160a01b03199081169091555f805433928116831782556001600160a01b0316907f8be0079c531659141344cd1fd0a4f28419497f9722a3daafe3b4186f6b6457e09080a381516001600160401b03811161040c57600354600181811c911680156104ef575b60208210146103ee57601f811161048c575b50602092601f821160011461042b57928192935f92610420575b50508160011b915f199060031b1c1916176003555b80516001600160401b03811161040c57600454600181811c91168015610402575b60208210146103ee57601f811161038b575b50602091601f821160011461032b579181925f92610320575b50508160011b915f199060031b1c1916176004555b5f6060610185610510565b8281528260208201528260408201520152739d6891a6240d6130c54ae243d8005063d05fe14b60606101b5610510565b73fee8407e2f5e3ee68ad77cae98c434e637f516e580825273687408ab54661ba0b4aef3a44156c616c6955e076020830181905273fb03be574d14c256d56f09a198b586bdfc0a9de2604080850182905294909301949094527fed8d60e34876f751cc8b014c560745351147d9de11b9347c854e881b128ea60080546001600160a01b031990811690921790557fed8d60e34876f751cc8b014c560745351147d9de11b9347c854e881b128ea601805482169094179093557fed8d60e34876f751cc8b014c560745351147d9de11b9347c854e881b128ea6028054841690911790557fed8d60e34876f751cc8b014c560745351147d9de11b9347c854e881b128ea60380548316739d6891a6240d6130c54ae243d8005063d05fe14b1790557f93ab6e17f2c461cce6ea5d4ec117e51dda77a64affc2b2c05f8cd440def0e70080549092167333347831500f1e73f0cccbb95c9f86b94d7b112317909155516117e290816105a68239f35b015190505f80610165565b601f1982169260045f52805f20915f5b8581106103735750836001951061035b575b505050811b0160045561017a565b01515f1960f88460031b161c191690555f808061034d565b9192602060018192868501518155019401920161033b565b60045f527f8a35acfbc15ff81a39ae7d344fd709f28e8600b4aa8c65c6b64bfe7fe36bd19b601f830160051c810191602084106103e4575b601f0160051c01905b8181106103d9575061014c565b5f81556001016103cc565b90915081906103c3565b634e487b7160e01b5f52602260045260245ffd5b90607f169061013a565b634e487b7160e01b5f52604160045260245ffd5b015190505f80610104565b601f1982169360035f52805f20915f5b868110610474575083600195961061045c575b505050811b01600355610119565b01515f1960f88460031b161c191690555f808061044e565b9192602060018192868501518155019401920161043b565b60035f527fc2575a0e9e593c00f959f8c92f12db2869c3395a3b0502d05e2516446f71f85b601f830160051c810191602084106104e5575b601f0160051c01905b8181106104da57506100ea565b5f81556001016104cd565b90915081906104c4565b90607f16906100d8565b631e4fbdf760e01b5f525f60045260245ffd5b5f80fd5b60405190608082016001600160401b0381118382101761040c57604052565b6040519190601f01601f191682016001600160401b0381118382101761040c57604052565b81601f8201121561050c578051906001600160401b03821161040c57610583601f8301601f191660200161052f565b928284526020838301011161050c57815f9260208093018386015e830101529056fe6080806040526004361015610012575f80fd5b5f3560e01c90816306fdde031461093a57508063095ea7b31461091357806318160ddd146108f65780632207ea631461087b57806323b872dd1461084c578063313ce5671461083157806340c10f19146106a957806342966c681461058257806367a74a281461056557806370a082311461052d578063715018a6146104ca57806379ba5097146104455780637b7e0a5a146104285780638da5cb5b1461040157806395d89b41146102f55780639a09435214610294578063a5184baf14610267578063a9059cbb14610236578063b32c1001146101fc578063dd62ed3e146101ac578063e30c3978146101845763f2fde38b1461010e575f80fd5b3461018057602036600319011261018057610127610a16565b61012f611218565b60018060a01b0316806bffffffffffffffffffffffff60a01b600154161760015560018060a01b035f54167f38d16b8cac22d99fc7c124b9cd0de2d3fa1faef420bfe791d8c362d765e227005f80a3005b5f80fd5b34610180575f366003190112610180576001546040516001600160a01b039091168152602090f35b34610180576040366003190112610180576101c5610a16565b6101cd610a2c565b6001600160a01b039182165f908152600660209081526040808320949093168252928352819020549051908152f35b346101805761022a61021e61022461021336610a70565b949192943691610e5c565b9061122b565b90610aed565b50602060405160018152f35b3461018057604036600319011261018057602061025d610254610a16565b60243590610ec3565b6040519015158152f35b34610180576020366003190112610180576004355f526011602052602060ff60405f205416604051908152f35b34610180576080366003190112610180576102ad610a16565b6102b5610a2c565b906064359167ffffffffffffffff8311610180576102ef6102e76102e061022a953690600401610a42565b3691610e5c565b60443561122b565b91610b42565b34610180575f366003190112610180576040515f6004548060011c906001811680156103f7575b6020831081146103e3578285529081156103bf5750600114610361575b61035d8361034981850382610ab7565b6040519182916020835260208301906109f2565b0390f35b91905060045f527f8a35acfbc15ff81a39ae7d344fd709f28e8600b4aa8c65c6b64bfe7fe36bd19b915f905b8082106103a557509091508101602001610349610339565b91926001816020925483858801015201910190929161038d565b60ff191660208086019190915291151560051b840190910191506103499050610339565b634e487b7160e01b5f52602260045260245ffd5b91607f169161031c565b34610180575f366003190112610180575f546040516001600160a01b039091168152602090f35b346101805761022a61021e61043f61021336610a70565b90610ec3565b34610180575f36600319011261018057600154336001600160a01b03909116036104b757600180546001600160a01b03199081169091555f805433928116831782556001600160a01b0316907f8be0079c531659141344cd1fd0a4f28419497f9722a3daafe3b4186f6b6457e09080a3005b63118cdaa760e01b5f523360045260245ffd5b34610180575f366003190112610180576104e2611218565b600180546001600160a01b03199081169091555f80549182168155906001600160a01b03167f8be0079c531659141344cd1fd0a4f28419497f9722a3daafe3b4186f6b6457e08280a3005b34610180576020366003190112610180576001600160a01b0361054e610a16565b165f526005602052602060405f2054604051908152f35b34610180575f366003190112610180576020601254604051908152f35b3461018057602036600319011261018057335f52600560205260405f20548015610695575b5f8051602061178d83398151915254604051638c14cc2160e01b815260048082019390935291356024830152600160f81b6044830152602090829060649082905f906001600160a01b03165af1801561068a575f90610656575b806106269150335f5260056020528060405f205561061f3082611602565b3390611602565b5f604051811981527fddf252ad1be2c89b69c2b068fc378daa952ba7f163c4a11628f55a4df523b3ef60203392a3005b506020813d602011610682575b8161067060209383610ab7565b81010312610180576106269051610601565b3d9150610663565b6040513d5f823e3d90fd5b505f60206106a161166a565b9150506105a7565b34610180576040366003190112610180576106c2610a16565b6024356106cd611218565b6001600160a01b0382165f8181526005602052604081205491939091801561081f575b5f8051602061178d8339815191525460405163f953e42760e01b8152600481019290925260248201859052600160f81b6044830152909260209184916064918391906001600160a01b03165af1801561068a575f906107eb575b61076c9250845f5260056020528060405f20556107673082611602565b611602565b815f7fddf252ad1be2c89b69c2b068fc378daa952ba7f163c4a11628f55a4df523b3ef602060405183198152a36002548181018091116107d7577f0f6798a560793a54c3bcfe86a93cde1e73087d944c0ea20544137d412139688591602091600255604051908152a2005b634e487b7160e01b5f52601160045260245ffd5b506020823d602011610817575b8161080560209383610ab7565b810103126101805761076c915161074a565b3d91506107f8565b50602061082a61166a565b90506106f0565b34610180575f36600319011261018057602060405160068152f35b3461018057606036600319011261018057602061025d61086a610a16565b610872610a2c565b60443591610b42565b346101805760403660031901126101805760243560ff8116809103610180577f93ab6e17f2c461cce6ea5d4ec117e51dda77a64affc2b2c05f8cd440def0e700546001600160a01b03163303610180576012545f1981146107d757600181016012555f52601160205260405f209060ff198254161790555f80f35b34610180575f366003190112610180576020600254604051908152f35b3461018057604036600319011261018057602061025d610931610a16565b60243590610aed565b34610180575f366003190112610180575f6003548060011c906001811680156109e8575b6020831081146103e3578285529081156103bf575060011461098a5761035d8361034981850382610ab7565b91905060035f527fc2575a0e9e593c00f959f8c92f12db2869c3395a3b0502d05e2516446f71f85b915f905b8082106109ce57509091508101602001610349610339565b9192600181602092548385880101520191019092916109b6565b91607f169161095e565b805180835260209291819084018484015e5f828201840152601f01601f1916010190565b600435906001600160a01b038216820361018057565b602435906001600160a01b038216820361018057565b9181601f840112156101805782359167ffffffffffffffff8311610180576020838186019501011161018057565b6060600319820112610180576004356001600160a01b03811681036101805791602435916044359067ffffffffffffffff821161018057610ab391600401610a42565b9091565b90601f8019910116810190811067ffffffffffffffff821117610ad957604052565b634e487b7160e01b5f52604160045260245ffd5b90610b0290610afb81610f43565b8233610fe2565b6040515f1981526001600160a01b039091169033907f8c5be1e5ebec7d5bd14f71427d1e84f3dd0314c0f7b2291e5b200ac8c7c3b92590602090a3600190565b91610b4c81610f43565b6001600160a01b0383165f81815260066020908152604080832033845290915290205493909290610b7d858461132b565b935f610b876116c0565b5f8051602061178d83398151915254604051631ce2e8d760e31b815260026004820152600160f91b60248201529260209184916044918391906001600160a01b03165af190811561068a575f91610e26575b610be49250876115b0565b505f526005602052610bfa60405f20548461132b565b5f8051602061178d833981519152546040516309c00ffd60e11b81526004810183905290602090829060249082905f906001600160a01b03165af190811561068a575f91610df3575b505f8051602061178d83398151915254604051630ccd46b160e31b81526004810192909252602482018790525f6044830181905260209183916064918391906001600160a01b03165af1801561068a575f90610dbf575b610cb59150610ca7611716565b610caf6116c0565b916115b0565b604095865191610cc58884610ab7565b60018352601f19880136602085013780610cde84610ea2565b5260644201908142116107d757610cfa610d0592602095611411565b5061061f8682611602565b606460018060a01b035f8051602061178d8339815191525416935f89519586948593630ccd46b160e31b8552600485015260248401528160448401525af1948515610db657505f94610d7e575b50610d74610d6d86610d6786610d799961151b565b876115b0565b3383610fe2565b61105f565b600190565b9493506020853d602011610dae575b81610d9a60209383610ab7565b810103126101805793519293610d74610d52565b3d9150610d8d565b513d5f823e3d90fd5b506020813d602011610deb575b81610dd960209383610ab7565b8101031261018057610cb59051610c9a565b3d9150610dcc565b90506020813d602011610e1e575b81610e0e60209383610ab7565b8101031261018057516020610c43565b3d9150610e01565b90506020823d602011610e54575b81610e4160209383610ab7565b8101031261018057610be4915190610bd9565b3d9150610e34565b92919267ffffffffffffffff8211610ad95760405191610e86601f8201601f191660200184610ab7565b829481845281830111610180578281602093845f960137010152565b805115610eaf5760200190565b634e487b7160e01b5f52603260045260245ffd5b90610ecd81610f43565b335f526005602052610ee360405f20548261132b565b90610efe610eef6116c0565b610ef7611716565b90846115b0565b9260405193610f0e604086610ab7565b6001855260203681870137610f2285610ea2565b5260644201938442116107d757610d7994610f3c91611411565b503361105f565b5f8051602061176d83398151915254604051632fd514cd60e11b81526004810192909252336024830152602090829060449082906001600160a01b03165afa90811561068a575f91610fa7575b5015610f9857565b632fa38b3f60e01b5f5260045ffd5b90506020813d602011610fda575b81610fc260209383610ab7565b8101031261018057518015158103610180575f610f90565b3d9150610fb5565b6001600160a01b038116939290841561104c576001600160a01b03831694851561103957906110379495610767925f52600660205260405f20905f526020528260405f20556110313084611602565b82611602565b565b85634a1406b160e11b5f5260045260245ffd5b8463e602df0560e01b5f5260045260245ffd5b91926001600160a01b03831692908315611205576001600160a01b0383169485156111f2579061109191610caf61166a565b91845f5260056020525f602060408220548581156111e2575b86156111d4575b5f8051602061178d8339815191525460405163f953e42760e01b8152600480820194909452848101909301919091526001600160f81b0319841660448301529092839160649183916001600160a01b03165af190811561068a575f9161119e575b509261113961114b92856111639650885f5260056020528060405f20556107673082611602565b845f52600560205260405f205461151b565b835f5260056020528060405f20556107673082611602565b6012545f1981019081116107d75760207fddf252ad1be2c89b69c2b068fc378daa952ba7f163c4a11628f55a4df523b3ef91604051908152a3565b9390506020843d6020116111cc575b816111ba60209383610ab7565b81010312610180579251611139611112565b3d91506111ad565b506111dd61166a565b6110b1565b90506111ec61166a565b906110aa565b8563ec442f0560e01b5f5260045260245ffd5b83634b637e8f60e11b5f5260045260245ffd5b5f546001600160a01b031633036104b757565b61127a9160209160018060a01b035f8051602061178d8339815191525416905f6040518096819582946302e817ff60e41b845260048401523360248401526080604484015260848301906109f2565b600160fb1b606483015203925af190811561068a575f916112f9575b505f8051602061176d833981519152546001600160a01b0316803b15610180576040516346ce4e4960e11b815260048101839052336024820152905f908290604490829084905af1801561068a576112ec575090565b5f6112f691610ab7565b90565b90506020813d602011611323575b8161131460209383610ab7565b8101031261018057515f611296565b3d9150611307565b9081156113ce575b80156113bc575b602090606460018060a01b035f8051602061178d8339815191525416935f60405195869485936334a6d7b960e11b8552600485015260248401528160448401525af190811561068a575f9161138d575090565b90506020813d6020116113b4575b816113a860209383610ab7565b81010312610180575190565b3d915061139b565b5060206113c761166a565b905061133a565b90506113d861166a565b90611333565b90602080835192838152019201905f5b8181106113fb5750505090565b82518452602093840193909201916001016113ee565b5f8051602061176d833981519152545f9291906001600160a01b0316803b15610180575f604051809263155f840160e21b82526020600483015281838161145b60248201896113de565b03925af1801561068a57611504575b507f93ab6e17f2c461cce6ea5d4ec117e51dda77a64affc2b2c05f8cd440def0e70054604051634c0d927760e01b815260a060048201529260209284926001600160a01b0316918391879183916114c59060a48401906113de565b90632207ea6360e01b6024840152836044840152606483015282608483015203925af19182156114f8579161138d575090565b604051903d90823e3d90fd5b6115119193505f90610ab7565b5f916114c561146a565b6020905f9281156115a0575b8015611592575b5f8051602061178d83398151915254604051638c14cc2160e01b8152600480820194909452848101909301919091526001600160f81b0319841660448301529092839160649183916001600160a01b03165af190811561068a575f9161138d575090565b5061159b61166a565b61152e565b90506115aa61166a565b90611527565b9060646020925f60018060a01b035f8051602061178d8339815191525416604051968795869463cb3b940760e01b86526004860152602485015260448401525af190811561068a575f9161138d575090565b5f8051602061176d833981519152546001600160a01b031691823b1561018057604051631974142760e21b815260048101929092526001600160a01b03166024820152905f908290604490829084905af1801561068a576116605750565b5f61103791610ab7565b5f8051602061178d83398151915254604051631ce2e8d760e31b81525f60048201819052600160fb1b60248301529091602091839160449183916001600160a01b03165af190811561068a575f9161138d575090565b5f8051602061178d83398151915254604051631ce2e8d760e31b81525f60048201819052600160f91b60248301529091602091839160449183916001600160a01b03165af190811561068a575f9161138d575090565b5f8051602061178d83398151915254604051631ce2e8d760e31b815260016004820152600160f91b602482015290602090829060449082905f906001600160a01b03165af190811561068a575f9161138d57509056feed8d60e34876f751cc8b014c560745351147d9de11b9347c854e881b128ea600ed8d60e34876f751cc8b014c560745351147d9de11b9347c854e881b128ea601a2646970667358221220abb45c4b4074e4d5fda23b7c8193ccadf968bfd95d0517e923911b4f4071514064736f6c634300081a0033","linkReferences":{}},"methodIdentifiers":{"acceptOwnership()":"79ba5097","allowance(address,address)":"dd62ed3e","approve(address,bytes32,bytes)":"b32c1001","approve(address,uint256)":"095ea7b3","balanceOf(address)":"70a08231","burn(uint256)":"42966c68","decimals()":"313ce567","errorGetCounter()":"67a74a28","getErrorCodeForTransferId(uint256)":"a5184baf","mint(address,uint256)":"40c10f19","name()":"06fdde03","owner()":"8da5cb5b","pendingOwner()":"e30c3978","renounceOwnership()":"715018a6","symbol()":"95d89b41","totalSupply()":"18160ddd","transfer(address,bytes32,bytes)":"7b7e0a5a","transfer(address,uint256)":"a9059cbb","transferCallback(uint256,uint8)":"2207ea63","transferFrom(address,address,bytes32,bytes)":"9a094352","transferFrom(address,address,uint256)":"23b872dd","transferOwnership(address)":"f2fde38b"},"id":7}