{"abi":[{"type":"constructor","inputs":[{"name":"name_","type":"string","internalType":"string"},{"name":"symbol_","type":"string","internalType":"string"}],"stateMutability":"nonpayable"},{"type":"function","name":"acceptOwnership","inputs":[],"outputs":[],"stateMutability":"nonpayable"},{"type":"function","name":"allowance","inputs":[{"name":"owner","type":"address","internalType":"address"},{"name":"spender","type":"address","internalType":"address"}],"outputs":[{"name":"","type":"uint256","internalType":"euint64"}],"stateMutability":"view"},{"type":"function","name":"approve","inputs":[{"name":"spender","type":"address","internalType":"address"},{"name":"amount","type":"uint256","internalType":"euint64"}],"outputs":[{"name":"","type":"bool","internalType":"bool"}],"stateMutability":"nonpayable"},{"type":"function","name":"approve","inputs":[{"name":"spender","type":"address","internalType":"address"},{"name":"encryptedAmount","type":"bytes32","internalType":"einput"},{"name":"inputProof","type":"bytes","internalType":"bytes"}],"outputs":[{"name":"","type":"bool","internalType":"bool"}],"stateMutability":"nonpayable"},{"type":"function","name":"balanceOf","inputs":[{"name":"account","type":"address","internalType":"address"}],"outputs":[{"name":"","type":"uint256","internalType":"euint64"}],"stateMutability":"view"},{"type":"function","name":"burn","inputs":[{"name":"amount","type":"uint64","internalType":"uint64"}],"outputs":[],"stateMutability":"nonpayable"},{"type":"function","name":"decimals","inputs":[],"outputs":[{"name":"","type":"uint8","internalType":"uint8"}],"stateMutability":"view"},{"type":"function","name":"errorGetCounter","inputs":[],"outputs":[{"name":"countErrors","type":"uint256","internalType":"uint256"}],"stateMutability":"view"},{"type":"function","name":"getErrorCodeForTransferId","inputs":[{"name":"transferId","type":"uint256","internalType":"uint256"}],"outputs":[{"name":"errorCode","type":"uint8","internalType":"uint8"}],"stateMutability":"view"},{"type":"function","name":"mint","inputs":[{"name":"to","type":"address","internalType":"address"},{"name":"amount","type":"uint64","internalType":"uint64"}],"outputs":[],"stateMutability":"nonpayable"},{"type":"function","name":"name","inputs":[],"outputs":[{"name":"","type":"string","internalType":"string"}],"stateMutability":"view"},{"type":"function","name":"owner","inputs":[],"outputs":[{"name":"","type":"address","internalType":"address"}],"stateMutability":"view"},{"type":"function","name":"pendingOwner","inputs":[],"outputs":[{"name":"","type":"address","internalType":"address"}],"stateMutability":"view"},{"type":"function","name":"renounceOwnership","inputs":[],"outputs":[],"stateMutability":"nonpayable"},{"type":"function","name":"symbol","inputs":[],"outputs":[{"name":"","type":"string","internalType":"string"}],"stateMutability":"view"},{"type":"function","name":"totalSupply","inputs":[],"outputs":[{"name":"","type":"uint64","internalType":"uint64"}],"stateMutability":"view"},{"type":"function","name":"transfer","inputs":[{"name":"to","type":"address","internalType":"address"},{"name":"encryptedAmount","type":"bytes32","internalType":"einput"},{"name":"inputProof","type":"bytes","internalType":"bytes"}],"outputs":[{"name":"","type":"bool","internalType":"bool"}],"stateMutability":"nonpayable"},{"type":"function","name":"transfer","inputs":[{"name":"to","type":"address","internalType":"address"},{"name":"amount","type":"uint256","internalType":"euint64"}],"outputs":[{"name":"","type":"bool","internalType":"bool"}],"stateMutability":"nonpayable"},{"type":"function","name":"transferCallback","inputs":[{"name":"","type":"uint256","internalType":"uint256"},{"name":"decryptedErrorCode","type":"uint8","internalType":"uint8"}],"outputs":[],"stateMutability":"nonpayable"},{"type":"function","name":"transferFrom","inputs":[{"name":"from","type":"address","internalType":"address"},{"name":"to","type":"address","internalType":"address"},{"name":"amount","type":"uint256","internalType":"euint64"}],"outputs":[{"name":"","type":"bool","internalType":"bool"}],"stateMutability":"nonpayable"},{"type":"function","name":"transferFrom","inputs":[{"name":"from","type":"address","internalType":"address"},{"name":"to","type":"address","internalType":"address"},{"name":"encryptedAmount","type":"bytes32","internalType":"einput"},{"name":"inputProof","type":"bytes","internalType":"bytes"}],"outputs":[{"name":"","type":"bool","internalType":"bool"}],"stateMutability":"nonpayable"},{"type":"function","name":"transferOwnership","inputs":[{"name":"newOwner","type":"address","internalType":"address"}],"outputs":[],"stateMutability":"nonpayable"},{"type":"event","name":"Approval","inputs":[{"name":"owner","type":"address","indexed":true,"internalType":"address"},{"name":"spender","type":"address","indexed":true,"internalType":"address"},{"name":"placeholder","type":"uint256","indexed":false,"internalType":"uint256"}],"anonymous":false},{"type":"event","name":"Burn","inputs":[{"name":"to","type":"address","indexed":true,"internalType":"address"},{"name":"amount","type":"uint64","indexed":false,"internalType":"uint64"}],"anonymous":false},{"type":"event","name":"Mint","inputs":[{"name":"to","type":"address","indexed":true,"internalType":"address"},{"name":"amount","type":"uint64","indexed":false,"internalType":"uint64"}],"anonymous":false},{"type":"event","name":"OwnershipTransferStarted","inputs":[{"name":"previousOwner","type":"address","indexed":true,"internalType":"address"},{"name":"newOwner","type":"address","indexed":true,"internalType":"address"}],"anonymous":false},{"type":"event","name":"OwnershipTransferred","inputs":[{"name":"previousOwner","type":"address","indexed":true,"internalType":"address"},{"name":"newOwner","type":"address","indexed":true,"internalType":"address"}],"anonymous":false},{"type":"event","name":"Transfer","inputs":[{"name":"from","type":"address","indexed":true,"internalType":"address"},{"name":"to","type":"address","indexed":true,"internalType":"address"},{"name":"transferId","type":"uint256","indexed":false,"internalType":"uint256"}],"anonymous":false},{"type":"error","name":"ERC20InsufficientAllowance","inputs":[{"name":"spender","type":"address","internalType":"address"},{"name":"allowance","type":"uint256","internalType":"uint256"},{"name":"needed","type":"uint256","internalType":"uint256"}]},{"type":"error","name":"ERC20InsufficientBalance","inputs":[{"name":"sender","type":"address","internalType":"address"},{"name":"balance","type":"uint256","internalType":"uint256"},{"name":"needed","type":"uint256","internalType":"uint256"}]},{"type":"error","name":"ERC20InvalidApprover","inputs":[{"name":"approver","type":"address","internalType":"address"}]},{"type":"error","name":"ERC20InvalidReceiver","inputs":[{"name":"receiver","type":"address","internalType":"address"}]},{"type":"error","name":"ERC20InvalidSender","inputs":[{"name":"sender","type":"address","internalType":"address"}]},{"type":"error","name":"ERC20InvalidSpender","inputs":[{"name":"spender","type":"address","internalType":"address"}]},{"type":"error","name":"OwnableInvalidOwner","inputs":[{"name":"owner","type":"address","internalType":"address"}]},{"type":"error","name":"OwnableUnauthorizedAccount","inputs":[{"name":"account","type":"address","internalType":"address"}]},{"type":"error","name":"TFHESenderNotAllowed","inputs":[]}],"bytecode":{"object":"0x60806040523461050c57611df8803803806100198161052f565b92833981019060408183031261050c5780516001600160401b03811161050c5782610045918301610554565b60208201519092906001600160401b03811161050c576100659201610554565b33156104f957600180546001600160a01b03199081169091555f805433928116831782556001600160a01b0316907f8be0079c531659141344cd1fd0a4f28419497f9722a3daafe3b4186f6b6457e09080a381516001600160401b03811161040c57600254600181811c911680156104ef575b60208210146103ee57601f811161048c575b50602092601f821160011461042b57928192935f92610420575b50508160011b915f199060031b1c1916176002555b80516001600160401b03811161040c57600354600181811c91168015610402575b60208210146103ee57601f811161038b575b50602091601f821160011461032b579181925f92610320575b50508160011b915f199060031b1c1916176003555b5f6060610185610510565b8281528260208201528260408201520152739d6891a6240d6130c54ae243d8005063d05fe14b60606101b5610510565b73fee8407e2f5e3ee68ad77cae98c434e637f516e580825273687408ab54661ba0b4aef3a44156c616c6955e076020830181905273fb03be574d14c256d56f09a198b586bdfc0a9de2604080850182905294909301949094527fed8d60e34876f751cc8b014c560745351147d9de11b9347c854e881b128ea60080546001600160a01b031990811690921790557fed8d60e34876f751cc8b014c560745351147d9de11b9347c854e881b128ea601805482169094179093557fed8d60e34876f751cc8b014c560745351147d9de11b9347c854e881b128ea6028054841690911790557fed8d60e34876f751cc8b014c560745351147d9de11b9347c854e881b128ea60380548316739d6891a6240d6130c54ae243d8005063d05fe14b1790557f93ab6e17f2c461cce6ea5d4ec117e51dda77a64affc2b2c05f8cd440def0e70080549092167333347831500f1e73f0cccbb95c9f86b94d7b1123179091555161185290816105a68239f35b015190505f80610165565b601f1982169260035f52805f20915f5b8581106103735750836001951061035b575b505050811b0160035561017a565b01515f1960f88460031b161c191690555f808061034d565b9192602060018192868501518155019401920161033b565b60035f527fc2575a0e9e593c00f959f8c92f12db2869c3395a3b0502d05e2516446f71f85b601f830160051c810191602084106103e4575b601f0160051c01905b8181106103d9575061014c565b5f81556001016103cc565b90915081906103c3565b634e487b7160e01b5f52602260045260245ffd5b90607f169061013a565b634e487b7160e01b5f52604160045260245ffd5b015190505f80610104565b601f1982169360025f52805f20915f5b868110610474575083600195961061045c575b505050811b01600255610119565b01515f1960f88460031b161c191690555f808061044e565b9192602060018192868501518155019401920161043b565b60025f527f405787fa12a823e0f2b7631cc41b3ba8828b3321ca811111fa75cd3aa3bb5ace601f830160051c810191602084106104e5575b601f0160051c01905b8181106104da57506100ea565b5f81556001016104cd565b90915081906104c4565b90607f16906100d8565b631e4fbdf760e01b5f525f60045260245ffd5b5f80fd5b60405190608082016001600160401b0381118382101761040c57604052565b6040519190601f01601f191682016001600160401b0381118382101761040c57604052565b81601f8201121561050c578051906001600160401b03821161040c57610583601f8301601f191660200161052f565b928284526020838301011161050c57815f9260208093018386015e830101529056fe6080806040526004361015610012575f80fd5b5f3560e01c90816306fdde03146109aa57508063095ea7b31461098357806318160ddd146109595780632207ea63146108de57806323b872dd146108af5780632893c5b0146106da578063313ce567146106bf57806367a74a28146106a257806370a082311461066a578063715018a61461060757806379ba5097146105825780637b7e0a5a146105655780638da5cb5b1461053e57806395d89b41146104325780639a094352146103d15780639dbead4214610294578063a5184baf14610267578063a9059cbb14610236578063b32c1001146101fc578063dd62ed3e146101ac578063e30c3978146101845763f2fde38b1461010e575f80fd5b3461018057602036600319011261018057610127610a86565b61012f611288565b60018060a01b0316806bffffffffffffffffffffffff60a01b600154161760015560018060a01b035f54167f38d16b8cac22d99fc7c124b9cd0de2d3fa1faef420bfe791d8c362d765e227005f80a3005b5f80fd5b34610180575f366003190112610180576001546040516001600160a01b039091168152602090f35b34610180576040366003190112610180576101c5610a86565b6101cd610a9c565b6001600160a01b039182165f908152600560209081526040808320949093168252928352819020549051908152f35b346101805761022a61021e61022461021336610ae0565b949192943691610ecc565b9061129b565b90610b5d565b50602060405160018152f35b3461018057604036600319011261018057602061025d610254610a86565b60243590610f33565b6040519015158152f35b34610180576020366003190112610180576004355f526010602052602060ff60405f205416604051908152f35b346101805760203660031901126101805760043567ffffffffffffffff811680910361018057335f52600460205260405f20549081156103bd575b5f805160206117fd83398151915254604051638c14cc2160e01b815260048101939093526024830191909152600160f81b6044830152602090829060649082905f906001600160a01b03165af180156103b2575f9061037e575b8061034e9150335f5260046020528060405f20556103473082611672565b3390611672565b5f604051811981527fddf252ad1be2c89b69c2b068fc378daa952ba7f163c4a11628f55a4df523b3ef60203392a3005b506020813d6020116103aa575b8161039860209383610b27565b810103126101805761034e9051610329565b3d915061038b565b6040513d5f823e3d90fd5b905060206103c96116da565b9190506102cf565b34610180576080366003190112610180576103ea610a86565b6103f2610a9c565b906064359167ffffffffffffffff83116101805761042c61042461041d61022a953690600401610ab2565b3691610ecc565b60443561129b565b91610bb2565b34610180575f366003190112610180576040515f6003548060011c90600181168015610534575b602083108114610520578285529081156104fc575060011461049e575b61049a8361048681850382610b27565b604051918291602083526020830190610a62565b0390f35b91905060035f527fc2575a0e9e593c00f959f8c92f12db2869c3395a3b0502d05e2516446f71f85b915f905b8082106104e257509091508101602001610486610476565b9192600181602092548385880101520191019092916104ca565b60ff191660208086019190915291151560051b840190910191506104869050610476565b634e487b7160e01b5f52602260045260245ffd5b91607f1691610459565b34610180575f366003190112610180575f546040516001600160a01b039091168152602090f35b346101805761022a61021e61057c61021336610ae0565b90610f33565b34610180575f36600319011261018057600154336001600160a01b03909116036105f457600180546001600160a01b03199081169091555f805433928116831782556001600160a01b0316907f8be0079c531659141344cd1fd0a4f28419497f9722a3daafe3b4186f6b6457e09080a3005b63118cdaa760e01b5f523360045260245ffd5b34610180575f3660031901126101805761061f611288565b600180546001600160a01b03199081169091555f80549182168155906001600160a01b03167f8be0079c531659141344cd1fd0a4f28419497f9722a3daafe3b4186f6b6457e08280a3005b34610180576020366003190112610180576001600160a01b0361068b610a86565b165f526004602052602060405f2054604051908152f35b34610180575f366003190112610180576020601154604051908152f35b34610180575f36600319011261018057602060405160068152f35b34610180576040366003190112610180576106f3610a86565b60243567ffffffffffffffff811680910361018057610710611288565b6001600160a01b0382165f8181526004602052604081205491939091801561089d575b5f805160206117fd8339815191525460405163f953e42760e01b8152600481019290925260248201859052600160f81b6044830152909260209184916064918391906001600160a01b03165af180156103b2575f90610869575b6107af9250845f5260046020528060405f20556107aa3082611672565b611672565b815f7fddf252ad1be2c89b69c2b068fc378daa952ba7f163c4a11628f55a4df523b3ef602060405183198152a3600154908067ffffffffffffffff8360a01c16019067ffffffffffffffff82116108555767ffffffffffffffff60a01b1990921660a09190911b67ffffffffffffffff60a01b16176001556040519081527f9109de113672aaca72ede8bc906f7aafabee865311ac020fb15c71edf94a0a0190602090a2005b634e487b7160e01b5f52601160045260245ffd5b506020823d602011610895575b8161088360209383610b27565b81010312610180576107af915161078d565b3d9150610876565b5060206108a86116da565b9050610733565b3461018057606036600319011261018057602061025d6108cd610a86565b6108d5610a9c565b60443591610bb2565b346101805760403660031901126101805760243560ff8116809103610180577f93ab6e17f2c461cce6ea5d4ec117e51dda77a64affc2b2c05f8cd440def0e700546001600160a01b03163303610180576011545f19811461085557600181016011555f52601060205260405f209060ff198254161790555f80f35b34610180575f36600319011261018057602067ffffffffffffffff60015460a01c16604051908152f35b3461018057604036600319011261018057602061025d6109a1610a86565b60243590610b5d565b34610180575f366003190112610180575f6002548060011c90600181168015610a58575b602083108114610520578285529081156104fc57506001146109fa5761049a8361048681850382610b27565b91905060025f527f405787fa12a823e0f2b7631cc41b3ba8828b3321ca811111fa75cd3aa3bb5ace915f905b808210610a3e57509091508101602001610486610476565b919260018160209254838588010152019101909291610a26565b91607f16916109ce565b805180835260209291819084018484015e5f828201840152601f01601f1916010190565b600435906001600160a01b038216820361018057565b602435906001600160a01b038216820361018057565b9181601f840112156101805782359167ffffffffffffffff8311610180576020838186019501011161018057565b6060600319820112610180576004356001600160a01b03811681036101805791602435916044359067ffffffffffffffff821161018057610b2391600401610ab2565b9091565b90601f8019910116810190811067ffffffffffffffff821117610b4957604052565b634e487b7160e01b5f52604160045260245ffd5b90610b7290610b6b81610fb3565b8233611052565b6040515f1981526001600160a01b039091169033907f8c5be1e5ebec7d5bd14f71427d1e84f3dd0314c0f7b2291e5b200ac8c7c3b92590602090a3600190565b91610bbc81610fb3565b6001600160a01b0383165f81815260056020908152604080832033845290915290205493909290610bed858461139b565b935f610bf7611730565b5f805160206117fd83398151915254604051631ce2e8d760e31b815260026004820152600160f91b60248201529260209184916044918391906001600160a01b03165af19081156103b2575f91610e96575b610c54925087611620565b505f526004602052610c6a60405f20548461139b565b5f805160206117fd833981519152546040516309c00ffd60e11b81526004810183905290602090829060249082905f906001600160a01b03165af19081156103b2575f91610e63575b505f805160206117fd83398151915254604051630ccd46b160e31b81526004810192909252602482018790525f6044830181905260209183916064918391906001600160a01b03165af180156103b2575f90610e2f575b610d259150610d17611786565b610d1f611730565b91611620565b604095865191610d358884610b27565b60018352601f19880136602085013780610d4e84610f12565b52606442019081421161085557610d6a610d7592602095611481565b506103478682611672565b606460018060a01b035f805160206117fd8339815191525416935f89519586948593630ccd46b160e31b8552600485015260248401528160448401525af1948515610e2657505f94610dee575b50610de4610ddd86610dd786610de99961158b565b87611620565b3383611052565b6110cf565b600190565b9493506020853d602011610e1e575b81610e0a60209383610b27565b810103126101805793519293610de4610dc2565b3d9150610dfd565b513d5f823e3d90fd5b506020813d602011610e5b575b81610e4960209383610b27565b8101031261018057610d259051610d0a565b3d9150610e3c565b90506020813d602011610e8e575b81610e7e60209383610b27565b8101031261018057516020610cb3565b3d9150610e71565b90506020823d602011610ec4575b81610eb160209383610b27565b8101031261018057610c54915190610c49565b3d9150610ea4565b92919267ffffffffffffffff8211610b495760405191610ef6601f8201601f191660200184610b27565b829481845281830111610180578281602093845f960137010152565b805115610f1f5760200190565b634e487b7160e01b5f52603260045260245ffd5b90610f3d81610fb3565b335f526004602052610f5360405f20548261139b565b90610f6e610f5f611730565b610f67611786565b9084611620565b9260405193610f7e604086610b27565b6001855260203681870137610f9285610f12565b52606442019384421161085557610de994610fac91611481565b50336110cf565b5f805160206117dd83398151915254604051632fd514cd60e11b81526004810192909252336024830152602090829060449082906001600160a01b03165afa9081156103b2575f91611017575b501561100857565b632fa38b3f60e01b5f5260045ffd5b90506020813d60201161104a575b8161103260209383610b27565b8101031261018057518015158103610180575f611000565b3d9150611025565b6001600160a01b03811693929084156110bc576001600160a01b0383169485156110a957906110a794956107aa925f52600560205260405f20905f526020528260405f20556110a13084611672565b82611672565b565b85634a1406b160e11b5f5260045260245ffd5b8463e602df0560e01b5f5260045260245ffd5b91926001600160a01b03831692908315611275576001600160a01b038316948515611262579061110191610d1f6116da565b91845f5260046020525f60206040822054858115611252575b8615611244575b5f805160206117fd8339815191525460405163f953e42760e01b8152600480820194909452848101909301919091526001600160f81b0319841660448301529092839160649183916001600160a01b03165af19081156103b2575f9161120e575b50926111a96111bb92856111d39650885f5260046020528060405f20556107aa3082611672565b845f52600460205260405f205461158b565b835f5260046020528060405f20556107aa3082611672565b6011545f1981019081116108555760207fddf252ad1be2c89b69c2b068fc378daa952ba7f163c4a11628f55a4df523b3ef91604051908152a3565b9390506020843d60201161123c575b8161122a60209383610b27565b810103126101805792516111a9611182565b3d915061121d565b5061124d6116da565b611121565b905061125c6116da565b9061111a565b8563ec442f0560e01b5f5260045260245ffd5b83634b637e8f60e11b5f5260045260245ffd5b5f546001600160a01b031633036105f457565b6112ea9160209160018060a01b035f805160206117fd8339815191525416905f6040518096819582946302e817ff60e41b84526004840152336024840152608060448401526084830190610a62565b600560f81b606483015203925af19081156103b2575f91611369575b505f805160206117dd833981519152546001600160a01b0316803b15610180576040516346ce4e4960e11b815260048101839052336024820152905f908290604490829084905af180156103b25761135c575090565b5f61136691610b27565b90565b90506020813d602011611393575b8161138460209383610b27565b8101031261018057515f611306565b3d9150611377565b90811561143e575b801561142c575b602090606460018060a01b035f805160206117fd8339815191525416935f60405195869485936334a6d7b960e11b8552600485015260248401528160448401525af19081156103b2575f916113fd575090565b90506020813d602011611424575b8161141860209383610b27565b81010312610180575190565b3d915061140b565b5060206114376116da565b90506113aa565b90506114486116da565b906113a3565b90602080835192838152019201905f5b81811061146b5750505090565b825184526020938401939092019160010161145e565b5f805160206117dd833981519152545f9291906001600160a01b0316803b15610180575f604051809263155f840160e21b8252602060048301528183816114cb602482018961144e565b03925af180156103b257611574575b507f93ab6e17f2c461cce6ea5d4ec117e51dda77a64affc2b2c05f8cd440def0e70054604051634c0d927760e01b815260a060048201529260209284926001600160a01b0316918391879183916115359060a484019061144e565b90632207ea6360e01b6024840152836044840152606483015282608483015203925af191821561156857916113fd575090565b604051903d90823e3d90fd5b6115819193505f90610b27565b5f916115356114da565b6020905f928115611610575b8015611602575b5f805160206117fd83398151915254604051638c14cc2160e01b8152600480820194909452848101909301919091526001600160f81b0319841660448301529092839160649183916001600160a01b03165af19081156103b2575f916113fd575090565b5061160b6116da565b61159e565b905061161a6116da565b90611597565b9060646020925f60018060a01b035f805160206117fd8339815191525416604051968795869463cb3b940760e01b86526004860152602485015260448401525af19081156103b2575f916113fd575090565b5f805160206117dd833981519152546001600160a01b031691823b1561018057604051631974142760e21b815260048101929092526001600160a01b03166024820152905f908290604490829084905af180156103b2576116d05750565b5f6110a791610b27565b5f805160206117fd83398151915254604051631ce2e8d760e31b81525f60048201819052600560f81b60248301529091602091839160449183916001600160a01b03165af19081156103b2575f916113fd575090565b5f805160206117fd83398151915254604051631ce2e8d760e31b81525f60048201819052600160f91b60248301529091602091839160449183916001600160a01b03165af19081156103b2575f916113fd575090565b5f805160206117fd83398151915254604051631ce2e8d760e31b815260016004820152600160f91b602482015290602090829060449082905f906001600160a01b03165af19081156103b2575f916113fd57509056feed8d60e34876f751cc8b014c560745351147d9de11b9347c854e881b128ea600ed8d60e34876f751cc8b014c560745351147d9de11b9347c854e881b128ea601a264697066735822122034d3968d30e174230e71e8e8049ff4b88f15eef54e4ee9e01acb754690996ca464736f6c634300081a0033","linkReferences":{}},"methodIdentifiers":{"acceptOwnership()":"79ba5097","allowance(address,address)":"dd62ed3e","approve(address,bytes32,bytes)":"b32c1001","approve(address,uint256)":"095ea7b3","balanceOf(address)":"70a08231","burn(uint64)":"9dbead42","decimals()":"313ce567","errorGetCounter()":"67a74a28","getErrorCodeForTransferId(uint256)":"a5184baf","mint(address,uint64)":"2893c5b0","name()":"06fdde03","owner()":"8da5cb5b","pendingOwner()":"e30c3978","renounceOwnership()":"715018a6","symbol()":"95d89b41","totalSupply()":"18160ddd","transfer(address,bytes32,bytes)":"7b7e0a5a","transfer(address,uint256)":"a9059cbb","transferCallback(uint256,uint8)":"2207ea63","transferFrom(address,address,bytes32,bytes)":"9a094352","transferFrom(address,address,uint256)":"23b872dd","transferOwnership(address)":"f2fde38b"},"id":6}