{"abi":[{"type":"constructor","inputs":[{"name":"name_","type":"string","internalType":"string"},{"name":"symbol_","type":"string","internalType":"string"}],"stateMutability":"nonpayable"},{"type":"function","name":"acceptOwnership","inputs":[],"outputs":[],"stateMutability":"nonpayable"},{"type":"function","name":"allowance","inputs":[{"name":"owner","type":"address","internalType":"address"},{"name":"spender","type":"address","internalType":"address"}],"outputs":[{"name":"","type":"uint256","internalType":"euint64"}],"stateMutability":"view"},{"type":"function","name":"approve","inputs":[{"name":"spender","type":"address","internalType":"address"},{"name":"amount","type":"uint256","internalType":"euint64"}],"outputs":[{"name":"","type":"bool","internalType":"bool"}],"stateMutability":"nonpayable"},{"type":"function","name":"approve","inputs":[{"name":"spender","type":"address","internalType":"address"},{"name":"encryptedAmount","type":"bytes32","internalType":"einput"},{"name":"inputProof","type":"bytes","internalType":"bytes"}],"outputs":[{"name":"","type":"bool","internalType":"bool"}],"stateMutability":"nonpayable"},{"type":"function","name":"balanceOf","inputs":[{"name":"account","type":"address","internalType":"address"}],"outputs":[{"name":"","type":"uint256","internalType":"euint64"}],"stateMutability":"view"},{"type":"function","name":"burn","inputs":[{"name":"amount","type":"uint64","internalType":"uint64"}],"outputs":[],"stateMutability":"nonpayable"},{"type":"function","name":"decimals","inputs":[],"outputs":[{"name":"","type":"uint8","internalType":"uint8"}],"stateMutability":"view"},{"type":"function","name":"errorGetCounter","inputs":[],"outputs":[{"name":"errorsCount","type":"uint256","internalType":"uint256"}],"stateMutability":"view"},{"type":"function","name":"getErrorCodeForTransferId","inputs":[{"name":"transferId","type":"uint256","internalType":"uint256"}],"outputs":[{"name":"errorCode","type":"uint256","internalType":"euint8"}],"stateMutability":"view"},{"type":"function","name":"mint","inputs":[{"name":"to","type":"address","internalType":"address"},{"name":"amount","type":"uint64","internalType":"uint64"}],"outputs":[],"stateMutability":"nonpayable"},{"type":"function","name":"name","inputs":[],"outputs":[{"name":"","type":"string","internalType":"string"}],"stateMutability":"view"},{"type":"function","name":"owner","inputs":[],"outputs":[{"name":"","type":"address","internalType":"address"}],"stateMutability":"view"},{"type":"function","name":"pendingOwner","inputs":[],"outputs":[{"name":"","type":"address","internalType":"address"}],"stateMutability":"view"},{"type":"function","name":"renounceOwnership","inputs":[],"outputs":[],"stateMutability":"nonpayable"},{"type":"function","name":"symbol","inputs":[],"outputs":[{"name":"","type":"string","internalType":"string"}],"stateMutability":"view"},{"type":"function","name":"totalSupply","inputs":[],"outputs":[{"name":"","type":"uint64","internalType":"uint64"}],"stateMutability":"view"},{"type":"function","name":"transfer","inputs":[{"name":"to","type":"address","internalType":"address"},{"name":"encryptedAmount","type":"bytes32","internalType":"einput"},{"name":"inputProof","type":"bytes","internalType":"bytes"}],"outputs":[{"name":"","type":"bool","internalType":"bool"}],"stateMutability":"nonpayable"},{"type":"function","name":"transfer","inputs":[{"name":"to","type":"address","internalType":"address"},{"name":"amount","type":"uint256","internalType":"euint64"}],"outputs":[{"name":"","type":"bool","internalType":"bool"}],"stateMutability":"nonpayable"},{"type":"function","name":"transferFrom","inputs":[{"name":"from","type":"address","internalType":"address"},{"name":"to","type":"address","internalType":"address"},{"name":"amount","type":"uint256","internalType":"euint64"}],"outputs":[{"name":"","type":"bool","internalType":"bool"}],"stateMutability":"nonpayable"},{"type":"function","name":"transferFrom","inputs":[{"name":"from","type":"address","internalType":"address"},{"name":"to","type":"address","internalType":"address"},{"name":"encryptedAmount","type":"bytes32","internalType":"einput"},{"name":"inputProof","type":"bytes","internalType":"bytes"}],"outputs":[{"name":"","type":"bool","internalType":"bool"}],"stateMutability":"nonpayable"},{"type":"function","name":"transferOwnership","inputs":[{"name":"newOwner","type":"address","internalType":"address"}],"outputs":[],"stateMutability":"nonpayable"},{"type":"event","name":"Approval","inputs":[{"name":"owner","type":"address","indexed":true,"internalType":"address"},{"name":"spender","type":"address","indexed":true,"internalType":"address"},{"name":"placeholder","type":"uint256","indexed":false,"internalType":"uint256"}],"anonymous":false},{"type":"event","name":"Burn","inputs":[{"name":"to","type":"address","indexed":true,"internalType":"address"},{"name":"amount","type":"uint64","indexed":false,"internalType":"uint64"}],"anonymous":false},{"type":"event","name":"Mint","inputs":[{"name":"to","type":"address","indexed":true,"internalType":"address"},{"name":"amount","type":"uint64","indexed":false,"internalType":"uint64"}],"anonymous":false},{"type":"event","name":"OwnershipTransferStarted","inputs":[{"name":"previousOwner","type":"address","indexed":true,"internalType":"address"},{"name":"newOwner","type":"address","indexed":true,"internalType":"address"}],"anonymous":false},{"type":"event","name":"OwnershipTransferred","inputs":[{"name":"previousOwner","type":"address","indexed":true,"internalType":"address"},{"name":"newOwner","type":"address","indexed":true,"internalType":"address"}],"anonymous":false},{"type":"event","name":"Transfer","inputs":[{"name":"from","type":"address","indexed":true,"internalType":"address"},{"name":"to","type":"address","indexed":true,"internalType":"address"},{"name":"transferId","type":"uint256","indexed":false,"internalType":"uint256"}],"anonymous":false},{"type":"error","name":"ERC20InsufficientAllowance","inputs":[{"name":"spender","type":"address","internalType":"address"},{"name":"allowance","type":"uint256","internalType":"uint256"},{"name":"needed","type":"uint256","internalType":"uint256"}]},{"type":"error","name":"ERC20InsufficientBalance","inputs":[{"name":"sender","type":"address","internalType":"address"},{"name":"balance","type":"uint256","internalType":"uint256"},{"name":"needed","type":"uint256","internalType":"uint256"}]},{"type":"error","name":"ERC20InvalidApprover","inputs":[{"name":"approver","type":"address","internalType":"address"}]},{"type":"error","name":"ERC20InvalidReceiver","inputs":[{"name":"receiver","type":"address","internalType":"address"}]},{"type":"error","name":"ERC20InvalidSender","inputs":[{"name":"sender","type":"address","internalType":"address"}]},{"type":"error","name":"ERC20InvalidSpender","inputs":[{"name":"spender","type":"address","internalType":"address"}]},{"type":"error","name":"ErrorIndexInvalid","inputs":[]},{"type":"error","name":"ErrorIndexIsNull","inputs":[]},{"type":"error","name":"OwnableInvalidOwner","inputs":[{"name":"owner","type":"address","internalType":"address"}]},{"type":"error","name":"OwnableUnauthorizedAccount","inputs":[{"name":"account","type":"address","internalType":"address"}]},{"type":"error","name":"TFHESenderNotAllowed","inputs":[]},{"type":"error","name":"TotalNumberErrorCodesEqualToZero","inputs":[]}],"bytecode":{"object":"0x60a0806040523461040957611d53803803809161001c828561066b565b83398101906040818303126104095780516001600160401b038111610409578261004791830161068e565b60208201519092906001600160401b03811161040957610067920161068e565b5f606060405161007681610650565b8281528260208201528260408201520152739d6891a6240d6130c54ae243d8005063d05fe14b60606040516100aa81610650565b73fee8407e2f5e3ee68ad77cae98c434e637f516e5815273687408ab54661ba0b4aef3a44156c616c6955e07602082015273fb03be574d14c256d56f09a198b586bdfc0a9de26040820152015273fee8407e2f5e3ee68ad77cae98c434e637f516e560018060a01b03195f80516020611cd38339815191525416175f80516020611cd38339815191525573687408ab54661ba0b4aef3a44156c616c6955e0760018060a01b03195f80516020611d138339815191525416175f80516020611d138339815191525573fb03be574d14c256d56f09a198b586bdfc0a9de260018060a01b03195f80516020611d338339815191525416175f80516020611d3383398151915255739d6891a6240d6130c54ae243d8005063d05fe14b60018060a01b03195f80516020611cf38339815191525416175f80516020611cf383398151915255331561063d57600180546001600160a01b03199081169091555f805433928116831782556001600160a01b0316907f8be0079c531659141344cd1fd0a4f28419497f9722a3daafe3b4186f6b6457e09080a381516001600160401b03811161055057600254600181811c91168015610633575b602082101461053257601f81116105d0575b50602092601f821160011461056f57928192935f92610564575b50508160011b915f199060031b1c1916176002555b80516001600160401b03811161055057600354600181811c91168015610546575b602082101461053257601f81116104cf575b50602091601f821160011461046f579181925f92610464575b50508160011b915f199060031b1c1916176003555b5f5b60ff81169060028211610440575f80516020611d1383398151915254604051631ce2e8d760e31b815260048101849052600160f91b60248201529290602090849060449082905f906001600160a01b03165af19283156103fe575f9361040d575b505f9081526007602052604090208290555f80516020611cd3833981519152546001600160a01b031691823b15610409575f92604484926040519586938492631974142760e21b845260048401523060248401525af19182156103fe5760ff926103ee575b501660ff81146103da57600101610302565b634e487b7160e01b5f52601160045260245ffd5b5f6103f89161066b565b5f6103c8565b6040513d5f823e3d90fd5b5f80fd5b9092506020813d8211610438575b816104286020938361066b565b810103126104095751915f610363565b3d915061041b565b60026080526040516115ef90816106e48239608051818181610b540152610e490152f35b015190505f806102eb565b601f1982169260035f52805f20915f5b8581106104b75750836001951061049f575b505050811b01600355610300565b01515f1960f88460031b161c191690555f8080610491565b9192602060018192868501518155019401920161047f565b60035f527fc2575a0e9e593c00f959f8c92f12db2869c3395a3b0502d05e2516446f71f85b601f830160051c81019160208410610528575b601f0160051c01905b81811061051d57506102d2565b5f8155600101610510565b9091508190610507565b634e487b7160e01b5f52602260045260245ffd5b90607f16906102c0565b634e487b7160e01b5f52604160045260245ffd5b015190505f8061028a565b601f1982169360025f52805f20915f5b8681106105b857508360019596106105a0575b505050811b0160025561029f565b01515f1960f88460031b161c191690555f8080610592565b9192602060018192868501518155019401920161057f565b60025f527f405787fa12a823e0f2b7631cc41b3ba8828b3321ca811111fa75cd3aa3bb5ace601f830160051c81019160208410610629575b601f0160051c01905b81811061061e5750610270565b5f8155600101610611565b9091508190610608565b90607f169061025e565b631e4fbdf760e01b5f525f60045260245ffd5b608081019081106001600160401b0382111761055057604052565b601f909101601f19168101906001600160401b0382119082101761055057604052565b81601f82011215610409578051906001600160401b03821161055057604051926106c2601f8401601f19166020018561066b565b8284526020838301011161040957815f9260208093018386015e830101529056fe6080806040526004361015610012575f80fd5b5f3560e01c90816306fdde031461090c57508063095ea7b3146108e557806318160ddd146108bb57806323b872dd1461088c5780632893c5b0146106b7578063313ce5671461069c57806367a74a281461067f57806370a0823114610647578063715018a6146105e457806379ba50971461055f5780637b7e0a5a146105425780638da5cb5b1461051b57806395d89b411461040f5780639a094352146103ae5780639dbead421461029f578063a5184baf1461025c578063a9059cbb1461022b578063b32c1001146101f1578063dd62ed3e146101a1578063e30c3978146101795763f2fde38b14610103575f80fd5b346101755760203660031901126101755761011c6109e8565b6101246111db565b60018060a01b0316806bffffffffffffffffffffffff60a01b600154161760015560018060a01b035f54167f38d16b8cac22d99fc7c124b9cd0de2d3fa1faef420bfe791d8c362d765e227005f80a3005b5f80fd5b34610175575f366003190112610175576001546040516001600160a01b039091168152602090f35b34610175576040366003190112610175576101ba6109e8565b6101c26109fe565b6001600160a01b039182165f908152600560209081526040808320949093168252928352819020549051908152f35b346101755761021f61021361021961020836610a42565b949192943691610dde565b906111ee565b90610abf565b50602060405160018152f35b346101755760403660031901126101755760206102526102496109e8565b60243590610e24565b6040519015158152f35b3461017557602036600319011261017557600435600654811015610290575f526008602052602060405f2054604051908152f35b63d65c1f3360e01b5f5260045ffd5b346101755760203660031901126101755760043567ffffffffffffffff811680910361017557335f52600460205260405f205490811561039a575b5f8051602061159a83398151915254604051638c14cc2160e01b815260048101939093526024830191909152600160f81b6044830152602090829060649082905f906001600160a01b03165af1801561038f575f9061035b575b806103599150335f5260046020528060405f20556103523082611476565b3390611476565b005b506020813d602011610387575b8161037560209383610a89565b81010312610175576103599051610334565b3d9150610368565b6040513d5f823e3d90fd5b905060206103a6611543565b9190506102da565b34610175576080366003190112610175576103c76109e8565b6103cf6109fe565b906064359167ffffffffffffffff8311610175576104096104016103fa61021f953690600401610a14565b3691610dde565b6044356111ee565b91610b14565b34610175575f366003190112610175576040515f6003548060011c90600181168015610511575b6020831081146104fd578285529081156104d9575060011461047b575b6104778361046381850382610a89565b6040519182916020835260208301906109c4565b0390f35b91905060035f527fc2575a0e9e593c00f959f8c92f12db2869c3395a3b0502d05e2516446f71f85b915f905b8082106104bf57509091508101602001610463610453565b9192600181602092548385880101520191019092916104a7565b60ff191660208086019190915291151560051b840190910191506104639050610453565b634e487b7160e01b5f52602260045260245ffd5b91607f1691610436565b34610175575f366003190112610175575f546040516001600160a01b039091168152602090f35b346101755761021f61021361055961020836610a42565b90610e24565b34610175575f36600319011261017557600154336001600160a01b03909116036105d157600180546001600160a01b03199081169091555f805433928116831782556001600160a01b0316907f8be0079c531659141344cd1fd0a4f28419497f9722a3daafe3b4186f6b6457e09080a3005b63118cdaa760e01b5f523360045260245ffd5b34610175575f366003190112610175576105fc6111db565b600180546001600160a01b03199081169091555f80549182168155906001600160a01b03167f8be0079c531659141344cd1fd0a4f28419497f9722a3daafe3b4186f6b6457e08280a3005b34610175576020366003190112610175576001600160a01b036106686109e8565b165f526004602052602060405f2054604051908152f35b34610175575f366003190112610175576020600654604051908152f35b34610175575f36600319011261017557602060405160068152f35b34610175576040366003190112610175576106d06109e8565b60243567ffffffffffffffff8116809103610175576106ed6111db565b6001600160a01b0382165f8181526004602052604081205491939091801561087a575b5f8051602061159a8339815191525460405163f953e42760e01b8152600481019290925260248201859052600160f81b6044830152909260209184916064918391906001600160a01b03165af1801561038f575f90610846575b61078c9250845f5260046020528060405f20556107873082611476565b611476565b815f7fddf252ad1be2c89b69c2b068fc378daa952ba7f163c4a11628f55a4df523b3ef602060405183198152a3600154908067ffffffffffffffff8360a01c16019067ffffffffffffffff82116108325767ffffffffffffffff60a01b1990921660a09190911b67ffffffffffffffff60a01b16176001556040519081527f9109de113672aaca72ede8bc906f7aafabee865311ac020fb15c71edf94a0a0190602090a2005b634e487b7160e01b5f52601160045260245ffd5b506020823d602011610872575b8161086060209383610a89565b810103126101755761078c915161076a565b3d9150610853565b506020610885611543565b9050610710565b346101755760603660031901126101755760206102526108aa6109e8565b6108b26109fe565b60443591610b14565b34610175575f36600319011261017557602067ffffffffffffffff60015460a01c16604051908152f35b346101755760403660031901126101755760206102526109036109e8565b60243590610abf565b34610175575f366003190112610175575f6002548060011c906001811680156109ba575b6020831081146104fd578285529081156104d9575060011461095c576104778361046381850382610a89565b91905060025f527f405787fa12a823e0f2b7631cc41b3ba8828b3321ca811111fa75cd3aa3bb5ace915f905b8082106109a057509091508101602001610463610453565b919260018160209254838588010152019101909291610988565b91607f1691610930565b805180835260209291819084018484015e5f828201840152601f01601f1916010190565b600435906001600160a01b038216820361017557565b602435906001600160a01b038216820361017557565b9181601f840112156101755782359167ffffffffffffffff8311610175576020838186019501011161017557565b6060600319820112610175576004356001600160a01b03811681036101755791602435916044359067ffffffffffffffff821161017557610a8591600401610a14565b9091565b90601f8019910116810190811067ffffffffffffffff821117610aab57604052565b634e487b7160e01b5f52604160045260245ffd5b90610ad490610acd81610eed565b8233610f9f565b6040515f1981526001600160a01b039091169033907f8c5be1e5ebec7d5bd14f71427d1e84f3dd0314c0f7b2291e5b200ac8c7c3b92590602090a3600190565b91610b1e81610eed565b6001600160a01b0383165f81815260056020908152604080832033845290915290205493909290610b4f8584611301565b9360ff7f00000000000000000000000000000000000000000000000000000000000000001694856002116102905760076020527f6d5257204ebe7d88fd91ae87941cb2dd9d8062b64ae5a2bd2d28ec40b9fbf6df5460025f9081527fb7c774451310d1be4108bc180d1b52823cb0ee0274a6c0081bcaf94f115fb96d54909391610bda9190846114f1565b9083526004602052610bf0604084205487611301565b96602060018060a01b035f8051602061159a83398151915254166024604051809781936309c00ffd60e11b83528d60048401525af193841561038f575f94610da9575b505f8051602061159a83398151915254604051630ccd46b160e31b81526004810195909552602485018490525f6044860181905260209186916064918391906001600160a01b03165af193841561038f575f94610d75575b5060011161029057610cb0610cc49160209460015f526007865260405f2054906114f1565b610cb9816113b4565b506103528582611476565b606460018060a01b035f8051602061159a8339815191525416965f6040519889948593630ccd46b160e31b8552600485015260248401528160448401525af193841561038f575f94610d3d575b50610d33610d2c86610d2686610d38996113e1565b876114f1565b3383610f9f565b61101c565b600190565b9493506020853d602011610d6d575b81610d5960209383610a89565b810103126101755793519293610d33610d11565b3d9150610d4c565b9093506020813d602011610da1575b81610d9160209383610a89565b810103126101755751925f610c8b565b3d9150610d84565b93506020843d602011610dd6575b81610dc460209383610a89565b81010312610175579251926020610c33565b3d9150610db7565b92919267ffffffffffffffff8211610aab5760405191610e08601f8201601f191660200184610a89565b829481845281830111610175578281602093845f960137010152565b90610e2e81610eed565b335f526004602052610e4460405f205482611301565b9060ff7f0000000000000000000000000000000000000000000000000000000000000000166001116102905760076020527f6d5257204ebe7d88fd91ae87941cb2dd9d8062b64ae5a2bd2d28ec40b9fbf6df5460015f527fb39221ace053465ec3453ce2b36430bd138b997ecea25c1043da0c366812b82854610d389491610ee7918391610ed39190876114f1565b610edc816113b4565b506107873382611476565b3361101c565b7fed8d60e34876f751cc8b014c560745351147d9de11b9347c854e881b128ea60054604051632fd514cd60e11b81526004810192909252336024830152602090829060449082906001600160a01b03165afa90811561038f575f91610f64575b5015610f5557565b632fa38b3f60e01b5f5260045ffd5b90506020813d602011610f97575b81610f7f60209383610a89565b8101031261017557518015158103610175575f610f4d565b3d9150610f72565b6001600160a01b0381169392908415611009576001600160a01b038316948515610ff65790610ff49495610787925f52600560205260405f20905f526020528260405f2055610fee3084611476565b82611476565b565b85634a1406b160e11b5f5260045260245ffd5b8463e602df0560e01b5f5260045260245ffd5b91926001600160a01b038316929083156111c8576001600160a01b0383169485156111b557906110549161104e611543565b916114f1565b91845f5260046020525f602060408220548581156111a5575b8615611197575b5f8051602061159a8339815191525460405163f953e42760e01b8152600480820194909452848101909301919091526001600160f81b0319841660448301529092839160649183916001600160a01b03165af190811561038f575f91611161575b50926110fc61110e92856111269650885f5260046020528060405f20556107873082611476565b845f52600460205260405f20546113e1565b835f5260046020528060405f20556107873082611476565b6006545f1981019081116108325760207fddf252ad1be2c89b69c2b068fc378daa952ba7f163c4a11628f55a4df523b3ef91604051908152a3565b9390506020843d60201161118f575b8161117d60209383610a89565b810103126101755792516110fc6110d5565b3d9150611170565b506111a0611543565b611074565b90506111af611543565b9061106d565b8563ec442f0560e01b5f5260045260245ffd5b83634b637e8f60e11b5f5260045260245ffd5b5f546001600160a01b031633036105d157565b61123d9160209160018060a01b035f8051602061159a8339815191525416905f6040518096819582946302e817ff60e41b845260048401523360248401526080604484015260848301906109c4565b600560f81b606483015203925af190811561038f575f916112cf575b507fed8d60e34876f751cc8b014c560745351147d9de11b9347c854e881b128ea600546001600160a01b0316803b15610175576040516346ce4e4960e11b815260048101839052336024820152905f908290604490829084905af1801561038f576112c2575090565b5f6112cc91610a89565b90565b90506020813d6020116112f9575b816112ea60209383610a89565b8101031261017557515f611259565b3d91506112dd565b9081156113a4575b8015611392575b602090606460018060a01b035f8051602061159a8339815191525416935f60405195869485936334a6d7b960e11b8552600485015260248401528160448401525af190811561038f575f91611363575090565b90506020813d60201161138a575b8161137e60209383610a89565b81010312610175575190565b3d9150611371565b50602061139d611543565b9050611310565b90506113ae611543565b90611309565b60065491905f19831461083257610ff49060018401600655835f5260086020528060405f20553090611476565b6020905f928115611466575b8015611458575b5f8051602061159a83398151915254604051638c14cc2160e01b8152600480820194909452848101909301919091526001600160f81b0319841660448301529092839160649183916001600160a01b03165af190811561038f575f91611363575090565b50611461611543565b6113f4565b9050611470611543565b906113ed565b7fed8d60e34876f751cc8b014c560745351147d9de11b9347c854e881b128ea600546001600160a01b031691823b1561017557604051631974142760e21b815260048101929092526001600160a01b03166024820152905f908290604490829084905af1801561038f576114e75750565b5f610ff491610a89565b9060646020925f60018060a01b035f8051602061159a8339815191525416604051968795869463cb3b940760e01b86526004860152602485015260448401525af190811561038f575f91611363575090565b5f8051602061159a83398151915254604051631ce2e8d760e31b81525f60048201819052600560f81b60248301529091602091839160449183916001600160a01b03165af190811561038f575f9161136357509056feed8d60e34876f751cc8b014c560745351147d9de11b9347c854e881b128ea601a264697066735822122092618fe96464edefcc349acd12bdbe8a8c3cb5d6f5a1fdab3cee77351b340eff64736f6c634300081a0033ed8d60e34876f751cc8b014c560745351147d9de11b9347c854e881b128ea600ed8d60e34876f751cc8b014c560745351147d9de11b9347c854e881b128ea603ed8d60e34876f751cc8b014c560745351147d9de11b9347c854e881b128ea601ed8d60e34876f751cc8b014c560745351147d9de11b9347c854e881b128ea602","linkReferences":{}},"methodIdentifiers":{"acceptOwnership()":"79ba5097","allowance(address,address)":"dd62ed3e","approve(address,bytes32,bytes)":"b32c1001","approve(address,uint256)":"095ea7b3","balanceOf(address)":"70a08231","burn(uint64)":"9dbead42","decimals()":"313ce567","errorGetCounter()":"67a74a28","getErrorCodeForTransferId(uint256)":"a5184baf","mint(address,uint64)":"2893c5b0","name()":"06fdde03","owner()":"8da5cb5b","pendingOwner()":"e30c3978","renounceOwnership()":"715018a6","symbol()":"95d89b41","totalSupply()":"18160ddd","transfer(address,bytes32,bytes)":"7b7e0a5a","transfer(address,uint256)":"a9059cbb","transferFrom(address,address,bytes32,bytes)":"9a094352","transferFrom(address,address,uint256)":"23b872dd","transferOwnership(address)":"f2fde38b"},"id":4}