{"abi":[{"type":"constructor","inputs":[{"name":"name_","type":"string","internalType":"string"},{"name":"symbol_","type":"string","internalType":"string"}],"stateMutability":"nonpayable"},{"type":"function","name":"acceptOwnership","inputs":[],"outputs":[],"stateMutability":"nonpayable"},{"type":"function","name":"allowance","inputs":[{"name":"owner","type":"address","internalType":"address"},{"name":"spender","type":"address","internalType":"address"}],"outputs":[{"name":"","type":"uint256","internalType":"euint64"}],"stateMutability":"view"},{"type":"function","name":"approve","inputs":[{"name":"spender","type":"address","internalType":"address"},{"name":"amount","type":"uint256","internalType":"euint64"}],"outputs":[{"name":"","type":"bool","internalType":"bool"}],"stateMutability":"nonpayable"},{"type":"function","name":"approve","inputs":[{"name":"spender","type":"address","internalType":"address"},{"name":"encryptedAmount","type":"bytes32","internalType":"einput"},{"name":"inputProof","type":"bytes","internalType":"bytes"}],"outputs":[{"name":"","type":"bool","internalType":"bool"}],"stateMutability":"nonpayable"},{"type":"function","name":"balanceOf","inputs":[{"name":"account","type":"address","internalType":"address"}],"outputs":[{"name":"","type":"uint256","internalType":"euint64"}],"stateMutability":"view"},{"type":"function","name":"decimals","inputs":[],"outputs":[{"name":"","type":"uint8","internalType":"uint8"}],"stateMutability":"view"},{"type":"function","name":"mint","inputs":[{"name":"to","type":"address","internalType":"address"},{"name":"amount","type":"uint64","internalType":"uint64"}],"outputs":[],"stateMutability":"nonpayable"},{"type":"function","name":"name","inputs":[],"outputs":[{"name":"","type":"string","internalType":"string"}],"stateMutability":"view"},{"type":"function","name":"owner","inputs":[],"outputs":[{"name":"","type":"address","internalType":"address"}],"stateMutability":"view"},{"type":"function","name":"pendingOwner","inputs":[],"outputs":[{"name":"","type":"address","internalType":"address"}],"stateMutability":"view"},{"type":"function","name":"renounceOwnership","inputs":[],"outputs":[],"stateMutability":"nonpayable"},{"type":"function","name":"symbol","inputs":[],"outputs":[{"name":"","type":"string","internalType":"string"}],"stateMutability":"view"},{"type":"function","name":"totalSupply","inputs":[],"outputs":[{"name":"","type":"uint64","internalType":"uint64"}],"stateMutability":"view"},{"type":"function","name":"transfer","inputs":[{"name":"to","type":"address","internalType":"address"},{"name":"encryptedAmount","type":"bytes32","internalType":"einput"},{"name":"inputProof","type":"bytes","internalType":"bytes"}],"outputs":[{"name":"","type":"bool","internalType":"bool"}],"stateMutability":"nonpayable"},{"type":"function","name":"transfer","inputs":[{"name":"to","type":"address","internalType":"address"},{"name":"amount","type":"uint256","internalType":"euint64"}],"outputs":[{"name":"","type":"bool","internalType":"bool"}],"stateMutability":"nonpayable"},{"type":"function","name":"transferFrom","inputs":[{"name":"from","type":"address","internalType":"address"},{"name":"to","type":"address","internalType":"address"},{"name":"amount","type":"uint256","internalType":"euint64"}],"outputs":[{"name":"","type":"bool","internalType":"bool"}],"stateMutability":"nonpayable"},{"type":"function","name":"transferFrom","inputs":[{"name":"from","type":"address","internalType":"address"},{"name":"to","type":"address","internalType":"address"},{"name":"encryptedAmount","type":"bytes32","internalType":"einput"},{"name":"inputProof","type":"bytes","internalType":"bytes"}],"outputs":[{"name":"","type":"bool","internalType":"bool"}],"stateMutability":"nonpayable"},{"type":"function","name":"transferOwnership","inputs":[{"name":"newOwner","type":"address","internalType":"address"}],"outputs":[],"stateMutability":"nonpayable"},{"type":"event","name":"Approval","inputs":[{"name":"owner","type":"address","indexed":true,"internalType":"address"},{"name":"spender","type":"address","indexed":true,"internalType":"address"},{"name":"placeholder","type":"uint256","indexed":false,"internalType":"uint256"}],"anonymous":false},{"type":"event","name":"Mint","inputs":[{"name":"to","type":"address","indexed":true,"internalType":"address"},{"name":"amount","type":"uint64","indexed":false,"internalType":"uint64"}],"anonymous":false},{"type":"event","name":"OwnershipTransferStarted","inputs":[{"name":"previousOwner","type":"address","indexed":true,"internalType":"address"},{"name":"newOwner","type":"address","indexed":true,"internalType":"address"}],"anonymous":false},{"type":"event","name":"OwnershipTransferred","inputs":[{"name":"previousOwner","type":"address","indexed":true,"internalType":"address"},{"name":"newOwner","type":"address","indexed":true,"internalType":"address"}],"anonymous":false},{"type":"event","name":"Transfer","inputs":[{"name":"from","type":"address","indexed":true,"internalType":"address"},{"name":"to","type":"address","indexed":true,"internalType":"address"},{"name":"transferId","type":"uint256","indexed":false,"internalType":"uint256"}],"anonymous":false},{"type":"error","name":"ERC20InsufficientAllowance","inputs":[{"name":"spender","type":"address","internalType":"address"},{"name":"allowance","type":"uint256","internalType":"uint256"},{"name":"needed","type":"uint256","internalType":"uint256"}]},{"type":"error","name":"ERC20InsufficientBalance","inputs":[{"name":"sender","type":"address","internalType":"address"},{"name":"balance","type":"uint256","internalType":"uint256"},{"name":"needed","type":"uint256","internalType":"uint256"}]},{"type":"error","name":"ERC20InvalidApprover","inputs":[{"name":"approver","type":"address","internalType":"address"}]},{"type":"error","name":"ERC20InvalidReceiver","inputs":[{"name":"receiver","type":"address","internalType":"address"}]},{"type":"error","name":"ERC20InvalidSender","inputs":[{"name":"sender","type":"address","internalType":"address"}]},{"type":"error","name":"ERC20InvalidSpender","inputs":[{"name":"spender","type":"address","internalType":"address"}]},{"type":"error","name":"OwnableInvalidOwner","inputs":[{"name":"owner","type":"address","internalType":"address"}]},{"type":"error","name":"OwnableUnauthorizedAccount","inputs":[{"name":"account","type":"address","internalType":"address"}]},{"type":"error","name":"TFHESenderNotAllowed","inputs":[]}],"bytecode":{"object":"0x60806040523461051757611872803803806100198161053a565b9283398101906040818303126105175780516001600160401b038111610517578261004591830161055f565b60208201519092906001600160401b03811161051757610065920161055f565b5f606061007061051b565b8281528260208201528260408201520152739d6891a6240d6130c54ae243d8005063d05fe14b60606100a061051b565b73fee8407e2f5e3ee68ad77cae98c434e637f516e5815273687408ab54661ba0b4aef3a44156c616c6955e07602082015273fb03be574d14c256d56f09a198b586bdfc0a9de26040820152015273fee8407e2f5e3ee68ad77cae98c434e637f516e560018060a01b03197fed8d60e34876f751cc8b014c560745351147d9de11b9347c854e881b128ea6005416177fed8d60e34876f751cc8b014c560745351147d9de11b9347c854e881b128ea6005573687408ab54661ba0b4aef3a44156c616c6955e0760018060a01b03195f805160206118328339815191525416175f805160206118328339815191525573fb03be574d14c256d56f09a198b586bdfc0a9de260018060a01b03195f805160206118528339815191525416175f8051602061185283398151915255739d6891a6240d6130c54ae243d8005063d05fe14b60018060a01b03195f805160206118128339815191525416175f8051602061181283398151915255331561050457600180546001600160a01b03199081169091555f805433928116831782556001600160a01b0316907f8be0079c531659141344cd1fd0a4f28419497f9722a3daafe3b4186f6b6457e09080a381516001600160401b03811161041757600254600181811c911680156104fa575b60208210146103f957601f8111610497575b50602092601f821160011461043657928192935f9261042b575b50508160011b915f199060031b1c1916176002555b80516001600160401b03811161041757600354600181811c9116801561040d575b60208210146103f957601f8111610396575b50602091601f8211600114610336579181925f9261032b575b50508160011b915f199060031b1c1916176003555b60405161126190816105b18239f35b015190505f80610307565b601f1982169260035f52805f20915f5b85811061037e57508360019510610366575b505050811b0160035561031c565b01515f1960f88460031b161c191690555f8080610358565b91926020600181928685015181550194019201610346565b60035f527fc2575a0e9e593c00f959f8c92f12db2869c3395a3b0502d05e2516446f71f85b601f830160051c810191602084106103ef575b601f0160051c01905b8181106103e457506102ee565b5f81556001016103d7565b90915081906103ce565b634e487b7160e01b5f52602260045260245ffd5b90607f16906102dc565b634e487b7160e01b5f52604160045260245ffd5b015190505f806102a6565b601f1982169360025f52805f20915f5b86811061047f5750836001959610610467575b505050811b016002556102bb565b01515f1960f88460031b161c191690555f8080610459565b91926020600181928685015181550194019201610446565b60025f527f405787fa12a823e0f2b7631cc41b3ba8828b3321ca811111fa75cd3aa3bb5ace601f830160051c810191602084106104f0575b601f0160051c01905b8181106104e5575061028c565b5f81556001016104d8565b90915081906104cf565b90607f169061027a565b631e4fbdf760e01b5f525f60045260245ffd5b5f80fd5b60405190608082016001600160401b0381118382101761041757604052565b6040519190601f01601f191682016001600160401b0381118382101761041757604052565b81601f82011215610517578051906001600160401b0382116104175761058e601f8301601f191660200161053a565b928284526020838301011161051757815f9260208093018386015e830101529056fe6080806040526004361015610012575f80fd5b5f3560e01c90816306fdde031461078757508063095ea7b31461076057806318160ddd1461073657806323b872dd146107075780632893c5b014610527578063313ce5671461050c57806370a08231146104d4578063715018a61461047157806379ba5097146103ec5780637b7e0a5a146103cf5780638da5cb5b146103a857806395d89b411461029c5780639a0943521461023b578063a9059cbb1461020a578063b32c1001146101d0578063dd62ed3e14610180578063e30c3978146101585763f2fde38b146100e2575f80fd5b34610154576020366003190112610154576100fb610863565b610103610edd565b60018060a01b0316806bffffffffffffffffffffffff60a01b600154161760015560018060a01b035f54167f38d16b8cac22d99fc7c124b9cd0de2d3fa1faef420bfe791d8c362d765e227005f80a3005b5f80fd5b34610154575f366003190112610154576001546040516001600160a01b039091168152602090f35b3461015457604036600319011261015457610199610863565b6101a1610879565b6001600160a01b039182165f908152600560209081526040808320949093168252928352819020549051908152f35b34610154576101fe6101f26101f86101e7366108bd565b949192943691610b0e565b90610ef0565b9061093a565b50602060405160018152f35b34610154576040366003190112610154576020610231610228610863565b60243590610b54565b6040519015158152f35b3461015457608036600319011261015457610254610863565b61025c610879565b906064359167ffffffffffffffff83116101545761029661028e6102876101fe95369060040161088f565b3691610b0e565b604435610ef0565b9161098f565b34610154575f366003190112610154576040515f6003548060011c9060018116801561039e575b60208310811461038a578285529081156103665750600114610308575b610304836102f081850382610904565b60405191829160208352602083019061083f565b0390f35b91905060035f527fc2575a0e9e593c00f959f8c92f12db2869c3395a3b0502d05e2516446f71f85b915f905b80821061034c575090915081016020016102f06102e0565b919260018160209254838588010152019101909291610334565b60ff191660208086019190915291151560051b840190910191506102f090506102e0565b634e487b7160e01b5f52602260045260245ffd5b91607f16916102c3565b34610154575f366003190112610154575f546040516001600160a01b039091168152602090f35b34610154576101fe6101f26103e66101e7366108bd565b90610b54565b34610154575f36600319011261015457600154336001600160a01b039091160361045e57600180546001600160a01b03199081169091555f805433928116831782556001600160a01b0316907f8be0079c531659141344cd1fd0a4f28419497f9722a3daafe3b4186f6b6457e09080a3005b63118cdaa760e01b5f523360045260245ffd5b34610154575f36600319011261015457610489610edd565b600180546001600160a01b03199081169091555f80549182168155906001600160a01b03167f8be0079c531659141344cd1fd0a4f28419497f9722a3daafe3b4186f6b6457e08280a3005b34610154576020366003190112610154576001600160a01b036104f5610863565b165f526004602052602060405f2054604051908152f35b34610154575f36600319011261015457602060405160068152f35b3461015457604036600319011261015457610540610863565b60243567ffffffffffffffff81168091036101545761055d610edd565b6001600160a01b0382165f818152600460205260408120549193909180156106f5575b5f8051602061120c8339815191525460405163f953e42760e01b8152600481019290925260248201859052600160f81b6044830152909260209184916064918391906001600160a01b03165af180156106ea575f906106b6575b6105fc9250845f5260046020528060405f20556105f7308261113a565b61113a565b815f7fddf252ad1be2c89b69c2b068fc378daa952ba7f163c4a11628f55a4df523b3ef602060405183198152a3600154908067ffffffffffffffff8360a01c16019067ffffffffffffffff82116106a25767ffffffffffffffff60a01b1990921660a09190911b67ffffffffffffffff60a01b16176001556040519081527f9109de113672aaca72ede8bc906f7aafabee865311ac020fb15c71edf94a0a0190602090a2005b634e487b7160e01b5f52601160045260245ffd5b506020823d6020116106e2575b816106d060209383610904565b81010312610154576105fc91516105da565b3d91506106c3565b6040513d5f823e3d90fd5b5060206107006111b5565b9050610580565b34610154576060366003190112610154576020610231610725610863565b61072d610879565b6044359161098f565b34610154575f36600319011261015457602067ffffffffffffffff60015460a01c16604051908152f35b3461015457604036600319011261015457602061023161077e610863565b6024359061093a565b34610154575f366003190112610154575f6002548060011c90600181168015610835575b60208310811461038a5782855290811561036657506001146107d757610304836102f081850382610904565b91905060025f527f405787fa12a823e0f2b7631cc41b3ba8828b3321ca811111fa75cd3aa3bb5ace915f905b80821061081b575090915081016020016102f06102e0565b919260018160209254838588010152019101909291610803565b91607f16916107ab565b805180835260209291819084018484015e5f828201840152601f01601f1916010190565b600435906001600160a01b038216820361015457565b602435906001600160a01b038216820361015457565b9181601f840112156101545782359167ffffffffffffffff8311610154576020838186019501011161015457565b6060600319820112610154576004356001600160a01b03811681036101545791602435916044359067ffffffffffffffff8211610154576109009160040161088f565b9091565b90601f8019910116810190811067ffffffffffffffff82111761092657604052565b634e487b7160e01b5f52604160045260245ffd5b9061094f9061094881610b7e565b8233610c30565b6040515f1981526001600160a01b039091169033907f8c5be1e5ebec7d5bd14f71427d1e84f3dd0314c0f7b2291e5b200ac8c7c3b92590602090a3600190565b9161099981610b7e565b6001600160a01b0383165f818152600560209081526040808320338452909152902054939092906109ca8584611003565b935f52600460205260206109e260405f205485611003565b94606460018060a01b035f8051602061120c8339815191525416965f6040519889948593630ccd46b160e31b8552600485015260248401528160448401525af19384156106ea575f94610ada575b506020610a3d84876110b6565b95606460018060a01b035f8051602061120c8339815191525416975f604051998a94859363cb3b940760e01b85528b6004860152602485015260448401525af19485156106ea575f95610aa4575b50610a9a610a9f953383610c30565b610cad565b600190565b94506020853d602011610ad2575b81610abf60209383610904565b8101031261015457935193610a9a610a8b565b3d9150610ab2565b9093506020813d602011610b06575b81610af660209383610904565b810103126101545751925f610a30565b3d9150610ae9565b92919267ffffffffffffffff82116109265760405191610b38601f8201601f191660200184610904565b829481845281830111610154578281602093845f960137010152565b610a9f91610b6181610b7e565b335f526004602052610b7760405f205482611003565b9133610cad565b7fed8d60e34876f751cc8b014c560745351147d9de11b9347c854e881b128ea60054604051632fd514cd60e11b81526004810192909252336024830152602090829060449082906001600160a01b03165afa9081156106ea575f91610bf5575b5015610be657565b632fa38b3f60e01b5f5260045ffd5b90506020813d602011610c28575b81610c1060209383610904565b8101031261015457518015158103610154575f610bde565b3d9150610c03565b6001600160a01b0381169392908415610c9a576001600160a01b038316948515610c875790610c8594956105f7925f52600560205260405f20905f526020528260405f2055610c7f308461113a565b8261113a565b565b85634a1406b160e11b5f5260045260245ffd5b8463e602df0560e01b5f5260045260245ffd5b91926001600160a01b0383169290918315610eca576001600160a01b038116948515610eb7576020906064610ce06111b5565b5f8051602061120c8339815191525460405163cb3b940760e01b8152600481019890985260248801939093526044870152859182905f906001600160a01b03165af19283156106ea575f93610e83575b50845f5260046020525f60206040822054858115610e73575b8615610e65575b5f8051602061120c8339815191525460405163f953e42760e01b8152600480820194909452848101909301919091526001600160f81b0319841660448301529092839160649183916001600160a01b03165af19081156106ea575f91610e2f575b5092610dd8610dea9285610e029650885f5260046020528060405f20556105f7308261113a565b845f52600460205260405f20546110b6565b835f5260046020528060405f20556105f7308261113a565b7fddf252ad1be2c89b69c2b068fc378daa952ba7f163c4a11628f55a4df523b3ef60206040515f198152a3565b9390506020843d602011610e5d575b81610e4b60209383610904565b81010312610154579251610dd8610db1565b3d9150610e3e565b50610e6e6111b5565b610d50565b9050610e7d6111b5565b90610d49565b9092506020813d602011610eaf575b81610e9f60209383610904565b810103126101545751915f610d30565b3d9150610e92565b8563ec442f0560e01b5f5260045260245ffd5b83634b637e8f60e11b5f5260045260245ffd5b5f546001600160a01b0316330361045e57565b610f3f9160209160018060a01b035f8051602061120c8339815191525416905f6040518096819582946302e817ff60e41b8452600484015233602484015260806044840152608483019061083f565b600560f81b606483015203925af19081156106ea575f91610fd1575b507fed8d60e34876f751cc8b014c560745351147d9de11b9347c854e881b128ea600546001600160a01b0316803b15610154576040516346ce4e4960e11b815260048101839052336024820152905f908290604490829084905af180156106ea57610fc4575090565b5f610fce91610904565b90565b90506020813d602011610ffb575b81610fec60209383610904565b8101031261015457515f610f5b565b3d9150610fdf565b9081156110a6575b8015611094575b602090606460018060a01b035f8051602061120c8339815191525416935f60405195869485936334a6d7b960e11b8552600485015260248401528160448401525af19081156106ea575f91611065575090565b90506020813d60201161108c575b8161108060209383610904565b81010312610154575190565b3d9150611073565b50602061109f6111b5565b9050611012565b90506110b06111b5565b9061100b565b90811561112a575b8015611118575b602090606460018060a01b035f8051602061120c8339815191525416935f6040519586948593638c14cc2160e01b8552600485015260248401528160448401525af19081156106ea575f91611065575090565b5060206111236111b5565b90506110c5565b90506111346111b5565b906110be565b7fed8d60e34876f751cc8b014c560745351147d9de11b9347c854e881b128ea600546001600160a01b031691823b1561015457604051631974142760e21b815260048101929092526001600160a01b03166024820152905f908290604490829084905af180156106ea576111ab5750565b5f610c8591610904565b5f8051602061120c83398151915254604051631ce2e8d760e31b81525f60048201819052600560f81b60248301529091602091839160449183916001600160a01b03165af19081156106ea575f9161106557509056feed8d60e34876f751cc8b014c560745351147d9de11b9347c854e881b128ea601a2646970667358221220b1cd4206336263afd52bdc184874049486799e0abea83423e91d65bf9870bc8a64736f6c634300081a0033ed8d60e34876f751cc8b014c560745351147d9de11b9347c854e881b128ea603ed8d60e34876f751cc8b014c560745351147d9de11b9347c854e881b128ea601ed8d60e34876f751cc8b014c560745351147d9de11b9347c854e881b128ea602","linkReferences":{}},"methodIdentifiers":{"acceptOwnership()":"79ba5097","allowance(address,address)":"dd62ed3e","approve(address,bytes32,bytes)":"b32c1001","approve(address,uint256)":"095ea7b3","balanceOf(address)":"70a08231","decimals()":"313ce567","mint(address,uint64)":"2893c5b0","name()":"06fdde03","owner()":"8da5cb5b","pendingOwner()":"e30c3978","renounceOwnership()":"715018a6","symbol()":"95d89b41","totalSupply()":"18160ddd","transfer(address,bytes32,bytes)":"7b7e0a5a","transfer(address,uint256)":"a9059cbb","transferFrom(address,address,bytes32,bytes)":"9a094352","transferFrom(address,address,uint256)":"23b872dd","transferOwnership(address)":"f2fde38b"},"id":3}