{"abi":[{"type":"constructor","inputs":[{"name":"erc20_","type":"address","internalType":"address"},{"name":"maxDecryptionDelay_","type":"uint256","internalType":"uint256"}],"stateMutability":"nonpayable"},{"type":"function","name":"ERC20_TOKEN","inputs":[],"outputs":[{"name":"","type":"address","internalType":"contract IERC20Metadata"}],"stateMutability":"view"},{"type":"function","name":"allowance","inputs":[{"name":"owner","type":"address","internalType":"address"},{"name":"spender","type":"address","internalType":"address"}],"outputs":[{"name":"","type":"uint256","internalType":"euint64"}],"stateMutability":"view"},{"type":"function","name":"approve","inputs":[{"name":"spender","type":"address","internalType":"address"},{"name":"amount","type":"uint256","internalType":"euint64"}],"outputs":[{"name":"","type":"bool","internalType":"bool"}],"stateMutability":"nonpayable"},{"type":"function","name":"approve","inputs":[{"name":"spender","type":"address","internalType":"address"},{"name":"encryptedAmount","type":"bytes32","internalType":"einput"},{"name":"inputProof","type":"bytes","internalType":"bytes"}],"outputs":[{"name":"","type":"bool","internalType":"bool"}],"stateMutability":"nonpayable"},{"type":"function","name":"balanceOf","inputs":[{"name":"account","type":"address","internalType":"address"}],"outputs":[{"name":"","type":"uint256","internalType":"euint64"}],"stateMutability":"view"},{"type":"function","name":"callbackUnwrap","inputs":[{"name":"requestId","type":"uint256","internalType":"uint256"},{"name":"canUnwrap","type":"bool","internalType":"bool"}],"outputs":[],"stateMutability":"nonpayable"},{"type":"function","name":"decimals","inputs":[],"outputs":[{"name":"","type":"uint8","internalType":"uint8"}],"stateMutability":"view"},{"type":"function","name":"errorGetCounter","inputs":[],"outputs":[{"name":"","type":"uint256","internalType":"uint256"}],"stateMutability":"view"},{"type":"function","name":"getErrorCodeForTransferId","inputs":[{"name":"transferId","type":"uint256","internalType":"uint256"}],"outputs":[{"name":"","type":"uint256","internalType":"euint8"}],"stateMutability":"nonpayable"},{"type":"function","name":"isAccountRestricted","inputs":[{"name":"account","type":"address","internalType":"address"}],"outputs":[{"name":"isRestricted","type":"bool","internalType":"bool"}],"stateMutability":"view"},{"type":"function","name":"name","inputs":[],"outputs":[{"name":"","type":"string","internalType":"string"}],"stateMutability":"view"},{"type":"function","name":"symbol","inputs":[],"outputs":[{"name":"","type":"string","internalType":"string"}],"stateMutability":"view"},{"type":"function","name":"totalSupply","inputs":[],"outputs":[{"name":"","type":"uint64","internalType":"uint64"}],"stateMutability":"view"},{"type":"function","name":"transfer","inputs":[{"name":"to","type":"address","internalType":"address"},{"name":"encryptedAmount","type":"bytes32","internalType":"einput"},{"name":"inputProof","type":"bytes","internalType":"bytes"}],"outputs":[{"name":"","type":"bool","internalType":"bool"}],"stateMutability":"nonpayable"},{"type":"function","name":"transfer","inputs":[{"name":"to","type":"address","internalType":"address"},{"name":"amount","type":"uint256","internalType":"euint64"}],"outputs":[{"name":"","type":"bool","internalType":"bool"}],"stateMutability":"nonpayable"},{"type":"function","name":"transferFrom","inputs":[{"name":"from","type":"address","internalType":"address"},{"name":"to","type":"address","internalType":"address"},{"name":"amount","type":"uint256","internalType":"euint64"}],"outputs":[{"name":"","type":"bool","internalType":"bool"}],"stateMutability":"nonpayable"},{"type":"function","name":"transferFrom","inputs":[{"name":"from","type":"address","internalType":"address"},{"name":"to","type":"address","internalType":"address"},{"name":"encryptedAmount","type":"bytes32","internalType":"einput"},{"name":"inputProof","type":"bytes","internalType":"bytes"}],"outputs":[{"name":"","type":"bool","internalType":"bool"}],"stateMutability":"nonpayable"},{"type":"function","name":"unwrap","inputs":[{"name":"amount","type":"uint64","internalType":"uint64"}],"outputs":[],"stateMutability":"nonpayable"},{"type":"function","name":"unwrapRequests","inputs":[{"name":"requestId","type":"uint256","internalType":"uint256"}],"outputs":[{"name":"account","type":"address","internalType":"address"},{"name":"amount","type":"uint64","internalType":"uint64"}],"stateMutability":"view"},{"type":"function","name":"wrap","inputs":[{"name":"amount","type":"uint256","internalType":"uint256"}],"outputs":[],"stateMutability":"nonpayable"},{"type":"event","name":"Approval","inputs":[{"name":"owner","type":"address","indexed":true,"internalType":"address"},{"name":"spender","type":"address","indexed":true,"internalType":"address"},{"name":"placeholder","type":"uint256","indexed":false,"internalType":"uint256"}],"anonymous":false},{"type":"event","name":"Transfer","inputs":[{"name":"from","type":"address","indexed":true,"internalType":"address"},{"name":"to","type":"address","indexed":true,"internalType":"address"},{"name":"transferId","type":"uint256","indexed":false,"internalType":"uint256"}],"anonymous":false},{"type":"event","name":"Unwrap","inputs":[{"name":"account","type":"address","indexed":true,"internalType":"address"},{"name":"amount","type":"uint64","indexed":false,"internalType":"uint64"}],"anonymous":false},{"type":"event","name":"UnwrapFailNotEnoughBalance","inputs":[{"name":"account","type":"address","indexed":false,"internalType":"address"},{"name":"amount","type":"uint64","indexed":false,"internalType":"uint64"}],"anonymous":false},{"type":"event","name":"UnwrapFailTransferFail","inputs":[{"name":"account","type":"address","indexed":false,"internalType":"address"},{"name":"amount","type":"uint64","indexed":false,"internalType":"uint64"}],"anonymous":false},{"type":"event","name":"Wrap","inputs":[{"name":"account","type":"address","indexed":true,"internalType":"address"},{"name":"amount","type":"uint64","indexed":false,"internalType":"uint64"}],"anonymous":false},{"type":"error","name":"AmountTooHigh","inputs":[]},{"type":"error","name":"CannotTransferOrUnwrap","inputs":[]},{"type":"error","name":"ERC20InsufficientAllowance","inputs":[{"name":"spender","type":"address","internalType":"address"},{"name":"allowance","type":"uint256","internalType":"uint256"},{"name":"needed","type":"uint256","internalType":"uint256"}]},{"type":"error","name":"ERC20InsufficientBalance","inputs":[{"name":"sender","type":"address","internalType":"address"},{"name":"balance","type":"uint256","internalType":"uint256"},{"name":"needed","type":"uint256","internalType":"uint256"}]},{"type":"error","name":"ERC20InvalidApprover","inputs":[{"name":"approver","type":"address","internalType":"address"}]},{"type":"error","name":"ERC20InvalidReceiver","inputs":[{"name":"receiver","type":"address","internalType":"address"}]},{"type":"error","name":"ERC20InvalidSender","inputs":[{"name":"sender","type":"address","internalType":"address"}]},{"type":"error","name":"ERC20InvalidSpender","inputs":[{"name":"spender","type":"address","internalType":"address"}]},{"type":"error","name":"ErrorIndexInvalid","inputs":[]},{"type":"error","name":"ErrorIndexIsNull","inputs":[]},{"type":"error","name":"MaxDecryptionDelayTooHigh","inputs":[]},{"type":"error","name":"ReentrancyGuardReentrantCall","inputs":[]},{"type":"error","name":"SafeERC20FailedOperation","inputs":[{"name":"token","type":"address","internalType":"address"}]},{"type":"error","name":"TFHESenderNotAllowed","inputs":[]},{"type":"error","name":"TotalNumberErrorCodesEqualToZero","inputs":[]}],"bytecode":{"object":"0x60c0604052346100655761001a610014610163565b90610393565b61002261006a565b613d30610f718239608051818181610b5d015281816113cf0152818161146e01528181611ad90152611b16015260a051818181612aa301526135d70152613d3090f35b610070565b60405190565b5f80fd5b601f801991011690565b634e487b7160e01b5f52604160045260245ffd5b9061009c90610074565b810190811060018060401b038211176100b457604052565b61007e565b906100cc6100c561006a565b9283610092565b565b5f80fd5b5f80fd5b60018060a01b031690565b6100ea906100d6565b90565b6100f6816100e1565b036100fd57565b5f80fd5b9050519061010e826100ed565b565b90565b61011c81610110565b0361012357565b5f80fd5b9050519061013482610113565b565b919060408382031261015e578061015261015b925f8601610101565b93602001610127565b90565b6100ce565b610181614ca180380380610176816100b9565b928339810190610136565b9091565b90565b61019c6101976101a1926100d6565b610185565b6100d6565b90565b6101ad90610188565b90565b6101b9906101a4565b90565b6101c590610188565b90565b6101d1906101bc565b90565b5f80fd5b60e01b90565b5f80fd5b5f80fd5b60018060401b038111610202576101fe602091610074565b0190565b61007e565b90825f9392825e0152565b90929192610227610222826101e6565b6100b9565b938185526020850190828401116102435761024192610207565b565b6101e2565b9080601f830112156102665781602061026393519101610212565b90565b6101de565b90602082820312610299575f82015160018060401b038111610294576102919201610248565b90565b6100d2565b6100ce565b5f0190565b6102ab61006a565b3d5f823e3d90fd5b905090565b5f7f436f6e666964656e7469616c2000000000000000000000000000000000000000910152565b6102eb600d80926102b3565b6102f4816102b8565b0190565b5190565b6103216103189260209261030f816102f8565b948580936102b3565b93849101610207565b0190565b90610332610338926102df565b906102fc565b90565b90565b5f7f6300000000000000000000000000000000000000000000000000000000000000910152565b610371600180926102b3565b61037a8161033e565b0190565b61038b90610390926102fc565b610365565b90565b906103c29180915f6103ac6103a7846101b0565b6101c8565b6306fdde03906103ba61006a565b9687926101d8565b825281806103d26004820161029e565b03915afa80156104ec5761042c61042761042161040d61041c5f956104429a87916104ca575b5061040161006a565b92839160208301610325565b60208201810382520382610092565b61033b565b946101b0565b6101c8565b6395d89b419061043a61006a565b9687926101d8565b825281806104526004820161029e565b03915afa9384156104c5576104876104966104a19661049b935f916104a3575b5061047b61006a565b9283916020830161037e565b60208201810382520382610092565b61033b565b9261052c565b565b6104bf91503d805f833e6104b78183610092565b81019061026b565b5f610472565b6102a3565b6104e691503d8089833e6104de8183610092565b81019061026b565b5f6103f8565b6102a3565b634e487b7160e01b5f52602160045260245ffd5b6003111561050f57565b6104f1565b9061051e82610505565b565b61052990610514565b90565b9061054293929161053d6002610520565b610645565b565b60ff1690565b90565b61056161055c6105669261054a565b610185565b610544565b90565b5f90565b634e487b7160e01b5f52601160045260245ffd5b61058a90610544565b60ff81146105985760010190565b61056d565b6105b16105ac6105b692610544565b610185565b610110565b90565b6105cd6105c86105d292610544565b610185565b610544565b90565b906105df906105b9565b5f5260205260405f2090565b5f1b90565b906105fc5f19916105eb565b9181191691161790565b61061a61061561061f92610110565b610185565b610110565b90565b90565b9061063a61063561064192610606565b610622565b82546105f0565b9055565b93916106519391610707565b8061066461065e5f61054d565b91610544565b146106cc57610671610569565b5b8061068561067f84610544565b91610544565b116106c657806106bc6106a261069d6106c19461059d565b610a37565b6106b7816106b2601286906105d5565b610625565b610a69565b610581565b610672565b5060a052565b5f63328d4ab160e01b8152806106e46004820161029e565b0390fd5b90565b6106ff6106fa610704926106e8565b610185565b610110565b90565b90926107169061071b93610756565b6101b0565b60805261073361072d620151806106eb565b91610110565b1161073a57565b5f63049587e360e41b8152806107526004820161029e565b0390fd5b9061076091610762565b565b9061076c9161076e565b565b906107789161077a565b565b9061078491610796565b61079461078f610a8a565b610af5565b565b906107a0916107b2565b6107b06107ab610b7f565b610c18565b565b906107bc916109ef565b565b634e487b7160e01b5f52602260045260245ffd5b90600160028304921680156107f2575b60208310146107ed57565b6107be565b91607f16916107e2565b5f5260205f2090565b601f602091010490565b1b90565b9190600861082e9102916108285f198461080f565b9261080f565b9181191691161790565b90565b919061085161084c61085993610606565b610838565b908354610813565b9055565b5f90565b6108739161086d61085d565b9161083b565b565b5b818110610881575050565b8061088e5f600193610861565b01610876565b9190601f81116108a4575b505050565b6108b06108d5936107fc565b9060206108bc84610805565b830193106108dd575b6108ce90610805565b0190610875565b5f808061089f565b91506108ce819290506108c5565b1c90565b906108ff905f19906008026108eb565b191690565b8161090e916108ef565b906002021790565b90610920816102f8565b9060018060401b0382116109de576109428261093c85546107d2565b85610894565b602090601f831160011461097657918091610965935f9261096a575b5050610904565b90555b565b90915001515f8061095e565b601f19831691610985856107fc565b925f5b8181106109c6575091600293918560019694106109ac575b50505002019055610968565b6109bc910151601f8416906108ef565b90555f80806109a0565b91936020600181928787015181550195019201610988565b61007e565b906109ed91610916565b565b906109fe610a059260016109e3565b60026109e3565b565b5f90565b90565b610a22610a1d610a2792610a0b565b610185565b610544565b90565b610a346002610a0e565b90565b610a55610a5a91610a46610a07565b50610a4f610a2a565b90610cfe565b610606565b90565b610a66906101bc565b90565b610a75610a8491610606565b610a7e30610a5d565b90610e10565b565b5f90565b610a92610a86565b507333347831500f1e73f0cccbb95c9f86b94d7b112390565b90610abc60018060a01b03916105eb565b9181191691161790565b610acf906101bc565b90565b90565b90610aea610ae5610af192610ac6565b610ad2565b8254610aab565b9055565b610b08905f610b02610eb2565b01610ad5565b565b610b1460806100b9565b90565b5f90565b610b23610b0a565b90602080808085610b32610b17565b815201610b3d610b17565b815201610b48610b17565b815201610b53610b17565b81525050565b610b61610b1b565b90565b610b6e60806100b9565b90565b90610b7b906100e1565b9052565b610b87610b59565b5073fee8407e2f5e3ee68ad77cae98c434e637f516e5610c1573687408ab54661ba0b4aef3a44156c616c6955e07610c0c73fb03be574d14c256d56f09a198b586bdfc0a9de2610c03739d6891a6240d6130c54ae243d8005063d05fe14b93610bfa610bf1610b64565b975f8901610b71565b60208701610b71565b60408501610b71565b60608301610b71565b90565b610c2190610ee3565b565b5f1c90565b60018060a01b031690565b610c3f610c4491610c23565b610c28565b90565b610c519054610c33565b90565b610c5d90610188565b90565b610c6990610c54565b90565b610c75906101bc565b90565b60ff60f81b1690565b60f81b90565b610c9b610c96610ca092610544565b610c81565b610c78565b90565b90602082820312610cbc57610cb9915f01610127565b90565b6100ce565b610cca90610110565b9052565b610cd790610c78565b9052565b916020610cfc929493610cf560408201965f830190610cc1565b0190610cce565b565b90602090610d0a61085d565b50610d2e610d29610d246001610d1e610f4c565b01610c47565b610c60565b610c6c565b610d595f610d4163e71746b89694610c87565b95610d64610d4d61006a565b978896879586946101d8565b845260048401610cdb565b03925af1908115610da8575f91610d7a575b5090565b610d9b915060203d8111610da1575b610d938183610092565b810190610ca3565b5f610d76565b503d610d89565b6102a3565b610db690610188565b90565b610dc290610dad565b90565b610dce906101bc565b90565b5f910312610ddb57565b6100ce565b610de9906100e1565b9052565b916020610e0e929493610e0760408201965f830190610cc1565b0190610de0565b565b610e32610e2d610e285f610e22610f4c565b01610c47565b610db9565b610dc5565b916365d0509c919092803b15610ead57610e5f5f8094610e6a610e5361006a565b978896879586946101d8565b845260048401610ded565b03925af18015610ea857610e7c575b50565b610e9b905f3d8111610ea1575b610e938183610092565b810190610dd1565b5f610e79565b503d610e89565b6102a3565b6101d4565b7f93ab6e17f2c461cce6ea5d4ec117e51dda77a64affc2b2c05f8cd440def0e70090565b610ee090516100e1565b90565b610f4a906003610f436060610ef6610f4c565b93610f0d610f055f8301610ed6565b5f8701610ad5565b610f25610f1c60208301610ed6565b60018701610ad5565b610f3d610f3460408301610ed6565b60028701610ad5565b01610ed6565b9101610ad5565b565b7fed8d60e34876f751cc8b014c560745351147d9de11b9347c854e881b128ea6009056fe60806040526004361015610013575b610be2565b61001d5f3561015c565b806306fdde0314610157578063095ea7b31461015257806318160ddd1461014d57806323b872dd14610148578063313ce5671461014357806367a74a281461013e57806370a08231146101395780637b7e0a5a1461013457806395d89b411461012f5780639a0943521461012a578063a5184baf14610125578063a9059cbb14610120578063b32c10011461011b578063b820e6ce14610116578063d99c2a7214610111578063dc412e831461010c578063dd62ed3e14610107578063e6e0950514610102578063ea598cb0146100fd5763efc4c6310361000e57610bad565b610b28565b610af3565b610a2a565b6109ca565b610953565b61084f565b6107c1565b61078b565b610756565b6106ba565b610625565b6105ec565b6104f4565b610460565b610409565b6103ab565b61033c565b6102d7565b6101ea565b60e01c90565b60405190565b5f80fd5b5f80fd5b5f91031261017a57565b61016c565b5190565b60209181520190565b90825f9392825e0152565b601f801991011690565b6101c06101c96020936101ce936101b78161017f565b93848093610183565b9586910161018c565b610197565b0190565b6101e79160208201915f8184039101526101a1565b90565b3461021a576101fa366004610170565b610216610205610d3f565b61020d610162565b918291826101d2565b0390f35b610168565b5f80fd5b60018060a01b031690565b61023790610223565b90565b6102438161022e565b0361024a57565b5f80fd5b9050359061025b8261023a565b565b90565b6102698161025d565b0361027057565b5f80fd5b9050359061028182610260565b565b91906040838203126102ab578061029f6102a8925f860161024e565b93602001610274565b90565b61016c565b151590565b6102be906102b0565b9052565b91906102d5905f602085019401906102b5565b565b34610308576103046102f36102ed366004610283565b90610d5e565b6102fb610162565b918291826102c2565b0390f35b610168565b67ffffffffffffffff1690565b6103239061030d565b9052565b919061033a905f6020850194019061031a565b565b3461036c5761034c366004610170565b610368610357610dff565b61035f610162565b91829182610327565b0390f35b610168565b90916060828403126103a6576103a361038c845f850161024e565b9361039a816020860161024e565b93604001610274565b90565b61016c565b346103dc576103d86103c76103c1366004610371565b91610e14565b6103cf610162565b918291826102c2565b0390f35b610168565b60ff1690565b6103f0906103e1565b9052565b9190610407905f602085019401906103e7565b565b3461043957610419366004610170565b610435610424610e50565b61042c610162565b918291826103f4565b0390f35b610168565b6104479061025d565b9052565b919061045e905f6020850194019061043e565b565b3461049057610470366004610170565b61048c61047b610e6a565b610483610162565b9182918261044b565b0390f35b610168565b906020828203126104ae576104ab915f0161024e565b90565b61016c565b90565b6104ca6104c56104cf9261025d565b6104b3565b61025d565b90565b6104db906104b6565b9052565b91906104f2905f602085019401906104d2565b565b346105245761052061050f61050a366004610495565b610ebc565b610517610162565b918291826104df565b0390f35b610168565b90565b61053581610529565b0361053c57565b5f80fd5b9050359061054d8261052c565b565b5f80fd5b5f80fd5b5f80fd5b909182601f830112156105955781359167ffffffffffffffff831161059057602001926001830284011161058b57565b610557565b610553565b61054f565b916060838303126105e7576105b1825f850161024e565b926105bf8360208301610540565b92604082013567ffffffffffffffff81116105e2576105de920161055b565b9091565b61021f565b61016c565b346106205761061c61060b61060236600461059a565b92919091610f66565b610613610162565b918291826102c2565b0390f35b610168565b3461065557610635366004610170565b610651610640610f95565b610648610162565b918291826101d2565b0390f35b610168565b906080828203126106b557610671815f840161024e565b9261067f826020850161024e565b9261068d8360408301610540565b92606082013567ffffffffffffffff81116106b0576106ac920161055b565b9091565b61021f565b61016c565b346106ee576106ea6106d96106d036600461065a565b93929092610fab565b6106e1610162565b918291826102c2565b0390f35b610168565b6106fc8161025d565b0361070357565b5f80fd5b90503590610714826106f3565b565b9060208282031261072f5761072c915f01610707565b90565b61016c565b61073d906104b6565b9052565b9190610754905f60208501940190610734565b565b346107865761078261077161076c366004610716565b610fdf565b610779610162565b91829182610741565b0390f35b610168565b346107bc576107b86107a76107a1366004610283565b90610fff565b6107af610162565b918291826102c2565b0390f35b610168565b346107f5576107f16107e06107d736600461059a565b92919091611015565b6107e8610162565b918291826102c2565b0390f35b610168565b610803816102b0565b0361080a57565b5f80fd5b9050359061081b826107fa565b565b91906040838203126108455780610839610842925f8601610707565b9360200161080e565b90565b61016c565b5f0190565b3461087e5761086861086236600461081d565b906116cc565b610870610162565b8061087a8161084a565b0390f35b610168565b9061088d906104b6565b5f5260205260405f2090565b5f1c90565b60018060a01b031690565b6108b56108ba91610899565b61089e565b90565b6108c790546108a9565b90565b60a01c90565b67ffffffffffffffff1690565b6108e96108ee916108ca565b6108d0565b90565b6108fb90546108dd565b90565b610909906010610883565b906109205f6109198185016108bd565b93016108f1565b90565b61092c9061022e565b9052565b91602061095192949361094a60408201965f830190610923565b019061031a565b565b346109845761096b610966366004610716565b6108fe565b90610980610977610162565b92839283610930565b0390f35b610168565b6109928161030d565b0361099957565b5f80fd5b905035906109aa82610989565b565b906020828203126109c5576109c2915f0161099d565b90565b61016c565b346109f8576109e26109dd3660046109ac565b611942565b6109ea610162565b806109f48161084a565b0390f35b610168565b9190604083820312610a255780610a19610a22925f860161024e565b9360200161024e565b90565b61016c565b34610a5b57610a57610a46610a403660046109fd565b90611a23565b610a4e610162565b918291826104df565b0390f35b610168565b610a74610a6f610a7992610223565b6104b3565b610223565b90565b610a8590610a60565b90565b610a9190610a7c565b90565b90610a9e90610a88565b5f5260205260405f2090565b1c90565b60ff1690565b610ac4906008610ac99302610aaa565b610aae565b90565b90610ad79154610ab4565b90565b610af090610aeb600f915f92610a94565b610acc565b90565b34610b2357610b1f610b0e610b09366004610495565b610ada565b610b16610162565b918291826102c2565b0390f35b610168565b34610b5657610b40610b3b366004610716565b611acd565b610b48610162565b80610b528161084a565b0390f35b610168565b7f000000000000000000000000000000000000000000000000000000000000000090565b610b8890610a7c565b90565b610b9490610b7f565b9052565b9190610bab905f60208501940190610b8b565b565b34610bdd57610bbd366004610170565b610bd9610bc8610b5b565b610bd0610162565b91829182610b98565b0390f35b610168565b5f80fd5b606090565b634e487b7160e01b5f52602260045260245ffd5b9060016002830492168015610c1f575b6020831014610c1a57565b610beb565b91607f1691610c0f565b60209181520190565b5f5260205f2090565b905f9291805490610c55610c4e83610bff565b8094610c29565b916001811690815f14610cac5750600114610c70575b505050565b610c7d9192939450610c32565b915f925b818410610c9457505001905f8080610c6b565b60018160209295939554848601520191019290610c81565b92949550505060ff19168252151560200201905f8080610c6b565b90610cd191610c3b565b90565b634e487b7160e01b5f52604160045260245ffd5b90610cf290610197565b810190811067ffffffffffffffff821117610d0c57604052565b610cd4565b90610d31610d2a92610d21610162565b93848092610cc7565b0383610ce8565b565b610d3c90610d11565b90565b610d47610be6565b50610d526001610d33565b90565b5f90565b5f1990565b90610d67610d55565b50610d7181611c79565b610d8033918290849091611d39565b90610d89610d59565b91610dd2610dc0610dba7f8c5be1e5ebec7d5bd14f71427d1e84f3dd0314c0f7b2291e5b200ac8c7c3b92593610a88565b93610a88565b93610dc9610162565b9182918261044b565b0390a3600190565b5f90565b610dea610def91610899565b6108d0565b90565b610dfc9054610dde565b90565b610e07610dda565b50610e115f610df2565b90565b91610e2a92610e21610d55565b50919091611df8565b90565b5f90565b90565b610e48610e43610e4d92610e31565b6104b3565b6103e1565b90565b610e58610e2d565b50610e636006610e34565b90565b5f90565b610e72610e66565b50610e7b611e4e565b90565b5f90565b90610e8c90610a88565b5f5260205260405f2090565b90565b610ea7610eac91610899565b610e98565b90565b610eb99054610e9b565b90565b610ed3610ed891610ecb610e7e565b506003610e82565b610eaf565b90565b5f80fd5b90610ef2610eeb610162565b9283610ce8565b565b67ffffffffffffffff8111610f1257610f0e602091610197565b0190565b610cd4565b90825f939282370152565b90929192610f37610f3282610ef4565b610edf565b93818552602085019082840111610f5357610f5192610f17565b565b610edb565b610f63913691610f22565b90565b91610f83610f8f94610f899394610f7b610d55565b509492610f58565b90611e9c565b90610fff565b50600190565b610f9d610be6565b50610fa86002610d33565b90565b92610fc9610fd595610fcf9395610fc0610d55565b50959492610f58565b90611e9c565b91610e14565b50600190565b5f90565b610ff190610feb610fdb565b50611f06565b610ffc813390611f63565b90565b906110129161100c610d55565b50611fb2565b90565b9161103261103e94611038939461102a610d55565b509492610f58565b90611e9c565b90610d5e565b50600190565b9061105691611051612060565b61106b565b61105e6120a5565b565b1561106757565b5f80fd5b90611098916110933361108d6110876110826120c5565b61022e565b9161022e565b14611060565b61139c565b565b906110a49061022e565b9052565b906110b29061030d565b9052565b6110c06040610edf565b90565b906110f96110f05f6110d36110b6565b946110ea6110e28383016108bd565b83880161109a565b016108f1565b602084016110a8565b565b611104906110c3565b90565b611111905161022e565b90565b61111e905161030d565b90565b5f80fd5b60e01b90565b611134816103e1565b0361113b57565b5f80fd5b9050519061114c8261112b565b565b9060208282031261116757611164915f0161113f565b90565b61016c565b611174610162565b3d5f823e3d90fd5b634e487b7160e01b5f52601160045260245ffd5b61119c6111a2916103e1565b916103e1565b90039060ff82116111af57565b61117c565b6111bd906103e1565b604d81116111cb57600a0a90565b61117c565b6111e46111df6111e99261030d565b6104b3565b61025d565b90565b6111fb6112019193929361025d565b9261025d565b9161120d83820261025d565b92818404149015171561121c57565b61117c565b9050519061122e826107fa565b565b9060208282031261124957611246915f01611221565b90565b61016c565b91602061126f92949361126860408201965f830190610923565b019061043e565b565b61127d6112839161030d565b9161030d565b90039067ffffffffffffffff821161129757565b61117c565b5f1b90565b906112b467ffffffffffffffff9161129c565b9181191691161790565b6112d26112cd6112d79261030d565b6104b3565b61030d565b90565b90565b906112f26112ed6112f9926112be565b6112da565b82546112a1565b9055565b5f80910155565b634e487b7160e01b5f525f60045260245ffd5b905f0361132957611327906112fd565b565b611304565b1b90565b9190600861134d91029161134760ff8461132e565b9261132e565b9181191691161790565b611360906102b0565b90565b90565b919061137c61137761138493611357565b611363565b908354611332565b9055565b61139a91611394610d55565b91611366565b565b6113b06113ab60108390610883565b6110fb565b915f1461166757611409906113c760208401611114565b9260206113f37f0000000000000000000000000000000000000000000000000000000000000000610b7f565b63313ce56790611401610162565b958692611125565b825281806114196004820161084a565b03915afa8015611662575f6114ef6115079461146761150c9861146261145c6114576114f498889c8991611634575b50611451610e50565b90611190565b6111b4565b916111d0565b6111ec565b60206114927f0000000000000000000000000000000000000000000000000000000000000000610b7f565b9163a9059cbb926114c1876114a8818c01611107565b93956114cc6114b5610162565b97889687958694611125565b84526004840161124e565b03925af19081611608575b5015831461156357600161150e575b5b5b6010610883565b611317565b61150183600f9201611107565b90610a94565b611388565b565b611519838601611107565b61152560208701611114565b7f936799e3a22b0bdb5ef05df98e796a4835cff5297075fdb001414e53f5e302a79161155b611552610162565b92839283610930565b0390a16114e6565b611583611571848701611107565b61157d60208801611114565b906120e3565b6115a96115a361159560208801611114565b61159e86610df2565b611271565b846112dd565b6115b4838601611107565b6115c060208701611114565b906116006115ee7f0bbd89dc609b4c985f78b075c0f9271cf66dd34e7e08bb2437a103a6ba9a8db792610a88565b926115f7610162565b91829182610327565b0390a26114e7565b6116289060203d811161162d575b6116208183610ce8565b810190611230565b6114d7565b503d611616565b611655915060203d811161165b575b61164d8183610ce8565b81019061114e565b5f611448565b503d611643565b61116c565b611507826114f45f6114ef81956116828361150c9901611107565b61168e60208701611114565b7f48a802dbfec664d2280b2ebd5e5ed95ebbc1c96453297d67cbf0c721884fac9e916116c46116bb610162565b92839283610930565b0390a16114e8565b906116d691611044565b565b906116e460ff9161129c565b9181191691161790565b906117036116fe61170a92611357565b611363565b82546116d8565b9055565b90565b61172561172061172a9261170e565b6104b3565b61025d565b90565b67ffffffffffffffff81116117455760208091020190565b610cd4565b9061175c6117578361172d565b610edf565b918252565b369037565b9061178b6117738361174a565b92602080611781869361172d565b9201910390611761565b565b634e487b7160e01b5f52603260045260245ffd5b5190565b906117af826117a1565b8110156117c0576020809102010190565b61178d565b90565b6117dc6117d76117e1926117c5565b6104b3565b61025d565b90565b906117ee9061025d565b9052565b6117fb90610a7c565b90565b63ffffffff1690565b63ffffffff60e01b1690565b61182761182261182c926117fe565b611125565b611807565b90565b90565b61184661184161184b9261182f565b6104b3565b61025d565b90565b61185d6118639193929361025d565b9261025d565b820180921161186e57565b61117c565b61187d6040610edf565b90565b9061189160018060a01b039161129c565b9181191691161790565b90565b906118b36118ae6118ba92610a88565b61189b565b8254611880565b9055565b60a01b90565b906118da67ffffffffffffffff60a01b916118be565b9181191691161790565b906118f96118f4611900926112be565b6112da565b82546118c4565b9055565b9061192e60205f61193494611926828201611920848801611107565b9061189e565b019201611114565b906118e4565b565b9061194091611904565b565b611a219061194f336121a9565b6119656001611960600f3390610a94565b6116ee565b611a1c6119f36119898361198361197e60033390610e82565b610eaf565b906121e2565b6119bf6119a76119a161199c6001611711565b611766565b9261224c565b6119ba836119b45f6117c8565b906117a5565b6117e4565b6119cc63b820e6ce611813565b5f916119e2426119dc6064611832565b9061184e565b916119ed5f946117c8565b916123de565b611a153393611a0c611a03611873565b955f870161109a565b602085016110a8565b6010610883565b611936565b565b90611a3691611a30610e7e565b5061252d565b90565b611a4290610a60565b90565b611a4e90611a39565b90565b634e487b7160e01b5f52601260045260245ffd5b611a71611a779161025d565b9161025d565b908115611a82570490565b611a51565b611a9b611a96611aa09261025d565b6104b3565b61030d565b90565b611aaf611ab59161030d565b9161030d565b019067ffffffffffffffff8211611ac857565b61117c565b611b5090611b0f611afd7f0000000000000000000000000000000000000000000000000000000000000000611a45565b33611b07306117f2565b908492612593565b6020611b3a7f0000000000000000000000000000000000000000000000000000000000000000610b7f565b63313ce56790611b48610162565b948592611125565b82528180611b606004820161084a565b03915afa8015611c7457611b8b611b9091611b96945f91611c46575b50611b85610e50565b90611190565b6111b4565b90611a65565b80611bb1611bab67ffffffffffffffff6111d0565b9161025d565b11611c2a57611bbf90611a87565b611bca3382906125e3565b611be5611bdf82611bda5f610df2565b611aa3565b5f6112dd565b33611c25611c137f20925aeb4fb032b41fb6819a065d482a8e6c281370fc218281522cc25182536b92610a88565b92611c1c610162565b91829182610327565b0390a2565b5f63fd7850ad60e01b815280611c426004820161084a565b0390fd5b611c67915060203d8111611c6d575b611c5f8183610ce8565b81019061114e565b5f611b7c565b503d611c55565b61116c565b611c85611c8b9161264e565b156102b0565b611c9157565b5f632fa38b3f60e01b815280611ca96004820161084a565b0390fd5b611cc1611cbc611cc6926117c5565b6104b3565b610223565b90565b611cd290611cad565b90565b9190611ce8905f60208501940190610923565b565b90611cf490610a88565b5f5260205260405f2090565b90611d0c5f199161129c565b9181191691161790565b90565b90611d2e611d29611d35926104b6565b611d16565b8254611d00565b9055565b91909180611d57611d51611d4c5f611cc9565b61022e565b9161022e565b14611dd95782611d77611d71611d6c5f611cc9565b61022e565b9161022e565b14611dba5790611db3611db89392611da483611d9f611d9860048590611cea565b8790610e82565b611d19565b611dad83612679565b82612696565b612696565b565b611dd5835f918291634a1406b160e11b835260048301611cd5565b0390fd5b611df4905f91829163e602df0560e01b835260048301611cd5565b0390fd5b611e2592611e04610d55565b50611e0e81611c79565b611e1b33839083916126aa565b91929091926126c3565b600190565b90565b611e39611e3e91610899565b611e2a565b90565b611e4b9054611e2d565b90565b611e56610e66565b50611e616011611e41565b90565b611e6d90610529565b90565b90565b611e87611e82611e8c92611e70565b6104b3565b6103e1565b90565b611e996005611e73565b90565b611ec991611eb5611ec492611eaf610e7e565b50611e64565b90611ebe611e8f565b916127eb565b6104b6565b90565b90611ed6906104b6565b5f5260205260405f2090565b90565b611ef1611ef691610899565b611ee2565b90565b611f039054611ee5565b90565b611f0e610fdb565b5080611f2b611f25611f206011611e41565b61025d565b9161025d565b1015611f4757611f3f611f44916013611ecc565b611ef9565b90565b5f63d65c1f3360e01b815280611f5f6004820161084a565b0390fd5b90611f70611f75926104b6565b61293a565b565b634e487b7160e01b5f52602160045260245ffd5b60031115611f9557565b611f77565b90611fa482611f8b565b565b611faf90611f9a565b90565b61201091611fbe610d55565b50611fc881611c79565b611fd260016129dc565b90612006611fea83611fe46001611fa6565b90612a78565b611ff381612ba1565b50611fff813390612bf1565b8490612bf1565b33929091926126c3565b600190565b90565b61202c61202761203192612015565b61129c565b610529565b90565b61205d7f9b779b17422d0df92223018b32b4d1fa46e071723d6817e2486d003becc55f00612018565b90565b612068612c05565b6120895761208761207f61207a612034565b612c2d565b600190612c42565b565b5f633ee5aeb560e01b8152806120a16004820161084a565b0390fd5b6120bf6120b86120b3612034565b612c2d565b5f90612c42565b565b5f90565b6120cd6120c1565b506120e05f6120da612c45565b016108bd565b90565b90612104612129916120ff6120fa60038690610e82565b610eaf565b612c69565b6121198161211460038690610e82565b611d19565b61212281612679565b8290612696565b6121325f611cc9565b61213a610d59565b9161218361217161216b7fddf252ad1be2c89b69c2b068fc378daa952ba7f163c4a11628f55a4df523b3ef93610a88565b93610a88565b9361217a610162565b9182918261044b565b0390a3565b61219461219991610899565b610aae565b90565b6121a69054612188565b90565b6121b76121bc91600f610a94565b61219c565b6121c257565b5f63adf54df960e01b8152806121da6004820161084a565b0390fd5b5f90565b61222490612229926121f26121de565b506122056121ff82612cd3565b156102b0565b61222c575b61221661221c916104b6565b916111d0565b600191612d90565b6104b6565b90565b5061221c61221661224461223f5f6117c8565b612cfc565b91505061220a565b61225e90612258610e66565b506104b6565b90565b61226a90610a60565b90565b61227690612261565b90565b61228290610a7c565b90565b5f91031261228f57565b61016c565b60209181520190565b60200190565b6122ac9061025d565b9052565b906122bd816020936122a3565b0190565b60200190565b906122e46122de6122d7846117a1565b8093612294565b9261229d565b905f5b8181106122f45750505090565b90919261230d61230760019286516122b0565b946122c1565b91019190916122e7565b61232c9160208201915f8184039101526122c7565b90565b61233890610a60565b90565b6123449061232f565b90565b61235090610a7c565b90565b90505190612360826106f3565b565b9060208282031261237b57612378915f01612353565b90565b61016c565b61238990611807565b9052565b906123dc946123cb6080949897956123c16123b66123d59560a08801908882035f8a01526122c7565b9a6020870190612380565b604085019061043e565b606083019061043e565b01906102b5565b565b92939091936123eb610e66565b5061240e6124096124045f6123fe612e63565b016108bd565b61226d565b612279565b63557e100485823b1561252857612444926124395f809461242d610162565b96879586948593611125565b835260048301612317565b03925af1948515612523576124ae6124a3935f936020986124f7575b5061248361247e61247986612473612c45565b016108bd565b61233b565b612347565b95634c0d9277939799919091612497610162565b9a8b998a988997611125565b87526004870161238d565b03925af19081156124f2575f916124c4575b5090565b6124e5915060203d81116124eb575b6124dd8183610ce8565b810190612362565b5f6124c0565b503d6124d3565b61116c565b61251690853d811161251c575b61250e8183610ce8565b810190612285565b5f612460565b503d612504565b61116c565b611121565b6125529161254861254d92612540610e7e565b506004611cea565b610e82565b610eaf565b90565b61255e90610a7c565b90565b60409061258a612591949695939661258060608401985f850190610923565b6020830190610923565b019061043e565b565b6004926125cd6125e195936125dc93946125b46323b872dd92949192611813565b936125bd610162565b9788956020870190815201612561565b60208201810382520383610ce8565b612e87565b565b906125ee9082612f3b565b6125f75f611cc9565b90612600610d59565b916126496126376126317fddf252ad1be2c89b69c2b068fc378daa952ba7f163c4a11628f55a4df523b3ef93610a88565b93610a88565b93612640610162565b9182918261044b565b0390a3565b61266361266a9161265d610d55565b506104b6565b3390612f80565b90565b61267690610a7c565b90565b612685612694916104b6565b61268e3061266d565b90613025565b565b906126a36126a8926104b6565b613025565b565b916126c0926126b76121de565b509190916130c7565b90565b916126dc9391926126d3816121a9565b929091926131b5565b565b6126e790610a60565b90565b6126f3906126de565b90565b6126ff90610a7c565b90565b60ff60f81b1690565b60f81b90565b61272561272061272a926103e1565b61270b565b612702565b90565b61273690610529565b9052565b5190565b60209181520190565b61276661276f6020936127749361275d8161273a565b9384809361273e565b9586910161018c565b610197565b0190565b61278190612702565b9052565b9493916060916127c6946127b16127be936127a760808b01945f8c019061272d565b60208a0190610923565b8782036040890152612747565b940190612778565b565b9160206127e99294936127e260408201965f83019061043e565b0190610923565b565b92916020906127f8610e66565b50612801612e63565b9461284d5f61282261281d61281860018b016108bd565b6126ea565b6126f6565b92612858632e817ff09195612838339991612711565b90612841610162565b998a9889978896611125565b865260048601612785565b03925af19081156129355761287e5f61288893612883938291612907575b5095016108bd565b61226d565b612279565b638d9c9c92833392803b15612902576128b45f80946128bf6128a8610162565b97889687958694611125565b8452600484016127c8565b03925af180156128fd576128d1575b50565b6128f0905f3d81116128f6575b6128e88183610ce8565b810190612285565b5f6128ce565b503d6128de565b61116c565b611121565b612928915060203d811161292e575b6129208183610ce8565b810190612362565b5f612876565b503d612916565b61116c565b61295c6129576129525f61294c612e63565b016108bd565b61226d565b612279565b91638d9c9c92919092803b156129d7576129895f809461299461297d610162565b97889687958694611125565b8452600484016127c8565b03925af180156129d2576129a6575b50565b6129c5905f3d81116129cb575b6129bd8183610ce8565b810190612285565b5f6129a3565b503d6129b3565b61116c565b611121565b6129e46121de565b505f14612a00576129fd6129f86001611711565b61323c565b90565b612a11612a0c5f6117c8565b61323c565b90565b612a28612a23612a2d926117c5565b6104b3565b6103e1565b90565b90612a3a90612a14565b5f5260205260405f2090565b612a5a612a55612a5f926103e1565b6104b3565b6103e1565b90565b90612a6c90612a46565b5f5260205260405f2090565b90612a81610fdb565b5080612a95612a8f5f612a14565b916103e1565b14612b235780612acd612ac77f00000000000000000000000000000000000000000000000000000000000000006103e1565b916103e1565b11612b0757612b049190612afe612af9612af1612aec60125f90612a30565b611ef9565b926012612a62565b611ef9565b91613262565b90565b5f63d65c1f3360e01b815280612b1f6004820161084a565b0390fd5b5f63436badaf60e11b815280612b3b6004820161084a565b0390fd5b612b489061025d565b5f198114612b565760010190565b61117c565b90565b90612b73612b6e612b7a926104b6565b612b5b565b8254611d00565b9055565b90565b90612b96612b91612b9d926104b6565b612b7e565b8254611d00565b9055565b90612baa610e66565b50612bef612bb86011611e41565b92612bd5612bce612bc96011611e41565b612b3f565b6011612b5e565b612bea81612be560138790611ecc565b612b81565b61329c565b565b90612bfe612c03926104b6565b613025565b565b612c0d610d55565b50612c26612c21612c1c612034565b612c2d565b6132b9565b90565b5f90565b612c3f90612c39612c29565b50611e64565b90565b5d565b7f93ab6e17f2c461cce6ea5d4ec117e51dda77a64affc2b2c05f8cd440def0e70090565b612cb091612cab91612c79610e7e565b50612c8c612c8682612cd3565b156102b0565b612cb3575b612c9d612ca3916104b6565b916111d0565b6001916132c6565b6104b6565b90565b50612ca3612c9d612ccb612cc65f6117c8565b612cfc565b915050612c91565b612ce590612cdf610d55565b506104b6565b612cf7612cf15f6117c8565b9161025d565b141590565b612d1a612d1f91612d0b610e7e565b50612d14611e8f565b906133bc565b6104b6565b90565b5f90565b612d3a612d35612d3f926117c5565b61270b565b612702565b90565b612d56612d51612d5b9261170e565b61270b565b612702565b90565b604090612d87612d8e9496959396612d7d60608401985f85019061043e565b602083019061043e565b0190612778565b565b9190602091612d9d610e66565b50612da6612d22565b505f14612e5457612db76001612d42565b925b612e005f612de0612ddb612dd66001612dd0612e63565b016108bd565b6126ea565b6126f6565b92612e0b63052896f1919597612df4610162565b98899788968795611125565b855260048501612d5e565b03925af1908115612e4f575f91612e21575b5090565b612e42915060203d8111612e48575b612e3a8183610ce8565b810190612362565b5f612e1d565b503d612e30565b61116c565b612e5d5f612d26565b92612db9565b7fed8d60e34876f751cc8b014c560745351147d9de11b9347c854e881b128ea60090565b905f602091612e94610e66565b50612e9d610e66565b50828151910182855af115612f30573d5f5190612ec2612ebc5f6117c8565b9161025d565b145f14612f165750612ed381612555565b3b612ee6612ee05f6117c8565b9161025d565b145b612eef5750565b612efb612f1291612555565b5f918291635274afe760e01b835260048301611cd5565b0390fd5b612f29612f236001611711565b9161025d565b1415612ee8565b6040513d5f823e3d90fd5b612f5b612f7e92612f56612f5160038590610e82565b610eaf565b61346b565b612f7081612f6b60038590610e82565b611d19565b612f7981612679565b612696565b565b90602090612f8c610d55565b50612faf612faa612fa55f612f9f612e63565b016108bd565b61226d565b612279565b612fd1635faa299a949294612fdc612fc5610162565b96879586948594611125565b8452600484016127c8565b03915afa908115613020575f91612ff2575b5090565b613013915060203d8111613019575b61300b8183610ce8565b810190611230565b5f612fee565b503d613001565b61116c565b61304761304261303d5f613037612e63565b016108bd565b61226d565b612279565b916365d0509c919092803b156130c2576130745f809461307f613068610162565b97889687958694611125565b8452600484016127c8565b03925af180156130bd57613091575b50565b6130b0905f3d81116130b6575b6130a88183610ce8565b810190612285565b5f61308e565b503d61309e565b61116c565b611121565b92919061318e916130d66121de565b506131886130e586849061252d565b916131736130f48285906134d5565b613108816131026002611fa6565b90612a78565b61316e61315261312c8c61312661312189926003610e82565b610eaf565b906134d5565b926131406131398561356e565b8690613593565b9061314b6001611fa6565b90916135c4565b61315b81612ba1565b50613167818d90612bf1565b8890612bf1565b613593565b969392613181889282613643565b90916136dc565b91611d39565b565b61319f6131a59193929361025d565b9261025d565b82039182116131b057565b61117c565b916131c69193839185909192613716565b906131e26131d2611e4e565b6131dc6001611711565b90613190565b9161322b6132196132137fddf252ad1be2c89b69c2b068fc378daa952ba7f163c4a11628f55a4df523b3ef93610a88565b93610a88565b93613222610162565b9182918261044b565b0390a3565b6132395f612a14565b90565b61325a61325f9161324b6121de565b50613254613230565b906133bc565b6104b6565b90565b906132999261328e6132886132826132949561327c610fdb565b506104b6565b936104b6565b916104b6565b91613758565b6104b6565b90565b6132a86132b7916104b6565b6132b13061266d565b90613025565b565b6132c1610d55565b505c90565b91906020916132d3610e66565b506132dc612d22565b505f1461338a576132ed6001612d42565b925b6133365f61331661331161330c6001613306612e63565b016108bd565b6126ea565b6126f6565b92613341638c14cc2191959761332a610162565b98899788968795611125565b855260048501612d5e565b03925af1908115613385575f91613357575b5090565b613378915060203d811161337e575b6133708183610ce8565b810190612362565b5f613353565b503d613366565b61116c565b6133935f612d26565b926132ef565b9160206133ba9294936133b360408201965f83019061043e565b0190612778565b565b906020906133c8610e66565b506133ec6133e76133e260016133dc612e63565b016108bd565b6126ea565b6126f6565b6134175f6133ff63e71746b89694612711565b9561342261340b610162565b97889687958694611125565b845260048401613399565b03925af1908115613466575f91613438575b5090565b613459915060203d811161345f575b6134518183610ce8565b810190612362565b5f613434565b503d613447565b61116c565b6134b2916134ad9161347b610e7e565b5061348e61348882612cd3565b156102b0565b6134b5575b61349f6134a5916104b6565b916111d0565b600191613800565b6104b6565b90565b506134a561349f6134cd6134c85f6117c8565b612cfc565b915050613493565b6135329161352d916134e56121de565b506134f86134f282612cd3565b156102b0565b613557575b61350f61350983612cd3565b156102b0565b613535575b613520613526916104b6565b916104b6565b5f916138d3565b6104b6565b90565b905061352661352061354e6135495f6117c8565b612cfc565b92915050613514565b506135696135645f6117c8565b612cfc565b6134fd565b61358b613586613590926135806121de565b506104b6565b6139a6565b6104b6565b90565b6135c1916135b56135af6135bc936135a96121de565b506104b6565b916104b6565b5f91613a49565b6104b6565b90565b916135cd610fdb565b50816136016135fb7f00000000000000000000000000000000000000000000000000000000000000006103e1565b916103e1565b116136275761361d61361861362494936012612a62565b611ef9565b9091613262565b90565b5f63d65c1f3360e01b81528061363f6004820161084a565b0390fd5b6136a09161369b91613653610e7e565b5061366661366082612cd3565b156102b0565b6136c5575b61367d61367783612cd3565b156102b0565b6136a3575b61368e613694916104b6565b916104b6565b5f916132c6565b6104b6565b90565b905061369461368e6136bc6136b75f6117c8565b612cfc565b92915050613682565b506136d76136d25f6117c8565b612cfc565b61366b565b90613713926137086137026136fc61370e956136f6610e7e565b506104b6565b936104b6565b916104b6565b91613758565b6104b6565b90565b916137249391909192613b1c565b565b60409061374f613756949695939661374560608401985f85019061043e565b602083019061043e565b019061043e565b565b90602091613764610e66565b506137ac5f61378c613787613782600161377c612e63565b016108bd565b6126ea565b6126f6565b926137b763cb3b94079195976137a0610162565b98899788968795611125565b855260048501613726565b03925af19081156137fb575f916137cd575b5090565b6137ee915060203d81116137f4575b6137e68183610ce8565b810190612362565b5f6137c9565b503d6137dc565b61116c565b919060209161380d610e66565b50613816612d22565b505f146138c4576138276001612d42565b925b6138705f61385061384b6138466001613840612e63565b016108bd565b6126ea565b6126f6565b9261387b63f953e427919597613864610162565b98899788968795611125565b855260048501612d5e565b03925af19081156138bf575f91613891575b5090565b6138b2915060203d81116138b8575b6138aa8183610ce8565b810190612362565b5f61388d565b503d6138a0565b61116c565b6138cd5f612d26565b92613829565b91906020916138e0610e66565b506138e9612d22565b505f14613997576138fa6001612d42565b925b6139435f61392361391e6139196001613913612e63565b016108bd565b6126ea565b6126f6565b9261394e63694daf72919597613937610162565b98899788968795611125565b855260048501612d5e565b03925af1908115613992575f91613964575b5090565b613985915060203d811161398b575b61397d8183610ce8565b810190612362565b5f613960565b503d613973565b61116c565b6139a05f612d26565b926138fc565b6020613a00916139b4610e66565b506139d86139d36139ce60016139c8612e63565b016108bd565b6126ea565b6126f6565b6139f55f6313801ffa6139e9610162565b96879586948593611125565b83526004830161044b565b03925af1908115613a44575f91613a16575b5090565b613a37915060203d8111613a3d575b613a2f8183610ce8565b810190612362565b5f613a12565b503d613a25565b61116c565b9190602091613a56610e66565b50613a5f612d22565b505f14613b0d57613a706001612d42565b925b613ab95f613a99613a94613a8f6001613a89612e63565b016108bd565b6126ea565b6126f6565b92613ac463666a3588919597613aad610162565b98899788968795611125565b855260048501612d5e565b03925af1908115613b08575f91613ada575b5090565b613afb915060203d8111613b01575b613af38183610ce8565b810190612362565b5f613ad6565b503d613ae9565b61116c565b613b165f612d26565b92613a72565b91613b35939192613b2c816121a9565b92909192613b37565b565b9190939282613b56613b50613b4b5f611cc9565b61022e565b9161022e565b14613c425784613b76613b70613b6b5f611cc9565b61022e565b9161022e565b14613c235793613be5613ba3613bfe93613c21969790613b9d613b985f6117c8565b612cfc565b916136dc565b91613bc2613bbb613bb660038490610e82565b610eaf565b8490613c61565b613bd781613bd260038590610e82565b611d19565b613be081612679565b612696565b613bf9613bf460038590610e82565b610eaf565b613643565b613c1381613c0e60038590610e82565b611d19565b613c1c81612679565b612696565b565b613c3e855f91829163ec442f0560e01b835260048301611cd5565b0390fd5b613c5d835f918291634b637e8f60e11b835260048301611cd5565b0390fd5b613cbe91613cb991613c71610e7e565b50613c84613c7e82612cd3565b156102b0565b613ce3575b613c9b613c9583612cd3565b156102b0565b613cc1575b613cac613cb2916104b6565b916104b6565b5f91613800565b6104b6565b90565b9050613cb2613cac613cda613cd55f6117c8565b612cfc565b92915050613ca0565b50613cf5613cf05f6117c8565b612cfc565b613c8956fea2646970667358221220c075bd8f100eda920aca3dd6889fd360a9a66d093a45c3d5cdb9d6c98d38919b64736f6c634300081a0033","linkReferences":{}},"methodIdentifiers":{"ERC20_TOKEN()":"efc4c631","allowance(address,address)":"dd62ed3e","approve(address,bytes32,bytes)":"b32c1001","approve(address,uint256)":"095ea7b3","balanceOf(address)":"70a08231","callbackUnwrap(uint256,bool)":"b820e6ce","decimals()":"313ce567","errorGetCounter()":"67a74a28","getErrorCodeForTransferId(uint256)":"a5184baf","isAccountRestricted(address)":"e6e09505","name()":"06fdde03","symbol()":"95d89b41","totalSupply()":"18160ddd","transfer(address,bytes32,bytes)":"7b7e0a5a","transfer(address,uint256)":"a9059cbb","transferFrom(address,address,bytes32,bytes)":"9a094352","transferFrom(address,address,uint256)":"23b872dd","unwrap(uint64)":"dc412e83","unwrapRequests(uint256)":"d99c2a72","wrap(uint256)":"ea598cb0"},"id":3}