{"abi":[{"type":"constructor","inputs":[{"name":"name_","type":"string","internalType":"string"},{"name":"symbol_","type":"string","internalType":"string"},{"name":"erc20_","type":"address","internalType":"address"},{"name":"maxDecryptionDelay_","type":"uint256","internalType":"uint256"}],"stateMutability":"nonpayable"},{"type":"function","name":"ERC20_TOKEN","inputs":[],"outputs":[{"name":"","type":"address","internalType":"contract IERC20Metadata"}],"stateMutability":"view"},{"type":"function","name":"allowance","inputs":[{"name":"owner","type":"address","internalType":"address"},{"name":"spender","type":"address","internalType":"address"}],"outputs":[{"name":"","type":"uint256","internalType":"euint64"}],"stateMutability":"view"},{"type":"function","name":"approve","inputs":[{"name":"spender","type":"address","internalType":"address"},{"name":"amount","type":"uint256","internalType":"euint64"}],"outputs":[{"name":"","type":"bool","internalType":"bool"}],"stateMutability":"nonpayable"},{"type":"function","name":"approve","inputs":[{"name":"spender","type":"address","internalType":"address"},{"name":"encryptedAmount","type":"bytes32","internalType":"einput"},{"name":"inputProof","type":"bytes","internalType":"bytes"}],"outputs":[{"name":"","type":"bool","internalType":"bool"}],"stateMutability":"nonpayable"},{"type":"function","name":"balanceOf","inputs":[{"name":"account","type":"address","internalType":"address"}],"outputs":[{"name":"","type":"uint256","internalType":"euint64"}],"stateMutability":"view"},{"type":"function","name":"callbackUnwrap","inputs":[{"name":"requestId","type":"uint256","internalType":"uint256"},{"name":"canUnwrap","type":"bool","internalType":"bool"}],"outputs":[],"stateMutability":"nonpayable"},{"type":"function","name":"decimals","inputs":[],"outputs":[{"name":"","type":"uint8","internalType":"uint8"}],"stateMutability":"view"},{"type":"function","name":"errorGetCounter","inputs":[],"outputs":[{"name":"errorsCount","type":"uint256","internalType":"uint256"}],"stateMutability":"view"},{"type":"function","name":"getErrorCodeForTransferId","inputs":[{"name":"transferId","type":"uint256","internalType":"uint256"}],"outputs":[{"name":"errorCode","type":"uint256","internalType":"euint8"}],"stateMutability":"view"},{"type":"function","name":"isAccountRestricted","inputs":[{"name":"account","type":"address","internalType":"address"}],"outputs":[{"name":"isRestricted","type":"bool","internalType":"bool"}],"stateMutability":"view"},{"type":"function","name":"name","inputs":[],"outputs":[{"name":"","type":"string","internalType":"string"}],"stateMutability":"view"},{"type":"function","name":"symbol","inputs":[],"outputs":[{"name":"","type":"string","internalType":"string"}],"stateMutability":"view"},{"type":"function","name":"totalSupply","inputs":[],"outputs":[{"name":"","type":"uint64","internalType":"uint64"}],"stateMutability":"view"},{"type":"function","name":"transfer","inputs":[{"name":"to","type":"address","internalType":"address"},{"name":"encryptedAmount","type":"bytes32","internalType":"einput"},{"name":"inputProof","type":"bytes","internalType":"bytes"}],"outputs":[{"name":"","type":"bool","internalType":"bool"}],"stateMutability":"nonpayable"},{"type":"function","name":"transfer","inputs":[{"name":"to","type":"address","internalType":"address"},{"name":"amount","type":"uint256","internalType":"euint64"}],"outputs":[{"name":"","type":"bool","internalType":"bool"}],"stateMutability":"nonpayable"},{"type":"function","name":"transferFrom","inputs":[{"name":"from","type":"address","internalType":"address"},{"name":"to","type":"address","internalType":"address"},{"name":"amount","type":"uint256","internalType":"euint64"}],"outputs":[{"name":"","type":"bool","internalType":"bool"}],"stateMutability":"nonpayable"},{"type":"function","name":"transferFrom","inputs":[{"name":"from","type":"address","internalType":"address"},{"name":"to","type":"address","internalType":"address"},{"name":"encryptedAmount","type":"bytes32","internalType":"einput"},{"name":"inputProof","type":"bytes","internalType":"bytes"}],"outputs":[{"name":"","type":"bool","internalType":"bool"}],"stateMutability":"nonpayable"},{"type":"function","name":"unwrap","inputs":[{"name":"amount","type":"uint64","internalType":"uint64"}],"outputs":[],"stateMutability":"nonpayable"},{"type":"function","name":"unwrapRequests","inputs":[{"name":"requestId","type":"uint256","internalType":"uint256"}],"outputs":[{"name":"account","type":"address","internalType":"address"},{"name":"amount","type":"uint64","internalType":"uint64"}],"stateMutability":"view"},{"type":"function","name":"wrap","inputs":[{"name":"amount","type":"uint256","internalType":"uint256"}],"outputs":[],"stateMutability":"nonpayable"},{"type":"event","name":"Approval","inputs":[{"name":"owner","type":"address","indexed":true,"internalType":"address"},{"name":"spender","type":"address","indexed":true,"internalType":"address"},{"name":"placeholder","type":"uint256","indexed":false,"internalType":"uint256"}],"anonymous":false},{"type":"event","name":"Transfer","inputs":[{"name":"from","type":"address","indexed":true,"internalType":"address"},{"name":"to","type":"address","indexed":true,"internalType":"address"},{"name":"transferId","type":"uint256","indexed":false,"internalType":"uint256"}],"anonymous":false},{"type":"event","name":"Unwrap","inputs":[{"name":"account","type":"address","indexed":true,"internalType":"address"},{"name":"amount","type":"uint64","indexed":false,"internalType":"uint64"}],"anonymous":false},{"type":"event","name":"UnwrapFailNotEnoughBalance","inputs":[{"name":"account","type":"address","indexed":false,"internalType":"address"},{"name":"amount","type":"uint64","indexed":false,"internalType":"uint64"}],"anonymous":false},{"type":"event","name":"UnwrapFailTransferFail","inputs":[{"name":"account","type":"address","indexed":false,"internalType":"address"},{"name":"amount","type":"uint64","indexed":false,"internalType":"uint64"}],"anonymous":false},{"type":"event","name":"Wrap","inputs":[{"name":"account","type":"address","indexed":true,"internalType":"address"},{"name":"amount","type":"uint64","indexed":false,"internalType":"uint64"}],"anonymous":false},{"type":"error","name":"AmountTooHigh","inputs":[]},{"type":"error","name":"CannotTransferOrUnwrap","inputs":[]},{"type":"error","name":"ERC20InsufficientAllowance","inputs":[{"name":"spender","type":"address","internalType":"address"},{"name":"allowance","type":"uint256","internalType":"uint256"},{"name":"needed","type":"uint256","internalType":"uint256"}]},{"type":"error","name":"ERC20InsufficientBalance","inputs":[{"name":"sender","type":"address","internalType":"address"},{"name":"balance","type":"uint256","internalType":"uint256"},{"name":"needed","type":"uint256","internalType":"uint256"}]},{"type":"error","name":"ERC20InvalidApprover","inputs":[{"name":"approver","type":"address","internalType":"address"}]},{"type":"error","name":"ERC20InvalidReceiver","inputs":[{"name":"receiver","type":"address","internalType":"address"}]},{"type":"error","name":"ERC20InvalidSender","inputs":[{"name":"sender","type":"address","internalType":"address"}]},{"type":"error","name":"ERC20InvalidSpender","inputs":[{"name":"spender","type":"address","internalType":"address"}]},{"type":"error","name":"ErrorIndexInvalid","inputs":[]},{"type":"error","name":"ErrorIndexIsNull","inputs":[]},{"type":"error","name":"MaxDecryptionDelayTooHigh","inputs":[]},{"type":"error","name":"ReentrancyGuardReentrantCall","inputs":[]},{"type":"error","name":"SafeERC20FailedOperation","inputs":[{"name":"token","type":"address","internalType":"address"}]},{"type":"error","name":"TFHESenderNotAllowed","inputs":[]},{"type":"error","name":"TotalNumberErrorCodesEqualToZero","inputs":[]}],"bytecode":{"object":"0x60c08060405234610278576122fd803803809161001c82856104ec565b83398101906080818303126102785780516001600160401b038111610278578261004791830161050f565b602082015190926001600160401b0382116102785761006791830161050f565b604082015190916001600160a01b03821691829003610278576060015183516001600160401b0381116103fd57600154600181811c911680156104e2575b60208210146103df57601f811161047f575b50602094601f821160011461041c579481929394955f92610411575b50508160011b915f199060031b1c1916176001555b82516001600160401b0381116103fd57600254600181811c911680156103f3575b60208210146103df57601f811161037c575b506020601f821160011461031957819293945f9261030e575b50508160011b915f199060031b1c1916176002555b5f5b60ff8116600281116102af577fed8d60e34876f751cc8b014c560745351147d9de11b9347c854e881b128ea60154604051631ce2e8d760e31b815260048101839052600160f91b6024820152929190602090849060449082905f906001600160a01b03165af192831561026d575f9361027c575b505f9081526006602052604090208290557fed8d60e34876f751cc8b014c560745351147d9de11b9347c854e881b128ea600546001600160a01b031691823b15610278575f92604484926040519586938492631974142760e21b845260048401523060248401525af191821561026d5760ff9261025d575b501660ff81146102495760010161014b565b634e487b7160e01b5f52601160045260245ffd5b5f610267916104ec565b5f610237565b6040513d5f823e3d90fd5b5f80fd5b9092506020813d82116102a7575b81610297602093836104ec565b810103126102785751915f6101bf565b3d915061028a565b620151808385600260805260a052116102ff57604051611d989081610565823960805181818161121c0152611595015260a05181818161010f015281816101820152818161090a01526114d40152f35b63049587e360e41b5f5260045ffd5b015190505f80610134565b601f1982169060025f52805f20915f5b8181106103645750958360019596971061034c575b505050811b01600255610149565b01515f1960f88460031b161c191690555f808061033e565b9192602060018192868b015181550194019201610329565b60025f527f405787fa12a823e0f2b7631cc41b3ba8828b3321ca811111fa75cd3aa3bb5ace601f830160051c810191602084106103d5575b601f0160051c01905b8181106103ca575061011b565b5f81556001016103bd565b90915081906103b4565b634e487b7160e01b5f52602260045260245ffd5b90607f1690610109565b634e487b7160e01b5f52604160045260245ffd5b015190505f806100d3565b601f1982169560015f52805f20915f5b8881106104675750836001959697981061044f575b505050811b016001556100e8565b01515f1960f88460031b161c191690555f8080610441565b9192602060018192868501518155019401920161042c565b60015f527fb10e2d527612073b26eecdfd717e6a320cf44b4afac2b0732d9fcbe2b7fa0cf6601f830160051c810191602084106104d8575b601f0160051c01905b8181106104cd57506100b7565b5f81556001016104c0565b90915081906104b7565b90607f16906100a5565b601f909101601f19168101906001600160401b038211908210176103fd57604052565b81601f82011215610278578051906001600160401b0382116103fd5760405192610543601f8401601f1916602001856104ec565b8284526020838301011161027857815f9260208093018386015e830101529056fe6080806040526004361015610012575f80fd5b5f905f3560e01c90816306fdde0314610fbc57508063095ea7b314610f9557806318160ddd14610f7057806323b872dd14610f41578063313ce56714610f1c57806367a74a2814610eff57806370a0823114610ec75780637b7e0a5a14610eaa57806395d89b4114610da25780639a09435214610d42578063a5184baf14610cff578063a9059cbb14610cce578063b32c100114610c94578063b820e6ce14610815578063d99c2a72146107c5578063dc412e83146104ca578063dd62ed3e14610477578063e6e0950514610438578063ea598cb0146101415763efc4c631146100fa575f80fd5b3461013e578060031936011261013e576040517f00000000000000000000000000000000000000000000000000000000000000006001600160a01b03168152602090f35b80fd5b503461013e57602036600319011261013e576040516323b872dd60e01b602082810191825233602484015230604484015260043560648085018290528452927f00000000000000000000000000000000000000000000000000000000000000006001600160a01b03169285916101b8608482611166565b519082855af11561042d5782513d6104245750803b155b6104125760206004916040519283809263313ce56760e01b82525afa9081156103a357610215916102109185916103e3575b5061020a6114bf565b90611639565b61164d565b9081156103cf57046001600160401b0381116103c0576001600160401b0316338252600360205281604081205480156103ae575b5f80516020611d438339815191525460405163f953e42760e01b8152600481019290925260248201849052600160f81b6044830152909160209183916064918391906001600160a01b03165af180156103a357839061036b575b6102c7915033845260036020528060408520556102c03082611c12565b3390611c12565b6040515f198152827fddf252ad1be2c89b69c2b068fc378daa952ba7f163c4a11628f55a4df523b3ef60203393a38154816001600160401b038216016001600160401b038111610357576001600160401b0316906001600160401b0319161782556040519081527f20925aeb4fb032b41fb6819a065d482a8e6c281370fc218281522cc25182536b60203392a280f35b634e487b7160e01b84526011600452602484fd5b506020813d60201161039b575b8161038560209383611166565b81010312610397576102c790516102a3565b5f80fd5b3d9150610378565b6040513d85823e3d90fd5b5060206103b9611ccc565b9050610249565b63fd7850ad60e01b8252600482fd5b634e487b7160e01b83526012600452602483fd5b610405915060203d60201161040b575b6103fd8183611166565b8101906114a6565b5f610201565b503d6103f3565b635274afe760e01b8352600452602482fd5b600114156101cf565b6040513d84823e3d90fd5b503461013e57602036600319011261013e5760209060ff906040906001600160a01b03610463611098565b168152601284522054166040519015158152f35b503461013e57604036600319011261013e576040610493611098565b9161049c6110ae565b9260018060a01b031681526004602052209060018060a01b03165f52602052602060405f2054604051908152f35b5034610397576020366003190112610397576004356001600160401b038116809103610397575f906104fb33611b1b565b338252601260205260408220600160ff198254161790553382526003602052604082205480156107b3575b5f80516020611d438339815191525460405163052896f160e01b8152600481019290925260248201839052600160f81b6044830152909260209184916064918391906001600160a01b03165af19182156107a8575f92610774575b5060408051926105918285611166565b6001845260208401601f1983013682378451156107605752606442019283421161074c575f80516020611d23833981519152546001600160a01b0316803b15610397575f8351809263155f840160e21b8252602060048301528183816105fa6024820189611b4a565b03925af180156107425761072b575b507f93ab6e17f2c461cce6ea5d4ec117e51dda77a64affc2b2c05f8cd440def0e700548251634c0d927760e01b815260a060048201529460209286926001600160a01b0316918391899183916106639060a4840190611b4a565b90635c10736760e11b6024840152836044840152606483015282608483015203925af19283156107215784936106ed575b508051926106a184611137565b33845260208085019384529085526013905283209151825491516001600160e01b03199092166001600160a01b03919091161760a09190911b67ffffffffffffffff60a01b1617905580f35b9092506020813d602011610719575b8161070960209383611166565b810103126103975751915f610694565b3d91506106fc565b81513d86823e3d90fd5b6107389195505f90611166565b5f93610663610609565b83513d5f823e3d90fd5b634e487b7160e01b5f52601160045260245ffd5b634e487b7160e01b5f52603260045260245ffd5b9091506020813d6020116107a0575b8161079060209383611166565b810103126103975751905f610581565b3d9150610783565b6040513d5f823e3d90fd5b5060206107be611ccc565b9050610526565b34610397576020366003190112610397576004355f908152601360209081526040918290205482516001600160a01b038216815260a09190911c6001600160401b031691810191909152f35b0390f35b34610397576040366003190112610397576024356004358115158203610397577f9b779b17422d0df92223018b32b4d1fa46e071723d6817e2486d003becc55f005c610c855760017f9b779b17422d0df92223018b32b4d1fa46e071723d6817e2486d003becc55f005d7f93ab6e17f2c461cce6ea5d4ec117e51dda77a64affc2b2c05f8cd440def0e700546001600160a01b0316330361039757805f52601360205260405f2091604051926108ca84611137565b546001600160a01b03811680855260a09190911c6001600160401b0316602085018181529290919015610c39575050805160405163313ce56760e01b81527f00000000000000000000000000000000000000000000000000000000000000006001600160a01b0316916001600160401b031690602081600481865afa9081156107a85761096491610210915f91610c1a575061020a6114bf565b9081810291818304149015171561074c57602090604460018060a01b038751165f604051958694859363a9059cbb60e01b8552600485015260248401525af19081610bed575b50610a475782519051604080516001600160a01b0390931683526001600160401b0390911660208301527f936799e3a22b0bdb5ef05df98e796a4835cff5297075fdb001414e53f5e302a791a15b5f5260136020525f604081205560018060a01b039051165f52601260205260405f2060ff1981541690555f7f9b779b17422d0df92223018b32b4d1fa46e071723d6817e2486d003becc55f005d005b825181516001600160a01b039091165f81815260036020526040902054916001600160401b03168215610bd9575b5f80516020611d4383398151915254604051638c14cc2160e01b815260048101949094526024840191909152600160f81b6044840152602090839060649082905f906001600160a01b03165af19182156107a8575f92610ba3575b50610af681835f94508185526003602052806040862055610af13082611c12565b611c12565b7fddf252ad1be2c89b69c2b068fc378daa952ba7f163c4a11628f55a4df523b3ef602060405184198152a36001600160401b038151165f54906001600160401b038216036001600160401b03811161074c576001600160401b0316906001600160401b031916175f557f0bbd89dc609b4c985f78b075c0f9271cf66dd34e7e08bb2437a103a6ba9a8db760206001600160401b0360018060a01b03865116935116604051908152a26109f8565b91506020823d602011610bd1575b81610bbe60209383611166565b8101031261039757905190610af6610ad0565b3d9150610bb1565b91506020610be5611ccc565b929050610a75565b610c0e9060203d602011610c13575b610c068183611166565b81019061165e565b6109aa565b503d610bfc565b610c33915060203d60201161040b576103fd8183611166565b88610201565b604080516001600160a01b039290921682526001600160401b039290921660208201527f48a802dbfec664d2280b2ebd5e5ed95ebbc1c96453297d67cbf0c721884fac9e9250a16109f8565b633ee5aeb560e01b5f5260045ffd5b3461039757610cc2610cb6610cbc610cab366110f1565b94919294369161152b565b9061193e565b90611187565b50602060405160018152f35b34610397576040366003190112610397576020610cf5610cec611098565b60243590611570565b6040519015158152f35b3461039757602036600319011261039757600435600554811015610d33575f526007602052602060405f2054604051908152f35b63d65c1f3360e01b5f5260045ffd5b3461039757608036600319011261039757610d5b611098565b610d636110ae565b90606435916001600160401b03831161039757610d9c610d94610d8d610cc29536906004016110c4565b369161152b565b60443561193e565b916111dc565b34610397575f366003190112610397576040515f6002548060011c90600181168015610ea0575b602083108114610e8c57828552908115610e685750600114610e0a575b61081183610df681850382611166565b604051918291602083526020830190611074565b91905060025f527f405787fa12a823e0f2b7631cc41b3ba8828b3321ca811111fa75cd3aa3bb5ace915f905b808210610e4e57509091508101602001610df6610de6565b919260018160209254838588010152019101909291610e36565b60ff191660208086019190915291151560051b84019091019150610df69050610de6565b634e487b7160e01b5f52602260045260245ffd5b91607f1691610dc9565b3461039757610cc2610cb6610ec1610cab366110f1565b90611570565b34610397576020366003190112610397576001600160a01b03610ee8611098565b165f526003602052602060405f2054604051908152f35b34610397575f366003190112610397576020600554604051908152f35b34610397575f366003190112610397576020610f366114bf565b60ff60405191168152f35b34610397576060366003190112610397576020610cf5610f5f611098565b610f676110ae565b604435916111dc565b34610397575f3660031901126103975760206001600160401b035f5416604051908152f35b34610397576040366003190112610397576020610cf5610fb3611098565b60243590611187565b34610397575f366003190112610397575f6001548060011c9060018116801561106a575b602083108114610e8c57828552908115610e68575060011461100c5761081183610df681850382611166565b91905060015f527fb10e2d527612073b26eecdfd717e6a320cf44b4afac2b0732d9fcbe2b7fa0cf6915f905b80821061105057509091508101602001610df6610de6565b919260018160209254838588010152019101909291611038565b91607f1691610fe0565b805180835260209291819084018484015e5f828201840152601f01601f1916010190565b600435906001600160a01b038216820361039757565b602435906001600160a01b038216820361039757565b9181601f84011215610397578235916001600160401b038311610397576020838186019501011161039757565b6060600319820112610397576004356001600160a01b0381168103610397579160243591604435906001600160401b03821161039757611133916004016110c4565b9091565b604081019081106001600160401b0382111761115257604052565b634e487b7160e01b5f52604160045260245ffd5b90601f801991011681019081106001600160401b0382111761115257604052565b9061119c9061119581611676565b82336116f9565b6040515f1981526001600160a01b039091169033907f8c5be1e5ebec7d5bd14f71427d1e84f3dd0314c0f7b2291e5b200ac8c7c3b92590602090a3600190565b916111e681611676565b6001600160a01b0383165f818152600460209081526040808320338452909152902054939092906112178584611a3b565b9360ff7f0000000000000000000000000000000000000000000000000000000000000000169485600211610d335760066020527f54cdd369e4e8a8515e52ca72ec816c2101831ad1f18bf44102ed171459c9b4f85460025f9081527f8819ef417987f8ae7a81f42cdfb18815282fe989326fbff903d13cf0e03ace29549093916112a2919084611c7a565b90835260036020526112b8604084205487611a3b565b96602060018060a01b035f80516020611d4383398151915254166024604051809781936309c00ffd60e11b83528d60048401525af19384156107a8575f94611471575b505f80516020611d4383398151915254604051630ccd46b160e31b81526004810195909552602485018490525f6044860181905260209186916064918391906001600160a01b03165af19384156107a8575f9461143d575b50600111610d335761137861138c9160209460015f526006865260405f205490611c7a565b61138181611aee565b506102c08582611c12565b606460018060a01b035f80516020611d438339815191525416965f6040519889948593630ccd46b160e31b8552600485015260248401528160448401525af19384156107a8575f94611405575b506113fb6113f4866113ee8661140099611b7d565b87611c7a565b33836116f9565b611776565b600190565b9493506020853d602011611435575b8161142160209383611166565b8101031261039757935192936113fb6113d9565b3d9150611414565b9093506020813d602011611469575b8161145960209383611166565b810103126103975751925f611353565b3d915061144c565b93506020843d60201161149e575b8161148c60209383611166565b810103126103975792519260206112fb565b3d915061147f565b90816020910312610397575160ff811681036103975790565b60405163313ce56760e01b81526020816004817f00000000000000000000000000000000000000000000000000000000000000006001600160a01b03165afa9081156107a8575f9161150f575090565b611528915060203d60201161040b576103fd8183611166565b90565b9291926001600160401b0382116111525760405191611554601f8201601f191660200184611166565b829481845281830111610397578281602093845f960137010152565b9061157a81611676565b335f52600360205261159060405f205482611a3b565b9060ff7f000000000000000000000000000000000000000000000000000000000000000016600111610d335760066020527f54cdd369e4e8a8515e52ca72ec816c2101831ad1f18bf44102ed171459c9b4f85460015f527f3e5fec24aa4dc4e5aee2e025e51e1392c72a2500577559fae9665c6d52bd6a3154611400949161163391839161161f919087611c7a565b61162881611aee565b50610af13382611c12565b33611776565b9060ff8091169116039060ff821161074c57565b60ff16604d811161074c57600a0a90565b90816020910312610397575180151581036103975790565b5f80516020611d2383398151915254604051632fd514cd60e11b81526004810192909252336024830152602090829060449082906001600160a01b03165afa9081156107a8575f916116da575b50156116cb57565b632fa38b3f60e01b5f5260045ffd5b6116f3915060203d602011610c1357610c068183611166565b5f6116c3565b6001600160a01b0381169392908415611763576001600160a01b038316948515611750579061174e9495610af1925f52600460205260405f20905f526020528260405f20556117483084611c12565b82611c12565b565b85634a1406b160e11b5f5260045260245ffd5b8463e602df0560e01b5f5260045260245ffd5b92919261178281611b1b565b6001600160a01b03811692831561192b576001600160a01b03831694851561191857906117b7916117b1611ccc565b91611c7a565b91845f5260036020525f60206040822054858115611908575b86156118fa575b5f80516020611d438339815191525460405163f953e42760e01b8152600480820194909452848101909301919091526001600160f81b0319841660448301529092839160649183916001600160a01b03165af19081156107a8575f916118c4575b509261185f61187192856118899650885f5260036020528060405f2055610af13082611c12565b845f52600360205260405f2054611b7d565b835f5260036020528060405f2055610af13082611c12565b6005545f19810190811161074c5760207fddf252ad1be2c89b69c2b068fc378daa952ba7f163c4a11628f55a4df523b3ef91604051908152a3565b9390506020843d6020116118f2575b816118e060209383611166565b8101031261039757925161185f611838565b3d91506118d3565b50611903611ccc565b6117d7565b9050611912611ccc565b906117d0565b8563ec442f0560e01b5f5260045260245ffd5b83634b637e8f60e11b5f5260045260245ffd5b61198d9160209160018060a01b035f80516020611d438339815191525416905f6040518096819582946302e817ff60e41b84526004840152336024840152608060448401526084830190611074565b600560f81b606483015203925af19081156107a8575f91611a09575b505f80516020611d23833981519152546001600160a01b0316803b15610397576040516346ce4e4960e11b815260048101839052336024820152905f908290604490829084905af180156107a8576119ff575090565b5f61152891611166565b90506020813d602011611a33575b81611a2460209383611166565b8101031261039757515f6119a9565b3d9150611a17565b908115611ade575b8015611acc575b602090606460018060a01b035f80516020611d438339815191525416935f60405195869485936334a6d7b960e11b8552600485015260248401528160448401525af19081156107a8575f91611a9d575090565b90506020813d602011611ac4575b81611ab860209383611166565b81010312610397575190565b3d9150611aab565b506020611ad7611ccc565b9050611a4a565b9050611ae8611ccc565b90611a43565b60055491905f19831461074c5761174e9060018401600555835f5260076020528060405f20553090611c12565b6001600160a01b03165f9081526012602052604090205460ff16611b3b57565b63adf54df960e01b5f5260045ffd5b90602080835192838152019201905f5b818110611b675750505090565b8251845260209384019390920191600101611b5a565b6020905f928115611c02575b8015611bf4575b5f80516020611d4383398151915254604051638c14cc2160e01b8152600480820194909452848101909301919091526001600160f81b0319841660448301529092839160649183916001600160a01b03165af19081156107a8575f91611a9d575090565b50611bfd611ccc565b611b90565b9050611c0c611ccc565b90611b89565b5f80516020611d23833981519152546001600160a01b031691823b1561039757604051631974142760e21b815260048101929092526001600160a01b03166024820152905f908290604490829084905af180156107a857611c705750565b5f61174e91611166565b9060646020925f60018060a01b035f80516020611d438339815191525416604051968795869463cb3b940760e01b86526004860152602485015260448401525af19081156107a8575f91611a9d575090565b5f80516020611d4383398151915254604051631ce2e8d760e31b81525f60048201819052600560f81b60248301529091602091839160449183916001600160a01b03165af19081156107a8575f91611a9d57509056feed8d60e34876f751cc8b014c560745351147d9de11b9347c854e881b128ea600ed8d60e34876f751cc8b014c560745351147d9de11b9347c854e881b128ea601a2646970667358221220440bb99857af784c5e7bab6a26631bca77de11a1703afcb98be571897328751564736f6c634300081a0033","linkReferences":{}},"methodIdentifiers":{"ERC20_TOKEN()":"efc4c631","allowance(address,address)":"dd62ed3e","approve(address,bytes32,bytes)":"b32c1001","approve(address,uint256)":"095ea7b3","balanceOf(address)":"70a08231","callbackUnwrap(uint256,bool)":"b820e6ce","decimals()":"313ce567","errorGetCounter()":"67a74a28","getErrorCodeForTransferId(uint256)":"a5184baf","isAccountRestricted(address)":"e6e09505","name()":"06fdde03","symbol()":"95d89b41","totalSupply()":"18160ddd","transfer(address,bytes32,bytes)":"7b7e0a5a","transfer(address,uint256)":"a9059cbb","transferFrom(address,address,bytes32,bytes)":"9a094352","transferFrom(address,address,uint256)":"23b872dd","unwrap(uint64)":"dc412e83","unwrapRequests(uint256)":"d99c2a72","wrap(uint256)":"ea598cb0"},"id":2}