{"abi":[{"type":"constructor","inputs":[{"name":"params","type":"tuple","internalType":"struct RouterParameters","components":[{"name":"permit2","type":"address","internalType":"address"},{"name":"weth9","type":"address","internalType":"address"},{"name":"v2Factory","type":"address","internalType":"address"},{"name":"v3Factory","type":"address","internalType":"address"},{"name":"pairInitCodeHash","type":"bytes32","internalType":"bytes32"},{"name":"poolInitCodeHash","type":"bytes32","internalType":"bytes32"},{"name":"v4PoolManager","type":"address","internalType":"address"},{"name":"v3NFTPositionManager","type":"address","internalType":"address"},{"name":"v4PositionManager","type":"address","internalType":"address"}]}],"stateMutability":"nonpayable"},{"type":"receive","stateMutability":"payable"},{"type":"function","name":"V3_POSITION_MANAGER","inputs":[],"outputs":[{"name":"","type":"address","internalType":"contract INonfungiblePositionManager"}],"stateMutability":"view"},{"type":"function","name":"V4_POSITION_MANAGER","inputs":[],"outputs":[{"name":"","type":"address","internalType":"contract IPositionManager"}],"stateMutability":"view"},{"type":"function","name":"execute","inputs":[{"name":"commands","type":"bytes","internalType":"bytes"},{"name":"inputs","type":"bytes[]","internalType":"bytes[]"}],"outputs":[],"stateMutability":"payable"},{"type":"function","name":"execute","inputs":[{"name":"commands","type":"bytes","internalType":"bytes"},{"name":"inputs","type":"bytes[]","internalType":"bytes[]"},{"name":"deadline","type":"uint256","internalType":"uint256"}],"outputs":[],"stateMutability":"payable"},{"type":"function","name":"msgSender","inputs":[],"outputs":[{"name":"","type":"address","internalType":"address"}],"stateMutability":"view"},{"type":"function","name":"poolManager","inputs":[],"outputs":[{"name":"","type":"address","internalType":"contract IPoolManager"}],"stateMutability":"view"},{"type":"function","name":"uniswapV3SwapCallback","inputs":[{"name":"amount0Delta","type":"int256","internalType":"int256"},{"name":"amount1Delta","type":"int256","internalType":"int256"},{"name":"data","type":"bytes","internalType":"bytes"}],"outputs":[],"stateMutability":"nonpayable"},{"type":"function","name":"unlockCallback","inputs":[{"name":"data","type":"bytes","internalType":"bytes"}],"outputs":[{"name":"","type":"bytes","internalType":"bytes"}],"stateMutability":"nonpayable"},{"type":"error","name":"BalanceTooLow","inputs":[]},{"type":"error","name":"ContractLocked","inputs":[]},{"type":"error","name":"DeltaNotNegative","inputs":[{"name":"currency","type":"address","internalType":"Currency"}]},{"type":"error","name":"DeltaNotPositive","inputs":[{"name":"currency","type":"address","internalType":"Currency"}]},{"type":"error","name":"ETHNotAccepted","inputs":[]},{"type":"error","name":"ExecutionFailed","inputs":[{"name":"commandIndex","type":"uint256","internalType":"uint256"},{"name":"message","type":"bytes","internalType":"bytes"}]},{"type":"error","name":"FromAddressIsNotOwner","inputs":[]},{"type":"error","name":"InputLengthMismatch","inputs":[]},{"type":"error","name":"InsufficientBalance","inputs":[]},{"type":"error","name":"InsufficientETH","inputs":[]},{"type":"error","name":"InsufficientToken","inputs":[]},{"type":"error","name":"InvalidAction","inputs":[{"name":"action","type":"bytes4","internalType":"bytes4"}]},{"type":"error","name":"InvalidBips","inputs":[]},{"type":"error","name":"InvalidCommandType","inputs":[{"name":"commandType","type":"uint256","internalType":"uint256"}]},{"type":"error","name":"InvalidEthSender","inputs":[]},{"type":"error","name":"InvalidPath","inputs":[]},{"type":"error","name":"InvalidReserves","inputs":[]},{"type":"error","name":"LengthMismatch","inputs":[]},{"type":"error","name":"NotAuthorizedForToken","inputs":[{"name":"tokenId","type":"uint256","internalType":"uint256"}]},{"type":"error","name":"NotPoolManager","inputs":[]},{"type":"error","name":"OnlyMintAllowed","inputs":[]},{"type":"error","name":"SliceOutOfBounds","inputs":[]},{"type":"error","name":"TransactionDeadlinePassed","inputs":[]},{"type":"error","name":"UnsafeCast","inputs":[]},{"type":"error","name":"UnsupportedAction","inputs":[{"name":"action","type":"uint256","internalType":"uint256"}]},{"type":"error","name":"V2InvalidPath","inputs":[]},{"type":"error","name":"V2TooLittleReceived","inputs":[]},{"type":"error","name":"V2TooMuchRequested","inputs":[]},{"type":"error","name":"V3InvalidAmountOut","inputs":[]},{"type":"error","name":"V3InvalidCaller","inputs":[]},{"type":"error","name":"V3InvalidSwap","inputs":[]},{"type":"error","name":"V3TooLittleReceived","inputs":[]},{"type":"error","name":"V3TooMuchRequested","inputs":[]},{"type":"error","name":"V4TooLittleReceived","inputs":[{"name":"minAmountOutReceived","type":"uint256","internalType":"uint256"},{"name":"amountReceived","type":"uint256","internalType":"uint256"}]},{"type":"error","name":"V4TooMuchRequested","inputs":[{"name":"maxAmountInRequested","type":"uint256","internalType":"uint256"},{"name":"amountRequested","type":"uint256","internalType":"uint256"}]}],"bytecode":{"object":"0x6101a0604052346101515761001a610015610302565b610380565b610022610156565b6176366106a38239608051818181613d3a01528181613e30015261522e015260a051818181613d5c01528181613e510152615253015260c05181612a73015260e05181612ad1015261010051818181610527015281816109c001528181610e8a0152818161259b0152818161349501528181615f800152818161604401528181616274015281816162f9015281816163a2015281816164af01528181616fad01526171ed015261012051818181610e24015281816138ca0152818161396e01528181613b570152613bef015261014051818181611d9b0152818161212e0152818161375a01526144740152610160518181816102a90152818161247c0152818161250901528181614a9001528181614b260152614bd101526101805181818161043d0152612644015261763690f35b61015c565b60405190565b5f80fd5b601f801991011690565b634e487b7160e01b5f52604160045260245ffd5b9061018890610160565b810190811060018060401b038211176101a057604052565b61016a565b906101b86101b1610156565b928361017e565b565b5f80fd5b5f80fd5b60018060a01b031690565b6101d6906101c2565b90565b6101e2816101cd565b036101e957565b5f80fd5b905051906101fa826101d9565b565b90565b610208816101fc565b0361020f57565b5f80fd5b90505190610220826101ff565b565b9190610120838203126102de576102d69061023e6101206101a5565b9361024b825f83016101ed565b5f86015261025c82602083016101ed565b602086015261026e82604083016101ed565b604086015261028082606083016101ed565b60608601526102928260808301610213565b60808601526102a48260a08301610213565b60a08601526102b68260c083016101ed565b60c08601526102c88260e083016101ed565b60e0860152610100016101ed565b610100830152565b6101be565b90610120828203126102fd576102fa915f01610222565b90565b6101ba565b610320617cd980380380610315816101a5565b9283398101906102e3565b90565b61032d90516101cd565b90565b61033a60406101a5565b90565b90610347906101cd565b9052565b61035560406101a5565b90565b61036290516101fc565b90565b61036f60806101a5565b90565b9061037c906101fc565b9052565b6104739061039060e08201610323565b6103bd6103a06101008401610323565b6103b46103ab610330565b935f850161033d565b6020830161033d565b906103ca60c08201610323565b6103d55f8301610323565b6104016103e460208501610323565b6103f86103ef61034b565b935f850161033d565b6020830161033d565b9161046d61041160408301610323565b9161046461042160608301610323565b9161045b61043d60a061043660808501610358565b9301610358565b93610452610449610365565b975f890161033d565b6020870161033d565b60408501610372565b60608301610372565b92610475565b565b90610481939291610483565b565b9061048f939291610491565b565b9061049d9392916104ee565b565b90565b6104b66104b16104bb926101c2565b61049f565b6101c2565b90565b6104c7906104a2565b90565b6104d3906104be565b90565b6104df906104a2565b90565b6104eb906104d6565b90565b6105016105239461051e94602094610541565b61051461050f5f8301610323565b6104ca565b6101605201610323565b6104e2565b61018052565b610532906104a2565b90565b61053e90610529565b90565b9061054f6105559392610535565b90610557565b565b906105629291610564565b565b9061056f9291610571565b565b9061057c929161057e565b565b90610589929161058b565b565b9061059692916105c8565b565b6105a1906104a2565b90565b6105ad90610598565b90565b6105b9906104a2565b90565b6105c5906105b0565b90565b5f906105da6105fd946105f894610603565b6105ee6105e960208301610323565b6105a4565b6101205201610323565b6105bc565b61014052565b9061060d9161060f565b565b906106199161061b565b565b9061062591610627565b565b9061063191610633565b565b9061063d9161063f565b565b906106499061064f565b61010052565b6106589061065a565b565b61066390610665565b565b606061069d916106765f8201610323565b60805261068560408201610358565b60a05261069460208201610323565b60c05201610358565b60e05256fe6080604052600436101561001d575b3661065b5761001b610e18565b005b6100275f356100a6565b806324856bc3146100a15780633593564c1461009c578063817122dc1461009757806391dd734614610092578063d0c9f6cb1461008d578063d737d0c714610088578063dc4c90d3146100835763fa461e330361000e57610624565b610577565b6104f0565b61048d565b610405565b61032f565b610267565b6101a8565b60e01c90565b60405190565b5f80fd5b5f80fd5b5f80fd5b5f80fd5b5f80fd5b909182601f830112156101005781359167ffffffffffffffff83116100fb5760200192600183028401116100f657565b6100c2565b6100be565b6100ba565b909182601f8301121561013f5781359167ffffffffffffffff831161013a57602001926020830284011161013557565b6100c2565b6100be565b6100ba565b909160408284031261019e575f82013567ffffffffffffffff8111610199578361016f9184016100c6565b929093602082013567ffffffffffffffff8111610194576101909201610105565b9091565b6100b6565b6100b6565b6100b2565b5f0190565b6101bf6101b6366004610144565b92919091610945565b6101c76100ac565b806101d1816101a3565b0390f35b90565b6101e1816101d5565b036101e857565b5f80fd5b905035906101f9826101d8565b565b606081830312610262575f81013567ffffffffffffffff811161025d57826102249183016100c6565b929093602083013567ffffffffffffffff81116102585761024a83610255928601610105565b9390946040016101ec565b90565b6100b6565b6100b6565b6100b2565b61027e6102753660046101fb565b939290926109a3565b6102866100ac565b80610290816101a3565b0390f35b5f80fd5b5f9103126102a257565b6100b2565b7f000000000000000000000000000000000000000000000000000000000000000090565b60018060a01b031690565b90565b6102ed6102e86102f2926102cb565b6102d6565b6102cb565b90565b6102fe906102d9565b90565b61030a906102f5565b90565b61031690610301565b9052565b919061032d905f6020850194019061030d565b565b3461035f5761033f366004610298565b61035b61034a6102a7565b6103526100ac565b9182918261031a565b0390f35b610294565b90602082820312610395575f82013567ffffffffffffffff81116103905761038c92016100c6565b9091565b6100b6565b6100b2565b5190565b60209181520190565b90825f9392825e0152565b601f801991011690565b6103db6103e46020936103e9936103d28161039a565b9384809361039e565b958691016103a7565b6103b2565b0190565b6104029160208201915f8184039101526103bc565b90565b346104365761043261042161041b366004610364565b90610a2b565b6104296100ac565b918291826103ed565b0390f35b610294565b7f000000000000000000000000000000000000000000000000000000000000000090565b610468906102f5565b90565b6104749061045f565b9052565b919061048b905f6020850194019061046b565b565b346104bd5761049d366004610298565b6104b96104a861043b565b6104b06100ac565b91829182610478565b0390f35b610294565b6104cb906102cb565b90565b6104d7906104c2565b9052565b91906104ee905f602085019401906104ce565b565b3461052057610500366004610298565b61051c61050b610a44565b6105136100ac565b918291826104db565b0390f35b610294565b7f000000000000000000000000000000000000000000000000000000000000000090565b610552906102f5565b90565b61055e90610549565b9052565b9190610575905f60208501940190610555565b565b346105a757610587366004610298565b6105a3610592610525565b61059a6100ac565b91829182610562565b0390f35b610294565b90565b6105b8816105ac565b036105bf57565b5f80fd5b905035906105d0826105af565b565b9160608383031261061f576105e9825f85016105c3565b926105f783602083016105c3565b92604082013567ffffffffffffffff811161061a5761061692016100c6565b9091565b6100b6565b6100b2565b34610656576106406106373660046105d2565b92919091610c1f565b6106486100ac565b80610652816101a3565b0390f35b610294565b5f80fd5b610668906102f5565b90565b90565b61068261067d6106879261066b565b6102d6565b6102cb565b90565b6106939061066e565b90565b929190336106b46106ae6106a93061065f565b6104c2565b916104c2565b14155f1461070a576106c4610ec0565b6106ee576106da936106d533610ef0565b610831565b6106eb6106e65f61068a565b610ef0565b5b565b5f6337affdbf60e11b815280610706600482016101a3565b0390fd5b61071393610831565b6106ec565b5f90565b606090565b5090565b5090565b61073d6107386107429261066b565b6102d6565b6101d5565b90565b600161075191016101d5565b90565b634e487b7160e01b5f52603260045260245ffd5b9190811015610778576001020190565b610754565b60ff60f81b1690565b5f80fd5b5f80fd5b5f80fd5b9035906001602003813603038212156107d4570180359067ffffffffffffffff82116107cf576020019160018202360383136107ca57565b61078e565b61078a565b610786565b908210156107f45760206107f09202810190610792565b9091565b610754565b151590565b610807906101d5565b9052565b9161082e9261082160408201935f8301906107fe565b60208184039101526103bc565b90565b93929361083c610718565b5061084561071c565b50610851818390610721565b9361085d848790610725565b61086f610869876101d5565b916101d5565b036109295761087d5f610729565b5b8061089161088b886101d5565b916101d5565b1015610920576108cf6108af6108a985878591610768565b3561077d565b6108c76108be888b86916107d9565b83919091611ad7565b9290156107f9565b9081610910575b506108ea57506108e590610745565b61087e565b9061090c6108f66100ac565b928392632c4029e960e01b84526004840161080b565b0390fd5b61091a91506127b5565b5f6108d6565b50945050505050565b5f631fec674760e31b815280610941600482016101a3565b0390fd5b90610951939291610696565b565b939291908361096b61096542926101d5565b916101d5565b1161097b5761097994610997565b565b5f632dfb7c8b60e11b815280610993600482016101a3565b0390fd5b6109a19450610945565b565b906109b094939291610953565b565b9190336109ef6109e96109e47f0000000000000000000000000000000000000000000000000000000000000000610549565b6104c2565b916104c2565b03610a00576109fd92610a1c565b90565b5f63570c108560e11b815280610a18600482016101a3565b0390fd5b90610a2892915061282e565b90565b90610a3d91610a3861071c565b6109b2565b90565b5f90565b610a4c610a40565b50610a5561285e565b90565b610a6c610a67610a719261066b565b6102d6565b6105ac565b90565b5f80fd5b634e487b7160e01b5f52604160045260245ffd5b90610a96906103b2565b810190811067ffffffffffffffff821117610ab057604052565b610a78565b90610ac8610ac16100ac565b9283610a8c565b565b67ffffffffffffffff8111610ae857610ae46020916103b2565b0190565b610a78565b90825f939282370152565b90929192610b0d610b0882610aca565b610ab5565b93818552602085019082840111610b2957610b2792610aed565b565b610a74565b9080601f83011215610b4c57816020610b4993359101610af8565b90565b6100ba565b610b5a906102cb565b90565b610b6681610b51565b03610b6d57565b5f80fd5b90503590610b7e82610b5d565b565b9190604083820312610bc0575f8301359067ffffffffffffffff8211610bbb57610baf81610bb8938601610b2e565b93602001610b71565b90565b6100b6565b6100b2565b610bce906102f5565b90565b610be5610be0610bea926105ac565b6102d6565b6101d5565b90565b634e487b7160e01b5f52601160045260245ffd5b610c0a906105ac565b600160ff1b8114610c1a575f0390565b610bed565b909281610c34610c2e5f610a58565b916105ac565b131580610df1575b610dd557610c6f610c8991610c5e610c578683810190610b80565b9050610bc5565b9490610c695f610729565b91612878565b94610c7b8287906128cc565b929194908590849091612a3a565b610c9b610c95336104c2565b916104c2565b03610db95784610cb3610cad5f610a58565b916105ac565b135f14610d945750610cd883610cd1610ccb846104c2565b916104c2565b1094610bd1565b935b5f14610cf3575050610cf0935091339192612c3c565b5b565b909150610d04829493948690612bd1565b5f14610d43575090610d2d610d1f610d3a95610d2894612cbb565b93909394612d33565b610c01565b9233929091925f94612f37565b5050505b610cf1565b9350509080610d61610d5b610d56612c02565b6101d5565b916101d5565b11610d7857610d739291339192612c3c565b610d3e565b5f6339cedf2960e11b815280610d90600482016101a3565b0390fd5b9350610db381610dac610da6866104c2565b916104c2565b1094610bd1565b93610cda565b5f6332b13d9160e01b815280610dd1600482016101a3565b0390fd5b5f63316cf0eb60e01b815280610ded600482016101a3565b0390fd5b5083610e05610dff5f610a58565b916105ac565b1315610c3c565b610e15906102f5565b90565b33610e53610e4d610e487f0000000000000000000000000000000000000000000000000000000000000000610e0c565b6104c2565b916104c2565b141580610e7d575b610e6157565b5f631c5deabb60e11b815280610e79600482016101a3565b0390fd5b5033610eb9610eb3610eae7f0000000000000000000000000000000000000000000000000000000000000000610549565b6104c2565b916104c2565b1415610e5b565b610ec8610718565b50610ed16130b2565b610eeb610ee5610ee05f61068a565b6104c2565b916104c2565b141590565b7f0e87e1788ebd9ed6a7e63c70a374cd3283e41cad601d21fbe27863899ed4a7085d565b90565b60f81b90565b610f31610f2c610f3692610f14565b610f17565b61077d565b90565b610f43603f610f1d565b90565b60f81c90565b60ff1690565b610f66610f61610f6b92610f4c565b6102d6565b610f4c565b90565b610f7a610f7f91610f46565b610f52565b90565b610f96610f91610f9b92610f4c565b6102d6565b6101d5565b90565b90565b610fb5610fb0610fba92610f9e565b6102d6565b6101d5565b90565b610fc76021610fa1565b90565b9190610fdd905f602085019401906107fe565b565b610fe8906102f5565b90565b919061100581610ffe8161100a9561039e565b8095610aed565b6103b2565b0190565b60209181520190565b90565b60209181520190565b919061103d81611036816110429561101a565b8095610aed565b6103b2565b0190565b906110519291611023565b90565b5f80fd5b5f80fd5b5f80fd5b90356001602003823603038112156110a157016020813591019167ffffffffffffffff821161109c57600182023603831361109757565b611058565b611054565b61105c565b60200190565b91816110b79161100e565b90816110c860208302840194611017565b92835f925b8484106110dd5750505050505090565b909192939495602061110961110383856001950388526110fd8b88611060565b90611046565b986110a6565b9401940192949391906110cd565b929061113390611141959360408601918683035f880152610feb565b9260208185039101526110ac565b90565b9061115661115183610aca565b610ab5565b918252565b3d5f146111765761116b3d611144565b903d5f602084013e5b565b61117e61071c565b90611174565b90565b61119b6111966111a092611184565b6102d6565b6101d5565b90565b6111ad6010611187565b90565b90565b6111c76111c26111cc926111b0565b6102d6565b6101d5565b90565b6111d960116111b3565b90565b90565b6111f36111ee6111f8926111dc565b6102d6565b6101d5565b90565b61120560126111df565b90565b90565b61121f61121a61122492611208565b6102d6565b6101d5565b90565b611231601361120b565b90565b90565b61124b61124661125092611234565b6102d6565b6101d5565b90565b61125d6014611237565b90565b905090565b9091826112758161127c93611260565b8093610aed565b0190565b909161128b92611265565b90565b3690565b5f90565b61129f816104c2565b036112a657565b5f80fd5b905035906112b782611296565b565b506112c89060208101906112aa565b90565b6112d4906102f5565b90565b6112e0906112cb565b9052565b62ffffff1690565b6112f5816112e4565b036112fc57565b5f80fd5b9050359061130d826112ec565b565b5061131e906020810190611300565b90565b61132a906112e4565b9052565b60020b90565b61133d8161132e565b0361134457565b5f80fd5b9050359061135582611334565b565b50611366906020810190611348565b90565b6113729061132e565b9052565b61137f906104c2565b90565b61138b81611376565b0361139257565b5f80fd5b905035906113a382611382565b565b506113b4906020810190611396565b90565b6113c0906102f5565b90565b6113cc906113b7565b9052565b906080611449611451936113f26113e95f8301836112b9565b5f8601906112d7565b61140c61140260208301836112b9565b60208601906112d7565b61142661141c604083018361130f565b6040860190611321565b6114406114366060830183611357565b6060860190611369565b828101906113a5565b9101906113c3565b565b61145c906102cb565b9052565b9160a061148192949361147a60c08201965f8301906113d0565b0190611453565b565b90565b61149a61149561149f92611483565b6102d6565b6101d5565b90565b6114ac6008611486565b90565b90565b6114c66114c16114cb926114af565b6102d6565b6101d5565b90565b6114d860096114b2565b90565b90565b6114f26114ed6114f7926114db565b6102d6565b6101d5565b90565b611504600a6114de565b90565b90565b61151e61151961152392611507565b6102d6565b6101d5565b90565b611530600b61150a565b90565b90565b61154a61154561154f92611533565b6102d6565b6101d5565b90565b61155c600c611536565b90565b90565b61157661157161157b9261155f565b6102d6565b6101d5565b90565b611588600d611562565b90565b90565b6115a261159d6115a79261158b565b6102d6565b6101d5565b90565b6115b4600e61158e565b90565b5f90565b6115c4906102d9565b90565b6115d0906115bb565b90565b6115dc906102f5565b90565b5f80fd5b60e01b90565b905051906115f6826101d8565b565b906020828203126116115761160e915f016115e9565b90565b6100b2565b61161e6100ac565b3d5f823e3d90fd5b63ffffffff60e01b1690565b90565b61164161164691611626565b611632565b9052565b61165681600493611635565b0190565b36905f90565b3690565b90565b61167b61167661168092611664565b6102d6565b6101d5565b90565b61168c906102f5565b90565b5090565b61169c816104c2565b036116a357565b5f80fd5b905035906116b482611693565b565b506116c59060208101906116a7565b90565b6116d1906104c2565b9052565b6116de816102cb565b036116e557565b5f80fd5b905035906116f6826116d5565b565b506117079060208101906116e9565b90565b611713906102cb565b9052565b65ffffffffffff1690565b61172b81611717565b0361173257565b5f80fd5b9050359061174382611722565b565b50611754906020810190611736565b90565b61176090611717565b9052565b9060606117c36117cb9361178661177d5f8301836116b6565b5f8601906116c8565b6117a061179660208301836116f8565b602086019061170a565b6117ba6117b06040830183611745565b6040860190611757565b82810190611745565b910190611757565b565b506117dc9060208101906101ec565b90565b6117e8906101d5565b9052565b9060a06118316118399361180e6118055f83018361168f565b5f860190611764565b61182861181e60808301836116b6565b60808601906116c8565b828101906117cd565b9101906117df565b565b61186261186f95939492946118586101008401965f8501906104ce565b60208301906117ec565b60e0818503910152610feb565b90565b90565b61188961188461188e92611872565b6102d6565b6101d5565b90565b61189a5f610729565b90565b90565b6118b46118af6118b99261189d565b6102d6565b6101d5565b90565b6118c660016118a0565b90565b90565b6118e06118db6118e5926118c9565b6102d6565b6101d5565b90565b6118f260026118cc565b90565b6118ff6003611875565b90565b90565b61191961191461191e92611902565b6102d6565b6101d5565b90565b61192b6004611905565b90565b90565b61194561194061194a9261192e565b6102d6565b6101d5565b90565b6119576005611931565b90565b6119646006611667565b90565b61197b611976611980926102cb565b6102d6565b6101d5565b90565b3690565b90356001602003823603038112156119c857016020813591019167ffffffffffffffff82116119c35760808202360383136119be57565b611058565b611054565b61105c565b60209181520190565b90565b906119e681608093611764565b0190565b60800190565b916119fe82611a04926119cd565b926119d6565b90815f905b828210611a17575050505090565b90919293611a39611a33600192611a2e888661168f565b6119d9565b956119ea565b920190929192611a09565b90611a9a906040611a92611a6e60608401611a615f880188611987565b908683035f8801526119f0565b94611a89611a7f60208301836116b6565b60208601906116c8565b828101906117cd565b9101906117df565b90565b9290611ac690611ad49593611ab960608701925f8801906104ce565b8582036020870152611a44565b926040818503910152610feb565b90565b919290611ae2610718565b50611b05611b00611af161071c565b94611afa610f39565b16610f6e565b610f82565b9360019480611b23611b1d611b18610fbd565b6101d5565b916101d5565b105f146126ba5780611b44611b3e611b396111a3565b6101d5565b916101d5565b105f146124095780611b65611b5f611b5a6114a2565b6101d5565b916101d5565b105f14611f6c5780611b86611b80611b7b611891565b6101d5565b916101d5565b145f14611c1d5750611c0691611b9a610a40565b50611ba36115b7565b50611bac6115b7565b50611bb5610718565b50803590602081013592611bdf60408301359160808401359390611bd96003611875565b91612878565b919091925f14611c0c57611bfb611bf4610a44565b5b9461384c565b9490919293946145cf565b5b5b5b5b565b611bfb611c1830610fdf565b611bf5565b80611c37611c31611c2c6118bc565b6101d5565b916101d5565b145f14611cce5750611cb791611c4b610a40565b50611c546115b7565b50611c5d6115b7565b50611c66610718565b50803590602081013592611c9060408301359160808401359390611c8a6003611875565b91612878565b919091925f14611cbd57611cac611ca5610a44565b5b9461384c565b94909192939461451b565b5b611c07565b611cac611cc930610fdf565b611ca6565b80611ce8611ce2611cdd6118e8565b6101d5565b916101d5565b145f14611d3c575050611d3690611cfd610a40565b50611d06610a40565b50611d0f611292565b508035604060208301359201359091611d2f611d29610a44565b9161384c565b919261446c565b5b611cb8565b80959294919395611d5c611d56611d516118f5565b6101d5565b916101d5565b145f14611e14575050505f91611dfa611d8f8493611d78611983565b50833584019390611d8960016118a0565b91612878565b91909192611deb611dbf7f0000000000000000000000000000000000000000000000000000000000000000611683565b94611dc8610a44565b9294611dd26100ac565b958694600460208701632a2d80d160e01b815201611a9d565b60208201810382520382610a8c565b82602082019151925af1611e0c61115b565b90915b611d37565b80919492959350611e34611e2e611e29611921565b6101d5565b916101d5565b145f14611e865750611e8090611e48610a40565b50611e51610a40565b50611e5a611292565b508035611e7a611e7460406020850135940135929361384c565b91611967565b91614291565b5b611e0f565b80611ea0611e9a611e9561194d565b6101d5565b916101d5565b145f14611eea5750611ee490611eb4610a40565b50611ebd610a40565b50611ec66115b7565b508035611edd60406020840135930135919261384c565b9091614186565b5b611e81565b80611f04611efe611ef961195a565b6101d5565b916101d5565b145f14611f4d5750611f4890611f18610a40565b50611f21610a40565b50611f2a6115b7565b508035611f4160406020840135930135919261384c565b9091614093565b611ee5565b611f68905f918291636bb50f4f60e11b835260048301610fca565b0390fd5b80929192611f89611f83611f7e6114a2565b6101d5565b916101d5565b145f1461202157509061200a91611f9e610a40565b50611fa76115b7565b50611fb06115b7565b50611fb9610718565b50803590602081013592611fe360408301359160808401359390611fdd6003611875565b91613d01565b919091925f1461201057611fff611ff8610a44565b5b9461384c565b949091929394613e27565b5b611c08565b611fff61201c30610fdf565b611ff9565b8061203b6120356120306114ce565b6101d5565b916101d5565b145f146120d35750906120bc91612050610a40565b506120596115b7565b506120626115b7565b5061206b610718565b508035906020810135926120956040830135916080840135939061208f6003611875565b91613d01565b919091925f146120c2576120b16120aa610a44565b5b9461384c565b949091929394613d31565b5b61200b565b6120b16120ce30610fdf565b6120ab565b80949193946120f16120eb6120e66114fa565b6101d5565b916101d5565b145f146121a75750505f9293509061218d612122849361210f611660565b50839061211c6006611667565b91612878565b9190919261217e6121527f0000000000000000000000000000000000000000000000000000000000000000611683565b9461215b610a44565b92946121656100ac565b9586946004602087016302b67b5760e41b81520161183b565b60208201810382520382610a8c565b82602082019151925af161219f61115b565b90915b6120bd565b80949391946121c56121bf6121ba611526565b6101d5565b916101d5565b145f146121ff57506121f991506121da610a40565b506121e36115b7565b506121f4602082359201359161384c565b613b07565b5b6121a2565b8061221961221361220e611552565b6101d5565b916101d5565b145f14612253575061224d915061222e610a40565b506122376115b7565b50612248602082359201359161384c565b6138bf565b5b6121fa565b8061226d61226761226261157e565b6101d5565b916101d5565b145f146122ad57506122a7916122989161228561165a565b905050906122925f610729565b9161351e565b906122a1610a44565b916136c9565b5b61224e565b9150919350806122cc6122c66122c16115aa565b6101d5565b916101d5565b145f146123ea5750612338906122e0610a40565b506122e9610a40565b506122f26115b7565b506020813561231161230c604084860135950135946115c7565b6115d3565b61232d6370a082316123216100ac565b968794859384936115e3565b8352600483016104db565b03915afa9182156123e5575f926123ad575b5061235761235d916101d5565b916101d5565b10159161236a83156107f9565b612374575b6122a8565b90506123986123a76351940b3960e11b61238c6100ac565b9283916020830161164a565b60208201810382520382610a8c565b9061236f565b61235d9192506123d66123579160203d81116123de575b6123ce8183610a8c565b8101906115f8565b92915061234a565b503d6123c4565b611616565b612405905f918291636bb50f4f60e11b835260048301610fca565b0390fd5b8092919261242661242061241b6111a3565b6101d5565b916101d5565b145f1461243e5750906124389161348d565b5b611c09565b9192945092508061245e6124586124536111cf565b6101d5565b916101d5565b145f146124c95750815f929161247684938290613398565b826124a07f0000000000000000000000000000000000000000000000000000000000000000610301565b926124b56124ac6100ac565b93849283611280565b03925af16124c161115b565b90915b612439565b806124e36124dd6124d86111fb565b6101d5565b916101d5565b145f146125565750815f92916125038493826124fd610a44565b9161330d565b8261252d7f0000000000000000000000000000000000000000000000000000000000000000610301565b926125426125396100ac565b93849283611280565b03925af161254e61115b565b90915b6124c4565b8061257061256a612565611227565b6101d5565b916101d5565b145f1461260d5750505f809161258461128e565b5061258d611292565b5060a08101356125f36125bf7f0000000000000000000000000000000000000000000000000000000000000000610549565b926125e46125cb6100ac565b93849260046020850163313b65df60e11b815201611460565b60208201810382520382610a8c565b82602082019151925af161260561115b565b90915b612551565b8061262761262161261c611253565b6101d5565b916101d5565b145f1461269b5750815f929161263f84938290613181565b6126687f000000000000000000000000000000000000000000000000000000000000000061045f565b9161267230610fdf565b319061268861267f6100ac565b93849283611280565b03925af161269461115b565b9091612608565b6126b6905f918291636bb50f4f60e11b835260048301610fca565b0390fd5b919294509250806126da6126d46126cf610fbd565b6101d5565b916101d5565b145f1461274e57506127266127356126f45f9485946130e6565b939294909361270230610fdf565b95929461270d6100ac565b9586946004602087016324856bc360e01b815201611117565b60208201810382520382610a8c565b82602082019151925af161274761115b565b9091611c0a565b612769905f918291636bb50f4f60e11b835260048301610fca565b0390fd5b90565b61278461277f6127899261276d565b610f17565b61077d565b90565b6127966080612770565b90565b6127ad6127a86127b29261066b565b610f17565b61077d565b90565b6127bd610718565b506127c661278c565b166127d96127d35f612799565b9161077d565b1490565b67ffffffffffffffff81116127fb576127f76020916103b2565b0190565b610a78565b9061281261280d836127dd565b610ab5565b918252565b6128205f612800565b90565b61282b612817565b90565b612853916128449161283e61071c565b50614782565b90929192909192909192614826565b61285b612823565b90565b612866610a40565b5061286f6130b2565b90565b36905f90565b9163ffffffff9093919361288a612872565b9050506128956115b7565b5060051b83013516820192602063ffffffff85351694019284938095019101106128bb57565b633b99b53d5f526004601cfd5b5f90565b906128f1916128d9610a40565b506128e26128c8565b506128eb610a40565b506148e8565b9192909190565b612901906112e4565b9052565b60409061292e612935949695939661292460608401985f8501906104ce565b60208301906104ce565b01906128f8565b565b60200190565b905090565b5f60ff60f81b910152565b6129596001809261293d565b61296281612942565b0190565b60601b90565b61297590612966565b90565b6129819061296c565b90565b612990612995916104c2565b612978565b9052565b90565b90565b6129ab6129b091612999565b61299c565b9052565b602093926129dd60146129e5946129d56129ce899661294d565b8092612984565b01809261299f565b01809261299f565b0190565b5f1c90565b612a026129fd612a07926101d5565b6102d6565b6101d5565b90565b612a16612a1b916129e9565b6129ee565b90565b612a32612a2d612a37926101d5565b6102d6565b6102cb565b90565b612b2b90612b13612b3594612ab8612b3095612a54610a40565b5084612a68612a62836104c2565b916104c2565b11612b38575b612aa97f0000000000000000000000000000000000000000000000000000000000000000959193612a9d6100ac565b94859360208501612905565b60208201810382520382610a8c565b612aca612ac48261039a565b91612937565b2091612b047f0000000000000000000000000000000000000000000000000000000000000000612af86100ac565b948593602085016129b4565b60208201810382520382610a8c565b612b25612b1f8261039a565b91612937565b20612a0a565b612a1e565b6102f5565b90565b93612a6e565b612b486014611237565b90565b612b556003611875565b90565b612b67612b6d919392936101d5565b926101d5565b8201809211612b7857565b610bed565b612b96612b88612b3e565b612b90612b4b565b90612b58565b90565b612bb2612ba4612b7d565b612bac612b3e565b90612b58565b90565b612bce612bc0612b99565b612bc8612b7d565b90612b58565b90565b90612be491612bde610718565b50610721565b612bfd612bf7612bf2612bb5565b6101d5565b916101d5565b101590565b612c0a6115b7565b507faf28d9864a81dfdf71cab65f4e5d79a0cf9b083905fb8971425e6cb581b3f6925c90565b612c39906102f5565b90565b929080612c59612c53612c4e30612c30565b6104c2565b916104c2565b145f14612c705750612c6d92919091614186565b5b565b91612c80612c8694939192614963565b9261446c565b612c6e565b5f80fd5b5f80fd5b90939293848311612cb3578411612cae576001820201920390565b612c8f565b612c8b565b91565b612ce591612cdf91612ccb612872565b90505090612cd7612b7d565b908092612c93565b90612cb8565b9091565b5f90565b90565b612d04612cff612d0992612ced565b6102d6565b6101d5565b90565b15612d1357565b5f80fd5b612d2b612d26612d30926101d5565b6102d6565b6105ac565b90565b612d6590612d3f612ce9565b50612d6081612d5a612d54600160ff1b612cf0565b916101d5565b10612d0c565b612d17565b90565b612d71906102d9565b90565b612d7d90612d68565b90565b612d89906102f5565b90565b90565b612da3612d9e612da892612d8c565b6102d6565b6102cb565b90565b612dc873fffd8963efd1fc6a506488495d951d5263988d26612d8f565b90565b612ddf612dda612de49261189d565b6102d6565b6102cb565b90565b612df3612df9916102cb565b916102cb565b90039060018060a01b038211612e0b57565b610bed565b90565b612e27612e22612e2c92612e10565b6102d6565b6102cb565b90565b612e3d6401000276a3612e13565b90565b612e4c612e52916102cb565b916102cb565b019060018060a01b038211612e6357565b610bed565b939290612e86602091612e8e9460408801918883035f8a0152610feb565b9401906104ce565b565b90505190612e9d826105af565b565b9190604083820312612ec75780612ebb612ec4925f8601612e90565b93602001612e90565b90565b6100b2565b612ed5906107f9565b9052565b612ee2906105ac565b9052565b9193612f1d612f349694612f13612f279497612f0960a08801995f8901906104ce565b6020870190612ecc565b6040850190612ed9565b6060830190611453565b60808184039101526103bc565b90565b94935f604094939261302261301793612f4e612ce9565b50612f57612ce9565b50612f60610718565b50612fa9612fa4612f9f612f75898b906128cc565b909d919d90918914613098578d612f94612f8e846104c2565b916104c2565b105b9d919091612a3a565b612d74565b612d80565b9563128acb0893976130038b9c918c881461307557612ff4612fdc612fcc612e2f565b612fd66001612dcb565b90612e40565b5b949195612fe86100ac565b96879360208501612e68565b60208201810382520384610a8c565b61300b6100ac565b9b8c998a9889976115e3565b875260048701612ee6565b03925af1918215613070575f8091909361303c575b509192565b905061306091925060403d8111613069575b6130588183610a8c565b810190612e9f565b5f929192613037565b503d61304e565b611616565b612ff4613093613083612dab565b61308d6001612dcb565b90612de7565b612fdd565b8d6130ac6130a684926104c2565b916104c2565b10612f96565b6130ba610a40565b507f0e87e1788ebd9ed6a7e63c70a374cd3283e41cad601d21fbe27863899ed4a7085c90565b36905f90565b90613106916130f3612872565b9050506130fe6130e0565b905050614782565b9193909293929190565b5f90565b63ffffffff1690565b61313161312c61313692613114565b6115e3565b611626565b90565b61314290611626565b9052565b9190613159905f60208501940190613139565b565b6131645f610729565b90565b61317160016118a0565b90565b61317e6003611875565b90565b613189613110565b508035806131ab6131a56131a063dd46508f61311d565b611626565b91611626565b036132ee57506131d86131d26131f6936131e793906131ca6004611905565b908092612c93565b90612cb8565b6131e15f610729565b91612878565b6131f05f610729565b91612878565b90613202818390610721565b9261320c5f610729565b5b8061322061321a876101d5565b916101d5565b10156132e75761324b61324661324161323b86888691610768565b3561077d565b610f6e565b610f82565b8061326561325f61325a61315b565b6101d5565b916101d5565b1480156132c6575b9081156132a4575b506132885761328390610745565b61320d565b5f635d1d0f9f60e01b8152806132a0600482016101a3565b0390fd5b90506132bf6132b96132b4613174565b6101d5565b916101d5565b145f613275565b50806132e16132db6132d6613167565b6101d5565b916101d5565b1461326d565b5092505050565b613309905f91829163f801e52560e01b835260048301613146565b0390fd5b9050613317613110565b50803561332c613326826149b2565b156107f9565b613379575061334d6004613353926133426115b7565b500135928390614a7c565b156107f9565b61335a5750565b613375905f91829163bb25d4c560e01b835260048301610fca565b0390fd5b613394905f91829163f801e52560e01b835260048301613146565b0390fd5b90506133a2613110565b5035806133be6133b8637ac2ff7b60e01b611626565b91611626565b036133c65750565b6133e1905f91829163f801e52560e01b835260048301613146565b0390fd5b909291926133fa6133f582610aca565b610ab5565b9381855260208501908284011161341657613414926103a7565b565b610a74565b9080601f8301121561343957816020613436935191016133e5565b90565b6100ba565b9060208282031261346e575f82015167ffffffffffffffff811161346957613466920161341b565b90565b6100b6565b6100b2565b909161348a9260208301925f818503910152610feb565b90565b905f906134b97f0000000000000000000000000000000000000000000000000000000000000000610549565b6134dc836348c894919593956134e76134d06100ac565b978896879586946115e3565b845260048401613473565b03925af18015613519576134f9575b50565b613514903d805f833e61350c8183610a8c565b81019061343e565b6134f6565b611616565b9290916135296115b7565b506135326115b7565b5061353b6115b7565b5060051b83013583019261357361356d6135686135616020883598019685880395610721565b9387612b58565b6101d5565b916101d5565b1061357a57565b5f633b99b53d60e01b815280613592600482016101a3565b0390fd5b5090565b91908110156135aa576080020190565b610754565b356135b981611693565b90565b5f9103126135c657565b6100b2565b60209181520190565b90565b90606061363661363e936135f96135f05f8301836116b6565b5f8601906116c8565b61361361360960208301836116b6565b60208601906116c8565b61362d61362360408301836116f8565b604086019061170a565b828101906116b6565b9101906116c8565b565b9061364d816080936135d7565b0190565b5090565b60800190565b916136698261366f926135cb565b926135d4565b90815f905b828210613682575050505090565b909192936136a461369e6001926136998886613651565b613640565b95613655565b920190929192613674565b90916136c69260208301925f81850391015261365b565b90565b6136d4818390613596565b936136de5f610729565b5b806136f26136ec886101d5565b916101d5565b101561374f5761370e5f6137088587859161359a565b016135af565b61372061371a876104c2565b916104c2565b036137335761372e90610745565b6136df565b5f63e700287760e01b81528061374b600482016101a3565b0390fd5b50935090915061377e7f0000000000000000000000000000000000000000000000000000000000000000611683565b91630d58b1db919092803b156137f9576137ab5f80946137b661379f6100ac565b978896879586946115e3565b8452600484016136af565b03925af180156137f4576137c8575b50565b6137e7905f3d81116137ed575b6137df8183610a8c565b8101906135bc565b5f6137c5565b503d6137d5565b611616565b6115df565b61380790612dcb565b90565b61381460016137fe565b90565b61382b613826613830926118c9565b6102d6565b6102cb565b90565b61383c90613817565b90565b6138496002613833565b90565b613854610a40565b508061386f61386961386461380a565b6104c2565b916104c2565b145f14613882575061387f610a44565b90565b8061389c61389661389161383f565b6104c2565b916104c2565b145f146138b057506138ad30610fdf565b90565b90565b6138bc906102f5565b90565b9061392060206138ee7f0000000000000000000000000000000000000000000000000000000000000000610e0c565b6370a0823190613915613900306138b3565b926139096100ac565b958694859384936115e3565b8352600483016104db565b03915afa908115613a8e575f91613a60575b509061394761394183926101d5565b916101d5565b10613a44578061395f6139595f610729565b916101d5565b11613969575b5050565b6139927f0000000000000000000000000000000000000000000000000000000000000000610e0c565b632e1a7d4d82823b15613a3f576139c8926139bd5f80946139b16100ac565b968795869485936115e3565b835260048301610fca565b03925af18015613a3a57613a0e575b50816139f36139ed6139e8306138b3565b6104c2565b916104c2565b036139fe575b613965565b613a0791614d39565b5f806139f9565b613a2d905f3d8111613a33575b613a258183610a8c565b8101906135bc565b5f6139d7565b503d613a1b565b611616565b6115df565b5f631a84bc4160e21b815280613a5c600482016101a3565b0390fd5b613a81915060203d8111613a87575b613a798183610a8c565b8101906115f8565b5f613932565b503d613a6f565b611616565b613aa0600160ff1b612cf0565b90565b613aac816107f9565b03613ab357565b5f80fd5b90505190613ac482613aa3565b565b90602082820312613adf57613adc915f01613ab7565b90565b6100b2565b916020613b05929493613afe60408201965f8301906104ce565b01906107fe565b565b9080613b22613b1c613b17613a93565b6101d5565b916101d5565b145f14613cbd5750613b33306138b3565b315b80613b48613b425f610729565b916101d5565b11613b52575b5050565b613b7b7f0000000000000000000000000000000000000000000000000000000000000000610e0c565b63d0e30db0829190813b15613cb8575f91613ba291613b986100ac565b94859384926115e3565b825281613bb1600482016101a3565b03925af18015613cb357613c87575b5081613bdc613bd6613bd1306138b3565b6104c2565b916104c2565b03613be7575b613b4e565b602090613c137f0000000000000000000000000000000000000000000000000000000000000000610e0c565b613c365f63a9059cbb959395613c41613c2a6100ac565b978896879586946115e3565b845260048401613ae4565b03925af18015613c8257613c56575b80613be2565b613c769060203d8111613c7b575b613c6e8183610a8c565b810190613ac6565b613c50565b503d613c64565b611616565b613ca6905f3d8111613cac575b613c9e8183610a8c565b8101906135bc565b5f613bc0565b503d613c94565b611616565b6115df565b80613cd9613cd3613ccd306138b3565b316101d5565b916101d5565b1115613b35575f631a84bc4160e21b815280613cf7600482016101a3565b0390fd5b36905f90565b91613d1992613d0e613cfb565b90505091909161351e565b91565b9190811015613d2c576020020190565b610754565b919290613d85907f0000000000000000000000000000000000000000000000000000000000000000907f00000000000000000000000000000000000000000000000000000000000000009084918893614d70565b93613d99613d9383926101d5565b916101d5565b11613dd657613dd495613dcb91613dc2613dbd8589613db75f610729565b91613d1c565b6135af565b91869192612c3c565b92909192614fe2565b565b5f6345585e0b60e11b815280613dee600482016101a3565b0390fd5b613dfb5f610729565b90565b5090565b613e11613e17919392936101d5565b926101d5565b8203918211613e2257565b610bed565b90949194613eb07f00000000000000000000000000000000000000000000000000000000000000007f0000000000000000000000000000000000000000000000000000000000000000613e8c613e87888a613e815f610729565b91613d1c565b6135af565b90613eaa613ea5898b613e9f60016118a0565b91613d1c565b6135af565b92615416565b9281613ecb613ec5613ec0613df2565b6101d5565b916101d5565b03614057575b5050613f44613f0f613f0a613f058688613eff613eef8a8c90613dfe565b613ef960016118a0565b90613e02565b91613d1c565b6135af565b6115c7565b6020613f1a826115d3565b6370a0823190613f398692613f2d6100ac565b968794859384936115e3565b8352600483016104db565b03915afa91821561405257613f9c96602095613f7594613f70935f91614025575b509791869192614fe2565b6115d3565b613f916370a08231613f856100ac565b968794859384936115e3565b8352600483016104db565b03915afa91821561402057613fcd92613fc792613fc1925f92613ff0575b5090613e02565b926101d5565b916101d5565b10613fd457565b5f631093d5f360e31b815280613fec600482016101a3565b0390fd5b61401291925060203d8111614019575b61400a8183610a8c565b8101906115f8565b905f613fba565b503d614000565b611616565b6140459150883d811161404b575b61403d8183610a8c565b8101906115f8565b5f613f65565b503d614033565b611616565b61408091614077614072878961406c5f610729565b91613d1c565b6135af565b91859192612c3c565b5f80613ed1565b6140905f61068a565b90565b806140ad6140a76140a2614087565b6104c2565b916104c2565b145f146140d457506140cb6140d1926140c5306138b3565b316154d3565b90614d39565b5b565b61411c60206140ea6140e5846115c7565b6115d3565b6370a08231906141116140fc306138b3565b926141056100ac565b958694859384936115e3565b8352600483016104db565b03915afa9081156141815761414e9461414692614140925f91614153575b506154d3565b916115c7565b9190916155b7565b6140d2565b614174915060203d811161417a575b61416c8183610a8c565b8101906115f8565b5f61413a565b503d614162565b611616565b9190826141a261419c614197614087565b6104c2565b916104c2565b145f146141b6576141b39250614d39565b5b565b90806141d16141cb6141c6613a93565b6101d5565b916101d5565b146141f0575b6141e36141eb936115c7565b9190916155b7565b6141b4565b5081602061420861420361423a956115c7565b6115d3565b6370a082319061422f61421a306138b3565b926142236100ac565b978894859384936115e3565b8352600483016104db565b03915afa92831561428c576141eb936141e3915f9161425e575b50919350506141d7565b61427f915060203d8111614285575b6142778183610a8c565b8101906115f8565b5f614254565b503d61426d565b611616565b91909161429c6115b7565b50806142b76142b16142ac614087565b6104c2565b916104c2565b145f1461432c57506142c8306138b3565b31906142dd6142d783926101d5565b916101d5565b1061431057806142f56142ef5f610729565b916101d5565b11614300575b50505b565b61430991614d39565b5f806142fb565b5f631a84bc4160e21b815280614328600482016101a3565b0390fd5b9190614376602061434461433f866115c7565b6115d3565b6370a082319061436b614356306138b3565b9261435f6100ac565b958694859384936115e3565b8352600483016104db565b03915afa908115614429575f916143fb575b509061439d61439783926101d5565b916101d5565b106143df57806143b56143af5f610729565b916101d5565b116143c3575b5050506142fe565b6143cf6143d7936115c7565b9190916155b7565b5f80806143bb565b5f630ceb95c760e31b8152806143f7600482016101a3565b0390fd5b61441c915060203d8111614422575b6144148183610a8c565b8101906115f8565b5f614388565b503d61440a565b611616565b61446361446a9461445960609498979561444f608086019a5f8701906104ce565b60208501906104ce565b6040830190611453565b01906104ce565b565b9190916144987f0000000000000000000000000000000000000000000000000000000000000000611683565b906336c7851693929490823b15614516575f946144d386926144c8946144bc6100ac565b998a98899788966115e3565b86526004860161442e565b03925af18015614511576144e5575b50565b614504905f3d811161450a575b6144fc8183610a8c565b8101906135bc565b5f6144e2565b503d6144f2565b611616565b6115df565b909492614571936145779561453261454f956155fb565b61454361453e89612d33565b610c01565b93929091925f94612f37565b9190915f146145ab575061456561456a91610c01565b610bd1565b5b926101d5565b916101d5565b0361458f5761458d6145885f610729565b6155fb565b565b5f636a70124760e11b8152806145a7600482016101a3565b0390fd5b6145be91506145b990610c01565b610bd1565b61456b565b6145cc906102f5565b90565b9091929394826145ee6145e86145e3613a93565b6101d5565b916101d5565b146146e2575b946145fd6115b7565b955b6001156146cf5761465c61464c6146619261462461461e8a8790612bd1565b97612d33565b90875f146146c857614635306145c3565b905b6146428b8890615635565b9192600194612f37565b9190915f146146c157505b610c01565b610bd1565b925f146146845761467b90614675306145c3565b95612cbb565b949094906145ff565b505061469891935061469e92505b926101d5565b916101d5565b106146a557565b5f631ce9aa4b60e11b8152806146bd600482016101a3565b0390fd5b9050614657565b8690614637565b505050509161469e915061469890614692565b915061473660206147046146ff6146fa888a9061561f565b6115c7565b6115d3565b6370a082319061472b614716306145c3565b9261471f6100ac565b958694859384936115e3565b8352600483016104db565b03915afa90811561477d575f9161474f575b50916145f4565b614770915060203d8111614776575b6147688183610a8c565b8101906115f8565b5f614748565b503d61475e565b611616565b61478a612872565b9050506147956130e0565b905050604081351891606082019363ffffffff60408401351693606063ffffffe0601f8701160190816020860135181790840192602063ffffffff8535169401948460051b805f905b8082106148005750508601910110176147f357565b633b99b53d5f526004601cfd5b90916020908163ffffffe0601f868d013599848b1817998d0135011601019201906147de565b93929193614835818390610721565b938461485361484d614848898890610725565b6101d5565b916101d5565b036148cc576148615f610729565b5b8061487561486f886101d5565b916101d5565b10156148c3576148be906148b96148a76148a261489d614897888a8791610768565b3561077d565b610f6e565b610f82565b6148b38a8985916107d9565b9161573a565b610745565b614862565b50945050505050565b5f63aaad13f760e01b8152806148e4600482016101a3565b0390fd5b9061490e906148f5610a40565b506148fe6128c8565b50614907610a40565b5082610721565b61492761492161491c612b99565b6101d5565b916101d5565b1061494757803591601762ffffff8460601c9460481c1692013560601c90565b5f633b99b53d60e01b81528061495f600482016101a3565b0390fd5b61496b611292565b508061498561497f60018060a01b03611967565b916101d5565b116149965761499390612a1e565b90565b5f63c4bd89a960e01b8152806149ae600482016101a3565b0390fd5b6149ba610718565b50806149d56149cf630624e65f60e11b611626565b91611626565b148015614a0b575b9081156149e9575b5090565b9050614a046149fe630852cd8d60e31b611626565b91611626565b145f6149e5565b5080614a26614a2063fc6f786560e01b611626565b91611626565b146149dd565b90505190614a3982611693565b565b90602082820312614a5457614a51915f01614a2c565b90565b6100b2565b916020614a7a929493614a7360408201965f8301906104ce565b01906104ce565b565b90614a85610718565b50614ade6020614ab47f0000000000000000000000000000000000000000000000000000000000000000610301565b636352211e90614ad38592614ac76100ac565b958694859384936115e3565b835260048301610fca565b03915afa908115614ca9575f91614c7b575b509082614b05614aff846104c2565b916104c2565b14908115614bc4575b50918215614b1c575b505090565b6020919250614b4a7f0000000000000000000000000000000000000000000000000000000000000000610301565b614b6c63e985e9c5949294614b77614b606100ac565b968795869485946115e3565b845260048401614a59565b03915afa908115614bbf575f91614b91575b505f80614b17565b614bb2915060203d8111614bb8575b614baa8183610a8c565b810190613ac6565b5f614b89565b503d614ba0565b611616565b614c1c9150602090614bf57f0000000000000000000000000000000000000000000000000000000000000000610301565b614c1163081812fc614c056100ac565b958694859384936115e3565b835260048301610fca565b03915afa908115614c76575f91614c48575b50614c41614c3b846104c2565b916104c2565b145f614b0e565b614c69915060203d8111614c6f575b614c618183610a8c565b810190614a3b565b5f614c2e565b503d614c57565b611616565b614c9c915060203d8111614ca2575b614c948183610a8c565b810190614a3b565b5f614af0565b503d614c8a565b611616565b60209181520190565b5f7f4554485f5452414e534645525f4641494c454400000000000000000000000000910152565b614ceb6013602092614cae565b614cf481614cb7565b0190565b614d0d9060208101905f818303910152614cde565b90565b15614d1757565b614d1f6100ac565b62461bcd60e51b815280614d3560048201614cf8565b0390fd5b5f8080614d52948194614d4a610718565b505af1614d10565b565b614d5d906101d5565b5f8114614d6b576001900390565b610bed565b949390929194614d7e6115b7565b50614d87610a40565b95614d93848490613dfe565b614da6614da060026118cc565b916101d5565b10614e6857614dc9614db9858590613dfe565b614dc360016118a0565b90613e02565b965b87614dde614dd85f610729565b916101d5565b1115614e5e5750614ded6115b7565b50614df66115b7565b50614e57614e51614e46848a89614e40614e3b614e30614e2b8d8d614e2588614e1f60016118a0565b90613e02565b91613d1c565b6135af565b938c908c9091613d1c565b6135af565b92615a63565b909194919091615ba7565b97614d54565b9690614dcb565b9594509550505050565b5f6320db826760e01b815280614e80600482016101a3565b0390fd5b90614e8f91036101d5565b90565b90614e9d91016101d5565b90565b614ea9906102d9565b90565b614eb590614ea0565b90565b614ec1906102f5565b90565b6dffffffffffffffffffffffffffff1690565b614ee081614ec4565b03614ee757565b5f80fd5b90505190614ef882614ed7565b565b614f0381613114565b03614f0a57565b5f80fd5b90505190614f1b82614efa565b565b9091606082840312614f5257614f4f614f38845f8501614eeb565b93614f468160208601614eeb565b93604001614f0e565b90565b6100b2565b614f6b614f66614f7092614ec4565b6102d6565b6101d5565b90565b369037565b90614f9d614f8583611144565b92602080614f938693610aca565b9201910390614f73565b565b9092614fd290614fc8614fdf9694614fbe60808601975f8701906107fe565b60208501906107fe565b60408301906104ce565b60608184039101526103bc565b90565b9291614fef848390613dfe565b615002614ffc60026118cc565b916101d5565b106153fa5761504c615029615024869594958661501e5f610729565b91613d1c565b6135af565b615046615041878761503b60016118a0565b91613d1c565b6135af565b90615c62565b509261506c61505c868390613dfe565b61506660016118a0565b90614e84565b946150818661507b60016118a0565b90614e84565b9661508a6115b7565b955b8661509f6150998a6101d5565b916101d5565b10156153ef576150b96150b484868a91613d1c565b6135af565b956150e16150dc85876150d68c6150d060016118a0565b90614e92565b91613d1c565b6135af565b9161510e60606150f86150f385614eac565b614eb8565b630902f1ac906151066100ac565b9384926115e3565b8252818061511e600482016101a3565b03915afa80156153ea575f809290916153b0575b5061513f61514591614f57565b91614f57565b9089615159615153856104c2565b916104c2565b145f146153a6576151a2905b60206151786151738d6115c7565b6115d3565b6370a0823190615197889261518b6100ac565b968794859384936115e3565b8352600483016104db565b03915afa9081156153a1576151e0936151cb6151d3936151da955f91615373575b508390614e84565b919091615c99565b99926104c2565b916104c2565b145f1461536357876151f15f610729565b5b97926151fc610a40565b508b61521161520b84926101d5565b916101d5565b105f1461534b576152976152a29992876152a79361529161528c8c7f0000000000000000000000000000000000000000000000000000000000000000956152867f00000000000000000000000000000000000000000000000000000000000000009596929161528060026118cc565b90614e92565b91613d1c565b6135af565b92615d40565b9990995b9993614eac565b614eb8565b9263022c0d9f919093836152c26152bd5f610729565b614f78565b823b15615346575f946152f386926152e8946152dc6100ac565b9a8b98899788966115e3565b865260048601614f9f565b03925af19182156153415761530e92615315575b5096610745565b959461508c565b615334905f3d811161533a575b61532c8183610a8c565b8101906135bc565b5f615307565b503d615322565b611616565b6115df565b505085966152a76152a261535e5f61068a565b61529b565b8761536d5f610729565b976151f2565b615394915060203d811161539a575b61538c8183610a8c565b8101906115f8565b5f6151c3565b503d615382565b611616565b906151a290615165565b61513f925061514591506153da9060603d81116153e3575b6153d28183610a8c565b810190614f1d565b50925090615132565b503d6153c8565b611616565b509650505050505050565b5f632b94ab4360e21b815280615412600482016101a3565b0390fd5b90916154389361542e91615428610a40565b50615c62565b9192909192615d95565b90565b90565b61545261544d6154579261543b565b6102d6565b6101d5565b90565b61546561271061543e565b90565b61547761547d919392936101d5565b926101d5565b916154898382026101d5565b92818404149015171561549857565b610bed565b634e487b7160e01b5f52601260045260245ffd5b6154bd6154c3916101d5565b916101d5565b9081156154ce570490565b61549d565b6154db6115b7565b50816154f66154f06154eb61545a565b6101d5565b916101d5565b11615519576155169161550891615468565b61551061545a565b906154b1565b90565b5f636f5500f360e11b815280615531600482016101a3565b0390fd5b5f7f5452414e534645525f4641494c45440000000000000000000000000000000000910152565b615569600f602092614cae565b61557281615535565b0190565b61558b9060208101905f81830391015261555c565b90565b1561559557565b61559d6100ac565b62461bcd60e51b8152806155b360048201615576565b0390fd5b60446020925f80936155f9966155cb610718565b506040519363a9059cbb60e01b8552600485015260248401525af13d15601f3d1160015f511416171661558e565b565b7faf28d9864a81dfdf71cab65f4e5d79a0cf9b083905fb8971425e6cb581b3f6925d565b906156329161562c610a40565b50615e37565b90565b6156609161565a91615645612872565b90505090615651612b99565b905f9192612c93565b90612cb8565b9091565b61566e600b61150a565b90565b61567b600c611536565b90565b90565b61569561569061569a9261567e565b6102d6565b6101d5565b90565b6156a7600f615681565b90565b6156b4600e61158e565b90565b6156c16010611187565b90565b9160206156e59294936156de60408201965f8301906107fe565b01906107fe565b565b90565b6156fe6156f9615703926156e7565b6102d6565b6101d5565b90565b61571060076156ea565b90565b61571d6006611667565b90565b61572a60096114b2565b90565b6157376008611486565b90565b9190918061575761575161574c615664565b6101d5565b916101d5565b105f14615859578061577861577261576d615706565b6101d5565b916101d5565b145f14615794575061578d9061579292616ba0565b616bc5565b565b806157ae6157a86157a3615713565b6101d5565b916101d5565b145f146157ca57506157c3906157c892616a3e565b616a64565b565b806157e46157de6157d9615720565b6101d5565b916101d5565b145f1461580057506157f9906157fe926167ca565b61689a565b565b918261581b61581561581061572d565b6101d5565b916101d5565b1461584357505061583f91505b5f918291635cda29d760e01b835260048301610fca565b0390fd5b6158579250906158529161652f565b616669565b565b8061587361586d615868615671565b6101d5565b916101d5565b145f146158df57506158849161646e565b9061588e816164a1565b91826158a261589c836101d5565b916101d5565b116158bf5750906158bd91906158b6610a44565b9091616257565b565b90506158db5f9283926312bacdd360e01b8452600484016156c4565b0390fd5b806158f96158f36158ee61569d565b6101d5565b916101d5565b145f14615965575061590a9161646e565b9061591481615f72565b9182615928615922836101d5565b916101d5565b10615945575090615943919061593c610a44565b9091616026565b565b90506159615f928392638b063d7360e01b8452600484016156c4565b0390fd5b8061597f615979615974615664565b6101d5565b916101d5565b145f146159b457506159976159ac916159b293616183565b91929091926159a681946161c4565b926161ed565b91616257565b565b806159ce6159c86159c36156aa565b6101d5565b916101d5565b145f14615a0257506159e66159fa91615a0093615e90565b929092916159f48194615edd565b92616147565b91616026565b565b9182615a1d615a17615a126156b7565b6101d5565b916101d5565b14615a2e57505061583f9150615828565b615a619250615a5b91615a4091615e90565b929092615a56615a508495615edd565b93615f72565b6154d3565b91616026565b565b90615ac69493615a9a92615a75610a40565b50615a7e6115b7565b50615a876115b7565b50615a90610a40565b5091849192615d40565b9390936060615ab0615aab87614eac565b614eb8565b630902f1ac90615abe6100ac565b9485926115e3565b82528180615ad6600482016101a3565b03915afa8015615b64575f80939091615b22575b50615b0a615b03615afd615b1093614f57565b94614f57565b94926104c2565b916104c2565b145f14615b1d57905b9091565b615b19565b615afd9350615b109150615b03615b52615b0a9260603d8111615b5d575b615b4a8183610a8c565b810190614f1d565b509550925050615aea565b503d615b40565b611616565b90565b615b80615b7b615b8592615b69565b6102d6565b6101d5565b90565b90565b615b9f615b9a615ba492615b88565b6102d6565b6101d5565b90565b91615bb06115b7565b5081615bc4615bbe5f610729565b916101d5565b148015615c48575b615c2c57615c13615c02615c2994615bfc615beb615c19968390615468565b615bf66103e8615b6c565b90615468565b93613e02565b615c0d6103e5615b8b565b90615468565b906154b1565b615c2360016118a0565b90612b58565b90565b5f633dce448b60e11b815280615c44600482016101a3565b0390fd5b5080615c5c615c565f610729565b916101d5565b14615bcc565b615c6a610a40565b50615c73610a40565b5080615c87615c81846104c2565b916104c2565b105f14615c9457905b9091565b615c90565b615ca16115b7565b5081615cb5615caf5f610729565b916101d5565b148015615d26575b615d0a57615d0792615cfc615cea615ce3615d0194615cdd6103e5615b8b565b90615468565b9283615468565b93615cf66103e8615b6c565b90615468565b612b58565b906154b1565b90565b5f633dce448b60e11b815280615d22600482016101a3565b0390fd5b5082615d3a615d345f610729565b916101d5565b14615cbd565b92615d6990615d7493615d51610a40565b50615d5a610a40565b50615d63610a40565b50615c62565b909391849192615d95565b91565b601481615d89615d9193839695612984565b018092612984565b0190565b90615e12615e2f93615e03615e3496615ddb615e2a96615db3610a40565b5093615dcc615dc06100ac565b93849260208401615d77565b60208201810382520382610a8c565b615ded615de78261039a565b91612937565b2093615df76100ac565b948593602085016129b4565b60208201810382520382610a8c565b615e24615e1e8261039a565b91612937565b20612a0a565b612a1e565b6102f5565b90565b90615e4b90615e44610a40565b5082610721565b615e64615e5e615e59612b3e565b6101d5565b916101d5565b10615e70573560601c90565b5f633b99b53d60e01b815280615e88600482016101a3565b0390fd5b5f90565b90606090615e9c615e8c565b50615ea5610a40565b50615eae6115b7565b5010615ec4578035916040602083013592013590565b633b99b53d5f526004601cfd5b615eda906102f5565b90565b615ee5610a40565b5080615f00615efa615ef561380a565b6104c2565b916104c2565b145f14615f135750615f10610a44565b90565b80615f2d615f27615f2261383f565b6104c2565b916104c2565b145f14615f415750615f3e30615ed1565b90565b90565b615f4d906102f5565b90565b615f59906112cb565b9052565b9190615f70905f60208501940190615f50565b565b615f7a6115b7565b50615faf7f0000000000000000000000000000000000000000000000000000000000000000615fa830615f44565b8391616da4565b9081615fc3615fbd5f610a58565b916105ac565b12615fd55750615fd290610bd1565b90565b615ff0905f918291634c085bf160e01b835260048301615f5d565b0390fd5b60409061601d616024949695939661601360608401985f850190615f50565b60208301906104ce565b01906107fe565b565b908261603a6160345f610729565b916101d5565b146160e9576160687f0000000000000000000000000000000000000000000000000000000000000000610549565b630b0d9c0992919392813b156160e4575f616096916160a1829661608a6100ac565b988997889687956115e3565b855260048501615ff4565b03925af180156160df576160b3575b50565b6160d2905f3d81116160d8575b6160ca8183610a8c565b8101906135bc565b5f6160b0565b503d6160c0565b611616565b6115df565b505050565b6fffffffffffffffffffffffffffffffff1690565b61611761611261611c9261066b565b6102d6565b6160ee565b90565b6161285f616103565b90565b61613f61613a616144926160ee565b6102d6565b6101d5565b90565b906161506115b7565b508161616b61616561616061611f565b61612b565b916101d5565b145f1461617f5761617c9150615f72565b90565b5090565b9060609061618f615e8c565b506161986115b7565b506161a1610718565b50106161b7578035916040602083013592013590565b633b99b53d5f526004601cfd5b6161cc610a40565b505f146161df576161db610a44565b5b90565b6161e830615ed1565b6161dc565b906161f66115b7565b508161621161620b616206613a93565b6101d5565b916101d5565b145f14616225576162229150616e90565b90565b8161623f61623961623461611f565b61612b565b916101d5565b145f146162535761625091506164a1565b90565b5090565b8261626a6162645f610729565b916101d5565b14616469576162987f0000000000000000000000000000000000000000000000000000000000000000610549565b63a584119482823b15616464576162ce926162c35f80946162b76100ac565b968795869485936115e3565b835260048301615f5d565b03925af1801561645f57616433575b506162e781616f63565b5f1461638b575050602061633861631d7f0000000000000000000000000000000000000000000000000000000000000000610549565b926311da60b490939061632e6100ac565b94859384926115e3565b825281616347600482016101a3565b03925af180156163865761635a575b505b565b61637a9060203d811161637f575b6163728183610a8c565b8101906115f8565b616356565b503d616368565b611616565b9161639892919091616f9a565b6163dc60206163c67f0000000000000000000000000000000000000000000000000000000000000000610549565b6311da60b4906163d46100ac565b9384926115e3565b8252815f816163ed600482016101a3565b03925af1801561642e57616402575b50616358565b6164229060203d8111616427575b61641a8183610a8c565b8101906115f8565b6163fc565b503d616410565b611616565b616452905f3d8111616458575b61644a8183610a8c565b8101906135bc565b5f6162dd565b503d616440565b611616565b6115df565b505050565b919060409061647b615e8c565b506164846115b7565b5010616494576020823592013590565b633b99b53d5f526004601cfd5b6164a96115b7565b506164de7f00000000000000000000000000000000000000000000000000000000000000006164d730615f44565b8391616da4565b90816164f26164ec5f610a58565b916105ac565b1361650c575061650461650991610c01565b610bd1565b90565b616527905f91829163019a8d9360e51b835260048301615f5d565b0390fd5b3690565b906101409061653c61652b565b50106165485780350190565b633b99b53d5f526004601cfd5b61655e816160ee565b0361656557565b5f80fd5b3561657381616555565b90565b3561658081613aa3565b90565b3561658d81611296565b90565b5f80fd5b919060a083820312616604576165fd906165ae60a0610ab5565b936165bb825f83016112aa565b5f8601526165cc82602083016112aa565b60208601526165de8260408301611300565b60408601526165f08260608301611348565b6060860152608001611396565b6080830152565b616590565b616614903690616594565b90565b600f0b90565b61663161662c61663692616617565b6102d6565b6105ac565b90565b6166429061612b565b9052565b91602061666792949361666060408201965f830190616639565b0190616639565b565b61667560c08201616569565b8061668f61668961668461611f565b6160ee565b916160ee565b1461674c575b6166f56166f06166eb6166e66166e16166fa955f8801906166c96166c46166be60a08c01616576565b9261612b565b612d17565b906166d98a610100810190610792565b949093616609565b6171db565b61661d565b610c01565b610bd1565b616ff6565b908161671961671361670e60e08501616569565b6160ee565b916160ee565b11616722575050565b60e061672e9101616569565b6167485f9283926312bacdd360e01b845260048401616646565b0390fd5b5061675960a08201616576565b5f1461679c576166fa6166f56166f06166eb6166e66166e161679061678b61678560205f8b0101616583565b5b6164a1565b616ff6565b95505050505050616695565b6166fa6166f56166f06166eb6166e66166e161679061678b6167c15f808b0101616583565b616786565b3690565b9060a0906167d66167c6565b50106167e25780350190565b633b99b53d5f526004601cfd5b903590600160200381360303821215616831570180359067ffffffffffffffff821161682c5760200191602082023603831361682757565b61078e565b61078a565b610786565b5090565b5f90565b3690565b600161684e91036101d5565b90565b903590600160a00381360303821215616868570190565b610786565b908210156168875760206168849202810190616851565b90565b610754565b616897905f036105ac565b90565b6168b16168ab8260208101906167ef565b90616836565b916168ba61683a565b916168c760408201616569565b916168d35f8301616583565b946168dc61683e565b50836168f76168f16168ec61611f565b6160ee565b916160ee565b14616a21575b949290935b8561691561690f5f610729565b916101d5565b11156169ca57506169a66169a161699c6169976169ab9461697661698161697c61696d6169668e61696061694d8e60208101906167ef565b91909261695a60016118a0565b90614e84565b9161686d565b9b8c617443565b939093156107f9565b9361612b565b612d17565b61698f8a6080810190610792565b9390926171db565b61661d565b61688c565b610bd1565b616ff6565b926169c16169bb5f869501616583565b95616842565b94929093616902565b939450509050816169ee6169e86169e360608501616569565b6160ee565b916160ee565b116169f7575050565b6060616a039101616569565b616a1d5f9283926312bacdd360e01b845260048401616646565b0390fd5b9250616a34616a2f866164a1565b616ff6565b926168fd565b3690565b9061014090616a4b616a3a565b5010616a575780350190565b633b99b53d5f526004601cfd5b616a7060c08201616569565b80616a8a616a84616a7f61611f565b6160ee565b916160ee565b14616b37575b616ae0616adb616ae5925f850190616ac3616abe616ab9616ab360a08a01616576565b9361612b565b612d17565b610c01565b90616ad387610100810190610792565b949093616609565b6171db565b617545565b9081616b04616afe616af960e08501616569565b6160ee565b916160ee565b10616b0d575050565b60e0616b199101616569565b616b335f928392638b063d7360e01b845260048401616646565b0390fd5b50616b4460a08201616576565b5f14616b7a57616ae5616ae0616adb616b71616b6c616b665f80880101616583565b5b615f72565b616ff6565b92505050616a90565b616ae5616ae0616adb616b71616b6c616b9760205f880101616583565b616b67565b3690565b9060a090616bac616b9c565b5010616bb85780350190565b633b99b53d5f526004601cfd5b616bdc616bd68260208101906167ef565b90616836565b90616be561683a565b90616bf15f8201616583565b93616bfe60408301616569565b9283616c19616c13616c0e61611f565b6160ee565b916160ee565b14616d24575b9492616c2961683e565b50616c335f610729565b955b86616c48616c42886101d5565b916101d5565b1015616ccc5750616caa616caf91616c8a616c94616c8f616c81616c7a8c616c748b60208101906167ef565b9061686d565b998a617443565b9390939461612b565b612d17565b61688c565b616ca2886080810190610792565b9390926171db565b617545565b616cc4616cbe5f839601616583565b96610745565b959390616c35565b9450509350905081616cf1616ceb616ce660608501616569565b6160ee565b916160ee565b10616cfa575050565b6060616d069101616569565b616d205f928392638b063d7360e01b845260048401616646565b0390fd5b9250616d37616d3286615f72565b616ff6565b92616c1f565b5f90565b616d4a81612999565b03616d5157565b5f80fd5b90505190616d6282616d41565b565b90602082820312616d7d57616d7a915f01616d55565b90565b6100b2565b616d8b90612999565b9052565b9190616da2905f60208501940190616d82565b565b616e0592602092616db3612ce9565b50616dbc616d3d565b5060018060a01b03165f5260018060a01b03168252616dde60405f2091610549565b616dfa63f135baaa616dee6100ac565b958694859384936115e3565b835260048301616d8f565b03915afa908115616e5b57616e2a91616e25915f91616e2d575b50612a0a565b612d17565b90565b616e4e915060203d8111616e54575b616e468183610a8c565b810190616d64565b5f616e1f565b503d616e3c565b611616565b616e69906102d9565b90565b616e7590616e60565b90565b616e81906102f5565b90565b616e8d906102f5565b90565b616e986115b7565b50616ea281616f63565b5f14616eb65750616eb230616e84565b3190565b6020616ed4616ecf616eca616f06946112cb565b616e6c565b616e78565b6370a0823190616efb616ee630616e84565b92616eef6100ac565b958694859384936115e3565b8352600483016104db565b03915afa908115616f4a575f91616f1c575b5090565b616f3d915060203d8111616f43575b616f358183610a8c565b8101906115f8565b5f616f18565b503d616f2b565b611616565b616f60616f5b5f61068a565b6112cb565b90565b616f7590616f6f610718565b506112cb565b616f96616f90616f8b616f86616f4f565b6112cb565b6104c2565b916104c2565b1490565b91616fa7616fd8936112cb565b91616fd17f0000000000000000000000000000000000000000000000000000000000000000610549565b9192612c3c565b565b616fee616fe9616ff3926101d5565b6102d6565b6160ee565b90565b90616fff61683a565b5061700982616fda565b9161701c6170168461612b565b916101d5565b0361702357565b6393dafdf160e01b61757b565b5f90565b61705173fffd8963efd1fc6a506488495d951d5263988d26612d8f565b90565b9061705f91036102cb565b90565b6170706401000276a3612e13565b90565b9061707e91016102cb565b90565b61708b6060610ab5565b90565b90617098906107f9565b9052565b906170a6906105ac565b9052565b906170b4906102cb565b9052565b6170c1816105ac565b036170c857565b5f80fd5b905051906170d9826170b8565b565b906020828203126170f4576170f1915f016170cc565b90565b6100b2565b90608080617151936171115f8201515f8601906112d7565b617123602082015160208601906112d7565b61713560408201516040860190611321565b61714760608201516060860190611369565b01519101906113c3565b565b61715c906107f9565b9052565b617169906105ac565b9052565b906040806171a1936171855f8201515f860190617153565b61719760208201516020860190617160565b015191019061170a565b565b6171ca6171d895939492946171c06101208401965f8501906170f9565b60a083019061716d565b610100818503910152610feb565b90565b909391926171e7617030565b506172117f0000000000000000000000000000000000000000000000000000000000000000610549565b9163f3cd914c90869286885f1461732c5761723d61722d617062565b6172376001612dcb565b90617073565b905b617247617081565b955f8701906172559161708e565b60208601906172639161709c565b6040850190617271916170aa565b9461727a6100ac565b95869461728786956115e3565b85526004850193617297946171a3565b03815a6020945f91f1908115617327576172d7916172d1915f916172f9575b5093926172cb6172c55f610a58565b916105ac565b126107f9565b916107f9565b145f146172eb576172e790617591565b5b90565b6172f490617582565b6172e8565b61731a915060203d8111617320575b6173128183610a8c565b8101906170db565b5f6172b6565b503d617308565b611616565b617347617337617034565b6173416001612dcb565b90617054565b9061723f565b61735760a0610ab5565b90565b5f90565b5f90565b5f90565b5f90565b61737261734d565b906020808080808661738261735a565b81520161738d61735a565b81520161739861735e565b8152016173a3617362565b8152016173ae617366565b81525050565b6173bc61736a565b90565b6173ce6173d4919392936112cb565b926112cb565b90565b356173e1816112ec565b90565b356173ee81611334565b90565b356173fb81611382565b90565b61740860a0610ab5565b90565b90617415906104c2565b9052565b90617423906112e4565b9052565b906174319061132e565b9052565b9061743f90611376565b9052565b9061744c6173b4565b50617455610718565b506174615f8301616583565b9161746d8284906175a0565b5f146174f1576174ee906174e5617488845b959486906175d0565b9493916174dc61749a602083016173d7565b6174d36174b560606174ae604087016173e4565b95016173f1565b956174ca6174c16173fe565b995f8b0161740b565b6020890161740b565b60408701617419565b60608501617427565b60808301617435565b91565b6174ee906174e56175066174889585906173bf565b959061747f565b61752161751c6175269261066b565b6102d6565b616617565b90565b61753d61753861754292616617565b6102d6565b6160ee565b90565b61754d61683a565b508061756161755b5f61750d565b91616617565b126175725761756f90617529565b90565b6393dafdf160e01b5b5f5260045ffd5b61758a617030565b5060801d90565b617599617030565b50600f0b90565b6175c66175c16175bb6175cc936175b5610718565b506112cb565b936112cb565b6104c2565b916104c2565b1090565b6175f66175f16175eb6175fc936175e5610718565b506112cb565b936112cb565b6104c2565b916104c2565b149056fea26469706673582212202e777033b5db30b8dabe68108c6ebd887d50947ce7b304cbd1154c3be683e8bb64736f6c634300081a0033","linkReferences":{}},"methodIdentifiers":{"V3_POSITION_MANAGER()":"817122dc","V4_POSITION_MANAGER()":"d0c9f6cb","execute(bytes,bytes[])":"24856bc3","execute(bytes,bytes[],uint256)":"3593564c","msgSender()":"d737d0c7","poolManager()":"dc4c90d3","uniswapV3SwapCallback(int256,int256,bytes)":"fa461e33","unlockCallback(bytes)":"91dd7346"},"id":91}