{"abi":[{"type":"constructor","inputs":[{"name":"params","type":"tuple","internalType":"struct RouterParameters","components":[{"name":"permit2","type":"address","internalType":"address"},{"name":"weth9","type":"address","internalType":"address"},{"name":"v2Factory","type":"address","internalType":"address"},{"name":"v3Factory","type":"address","internalType":"address"},{"name":"pairInitCodeHash","type":"bytes32","internalType":"bytes32"},{"name":"poolInitCodeHash","type":"bytes32","internalType":"bytes32"},{"name":"v4PoolManager","type":"address","internalType":"address"},{"name":"v3NFTPositionManager","type":"address","internalType":"address"},{"name":"v4PositionManager","type":"address","internalType":"address"}]}],"stateMutability":"nonpayable"},{"type":"receive","stateMutability":"payable"},{"type":"function","name":"V3_POSITION_MANAGER","inputs":[],"outputs":[{"name":"","type":"address","internalType":"contract INonfungiblePositionManager"}],"stateMutability":"view"},{"type":"function","name":"V4_POSITION_MANAGER","inputs":[],"outputs":[{"name":"","type":"address","internalType":"contract IPositionManager"}],"stateMutability":"view"},{"type":"function","name":"execute","inputs":[{"name":"commands","type":"bytes","internalType":"bytes"},{"name":"inputs","type":"bytes[]","internalType":"bytes[]"}],"outputs":[],"stateMutability":"payable"},{"type":"function","name":"execute","inputs":[{"name":"commands","type":"bytes","internalType":"bytes"},{"name":"inputs","type":"bytes[]","internalType":"bytes[]"},{"name":"deadline","type":"uint256","internalType":"uint256"}],"outputs":[],"stateMutability":"payable"},{"type":"function","name":"msgSender","inputs":[],"outputs":[{"name":"","type":"address","internalType":"address"}],"stateMutability":"view"},{"type":"function","name":"poolManager","inputs":[],"outputs":[{"name":"","type":"address","internalType":"contract IPoolManager"}],"stateMutability":"view"},{"type":"function","name":"uniswapV3SwapCallback","inputs":[{"name":"amount0Delta","type":"int256","internalType":"int256"},{"name":"amount1Delta","type":"int256","internalType":"int256"},{"name":"data","type":"bytes","internalType":"bytes"}],"outputs":[],"stateMutability":"nonpayable"},{"type":"function","name":"unlockCallback","inputs":[{"name":"data","type":"bytes","internalType":"bytes"}],"outputs":[{"name":"","type":"bytes","internalType":"bytes"}],"stateMutability":"nonpayable"},{"type":"error","name":"BalanceTooLow","inputs":[]},{"type":"error","name":"ContractLocked","inputs":[]},{"type":"error","name":"DeltaNotNegative","inputs":[{"name":"currency","type":"address","internalType":"Currency"}]},{"type":"error","name":"DeltaNotPositive","inputs":[{"name":"currency","type":"address","internalType":"Currency"}]},{"type":"error","name":"ETHNotAccepted","inputs":[]},{"type":"error","name":"ExecutionFailed","inputs":[{"name":"commandIndex","type":"uint256","internalType":"uint256"},{"name":"message","type":"bytes","internalType":"bytes"}]},{"type":"error","name":"FromAddressIsNotOwner","inputs":[]},{"type":"error","name":"InputLengthMismatch","inputs":[]},{"type":"error","name":"InsufficientBalance","inputs":[]},{"type":"error","name":"InsufficientETH","inputs":[]},{"type":"error","name":"InsufficientToken","inputs":[]},{"type":"error","name":"InvalidAction","inputs":[{"name":"action","type":"bytes4","internalType":"bytes4"}]},{"type":"error","name":"InvalidBips","inputs":[]},{"type":"error","name":"InvalidCommandType","inputs":[{"name":"commandType","type":"uint256","internalType":"uint256"}]},{"type":"error","name":"InvalidEthSender","inputs":[]},{"type":"error","name":"InvalidPath","inputs":[]},{"type":"error","name":"InvalidReserves","inputs":[]},{"type":"error","name":"LengthMismatch","inputs":[]},{"type":"error","name":"NotAuthorizedForToken","inputs":[{"name":"tokenId","type":"uint256","internalType":"uint256"}]},{"type":"error","name":"NotPoolManager","inputs":[]},{"type":"error","name":"OnlyMintAllowed","inputs":[]},{"type":"error","name":"SliceOutOfBounds","inputs":[]},{"type":"error","name":"TransactionDeadlinePassed","inputs":[]},{"type":"error","name":"UnsafeCast","inputs":[]},{"type":"error","name":"UnsupportedAction","inputs":[{"name":"action","type":"uint256","internalType":"uint256"}]},{"type":"error","name":"V2InvalidPath","inputs":[]},{"type":"error","name":"V2TooLittleReceived","inputs":[]},{"type":"error","name":"V2TooMuchRequested","inputs":[]},{"type":"error","name":"V3InvalidAmountOut","inputs":[]},{"type":"error","name":"V3InvalidCaller","inputs":[]},{"type":"error","name":"V3InvalidSwap","inputs":[]},{"type":"error","name":"V3TooLittleReceived","inputs":[]},{"type":"error","name":"V3TooMuchRequested","inputs":[]},{"type":"error","name":"V4TooLittleReceived","inputs":[{"name":"minAmountOutReceived","type":"uint256","internalType":"uint256"},{"name":"amountReceived","type":"uint256","internalType":"uint256"}]},{"type":"error","name":"V4TooMuchRequested","inputs":[{"name":"maxAmountInRequested","type":"uint256","internalType":"uint256"},{"name":"amountRequested","type":"uint256","internalType":"uint256"}]}],"bytecode":{"object":"0x6101a0604052346102d657604051601f613b6738819003918201601f19168301916001600160401b038311848410176102c257808492610120946040528339810103126102d6576040519061012082016001600160401b038111838210176102c25760405261006d816102f9565b825261007b602082016102f9565b6020830190815261008e604083016102f9565b604084019081526100a1606084016102f9565b93606081019485526080840151946080820195865260a08501519560a083019687526100cf60c087016102f9565b9660c084019788526100f66101006100e960e08a016102f9565b988960e0880152016102f9565b97886101008601526101066102da565b6001600160a01b03988916815298881660208a0190815290519451965190989796871696908116959416936101396102da565b968752602087019586525192519151905160405190936001600160a01b0393841693169060808101906001600160401b038211818310176102c257604091825282815260208101948552808201938452606001948552608091909152905160a05290516001600160a01b0390811660c052915160e052610100929092529151821661012052915181166101405291518216610160529151166101805251613859908161030e8239608051818181610fd60152818161118e01526128b6015260a051818181610fb5015281816111b00152612895015260c051816121bd015260e051816121fd015261010051818181606401528181610311015281816103e80152818161195a01528181611d50015281816131350152818161318e0152818161324d01528181613380015261368a015261012051818181601b015281816114a501526115c4015261014051818181610ce701528181611762015261252d0152610160518181816104bb01528181611a4f0152611af20152610180518181816103870152611ded0152f35b634e487b7160e01b5f52604160045260245ffd5b5f80fd5b60408051919082016001600160401b038111838210176102c257604052565b51906001600160a01b03821682036102d65756fe60c06040526004361015610093575b3615610018575f80fd5b337f00000000000000000000000000000000000000000000000000000000000000006001600160a01b0316141580610060575b61005157005b631c5deabb60e11b5f5260045ffd5b50337f00000000000000000000000000000000000000000000000000000000000000006001600160a01b0316141561004b565b5f3560e01c806324856bc3146105b35780633593564c146104ea578063817122dc146104a657806391dd7346146103b6578063d0c9f6cb14610372578063d737d0c714610340578063dc4c90d3146102fc5763fa461e330361000e573461025a57606036600319011261025a576024356004356044356001600160401b03811161025a5761012590369060040161063a565b5f8313918215806102f2575b6102e35781810160408282031261025a5781356001600160401b03811161025a57820181601f8201121561025a57803561016a81611fd8565b926101786040519485611fb7565b8184526020828401011161025a575f928160208094018483013701015260208101356001600160a01b038116929083900361025a576101b691612104565b90601790602b83106102d4578035968760601c956101e462ffffff8585013560601c9a60481c168a89612157565b336001600160a01b03909116036102c557156102bb57508685105b15610215575050506102139350339161225e565b005b91935091939482602b0180602b116102a757841061025e575082821161025a57918190039101600160ff1b84101561025a57610213936102553391611ff3565b6122b0565b5f80fd5b925050507faf28d9864a81dfdf71cab65f4e5d79a0cf9b083905fb8971425e6cb581b3f6929291925c82116102985761021392339161225e565b6339cedf2960e11b5f5260045ffd5b634e487b7160e01b5f52601160045260245ffd5b95508487106101ff565b6332b13d9160e01b5f5260045ffd5b633b99b53d60e01b5f5260045ffd5b63316cf0eb60e01b5f5260045ffd5b505f851315610131565b3461025a575f36600319011261025a576040517f00000000000000000000000000000000000000000000000000000000000000006001600160a01b03168152602090f35b3461025a575f36600319011261025a576040516001600160a01b035f805160206138048339815191525c168152602090f35b3461025a575f36600319011261025a576040517f00000000000000000000000000000000000000000000000000000000000000006001600160a01b03168152602090f35b3461025a57602036600319011261025a576004356001600160401b03811161025a576103e690369060040161063a565b7f00000000000000000000000000000000000000000000000000000000000000006001600160a01b031633036104975761041f916125b7565b90818303610488575f5b83811061045c57610458604051610441602082611fb7565b5f8152604051918291602083526020830190610697565b0390f35b8061048261046d60019387896106bb565b3560f81c61047c83878761070d565b91612ac3565b01610429565b63aaad13f760e01b5f5260045ffd5b63570c108560e11b5f5260045ffd5b3461025a575f36600319011261025a576040517f00000000000000000000000000000000000000000000000000000000000000006001600160a01b03168152602090f35b606036600319011261025a576004356001600160401b03811161025a5761051590369060040161063a565b6024356001600160401b03811161025a57610534903690600401610667565b9160443542116105a45733301461059b575f805160206138048339815191525c6001600160a01b031661058c5761057a93335f805160206138048339815191525d610728565b5f5f805160206138048339815191525d005b6337affdbf60e11b5f5260045ffd5b61021393610728565b632dfb7c8b60e11b5f5260045ffd5b604036600319011261025a576004356001600160401b03811161025a576105de90369060040161063a565b6024356001600160401b03811161025a576105fd903690600401610667565b9133301461059b575f805160206138048339815191525c6001600160a01b031661058c5761057a93335f805160206138048339815191525d610728565b9181601f8401121561025a578235916001600160401b03831161025a576020838186019501011161025a57565b9181601f8401121561025a578235916001600160401b03831161025a576020808501948460051b01011161025a57565b805180835260209291819084018484015e5f828201840152601f01601f1916010190565b908210156106c7570190565b634e487b7160e01b5f52603260045260245ffd5b903590601e198136030182121561025a57018035906001600160401b03821161025a5760200191813603831361025a57565b908210156106c7576107249160051b8101906106db565b9091565b909392848103611f7957919293905f925b828410610747575050505050565b61075784848495969798946106bb565b359361076486838961070d565b919093606098603f8860f81c1696600197602181105f14611e72576010811015611914576008811015610f345780610a9d57506107a66020880135958861212c565b909690608089013515610a96575f805160206138048339815191525c975b6107ce8a35612424565b9891806080528160a05288600160ff1b14610a21575b50505b604296602b9190600160ff1b81101561025a576080518911610a1a5730915b608051841161025a57610875936040925f60a05135956108938760601c9761084c601760a051013560601c998a81109a62ffffff60018060a01b039460481c1691612157565b16948884146109ff576401000276a4965b88519a8b928a6020850152606084019060a051612003565b6001600160a01b03919091168983015203601f1981018a5289611fb7565b8551630251596160e31b81526001600160a01b039182166004820152602481018890526044810193909352909316606482015260a06084820152948592839182906108e29060a4830190610697565b03925af19081156109f4575f905f926109b8575b6109069350156109b15750611ff3565b608051909611610933573060805160171161025a57601760a051016017608051039060a0526080526107e7565b969198939a9460409198939a9650910135116109a2575b159081610993575b5061096557506001019293949190610739565b9061098f604051928392632c4029e960e01b84526004840152604060248401526044830190610697565b0390fd5b600160ff1b161590505f610952565b631ce9aa4b60e11b5f5260045ffd5b9050611ff3565b9150506040823d82116109ec575b816109d360409383611fb7565b8101031261025a578160206109069351910151916108f6565b3d91506109c6565b6040513d5f823e3d90fd5b73fffd8963efd1fc6a506488495d951d5263988d259661085d565b8991610806565b601491929850106102d4576020602491604051928380926370a0823160e01b82523060048301523560601c5afa9081156109f4575f91610a65575b50955f806107e4565b90506020813d8211610a8e575b81610a7f60209383611fb7565b8101031261025a57515f610a5c565b3d9150610a72565b30976107c4565b6001819c969299949b9798939a959c145f14610b8e575090610ac46020820135928261212c565b608083013515610b87575f805160206138048339815191525c915b6040610aeb8535612424565b9401357faf28d9864a81dfdf71cab65f4e5d79a0cf9b083905fb8971425e6cb581b3f6925d600160ff1b85101561025a57610b299361025586611ff3565b90919015610b785750610b3b90611ff3565b03610b69575f7faf28d9864a81dfdf71cab65f4e5d79a0cf9b083905fb8971425e6cb581b3f6925d5b61094a565b636a70124760e11b5f5260045ffd5b610b829150611ff3565b610b3b565b3091610adf565b60028103610bc55750610b6491604081013591505f805160206138048339815191525c610bbe6020830135612424565b9135612529565b9394919390929060038103610d4b575050508135820163ffffffff60208401351683019163ffffffff83351693602080850194860101910110610d3e57604051632a2d80d160e01b602082019081526001600160a01b035f805160206138048339815191525c1660248301526060604483015293909260e4840192803536829003601e190181121561025a578101602081359101946001600160401b03821161025a578160071b3603861361025a5781906060608489015252610104860194905f905b808210610d205750505093610cd45f96948294610ce29460408a9960018060a01b03610cb660208301612052565b1660a4880152013560c4860152848303602319016064860152612003565b03601f198101835282611fb7565b5190827f00000000000000000000000000000000000000000000000000000000000000006001600160a01b03165af190610d1a612023565b9161094a565b90919560808082610d336001948b6120a6565b019701920190610c88565b633b99b53d5f526004601cfd5b9194939092509060048103610e495750610d686020820135612424565b906001600160a01b036040820135811691351680610db5575047908110610da65780610d96575b505061094a565b610d9f9161266e565b5f80610d8f565b631a84bc4160e21b5f5260045ffd5b91604051916370a0823160e01b8352306004840152602083602481875afa9283156109f4575f93610e16575b508210610e075781610df6575b50505061094a565b610dff92612a54565b5f8080610dee565b630ceb95c760e31b5f5260045ffd5b9092506020813d8211610e41575b81610e3160209383611fb7565b8101031261025a5751915f610de1565b3d9150610e24565b60058103610e705750806040610b6492013590610e696020820135612424565b903561248e565b60068103610f225750604081013590610e8c6020820135612424565b90356001600160a01b031680610eb05750610eaa610b649247612a2b565b9061266e565b906040516370a0823160e01b8152306004820152602081602481865afa9081156109f4575f91610eef575b50610b6493610ee991612a2b565b91612a54565b90506020813d8211610f1a575b81610f0960209383611fb7565b8101031261025a5751610b64610edb565b3d9150610efc565b636bb50f4f60e11b5f5260045260245ffd5b6008819c969299949b9798939a959c145f146111535750610f5a602083013591836123ec565b9060808401351561114c575f805160206138048339815191525c915b610f808535612424565b9282156106c757610f9082612410565b83600110156106c757610fb2610ffa91610fac60208601612410565b9061306a565b907f00000000000000000000000000000000000000000000000000000000000000007f0000000000000000000000000000000000000000000000000000000000000000613081565b948581611132575b5050505f1982018281116102a7576001600160a01b039061102d90611028908585612471565b612410565b1693604051926370a0823160e01b845260018060a01b038516928360048601526020856024818a5afa9485156109f4575f956110f5575b5094611074929160209596612702565b6024604051809581936370a0823160e01b835260048301525afa9182156109f4575f926110c1575b5060406110ac9293013592612481565b101561094a57631093d5f360e31b5f5260045ffd5b91506020823d82116110ed575b816110db60209383611fb7565b8101031261025a57905190604061109c565b3d91506110ce565b92919450946020833d821161112a575b8161111260209383611fb7565b8101031261025a579151919491939091611074611064565b3d9150611105565b6111449261113f85612410565b61225e565b5f8085611002565b3091610f76565b600981036113a9575061116690826123ec565b6080830135156113a2575f805160206138048339815191525c915b61118b8435612424565b917f0000000000000000000000000000000000000000000000000000000000000000937f0000000000000000000000000000000000000000000000000000000000000000955f9560028510611393576020820135975f1986018681116102a7579190825b61122c5750505060400135861161121d5782156106c757610b6495856112189261113f85612410565b612702565b6345585e0b60e11b5f5260045ffd5b90919897505f198901978989116102a75761124e6110286112709a8989612471565b61126561125f6110288d8b8b612471565b8261306a565b8185879d939d613081565b604051630240bc6b60e21b815290916060826004816001600160a01b0387165afa9182156109f4575f905f93611355575b506001600160701b039283169c9216916001600160a01b0391821691160361134f5799905b9980158015611347575b61133857826112de916129fa565b916103e88302928084046103e814901517156102a7576112fd91612481565b6103e58102908082046103e514901517156102a75761131b91612a0d565b600181018091116102a7579880156102a7575f19019190826111ef565b633dce448b60e11b5f5260045ffd5b5081156112d0565b906112c6565b6001600160701b0393508391506113829060603d811161138c575b61137a8183611fb7565b8101906126cc565b50939091506112a1565b503d611370565b6320db826760e01b5f5260045ffd5b3091611181565b93949193909290600a81036114665750505063ffffffff60c08301351682019063ffffffff8235169083602080850194840101910110610d3e576040516302b67b5760e41b602082019081526001600160a01b035f805160206138048339815191525c1660248301525f9485949193610ce2928492610cd4929060a09061143360448701826120a6565b600180831b0361144560808301612052565b1660c4870152013560e4850152610100610104850152610124840191612003565b91949390929091600b810361159957505061148660208201359135612424565b9080600160ff1b8103611583575050475b806114a357505061094a565b7f00000000000000000000000000000000000000000000000000000000000000006001600160a01b031691823b1561025a57604051630d0e30db60e41b81525f8160048186885af180156109f457611573575b506001600160a01b03169030820361150f575b50610d8f565b60446020925f604051958694859363a9059cbb60e01b8552600485015260248401525af180156109f457611545575b8080611509565b6115659060203d811161156c575b61155d8183611fb7565b810190612459565b505f61153e565b503d611553565b5f61157d91611fb7565b5f6114f6565b47101561149757631a84bc4160e21b5f5260045ffd5b600c81036116b85750506115ad8135612424565b6040516370a0823160e01b815230600482015290917f00000000000000000000000000000000000000000000000000000000000000006001600160a01b031690602083602481855afa9283156109f4575f93611684575b50602001358210610da6578161161c5750505061094a565b803b1561025a575f8091602460405180948193632e1a7d4d60e01b83528760048401525af180156109f457611674575b50306001600160a01b03831603611664575b80610dee565b61166d9161266e565b5f8061165e565b5f61167e91611fb7565b5f61164c565b9092506020813d82116116b0575b8161169f60209383611fb7565b8101031261025a5751916020611604565b3d9150611692565b600d819c939c9b929597989b99949699145f1461185b57508a358b01988935946116ea6020808d019e8d030187612251565b116102d4576001600160a01b035f805160206138048339815191525c169a935f5b8681101561174b578c6001600160a01b0361172e600784901b8f01602001612410565b160361173c5760010161170b565b63e700287760e01b5f5260045ffd5b50989593979694929b919a50985060018060a01b037f00000000000000000000000000000000000000000000000000000000000000001690813b1561025a57604051630d58b1db60e01b8152602060048201526024810184905292839160448301915f905b8082106117e55750505091815f81819503925af180156109f4576117d5575b5061094a565b5f6117df91611fb7565b5f6117cf565b9193509160019060809081906001600160a01b0361180288612052565b168152838060a01b0361181760208901612052565b166020820152838060a01b0361182f60408901612052565b166040820152838060a01b0361184760608901612052565b1660608201520194019201859392916117b0565b80929b93989550600e919a97969450145f14610f2257506040516370a0823160e01b81526001600160a01b038235811660048301529091906020908390602490829084860135165afa9182156109f4575f926118e0575b5060400135111580610b64576040516351940b3960e11b602082015260048152909250610d1a602482611fb7565b9091506020813d821161190c575b816118fb60209383611fb7565b8101031261025a57519060406118b2565b3d91506118ee565b6010819c969299949b9798939a959c145f14611a0957506040516348c8949160e01b815260206004820152915f918391829161195591602484019190612003565b0381837f00000000000000000000000000000000000000000000000000000000000000006001600160a01b03165af180156109f457611994575061094a565b3d805f833e6119a38183611fb7565b81019060208183031261025a578051906001600160401b03821161025a570181601f8201121561025a5780516119d881611fd8565b926119e66040519485611fb7565b8184526020828401011161025a575f928160208094018483015e0101525f6117cf565b80929495506011919350145f14611a9457509080356001600160e01b03191663853d008560e01b8101611a825750815f92918392604051928392833781018381520390827f00000000000000000000000000000000000000000000000000000000000000006001600160a01b03165af190610d1a612023565b63f801e52560e01b5f5260045260245ffd5b60128103611c9257505f805160206138048339815191525c9180356001600160e01b031916630624e65f60e11b81148015611c82575b8015611c72575b15611a8257506040516331a9108f60e11b81526004828101359082018190527f00000000000000000000000000000000000000000000000000000000000000006001600160a01b0316949091602081602481895afa9081156109f4575f91611c54575b506001600160a01b039182169116818114918215611be8575b8215611b8f575b505015611b7d575091815f809481946040519384928337810182815203925af190610d1a612023565b63bb25d4c560e01b5f5260045260245ffd5b60405163e985e9c560e01b8152600481019290925260248201529050602081604481885afa9081156109f4575f91611bca575b505f80611b54565b611be2915060203d811161156c5761155d8183611fb7565b5f611bc2565b915060405163020604bf60e21b81528360048201526020816024818a5afa80156109f45783915f91611c26575b506001600160a01b03161491611b4d565b611c47915060203d8111611c4d575b611c3f8183611fb7565b81019061264f565b5f611c15565b503d611c35565b611c6c915060203d8111611c4d57611c3f8183611fb7565b5f611b34565b50630852cd8d60e31b8114611ad1565b5063fc6f786560e01b8114611aca565b60138103611d8357505060405163313b65df60e11b602082019081525f928392906001600160a01b03611cc482612052565b1660248301526001600160a01b03611cde60208301612052565b16604483015262ffffff611cf460408301612066565b166064830152611d0660608201612076565b60020b60848301526001600160a01b03611d2260808301612052565b1660a483015260a001356001600160a01b031660c4808301919091528152611d4b60e482611fb7565b5190827f00000000000000000000000000000000000000000000000000000000000000006001600160a01b03165af190610d1a612023565b60148103610f22575081356001600160e01b0319166322b9af7160e01b8101611a8257508060041161025a57611dc9611dc3600319830160048501612104565b90612104565b5f5b818110611e20575050505f9182914791816040519283928337810184815203917f00000000000000000000000000000000000000000000000000000000000000006001600160a01b03165af190610d1a612023565b611e2b8183856106bb565b3560f81c8015908115611e67575b8115611e5c575b50611e4d57600101611dcb565b635d1d0f9f60e01b5f5260045ffd5b60039150145f611e40565b600181149150611e39565b9097939a506021819a9697929995939a145f14610f22575090611e94916125b7565b611ebe6040959395519460208601966324856bc360e01b8852604060248801526064870191612003565b92602319858503016044860152818452602084019160208160051b86010194845f90601e19813603015b848310611f1e5750505050505050509181611f0f5f9493859403601f198101835282611fb7565b519082305af190610d1a612023565b9091929394959697601f1985820301885288358281121561025a57830190602082359201916001600160401b03811161025a57803603831361025a57611f6960209283928b95612003565b9a01980196959493019190611ee8565b631fec674760e31b5f5260045ffd5b60a081019081106001600160401b03821117611fa357604052565b634e487b7160e01b5f52604160045260245ffd5b90601f801991011681019081106001600160401b03821117611fa357604052565b6001600160401b038111611fa357601f01601f191660200190565b600160ff1b81146102a7575f0390565b908060209392818452848401375f828201840152601f01601f1916010190565b3d1561204d573d9061203482611fd8565b916120426040519384611fb7565b82523d5f602084013e565b606090565b35906001600160a01b038216820361025a57565b359062ffffff8216820361025a57565b35908160020b820361025a57565b9081602091031261025a575190565b359065ffffffffffff8216820361025a57565b60609065ffffffffffff906120fe9083906001600160a01b036120c882612052565b1686526001600160a01b036120df60208301612052565b166020870152836120f260408301612093565b16604087015201612093565b16910152565b909163ffffffff82351682019263ffffffff84351692602080860195850101910110610d3e57565b909163ffffffff60608301351682019263ffffffff84351692602080860195850101910110610d3e57565b916001600160a01b0382811690841611612249575b604080516001600160a01b0394851660208201908152949093169083015262ffffff1660608083019190915281526121a5608082611fb7565b5190206040516001600160f81b0319602082019081527f000000000000000000000000000000000000000000000000000000000000000060601b6bffffffffffffffffffffffff1916602183015260358201929092527f000000000000000000000000000000000000000000000000000000000000000060558201529061223982607581015b03601f198101845283611fb7565b905190206001600160a01b031690565b90919061216c565b919082018092116102a757565b909291906001600160a01b038416300361227e5761227c935061248e565b565b91926001600160a01b0384116122a15761227c936001600160a01b031692612529565b63c4bd89a960e01b5f5260045ffd5b9092602b81106102d457825f60409435956123838760601c9361233b601782013560601c996122f4878c1097889c62ffffff60018060a01b039460481c1691612157565b16968686146123d1576401000276a49b5b61231d8b519485938d60208601526060850191612003565b6001600160a01b03919091168b83015203601f198101835282611fb7565b8751998a9788968795630251596160e31b875260018060a01b031660048701526024860152604485015260018060a01b0316606484015260a0608484015260a4830190610697565b03925af180156109f4575f925f9161239a57509192565b9250506040823d6040116123c9575b816123b660409383611fb7565b8101031261025a57602082519201519192565b3d91506123a9565b73fffd8963efd1fc6a506488495d951d5263988d259b612305565b916060830135830191612409602084359581860195030185612251565b116102d457565b356001600160a01b038116810361025a5790565b6001600160a01b0381166001810361244a5750505f805160206138048339815191525c90565b60020361245657503090565b90565b9081602091031261025a5751801515810361025a5790565b91908110156106c75760051b0190565b919082039182116102a757565b9091906001600160a01b0316806124a9575061227c9161266e565b600160ff1b82146124bf575b9161227c92612a54565b6040516370a0823160e01b815230600482015292909150602083602481855afa80156109f4575f906124f5575b909250906124b5565b506020833d602011612521575b8161250f60209383611fb7565b8101031261025a5761227c92516124ec565b3d9150612502565b91907f00000000000000000000000000000000000000000000000000000000000000006001600160a01b031690813b1561025a57604051631b63c28b60e11b81526001600160a01b039182166004820152928116602484015293841660448301529190921660648301525f908290608490829084905af180156109f4576125ad5750565b5f61227c91611fb7565b604081351891606082019363ffffffff6040840135169363ffffffe0601f8601169060608201602086013518179084019260608401359463ffffffff861694641fffffffe0608082019760051b1680915f925b808410612622575060809250010191011017610d3e57565b90916020809163ffffffe0601f60808089890101359b848d18179b8801013501160101930192919061260a565b9081602091031261025a57516001600160a01b038116810361025a5790565b5f80809381935af11561267d57565b60405162461bcd60e51b815260206004820152601360248201527211551217d514905394d1915497d19052531151606a1b6044820152606490fd5b51906001600160701b038216820361025a57565b9081606091031261025a576126e0816126b8565b9160406126ef602084016126b8565b92015163ffffffff8116810361025a5790565b91600282106129eb5781156106c75761271a83612410565b82600110156106c75761273690610fac60208697959601612410565b506001198401945f198501945f9460209392869290915b8884106127605750505050505050505050565b61276e611028858486612471565b94612780611028600187018587612471565b604051630240bc6b60e21b81526001600160a01b03909316969092916060836004818b5afa9182156109f457895f945f946129b8575b506001600160a01b039182169290911682149391926024926001600160701b0391821692911685156129b25791935b604051938480926370a0823160e01b82528d60048301525afa9182156109f4575f92612983575b508082039281159283801561297b575b61133857826103e586029586046103e514911417156102a75761283f90846129fa565b916103e882029182046103e81417156102a7576128659261285f91612251565b90612a0d565b9015612974575f90915b8b86101561296b57906128906128da92610fac61102860028a01888a612471565b8193917f00000000000000000000000000000000000000000000000000000000000000007f0000000000000000000000000000000000000000000000000000000000000000613081565b915b96604051906128eb8a83611fb7565b5f82528b368b840137803b1561025a5761293f945f80946040519788958694859363022c0d9f60e01b85526004850152602484015260018060a01b0389166044840152608060648401526084830190610697565b03925af19182156109f45760019261295b575b5093019261274d565b5f61296591611fb7565b5f612952565b5087905f6128dc565b5f9161286f565b50811561281c565b9091508981813d83116129ab575b61299b8183611fb7565b8101031261025a5751905f61280c565b503d612991565b936127e5565b6001600160701b03955060249394506129df869160603d811161138c5761137a8183611fb7565b509096509493506127b6565b632b94ab4360e21b5f5260045ffd5b818102929181159184041417156102a757565b8115612a17570490565b634e487b7160e01b5f52601260045260245ffd5b6127108211612a455761271091612a41916129fa565b0490565b636f5500f360e11b5f5260045ffd5b5f91826044926020956040519363a9059cbb60e01b8552600485015260248401525af13d15601f3d1160015f511416171615612a8c57565b60405162461bcd60e51b815260206004820152600f60248201526e1514905394d1915497d19052531151608a1b6044820152606490fd5b929190600b841015612f035760078403612bf857612ae292935061346f565b6020810190612af1828261347d565b90505f92612afe83612410565b90612b0b604085016133e5565b906001600160801b03821615612bdf575b92915f915b838310612b775750505050506060016001600160801b0380612b42836133e5565b169216918210612b50575050565b612b616001600160801b03916133e5565b638b063d7360e01b5f521660045260245260445ffd5b8496506001600160801b03612bc391612baa612ba386612b9d612bc89798999a8c61347d565b906134b2565b9586613725565b612bb760808801886106db565b949093165f03916135b5565b6137ed565b946001612bd58793612410565b9194930191612b21565b9050612bf2612bed8361312e565b613592565b90612b1c565b60068403612cd457612c0b9293506133d6565b612c1760c082016133e5565b6001600160801b03811615612c83575b612c6f612bc360e092612c4e6001600160801b03612c4760a088016133f9565b9216611ff3565b90612c5d6101008701876106db565b929091612c6a3689613406565b6135b5565b91016001600160801b0380612b42836133e5565b50612c9060a082016133f9565b15612cba5760e0612c6f612bc3612cb1612bed612cac86612410565b61312e565b92505050612c27565b60e0612c6f612bc3612cb1612bed612cac60208701612410565b60098403612dfc57612ce792935061346f565b6020810190612cf6828261347d565b5f939150612d06604084016133e5565b612d0f84612410565b916001600160801b03821615612de8575b92919290815b612d7857505050506060016001600160801b0380612d43836133e5565b169216918211612d51575050565b612d626001600160801b03916133e5565b6312bacdd360e01b5f521660045260245260445ffd5b829395506001600160801b03612dc791612dad612da6612d9c612dd196978a61347d565b5f198901916134b2565b9889613725565b90612dbb60808b018b6106db565b949093169115906135b5565b600f0b5f03613592565b93612ddc8591612410565b92915f19019081612d26565b9050612df6612bed83613379565b90612d20565b60088414612e1a575050505b635cda29d760e01b5f5260045260245ffd5b612e259293506133d6565b612e3160c082016133e5565b6001600160801b03811615612e9a575b612e86612bed612e7e6001600160801b0360e094612e6160a088016133f9565b612e6f6101008901896106db565b9390921690612c6a368a613406565b600f0b611ff3565b91016001600160801b0380612d43836133e5565b50612ea760a082016133f9565b15612ee15760e0612e86612bed612e7e6001600160801b03612ed6612bed612ed160208901612410565b613379565b945050505050612e41565b60e0612e86612bed612e7e6001600160801b03612ed6612bed612ed188612410565b92600c8103612f5b5750612f179192613366565b90612f2181613379565b91808311612f4457509061227c915f805160206138048339815191525c90613243565b90506312bacdd360e01b5f5260045260245260445ffd5b600f8103612fb25750612f6e9192613366565b90612f788161312e565b91808310612f9b57509061227c915f805160206138048339815191525c90613185565b9050638b063d7360e01b5f5260045260245260445ffd5b600b8103612ff85750612fc99061227c9293613116565b15612fed57612fe7825f805160206138048339815191525c9261321e565b91613243565b612fe782309261321e565b600e810361302b575061301f6130156130259261227c9495613116565b9282949291612424565b9261320a565b91613185565b926010841461303c57505050612e08565b61227c92935061305261305b9261302592613116565b92919390612424565b916130658461312e565b612a2b565b6001600160a01b0382811690821610156107245791565b9161223991936040519060208201926bffffffffffffffffffffffff199060601b1683526bffffffffffffffffffffffff199060601b166034820152602881526130cc604882611fb7565b5190206040516001600160f81b03196020820190815260609490941b6bffffffffffffffffffffffff1916602182015260358101919091526055810193909352826075810161222b565b90606011610d3e578035916040602083013592013590565b61315981307f00000000000000000000000000000000000000000000000000000000000000006134d4565b905f8212613165575090565b634c085bf160e01b5f9081526001600160a01b0391909116600452602490fd5b908215613205577f00000000000000000000000000000000000000000000000000000000000000006001600160a01b0316803b1561025a57604051630b0d9c0960e01b81526001600160a01b03938416600482015291909216602482015260448101929092525f908290606490829084905af180156109f4576125ad5750565b505050565b908161321a57612456915061312e565b5090565b90600160ff1b8203613234576124569150613550565b8161321a576124569150613379565b5f918315613360577f00000000000000000000000000000000000000000000000000000000000000006001600160a01b031691823b1561025a57604051632961046560e21b81526001600160a01b0390911660048201819052905f8160248183885af180156109f45761334b575b5080613317575050602090600460405180958193630476982d60e21b83525af190811561330b57506132e05750565b6133019060203d602011613304575b6132f98183611fb7565b810190612084565b50565b503d6132ef565b604051903d90823e3d90fd5b839483602094936133279361225e565b600460405180958193630476982d60e21b83525af190811561330b57506132e05750565b6133589194505f90611fb7565b5f925f6132b1565b50505050565b9190604011610d3e576020823592013590565b6133a481307f00000000000000000000000000000000000000000000000000000000000000006134d4565b905f82136133b6575061245690611ff3565b63019a8d9360e51b5f9081526001600160a01b0391909116600452602490fd5b9061014011610d3e5780350190565b356001600160801b038116810361025a5790565b35801515810361025a5790565b91908260a091031261025a5760405161341e81611f88565b608061346a81839561342f81612052565b855261343d60208201612052565b602086015261344e60408201612066565b604086015261345f60608201612076565b606086015201612052565b910152565b9060a011610d3e5780350190565b903590601e198136030182121561025a57018035906001600160401b03821161025a57602001918160051b3603831361025a57565b91908110156106c75760051b81013590609e198136030182121561025a570190565b6001600160a01b039182165f9081529282166020908152604093849020935163789add5560e11b815260048101949094529183916024918391165afa9081156109f4575f91613521575090565b90506020813d602011613548575b8161353c60209383611fb7565b8101031261025a575190565b3d915061352f565b6001600160a01b03168061356357504790565b6020602491604051928380926370a0823160e01b82523060048301525afa9081156109f4575f91613521575090565b906001600160801b0382168092036135a657565b6393dafdf160e01b5f5260045ffd5b9392811561370a576401000276a4945b6040519160608301908382106001600160401b03831117611fa357604091825293151580845260208481018781526001600160a01b03998a168685019081528451633cf3645360e21b815286518c166004820152868401518c1660248201529486015162ffffff166044860152606086015160020b60648601526080909501518a1660848501529451151560a4840152935160c4830152915190961660e48701526101206101048701529390918591829161368591610124840191612003565b03815f7f00000000000000000000000000000000000000000000000000000000000000006001600160a01b03165af19283156109f4575f936136d6575b505f13036136d057600f0b90565b60801d90565b9092506020813d602011613702575b816136f260209383611fb7565b8101031261025a5751915f6136c2565b3d91506136e5565b73fffd8963efd1fc6a506488495d951d5263988d25946135c5565b905f608060405161373581611f88565b828152826020820152826040820152826060820152015261375582612410565b6001600160a01b0382811692908216808410156137e357505b6001600160a01b031691821492602081013562ffffff81169081900361025a576040820135918260020b80930361025a57606001359260018060a01b03841680940361025a57604051946137c186611f88565b85526001600160a01b0316602085015260408401526060830152608082015291565b915050819061376e565b5f81600f0b126135a6576001600160801b03169056fe0e87e1788ebd9ed6a7e63c70a374cd3283e41cad601d21fbe27863899ed4a708a2646970667358221220beabf67dfeb0e11aff195937f8d5a4b4e6ab6db8888e3a33112640d83b6fe59c64736f6c634300081a0033","linkReferences":{}},"methodIdentifiers":{"V3_POSITION_MANAGER()":"817122dc","V4_POSITION_MANAGER()":"d0c9f6cb","execute(bytes,bytes[])":"24856bc3","execute(bytes,bytes[],uint256)":"3593564c","msgSender()":"d737d0c7","poolManager()":"dc4c90d3","uniswapV3SwapCallback(int256,int256,bytes)":"fa461e33","unlockCallback(bytes)":"91dd7346"},"id":54}