{"abi":[{"type":"function","name":"fakeIndiv","inputs":[{"name":"","type":"uint256","internalType":"uint256"}],"outputs":[{"name":"","type":"uint256","internalType":"uint256"}],"stateMutability":"view"},{"type":"function","name":"fakeTotal","inputs":[],"outputs":[{"name":"","type":"uint256","internalType":"uint256"}],"stateMutability":"view"},{"type":"function","name":"getIndexMarketCaps","inputs":[{"name":"","type":"address[]","internalType":"address[]"}],"outputs":[{"name":"totalMarketCap","type":"uint256","internalType":"uint256"},{"name":"individualMarketCaps","type":"uint256[]","internalType":"uint256[]"}],"stateMutability":"view"},{"type":"function","name":"getTokenMarketCap","inputs":[{"name":"","type":"address","internalType":"address"}],"outputs":[{"name":"","type":"uint256","internalType":"uint256"}],"stateMutability":"pure"},{"type":"function","name":"getTokenPrice","inputs":[{"name":"","type":"address","internalType":"address"}],"outputs":[{"name":"","type":"uint256","internalType":"uint256"}],"stateMutability":"pure"},{"type":"function","name":"setIndexMarketCaps","inputs":[{"name":"_total","type":"uint256","internalType":"uint256"},{"name":"_indiv","type":"uint256[]","internalType":"uint256[]"}],"outputs":[],"stateMutability":"nonpayable"}],"bytecode":{"object":"0x608060405234601c57600e6020565b6108fc61002b82396108fc90f35b6026565b60405190565b5f80fdfe60806040526004361015610013575b610507565b61001d5f3561007c565b806329f06f541461007757806339dbc3df146100725780636897960c1461006d5780638f47ba5414610068578063b60d4bd9146100635763d02641a00361000e576104d2565b61049e565b6103df565b61038e565b610276565b6101d2565b60e01c90565b60405190565b5f80fd5b5f80fd5b5f80fd5b5f80fd5b5f80fd5b5f80fd5b909182601f830112156100da5781359167ffffffffffffffff83116100d55760200192602083028401116100d057565b61009c565b610098565b610094565b90602082820312610110575f82013567ffffffffffffffff811161010b5761010792016100a0565b9091565b610090565b61008c565b90565b61012190610115565b9052565b5190565b60209181520190565b60200190565b61014190610115565b9052565b9061015281602093610138565b0190565b60200190565b9061017961017361016c84610125565b8093610129565b92610132565b905f5b8181106101895750505090565b9091926101a261019c6001928651610145565b94610156565b910191909161017c565b916101cf926101c260408201935f830190610118565b602081840391015261015c565b90565b34610204576101eb6101e53660046100df565b9061062f565b906102006101f7610082565b928392836101ac565b0390f35b610088565b60018060a01b031690565b61021d90610209565b90565b61022981610214565b0361023057565b5f80fd5b9050359061024182610220565b565b9060208282031261025c57610259915f01610234565b90565b61008c565b9190610274905f60208501940190610118565b565b346102a6576102a261029161028c366004610243565b61067c565b610299610082565b91829182610261565b0390f35b610088565b6102b481610115565b036102bb57565b5f80fd5b905035906102cc826102ab565b565b906020828203126102e7576102e4915f016102bf565b90565b61008c565b634e487b7160e01b5f52603260045260245ffd5b5490565b5f5260205f2090565b61031681610300565b82101561033057610328600191610304565b910201905f90565b6102ec565b1c90565b90565b61034c9060086103519302610335565b610339565b90565b9061035f915461033c565b90565b600161036d81610300565b82101561038a57610387916103819161030d565b90610354565b90565b5f80fd5b346103be576103ba6103a96103a43660046102ce565b610362565b6103b1610082565b91829182610261565b0390f35b610088565b5f9103126103cd57565b61008c565b6103dc5f80610354565b90565b3461040f576103ef3660046103c3565b61040b6103fa6103d2565b610402610082565b91829182610261565b0390f35b610088565b909182601f8301121561044e5781359167ffffffffffffffff831161044957602001926020830284011161044457565b61009c565b610098565b610094565b9190916040818403126104945761046c835f83016102bf565b92602082013567ffffffffffffffff811161048f5761048b9201610414565b9091565b610090565b61008c565b5f0190565b346104cd576104b76104b1366004610453565b91610878565b6104bf610082565b806104c981610499565b0390f35b610088565b34610502576104fe6104ed6104e8366004610243565b6108af565b6104f5610082565b91829182610261565b0390f35b610088565b5f80fd5b5f90565b606090565b5f1c90565b61052561052a91610514565b610339565b90565b6105379054610519565b90565b60209181520190565b61054d9054610519565b90565b60010190565b9061057361056d61056684610300565b809361053a565b92610304565b905f5b8181106105835750505090565b9091926105a361059d60019261059887610543565b610145565b94610550565b9101919091610576565b906105b791610556565b90565b601f801991011690565b634e487b7160e01b5f52604160045260245ffd5b906105e2906105ba565b810190811067ffffffffffffffff8211176105fc57604052565b6105c4565b9061062161061a92610611610082565b938480926105ad565b03836105d8565b565b61062c90610601565b90565b505061063961050b565b5061064261050f565b5061064c5f61052d565b906106576001610623565b90565b90565b90565b61067461066f6106799261065a565b61065d565b610115565b90565b5061068561050b565b5061068f5f610660565b90565b5f1b90565b906106a35f1991610692565b9181191691161790565b6106c16106bc6106c692610115565b61065d565b610115565b90565b90565b906106e16106dc6106e8926106ad565b6106c9565b8254610697565b9055565b600190818003010490565b1b90565b919060086107169102916107105f19846106f7565b926106f7565b9181191691161790565b919061073661073161073e936106ad565b6106c9565b9083546106fb565b9055565b6107549161074e61050b565b91610720565b565b5b818110610762575050565b8061076f5f600193610742565b01610757565b9091828110610784575b505050565b6107a261079c6107966107ad956106ec565b926106ec565b92610304565b918201910190610756565b5f808061077f565b906801000000000000000081116107de57816107d36107dc93610300565b90828155610775565b565b6105c4565b5090565b356107f1816102ab565b90565b90565b909161080390836107e3565b9167ffffffffffffffff83116108665761083161082b60019261082686866107b5565b6107f4565b92610304565b9204915f5b8381106108435750505050565b6001906020610859610854866107e7565b6106c9565b9401938184015501610836565b6105c4565b9061087692916107f7565b565b9061088761088e93925f6106cc565b600161086b565b565b90565b6108a76108a26108ac92610890565b61065d565b610115565b90565b506108b861050b565b506108c36001610893565b9056fea2646970667358221220b52909b481d449d8a73a0ae6f864fed59b48f10eaca3c88bb1b951d8ecb7b44164736f6c634300081a0033","linkReferences":{}},"methodIdentifiers":{"fakeIndiv(uint256)":"6897960c","fakeTotal()":"8f47ba54","getIndexMarketCaps(address[])":"29f06f54","getTokenMarketCap(address)":"39dbc3df","getTokenPrice(address)":"d02641a0","setIndexMarketCaps(uint256,uint256[])":"b60d4bd9"},"id":15}