{"abi":[{"type":"function","name":"fakeIndiv","inputs":[{"name":"","type":"uint256","internalType":"uint256"}],"outputs":[{"name":"","type":"uint256","internalType":"uint256"}],"stateMutability":"view"},{"type":"function","name":"fakeTotal","inputs":[],"outputs":[{"name":"","type":"uint256","internalType":"uint256"}],"stateMutability":"view"},{"type":"function","name":"getIndexMarketCaps","inputs":[{"name":"","type":"address[]","internalType":"address[]"}],"outputs":[{"name":"totalMarketCap","type":"uint256","internalType":"uint256"},{"name":"individualMarketCaps","type":"uint256[]","internalType":"uint256[]"}],"stateMutability":"view"},{"type":"function","name":"getTokenMarketCap","inputs":[{"name":"","type":"address","internalType":"address"}],"outputs":[{"name":"","type":"uint256","internalType":"uint256"}],"stateMutability":"pure"},{"type":"function","name":"getTokenPrice","inputs":[{"name":"","type":"address","internalType":"address"}],"outputs":[{"name":"","type":"uint256","internalType":"uint256"}],"stateMutability":"pure"},{"type":"function","name":"setIndexMarketCaps","inputs":[{"name":"_total","type":"uint256","internalType":"uint256"},{"name":"_indiv","type":"uint256[]","internalType":"uint256[]"}],"outputs":[],"stateMutability":"nonpayable"}],"bytecode":{"object":"0x60808060405234601557610359908161001a8239f35b5f80fdfe6080806040526004361015610012575f80fd5b5f3560e01c90816329f06f54146101f55750806339dbc3df146101c85780636897960c1461018b5780638f47ba541461016f578063b60d4bd9146100905763d02641a01461005e575f80fd5b3461008c57602036600319011261008c576004356001600160a01b0381160361008c57602060405160018152f35b5f80fd5b3461008c57604036600319011261008c5760243567ffffffffffffffff811161008c576100c19036906004016102d2565b906004355f5567ffffffffffffffff821161015b5768010000000000000000821161015b5760015482600155808310610123575b50905f5b81811061010257005b60019060208435940193815f805160206103048339815191520155016100f9565b5f8051602061030483398151915201825f80516020610304833981519152015b81811061015057506100f5565b5f8155600101610143565b634e487b7160e01b5f52604160045260245ffd5b3461008c575f36600319011261008c5760205f54604051908152f35b3461008c57602036600319011261008c5760043560015481101561008c5760209060015f525f805160206103048339815191520154604051908152f35b3461008c57602036600319011261008c576004356001600160a01b0381160361008c5760206040515f8152f35b3461008c57602036600319011261008c5760043567ffffffffffffffff811161008c576102269036906004016102d2565b50505f546001549081835260208301809260015f525f80516020610304833981519152905f5b8181106102bc57505050839003601f01601f191683019267ffffffffffffffff84118185101761015b5760408481529184526020840182905251908301819052829160608301915f5b8181106102a3575050500390f35b8251845285945060209384019390920191600101610295565b825484526020909301926001928301920161024c565b9181601f8401121561008c5782359167ffffffffffffffff831161008c576020808501948460051b01011161008c5756feb10e2d527612073b26eecdfd717e6a320cf44b4afac2b0732d9fcbe2b7fa0cf6a264697066735822122049065ab679436af04dc13bc0982faad7b8ed150bd584ec70d8d1241b7a95939f64736f6c634300081a0033","linkReferences":{}},"methodIdentifiers":{"fakeIndiv(uint256)":"6897960c","fakeTotal()":"8f47ba54","getIndexMarketCaps(address[])":"29f06f54","getTokenMarketCap(address)":"39dbc3df","getTokenPrice(address)":"d02641a0","setIndexMarketCaps(uint256,uint256[])":"b60d4bd9"},"id":15}