{"abi":[{"type":"constructor","inputs":[{"name":"name_","type":"string","internalType":"string"},{"name":"symbol_","type":"string","internalType":"string"},{"name":"owner_","type":"address","internalType":"address"}],"stateMutability":"nonpayable"},{"type":"function","name":"acceptOwnership","inputs":[],"outputs":[],"stateMutability":"nonpayable"},{"type":"function","name":"allowance","inputs":[{"name":"owner","type":"address","internalType":"address"},{"name":"spender","type":"address","internalType":"address"}],"outputs":[{"name":"","type":"uint256","internalType":"euint64"}],"stateMutability":"view"},{"type":"function","name":"approve","inputs":[{"name":"spender","type":"address","internalType":"address"},{"name":"amount","type":"uint256","internalType":"euint64"}],"outputs":[{"name":"","type":"bool","internalType":"bool"}],"stateMutability":"nonpayable"},{"type":"function","name":"approve","inputs":[{"name":"spender","type":"address","internalType":"address"},{"name":"encryptedAmount","type":"bytes32","internalType":"einput"},{"name":"inputProof","type":"bytes","internalType":"bytes"}],"outputs":[{"name":"","type":"bool","internalType":"bool"}],"stateMutability":"nonpayable"},{"type":"function","name":"balanceOf","inputs":[{"name":"account","type":"address","internalType":"address"}],"outputs":[{"name":"","type":"uint256","internalType":"euint64"}],"stateMutability":"view"},{"type":"function","name":"burn","inputs":[{"name":"amount","type":"uint64","internalType":"uint64"}],"outputs":[],"stateMutability":"nonpayable"},{"type":"function","name":"decimals","inputs":[],"outputs":[{"name":"","type":"uint8","internalType":"uint8"}],"stateMutability":"view"},{"type":"function","name":"errorGetCounter","inputs":[],"outputs":[{"name":"errorsCount","type":"uint256","internalType":"uint256"}],"stateMutability":"view"},{"type":"function","name":"getErrorCodeForTransferId","inputs":[{"name":"transferId","type":"uint256","internalType":"uint256"}],"outputs":[{"name":"errorCode","type":"uint256","internalType":"euint8"}],"stateMutability":"view"},{"type":"function","name":"mint","inputs":[{"name":"to","type":"address","internalType":"address"},{"name":"amount","type":"uint64","internalType":"uint64"}],"outputs":[],"stateMutability":"nonpayable"},{"type":"function","name":"name","inputs":[],"outputs":[{"name":"","type":"string","internalType":"string"}],"stateMutability":"view"},{"type":"function","name":"owner","inputs":[],"outputs":[{"name":"","type":"address","internalType":"address"}],"stateMutability":"view"},{"type":"function","name":"pendingOwner","inputs":[],"outputs":[{"name":"","type":"address","internalType":"address"}],"stateMutability":"view"},{"type":"function","name":"renounceOwnership","inputs":[],"outputs":[],"stateMutability":"nonpayable"},{"type":"function","name":"symbol","inputs":[],"outputs":[{"name":"","type":"string","internalType":"string"}],"stateMutability":"view"},{"type":"function","name":"totalSupply","inputs":[],"outputs":[{"name":"","type":"uint64","internalType":"uint64"}],"stateMutability":"view"},{"type":"function","name":"transfer","inputs":[{"name":"to","type":"address","internalType":"address"},{"name":"encryptedAmount","type":"bytes32","internalType":"einput"},{"name":"inputProof","type":"bytes","internalType":"bytes"}],"outputs":[{"name":"","type":"bool","internalType":"bool"}],"stateMutability":"nonpayable"},{"type":"function","name":"transfer","inputs":[{"name":"to","type":"address","internalType":"address"},{"name":"amount","type":"uint256","internalType":"euint64"}],"outputs":[{"name":"","type":"bool","internalType":"bool"}],"stateMutability":"nonpayable"},{"type":"function","name":"transferFrom","inputs":[{"name":"from","type":"address","internalType":"address"},{"name":"to","type":"address","internalType":"address"},{"name":"amount","type":"uint256","internalType":"euint64"}],"outputs":[{"name":"","type":"bool","internalType":"bool"}],"stateMutability":"nonpayable"},{"type":"function","name":"transferFrom","inputs":[{"name":"from","type":"address","internalType":"address"},{"name":"to","type":"address","internalType":"address"},{"name":"encryptedAmount","type":"bytes32","internalType":"einput"},{"name":"inputProof","type":"bytes","internalType":"bytes"}],"outputs":[{"name":"","type":"bool","internalType":"bool"}],"stateMutability":"nonpayable"},{"type":"function","name":"transferOwnership","inputs":[{"name":"newOwner","type":"address","internalType":"address"}],"outputs":[],"stateMutability":"nonpayable"},{"type":"event","name":"Approval","inputs":[{"name":"owner","type":"address","indexed":true,"internalType":"address"},{"name":"spender","type":"address","indexed":true,"internalType":"address"},{"name":"placeholder","type":"uint256","indexed":false,"internalType":"uint256"}],"anonymous":false},{"type":"event","name":"Burn","inputs":[{"name":"to","type":"address","indexed":true,"internalType":"address"},{"name":"amount","type":"uint64","indexed":false,"internalType":"uint64"}],"anonymous":false},{"type":"event","name":"Mint","inputs":[{"name":"to","type":"address","indexed":true,"internalType":"address"},{"name":"amount","type":"uint64","indexed":false,"internalType":"uint64"}],"anonymous":false},{"type":"event","name":"OwnershipTransferStarted","inputs":[{"name":"previousOwner","type":"address","indexed":true,"internalType":"address"},{"name":"newOwner","type":"address","indexed":true,"internalType":"address"}],"anonymous":false},{"type":"event","name":"OwnershipTransferred","inputs":[{"name":"previousOwner","type":"address","indexed":true,"internalType":"address"},{"name":"newOwner","type":"address","indexed":true,"internalType":"address"}],"anonymous":false},{"type":"event","name":"Transfer","inputs":[{"name":"from","type":"address","indexed":true,"internalType":"address"},{"name":"to","type":"address","indexed":true,"internalType":"address"},{"name":"transferId","type":"uint256","indexed":false,"internalType":"uint256"}],"anonymous":false},{"type":"error","name":"ERC20InsufficientAllowance","inputs":[{"name":"spender","type":"address","internalType":"address"},{"name":"allowance","type":"uint256","internalType":"uint256"},{"name":"needed","type":"uint256","internalType":"uint256"}]},{"type":"error","name":"ERC20InsufficientBalance","inputs":[{"name":"sender","type":"address","internalType":"address"},{"name":"balance","type":"uint256","internalType":"uint256"},{"name":"needed","type":"uint256","internalType":"uint256"}]},{"type":"error","name":"ERC20InvalidApprover","inputs":[{"name":"approver","type":"address","internalType":"address"}]},{"type":"error","name":"ERC20InvalidReceiver","inputs":[{"name":"receiver","type":"address","internalType":"address"}]},{"type":"error","name":"ERC20InvalidSender","inputs":[{"name":"sender","type":"address","internalType":"address"}]},{"type":"error","name":"ERC20InvalidSpender","inputs":[{"name":"spender","type":"address","internalType":"address"}]},{"type":"error","name":"ErrorIndexInvalid","inputs":[]},{"type":"error","name":"ErrorIndexIsNull","inputs":[]},{"type":"error","name":"OwnableInvalidOwner","inputs":[{"name":"owner","type":"address","internalType":"address"}]},{"type":"error","name":"OwnableUnauthorizedAccount","inputs":[{"name":"account","type":"address","internalType":"address"}]},{"type":"error","name":"TFHESenderNotAllowed","inputs":[]},{"type":"error","name":"TotalNumberErrorCodesEqualToZero","inputs":[]}],"bytecode":{"object":"0x60a0604052346100405761001a6100146101df565b91610202565b610022610045565b612c4e610da182396080518181816119bd0152611c0c0152612c4e90f35b61004b565b60405190565b5f80fd5b601f801991011690565b634e487b7160e01b5f52604160045260245ffd5b906100779061004f565b810190811060018060401b0382111761008f57604052565b610059565b906100a76100a0610045565b928361006d565b565b5f80fd5b5f80fd5b5f80fd5b5f80fd5b60018060401b0381116100d5576100d160209161004f565b0190565b610059565b90825f9392825e0152565b909291926100fa6100f5826100b9565b610094565b9381855260208501908284011161011657610114926100da565b565b6100b5565b9080601f8301121561013957816020610136935191016100e5565b90565b6100b1565b60018060a01b031690565b6101529061013e565b90565b61015e81610149565b0361016557565b5f80fd5b9050519061017682610155565b565b90916060828403126101da575f82015160018060401b0381116101d557836101a191840161011b565b9260208301519060018060401b0382116101d0576101c4816101cd93860161011b565b93604001610169565b90565b6100ad565b6100ad565b6100a9565b6101fd6139ef803803806101f281610094565b928339810190610178565b909192565b9161020f92919091610211565b565b9161021e9291909161025b565b565b634e487b7160e01b5f52602160045260245ffd5b6003111561023e57565b610220565b9061024d82610234565b565b61025890610243565b90565b610272929161026a600261024f565b919091610380565b565b60ff1690565b90565b90565b61029461028f6102999261027a565b61027d565b610274565b90565b5f0190565b5f90565b634e487b7160e01b5f52601160045260245ffd5b6102c290610274565b60ff81146102d05760010190565b6102a5565b90565b6102ec6102e76102f192610274565b61027d565b6102d5565b90565b61030861030361030d92610274565b61027d565b610274565b90565b9061031a906102f4565b5f5260205260405f2090565b5f1b90565b906103375f1991610326565b9181191691161790565b61035561035061035a926102d5565b61027d565b6102d5565b90565b90565b9061037561037061037c92610341565b61035d565b825461032b565b9055565b92909161038c92610658565b8061039f6103995f610280565b91610274565b14610407576103ac6102a1565b5b806103c06103ba84610274565b91610274565b1161040157806103f76103dd6103d86103fc946102d8565b610794565b6103f2816103ed60078690610310565b610360565b6107ee565b6102b9565b6103ad565b50608052565b5f63328d4ab160e01b81528061041f6004820161029c565b0390fd5b5190565b634e487b7160e01b5f52602260045260245ffd5b906001600283049216801561045b575b602083101461045657565b610427565b91607f169161044b565b5f5260205f2090565b601f602091010490565b1b90565b919060086104979102916104915f1984610478565b92610478565b9181191691161790565b90565b91906104ba6104b56104c293610341565b6104a1565b90835461047c565b9055565b5f90565b6104dc916104d66104c6565b916104a4565b565b5b8181106104ea575050565b806104f75f6001936104ca565b016104df565b9190601f811161050d575b505050565b61051961053e93610465565b9060206105258461046e565b83019310610546575b6105379061046e565b01906104de565b5f8080610508565b91506105378192905061052e565b1c90565b90610568905f1990600802610554565b191690565b8161057791610558565b906002021790565b9061058981610423565b9060018060401b038211610647576105ab826105a5855461043b565b856104fd565b602090601f83116001146105df579180916105ce935f926105d3575b505061056d565b90555b565b90915001515f806105c7565b601f198316916105ee85610465565b925f5b81811061062f57509160029391856001969410610615575b505050020190556105d1565b610625910151601f841690610558565b90555f8080610609565b919360206001819287870151815501950192016105f1565b610059565b906106569161057f565b565b61066f9061066861067694610678565b600261064c565b600361064c565b565b61068190610683565b565b61068c9061068e565b565b61069790610699565b565b6106a2906106ee565b565b6106b86106b36106bd9261027a565b61027d565b61013e565b90565b6106c9906106a4565b90565b6106d590610149565b9052565b91906106ec905f602085019401906106cc565b565b6106f6610748565b8061071161070b6107065f6106c0565b610149565b91610149565b146107215761071f9061087e565b565b61074461072d5f6106c0565b5f918291631e4fbdf760e01b8352600483016106d9565b0390fd5b610750610752565b565b61076261075d610909565b6109a2565b565b5f90565b90565b61077f61077a61078492610768565b61027d565b610274565b90565b610791600261076b565b90565b6107b26107b7916107a3610764565b506107ac610787565b90610ac5565b610341565b90565b6107ce6107c96107d39261013e565b61027d565b61013e565b90565b6107df906107ba565b90565b6107eb906107d6565b90565b6107fa61080991610341565b610803306107e2565b90610bca565b565b9190600861082b91029161082560018060a01b0384610478565b92610478565b9181191691161790565b61083e906107d6565b90565b90565b919061085a61085561086293610835565b610841565b90835461080b565b9055565b5f90565b61087c91610876610866565b91610844565b565b6108929061088d5f600161086a565b610ca7565b565b61089e6080610094565b90565b5f90565b6108ad610894565b906020808080856108bc6108a1565b8152016108c76108a1565b8152016108d26108a1565b8152016108dd6108a1565b81525050565b6108eb6108a5565b90565b6108f86080610094565b90565b9061090590610149565b9052565b6109116108e3565b5073fee8407e2f5e3ee68ad77cae98c434e637f516e561099f73687408ab54661ba0b4aef3a44156c616c6955e0761099673fb03be574d14c256d56f09a198b586bdfc0a9de261098d739d6891a6240d6130c54ae243d8005063d05fe14b9361098461097b6108ee565b975f89016108fb565b602087016108fb565b604085016108fb565b606083016108fb565b90565b6109ab90610d13565b565b5f1c90565b60018060a01b031690565b6109c96109ce916109ad565b6109b2565b90565b6109db90546109bd565b90565b6109e7906107ba565b90565b6109f3906109de565b90565b6109ff906107d6565b90565b60ff60f81b1690565b60f81b90565b610a25610a20610a2a92610274565b610a0b565b610a02565b90565b5f80fd5b60e01b90565b610a40816102d5565b03610a4757565b5f80fd5b90505190610a5882610a37565b565b90602082820312610a7357610a70915f01610a4b565b90565b6100a9565b610a81906102d5565b9052565b610a8e90610a02565b9052565b916020610ab3929493610aac60408201965f830190610a78565b0190610a85565b565b610abd610045565b3d5f823e3d90fd5b90602090610ad16104c6565b50610af5610af0610aeb6001610ae5610d7c565b016109d1565b6109ea565b6109f6565b610b205f610b0863e71746b89694610a11565b95610b2b610b14610045565b97889687958694610a31565b845260048401610a92565b03925af1908115610b6f575f91610b41575b5090565b610b62915060203d8111610b68575b610b5a818361006d565b810190610a5a565b5f610b3d565b503d610b50565b610ab5565b610b7d906107ba565b90565b610b8990610b74565b90565b610b95906107d6565b90565b5f910312610ba257565b6100a9565b916020610bc8929493610bc160408201965f830190610a78565b01906106cc565b565b610bec610be7610be25f610bdc610d7c565b016109d1565b610b80565b610b8c565b916365d0509c919092803b15610c6757610c195f8094610c24610c0d610045565b97889687958694610a31565b845260048401610ba7565b03925af18015610c6257610c36575b50565b610c55905f3d8111610c5b575b610c4d818361006d565b810190610b98565b5f610c33565b503d610c43565b610ab5565b610a2d565b90610c7d60018060a01b0391610326565b9181191691161790565b90610c9c610c97610ca392610835565b610841565b8254610c6c565b9055565b610cb05f6109d1565b610cba825f610c87565b90610cee610ce87f8be0079c531659141344cd1fd0a4f28419497f9722a3daafe3b4186f6b6457e093610835565b91610835565b91610cf7610045565b80610d018161029c565b0390a3565b610d109051610149565b90565b610d7a906003610d736060610d26610d7c565b93610d3d610d355f8301610d06565b5f8701610c87565b610d55610d4c60208301610d06565b60018701610c87565b610d6d610d6460408301610d06565b60028701610c87565b01610d06565b9101610c87565b565b7fed8d60e34876f751cc8b014c560745351147d9de11b9347c854e881b128ea6009056fe60806040526004361015610013575b610a6c565b61001d5f3561016c565b806306fdde0314610167578063095ea7b31461016257806318160ddd1461015d57806323b872dd146101585780632893c5b014610153578063313ce5671461014e57806367a74a281461014957806370a0823114610144578063715018a61461013f57806379ba50971461013a5780637b7e0a5a146101355780638da5cb5b1461013057806395d89b411461012b5780639a094352146101265780639dbead4214610121578063a5184baf1461011c578063a9059cbb14610117578063b32c100114610112578063dd62ed3e1461010d578063e30c3978146101085763f2fde38b0361000e57610a39565b610a04565b6109ce565b610968565b610932565b6108fd565b610867565b610810565b61077b565b610746565b6106eb565b6105f5565b6105c2565b61058d565b6104f9565b6104a2565b610446565b6103bb565b61034c565b6102e7565b6101fa565b60e01c90565b60405190565b5f80fd5b5f80fd5b5f91031261018a57565b61017c565b5190565b60209181520190565b90825f9392825e0152565b601f801991011690565b6101d06101d96020936101de936101c78161018f565b93848093610193565b9586910161019c565b6101a7565b0190565b6101f79160208201915f8184039101526101b1565b90565b3461022a5761020a366004610180565b610226610215610bc9565b61021d610172565b918291826101e2565b0390f35b610178565b5f80fd5b60018060a01b031690565b61024790610233565b90565b6102538161023e565b0361025a57565b5f80fd5b9050359061026b8261024a565b565b90565b6102798161026d565b0361028057565b5f80fd5b9050359061029182610270565b565b91906040838203126102bb57806102af6102b8925f860161025e565b93602001610284565b90565b61017c565b151590565b6102ce906102c0565b9052565b91906102e5905f602085019401906102c5565b565b34610318576103146103036102fd366004610293565b90610c1c565b61030b610172565b918291826102d2565b0390f35b610178565b67ffffffffffffffff1690565b6103339061031d565b9052565b919061034a905f6020850194019061032a565b565b3461037c5761035c366004610180565b610378610367610cd0565b61036f610172565b91829182610337565b0390f35b610178565b90916060828403126103b6576103b361039c845f850161025e565b936103aa816020860161025e565b93604001610284565b90565b61017c565b346103ec576103e86103d76103d1366004610381565b91610ce6565b6103df610172565b918291826102d2565b0390f35b610178565b6103fa8161031d565b0361040157565b5f80fd5b90503590610412826103f1565b565b919060408382031261043c5780610430610439925f860161025e565b93602001610405565b90565b61017c565b5f0190565b346104755761045f610459366004610414565b90610e3c565b610467610172565b8061047181610441565b0390f35b610178565b60ff1690565b6104899061047a565b9052565b91906104a0905f60208501940190610480565b565b346104d2576104b2366004610180565b6104ce6104bd610e6b565b6104c5610172565b9182918261048d565b0390f35b610178565b6104e09061026d565b9052565b91906104f7905f602085019401906104d7565b565b3461052957610509366004610180565b610525610514610e85565b61051c610172565b918291826104e4565b0390f35b610178565b9060208282031261054757610544915f0161025e565b90565b61017c565b90565b61056361055e6105689261026d565b61054c565b61026d565b90565b6105749061054f565b9052565b919061058b905f6020850194019061056b565b565b346105bd576105b96105a86105a336600461052e565b610edc565b6105b0610172565b91829182610578565b0390f35b610178565b346105f0576105d2366004610180565b6105da610f4b565b6105e2610172565b806105ec81610441565b0390f35b610178565b3461062357610605366004610180565b61060d610f55565b610615610172565b8061061f81610441565b0390f35b610178565b90565b61063481610628565b0361063b57565b5f80fd5b9050359061064c8261062b565b565b5f80fd5b5f80fd5b5f80fd5b909182601f830112156106945781359167ffffffffffffffff831161068f57602001926001830284011161068a57565b610656565b610652565b61064e565b916060838303126106e6576106b0825f850161025e565b926106be836020830161063f565b92604082013567ffffffffffffffff81116106e1576106dd920161065a565b9091565b61022f565b61017c565b3461071f5761071b61070a610701366004610699565b92919091611031565b610712610172565b918291826102d2565b0390f35b610178565b61072d9061023e565b9052565b9190610744905f60208501940190610724565b565b3461077657610756366004610180565b610772610761611090565b610769610172565b91829182610731565b0390f35b610178565b346107ab5761078b366004610180565b6107a76107966110a5565b61079e610172565b918291826101e2565b0390f35b610178565b9060808282031261080b576107c7815f840161025e565b926107d5826020850161025e565b926107e3836040830161063f565b92606082013567ffffffffffffffff811161080657610802920161065a565b9091565b61022f565b61017c565b346108445761084061082f6108263660046107b0565b939290926110bb565b610837610172565b918291826102d2565b0390f35b610178565b906020828203126108625761085f915f01610405565b90565b61017c565b346108955761087f61087a366004610849565b611116565b610887610172565b8061089181610441565b0390f35b610178565b6108a38161026d565b036108aa57565b5f80fd5b905035906108bb8261089a565b565b906020828203126108d6576108d3915f016108ae565b90565b61017c565b6108e49061054f565b9052565b91906108fb905f602085019401906108db565b565b3461092d576109296109186109133660046108bd565b611144565b610920610172565b918291826108e8565b0390f35b610178565b346109635761095f61094e610948366004610293565b90611194565b610956610172565b918291826102d2565b0390f35b610178565b3461099c5761099861098761097e366004610699565b9291909161120b565b61098f610172565b918291826102d2565b0390f35b610178565b91906040838203126109c957806109bd6109c6925f860161025e565b9360200161025e565b90565b61017c565b346109ff576109fb6109ea6109e43660046109a1565b9061123a565b6109f2610172565b91829182610578565b0390f35b610178565b34610a3457610a14366004610180565b610a30610a1f611250565b610a27610172565b91829182610731565b0390f35b610178565b34610a6757610a51610a4c36600461052e565b61131b565b610a59610172565b80610a6381610441565b0390f35b610178565b5f80fd5b606090565b634e487b7160e01b5f52602260045260245ffd5b9060016002830492168015610aa9575b6020831014610aa457565b610a75565b91607f1691610a99565b60209181520190565b5f5260205f2090565b905f9291805490610adf610ad883610a89565b8094610ab3565b916001811690815f14610b365750600114610afa575b505050565b610b079192939450610abc565b915f925b818410610b1e57505001905f8080610af5565b60018160209295939554848601520191019290610b0b565b92949550505060ff19168252151560200201905f8080610af5565b90610b5b91610ac5565b90565b634e487b7160e01b5f52604160045260245ffd5b90610b7c906101a7565b810190811067ffffffffffffffff821117610b9657604052565b610b5e565b90610bbb610bb492610bab610172565b93848092610b51565b0383610b72565b565b610bc690610b9b565b90565b610bd1610a70565b50610bdc6002610bbd565b90565b5f90565b5f1990565b610bfc610bf7610c0192610233565b61054c565b610233565b90565b610c0d90610be8565b90565b610c1990610c04565b90565b90610c25610bdf565b50610c2f81611326565b610c3e339182908490916113a9565b90610c47610be3565b91610c90610c7e610c787f8c5be1e5ebec7d5bd14f71427d1e84f3dd0314c0f7b2291e5b200ac8c7c3b92593610c10565b93610c10565b93610c87610172565b918291826104e4565b0390a3600190565b5f90565b60a01c90565b67ffffffffffffffff1690565b610cbb610cc091610c9c565b610ca2565b90565b610ccd9054610caf565b90565b610cd8610c98565b50610ce36001610cc3565b90565b610d1392610cf2610bdf565b50610cfc81611326565b610d09338390839161146c565b9192909192611579565b600190565b90610d2a91610d256115f4565b610dcf565b565b634e487b7160e01b5f52601160045260245ffd5b610d4c610d529161031d565b9161031d565b019067ffffffffffffffff8211610d6557565b610d2c565b60a01b90565b90610d8667ffffffffffffffff60a01b91610d6a565b9181191691161790565b610da4610d9f610da99261031d565b61054c565b61031d565b90565b90565b90610dc4610dbf610dcb92610d90565b610dac565b8254610d70565b9055565b610dda818390611642565b610df8610df1610dea6001610cc3565b8490610d40565b6001610daf565b610e37610e257f9109de113672aaca72ede8bc906f7aafabee865311ac020fb15c71edf94a0a0192610c10565b92610e2e610172565b91829182610337565b0390a2565b90610e4691610d18565b565b5f90565b90565b610e63610e5e610e6892610e4c565b61054c565b61047a565b90565b610e73610e48565b50610e7e6006610e4f565b90565b5f90565b610e8d610e81565b50610e966116d1565b90565b5f90565b90610ea790610c10565b5f5260205260405f2090565b5f1c90565b90565b610ec7610ecc91610eb3565b610eb8565b90565b610ed99054610ebb565b90565b610ef3610ef891610eeb610e99565b506004610e9d565b610ecf565b90565b610f036115f4565b610f0b610f38565b565b90565b610f24610f1f610f2992610f0d565b61054c565b610233565b90565b610f3590610f10565b90565b610f49610f445f610f2c565b61174b565b565b610f53610efb565b565b610f5d611761565b610f65611250565b610f77610f718361023e565b9161023e565b03610f8757610f859061174b565b565b610fa2905f91829163118cdaa760e01b835260048301610731565b0390fd5b5f80fd5b90610fbd610fb6610172565b9283610b72565b565b67ffffffffffffffff8111610fdd57610fd96020916101a7565b0190565b610b5e565b90825f939282370152565b90929192611002610ffd82610fbf565b610faa565b9381855260208501908284011161101e5761101c92610fe2565b565b610fa6565b61102e913691610fed565b90565b9161104e61105a946110549394611046610bdf565b509492611023565b906117a6565b90611194565b50600190565b5f90565b60018060a01b031690565b61107b61108091610eb3565b611064565b90565b61108d905461106f565b90565b611098611060565b506110a25f611083565b90565b6110ad610a70565b506110b86003610bbd565b90565b926110d96110e5956110df93956110d0610bdf565b50959492611023565b906117a6565b91610ce6565b50600190565b6110f76110fd9161031d565b9161031d565b90039067ffffffffffffffff821161111157565b610d2c565b61113761113e916111283382906117d6565b6111326001610cc3565b6110eb565b6001610daf565b565b5f90565b61115690611150611140565b5061181c565b90565b634e487b7160e01b5f52602160045260245ffd5b6003111561117757565b611159565b906111868261116d565b565b6111919061117c565b90565b611206916111a0610bdf565b506111aa81611326565b6111c8816111c26111bd60043390610e9d565b610ecf565b90611895565b906111fc6111e0836111da6001611188565b90611992565b6111e981611abb565b506111f5813390611b0b565b8490611b0b565b3392909192611579565b600190565b916112286112349461122e9394611220610bdf565b509492611023565b906117a6565b90610c1c565b50600190565b9061124d91611247610e99565b50611b1f565b90565b611258611060565b506112636001611083565b90565b611277906112726115f4565b6112bc565b565b5f1b90565b9061128f60018060a01b0391611279565b9181191691161790565b90565b906112b16112ac6112b892610c10565b611299565b825461127e565b9055565b6112c781600161129c565b6112cf611090565b906113036112fd7f38d16b8cac22d99fc7c124b9cd0de2d3fa1faef420bfe791d8c362d765e2270093610c10565b91610c10565b9161130c610172565b8061131681610441565b0390a3565b61132490611266565b565b61133261133891611b47565b156102c0565b61133e57565b5f632fa38b3f60e01b81528061135660048201610441565b0390fd5b9061136490610c10565b5f5260205260405f2090565b9061137c5f1991611279565b9181191691161790565b90565b9061139e6113996113a59261054f565b611386565b8254611370565b9055565b919091806113c76113c16113bc5f610f2c565b61023e565b9161023e565b1461144957826113e76113e16113dc5f610f2c565b61023e565b9161023e565b1461142a579061142361142893926114148361140f6114086005859061135a565b8790610e9d565b611389565b61141d83611b72565b82611b8f565b611b8f565b565b611445835f918291634a1406b160e11b835260048301610731565b0390fd5b611464905f91829163e602df0560e01b835260048301610731565b0390fd5b5f90565b9291906115339161147b611468565b5061152d61148a868490611b1f565b91611518611499828590611895565b6114ad816114a76002611188565b90611992565b6115136114f76114d18c6114cb6114c689926004610e9d565b610ecf565b90611895565b926114e56114de85611ba3565b8690611bc8565b906114f06001611188565b9091611bf9565b61150081611abb565b5061150c818d90611b0b565b8890611b0b565b611bc8565b969392611526889282611c78565b9091611d11565b916113a9565b565b90565b61154c61154761155192611535565b61054c565b61026d565b90565b6115636115699193929361026d565b9261026d565b820391821161157457565b610d2c565b9161158a9193839185909192611d4b565b906115a66115966116d1565b6115a06001611538565b90611554565b916115ef6115dd6115d77fddf252ad1be2c89b69c2b068fc378daa952ba7f163c4a11628f55a4df523b3ef93610c10565b93610c10565b936115e6610172565b918291826104e4565b0390a3565b6115fc611090565b61161561160f61160a611761565b61023e565b9161023e565b0361161c57565b61163e611627611761565b5f91829163118cdaa760e01b835260048301610731565b0390fd5b9061164d9082611e75565b6116565f610f2c565b9061165f610be3565b916116a86116966116907fddf252ad1be2c89b69c2b068fc378daa952ba7f163c4a11628f55a4df523b3ef93610c10565b93610c10565b9361169f610172565b918291826104e4565b0390a3565b90565b6116bc6116c191610eb3565b6116ad565b90565b6116ce90546116b0565b90565b6116d9610e81565b506116e460066116c4565b90565b1b90565b9190600861170b91029161170560018060a01b03846116e7565b926116e7565b9181191691161790565b919061172b61172661173393610c10565b611299565b9083546116eb565b9055565b61174991611743611060565b91611715565b565b61175f9061175a5f6001611737565b611eba565b565b611769611060565b503390565b61177790610628565b90565b90565b61179161178c6117969261177a565b61054c565b61047a565b90565b6117a3600561177d565b90565b6117d3916117bf6117ce926117b9610e99565b5061176e565b906117c8611799565b916120a0565b61054f565b90565b906117e0916121ef565b565b906117ec9061054f565b5f5260205260405f2090565b90565b61180761180c91610eb3565b6117f8565b90565b61181990546117fb565b90565b611824611140565b508061184161183b61183660066116c4565b61026d565b9161026d565b101561185d5761185561185a9160086117e2565b61180f565b90565b5f63d65c1f3360e01b81528061187560048201610441565b0390fd5b61188d61188861189292610f0d565b61054c565b61026d565b90565b6118f2916118ed916118a5611468565b506118b86118b282612234565b156102c0565b611917575b6118cf6118c983612234565b156102c0565b6118f5575b6118e06118e69161054f565b9161054f565b5f916122f1565b61054f565b90565b90506118e66118e061190e6119095f611879565b61225d565b929150506118d4565b506119296119245f611879565b61225d565b6118bd565b61194261193d61194792610f0d565b61054c565b61047a565b90565b906119549061192e565b5f5260205260405f2090565b61197461196f6119799261047a565b61054c565b61047a565b90565b9061198690611960565b5f5260205260405f2090565b9061199b611140565b50806119af6119a95f61192e565b9161047a565b14611a3d57806119e76119e17f000000000000000000000000000000000000000000000000000000000000000061047a565b9161047a565b11611a2157611a1e9190611a18611a13611a0b611a0660075f9061194a565b61180f565b92600761197c565b61180f565b916123c4565b90565b5f63d65c1f3360e01b815280611a3960048201610441565b0390fd5b5f63436badaf60e11b815280611a5560048201610441565b0390fd5b611a629061026d565b5f198114611a705760010190565b610d2c565b90565b90611a8d611a88611a949261054f565b611a75565b8254611370565b9055565b90565b90611ab0611aab611ab79261054f565b611a98565b8254611370565b9055565b90611ac4610e81565b50611b09611ad260066116c4565b92611aef611ae8611ae360066116c4565b611a59565b6006611a78565b611b0481611aff600887906117e2565b611a9b565b6123fe565b565b90611b18611b1d9261054f565b61241b565b565b611b4491611b3a611b3f92611b32610e99565b50600561135a565b610e9d565b610ecf565b90565b611b5c611b6391611b56610bdf565b5061054f565b33906124fe565b90565b611b6f90610c04565b90565b611b7e611b8d9161054f565b611b8730611b66565b9061241b565b565b90611b9c611ba19261054f565b61241b565b565b611bc0611bbb611bc592611bb5611468565b5061054f565b6125a3565b61054f565b90565b611bf691611bea611be4611bf193611bde611468565b5061054f565b9161054f565b5f91612646565b61054f565b90565b91611c02611140565b5081611c36611c307f000000000000000000000000000000000000000000000000000000000000000061047a565b9161047a565b11611c5c57611c52611c4d611c599493600761197c565b61180f565b90916123c4565b90565b5f63d65c1f3360e01b815280611c7460048201610441565b0390fd5b611cd591611cd091611c88610e99565b50611c9b611c9582612234565b156102c0565b611cfa575b611cb2611cac83612234565b156102c0565b611cd8575b611cc3611cc99161054f565b9161054f565b5f91612719565b61054f565b90565b9050611cc9611cc3611cf1611cec5f611879565b61225d565b92915050611cb7565b50611d0c611d075f611879565b61225d565b611ca0565b90611d4892611d3d611d37611d31611d4395611d2b610e99565b5061054f565b9361054f565b9161054f565b9161281e565b61054f565b90565b9190939282611d6a611d64611d5f5f610f2c565b61023e565b9161023e565b14611e565784611d8a611d84611d7f5f610f2c565b61023e565b9161023e565b14611e375793611df9611db7611e1293611e35969790611db1611dac5f611879565b61225d565b91611d11565b91611dd6611dcf611dca60048490610e9d565b610ecf565b84906128c6565b611deb81611de660048590610e9d565b611389565b611df481611b72565b611b8f565b611e0d611e0860048590610e9d565b610ecf565b611c78565b611e2781611e2260048590610e9d565b611389565b611e3081611b72565b611b8f565b565b611e52855f91829163ec442f0560e01b835260048301610731565b0390fd5b611e71835f918291634b637e8f60e11b835260048301610731565b0390fd5b611e95611eb892611e90611e8b60048590610e9d565b610ecf565b61297b565b611eaa81611ea560048590610e9d565b611389565b611eb381611b72565b611b8f565b565b611ec35f611083565b611ecd825f61129c565b90611f01611efb7f8be0079c531659141344cd1fd0a4f28419497f9722a3daafe3b4186f6b6457e093610c10565b91610c10565b91611f0a610172565b80611f1481610441565b0390a3565b611f2290610be8565b90565b611f2e90611f19565b90565b611f3a90610c04565b90565b60ff60f81b1690565b60f81b90565b611f60611f5b611f659261047a565b611f46565b611f3d565b90565b5f80fd5b60e01b90565b90505190611f7f8261089a565b565b90602082820312611f9a57611f97915f01611f72565b90565b61017c565b611fa890610628565b9052565b5190565b60209181520190565b611fd8611fe1602093611fe693611fcf81611fac565b93848093611fb0565b9586910161019c565b6101a7565b0190565b611ff390611f3d565b9052565b949391606091612038946120236120309361201960808b01945f8c0190611f9f565b60208a0190610724565b8782036040890152611fb9565b940190611fea565b565b612042610172565b3d5f823e3d90fd5b61205390610be8565b90565b61205f9061204a565b90565b61206b90610c04565b90565b5f91031261207857565b61017c565b91602061209e92949361209760408201965f8301906104d7565b0190610724565b565b92916020906120ad610e81565b506120b66129e5565b946121025f6120d76120d26120cd60018b01611083565b611f25565b611f31565b9261210d632e817ff091956120ed339991611f4c565b906120f6610172565b998a9889978896611f6c565b865260048601611ff7565b03925af19081156121ea576121335f61213d936121389382916121bc575b509501611083565b612056565b612062565b638d9c9c92833392803b156121b7576121695f809461217461215d610172565b97889687958694611f6c565b84526004840161207d565b03925af180156121b257612186575b50565b6121a5905f3d81116121ab575b61219d8183610b72565b81019061206e565b5f612183565b503d612193565b61203a565b611f68565b6121dd915060203d81116121e3575b6121d58183610b72565b810190611f81565b5f61212b565b503d6121cb565b61203a565b61220f6122329261220a61220560048590610e9d565b610ecf565b612a09565b6122248161221f60048590610e9d565b611389565b61222d81611b72565b611b8f565b565b61224690612240610bdf565b5061054f565b6122586122525f611879565b9161026d565b141590565b61227b6122809161226c610e99565b50612275611799565b90612a96565b61054f565b90565b5f90565b61229b6122966122a092610f0d565b611f46565b611f3d565b90565b6122b76122b26122bc92611535565b611f46565b611f3d565b90565b6040906122e86122ef94969593966122de60608401985f8501906104d7565b60208301906104d7565b0190611fea565b565b91906020916122fe610e81565b50612307612283565b505f146123b55761231860016122a3565b925b6123615f61234161233c61233760016123316129e5565b01611083565b611f25565b611f31565b9261236c63694daf72919597612355610172565b98899788968795611f6c565b8552600485016122bf565b03925af19081156123b0575f91612382575b5090565b6123a3915060203d81116123a9575b61239b8183610b72565b810190611f81565b5f61237e565b503d612391565b61203a565b6123be5f612287565b9261231a565b906123fb926123f06123ea6123e46123f6956123de611140565b5061054f565b9361054f565b9161054f565b9161281e565b61054f565b90565b61240a6124199161054f565b61241330611b66565b9061241b565b565b61243d6124386124335f61242d6129e5565b01611083565b612056565b612062565b916365d0509c919092803b156124b85761246a5f809461247561245e610172565b97889687958694611f6c565b84526004840161207d565b03925af180156124b357612487575b50565b6124a6905f3d81116124ac575b61249e8183610b72565b81019061206e565b5f612484565b503d612494565b61203a565b611f68565b6124c6816102c0565b036124cd57565b5f80fd5b905051906124de826124bd565b565b906020828203126124f9576124f6915f016124d1565b90565b61017c565b9060209061250a610bdf565b5061252d6125286125235f61251d6129e5565b01611083565b612056565b612062565b61254f635faa299a94929461255a612543610172565b96879586948594611f6c565b84526004840161207d565b03915afa90811561259e575f91612570575b5090565b612591915060203d8111612597575b6125898183610b72565b8101906124e0565b5f61256c565b503d61257f565b61203a565b60206125fd916125b1610e81565b506125d56125d06125cb60016125c56129e5565b01611083565b611f25565b611f31565b6125f25f6313801ffa6125e6610172565b96879586948593611f6c565b8352600483016104e4565b03925af1908115612641575f91612613575b5090565b612634915060203d811161263a575b61262c8183610b72565b810190611f81565b5f61260f565b503d612622565b61203a565b9190602091612653610e81565b5061265c612283565b505f1461270a5761266d60016122a3565b925b6126b65f61269661269161268c60016126866129e5565b01611083565b611f25565b611f31565b926126c163666a35889195976126aa610172565b98899788968795611f6c565b8552600485016122bf565b03925af1908115612705575f916126d7575b5090565b6126f8915060203d81116126fe575b6126f08183610b72565b810190611f81565b5f6126d3565b503d6126e6565b61203a565b6127135f612287565b9261266f565b9190602091612726610e81565b5061272f612283565b505f146127dd5761274060016122a3565b925b6127895f61276961276461275f60016127596129e5565b01611083565b611f25565b611f31565b92612794638c14cc2191959761277d610172565b98899788968795611f6c565b8552600485016122bf565b03925af19081156127d8575f916127aa575b5090565b6127cb915060203d81116127d1575b6127c38183610b72565b810190611f81565b5f6127a6565b503d6127b9565b61203a565b6127e65f612287565b92612742565b60409061281561281c949695939661280b60608401985f8501906104d7565b60208301906104d7565b01906104d7565b565b9060209161282a610e81565b506128725f61285261284d61284860016128426129e5565b01611083565b611f25565b611f31565b9261287d63cb3b9407919597612866610172565b98899788968795611f6c565b8552600485016127ec565b03925af19081156128c1575f91612893575b5090565b6128b4915060203d81116128ba575b6128ac8183610b72565b810190611f81565b5f61288f565b503d6128a2565b61203a565b6129239161291e916128d6610e99565b506128e96128e382612234565b156102c0565b612948575b6129006128fa83612234565b156102c0565b612926575b6129116129179161054f565b9161054f565b5f91612b45565b61054f565b90565b905061291761291161293f61293a5f611879565b61225d565b92915050612905565b5061295a6129555f611879565b61225d565b6128ee565b61297361296e6129789261031d565b61054c565b61026d565b90565b6129c2916129bd9161298b610e99565b5061299e61299882612234565b156102c0565b6129c5575b6129af6129b59161054f565b9161295f565b600191612b45565b61054f565b90565b506129b56129af6129dd6129d85f611879565b61225d565b9150506129a3565b7fed8d60e34876f751cc8b014c560745351147d9de11b9347c854e881b128ea60090565b612a5091612a4b91612a19610e99565b50612a2c612a2682612234565b156102c0565b612a53575b612a3d612a439161054f565b9161295f565b600191612719565b61054f565b90565b50612a43612a3d612a6b612a665f611879565b61225d565b915050612a31565b916020612a94929493612a8d60408201965f8301906104d7565b0190611fea565b565b90602090612aa2610e81565b50612ac6612ac1612abc6001612ab66129e5565b01611083565b611f25565b611f31565b612af15f612ad963e71746b89694611f4c565b95612afc612ae5610172565b97889687958694611f6c565b845260048401612a73565b03925af1908115612b40575f91612b12575b5090565b612b33915060203d8111612b39575b612b2b8183610b72565b810190611f81565b5f612b0e565b503d612b21565b61203a565b9190602091612b52610e81565b50612b5b612283565b505f14612c0957612b6c60016122a3565b925b612bb55f612b95612b90612b8b6001612b856129e5565b01611083565b611f25565b611f31565b92612bc063f953e427919597612ba9610172565b98899788968795611f6c565b8552600485016122bf565b03925af1908115612c04575f91612bd6575b5090565b612bf7915060203d8111612bfd575b612bef8183610b72565b810190611f81565b5f612bd2565b503d612be5565b61203a565b612c125f612287565b92612b6e56fea26469706673582212205ac56a8fb15f393921557ce373f4492e38f46c3bdf701d5e0075b8cfbbdd02da64736f6c634300081a0033","linkReferences":{}},"methodIdentifiers":{"acceptOwnership()":"79ba5097","allowance(address,address)":"dd62ed3e","approve(address,bytes32,bytes)":"b32c1001","approve(address,uint256)":"095ea7b3","balanceOf(address)":"70a08231","burn(uint64)":"9dbead42","decimals()":"313ce567","errorGetCounter()":"67a74a28","getErrorCodeForTransferId(uint256)":"a5184baf","mint(address,uint64)":"2893c5b0","name()":"06fdde03","owner()":"8da5cb5b","pendingOwner()":"e30c3978","renounceOwnership()":"715018a6","symbol()":"95d89b41","totalSupply()":"18160ddd","transfer(address,bytes32,bytes)":"7b7e0a5a","transfer(address,uint256)":"a9059cbb","transferFrom(address,address,bytes32,bytes)":"9a094352","transferFrom(address,address,uint256)":"23b872dd","transferOwnership(address)":"f2fde38b"},"id":2}