{"abi":[{"type":"constructor","inputs":[{"name":"name_","type":"string","internalType":"string"},{"name":"symbol_","type":"string","internalType":"string"},{"name":"owner_","type":"address","internalType":"address"}],"stateMutability":"nonpayable"},{"type":"function","name":"acceptOwnership","inputs":[],"outputs":[],"stateMutability":"nonpayable"},{"type":"function","name":"allowance","inputs":[{"name":"owner","type":"address","internalType":"address"},{"name":"spender","type":"address","internalType":"address"}],"outputs":[{"name":"","type":"uint256","internalType":"euint64"}],"stateMutability":"view"},{"type":"function","name":"approve","inputs":[{"name":"spender","type":"address","internalType":"address"},{"name":"amount","type":"uint256","internalType":"euint64"}],"outputs":[{"name":"","type":"bool","internalType":"bool"}],"stateMutability":"nonpayable"},{"type":"function","name":"approve","inputs":[{"name":"spender","type":"address","internalType":"address"},{"name":"encryptedAmount","type":"bytes32","internalType":"einput"},{"name":"inputProof","type":"bytes","internalType":"bytes"}],"outputs":[{"name":"","type":"bool","internalType":"bool"}],"stateMutability":"nonpayable"},{"type":"function","name":"balanceOf","inputs":[{"name":"account","type":"address","internalType":"address"}],"outputs":[{"name":"","type":"uint256","internalType":"euint64"}],"stateMutability":"view"},{"type":"function","name":"decimals","inputs":[],"outputs":[{"name":"","type":"uint8","internalType":"uint8"}],"stateMutability":"view"},{"type":"function","name":"getErrorCodeForTransferId","inputs":[{"name":"transferId","type":"uint256","internalType":"uint256"}],"outputs":[{"name":"errorCode","type":"uint256","internalType":"euint8"}],"stateMutability":"view"},{"type":"function","name":"mint","inputs":[{"name":"to","type":"address","internalType":"address"},{"name":"amount","type":"uint64","internalType":"uint64"}],"outputs":[],"stateMutability":"nonpayable"},{"type":"function","name":"name","inputs":[],"outputs":[{"name":"","type":"string","internalType":"string"}],"stateMutability":"view"},{"type":"function","name":"owner","inputs":[],"outputs":[{"name":"","type":"address","internalType":"address"}],"stateMutability":"view"},{"type":"function","name":"pendingOwner","inputs":[],"outputs":[{"name":"","type":"address","internalType":"address"}],"stateMutability":"view"},{"type":"function","name":"renounceOwnership","inputs":[],"outputs":[],"stateMutability":"nonpayable"},{"type":"function","name":"symbol","inputs":[],"outputs":[{"name":"","type":"string","internalType":"string"}],"stateMutability":"view"},{"type":"function","name":"totalSupply","inputs":[],"outputs":[{"name":"","type":"uint64","internalType":"uint64"}],"stateMutability":"view"},{"type":"function","name":"transfer","inputs":[{"name":"to","type":"address","internalType":"address"},{"name":"encryptedAmount","type":"bytes32","internalType":"einput"},{"name":"inputProof","type":"bytes","internalType":"bytes"}],"outputs":[{"name":"","type":"bool","internalType":"bool"}],"stateMutability":"nonpayable"},{"type":"function","name":"transfer","inputs":[{"name":"to","type":"address","internalType":"address"},{"name":"amount","type":"uint256","internalType":"euint64"}],"outputs":[{"name":"","type":"bool","internalType":"bool"}],"stateMutability":"nonpayable"},{"type":"function","name":"transferFrom","inputs":[{"name":"from","type":"address","internalType":"address"},{"name":"to","type":"address","internalType":"address"},{"name":"amount","type":"uint256","internalType":"euint64"}],"outputs":[{"name":"","type":"bool","internalType":"bool"}],"stateMutability":"nonpayable"},{"type":"function","name":"transferFrom","inputs":[{"name":"from","type":"address","internalType":"address"},{"name":"to","type":"address","internalType":"address"},{"name":"encryptedAmount","type":"bytes32","internalType":"einput"},{"name":"inputProof","type":"bytes","internalType":"bytes"}],"outputs":[{"name":"","type":"bool","internalType":"bool"}],"stateMutability":"nonpayable"},{"type":"function","name":"transferOwnership","inputs":[{"name":"newOwner","type":"address","internalType":"address"}],"outputs":[],"stateMutability":"nonpayable"},{"type":"event","name":"Approval","inputs":[{"name":"owner","type":"address","indexed":true,"internalType":"address"},{"name":"spender","type":"address","indexed":true,"internalType":"address"},{"name":"placeholder","type":"uint256","indexed":false,"internalType":"uint256"}],"anonymous":false},{"type":"event","name":"Mint","inputs":[{"name":"to","type":"address","indexed":true,"internalType":"address"},{"name":"amount","type":"uint64","indexed":false,"internalType":"uint64"}],"anonymous":false},{"type":"event","name":"OwnershipTransferStarted","inputs":[{"name":"previousOwner","type":"address","indexed":true,"internalType":"address"},{"name":"newOwner","type":"address","indexed":true,"internalType":"address"}],"anonymous":false},{"type":"event","name":"OwnershipTransferred","inputs":[{"name":"previousOwner","type":"address","indexed":true,"internalType":"address"},{"name":"newOwner","type":"address","indexed":true,"internalType":"address"}],"anonymous":false},{"type":"event","name":"Transfer","inputs":[{"name":"from","type":"address","indexed":true,"internalType":"address"},{"name":"to","type":"address","indexed":true,"internalType":"address"},{"name":"transferId","type":"uint256","indexed":false,"internalType":"uint256"}],"anonymous":false},{"type":"error","name":"ERC20InsufficientAllowance","inputs":[{"name":"spender","type":"address","internalType":"address"},{"name":"allowance","type":"uint256","internalType":"uint256"},{"name":"needed","type":"uint256","internalType":"uint256"}]},{"type":"error","name":"ERC20InsufficientBalance","inputs":[{"name":"sender","type":"address","internalType":"address"},{"name":"balance","type":"uint256","internalType":"uint256"},{"name":"needed","type":"uint256","internalType":"uint256"}]},{"type":"error","name":"ERC20InvalidApprover","inputs":[{"name":"approver","type":"address","internalType":"address"}]},{"type":"error","name":"ERC20InvalidReceiver","inputs":[{"name":"receiver","type":"address","internalType":"address"}]},{"type":"error","name":"ERC20InvalidSender","inputs":[{"name":"sender","type":"address","internalType":"address"}]},{"type":"error","name":"ERC20InvalidSpender","inputs":[{"name":"spender","type":"address","internalType":"address"}]},{"type":"error","name":"ErrorIndexInvalid","inputs":[]},{"type":"error","name":"ErrorIndexIsNull","inputs":[]},{"type":"error","name":"OwnableInvalidOwner","inputs":[{"name":"owner","type":"address","internalType":"address"}]},{"type":"error","name":"OwnableUnauthorizedAccount","inputs":[{"name":"account","type":"address","internalType":"address"}]},{"type":"error","name":"TFHESenderNotAllowed","inputs":[]},{"type":"error","name":"TotalNumberErrorCodesEqualToZero","inputs":[]}],"bytecode":{"object":"0x60a080604052346102c557611a33803803809161001c828561050c565b83398101906060818303126102c55780516001600160401b0381116102c5578261004791830161052f565b60208201519092906001600160401b0381116102c55760409161006b91840161052f565b9101516001600160a01b038116908190036102c55780156104f957600180546001600160a01b03199081169091555f8054918216831781556001600160a01b03909116907f8be0079c531659141344cd1fd0a4f28419497f9722a3daafe3b4186f6b6457e09080a381516001600160401b03811161040c57600254600181811c911680156104ef575b60208210146103ee57601f811161048c575b50602092601f821160011461042b57928192935f92610420575b50508160011b915f199060031b1c1916176002555b80516001600160401b03811161040c57600354600181811c91168015610402575b60208210146103ee57601f811161038b575b50602091601f821160011461032b579181925f92610320575b50508160011b915f199060031b1c1916176003555b5f5b60ff811690600282116102fc577fed8d60e34876f751cc8b014c560745351147d9de11b9347c854e881b128ea60154604051631ce2e8d760e31b815260048101849052600160f91b60248201529290602090849060449082905f906001600160a01b03165af19283156102ba575f936102c9575b505f9081526007602052604090208290557fed8d60e34876f751cc8b014c560745351147d9de11b9347c854e881b128ea600546001600160a01b031691823b156102c5575f92604484926040519586938492631974142760e21b845260048401523060248401525af19182156102ba5760ff926102aa575b501660ff811461029657600101610198565b634e487b7160e01b5f52601160045260245ffd5b5f6102b49161050c565b5f610284565b6040513d5f823e3d90fd5b5f80fd5b9092506020813d82116102f4575b816102e46020938361050c565b810103126102c55751915f61020c565b3d91506102d7565b60026080526040516114ae90816105858239608051818181610a1d0152610d190152f35b015190505f80610181565b601f1982169260035f52805f20915f5b8581106103735750836001951061035b575b505050811b01600355610196565b01515f1960f88460031b161c191690555f808061034d565b9192602060018192868501518155019401920161033b565b60035f527fc2575a0e9e593c00f959f8c92f12db2869c3395a3b0502d05e2516446f71f85b601f830160051c810191602084106103e4575b601f0160051c01905b8181106103d95750610168565b5f81556001016103cc565b90915081906103c3565b634e487b7160e01b5f52602260045260245ffd5b90607f1690610156565b634e487b7160e01b5f52604160045260245ffd5b015190505f80610120565b601f1982169360025f52805f20915f5b868110610474575083600195961061045c575b505050811b01600255610135565b01515f1960f88460031b161c191690555f808061044e565b9192602060018192868501518155019401920161043b565b60025f527f405787fa12a823e0f2b7631cc41b3ba8828b3321ca811111fa75cd3aa3bb5ace601f830160051c810191602084106104e5575b601f0160051c01905b8181106104da5750610106565b5f81556001016104cd565b90915081906104c4565b90607f16906100f4565b631e4fbdf760e01b5f525f60045260245ffd5b601f909101601f19168101906001600160401b0382119082101761040c57604052565b81601f820112156102c5578051906001600160401b03821161040c5760405192610563601f8401601f19166020018561050c565b828452602083830101116102c557815f9260208093018386015e830101529056fe6080806040526004361015610012575f80fd5b5f3560e01c90816306fdde03146107d557508063095ea7b3146107ae57806318160ddd1461078457806323b872dd146107555780632893c5b014610575578063313ce5671461055a57806370a0823114610522578063715018a6146104bf57806379ba50971461043a5780637b7e0a5a1461041d5780638da5cb5b146103f657806395d89b41146102ea5780639a09435214610289578063a5184baf14610246578063a9059cbb14610215578063b32c1001146101db578063dd62ed3e1461018b578063e30c3978146101635763f2fde38b146100ed575f80fd5b3461015f57602036600319011261015f576101066108b1565b61010e6110ab565b60018060a01b0316806bffffffffffffffffffffffff60a01b600154161760015560018060a01b035f54167f38d16b8cac22d99fc7c124b9cd0de2d3fa1faef420bfe791d8c362d765e227005f80a3005b5f80fd5b3461015f575f36600319011261015f576001546040516001600160a01b039091168152602090f35b3461015f57604036600319011261015f576101a46108b1565b6101ac6108c7565b6001600160a01b039182165f908152600560209081526040808320949093168252928352819020549051908152f35b3461015f576102096101fd6102036101f23661090b565b949192943691610cae565b906110be565b90610988565b50602060405160018152f35b3461015f57604036600319011261015f57602061023c6102336108b1565b60243590610cf4565b6040519015158152f35b3461015f57602036600319011261015f5760043560065481101561027a575f526008602052602060405f2054604051908152f35b63d65c1f3360e01b5f5260045ffd5b3461015f57608036600319011261015f576102a26108b1565b6102aa6108c7565b906064359167ffffffffffffffff831161015f576102e46102dc6102d56102099536906004016108dd565b3691610cae565b6044356110be565b916109dd565b3461015f575f36600319011261015f576040515f6003548060011c906001811680156103ec575b6020831081146103d8578285529081156103b45750600114610356575b6103528361033e81850382610952565b60405191829160208352602083019061088d565b0390f35b91905060035f527fc2575a0e9e593c00f959f8c92f12db2869c3395a3b0502d05e2516446f71f85b915f905b80821061039a5750909150810160200161033e61032e565b919260018160209254838588010152019101909291610382565b60ff191660208086019190915291151560051b8401909101915061033e905061032e565b634e487b7160e01b5f52602260045260245ffd5b91607f1691610311565b3461015f575f36600319011261015f575f546040516001600160a01b039091168152602090f35b3461015f576102096101fd6104346101f23661090b565b90610cf4565b3461015f575f36600319011261015f57600154336001600160a01b03909116036104ac57600180546001600160a01b03199081169091555f805433928116831782556001600160a01b0316907f8be0079c531659141344cd1fd0a4f28419497f9722a3daafe3b4186f6b6457e09080a3005b63118cdaa760e01b5f523360045260245ffd5b3461015f575f36600319011261015f576104d76110ab565b600180546001600160a01b03199081169091555f80549182168155906001600160a01b03167f8be0079c531659141344cd1fd0a4f28419497f9722a3daafe3b4186f6b6457e08280a3005b3461015f57602036600319011261015f576001600160a01b036105436108b1565b165f526004602052602060405f2054604051908152f35b3461015f575f36600319011261015f57602060405160068152f35b3461015f57604036600319011261015f5761058e6108b1565b60243567ffffffffffffffff811680910361015f576105ab6110ab565b6001600160a01b0382165f81815260046020526040812054919390918015610743575b5f805160206114598339815191525460405163f953e42760e01b8152600481019290925260248201859052600160f81b6044830152909260209184916064918391906001600160a01b03165af18015610738575f90610704575b61064a9250845f5260046020528060405f20556106453082611335565b611335565b815f7fddf252ad1be2c89b69c2b068fc378daa952ba7f163c4a11628f55a4df523b3ef602060405183198152a3600154908067ffffffffffffffff8360a01c16019067ffffffffffffffff82116106f05767ffffffffffffffff60a01b1990921660a09190911b67ffffffffffffffff60a01b16176001556040519081527f9109de113672aaca72ede8bc906f7aafabee865311ac020fb15c71edf94a0a0190602090a2005b634e487b7160e01b5f52601160045260245ffd5b506020823d602011610730575b8161071e60209383610952565b8101031261015f5761064a9151610628565b3d9150610711565b6040513d5f823e3d90fd5b50602061074e611402565b90506105ce565b3461015f57606036600319011261015f57602061023c6107736108b1565b61077b6108c7565b604435916109dd565b3461015f575f36600319011261015f57602067ffffffffffffffff60015460a01c16604051908152f35b3461015f57604036600319011261015f57602061023c6107cc6108b1565b60243590610988565b3461015f575f36600319011261015f575f6002548060011c90600181168015610883575b6020831081146103d8578285529081156103b45750600114610825576103528361033e81850382610952565b91905060025f527f405787fa12a823e0f2b7631cc41b3ba8828b3321ca811111fa75cd3aa3bb5ace915f905b8082106108695750909150810160200161033e61032e565b919260018160209254838588010152019101909291610851565b91607f16916107f9565b805180835260209291819084018484015e5f828201840152601f01601f1916010190565b600435906001600160a01b038216820361015f57565b602435906001600160a01b038216820361015f57565b9181601f8401121561015f5782359167ffffffffffffffff831161015f576020838186019501011161015f57565b606060031982011261015f576004356001600160a01b038116810361015f5791602435916044359067ffffffffffffffff821161015f5761094e916004016108dd565b9091565b90601f8019910116810190811067ffffffffffffffff82111761097457604052565b634e487b7160e01b5f52604160045260245ffd5b9061099d9061099681610dbd565b8233610e6f565b6040515f1981526001600160a01b039091169033907f8c5be1e5ebec7d5bd14f71427d1e84f3dd0314c0f7b2291e5b200ac8c7c3b92590602090a3600190565b916109e781610dbd565b6001600160a01b0383165f81815260056020908152604080832033845290915290205493909290610a1885846111d1565b9360ff7f000000000000000000000000000000000000000000000000000000000000000016948560021161027a5760076020527f6d5257204ebe7d88fd91ae87941cb2dd9d8062b64ae5a2bd2d28ec40b9fbf6df5460025f9081527fb7c774451310d1be4108bc180d1b52823cb0ee0274a6c0081bcaf94f115fb96d54909391610aa39190846113b0565b9083526004602052610ab96040842054876111d1565b96602060018060a01b035f8051602061145983398151915254166024604051809781936309c00ffd60e11b83528d60048401525af1938415610738575f94610c79575b505f8051602061145983398151915254604051630ccd46b160e31b81526004810195909552602485018490525f6044860181905260209186916064918391906001600160a01b03165af1938415610738575f94610c45575b5060011161027a57610b79610b949160209460015f526007865260405f2054906113b0565b610b8281611284565b50610b8d8582611335565b3390611335565b606460018060a01b035f805160206114598339815191525416965f6040519889948593630ccd46b160e31b8552600485015260248401528160448401525af1938415610738575f94610c0d575b50610c03610bfc86610bf686610c08996112b1565b876113b0565b3383610e6f565b610eec565b600190565b9493506020853d602011610c3d575b81610c2960209383610952565b8101031261015f5793519293610c03610be1565b3d9150610c1c565b9093506020813d602011610c71575b81610c6160209383610952565b8101031261015f5751925f610b54565b3d9150610c54565b93506020843d602011610ca6575b81610c9460209383610952565b8101031261015f579251926020610afc565b3d9150610c87565b92919267ffffffffffffffff82116109745760405191610cd8601f8201601f191660200184610952565b82948184528183011161015f578281602093845f960137010152565b90610cfe81610dbd565b335f526004602052610d1460405f2054826111d1565b9060ff7f00000000000000000000000000000000000000000000000000000000000000001660011161027a5760076020527f6d5257204ebe7d88fd91ae87941cb2dd9d8062b64ae5a2bd2d28ec40b9fbf6df5460015f527fb39221ace053465ec3453ce2b36430bd138b997ecea25c1043da0c366812b82854610c089491610db7918391610da39190876113b0565b610dac81611284565b506106453382611335565b33610eec565b7fed8d60e34876f751cc8b014c560745351147d9de11b9347c854e881b128ea60054604051632fd514cd60e11b81526004810192909252336024830152602090829060449082906001600160a01b03165afa908115610738575f91610e34575b5015610e2557565b632fa38b3f60e01b5f5260045ffd5b90506020813d602011610e67575b81610e4f60209383610952565b8101031261015f5751801515810361015f575f610e1d565b3d9150610e42565b6001600160a01b0381169392908415610ed9576001600160a01b038316948515610ec65790610ec49495610645925f52600560205260405f20905f526020528260405f2055610ebe3084611335565b82611335565b565b85634a1406b160e11b5f5260045260245ffd5b8463e602df0560e01b5f5260045260245ffd5b91926001600160a01b03831692908315611098576001600160a01b0383169485156110855790610f2491610f1e611402565b916113b0565b91845f5260046020525f60206040822054858115611075575b8615611067575b5f805160206114598339815191525460405163f953e42760e01b8152600480820194909452848101909301919091526001600160f81b0319841660448301529092839160649183916001600160a01b03165af1908115610738575f91611031575b5092610fcc610fde9285610ff69650885f5260046020528060405f20556106453082611335565b845f52600460205260405f20546112b1565b835f5260046020528060405f20556106453082611335565b6006545f1981019081116106f05760207fddf252ad1be2c89b69c2b068fc378daa952ba7f163c4a11628f55a4df523b3ef91604051908152a3565b9390506020843d60201161105f575b8161104d60209383610952565b8101031261015f579251610fcc610fa5565b3d9150611040565b50611070611402565b610f44565b905061107f611402565b90610f3d565b8563ec442f0560e01b5f5260045260245ffd5b83634b637e8f60e11b5f5260045260245ffd5b5f546001600160a01b031633036104ac57565b61110d9160209160018060a01b035f805160206114598339815191525416905f6040518096819582946302e817ff60e41b8452600484015233602484015260806044840152608483019061088d565b600560f81b606483015203925af1908115610738575f9161119f575b507fed8d60e34876f751cc8b014c560745351147d9de11b9347c854e881b128ea600546001600160a01b0316803b1561015f576040516346ce4e4960e11b815260048101839052336024820152905f908290604490829084905af1801561073857611192575090565b5f61119c91610952565b90565b90506020813d6020116111c9575b816111ba60209383610952565b8101031261015f57515f611129565b3d91506111ad565b908115611274575b8015611262575b602090606460018060a01b035f805160206114598339815191525416935f60405195869485936334a6d7b960e11b8552600485015260248401528160448401525af1908115610738575f91611233575090565b90506020813d60201161125a575b8161124e60209383610952565b8101031261015f575190565b3d9150611241565b50602061126d611402565b90506111e0565b905061127e611402565b906111d9565b60065491905f1983146106f057610ec49060018401600655835f5260086020528060405f20553090611335565b908115611325575b8015611313575b602090606460018060a01b035f805160206114598339815191525416935f6040519586948593638c14cc2160e01b8552600485015260248401528160448401525af1908115610738575f91611233575090565b50602061131e611402565b90506112c0565b905061132f611402565b906112b9565b7fed8d60e34876f751cc8b014c560745351147d9de11b9347c854e881b128ea600546001600160a01b031691823b1561015f57604051631974142760e21b815260048101929092526001600160a01b03166024820152905f908290604490829084905af18015610738576113a65750565b5f610ec491610952565b9060646020925f60018060a01b035f805160206114598339815191525416604051968795869463cb3b940760e01b86526004860152602485015260448401525af1908115610738575f91611233575090565b5f8051602061145983398151915254604051631ce2e8d760e31b81525f60048201819052600560f81b60248301529091602091839160449183916001600160a01b03165af1908115610738575f9161123357509056feed8d60e34876f751cc8b014c560745351147d9de11b9347c854e881b128ea601a264697066735822122075719fc5720143d858bcbc2e1612c94a3c39c300d7a9dd7cdc1012d6b31d2e2064736f6c634300081a0033","linkReferences":{}},"methodIdentifiers":{"acceptOwnership()":"79ba5097","allowance(address,address)":"dd62ed3e","approve(address,bytes32,bytes)":"b32c1001","approve(address,uint256)":"095ea7b3","balanceOf(address)":"70a08231","decimals()":"313ce567","getErrorCodeForTransferId(uint256)":"a5184baf","mint(address,uint64)":"2893c5b0","name()":"06fdde03","owner()":"8da5cb5b","pendingOwner()":"e30c3978","renounceOwnership()":"715018a6","symbol()":"95d89b41","totalSupply()":"18160ddd","transfer(address,bytes32,bytes)":"7b7e0a5a","transfer(address,uint256)":"a9059cbb","transferFrom(address,address,bytes32,bytes)":"9a094352","transferFrom(address,address,uint256)":"23b872dd","transferOwnership(address)":"f2fde38b"},"id":5}