{"abi":[{"type":"constructor","inputs":[{"name":"_swapsManagerProxy","type":"address","internalType":"address"},{"name":"_markerDataFetcher","type":"address","internalType":"address"},{"name":"_defaultSharePrice","type":"uint256","internalType":"uint256"},{"name":"_feeDivisor","type":"uint256","internalType":"uint256"}],"stateMutability":"nonpayable"},{"type":"function","name":"createConfidentialIndexFund","inputs":[{"name":"indexTokens","type":"address[]","internalType":"address[]"},{"name":"stablecoin","type":"address","internalType":"address"}],"outputs":[{"name":"","type":"address","internalType":"address"}],"stateMutability":"nonpayable"},{"type":"function","name":"feeDivisor","inputs":[],"outputs":[{"name":"","type":"uint256","internalType":"uint256"}],"stateMutability":"view"},{"type":"function","name":"indexTokensAndStablecoinToIndexFund","inputs":[{"name":"","type":"bytes32","internalType":"bytes32"}],"outputs":[{"name":"","type":"address","internalType":"contract IIndexFund"}],"stateMutability":"view"},{"type":"function","name":"marketDataFetcher","inputs":[],"outputs":[{"name":"","type":"address","internalType":"contract MarketDataFetcher"}],"stateMutability":"view"},{"type":"function","name":"owner","inputs":[],"outputs":[{"name":"","type":"address","internalType":"address"}],"stateMutability":"view"},{"type":"function","name":"removeWhitelistedTokenStablecoinPair","inputs":[{"name":"token","type":"address","internalType":"address"},{"name":"stablecoin","type":"address","internalType":"address"}],"outputs":[],"stateMutability":"nonpayable"},{"type":"function","name":"renounceOwnership","inputs":[],"outputs":[],"stateMutability":"nonpayable"},{"type":"function","name":"setDefaultSharePrice","inputs":[{"name":"newDefaultSharePrice","type":"uint256","internalType":"uint256"}],"outputs":[],"stateMutability":"nonpayable"},{"type":"function","name":"setFeeDivisor","inputs":[{"name":"newFeeDivisor","type":"uint256","internalType":"uint256"}],"outputs":[],"stateMutability":"nonpayable"},{"type":"function","name":"setProtocolFee","inputs":[{"name":"newFeeDivisor","type":"uint256","internalType":"uint256"}],"outputs":[],"stateMutability":"nonpayable"},{"type":"function","name":"swapsManagerProxy","inputs":[],"outputs":[{"name":"","type":"address","internalType":"address"}],"stateMutability":"view"},{"type":"function","name":"tokenStablecoinPairToPoolKey","inputs":[{"name":"","type":"bytes32","internalType":"bytes32"}],"outputs":[{"name":"currency0","type":"address","internalType":"Currency"},{"name":"currency1","type":"address","internalType":"Currency"},{"name":"fee","type":"uint24","internalType":"uint24"},{"name":"tickSpacing","type":"int24","internalType":"int24"},{"name":"hooks","type":"address","internalType":"contract IHooks"}],"stateMutability":"view"},{"type":"function","name":"transferOwnership","inputs":[{"name":"newOwner","type":"address","internalType":"address"}],"outputs":[],"stateMutability":"nonpayable"},{"type":"function","name":"whitelistTokenStablecoinPair","inputs":[{"name":"token","type":"address","internalType":"address"},{"name":"stablecoin","type":"address","internalType":"address"},{"name":"fee","type":"uint24","internalType":"uint24"},{"name":"tickSpacing","type":"int24","internalType":"int24"},{"name":"hooks","type":"address","internalType":"contract IHooks"}],"outputs":[],"stateMutability":"nonpayable"},{"type":"event","name":"OwnershipTransferred","inputs":[{"name":"previousOwner","type":"address","indexed":true,"internalType":"address"},{"name":"newOwner","type":"address","indexed":true,"internalType":"address"}],"anonymous":false},{"type":"error","name":"CurrencyPairNotWhitelisted","inputs":[{"name":"token","type":"address","internalType":"address"},{"name":"stablecoin","type":"address","internalType":"address"}]},{"type":"error","name":"IndexFundAlreadyExists","inputs":[{"name":"indexTokens","type":"address[]","internalType":"address[]"},{"name":"stablecoin","type":"address","internalType":"address"}]},{"type":"error","name":"NoPriceFeedForToken","inputs":[{"name":"token","type":"address","internalType":"address"}]},{"type":"error","name":"OwnableInvalidOwner","inputs":[{"name":"owner","type":"address","internalType":"address"}]},{"type":"error","name":"OwnableUnauthorizedAccount","inputs":[{"name":"account","type":"address","internalType":"address"}]}],"bytecode":{"object":"0x60803461010257601f615c3238819003918201601f19168301916001600160401b0383118484101761010657808492608094604052833981010312610102576100478161011a565b906100546020820161011a565b90606060408201519101519133156100ef575f8054336001600160a01b0319821681178355604051969290916001600160a01b0316907f8be0079c531659141344cd1fd0a4f28419497f9722a3daafe3b4186f6b6457e09080a3600380546001600160a01b039283166001600160a01b03199182161790915560048054939092169216919091179055600555600655615b03908161012f8239f35b631e4fbdf760e01b5f525f60045260245ffd5b5f80fd5b634e487b7160e01b5f52604160045260245ffd5b51906001600160a01b03821682036101025756fe60806040526004361015610011575f80fd5b5f3560e01c8063043531b114610b2657806344c6058214610ab657806344fc4fab14610a8e578063715018a614610a37578063787dce3d14610a1c5780637c7024d6146109f457806383c3cb151461039f5780638c2d27831461036d5780638da5cb5b146103465780639a36f93214610329578063c9da450814610308578063e57b0faf146102a8578063f2fde38b146102235763ff63aa73146100b3575f80fd5b3461021f5760a036600319011261021f576100cc610bb3565b6100d4610b9d565b9060443562ffffff811680910361021f57606435908160020b80920361021f576084356001600160a01b038116929083900361021f57610112610c9c565b6001600160a01b03848116949086169290838610156102075761017161017f60029798604051996101428b610b47565b8a5260208a0196875260408a0194855260608a0195865260808a01978852604051928391602083019586610c10565b03601f198101835282610b63565b5190205f908152602086905260409020955186546001600160a01b039182166001600160a01b031991821617885593516001880180549351945160b81b62ffffff60b81b1662ffffff60a01b60a09690961b959095169183166001600160d01b0319909416939093171792909217905591519390920180549390911692909116919091179055005b61017161017f6002979598604051996101428b610b47565b5f80fd5b3461021f57602036600319011261021f5761023c610bb3565b610244610c9c565b6001600160a01b03168015610295575f80546001600160a01b03198116831782556001600160a01b0316907f8be0079c531659141344cd1fd0a4f28419497f9722a3daafe3b4186f6b6457e09080a3005b631e4fbdf760e01b5f525f60045260245ffd5b3461021f57604036600319011261021f576102c1610bb3565b6101716102e86102cf610b9d565b6102d7610c9c565b604051928391602083019586610c10565b5190205f5260026020525f60026040822082815582600182015501555f80f35b3461021f57602036600319011261021f57610321610c9c565b600435600555005b3461021f575f36600319011261021f576020600654604051908152f35b3461021f575f36600319011261021f575f546040516001600160a01b039091168152602090f35b3461021f57602036600319011261021f576004355f526001602052602060018060a01b0360405f205416604051908152f35b3461021f57604036600319011261021f5760043567ffffffffffffffff811161021f573660238201121561021f5780600401356103db81610b85565b916103e96040519384610b63565b81835260208301906024829360051b8201019036821161021f57602401915b8183106109d45750505061041a610b9d565b600480546040516325e9181b60e01b81526001600160a01b038481169382018490529395939091169390602081602481885afa90811561066c575f916109b5575b506001600160a01b0316156109a2576040518060208101928386519091905f5b818110610980575050506104ab916014916001600160601b03198a60601b16815203600b19810184520182610b63565b519020938251936104bb85610b85565b946104c96040519687610b63565b8086526104d8601f1991610b85565b015f5b81811061094b5750505f5b8451811015610677576001600160a01b036105018287610be8565b51166040516325e9181b60e01b8152816004820152602081602481875afa90811561066c575f9161063e575b506001600160a01b03161561062c57506001600160a01b0361054f8287610be8565b51166040516105678161017187602083019586610c10565b5190205f52600260205260405f206040519061058282610b47565b80546001600160a01b0390811680845260018301548083166020860181905260a082901c62ffffff16604087015260b89190911c600290810b6060870152909301549091166080840152159081610623575b506105f957906001916105e78289610be8565b526105f28188610be8565b50016104e6565b846001600160a01b0361060c8489610be8565b511663a17a1d7b60e01b5f5260045260245260445ffd5b905015896105d4565b63a24a6aed60e01b5f5260045260245ffd5b61065f915060203d8111610665575b6106578183610b63565b810190610bc9565b8961052d565b503d61064d565b6040513d5f823e3d90fd5b86858786835f52600160205260018060a01b0360405f20541661091b5760208061072f60236106fe60035460a01c6106f9602f6106b383610cde565b6040519889916d24b73232bc233ab7322a37b5b2b760911b82840152605f60f81b602e8401528051918291018484015e81015f838201520301601f198101885287610b63565b610cde565b6040519384916212519560ea1b828401528051918291018484015e81015f838201520301601f198101835282610b63565b60405191611d88918284019084821067ffffffffffffffff8311176108f35761076a610778938695613d468739604084526040840190610c78565b916020818403910152610c78565b03905ff092831561066c576003548060a01c906001600160601b0382146109075760019190910160a01b6001600160a01b0319166001600160a01b0391821690811760035560045460055460405197612efa808a019692959390931692909167ffffffffffffffff87118a8810176108f35761080c908a9998979695949392610e4c8b396101008752610100870190610c3c565b95602086015230604086015260018060a01b03166060850152608084015260a083015260c082015260e0818303910152602080835192838152019201905f5b8181106108955750505003905ff090811561066c575f9081526001602090815260409182902080546001600160a01b0319166001600160a01b039094169384179055905191825290f35b825180516001600160a01b03908116865260208281015182168188015260408084015162ffffff169088015260608084015160020b908801526080928301519091169186019190915286955060a0909401939092019160010161084b565b634e487b7160e01b5f52604160045260245ffd5b634e487b7160e01b5f52601160045260245ffd5b6040805163252fde1160e21b815260048101919091529081906109416044830186610c3c565b9060248301520390fd5b60209060405161095a81610b47565b5f81525f838201525f60408201525f60608201525f608082015282828a010152016104db565b82516001600160a01b031684528594506020938401939092019160010161047b565b5063a24a6aed60e01b5f5260045260245ffd5b6109ce915060203d602011610665576106578183610b63565b8661045b565b82356001600160a01b038116810361021f57815260209283019201610408565b3461021f575f36600319011261021f576004546040516001600160a01b039091168152602090f35b3461021f57602036600319011261021f57610a35610c9c565b005b3461021f575f36600319011261021f57610a4f610c9c565b5f80546001600160a01b0319811682556001600160a01b03167f8be0079c531659141344cd1fd0a4f28419497f9722a3daafe3b4186f6b6457e08280a3005b3461021f575f36600319011261021f576003546040516001600160a01b039091168152602090f35b3461021f57602036600319011261021f576004355f52600260205260a060405f20600180831b03815416906001810154906002600180861b039101541690604051928352600180851b038116602084015262ffffff81851c16604084015260b81c60020b60608301526080820152f35b3461021f57602036600319011261021f57610b3f610c9c565b600435600655005b60a0810190811067ffffffffffffffff8211176108f357604052565b90601f8019910116810190811067ffffffffffffffff8211176108f357604052565b67ffffffffffffffff81116108f35760051b60200190565b602435906001600160a01b038216820361021f57565b600435906001600160a01b038216820361021f57565b9081602091031261021f57516001600160a01b038116810361021f5790565b8051821015610bfc5760209160051b010190565b634e487b7160e01b5f52603260045260245ffd5b90916028926001600160601b03199060601b1682526001600160601b03199060601b1660148201520190565b90602080835192838152019201905f5b818110610c595750505090565b82516001600160a01b0316845260209384019390920191600101610c4c565b805180835260209291819084018484015e5f828201840152601f01601f1916010190565b5f546001600160a01b03163303610caf57565b63118cdaa760e01b5f523360045260245ffd5b67ffffffffffffffff81116108f357601f01601f191660200190565b805f9172184f03e93ff9f4daa797ed6e38ed64bf6a1f0160401b821015610e28575b806d04ee2d6d415b85acef8100000000600a921015610e0d575b662386f26fc10000811015610df9575b6305f5e100811015610de8575b612710811015610dd9575b6064811015610dcb575b1015610dc0575b600a60216001840193610d6585610cc2565b94610d736040519687610b63565b808652610d82601f1991610cc2565b013660208701378401015b5f1901916f181899199a1a9b1b9c1cb0b131b232b360811b8282061a8353048015610dbb57600a9091610d8d565b505090565b600190910190610d53565b606460029104930192610d4c565b61271060049104930192610d42565b6305f5e10060089104930192610d37565b662386f26fc1000060109104930192610d2a565b6d04ee2d6d415b85acef810000000060209104930192610d1a565b506040915072184f03e93ff9f4daa797ed6e38ed64bf6a1f0160401b8104610d0056fe61014080604052346105dc57612efa803803809161001d8285610720565b8339810190610100818303126105dc5780516001600160401b0381116105dc5781019082601f830112156105dc5781519061005782610743565b926100656040519485610720565b828452602084016020819460051b830101918683116105dc57602001905b8282106106ed575050506100996020820161075a565b916100a66040830161075a565b926100b36060840161075a565b6100bf6080850161075a565b916100cc60a0860161075a565b60c086015160e087015190969195916001600160401b0382116105dc57019789601f8a0112156105dc578851996101028b610743565b996101106040519b8c610720565b8b8b5260208b0191602060a0849e02830101918183116105dc57602001925b8284106106545750505050600180555f606060405161014d81610705565b8281528260208201528260408201520152739d6891a6240d6130c54ae243d8005063d05fe14b606060405161018181610705565b73fee8407e2f5e3ee68ad77cae98c434e637f516e580825273687408ab54661ba0b4aef3a44156c616c6955e076020830181905273fb03be574d14c256d56f09a198b586bdfc0a9de26040840181905293909201939093527fed8d60e34876f751cc8b014c560745351147d9de11b9347c854e881b128ea60080546001600160a01b031990811690941790557fed8d60e34876f751cc8b014c560745351147d9de11b9347c854e881b128ea6018054841690911790557fed8d60e34876f751cc8b014c560745351147d9de11b9347c854e881b128ea6028054831690911790557fed8d60e34876f751cc8b014c560745351147d9de11b9347c854e881b128ea60380548216739d6891a6240d6130c54ae243d8005063d05fe14b1790557f93ab6e17f2c461cce6ea5d4ec117e51dda77a64affc2b2c05f8cd440def0e70080549091167333347831500f1e73f0cccbb95c9f86b94d7b112317905551906001600160401b0382116105965768010000000000000000821161059657600c5482600c55808310610610575b50600c5f5260205f205f5b8381106105f3578b8b600460208d8d8d8d8d8d60018060a01b0316610100528460e05260018060a01b031660805260018060a01b031660a05260c052600e5560405192838092638da5cb5b60e01b825260018060a01b03165afa9081156105e8575f916105aa575b50601080546001600160a01b0319166001600160a01b0392909216919091179055519068010000000000000000821161059657600d5482600d55808310610516575b5090600d5f5260205f205f925b82841061047d5760405161278b908161076f823960805181818161015b01528181610ad901528181610f600152818161123a01526118e8015260a0518181816103cd0152818161107a015281816113cc0152611911015260c0518181816104fa015281816114e60152818161169f01526116f6015260e051816110cf0152610100518181816105ee0152818161090d01528181611024015281816114b00152611c8301526101205181611fbf0152f35b8051805183546001600160a01b039182166001600160a01b0319918216178555602080840151600180880180546040880151606089015160b81b62ffffff60b81b1662ffffff60a01b60a09290921b919091169488166001600160d01b031990921691909117939093179290921790915560809094015160028701805491909416921691909117909155940193600390920191016103cd565b80600302906003820403610582578260030260038104840361058257600d5f527fd7b6990105719101dabeb77144f2a3385c8033acd3af97e9423a695e81ad1eb591820191015b81811061056a57506103c0565b805f600392555f60018201555f60028201550161055d565b634e487b7160e01b5f52601160045260245ffd5b634e487b7160e01b5f52604160045260245ffd5b90506020813d6020116105e0575b816105c560209383610720565b810103126105dc576105d69061075a565b8361037e565b5f80fd5b3d91506105b8565b6040513d5f823e3d90fd5b82516001600160a01b031681830155602090920191600101610316565b600c5f527fdf6966c971051c3d54ec59162606531493a51404a002842f56009d7e5cf4a8c79081019083015b818110610649575061030b565b5f815560010161063c565b60a0848303126105dc576040519060a082016001600160401b03811183821017610596576040526106848561075a565b82526106926020860161075a565b6020830152604085015162ffffff811681036105dc57604083015260608501518060020b81036105dc5760608301526080850151906001600160a01b03821682036105dc5782602092608060a095015281520193019261012f565b602080916106fa8461075a565b815201910190610083565b608081019081106001600160401b0382111761059657604052565b601f909101601f19168101906001600160401b0382119082101761059657604052565b6001600160401b0381116105965760051b60200190565b51906001600160a01b03821682036105dc5756fe6080806040526004361015610012575f80fd5b5f905f3560e01c90816301ffc9a7146120ad5750806305d7d94b14611f52578063248a9ca314611f205780632f2ff15d14611eef57806335c995ec14611c1257806336568abe14611bd957806338f250ec14611b635780634148fc4f146118ca57806360c8d85714610f8f57806375696e7f14610f4a5780639134867c1461099457806391d1485414610958578063a217fddf1461093c578063b6f67312146108f7578063d547741f146108c25763f98723c7146100ce575f80fd5b346108bf5760803660031901126108bf5760243560443580151581036108bb576064358015908115036108b7575f80516020612716833981519152546001600160a01b031633036108b7576004358452600960205261013961014060408620604051928380926122ac565b0382612154565b6001600160a01b039061015290612228565b5116906108a0577f00000000000000000000000000000000000000000000000000000000000000006001600160a01b03169084823b1561089c5785604051630852cd8d60e31b8152866004820152818160248183895af180156106b457610887575b505084337fdb79cc492679ef2624944d6ed3cdbad5b974b5550de330ae18922f2944eec78a8880a385805b600c54811015610883576101f2816122ec565b905460039190911b1c6001600160a01b0316801561080d576040516370a0823160e01b8152306004820152602081602481855afa801561080257899185916107c8575b509061024091612304565b6040516318160ddd60e01b8152906020826004818b5afa9182156107bd578592610786575b509061027091612325565b871561031b5760405163a9059cbb60e01b81526001600160a01b038716600482015260248101919091529260209184916044918391905af1918215610310576001926102e4575b507ee2d681c483528119b71f74ebcd6ad9dd9ca7fd71ea2245aa2362e27d3f2eb68880a15b0186906101df565b6103049060203d8111610309575b6102fc8183612154565b81019061218a565b6102b7565b503d6102f2565b6040513d8a823e3d90fd5b918094935061032a91506122ec565b60018060a01b0391549060031b1c1660125461ff0061034e60ff8360081c16612343565b60081b169061ff0019161760125580895260146020526040892061037383825461225d565b9055601254600260ff8260081c1614610393575b505050906001906102dc565b61ff0019166012558089526014602052604089205491816107205760125b604051630681320d60e51b8152600481018490526020816024817f00000000000000000000000000000000000000000000000000000000000000006001600160a01b03165afa908115610715578c916106e4575b506009810290808204600914901517156106bf5790610433600a61042c8761043995612304565b0491612317565b90612325565b926001600160801b0381116106d3575061045285612354565b5092603c4201918242116106bf578b949392916001600160801b03809260405196630abff6dd60e11b885260018060a01b038154166004890152600181015460018060a01b03811660248a015262ffffff8160a01c1660448a015260b81c60020b6064890152600260018060a01b039101541660848801521660a48601521660c484015260e48301526001610104830152610124820152602081610144818560018060a01b037f0000000000000000000000000000000000000000000000000000000000000000165af19081156106b457829161067e575b50610535919261225d565b917f875fc5b1c93e96a85172e0d2b74fcdb6f314c3460e99e6a7da8743bc8b75e37c8280a182610569575b91905f80610387565b5f8051602061273683398151915254604051631ce2e8d760e31b815260048101859052600160fb1b60248201529260209184916044918391906001600160a01b03165af1918215610310578892610646575b506040516323b872dd60e01b815230600482015233602482015260448101929092526020826064818b6001600160a01b037f0000000000000000000000000000000000000000000000000000000000000000165af191821561031057600192610628575b50879150610560565b61063f9060203d8111610309576102fc8183612154565b505f61061f565b91506020823d8211610676575b8161066060209383612154565b810103126106725790519060206105bb565b5f80fd5b3d9150610653565b9150506020813d82116106ac575b8161069960209383612154565b810103126106725751879061053561052a565b3d915061068c565b6040513d84823e3d90fd5b634e487b7160e01b8c52601160045260248cfd5b628af7f560e11b8b5260045260248afd5b90506020813d821161070d575b816106fe60209383612154565b8101031261067257515f610405565b3d91506106f1565b6040513d8e823e3d90fd5b60405163313ce56760e01b8152602081600481865afa801561077b5760ff918c9161074d575b50166103b1565b61076e915060203d8111610774575b6107668183612154565b8101906121f7565b5f610746565b503d61075c565b6040513d8d823e3d90fd5b915093506020813d82116107b5575b816107a260209383612154565b8101031261067257518993610270610265565b3d9150610795565b6040513d87823e3d90fd5b945050506020833d82116107fa575b816107e460209383612154565b8101031261067257610240888a94519091610235565b3d91506107d7565b6040513d86823e3d90fd5b6108178847612304565b6040516318160ddd60e01b8152906020826004818b5afa9182156107bd57859261084c575b509061084791612325565b610270565b915093506020813d821161087b575b8161086860209383612154565b810103126106725751899361084761083c565b3d915061085b565b5080f35b8161089191612154565b61089c57855f6101b4565b8580fd5b63793fd43160e01b84526004526024829052604483fd5b8380fd5b8280fd5b80fd5b50346108bf576108836108d436612100565b906108f26108ed825f525f602052600160405f20015490565b612390565b6124d8565b50346108bf57806003193601126108bf576040517f00000000000000000000000000000000000000000000000000000000000000006001600160a01b03168152602090f35b50346108bf57806003193601126108bf57602090604051908152f35b50346108bf57604061096936612100565b9290815280602052209060018060a01b03165f52602052602060ff60405f2054166040519015158152f35b50346108bf5760603660031901126108bf5760443567ffffffffffffffff8111610d8e5760a46020806109ce6109f6943690600401612126565b94906109d8612370565b6109ee6109e63688846121a2565b600435612558565b9536916121a2565b60018060a01b035f80516020612736833981519152541690866040519586809581946302e817ff60e41b83526024356004840152336024840152608060448401528051918291826084860152018484015e83838284010152836064830152601f801991011681010301925af1908115610f3f578391610f0d575b505f805160206126f68339815191525483906001600160a01b0316803b15610d8e578180916044604051809481936346ce4e4960e11b83528860048401523360248401525af180156106b457610ef8575b50506040516370a0823160e01b8152336004820152907f00000000000000000000000000000000000000000000000000000000000000006001600160a01b0316602083602481845afa9283156107bd578593610ec0575b508284938515610eb0575b15610e9e575b602090606460018060a01b035f805160206127368339815191525416958860405197889485936334a6d7b960e11b8552600485015260248401528160448401525af19283156107bd578593610e6a575b506040516323b872dd60e01b81523360048201523060248201526044810185905260208160648189865af18015610e4257610e4d575b50604051630cf4e94560e31b8152602081600481855afa908115610e42578691610e10575b505f198101908111610dfc5760209060246040518094819363a5184baf60e01b835260048301525afa80156107bd5760ff918691610ddd575b5016610dce5760405192610c22608085612154565b600384526060366020860137610c3784612228565b52825160011015610dba576040830152815160021015610da65760608201526064420190814211610d92575f805160206126f68339815191525483906001600160a01b0316803b15610d8e5781604051809263155f840160e21b825260206004830152818381610caa602482018a612450565b03925af180156106b457610d79575b50505f8051602061271683398151915254604051634c0d927760e01b815260a060048201529260209284926001600160a01b031691839187918391610d029060a4840190612450565b9063f98723c760e01b6024840152836044840152606483015282608483015203925af180156106b4578290610d45575b610d3e91503390612483565b6001805580f35b506020813d602011610d71575b81610d5f60209383612154565b8101031261067257610d3e9051610d32565b3d9150610d52565b81610d8391612154565b6108bb57825f610cb9565b5080fd5b634e487b7160e01b83526011600452602483fd5b634e487b7160e01b83526032600452602483fd5b634e487b7160e01b84526032600452602484fd5b6312171d8360e31b8452600484fd5b610df6915060203d602011610774576107668183612154565b5f610c0d565b634e487b7160e01b86526011600452602486fd5b90506020813d602011610e3a575b81610e2b60209383612154565b8101031261067257515f610bd4565b3d9150610e1e565b6040513d88823e3d90fd5b610e659060203d602011610309576102fc8183612154565b610baf565b9092506020813d602011610e96575b81610e8660209383612154565b810103126106725751915f610b79565b3d9150610e79565b506020610ea9612670565b9050610b29565b9350610eba612670565b93610b23565b9092506020813d602011610ef0575b81610edc60209383612154565b81010312610eec5751915f610b18565b8480fd5b3d9150610ecf565b81610f0291612154565b6108bb57825f610ac1565b90506020813d602011610f37575b81610f2860209383612154565b8101031261067257515f610a70565b3d9150610f1b565b6040513d85823e3d90fd5b50346108bf57806003193601126108bf576040517f00000000000000000000000000000000000000000000000000000000000000006001600160a01b03168152602090f35b50346108bf5760403660031901126108bf575f8051602061271683398151915254602435906001600160a01b03163303610d8e5760043582526009602052610139610fe360408420604051928380926122ac565b6001600160a01b0390610ff590612228565b5160405163040b850f60e31b815230600482015260248101849052911690602081604481876001600160a01b037f0000000000000000000000000000000000000000000000000000000000000000165af18015610802576118ad575b50604051630a7c1bd560e21b815260206004820152908382806110766024820161226a565b03817f00000000000000000000000000000000000000000000000000000000000000006001600160a01b03165afa918215610802578490859361180d575b50600f819055604051634d1b7c9960e11b81526020816004817f00000000000000000000000000000000000000000000000000000000000000006001600160a01b03165afa8015610e425786906117d9575b611111915085612325565b61111d8160115461225d565b601155807fc472cb3a7a659a876494d66b3063145f279701771d6150b9329c31611ed6405c8780a284039384116117c5578251600c54810361174e579083519361116685612210565b946111746040519687612154565b808652611183601f1991612210565b0136602087013786916201518042019165ffffffffffff8342119316935b8581106116425750505050505060125460ff6111be818316612343565b169060ff191617601255835b600c5481101561121757806111e160019285612249565b516111eb826122ec565b848060a01b0391549060031b1c168752601360205261120f6040882091825461225d565b9055016111ca565b848285601254600260ff8216146112e2575b50600e5461123691612325565b90827f00000000000000000000000000000000000000000000000000000000000000006001600160a01b0316803b15610d8e576040516340c10f1960e01b81526001600160a01b0384166004820152602481018590529082908290604490829084905af180156106b4576112cd575b50807f6332ddaa8a69b5eb2524ec7ca317b7c2b01ecf678d584031415f81270977b8fc91a380f35b816112d791612154565b6108bb5782846112a5565b60ff19166012559042603c81011090835b600c5481101561161157611306816122ec565b905460039190911b1c6001600160a01b03169061132281612354565b506040519260a0840184811067ffffffffffffffff8211176115fd5760405260018060a01b038254168452600182015491602085019260018060a01b0381168452604086019162ffffff8260a01c168352606087019160b81c60020b8252600260018060a01b03910154169160808701928352838b52601360205260408b20549380155f146115af576012905b604051630681320d60e51b815260048101919091526020816024817f00000000000000000000000000000000000000000000000000000000000000006001600160a01b03165afa9081156115a4578d91611573575b5060098102908082046009149015171561155f5790610433600a61042c8861142b95612304565b946001600160801b03851161154c57896106bf57604051630abff6dd60e11b815297516001600160a01b0390811660048a0152905181166024890152905162ffffff166044880152905160020b60648701529051811660848601526001600160801b0391821660a4860152911660c484015242603c0160e484015260016101048401527f0000000000000000000000000000000000000000000000000000000000000000811661012484015260209083906101449082908a907f0000000000000000000000000000000000000000000000000000000000000000165af1918215610e425760019261151e575b50016112f3565b61153e9060203d8111611545575b6115368183612154565b8101906121e8565b5086611517565b503d61152c565b628af7f560e11b8c52600485905260248cfd5b634e487b7160e01b8d52601160045260248dfd5b90506020813d821161159c575b8161158d60209383612154565b8101031261067257518d611404565b3d9150611580565b6040513d8f823e3d90fd5b60405163313ce56760e01b81528c90602081600481865afa9081156106b45760ff92916115df575b5016906113af565b6115f7915060203d8111610774576107668183612154565b8e6115d7565b634e487b7160e01b89526041600452602489fd5b509161123691507f79154593ad5827af96f232d8b081e8d48c8bad62e5314fd67880b9880b4812408480a190611229565b61165f8361165a6116538486612249565b518c612304565b612325565b611669828a612249565b52611673816122ec565b90546001600160a01b0360039290921b1c8116908590611693848c612249565b5116906106bf578b91907f00000000000000000000000000000000000000000000000000000000000000006001600160a01b03163b156108bb5760405163267b14bd60e01b815260048101929092526024820152604481018790528181606481837f00000000000000000000000000000000000000000000000000000000000000006001600160a01b03165af180156106b457611735575b50506001016111a1565b8161173f91612154565b61174a57895f61172b565b8980fd5b60405162461bcd60e51b815260206004820152604360248201527f446973726570616e6379206265747765656e206e756d626572206f66206d617260448201527f6b6574206361707320616e64206e756d626572206f6620696e64657820746f6b606482015262656e7360e81b608482015260a490fd5b634e487b7160e01b85526011600452602485fd5b506020813d602011611805575b816117f360209383612154565b81010312610672576111119051611106565b3d91506117e6565b9250503d8085843e61181f8184612154565b820191604081840312610eec5780519060208101519067ffffffffffffffff82116118a957019280601f8501121561089c57835161185c81612210565b9461186a6040519687612154565b81865260208087019260051b8201019283116118a557602001905b828210611895575050505f6110b4565b8151815260209182019101611885565b8780fd5b8680fd5b6118c59060203d602011610309576102fc8183612154565b611051565b50346108bf57806003193601126108bf57600c546001600160a01b037f000000000000000000000000000000000000000000000000000000000000000081169291829182907f000000000000000000000000000000000000000000000000000000000000000016815b83851061194557602086604051908152f35b909192939450611954856122ec565b9054604051630681320d60e51b815260039290921b1c6001600160a01b03166004820152602081602481865afa908115610802578491611b32575b506024602061199d886122ec565b90546040516370a0823160e01b81523060048201529384929091839160031b1c6001600160a01b03165afa9081156107bd578591611b01575b506119e0876122ec565b905460039190911b1c6001600160a01b0316611a8857611a199291610433611a0d611a1393601293612304565b91612317565b9061225d565b906040516318160ddd60e01b81526020816004818a5afa908115610802578491611a55575b50611a4b60019184612325565b9501939291611933565b90506020813d8211611a80575b81611a6f60209383612154565b810103126106725751611a4b611a3e565b3d9150611a62565b60046020611a95896122ec565b905460405163313ce56760e01b81529384929091839160031b1c6001600160a01b03165afa908115610e4257611a0d611a139360ff611a19979694610433948b91611ae3575b501693612304565b611afb915060203d8111610774576107668183612154565b5f611adb565b90506020813d8211611b2a575b81611b1b60209383612154565b8101031261067257515f6119d6565b3d9150611b0e565b90506020813d8211611b5b575b81611b4c60209383612154565b8101031261067257515f61198f565b3d9150611b3f565b50346108bf57806003193601126108bf5760405190611b8c82611b858161226a565b0383612154565b604051918291602083016020845282518091526020604085019301915b818110611bb7575050500390f35b82516001600160a01b0316845285945060209384019390920191600101611ba9565b50346108bf57611be836612100565b90336001600160a01b03831603611c035790610883916124d8565b63334bd91960e11b8352600483fd5b50346106725760403660031901126106725760243567ffffffffffffffff8111610672576109e6611c4a611c59923690600401612126565b611c52612370565b36916121a2565b6040516323b872dd60e01b8152336004820152306024820152604481018290526001600160a01b037f000000000000000000000000000000000000000000000000000000000000000016906020816064815f865af18015611e9557611ed2575b50604051630cf4e94560e31b8152602081600481855afa908115611e95575f91611ea0575b505f198101908111611e535760209060246040518094819363a5184baf60e01b835260048301525afa8015611e955760ff915f91611e76575b5016611e67576040805191611d2c8284612154565b60018352601f198201366020850137611d4483612228565b526064420191824211611e53575f805160206126f6833981519152546001600160a01b0316803b15610672575f8351809263155f840160e21b825260206004830152818381611d966024820189612450565b03925af18015611e4957611e32575b505f80516020612716833981519152548251634c0d927760e01b815260a060048201529360209285926001600160a01b031691839188918391611dec9060a4840190612450565b906360c8d85760e01b6024840152836044840152606483015282608483015203925af1908115611e2957508290610d4557610d3e91503390612483565b513d84823e3d90fd5b611e3f9194505f90612154565b5f92611dec611da5565b83513d5f823e3d90fd5b634e487b7160e01b5f52601160045260245ffd5b6312171d8360e31b5f5260045ffd5b611e8f915060203d602011610774576107668183612154565b5f611d17565b6040513d5f823e3d90fd5b90506020813d602011611eca575b81611ebb60209383612154565b8101031261067257515f611cde565b3d9150611eae565b611eea9060203d602011610309576102fc8183612154565b611cb9565b3461067257611f1e611f0036612100565b90611f196108ed825f525f602052600160405f20015490565b6123c8565b005b34610672576020366003190112610672576020611f4a6004355f525f602052600160405f20015490565b604051908152f35b34610672575f366003190112610672576010546001600160a01b0316330361205157611f7c612370565b6011541561201a575f601181905560105460405163a9059cbb60e01b81526001600160a01b039182166004820152602481018390529160209183916044918391907f0000000000000000000000000000000000000000000000000000000000000000165af1908115611e95575f91611ffb575b5015611e675760018055005b612014915060203d602011610309576102fc8183612154565b81611fef565b60405162461bcd60e51b815260206004820152600f60248201526e139bc81999595cc81d1bc81cd95b99608a1b6044820152606490fd5b60405162461bcd60e51b815260206004820152602e60248201527f4f6e6c79207468652070726f746f636f6c206f776e65722063616e2063616c6c60448201526d103a3434b990333ab731ba34b7b760911b6064820152608490fd5b34610672576020366003190112610672576004359063ffffffff60e01b821680920361067257602091637965db0b60e01b81149081156120ef575b5015158152f35b6301ffc9a760e01b149050836120e8565b604090600319011261067257600435906024356001600160a01b03811681036106725790565b9181601f840112156106725782359167ffffffffffffffff8311610672576020838186019501011161067257565b90601f8019910116810190811067ffffffffffffffff82111761217657604052565b634e487b7160e01b5f52604160045260245ffd5b90816020910312610672575180151581036106725790565b92919267ffffffffffffffff821161217657604051916121cc601f8201601f191660200184612154565b829481845281830111610672578281602093845f960137010152565b90816020910312610672575190565b90816020910312610672575160ff811681036106725790565b67ffffffffffffffff81116121765760051b60200190565b8051156122355760200190565b634e487b7160e01b5f52603260045260245ffd5b80518210156122355760209160051b010190565b91908201809211611e5357565b6020600c54918281520190600c5f5260205f20905f5b81811061228d5750505090565b82546001600160a01b0316845260209093019260019283019201612280565b90602082549182815201915f5260205f20905f5b8181106122cd5750505090565b82546001600160a01b03168452602090930192600192830192016122c0565b600c5481101561223557600c5f5260205f2001905f90565b81810292918115918404141715611e5357565b604d8111611e5357600a0a90565b811561232f570490565b634e487b7160e01b5f52601260045260245ffd5b60ff1660ff8114611e535760010190565b600d5481101561223557600d5f52600360205f20910201905f90565b600260015414612381576002600155565b633ee5aeb560e01b5f5260045ffd5b5f8181526020818152604080832033845290915290205460ff16156123b25750565b63e2517d3f60e01b5f523360045260245260445ffd5b5f818152602081815260408083206001600160a01b038616845290915290205460ff1661244a575f818152602081815260408083206001600160a01b0395909516808452949091528120805460ff19166001179055339291907f2f8788117e7eff1d82e926ec794901d17c78024a50270940304540a733656f0d9080a4600190565b50505f90565b90602080835192838152019201905f5b81811061246d5750505090565b8251845260209384019390920191600101612460565b5f52600960205260405f20805490680100000000000000008210156121765760018201808255821015612235575f5260205f20019060018060a01b03166bffffffffffffffffffffffff60a01b825416179055565b5f818152602081815260408083206001600160a01b038616845290915290205460ff161561244a575f818152602081815260408083206001600160a01b0395909516808452949091528120805460ff19169055339291907ff6391f5c32d9c69d2a47ea670b442974b53935d1edc7fd64eb21e047a839171b9080a4600190565b6020929183915f8051602061273683398151915254905f60a46040518098819682956302e817ff60e41b84526004840152336024840152608060448401528051918291826084860152018484015e8181018301849052600160fb1b6064830152601f01601f191681010301926001600160a01b03165af1918215611e95575f9261263c575b505f805160206126f6833981519152546001600160a01b031682813b15610672575f916044839260405194859384926346ce4e4960e11b845260048401523360248401525af18015611e95576126305750565b5f61263a91612154565b565b9091506020813d602011612668575b8161265860209383612154565b810103126106725751905f6125dd565b3d915061264b565b5f8051602061273683398151915254604051631ce2e8d760e31b81525f60048201819052600160fb1b60248301529091602091839160449183916001600160a01b03165af1908115611e95575f916126c6575090565b90506020813d6020116126ed575b816126e160209383612154565b81010312610672575190565b3d91506126d456feed8d60e34876f751cc8b014c560745351147d9de11b9347c854e881b128ea60093ab6e17f2c461cce6ea5d4ec117e51dda77a64affc2b2c05f8cd440def0e700ed8d60e34876f751cc8b014c560745351147d9de11b9347c854e881b128ea601a26469706673582212200528610d0f0bee32c3f01f64226b370994be711fb07845f5837ab21128448e7b64736f6c634300081a003360806040523461050c57611d88803803806100198161052f565b92833981019060408183031261050c5780516001600160401b03811161050c5782610045918301610554565b60208201519092906001600160401b03811161050c576100659201610554565b33156104f957600180546001600160a01b03199081169091555f805433928116831782556001600160a01b0316907f8be0079c531659141344cd1fd0a4f28419497f9722a3daafe3b4186f6b6457e09080a381516001600160401b03811161040c57600354600181811c911680156104ef575b60208210146103ee57601f811161048c575b50602092601f821160011461042b57928192935f92610420575b50508160011b915f199060031b1c1916176003555b80516001600160401b03811161040c57600454600181811c91168015610402575b60208210146103ee57601f811161038b575b50602091601f821160011461032b579181925f92610320575b50508160011b915f199060031b1c1916176004555b5f6060610185610510565b8281528260208201528260408201520152739d6891a6240d6130c54ae243d8005063d05fe14b60606101b5610510565b73fee8407e2f5e3ee68ad77cae98c434e637f516e580825273687408ab54661ba0b4aef3a44156c616c6955e076020830181905273fb03be574d14c256d56f09a198b586bdfc0a9de2604080850182905294909301949094527fed8d60e34876f751cc8b014c560745351147d9de11b9347c854e881b128ea60080546001600160a01b031990811690921790557fed8d60e34876f751cc8b014c560745351147d9de11b9347c854e881b128ea601805482169094179093557fed8d60e34876f751cc8b014c560745351147d9de11b9347c854e881b128ea6028054841690911790557fed8d60e34876f751cc8b014c560745351147d9de11b9347c854e881b128ea60380548316739d6891a6240d6130c54ae243d8005063d05fe14b1790557f93ab6e17f2c461cce6ea5d4ec117e51dda77a64affc2b2c05f8cd440def0e70080549092167333347831500f1e73f0cccbb95c9f86b94d7b112317909155516117e290816105a68239f35b015190505f80610165565b601f1982169260045f52805f20915f5b8581106103735750836001951061035b575b505050811b0160045561017a565b01515f1960f88460031b161c191690555f808061034d565b9192602060018192868501518155019401920161033b565b60045f527f8a35acfbc15ff81a39ae7d344fd709f28e8600b4aa8c65c6b64bfe7fe36bd19b601f830160051c810191602084106103e4575b601f0160051c01905b8181106103d9575061014c565b5f81556001016103cc565b90915081906103c3565b634e487b7160e01b5f52602260045260245ffd5b90607f169061013a565b634e487b7160e01b5f52604160045260245ffd5b015190505f80610104565b601f1982169360035f52805f20915f5b868110610474575083600195961061045c575b505050811b01600355610119565b01515f1960f88460031b161c191690555f808061044e565b9192602060018192868501518155019401920161043b565b60035f527fc2575a0e9e593c00f959f8c92f12db2869c3395a3b0502d05e2516446f71f85b601f830160051c810191602084106104e5575b601f0160051c01905b8181106104da57506100ea565b5f81556001016104cd565b90915081906104c4565b90607f16906100d8565b631e4fbdf760e01b5f525f60045260245ffd5b5f80fd5b60405190608082016001600160401b0381118382101761040c57604052565b6040519190601f01601f191682016001600160401b0381118382101761040c57604052565b81601f8201121561050c578051906001600160401b03821161040c57610583601f8301601f191660200161052f565b928284526020838301011161050c57815f9260208093018386015e830101529056fe6080806040526004361015610012575f80fd5b5f3560e01c90816306fdde031461093a57508063095ea7b31461091357806318160ddd146108f65780632207ea631461087b57806323b872dd1461084c578063313ce5671461083157806340c10f19146106a957806342966c681461058257806367a74a281461056557806370a082311461052d578063715018a6146104ca57806379ba5097146104455780637b7e0a5a146104285780638da5cb5b1461040157806395d89b41146102f55780639a09435214610294578063a5184baf14610267578063a9059cbb14610236578063b32c1001146101fc578063dd62ed3e146101ac578063e30c3978146101845763f2fde38b1461010e575f80fd5b3461018057602036600319011261018057610127610a16565b61012f611218565b60018060a01b0316806bffffffffffffffffffffffff60a01b600154161760015560018060a01b035f54167f38d16b8cac22d99fc7c124b9cd0de2d3fa1faef420bfe791d8c362d765e227005f80a3005b5f80fd5b34610180575f366003190112610180576001546040516001600160a01b039091168152602090f35b34610180576040366003190112610180576101c5610a16565b6101cd610a2c565b6001600160a01b039182165f908152600660209081526040808320949093168252928352819020549051908152f35b346101805761022a61021e61022461021336610a70565b949192943691610e5c565b9061122b565b90610aed565b50602060405160018152f35b3461018057604036600319011261018057602061025d610254610a16565b60243590610ec3565b6040519015158152f35b34610180576020366003190112610180576004355f526011602052602060ff60405f205416604051908152f35b34610180576080366003190112610180576102ad610a16565b6102b5610a2c565b906064359167ffffffffffffffff8311610180576102ef6102e76102e061022a953690600401610a42565b3691610e5c565b60443561122b565b91610b42565b34610180575f366003190112610180576040515f6004548060011c906001811680156103f7575b6020831081146103e3578285529081156103bf5750600114610361575b61035d8361034981850382610ab7565b6040519182916020835260208301906109f2565b0390f35b91905060045f527f8a35acfbc15ff81a39ae7d344fd709f28e8600b4aa8c65c6b64bfe7fe36bd19b915f905b8082106103a557509091508101602001610349610339565b91926001816020925483858801015201910190929161038d565b60ff191660208086019190915291151560051b840190910191506103499050610339565b634e487b7160e01b5f52602260045260245ffd5b91607f169161031c565b34610180575f366003190112610180575f546040516001600160a01b039091168152602090f35b346101805761022a61021e61043f61021336610a70565b90610ec3565b34610180575f36600319011261018057600154336001600160a01b03909116036104b757600180546001600160a01b03199081169091555f805433928116831782556001600160a01b0316907f8be0079c531659141344cd1fd0a4f28419497f9722a3daafe3b4186f6b6457e09080a3005b63118cdaa760e01b5f523360045260245ffd5b34610180575f366003190112610180576104e2611218565b600180546001600160a01b03199081169091555f80549182168155906001600160a01b03167f8be0079c531659141344cd1fd0a4f28419497f9722a3daafe3b4186f6b6457e08280a3005b34610180576020366003190112610180576001600160a01b0361054e610a16565b165f526005602052602060405f2054604051908152f35b34610180575f366003190112610180576020601254604051908152f35b3461018057602036600319011261018057335f52600560205260405f20548015610695575b5f8051602061178d83398151915254604051638c14cc2160e01b815260048082019390935291356024830152600160f81b6044830152602090829060649082905f906001600160a01b03165af1801561068a575f90610656575b806106269150335f5260056020528060405f205561061f3082611602565b3390611602565b5f604051811981527fddf252ad1be2c89b69c2b068fc378daa952ba7f163c4a11628f55a4df523b3ef60203392a3005b506020813d602011610682575b8161067060209383610ab7565b81010312610180576106269051610601565b3d9150610663565b6040513d5f823e3d90fd5b505f60206106a161166a565b9150506105a7565b34610180576040366003190112610180576106c2610a16565b6024356106cd611218565b6001600160a01b0382165f8181526005602052604081205491939091801561081f575b5f8051602061178d8339815191525460405163f953e42760e01b8152600481019290925260248201859052600160f81b6044830152909260209184916064918391906001600160a01b03165af1801561068a575f906107eb575b61076c9250845f5260056020528060405f20556107673082611602565b611602565b815f7fddf252ad1be2c89b69c2b068fc378daa952ba7f163c4a11628f55a4df523b3ef602060405183198152a36002548181018091116107d7577f0f6798a560793a54c3bcfe86a93cde1e73087d944c0ea20544137d412139688591602091600255604051908152a2005b634e487b7160e01b5f52601160045260245ffd5b506020823d602011610817575b8161080560209383610ab7565b810103126101805761076c915161074a565b3d91506107f8565b50602061082a61166a565b90506106f0565b34610180575f36600319011261018057602060405160068152f35b3461018057606036600319011261018057602061025d61086a610a16565b610872610a2c565b60443591610b42565b346101805760403660031901126101805760243560ff8116809103610180577f93ab6e17f2c461cce6ea5d4ec117e51dda77a64affc2b2c05f8cd440def0e700546001600160a01b03163303610180576012545f1981146107d757600181016012555f52601160205260405f209060ff198254161790555f80f35b34610180575f366003190112610180576020600254604051908152f35b3461018057604036600319011261018057602061025d610931610a16565b60243590610aed565b34610180575f366003190112610180575f6003548060011c906001811680156109e8575b6020831081146103e3578285529081156103bf575060011461098a5761035d8361034981850382610ab7565b91905060035f527fc2575a0e9e593c00f959f8c92f12db2869c3395a3b0502d05e2516446f71f85b915f905b8082106109ce57509091508101602001610349610339565b9192600181602092548385880101520191019092916109b6565b91607f169161095e565b805180835260209291819084018484015e5f828201840152601f01601f1916010190565b600435906001600160a01b038216820361018057565b602435906001600160a01b038216820361018057565b9181601f840112156101805782359167ffffffffffffffff8311610180576020838186019501011161018057565b6060600319820112610180576004356001600160a01b03811681036101805791602435916044359067ffffffffffffffff821161018057610ab391600401610a42565b9091565b90601f8019910116810190811067ffffffffffffffff821117610ad957604052565b634e487b7160e01b5f52604160045260245ffd5b90610b0290610afb81610f43565b8233610fe2565b6040515f1981526001600160a01b039091169033907f8c5be1e5ebec7d5bd14f71427d1e84f3dd0314c0f7b2291e5b200ac8c7c3b92590602090a3600190565b91610b4c81610f43565b6001600160a01b0383165f81815260066020908152604080832033845290915290205493909290610b7d858461132b565b935f610b876116c0565b5f8051602061178d83398151915254604051631ce2e8d760e31b815260026004820152600160f91b60248201529260209184916044918391906001600160a01b03165af190811561068a575f91610e26575b610be49250876115b0565b505f526005602052610bfa60405f20548461132b565b5f8051602061178d833981519152546040516309c00ffd60e11b81526004810183905290602090829060249082905f906001600160a01b03165af190811561068a575f91610df3575b505f8051602061178d83398151915254604051630ccd46b160e31b81526004810192909252602482018790525f6044830181905260209183916064918391906001600160a01b03165af1801561068a575f90610dbf575b610cb59150610ca7611716565b610caf6116c0565b916115b0565b604095865191610cc58884610ab7565b60018352601f19880136602085013780610cde84610ea2565b5260644201908142116107d757610cfa610d0592602095611411565b5061061f8682611602565b606460018060a01b035f8051602061178d8339815191525416935f89519586948593630ccd46b160e31b8552600485015260248401528160448401525af1948515610db657505f94610d7e575b50610d74610d6d86610d6786610d799961151b565b876115b0565b3383610fe2565b61105f565b600190565b9493506020853d602011610dae575b81610d9a60209383610ab7565b810103126101805793519293610d74610d52565b3d9150610d8d565b513d5f823e3d90fd5b506020813d602011610deb575b81610dd960209383610ab7565b8101031261018057610cb59051610c9a565b3d9150610dcc565b90506020813d602011610e1e575b81610e0e60209383610ab7565b8101031261018057516020610c43565b3d9150610e01565b90506020823d602011610e54575b81610e4160209383610ab7565b8101031261018057610be4915190610bd9565b3d9150610e34565b92919267ffffffffffffffff8211610ad95760405191610e86601f8201601f191660200184610ab7565b829481845281830111610180578281602093845f960137010152565b805115610eaf5760200190565b634e487b7160e01b5f52603260045260245ffd5b90610ecd81610f43565b335f526005602052610ee360405f20548261132b565b90610efe610eef6116c0565b610ef7611716565b90846115b0565b9260405193610f0e604086610ab7565b6001855260203681870137610f2285610ea2565b5260644201938442116107d757610d7994610f3c91611411565b503361105f565b5f8051602061176d83398151915254604051632fd514cd60e11b81526004810192909252336024830152602090829060449082906001600160a01b03165afa90811561068a575f91610fa7575b5015610f9857565b632fa38b3f60e01b5f5260045ffd5b90506020813d602011610fda575b81610fc260209383610ab7565b8101031261018057518015158103610180575f610f90565b3d9150610fb5565b6001600160a01b038116939290841561104c576001600160a01b03831694851561103957906110379495610767925f52600660205260405f20905f526020528260405f20556110313084611602565b82611602565b565b85634a1406b160e11b5f5260045260245ffd5b8463e602df0560e01b5f5260045260245ffd5b91926001600160a01b03831692908315611205576001600160a01b0383169485156111f2579061109191610caf61166a565b91845f5260056020525f602060408220548581156111e2575b86156111d4575b5f8051602061178d8339815191525460405163f953e42760e01b8152600480820194909452848101909301919091526001600160f81b0319841660448301529092839160649183916001600160a01b03165af190811561068a575f9161119e575b509261113961114b92856111639650885f5260056020528060405f20556107673082611602565b845f52600560205260405f205461151b565b835f5260056020528060405f20556107673082611602565b6012545f1981019081116107d75760207fddf252ad1be2c89b69c2b068fc378daa952ba7f163c4a11628f55a4df523b3ef91604051908152a3565b9390506020843d6020116111cc575b816111ba60209383610ab7565b81010312610180579251611139611112565b3d91506111ad565b506111dd61166a565b6110b1565b90506111ec61166a565b906110aa565b8563ec442f0560e01b5f5260045260245ffd5b83634b637e8f60e11b5f5260045260245ffd5b5f546001600160a01b031633036104b757565b61127a9160209160018060a01b035f8051602061178d8339815191525416905f6040518096819582946302e817ff60e41b845260048401523360248401526080604484015260848301906109f2565b600160fb1b606483015203925af190811561068a575f916112f9575b505f8051602061176d833981519152546001600160a01b0316803b15610180576040516346ce4e4960e11b815260048101839052336024820152905f908290604490829084905af1801561068a576112ec575090565b5f6112f691610ab7565b90565b90506020813d602011611323575b8161131460209383610ab7565b8101031261018057515f611296565b3d9150611307565b9081156113ce575b80156113bc575b602090606460018060a01b035f8051602061178d8339815191525416935f60405195869485936334a6d7b960e11b8552600485015260248401528160448401525af190811561068a575f9161138d575090565b90506020813d6020116113b4575b816113a860209383610ab7565b81010312610180575190565b3d915061139b565b5060206113c761166a565b905061133a565b90506113d861166a565b90611333565b90602080835192838152019201905f5b8181106113fb5750505090565b82518452602093840193909201916001016113ee565b5f8051602061176d833981519152545f9291906001600160a01b0316803b15610180575f604051809263155f840160e21b82526020600483015281838161145b60248201896113de565b03925af1801561068a57611504575b507f93ab6e17f2c461cce6ea5d4ec117e51dda77a64affc2b2c05f8cd440def0e70054604051634c0d927760e01b815260a060048201529260209284926001600160a01b0316918391879183916114c59060a48401906113de565b90632207ea6360e01b6024840152836044840152606483015282608483015203925af19182156114f8579161138d575090565b604051903d90823e3d90fd5b6115119193505f90610ab7565b5f916114c561146a565b6020905f9281156115a0575b8015611592575b5f8051602061178d83398151915254604051638c14cc2160e01b8152600480820194909452848101909301919091526001600160f81b0319841660448301529092839160649183916001600160a01b03165af190811561068a575f9161138d575090565b5061159b61166a565b61152e565b90506115aa61166a565b90611527565b9060646020925f60018060a01b035f8051602061178d8339815191525416604051968795869463cb3b940760e01b86526004860152602485015260448401525af190811561068a575f9161138d575090565b5f8051602061176d833981519152546001600160a01b031691823b1561018057604051631974142760e21b815260048101929092526001600160a01b03166024820152905f908290604490829084905af1801561068a576116605750565b5f61103791610ab7565b5f8051602061178d83398151915254604051631ce2e8d760e31b81525f60048201819052600160fb1b60248301529091602091839160449183916001600160a01b03165af190811561068a575f9161138d575090565b5f8051602061178d83398151915254604051631ce2e8d760e31b81525f60048201819052600160f91b60248301529091602091839160449183916001600160a01b03165af190811561068a575f9161138d575090565b5f8051602061178d83398151915254604051631ce2e8d760e31b815260016004820152600160f91b602482015290602090829060449082905f906001600160a01b03165af190811561068a575f9161138d57509056feed8d60e34876f751cc8b014c560745351147d9de11b9347c854e881b128ea600ed8d60e34876f751cc8b014c560745351147d9de11b9347c854e881b128ea601a26469706673582212204549994d036136d3deb5c974c4267a89bfafcd32d86c59c73cb1b0ca3e802b6864736f6c634300081a0033a26469706673582212202ecbead8abe3802098c42033a643df83b83ddc82c4eade09e344ab8617a28bd164736f6c634300081a0033","linkReferences":{}},"methodIdentifiers":{"createConfidentialIndexFund(address[],address)":"83c3cb15","feeDivisor()":"9a36f932","indexTokensAndStablecoinToIndexFund(bytes32)":"8c2d2783","marketDataFetcher()":"7c7024d6","owner()":"8da5cb5b","removeWhitelistedTokenStablecoinPair(address,address)":"e57b0faf","renounceOwnership()":"715018a6","setDefaultSharePrice(uint256)":"c9da4508","setFeeDivisor(uint256)":"043531b1","setProtocolFee(uint256)":"787dce3d","swapsManagerProxy()":"44fc4fab","tokenStablecoinPairToPoolKey(bytes32)":"44c60582","transferOwnership(address)":"f2fde38b","whitelistTokenStablecoinPair(address,address,uint24,int24,address)":"ff63aa73"},"id":6}