{"abi":[{"type":"constructor","inputs":[{"name":"_swapsManagerProxy","type":"address","internalType":"address"},{"name":"_markerDataFetcherProxy","type":"address","internalType":"address"},{"name":"_defaultSharePrice","type":"uint256","internalType":"uint256"},{"name":"_feeDivisor","type":"uint256","internalType":"uint256"}],"stateMutability":"nonpayable"},{"type":"function","name":"createIndexFund","inputs":[{"name":"indexTokens","type":"address[]","internalType":"address[]"},{"name":"stablecoin","type":"address","internalType":"address"},{"name":"isStablecoinEncrypted","type":"bool","internalType":"bool"}],"outputs":[{"name":"","type":"address","internalType":"address"}],"stateMutability":"nonpayable"},{"type":"function","name":"feeDivisor","inputs":[],"outputs":[{"name":"","type":"uint256","internalType":"uint256"}],"stateMutability":"view"},{"type":"function","name":"indexTokensAndStablecoinToIndexFund","inputs":[{"name":"","type":"bytes32","internalType":"bytes32"}],"outputs":[{"name":"","type":"address","internalType":"contract IIndexFund"}],"stateMutability":"view"},{"type":"function","name":"marketDataFetcherProxy","inputs":[],"outputs":[{"name":"","type":"address","internalType":"address"}],"stateMutability":"view"},{"type":"function","name":"owner","inputs":[],"outputs":[{"name":"","type":"address","internalType":"address"}],"stateMutability":"view"},{"type":"function","name":"removeWhitelistedTokenStablecoinPair","inputs":[{"name":"token","type":"address","internalType":"address"},{"name":"stablecoin","type":"address","internalType":"address"}],"outputs":[],"stateMutability":"nonpayable"},{"type":"function","name":"renounceOwnership","inputs":[],"outputs":[],"stateMutability":"nonpayable"},{"type":"function","name":"setDefaultSharePrice","inputs":[{"name":"newDefaultSharePrice","type":"uint256","internalType":"uint256"}],"outputs":[],"stateMutability":"nonpayable"},{"type":"function","name":"setFeeDivisor","inputs":[{"name":"newFeeDivisor","type":"uint256","internalType":"uint256"}],"outputs":[],"stateMutability":"nonpayable"},{"type":"function","name":"setProtocolFee","inputs":[{"name":"newFeeDivisor","type":"uint256","internalType":"uint256"}],"outputs":[],"stateMutability":"nonpayable"},{"type":"function","name":"swapsManagerProxy","inputs":[],"outputs":[{"name":"","type":"address","internalType":"address"}],"stateMutability":"view"},{"type":"function","name":"tokenStablecoinPairToPoolKey","inputs":[{"name":"","type":"bytes32","internalType":"bytes32"}],"outputs":[{"name":"currency0","type":"address","internalType":"Currency"},{"name":"currency1","type":"address","internalType":"Currency"},{"name":"fee","type":"uint24","internalType":"uint24"},{"name":"tickSpacing","type":"int24","internalType":"int24"},{"name":"hooks","type":"address","internalType":"contract IHooks"}],"stateMutability":"view"},{"type":"function","name":"transferOwnership","inputs":[{"name":"newOwner","type":"address","internalType":"address"}],"outputs":[],"stateMutability":"nonpayable"},{"type":"function","name":"whitelistTokenStablecoinPair","inputs":[{"name":"token","type":"address","internalType":"address"},{"name":"stablecoin","type":"address","internalType":"address"},{"name":"fee","type":"uint24","internalType":"uint24"},{"name":"tickSpacing","type":"int24","internalType":"int24"},{"name":"hooks","type":"address","internalType":"contract IHooks"}],"outputs":[],"stateMutability":"nonpayable"},{"type":"event","name":"OwnershipTransferred","inputs":[{"name":"previousOwner","type":"address","indexed":true,"internalType":"address"},{"name":"newOwner","type":"address","indexed":true,"internalType":"address"}],"anonymous":false},{"type":"error","name":"CurrencyPairNotWhitelisted","inputs":[{"name":"token","type":"address","internalType":"address"},{"name":"stablecoin","type":"address","internalType":"address"}]},{"type":"error","name":"IndexFundAlreadyExists","inputs":[{"name":"indexTokens","type":"address[]","internalType":"address[]"},{"name":"stablecoin","type":"address","internalType":"address"}]},{"type":"error","name":"OwnableInvalidOwner","inputs":[{"name":"owner","type":"address","internalType":"address"}]},{"type":"error","name":"OwnableUnauthorizedAccount","inputs":[{"name":"account","type":"address","internalType":"address"}]}],"bytecode":{"object":"0x60803461010257601f6139a138819003918201601f19168301916001600160401b0383118484101761010657808492608094604052833981010312610102576100478161011a565b906100546020820161011a565b90606060408201519101519133156100ef575f8054336001600160a01b0319821681178355604051969290916001600160a01b0316907f8be0079c531659141344cd1fd0a4f28419497f9722a3daafe3b4186f6b6457e09080a3600380546001600160a01b039283166001600160a01b03199182161790915560048054939092169216919091179055600555600655613872908161012f8239f35b631e4fbdf760e01b5f525f60045260245ffd5b5f80fd5b634e487b7160e01b5f52604160045260245ffd5b51906001600160a01b03821682036101025756fe60806040526004361015610011575f80fd5b5f3560e01c8063043531b11461094457806344c60582146108d457806344fc4fab146108ac578063715018a614610855578063787dce3d1461083a5780638c2d2783146108085780638da5cb5b146107e15780639a36f932146107c4578063af49da4f14610353578063b38a5f6e1461032b578063c9da45081461030a578063e57b0faf146102aa578063f2fde38b146102255763ff63aa73146100b3575f80fd5b346102215760a0366003190112610221576100cc6109b9565b6100d46109a3565b9060443562ffffff811680910361022157606435908160020b809203610221576084356001600160a01b038116929083900361022157610112610a83565b6001600160a01b03848116949086169290838610156102095761017161017f60029798604051996101428b610965565b8a5260208a0196875260408a0194855260608a0195865260808a019788526040519283916020830195866109f7565b03601f198101835282610981565b5190205f908152600160208190526040909120965187546001600160a01b03199081166001600160a01b0392831617895594519188018054935194516001600160d01b03199094169282169290921760a09490941b62ffffff60a01b169390931762ffffff60b81b60b89390931b9290921691909117905591519290930180549093169116179055005b61017161017f6002979598604051996101428b610965565b5f80fd5b346102215760203660031901126102215761023e6109b9565b610246610a83565b6001600160a01b03168015610297575f80546001600160a01b03198116831782556001600160a01b0316907f8be0079c531659141344cd1fd0a4f28419497f9722a3daafe3b4186f6b6457e09080a3005b631e4fbdf760e01b5f525f60045260245ffd5b34610221576040366003190112610221576102c36109b9565b6101716102ea6102d16109a3565b6102d9610a83565b6040519283916020830195866109f7565b5190205f5260016020525f60026040822082815582600182015501555f80f35b3461022157602036600319011261022157610323610a83565b600435600555005b34610221575f366003190112610221576004546040516001600160a01b039091168152602090f35b346102215760603660031901126102215760043567ffffffffffffffff8111610221573660238201121561022157806004013567ffffffffffffffff811161075d578060051b91604051916103ab6020850184610981565b82526020820190602482948201019036821161022157602401915b8183106107a4575050506103d86109a3565b916044359283151580940361022157604051835160208201938492915f5b81811061078557505050606083901b6bffffffffffffffffffffffff19168452600b199381900393840181526001600160a01b0383169361043a9060140182610981565b519020905f5b845181101561056f576001600160a01b0361045b82876109cf565b511660405161047381610171866020830195866109f7565b5190205f52600160205260405f2060405161048d81610965565b81546001600160a01b0390811680835260018401548083166020850181905260a082901c62ffffff16604086015260b89190911c600290810b606086015290940154909116608090920191909152159081610566575b5061053a575f838152600260205260409020546001600160a01b031661050b57600101610440565b6040805163252fde1160e21b8152600481019190915280856105306044830189610a23565b9060248301520390fd5b83906001600160a01b039061054f90876109cf565b511663a17a1d7b60e01b5f5260045260245260445ffd5b905015876104e3565b5050929060208061060e60236105dd60035460a01c6105d8602f61059283610ac5565b6040519889916d24b73232bc233ab7322a37b5b2b760911b82840152605f60f81b602e8401528051918291018484015e81015f838201520301601f198101885287610981565b610ac5565b6040519384916212519560ea1b828401528051918291018484015e81015f838201520301601f198101835282610981565b60405191611872918284019084821067ffffffffffffffff83111761075d57610649610657938695611fcb8739604084526040840190610a5f565b916020818403910152610a5f565b03905ff091821561075257600354938460a01c946001600160601b0386146107715760019590950160a01b6001600160a01b0319166001600160a01b039586169081176003556004546005546040519761139897888a019492939091169067ffffffffffffffff85118a86101761075d576106e560e0968b9a610c338c396101008752610100870190610a23565b60208601989098523060408601526001600160a01b03166060850152608084015260a083015260c0820152015203905ff0908115610752575f9081526002602090815260409182902080546001600160a01b0319166001600160a01b039094169384179055905191825290f35b6040513d5f823e3d90fd5b634e487b7160e01b5f52604160045260245ffd5b634e487b7160e01b5f52601160045260245ffd5b82516001600160a01b03168752602096870196909201916001016103f6565b82356001600160a01b0381168103610221578152602092830192016103c6565b34610221575f366003190112610221576020600654604051908152f35b34610221575f366003190112610221575f546040516001600160a01b039091168152602090f35b34610221576020366003190112610221576004355f526002602052602060018060a01b0360405f205416604051908152f35b3461022157602036600319011261022157610853610a83565b005b34610221575f3660031901126102215761086d610a83565b5f80546001600160a01b0319811682556001600160a01b03167f8be0079c531659141344cd1fd0a4f28419497f9722a3daafe3b4186f6b6457e08280a3005b34610221575f366003190112610221576003546040516001600160a01b039091168152602090f35b34610221576020366003190112610221576004355f52600160205260a060405f20600180831b03815416906001810154906002600180861b039101541690604051928352600180851b038116602084015262ffffff81851c16604084015260b81c60020b60608301526080820152f35b346102215760203660031901126102215761095d610a83565b600435600655005b60a0810190811067ffffffffffffffff82111761075d57604052565b90601f8019910116810190811067ffffffffffffffff82111761075d57604052565b602435906001600160a01b038216820361022157565b600435906001600160a01b038216820361022157565b80518210156109e35760209160051b010190565b634e487b7160e01b5f52603260045260245ffd5b90916028926001600160601b03199060601b1682526001600160601b03199060601b1660148201520190565b90602080835192838152019201905f5b818110610a405750505090565b82516001600160a01b0316845260209384019390920191600101610a33565b805180835260209291819084018484015e5f828201840152601f01601f1916010190565b5f546001600160a01b03163303610a9657565b63118cdaa760e01b5f523360045260245ffd5b67ffffffffffffffff811161075d57601f01601f191660200190565b805f9172184f03e93ff9f4daa797ed6e38ed64bf6a1f0160401b821015610c0f575b806d04ee2d6d415b85acef8100000000600a921015610bf4575b662386f26fc10000811015610be0575b6305f5e100811015610bcf575b612710811015610bc0575b6064811015610bb2575b1015610ba7575b600a60216001840193610b4c85610aa9565b94610b5a6040519687610981565b808652610b69601f1991610aa9565b013660208701378401015b5f1901916f181899199a1a9b1b9c1cb0b131b232b360811b8282061a8353048015610ba257600a9091610b74565b505090565b600190910190610b3a565b606460029104930192610b33565b61271060049104930192610b29565b6305f5e10060089104930192610b1e565b662386f26fc1000060109104930192610b11565b6d04ee2d6d415b85acef810000000060209104930192610b01565b506040915072184f03e93ff9f4daa797ed6e38ed64bf6a1f0160401b8104610ae756fe610120806040523461025557611398803803809161001d828561032e565b8339810190610100818303126102555780516001600160401b0381116102555781019082601f83011215610255578151926001600160401b038411610302578360051b9260405194610072602086018761032e565b855260208501906020829582010192831161025557602001905b828210610316575050506100a260208201610351565b916100af60408301610351565b926100bc60608401610351565b6100c860808501610351565b916100d560a08601610351565b9360e060c08701519601519788151589036102555751906001600160401b0382116103025768010000000000000000821161030257600154826001558083106102be575b5060015f5260205f205f5b8381106102a1575050505060018060a01b0316610100528460e05260018060a01b031660018060a01b0319600354161760035560805260c05260045560018060a01b0316604051634d1b7c9960e11b8152602081600481855afa908115610261575f9161026c575b509060049260209260055560a05260405192838092638da5cb5b60e01b82525afa908115610261575f91610223575b50600780546001600160a01b0319166001600160a01b0392909216919091179055604051611032908161036682396080518161021a015260a051816101de015260c05181610347015260e0518150506101005181818160fa0152818161015e0152610c150152f35b90506020813d602011610259575b8161023e6020938361032e565b810103126102555761024f90610351565b5f6101bb565b5f80fd5b3d9150610231565b6040513d5f823e3d90fd5b9190506020823d602011610299575b816102886020938361032e565b81010312610255579051600461018c565b3d915061027b565b82516001600160a01b031681830155602090920191600101610124565b60015f527fb10e2d527612073b26eecdfd717e6a320cf44b4afac2b0732d9fcbe2b7fa0cf69081019083015b8181106102f75750610119565b5f81556001016102ea565b634e487b7160e01b5f52604160045260245ffd5b6020809161032384610351565b81520191019061008c565b601f909101601f19168101906001600160401b0382119082101761030257604052565b51906001600160a01b03821682036102555756fe6080806040526004361015610012575f80fd5b5f3560e01c90816301ffc9a714610d005750806305d7d94b14610bb5578063248a9ca314610b835780632f2ff15d14610b5457806336568abe14610b1e57806338f250ec14610aaa57806375696e7f14610a82578063853c637d14610a6f57806391d1485414610a34578063a217fddf14610a1a578063b1aa90a114610129578063b6f67312146100e55763d547741f146100ab575f80fd5b346100e1576100df6100bc36610d53565b906100da6100d5825f525f602052600160405f20015490565b610ebc565b610f7c565b005b5f80fd5b346100e1575f3660031901126100e1576040517f00000000000000000000000000000000000000000000000000000000000000006001600160a01b03168152602090f35b346100e15760203660031901126100e15760043580156109d557604051636eb1769f60e11b81523360048201523060248201527f00000000000000000000000000000000000000000000000000000000000000006001600160a01b03169190602081604481865afa80156105af5782915f916109a0575b501061098d576040516323b872dd60e01b8152336004820152306024820152604481018290526020816064815f875af180156105af57610970575b507f000000000000000000000000000000000000000000000000000000000000000061090c575b60408051630e7d0d9960e21b815260048101919091527f00000000000000000000000000000000000000000000000000000000000000006001600160a01b0316928161025060448201610db3565b600319828203016024830152602060025491828152019060025f527f405787fa12a823e0f2b7631cc41b3ba8828b3321ca811111fa75cd3aa3bb5ace905f5b8181106108b35750505090805f920381875afa9283156105af575f925f94610818575b50826006556102c360055482610e1c565b6008548181018091116105ba576008556040519080337f06c5efeff5c320943d265dc4e5f1af95ad523555ce0c1957e367dda5514572df5f80a382039182116105ba5784519060015482036107a45750909380519161032183610e04565b9261032f6040519485610d79565b80845261033e601f1991610e04565b013660208501377f00000000000000000000000000000000000000000000000000000000000000006001600160a01b03169465ffffffffffff4262015180810191821694911091905f5b8481106106ee575050505050505f90603c420191824211905b60015481101561063c576002548110156106285760025f52604051906003810260a0830167ffffffffffffffff8111848210176106145760409081527f405787fa12a823e0f2b7631cc41b3ba8828b3321ca811111fa75cd3aa3bb5ace8201546001600160a01b0390811685527f405787fa12a823e0f2b7631cc41b3ba8828b3321ca811111fa75cd3aa3bb5acf830154808216602087015260a081901c62ffffff169286019290925260b89190911c60020b60608501527f405787fa12a823e0f2b7631cc41b3ba8828b3321ca811111fa75cd3aa3bb5ad09091015416608083015261048e8185610e3a565b5189602061049b84610e4e565b9054604051637f799b7160e11b815260039290921b1c6001600160a01b0316600482015291829060c49082906104d4602483018a610e66565b5afa80156105af5782905f906105df575b6104ef9250610ea9565b906009820291808304600914901517156105ba576001600160801b0381116105ce57846105ba576001600160801b039182600a9261053e60405197630abff6dd60e11b89526004890190610e66565b1660a4860152041660c48301528460e4830152600161010483015285610124830152602082610144815f8b5af19182156105af57600192610581575b50016103a1565b6105a19060203d81116105a8575b6105998183610d79565b810190610df5565b508961057a565b503d61058f565b6040513d5f823e3d90fd5b634e487b7160e01b5f52601160045260245ffd5b628af7f560e11b5f5260045260245ffd5b50506020813d821161060c575b816105f960209383610d79565b810103126100e157816104ef91516104e5565b3d91506105ec565b634e487b7160e01b5f52604160045260245ffd5b634e487b7160e01b5f52603260045260245ffd5b8661064960045482610e1c565b67ffffffffffffffff81116106dc576003546001600160a01b0316803b156100e1575f80916044604051809481936302893c5b60e41b835233600484015267ffffffffffffffff881660248401525af180156105af576106cc575b50337fd5103f333769455df788908e17b0f6f83838ebeae2cd1ed6f23ec20dad88c9a35f80a4005b5f6106d691610d79565b826106a4565b63dcba2f6b60e01b5f5260045260245ffd5b806107108461070b61070488959b9e9b87610e3a565b518b610ea9565b610e1c565b61071a828d610e3a565b5261072481610e4e565b90546001600160a01b0360039290921b1c811690610742838e610e3a565b5116926105ba578a3b156100e1578a9260645f9283604051968794859363267b14bd60e01b8552600485015260248401528c60448401525af19182156105af57600192610794575b5001989598610388565b5f61079e91610d79565b8c61078a565b62461bcd60e51b815260206004820152604360248201527f446973726570616e6379206265747765656e206e756d626572206f66206d617260448201527f6b6574206361707320616e64206e756d626572206f6620696e64657820746f6b606482015262656e7360e81b608482015260a490fd5b925092503d805f843e61082b8184610d79565b8201916040818403126100e15780519060208101519067ffffffffffffffff82116100e157019280601f850112156100e157835161086881610e04565b946108766040519687610d79565b81865260208087019260051b8201019283116100e157602001905b8282106108a3575050509192856102b2565b8151815260209182019101610891565b82546001600160a01b039081168552600180850154808316602088015260a081811c62ffffff16604089015260b89190911c600290810b606089015286015490921660808701528896509401936003909301920161028f565b60405163040b850f60e31b8152306004820152602481018290526020816044815f875af180156105af57610941575b50610202565b6109629060203d602011610969575b61095a8183610d79565b810190610d9b565b508261093b565b503d610950565b6109889060203d6020116109695761095a8183610d79565b6101db565b50632fcad63b60e21b5f5260045260245ffd5b9150506020813d6020116109cd575b816109bc60209383610d79565b810103126100e157819051846101a0565b3d91506109af565b60405162461bcd60e51b815260206004820152601d60248201527f416d6f756e74206d7573742062652067726561746572207468616e20300000006044820152606490fd5b346100e1575f3660031901126100e15760206040515f8152f35b346100e157610a4236610d53565b905f525f60205260405f209060018060a01b03165f52602052602060ff60405f2054166040519015158152f35b346100e15760203660031901126100e157005b346100e1575f3660031901126100e1576003546040516001600160a01b039091168152602090f35b346100e1575f3660031901126100e157604051610ad181610aca81610db3565b0382610d79565b6040518091602082016020835281518091526020604084019201905f5b818110610afc575050500390f35b82516001600160a01b0316845285945060209384019390920191600101610aee565b346100e157610b2c36610d53565b336001600160a01b03821603610b45576100df91610f7c565b63334bd91960e11b5f5260045ffd5b346100e1576100df610b6536610d53565b90610b7e6100d5825f525f602052600160405f20015490565b610ef4565b346100e15760203660031901126100e1576020610bad6004355f525f602052600160405f20015490565b604051908152f35b346100e1575f3660031901126100e1576007546001600160a01b031633819003610ca457600854908115610c6d5760405163a9059cbb60e01b81526001600160a01b0390911660048201526024810191909152602081806044810103815f7f00000000000000000000000000000000000000000000000000000000000000006001600160a01b03165af180156105af57610c50575b5f600855005b610c689060203d6020116109695761095a8183610d79565b610c4a565b60405162461bcd60e51b815260206004820152600f60248201526e139bc81999595cc81d1bc81cd95b99608a1b6044820152606490fd5b60405162461bcd60e51b815260206004820152602e60248201527f4f6e6c79207468652070726f746f636f6c206f776e65722063616e2063616c6c60448201526d103a3434b990333ab731ba34b7b760911b6064820152608490fd5b346100e15760203660031901126100e1576004359063ffffffff60e01b82168092036100e157602091637965db0b60e01b8114908115610d42575b5015158152f35b6301ffc9a760e01b14905083610d3b565b60409060031901126100e157600435906024356001600160a01b03811681036100e15790565b90601f8019910116810190811067ffffffffffffffff82111761061457604052565b908160209103126100e1575180151581036100e15790565b602060015491828152019060015f5260205f20905f5b818110610dd65750505090565b82546001600160a01b0316845260209093019260019283019201610dc9565b908160209103126100e1575190565b67ffffffffffffffff81116106145760051b60200190565b8115610e26570490565b634e487b7160e01b5f52601260045260245ffd5b80518210156106285760209160051b010190565b6001548110156106285760015f5260205f2001905f90565b80516001600160a01b03908116835260208083015182169084015260408083015162ffffff169084015260608083015160020b9084015260809182015116910152565b818102929181159184041417156105ba57565b5f8181526020818152604080832033845290915290205460ff1615610ede5750565b63e2517d3f60e01b5f523360045260245260445ffd5b5f818152602081815260408083206001600160a01b038616845290915290205460ff16610f76575f818152602081815260408083206001600160a01b0395909516808452949091528120805460ff19166001179055339291907f2f8788117e7eff1d82e926ec794901d17c78024a50270940304540a733656f0d9080a4600190565b50505f90565b5f818152602081815260408083206001600160a01b038616845290915290205460ff1615610f76575f818152602081815260408083206001600160a01b0395909516808452949091528120805460ff19169055339291907ff6391f5c32d9c69d2a47ea670b442974b53935d1edc7fd64eb21e047a839171b9080a460019056fea26469706673582212203a80aacc4be934d41fb6333913adf500b07a428e7193e3dafd4a4af1b38599d864736f6c634300081a003360806040523461051757611872803803806100198161053a565b9283398101906040818303126105175780516001600160401b038111610517578261004591830161055f565b60208201519092906001600160401b03811161051757610065920161055f565b5f606061007061051b565b8281528260208201528260408201520152739d6891a6240d6130c54ae243d8005063d05fe14b60606100a061051b565b73fee8407e2f5e3ee68ad77cae98c434e637f516e5815273687408ab54661ba0b4aef3a44156c616c6955e07602082015273fb03be574d14c256d56f09a198b586bdfc0a9de26040820152015273fee8407e2f5e3ee68ad77cae98c434e637f516e560018060a01b03197fed8d60e34876f751cc8b014c560745351147d9de11b9347c854e881b128ea6005416177fed8d60e34876f751cc8b014c560745351147d9de11b9347c854e881b128ea6005573687408ab54661ba0b4aef3a44156c616c6955e0760018060a01b03195f805160206118328339815191525416175f805160206118328339815191525573fb03be574d14c256d56f09a198b586bdfc0a9de260018060a01b03195f805160206118528339815191525416175f8051602061185283398151915255739d6891a6240d6130c54ae243d8005063d05fe14b60018060a01b03195f805160206118128339815191525416175f8051602061181283398151915255331561050457600180546001600160a01b03199081169091555f805433928116831782556001600160a01b0316907f8be0079c531659141344cd1fd0a4f28419497f9722a3daafe3b4186f6b6457e09080a381516001600160401b03811161041757600254600181811c911680156104fa575b60208210146103f957601f8111610497575b50602092601f821160011461043657928192935f9261042b575b50508160011b915f199060031b1c1916176002555b80516001600160401b03811161041757600354600181811c9116801561040d575b60208210146103f957601f8111610396575b50602091601f8211600114610336579181925f9261032b575b50508160011b915f199060031b1c1916176003555b60405161126190816105b18239f35b015190505f80610307565b601f1982169260035f52805f20915f5b85811061037e57508360019510610366575b505050811b0160035561031c565b01515f1960f88460031b161c191690555f8080610358565b91926020600181928685015181550194019201610346565b60035f527fc2575a0e9e593c00f959f8c92f12db2869c3395a3b0502d05e2516446f71f85b601f830160051c810191602084106103ef575b601f0160051c01905b8181106103e457506102ee565b5f81556001016103d7565b90915081906103ce565b634e487b7160e01b5f52602260045260245ffd5b90607f16906102dc565b634e487b7160e01b5f52604160045260245ffd5b015190505f806102a6565b601f1982169360025f52805f20915f5b86811061047f5750836001959610610467575b505050811b016002556102bb565b01515f1960f88460031b161c191690555f8080610459565b91926020600181928685015181550194019201610446565b60025f527f405787fa12a823e0f2b7631cc41b3ba8828b3321ca811111fa75cd3aa3bb5ace601f830160051c810191602084106104f0575b601f0160051c01905b8181106104e5575061028c565b5f81556001016104d8565b90915081906104cf565b90607f169061027a565b631e4fbdf760e01b5f525f60045260245ffd5b5f80fd5b60405190608082016001600160401b0381118382101761041757604052565b6040519190601f01601f191682016001600160401b0381118382101761041757604052565b81601f82011215610517578051906001600160401b0382116104175761058e601f8301601f191660200161053a565b928284526020838301011161051757815f9260208093018386015e830101529056fe6080806040526004361015610012575f80fd5b5f3560e01c90816306fdde031461078757508063095ea7b31461076057806318160ddd1461073657806323b872dd146107075780632893c5b014610527578063313ce5671461050c57806370a08231146104d4578063715018a61461047157806379ba5097146103ec5780637b7e0a5a146103cf5780638da5cb5b146103a857806395d89b411461029c5780639a0943521461023b578063a9059cbb1461020a578063b32c1001146101d0578063dd62ed3e14610180578063e30c3978146101585763f2fde38b146100e2575f80fd5b34610154576020366003190112610154576100fb610863565b610103610edd565b60018060a01b0316806bffffffffffffffffffffffff60a01b600154161760015560018060a01b035f54167f38d16b8cac22d99fc7c124b9cd0de2d3fa1faef420bfe791d8c362d765e227005f80a3005b5f80fd5b34610154575f366003190112610154576001546040516001600160a01b039091168152602090f35b3461015457604036600319011261015457610199610863565b6101a1610879565b6001600160a01b039182165f908152600560209081526040808320949093168252928352819020549051908152f35b34610154576101fe6101f26101f86101e7366108bd565b949192943691610b0e565b90610ef0565b9061093a565b50602060405160018152f35b34610154576040366003190112610154576020610231610228610863565b60243590610b54565b6040519015158152f35b3461015457608036600319011261015457610254610863565b61025c610879565b906064359167ffffffffffffffff83116101545761029661028e6102876101fe95369060040161088f565b3691610b0e565b604435610ef0565b9161098f565b34610154575f366003190112610154576040515f6003548060011c9060018116801561039e575b60208310811461038a578285529081156103665750600114610308575b610304836102f081850382610904565b60405191829160208352602083019061083f565b0390f35b91905060035f527fc2575a0e9e593c00f959f8c92f12db2869c3395a3b0502d05e2516446f71f85b915f905b80821061034c575090915081016020016102f06102e0565b919260018160209254838588010152019101909291610334565b60ff191660208086019190915291151560051b840190910191506102f090506102e0565b634e487b7160e01b5f52602260045260245ffd5b91607f16916102c3565b34610154575f366003190112610154575f546040516001600160a01b039091168152602090f35b34610154576101fe6101f26103e66101e7366108bd565b90610b54565b34610154575f36600319011261015457600154336001600160a01b039091160361045e57600180546001600160a01b03199081169091555f805433928116831782556001600160a01b0316907f8be0079c531659141344cd1fd0a4f28419497f9722a3daafe3b4186f6b6457e09080a3005b63118cdaa760e01b5f523360045260245ffd5b34610154575f36600319011261015457610489610edd565b600180546001600160a01b03199081169091555f80549182168155906001600160a01b03167f8be0079c531659141344cd1fd0a4f28419497f9722a3daafe3b4186f6b6457e08280a3005b34610154576020366003190112610154576001600160a01b036104f5610863565b165f526004602052602060405f2054604051908152f35b34610154575f36600319011261015457602060405160068152f35b3461015457604036600319011261015457610540610863565b60243567ffffffffffffffff81168091036101545761055d610edd565b6001600160a01b0382165f818152600460205260408120549193909180156106f5575b5f8051602061120c8339815191525460405163f953e42760e01b8152600481019290925260248201859052600160f81b6044830152909260209184916064918391906001600160a01b03165af180156106ea575f906106b6575b6105fc9250845f5260046020528060405f20556105f7308261113a565b61113a565b815f7fddf252ad1be2c89b69c2b068fc378daa952ba7f163c4a11628f55a4df523b3ef602060405183198152a3600154908067ffffffffffffffff8360a01c16019067ffffffffffffffff82116106a25767ffffffffffffffff60a01b1990921660a09190911b67ffffffffffffffff60a01b16176001556040519081527f9109de113672aaca72ede8bc906f7aafabee865311ac020fb15c71edf94a0a0190602090a2005b634e487b7160e01b5f52601160045260245ffd5b506020823d6020116106e2575b816106d060209383610904565b81010312610154576105fc91516105da565b3d91506106c3565b6040513d5f823e3d90fd5b5060206107006111b5565b9050610580565b34610154576060366003190112610154576020610231610725610863565b61072d610879565b6044359161098f565b34610154575f36600319011261015457602067ffffffffffffffff60015460a01c16604051908152f35b3461015457604036600319011261015457602061023161077e610863565b6024359061093a565b34610154575f366003190112610154575f6002548060011c90600181168015610835575b60208310811461038a5782855290811561036657506001146107d757610304836102f081850382610904565b91905060025f527f405787fa12a823e0f2b7631cc41b3ba8828b3321ca811111fa75cd3aa3bb5ace915f905b80821061081b575090915081016020016102f06102e0565b919260018160209254838588010152019101909291610803565b91607f16916107ab565b805180835260209291819084018484015e5f828201840152601f01601f1916010190565b600435906001600160a01b038216820361015457565b602435906001600160a01b038216820361015457565b9181601f840112156101545782359167ffffffffffffffff8311610154576020838186019501011161015457565b6060600319820112610154576004356001600160a01b03811681036101545791602435916044359067ffffffffffffffff8211610154576109009160040161088f565b9091565b90601f8019910116810190811067ffffffffffffffff82111761092657604052565b634e487b7160e01b5f52604160045260245ffd5b9061094f9061094881610b7e565b8233610c30565b6040515f1981526001600160a01b039091169033907f8c5be1e5ebec7d5bd14f71427d1e84f3dd0314c0f7b2291e5b200ac8c7c3b92590602090a3600190565b9161099981610b7e565b6001600160a01b0383165f818152600560209081526040808320338452909152902054939092906109ca8584611003565b935f52600460205260206109e260405f205485611003565b94606460018060a01b035f8051602061120c8339815191525416965f6040519889948593630ccd46b160e31b8552600485015260248401528160448401525af19384156106ea575f94610ada575b506020610a3d84876110b6565b95606460018060a01b035f8051602061120c8339815191525416975f604051998a94859363cb3b940760e01b85528b6004860152602485015260448401525af19485156106ea575f95610aa4575b50610a9a610a9f953383610c30565b610cad565b600190565b94506020853d602011610ad2575b81610abf60209383610904565b8101031261015457935193610a9a610a8b565b3d9150610ab2565b9093506020813d602011610b06575b81610af660209383610904565b810103126101545751925f610a30565b3d9150610ae9565b92919267ffffffffffffffff82116109265760405191610b38601f8201601f191660200184610904565b829481845281830111610154578281602093845f960137010152565b610a9f91610b6181610b7e565b335f526004602052610b7760405f205482611003565b9133610cad565b7fed8d60e34876f751cc8b014c560745351147d9de11b9347c854e881b128ea60054604051632fd514cd60e11b81526004810192909252336024830152602090829060449082906001600160a01b03165afa9081156106ea575f91610bf5575b5015610be657565b632fa38b3f60e01b5f5260045ffd5b90506020813d602011610c28575b81610c1060209383610904565b8101031261015457518015158103610154575f610bde565b3d9150610c03565b6001600160a01b0381169392908415610c9a576001600160a01b038316948515610c875790610c8594956105f7925f52600560205260405f20905f526020528260405f2055610c7f308461113a565b8261113a565b565b85634a1406b160e11b5f5260045260245ffd5b8463e602df0560e01b5f5260045260245ffd5b91926001600160a01b0383169290918315610eca576001600160a01b038116948515610eb7576020906064610ce06111b5565b5f8051602061120c8339815191525460405163cb3b940760e01b8152600481019890985260248801939093526044870152859182905f906001600160a01b03165af19283156106ea575f93610e83575b50845f5260046020525f60206040822054858115610e73575b8615610e65575b5f8051602061120c8339815191525460405163f953e42760e01b8152600480820194909452848101909301919091526001600160f81b0319841660448301529092839160649183916001600160a01b03165af19081156106ea575f91610e2f575b5092610dd8610dea9285610e029650885f5260046020528060405f20556105f7308261113a565b845f52600460205260405f20546110b6565b835f5260046020528060405f20556105f7308261113a565b7fddf252ad1be2c89b69c2b068fc378daa952ba7f163c4a11628f55a4df523b3ef60206040515f198152a3565b9390506020843d602011610e5d575b81610e4b60209383610904565b81010312610154579251610dd8610db1565b3d9150610e3e565b50610e6e6111b5565b610d50565b9050610e7d6111b5565b90610d49565b9092506020813d602011610eaf575b81610e9f60209383610904565b810103126101545751915f610d30565b3d9150610e92565b8563ec442f0560e01b5f5260045260245ffd5b83634b637e8f60e11b5f5260045260245ffd5b5f546001600160a01b0316330361045e57565b610f3f9160209160018060a01b035f8051602061120c8339815191525416905f6040518096819582946302e817ff60e41b8452600484015233602484015260806044840152608483019061083f565b600560f81b606483015203925af19081156106ea575f91610fd1575b507fed8d60e34876f751cc8b014c560745351147d9de11b9347c854e881b128ea600546001600160a01b0316803b15610154576040516346ce4e4960e11b815260048101839052336024820152905f908290604490829084905af180156106ea57610fc4575090565b5f610fce91610904565b90565b90506020813d602011610ffb575b81610fec60209383610904565b8101031261015457515f610f5b565b3d9150610fdf565b9081156110a6575b8015611094575b602090606460018060a01b035f8051602061120c8339815191525416935f60405195869485936334a6d7b960e11b8552600485015260248401528160448401525af19081156106ea575f91611065575090565b90506020813d60201161108c575b8161108060209383610904565b81010312610154575190565b3d9150611073565b50602061109f6111b5565b9050611012565b90506110b06111b5565b9061100b565b90811561112a575b8015611118575b602090606460018060a01b035f8051602061120c8339815191525416935f6040519586948593638c14cc2160e01b8552600485015260248401528160448401525af19081156106ea575f91611065575090565b5060206111236111b5565b90506110c5565b90506111346111b5565b906110be565b7fed8d60e34876f751cc8b014c560745351147d9de11b9347c854e881b128ea600546001600160a01b031691823b1561015457604051631974142760e21b815260048101929092526001600160a01b03166024820152905f908290604490829084905af180156106ea576111ab5750565b5f610c8591610904565b5f8051602061120c83398151915254604051631ce2e8d760e31b81525f60048201819052600560f81b60248301529091602091839160449183916001600160a01b03165af19081156106ea575f9161106557509056feed8d60e34876f751cc8b014c560745351147d9de11b9347c854e881b128ea601a2646970667358221220b1cd4206336263afd52bdc184874049486799e0abea83423e91d65bf9870bc8a64736f6c634300081a0033ed8d60e34876f751cc8b014c560745351147d9de11b9347c854e881b128ea603ed8d60e34876f751cc8b014c560745351147d9de11b9347c854e881b128ea601ed8d60e34876f751cc8b014c560745351147d9de11b9347c854e881b128ea602a26469706673582212209b90f6ce1b1ad3760c2da330b43de0869fd9bc7216184ff9d8b0e3c61493081364736f6c634300081a0033","linkReferences":{}},"methodIdentifiers":{"createIndexFund(address[],address,bool)":"af49da4f","feeDivisor()":"9a36f932","indexTokensAndStablecoinToIndexFund(bytes32)":"8c2d2783","marketDataFetcherProxy()":"b38a5f6e","owner()":"8da5cb5b","removeWhitelistedTokenStablecoinPair(address,address)":"e57b0faf","renounceOwnership()":"715018a6","setDefaultSharePrice(uint256)":"c9da4508","setFeeDivisor(uint256)":"043531b1","setProtocolFee(uint256)":"787dce3d","swapsManagerProxy()":"44fc4fab","tokenStablecoinPairToPoolKey(bytes32)":"44c60582","transferOwnership(address)":"f2fde38b","whitelistTokenStablecoinPair(address,address,uint24,int24,address)":"ff63aa73"},"id":2}