{"abi":[{"type":"constructor","inputs":[{"name":"_swapsManagerProxy","type":"address","internalType":"address"},{"name":"_markerDataFetcher","type":"address","internalType":"address"},{"name":"_defaultSharePrice","type":"uint256","internalType":"uint256"},{"name":"_feeDivisor","type":"uint256","internalType":"uint256"}],"stateMutability":"nonpayable"},{"type":"function","name":"createConfidentialIndexFund","inputs":[{"name":"indexTokens","type":"address[]","internalType":"address[]"},{"name":"stablecoin","type":"address","internalType":"address"}],"outputs":[{"name":"","type":"address","internalType":"address"}],"stateMutability":"nonpayable"},{"type":"function","name":"feeDivisor","inputs":[],"outputs":[{"name":"","type":"uint256","internalType":"uint256"}],"stateMutability":"view"},{"type":"function","name":"indexTokensAndStablecoinToIndexFund","inputs":[{"name":"","type":"bytes32","internalType":"bytes32"}],"outputs":[{"name":"","type":"address","internalType":"contract IIndexFund"}],"stateMutability":"view"},{"type":"function","name":"marketDataFetcher","inputs":[],"outputs":[{"name":"","type":"address","internalType":"contract MarketDataFetcher"}],"stateMutability":"view"},{"type":"function","name":"owner","inputs":[],"outputs":[{"name":"","type":"address","internalType":"address"}],"stateMutability":"view"},{"type":"function","name":"removeWhitelistedTokenStablecoinPair","inputs":[{"name":"token","type":"address","internalType":"address"},{"name":"stablecoin","type":"address","internalType":"address"}],"outputs":[],"stateMutability":"nonpayable"},{"type":"function","name":"renounceOwnership","inputs":[],"outputs":[],"stateMutability":"nonpayable"},{"type":"function","name":"setDefaultSharePrice","inputs":[{"name":"newDefaultSharePrice","type":"uint256","internalType":"uint256"}],"outputs":[],"stateMutability":"nonpayable"},{"type":"function","name":"setFeeDivisor","inputs":[{"name":"newFeeDivisor","type":"uint256","internalType":"uint256"}],"outputs":[],"stateMutability":"nonpayable"},{"type":"function","name":"setProtocolFee","inputs":[{"name":"newFeeDivisor","type":"uint256","internalType":"uint256"}],"outputs":[],"stateMutability":"nonpayable"},{"type":"function","name":"swapsManagerProxy","inputs":[],"outputs":[{"name":"","type":"address","internalType":"address"}],"stateMutability":"view"},{"type":"function","name":"tokenStablecoinPairToPoolKey","inputs":[{"name":"","type":"bytes32","internalType":"bytes32"}],"outputs":[{"name":"currency0","type":"address","internalType":"Currency"},{"name":"currency1","type":"address","internalType":"Currency"},{"name":"fee","type":"uint24","internalType":"uint24"},{"name":"tickSpacing","type":"int24","internalType":"int24"},{"name":"hooks","type":"address","internalType":"contract IHooks"}],"stateMutability":"view"},{"type":"function","name":"transferOwnership","inputs":[{"name":"newOwner","type":"address","internalType":"address"}],"outputs":[],"stateMutability":"nonpayable"},{"type":"function","name":"whitelistTokenStablecoinPair","inputs":[{"name":"token","type":"address","internalType":"address"},{"name":"stablecoin","type":"address","internalType":"address"},{"name":"fee","type":"uint24","internalType":"uint24"},{"name":"tickSpacing","type":"int24","internalType":"int24"},{"name":"hooks","type":"address","internalType":"contract IHooks"}],"outputs":[],"stateMutability":"nonpayable"},{"type":"event","name":"OwnershipTransferred","inputs":[{"name":"previousOwner","type":"address","indexed":true,"internalType":"address"},{"name":"newOwner","type":"address","indexed":true,"internalType":"address"}],"anonymous":false},{"type":"error","name":"CurrencyPairNotWhitelisted","inputs":[{"name":"token","type":"address","internalType":"address"},{"name":"stablecoin","type":"address","internalType":"address"}]},{"type":"error","name":"IndexFundAlreadyExists","inputs":[{"name":"indexTokens","type":"address[]","internalType":"address[]"},{"name":"stablecoin","type":"address","internalType":"address"}]},{"type":"error","name":"NoPriceFeedForToken","inputs":[{"name":"token","type":"address","internalType":"address"}]},{"type":"error","name":"OwnableInvalidOwner","inputs":[{"name":"owner","type":"address","internalType":"address"}]},{"type":"error","name":"OwnableUnauthorizedAccount","inputs":[{"name":"account","type":"address","internalType":"address"}]}],"bytecode":{"object":"0x60803461010257601f6159ae38819003918201601f19168301916001600160401b0383118484101761010657808492608094604052833981010312610102576100478161011a565b906100546020820161011a565b90606060408201519101519133156100ef575f8054336001600160a01b0319821681178355604051969290916001600160a01b0316907f8be0079c531659141344cd1fd0a4f28419497f9722a3daafe3b4186f6b6457e09080a3600380546001600160a01b039283166001600160a01b0319918216179091556004805493909216921691909117905560055560065561587f908161012f8239f35b631e4fbdf760e01b5f525f60045260245ffd5b5f80fd5b634e487b7160e01b5f52604160045260245ffd5b51906001600160a01b03821682036101025756fe60806040526004361015610011575f80fd5b5f3560e01c8063043531b114610b2657806344c6058214610ab657806344fc4fab14610a8e578063715018a614610a37578063787dce3d14610a1c5780637c7024d6146109f457806383c3cb151461039f5780638c2d27831461036d5780638da5cb5b146103465780639a36f93214610329578063c9da450814610308578063e57b0faf146102a8578063f2fde38b146102235763ff63aa73146100b3575f80fd5b3461021f5760a036600319011261021f576100cc610bb3565b6100d4610b9d565b9060443562ffffff811680910361021f57606435908160020b80920361021f576084356001600160a01b038116929083900361021f57610112610c9c565b6001600160a01b03848116949086169290838610156102075761017161017f60029798604051996101428b610b47565b8a5260208a0196875260408a0194855260608a0195865260808a01978852604051928391602083019586610c10565b03601f198101835282610b63565b5190205f908152602086905260409020955186546001600160a01b039182166001600160a01b031991821617885593516001880180549351945160b81b62ffffff60b81b1662ffffff60a01b60a09690961b959095169183166001600160d01b0319909416939093171792909217905591519390920180549390911692909116919091179055005b61017161017f6002979598604051996101428b610b47565b5f80fd5b3461021f57602036600319011261021f5761023c610bb3565b610244610c9c565b6001600160a01b03168015610295575f80546001600160a01b03198116831782556001600160a01b0316907f8be0079c531659141344cd1fd0a4f28419497f9722a3daafe3b4186f6b6457e09080a3005b631e4fbdf760e01b5f525f60045260245ffd5b3461021f57604036600319011261021f576102c1610bb3565b6101716102e86102cf610b9d565b6102d7610c9c565b604051928391602083019586610c10565b5190205f5260026020525f60026040822082815582600182015501555f80f35b3461021f57602036600319011261021f57610321610c9c565b600435600555005b3461021f575f36600319011261021f576020600654604051908152f35b3461021f575f36600319011261021f575f546040516001600160a01b039091168152602090f35b3461021f57602036600319011261021f576004355f526001602052602060018060a01b0360405f205416604051908152f35b3461021f57604036600319011261021f5760043567ffffffffffffffff811161021f573660238201121561021f5780600401356103db81610b85565b916103e96040519384610b63565b81835260208301906024829360051b8201019036821161021f57602401915b8183106109d45750505061041a610b9d565b600480546040516325e9181b60e01b81526001600160a01b038481169382018490529395939091169390602081602481885afa90811561066c575f916109b5575b506001600160a01b0316156109a2576040518060208101928386519091905f5b818110610980575050506104ab916014916001600160601b03198a60601b16815203600b19810184520182610b63565b519020938251936104bb85610b85565b946104c96040519687610b63565b8086526104d8601f1991610b85565b015f5b81811061094b5750505f5b8451811015610677576001600160a01b036105018287610be8565b51166040516325e9181b60e01b8152816004820152602081602481875afa90811561066c575f9161063e575b506001600160a01b03161561062c57506001600160a01b0361054f8287610be8565b51166040516105678161017187602083019586610c10565b5190205f52600260205260405f206040519061058282610b47565b80546001600160a01b0390811680845260018301548083166020860181905260a082901c62ffffff16604087015260b89190911c600290810b6060870152909301549091166080840152159081610623575b506105f957906001916105e78289610be8565b526105f28188610be8565b50016104e6565b846001600160a01b0361060c8489610be8565b511663a17a1d7b60e01b5f5260045260245260445ffd5b905015896105d4565b63a24a6aed60e01b5f5260045260245ffd5b61065f915060203d8111610665575b6106578183610b63565b810190610bc9565b8961052d565b503d61064d565b6040513d5f823e3d90fd5b86858786835f52600160205260018060a01b0360405f20541661091b5760208061072f60236106fe60035460a01c6106f9602f6106b383610cde565b6040519889916d24b73232bc233ab7322a37b5b2b760911b82840152605f60f81b602e8401528051918291018484015e81015f838201520301601f198101885287610b63565b610cde565b6040519384916212519560ea1b828401528051918291018484015e81015f838201520301601f198101835282610b63565b60405191611d88918284019084821067ffffffffffffffff8311176108f35761076a610778938695613ac28739604084526040840190610c78565b916020818403910152610c78565b03905ff092831561066c576003548060a01c906001600160601b0382146109075760019190910160a01b6001600160a01b0319166001600160a01b0391821690811760035560045460055460405197612c76808a019692959390931692909167ffffffffffffffff87118a8810176108f35761080c908a9998979695949392610e4c8b396101008752610100870190610c3c565b95602086015230604086015260018060a01b03166060850152608084015260a083015260c082015260e0818303910152602080835192838152019201905f5b8181106108955750505003905ff090811561066c575f9081526001602090815260409182902080546001600160a01b0319166001600160a01b039094169384179055905191825290f35b825180516001600160a01b03908116865260208281015182168188015260408084015162ffffff169088015260608084015160020b908801526080928301519091169186019190915286955060a0909401939092019160010161084b565b634e487b7160e01b5f52604160045260245ffd5b634e487b7160e01b5f52601160045260245ffd5b6040805163252fde1160e21b815260048101919091529081906109416044830186610c3c565b9060248301520390fd5b60209060405161095a81610b47565b5f81525f838201525f60408201525f60608201525f608082015282828a010152016104db565b82516001600160a01b031684528594506020938401939092019160010161047b565b5063a24a6aed60e01b5f5260045260245ffd5b6109ce915060203d602011610665576106578183610b63565b8661045b565b82356001600160a01b038116810361021f57815260209283019201610408565b3461021f575f36600319011261021f576004546040516001600160a01b039091168152602090f35b3461021f57602036600319011261021f57610a35610c9c565b005b3461021f575f36600319011261021f57610a4f610c9c565b5f80546001600160a01b0319811682556001600160a01b03167f8be0079c531659141344cd1fd0a4f28419497f9722a3daafe3b4186f6b6457e08280a3005b3461021f575f36600319011261021f576003546040516001600160a01b039091168152602090f35b3461021f57602036600319011261021f576004355f52600260205260a060405f20600180831b03815416906001810154906002600180861b039101541690604051928352600180851b038116602084015262ffffff81851c16604084015260b81c60020b60608301526080820152f35b3461021f57602036600319011261021f57610b3f610c9c565b600435600655005b60a0810190811067ffffffffffffffff8211176108f357604052565b90601f8019910116810190811067ffffffffffffffff8211176108f357604052565b67ffffffffffffffff81116108f35760051b60200190565b602435906001600160a01b038216820361021f57565b600435906001600160a01b038216820361021f57565b9081602091031261021f57516001600160a01b038116810361021f5790565b8051821015610bfc5760209160051b010190565b634e487b7160e01b5f52603260045260245ffd5b90916028926001600160601b03199060601b1682526001600160601b03199060601b1660148201520190565b90602080835192838152019201905f5b818110610c595750505090565b82516001600160a01b0316845260209384019390920191600101610c4c565b805180835260209291819084018484015e5f828201840152601f01601f1916010190565b5f546001600160a01b03163303610caf57565b63118cdaa760e01b5f523360045260245ffd5b67ffffffffffffffff81116108f357601f01601f191660200190565b805f9172184f03e93ff9f4daa797ed6e38ed64bf6a1f0160401b821015610e28575b806d04ee2d6d415b85acef8100000000600a921015610e0d575b662386f26fc10000811015610df9575b6305f5e100811015610de8575b612710811015610dd9575b6064811015610dcb575b1015610dc0575b600a60216001840193610d6585610cc2565b94610d736040519687610b63565b808652610d82601f1991610cc2565b013660208701378401015b5f1901916f181899199a1a9b1b9c1cb0b131b232b360811b8282061a8353048015610dbb57600a9091610d8d565b505090565b600190910190610d53565b606460029104930192610d4c565b61271060049104930192610d42565b6305f5e10060089104930192610d37565b662386f26fc1000060109104930192610d2a565b6d04ee2d6d415b85acef810000000060209104930192610d1a565b506040915072184f03e93ff9f4daa797ed6e38ed64bf6a1f0160401b8104610d0056fe61014080604052346105c057612c76803803809161001d8285610704565b8339810190610100818303126105c05780516001600160401b0381116105c05781019082601f830112156105c05781519061005782610727565b926100656040519485610704565b828452602084016020819460051b830101918683116105c057602001905b8282106106d1575050506100996020820161073e565b916100a66040830161073e565b926100b36060840161073e565b6100bf6080850161073e565b916100cc60a0860161073e565b60c086015160e087015190969195916001600160401b0382116105c057019789601f8a0112156105c0578851996101028b610727565b996101106040519b8c610704565b8b8b5260208b0191602060a0849e02830101918183116105c057602001925b8284106106385750505050600180555f606060405161014d816106e9565b8281528260208201528260408201520152739d6891a6240d6130c54ae243d8005063d05fe14b6060604051610181816106e9565b73fee8407e2f5e3ee68ad77cae98c434e637f516e580825273687408ab54661ba0b4aef3a44156c616c6955e076020830181905273fb03be574d14c256d56f09a198b586bdfc0a9de26040840181905293909201939093527fed8d60e34876f751cc8b014c560745351147d9de11b9347c854e881b128ea60080546001600160a01b031990811690941790557fed8d60e34876f751cc8b014c560745351147d9de11b9347c854e881b128ea6018054841690911790557fed8d60e34876f751cc8b014c560745351147d9de11b9347c854e881b128ea6028054831690911790557fed8d60e34876f751cc8b014c560745351147d9de11b9347c854e881b128ea60380548216739d6891a6240d6130c54ae243d8005063d05fe14b1790557f93ab6e17f2c461cce6ea5d4ec117e51dda77a64affc2b2c05f8cd440def0e70080549091167333347831500f1e73f0cccbb95c9f86b94d7b112317905551906001600160401b03821161057a5768010000000000000000821161057a57600c5482600c558083106105f4575b50600c5f5260205f205f5b8381106105d7578b8b600460208d8d8d8d8d8d60018060a01b0316610100528460e05260018060a01b031660805260018060a01b031660a05260c052600e5560405192838092638da5cb5b60e01b825260018060a01b03165afa9081156105cc575f9161058e575b50601080546001600160a01b0319166001600160a01b0392909216919091179055519068010000000000000000821161057a57600d5482600d558083106104fa575b5090600d5f5260205f205f925b828410610461576040516125239081610753823960805181818161015b015281816108e901528181610d8b015281816110a40152611681015260a051818181610e9801526116aa015260c0518181816103e20152610fbf015260e05181610f010152610100518181816103ac0152818161060d0152818161071d01528181610e450152611a3a01526101205181611d760152f35b8051805183546001600160a01b039182166001600160a01b0319918216178555602080840151600180880180546040880151606089015160b81b62ffffff60b81b1662ffffff60a01b60a09290921b919091169488166001600160d01b031990921691909117939093179290921790915560809094015160028701805491909416921691909117909155940193600390920191016103cd565b80600302906003820403610566578260030260038104840361056657600d5f527fd7b6990105719101dabeb77144f2a3385c8033acd3af97e9423a695e81ad1eb591820191015b81811061054e57506103c0565b805f600392555f60018201555f600282015501610541565b634e487b7160e01b5f52601160045260245ffd5b634e487b7160e01b5f52604160045260245ffd5b90506020813d6020116105c4575b816105a960209383610704565b810103126105c0576105ba9061073e565b8361037e565b5f80fd5b3d915061059c565b6040513d5f823e3d90fd5b82516001600160a01b031681830155602090920191600101610316565b600c5f527fdf6966c971051c3d54ec59162606531493a51404a002842f56009d7e5cf4a8c79081019083015b81811061062d575061030b565b5f8155600101610620565b60a0848303126105c0576040519060a082016001600160401b0381118382101761057a576040526106688561073e565b82526106766020860161073e565b6020830152604085015162ffffff811681036105c057604083015260608501518060020b81036105c05760608301526080850151906001600160a01b03821682036105c05782602092608060a095015281520193019261012f565b602080916106de8461073e565b815201910190610083565b608081019081106001600160401b0382111761057a57604052565b601f909101601f19168101906001600160401b0382119082101761057a57604052565b6001600160401b03811161057a5760051b60200190565b51906001600160a01b03821682036105c05756fe6080806040526004361015610012575f80fd5b5f905f3560e01c90816301ffc9a714611e645750806305d7d94b14611d09578063248a9ca314611cd75780632f2ff15d14611ca657806335c995ec146119c957806336568abe1461199057806338f250ec1461191a5780634148fc4f1461166357806360c8d85714610dba57806375696e7f14610d755780639134867c146107a457806391d1485414610768578063a217fddf1461074c578063b6f6731214610707578063d547741f146106d25763f98723c7146100ce575f80fd5b346106cf5760803660031901126106cf5760243560443580151581036106cb576064358015908115036106c7575f805160206124ae833981519152546001600160a01b031633036106c757600435845260096020526101396101406040862060405192838092612063565b0382611f0b565b6001600160a01b039061015290611fdf565b5116906106b0577f00000000000000000000000000000000000000000000000000000000000000006001600160a01b03169084823b156106ac5785604051630852cd8d60e31b8152866004820152818160248183895af1801561065957610697575b505084337fdb79cc492679ef2624944d6ed3cdbad5b974b5550de330ae18922f2944eec78a8880a3855b86600c5482101561057c57506101f3816120a3565b905460039190911b1c6001600160a01b0316908115610509576040516370a0823160e01b8152306004820152602081602481865afa80156104fe5788908a906104c9575b61024192506120bb565b6040516318160ddd60e01b8152906020826004818a5afa90811561030c578a91610494575b61027092506120ce565b86156103175760405163a9059cbb60e01b81526001600160a01b038616600482015260248101829052926020846044818d855af193841561030c576001946102e0575b50857fb06a452a84fa41bb0bd1ac3a396221cbad915a39589ba2ce8fe0ec16f4b51abc8b80a45b016101de565b6103009060203d8111610305575b6102f88183611f0b565b810190611f41565b6102b3565b503d6102ee565b6040513d8c823e3d90fd5b610323829493946120ec565b50603c420180421161048057604051630abff6dd60e11b815282546001600160a01b039081166004830152600180850154808316602485015260a081901c62ffffff16604485015260b81c600290810b606485015290940154811660848301526001600160801b03851660a483015260c482018d905260e48201929092526101048101929092527f0000000000000000000000000000000000000000000000000000000000000000811661012483015260209082906101449082908e907f0000000000000000000000000000000000000000000000000000000000000000165af190811561030c578a9161044a575b5061041f90600194612014565b93857f3c7a5a67037bba423dedf10fb639bdb414a8f5c7d35c20c6dfd7a3140d548a9a8b80a46102da565b90506020813d8211610478575b8161046460209383611f0b565b8101031261047457516001610412565b5f80fd5b3d9150610457565b634e487b7160e01b8b52601160045260248bfd5b90506020823d82116104c1575b816104ae60209383611f0b565b8101031261047457610270915190610266565b3d91506104a1565b50506020813d82116104f6575b816104e360209383611f0b565b8101031261047457876102419151610237565b3d91506104d6565b6040513d8b823e3d90fd5b61051387476120bb565b6040516318160ddd60e01b8152906020826004818a5afa90811561030c578a91610547575b61054292506120ce565b610270565b90506020823d8211610574575b8161056160209383611f0b565b8101031261047457610542915190610538565b3d9150610554565b8083806105865750f35b5f805160206124ce83398151915254604051631ce2e8d760e31b81526004810192909252600160fb1b6024830152909160209183916044918391906001600160a01b03165af1908115610659578291610664575b506040516323b872dd60e01b81523060048201523360248201526044810191909152602081606481856001600160a01b037f0000000000000000000000000000000000000000000000000000000000000000165af180156106595761063d575080f35b6106559060203d602011610305576102f88183611f0b565b5080f35b6040513d84823e3d90fd5b90506020813d60201161068f575b8161067f60209383611f0b565b81010312610474575160206105da565b3d9150610672565b816106a191611f0b565b6106ac57855f6101b4565b8580fd5b63793fd43160e01b84526004526024829052604483fd5b8380fd5b8280fd5b80fd5b50346106cf576106556106e436611eb7565b906107026106fd825f525f602052600160405f20015490565b612128565b612270565b50346106cf57806003193601126106cf576040517f00000000000000000000000000000000000000000000000000000000000000006001600160a01b03168152602090f35b50346106cf57806003193601126106cf57602090604051908152f35b50346106cf57604061077936611eb7565b9290815280602052209060018060a01b03165f52602052602060ff60405f2054166040519015158152f35b50346106cf5760603660031901126106cf5760443567ffffffffffffffff8111610b9e5760a46020806107de610806943690600401611edd565b94906107e8612108565b6107fe6107f6368884611f59565b6004356122f0565b953691611f59565b60018060a01b035f805160206124ce833981519152541690866040519586809581946302e817ff60e41b83526024356004840152336024840152608060448401528051918291826084860152018484015e83838284010152836064830152601f801991011681010301925af1908115610d6a578391610d38575b505f8051602061248e8339815191525483906001600160a01b0316803b15610b9e578180916044604051809481936346ce4e4960e11b83528860048401523360248401525af1801561065957610d23575b50506040516370a0823160e01b8152336004820152907f00000000000000000000000000000000000000000000000000000000000000006001600160a01b0316602083602481845afa928315610c1c578593610ceb575b508284938515610cdb575b15610cc9575b602090606460018060a01b035f805160206124ce8339815191525416958860405197889485936334a6d7b960e11b8552600485015260248401528160448401525af1928315610c1c578593610c95575b506040516323b872dd60e01b81523360048201523060248201526044810185905260208160648189865af18015610c6d57610c78575b50604051630cf4e94560e31b8152602081600481855afa908115610c6d578691610c3b575b505f198101908111610c275760209060246040518094819363a5184baf60e01b835260048301525afa8015610c1c5760ff918691610bed575b5016610bde5760405192610a32608085611f0b565b600384526060366020860137610a4784611fdf565b52825160011015610bca576040830152815160021015610bb65760608201526064420190814211610ba2575f8051602061248e8339815191525483906001600160a01b0316803b15610b9e5781604051809263155f840160e21b825260206004830152818381610aba602482018a6121e8565b03925af1801561065957610b89575b50505f805160206124ae83398151915254604051634c0d927760e01b815260a060048201529260209284926001600160a01b031691839187918391610b129060a48401906121e8565b9063f98723c760e01b6024840152836044840152606483015282608483015203925af18015610659578290610b55575b610b4e9150339061221b565b6001805580f35b506020813d602011610b81575b81610b6f60209383611f0b565b8101031261047457610b4e9051610b42565b3d9150610b62565b81610b9391611f0b565b6106cb57825f610ac9565b5080fd5b634e487b7160e01b83526011600452602483fd5b634e487b7160e01b83526032600452602483fd5b634e487b7160e01b84526032600452602484fd5b6312171d8360e31b8452600484fd5b610c0f915060203d602011610c15575b610c078183611f0b565b810190611fae565b5f610a1d565b503d610bfd565b6040513d87823e3d90fd5b634e487b7160e01b86526011600452602486fd5b90506020813d602011610c65575b81610c5660209383611f0b565b8101031261047457515f6109e4565b3d9150610c49565b6040513d88823e3d90fd5b610c909060203d602011610305576102f88183611f0b565b6109bf565b9092506020813d602011610cc1575b81610cb160209383611f0b565b810103126104745751915f610989565b3d9150610ca4565b506020610cd4612408565b9050610939565b9350610ce5612408565b93610933565b9092506020813d602011610d1b575b81610d0760209383611f0b565b81010312610d175751915f610928565b8480fd5b3d9150610cfa565b81610d2d91611f0b565b6106cb57825f6108d1565b90506020813d602011610d62575b81610d5360209383611f0b565b8101031261047457515f610880565b3d9150610d46565b6040513d85823e3d90fd5b50346106cf57806003193601126106cf576040517f00000000000000000000000000000000000000000000000000000000000000006001600160a01b03168152602090f35b50346106cf5760403660031901126106cf575f805160206124ae83398151915254602435906001600160a01b03163303610b9e5760043582526009602052610139610e0e6040842060405192838092612063565b6001600160a01b0390610e2090611fdf565b5160405163040b850f60e31b8152306004820152602481018490526001600160a01b037f00000000000000000000000000000000000000000000000000000000000000001693929091169060208160448188885af18015610c1c57611646575b50604051630a7c1bd560e21b815260206004820152927f00000000000000000000000000000000000000000000000000000000000000006001600160a01b03169290858580610ed160248201612021565b0381875afa938415610c6d578695879561159b575b50600f869055604051634d1b7c9960e11b81526020816004817f00000000000000000000000000000000000000000000000000000000000000006001600160a01b03165afa801561159057889061155c575b610f439150846120ce565b610f4f81601154612014565b601155807fc472cb3a7a659a876494d66b3063145f279701771d6150b9329c31611ed6405c8980a2830392831161154857845194600c5486036114d15794855195610f9987611fc7565b96610fa76040519889611f0b565b808852610fb6601f1991611fc7565b013660208901377f00000000000000000000000000000000000000000000000000000000000000006001600160a01b03169765ffffffffffff4262015180810191821693911091908b5b8581106114175750505050505060125460ff811660ff811461140357600160ff9101169060ff191617601255865b600c5481101561107b578061104560019288612000565b5161104f826120a3565b848060a01b0391549060031b1c168a52601360205261107360408b20918254612014565b90550161102e565b5086945085601254600260ff82161461114c575b505050506110a090600e54906120ce565b90827f00000000000000000000000000000000000000000000000000000000000000006001600160a01b0316803b15610b9e576040516340c10f1960e01b81526001600160a01b0384166004820152602481018590529082908290604490829084905af1801561065957611137575b50807f6332ddaa8a69b5eb2524ec7ca317b7c2b01ecf678d584031415f81270977b8fc91a380f35b8161114191611f0b565b6106cb57828461110f565b60ff191660125542603c81019695929390871092865b600c548110156113ca57611175816120ec565b506040519060a0820182811067ffffffffffffffff8211176113b657604090815281546001600160a01b03908116845260018301548082166020860190815260a082901c62ffffff1693860193845260b89190911c600290810b606087019081529401549091166080850190815290926111ee866120a3565b60018060a01b0391549060031b1c168d52601360205260408d2054928b6020611216896120a3565b9054604051630681320d60e51b815260039290921b1c6001600160a01b0316600482015291829060249082905afa80156113a9578f90869190611374575b61125e92506120bb565b9460098602958087046009149015171561134d576001600160801b038511611361578b61134d57604051630abff6dd60e11b815296516001600160a01b039081166004890152905181166024880152905162ffffff166044870152905160020b606486015290511660848401526001600160801b0390811660a4840152600a9091041660c482015260e481018a905260016101048201526101248101849052602081610144818c895af180156104fe57906001929161131f575b5001611162565b61133f9060203d8111611346575b6113378183611f0b565b810190611f9f565b508a611318565b503d61132d565b634e487b7160e01b8f52601160045260248ffd5b628af7f560e11b8f52600485905260248ffd5b50506020813d82116113a1575b8161138e60209383611f0b565b81010312610474578461125e9151611254565b3d9150611381565b8f604051903d90823e3d90fd5b634e487b7160e01b8b52604160045260248bfd5b50959650505050506110a0907ff2a32d2d88a573f9ff9679e9796f679899817d433b3e223985b14e3cc74a72cb8480a19084808061108f565b634e487b7160e01b89526011600452602489fd5b6114348361142f6114288486612000565b518c6120bb565b6120ce565b61143e828d612000565b5283611449826120a3565b90546001600160a01b0360039290921b1c811690611467848f612000565b51169161134d57908e918e3b156106cb578e916064849283604051958694859363267b14bd60e01b8552600485015260248401528c60448401525af18015610659576114b8575b5050600101611000565b816114c291611f0b565b6114cd578c5f6114ae565b8c80fd5b60405162461bcd60e51b815260206004820152604360248201527f446973726570616e6379206265747765656e206e756d626572206f66206d617260448201527f6b6574206361707320616e64206e756d626572206f6620696e64657820746f6b606482015262656e7360e81b608482015260a490fd5b634e487b7160e01b87526011600452602487fd5b506020813d602011611588575b8161157660209383611f0b565b8101031261047457610f439051610f38565b3d9150611569565b6040513d8a823e3d90fd5b955093503d8087873e6115ae8187611f0b565b8501946040818703126116425780519060208101519067ffffffffffffffff821161163e57019580601f8801121561163a5786516115eb81611fc7565b976115f9604051998a611f0b565b8189526020808a019260051b82010192831161163657602001905b8282106116265750505094935f610ee6565b8151815260209182019101611614565b8980fd5b8780fd5b8880fd5b8680fd5b61165e9060203d602011610305576102f88183611f0b565b610e80565b50346106cf57806003193601126106cf57600c546001600160a01b037f000000000000000000000000000000000000000000000000000000000000000081169291829182907f000000000000000000000000000000000000000000000000000000000000000016815b8385106116de57602086604051908152f35b9091929394506116ed856120a3565b9054604051630681320d60e51b815260039290921b1c6001600160a01b03166004820152602081602481865afa90811561182b5784916118e9575b5060246020611736886120a3565b90546040516370a0823160e01b81523060048201529384929091839160031b1c6001600160a01b03165afa908115610c1c5785916118b8575b50611779876120a3565b905460039190911b1c6001600160a01b031661184a5761179b906012926120bb565b90604d8111611836576117bc92916117b691600a0a906120ce565b90612014565b906040516318160ddd60e01b81526020816004818a5afa90811561182b5784916117f8575b506117ee600191846120ce565b95019392916116cc565b90506020813d8211611823575b8161181260209383611f0b565b8101031261047457516117ee6117e1565b3d9150611805565b6040513d86823e3d90fd5b634e487b7160e01b85526011600452602485fd5b60046020611857896120a3565b905460405163313ce56760e01b81529384929091839160031b1c6001600160a01b03165afa908115610c6d5761179b929160ff91889161189a575b5016926120bb565b6118b2915060203d8111610c1557610c078183611f0b565b5f611892565b90506020813d82116118e1575b816118d260209383611f0b565b8101031261047457515f61176f565b3d91506118c5565b90506020813d8211611912575b8161190360209383611f0b565b8101031261047457515f611728565b3d91506118f6565b50346106cf57806003193601126106cf57604051906119438261193c81612021565b0383611f0b565b604051918291602083016020845282518091526020604085019301915b81811061196e575050500390f35b82516001600160a01b0316845285945060209384019390920191600101611960565b50346106cf5761199f36611eb7565b90336001600160a01b038316036119ba579061065591612270565b63334bd91960e11b8352600483fd5b50346104745760403660031901126104745760243567ffffffffffffffff8111610474576107f6611a01611a10923690600401611edd565b611a09612108565b3691611f59565b6040516323b872dd60e01b8152336004820152306024820152604481018290526001600160a01b037f000000000000000000000000000000000000000000000000000000000000000016906020816064815f865af18015611c4c57611c89575b50604051630cf4e94560e31b8152602081600481855afa908115611c4c575f91611c57575b505f198101908111611c0a5760209060246040518094819363a5184baf60e01b835260048301525afa8015611c4c5760ff915f91611c2d575b5016611c1e576040805191611ae38284611f0b565b60018352601f198201366020850137611afb83611fdf565b526064420191824211611c0a575f8051602061248e833981519152546001600160a01b0316803b15610474575f8351809263155f840160e21b825260206004830152818381611b4d60248201896121e8565b03925af18015611c0057611be9575b505f805160206124ae833981519152548251634c0d927760e01b815260a060048201529360209285926001600160a01b031691839188918391611ba39060a48401906121e8565b906360c8d85760e01b6024840152836044840152606483015282608483015203925af1908115611be057508290610b5557610b4e9150339061221b565b513d84823e3d90fd5b611bf69194505f90611f0b565b5f92611ba3611b5c565b83513d5f823e3d90fd5b634e487b7160e01b5f52601160045260245ffd5b6312171d8360e31b5f5260045ffd5b611c46915060203d602011610c1557610c078183611f0b565b5f611ace565b6040513d5f823e3d90fd5b90506020813d602011611c81575b81611c7260209383611f0b565b8101031261047457515f611a95565b3d9150611c65565b611ca19060203d602011610305576102f88183611f0b565b611a70565b3461047457611cd5611cb736611eb7565b90611cd06106fd825f525f602052600160405f20015490565b612160565b005b34610474576020366003190112610474576020611d016004355f525f602052600160405f20015490565b604051908152f35b34610474575f366003190112610474576010546001600160a01b03163303611e0857611d33612108565b60115415611dd1575f601181905560105460405163a9059cbb60e01b81526001600160a01b039182166004820152602481018390529160209183916044918391907f0000000000000000000000000000000000000000000000000000000000000000165af1908115611c4c575f91611db2575b5015611c1e5760018055005b611dcb915060203d602011610305576102f88183611f0b565b81611da6565b60405162461bcd60e51b815260206004820152600f60248201526e139bc81999595cc81d1bc81cd95b99608a1b6044820152606490fd5b60405162461bcd60e51b815260206004820152602e60248201527f4f6e6c79207468652070726f746f636f6c206f776e65722063616e2063616c6c60448201526d103a3434b990333ab731ba34b7b760911b6064820152608490fd5b34610474576020366003190112610474576004359063ffffffff60e01b821680920361047457602091637965db0b60e01b8114908115611ea6575b5015158152f35b6301ffc9a760e01b14905083611e9f565b604090600319011261047457600435906024356001600160a01b03811681036104745790565b9181601f840112156104745782359167ffffffffffffffff8311610474576020838186019501011161047457565b90601f8019910116810190811067ffffffffffffffff821117611f2d57604052565b634e487b7160e01b5f52604160045260245ffd5b90816020910312610474575180151581036104745790565b92919267ffffffffffffffff8211611f2d5760405191611f83601f8201601f191660200184611f0b565b829481845281830111610474578281602093845f960137010152565b90816020910312610474575190565b90816020910312610474575160ff811681036104745790565b67ffffffffffffffff8111611f2d5760051b60200190565b805115611fec5760200190565b634e487b7160e01b5f52603260045260245ffd5b8051821015611fec5760209160051b010190565b91908201809211611c0a57565b6020600c54918281520190600c5f5260205f20905f5b8181106120445750505090565b82546001600160a01b0316845260209093019260019283019201612037565b90602082549182815201915f5260205f20905f5b8181106120845750505090565b82546001600160a01b0316845260209093019260019283019201612077565b600c54811015611fec57600c5f5260205f2001905f90565b81810292918115918404141715611c0a57565b81156120d8570490565b634e487b7160e01b5f52601260045260245ffd5b600d54811015611fec57600d5f52600360205f20910201905f90565b600260015414612119576002600155565b633ee5aeb560e01b5f5260045ffd5b5f8181526020818152604080832033845290915290205460ff161561214a5750565b63e2517d3f60e01b5f523360045260245260445ffd5b5f818152602081815260408083206001600160a01b038616845290915290205460ff166121e2575f818152602081815260408083206001600160a01b0395909516808452949091528120805460ff19166001179055339291907f2f8788117e7eff1d82e926ec794901d17c78024a50270940304540a733656f0d9080a4600190565b50505f90565b90602080835192838152019201905f5b8181106122055750505090565b82518452602093840193909201916001016121f8565b5f52600960205260405f2080549068010000000000000000821015611f2d5760018201808255821015611fec575f5260205f20019060018060a01b03166bffffffffffffffffffffffff60a01b825416179055565b5f818152602081815260408083206001600160a01b038616845290915290205460ff16156121e2575f818152602081815260408083206001600160a01b0395909516808452949091528120805460ff19169055339291907ff6391f5c32d9c69d2a47ea670b442974b53935d1edc7fd64eb21e047a839171b9080a4600190565b6020929183915f805160206124ce83398151915254905f60a46040518098819682956302e817ff60e41b84526004840152336024840152608060448401528051918291826084860152018484015e8181018301849052600160fb1b6064830152601f01601f191681010301926001600160a01b03165af1918215611c4c575f926123d4575b505f8051602061248e833981519152546001600160a01b031682813b15610474575f916044839260405194859384926346ce4e4960e11b845260048401523360248401525af18015611c4c576123c85750565b5f6123d291611f0b565b565b9091506020813d602011612400575b816123f060209383611f0b565b810103126104745751905f612375565b3d91506123e3565b5f805160206124ce83398151915254604051631ce2e8d760e31b81525f60048201819052600160fb1b60248301529091602091839160449183916001600160a01b03165af1908115611c4c575f9161245e575090565b90506020813d602011612485575b8161247960209383611f0b565b81010312610474575190565b3d915061246c56feed8d60e34876f751cc8b014c560745351147d9de11b9347c854e881b128ea60093ab6e17f2c461cce6ea5d4ec117e51dda77a64affc2b2c05f8cd440def0e700ed8d60e34876f751cc8b014c560745351147d9de11b9347c854e881b128ea601a26469706673582212209800cd61b49d9dab8f86260ab1a45c1f04d30684f9048c5a3d87987622b7e96664736f6c634300081a003360806040523461050c57611d88803803806100198161052f565b92833981019060408183031261050c5780516001600160401b03811161050c5782610045918301610554565b60208201519092906001600160401b03811161050c576100659201610554565b33156104f957600180546001600160a01b03199081169091555f805433928116831782556001600160a01b0316907f8be0079c531659141344cd1fd0a4f28419497f9722a3daafe3b4186f6b6457e09080a381516001600160401b03811161040c57600354600181811c911680156104ef575b60208210146103ee57601f811161048c575b50602092601f821160011461042b57928192935f92610420575b50508160011b915f199060031b1c1916176003555b80516001600160401b03811161040c57600454600181811c91168015610402575b60208210146103ee57601f811161038b575b50602091601f821160011461032b579181925f92610320575b50508160011b915f199060031b1c1916176004555b5f6060610185610510565b8281528260208201528260408201520152739d6891a6240d6130c54ae243d8005063d05fe14b60606101b5610510565b73fee8407e2f5e3ee68ad77cae98c434e637f516e580825273687408ab54661ba0b4aef3a44156c616c6955e076020830181905273fb03be574d14c256d56f09a198b586bdfc0a9de2604080850182905294909301949094527fed8d60e34876f751cc8b014c560745351147d9de11b9347c854e881b128ea60080546001600160a01b031990811690921790557fed8d60e34876f751cc8b014c560745351147d9de11b9347c854e881b128ea601805482169094179093557fed8d60e34876f751cc8b014c560745351147d9de11b9347c854e881b128ea6028054841690911790557fed8d60e34876f751cc8b014c560745351147d9de11b9347c854e881b128ea60380548316739d6891a6240d6130c54ae243d8005063d05fe14b1790557f93ab6e17f2c461cce6ea5d4ec117e51dda77a64affc2b2c05f8cd440def0e70080549092167333347831500f1e73f0cccbb95c9f86b94d7b112317909155516117e290816105a68239f35b015190505f80610165565b601f1982169260045f52805f20915f5b8581106103735750836001951061035b575b505050811b0160045561017a565b01515f1960f88460031b161c191690555f808061034d565b9192602060018192868501518155019401920161033b565b60045f527f8a35acfbc15ff81a39ae7d344fd709f28e8600b4aa8c65c6b64bfe7fe36bd19b601f830160051c810191602084106103e4575b601f0160051c01905b8181106103d9575061014c565b5f81556001016103cc565b90915081906103c3565b634e487b7160e01b5f52602260045260245ffd5b90607f169061013a565b634e487b7160e01b5f52604160045260245ffd5b015190505f80610104565b601f1982169360035f52805f20915f5b868110610474575083600195961061045c575b505050811b01600355610119565b01515f1960f88460031b161c191690555f808061044e565b9192602060018192868501518155019401920161043b565b60035f527fc2575a0e9e593c00f959f8c92f12db2869c3395a3b0502d05e2516446f71f85b601f830160051c810191602084106104e5575b601f0160051c01905b8181106104da57506100ea565b5f81556001016104cd565b90915081906104c4565b90607f16906100d8565b631e4fbdf760e01b5f525f60045260245ffd5b5f80fd5b60405190608082016001600160401b0381118382101761040c57604052565b6040519190601f01601f191682016001600160401b0381118382101761040c57604052565b81601f8201121561050c578051906001600160401b03821161040c57610583601f8301601f191660200161052f565b928284526020838301011161050c57815f9260208093018386015e830101529056fe6080806040526004361015610012575f80fd5b5f3560e01c90816306fdde031461093a57508063095ea7b31461091357806318160ddd146108f65780632207ea631461087b57806323b872dd1461084c578063313ce5671461083157806340c10f19146106a957806342966c681461058257806367a74a281461056557806370a082311461052d578063715018a6146104ca57806379ba5097146104455780637b7e0a5a146104285780638da5cb5b1461040157806395d89b41146102f55780639a09435214610294578063a5184baf14610267578063a9059cbb14610236578063b32c1001146101fc578063dd62ed3e146101ac578063e30c3978146101845763f2fde38b1461010e575f80fd5b3461018057602036600319011261018057610127610a16565b61012f611218565b60018060a01b0316806bffffffffffffffffffffffff60a01b600154161760015560018060a01b035f54167f38d16b8cac22d99fc7c124b9cd0de2d3fa1faef420bfe791d8c362d765e227005f80a3005b5f80fd5b34610180575f366003190112610180576001546040516001600160a01b039091168152602090f35b34610180576040366003190112610180576101c5610a16565b6101cd610a2c565b6001600160a01b039182165f908152600660209081526040808320949093168252928352819020549051908152f35b346101805761022a61021e61022461021336610a70565b949192943691610e5c565b9061122b565b90610aed565b50602060405160018152f35b3461018057604036600319011261018057602061025d610254610a16565b60243590610ec3565b6040519015158152f35b34610180576020366003190112610180576004355f526011602052602060ff60405f205416604051908152f35b34610180576080366003190112610180576102ad610a16565b6102b5610a2c565b906064359167ffffffffffffffff8311610180576102ef6102e76102e061022a953690600401610a42565b3691610e5c565b60443561122b565b91610b42565b34610180575f366003190112610180576040515f6004548060011c906001811680156103f7575b6020831081146103e3578285529081156103bf5750600114610361575b61035d8361034981850382610ab7565b6040519182916020835260208301906109f2565b0390f35b91905060045f527f8a35acfbc15ff81a39ae7d344fd709f28e8600b4aa8c65c6b64bfe7fe36bd19b915f905b8082106103a557509091508101602001610349610339565b91926001816020925483858801015201910190929161038d565b60ff191660208086019190915291151560051b840190910191506103499050610339565b634e487b7160e01b5f52602260045260245ffd5b91607f169161031c565b34610180575f366003190112610180575f546040516001600160a01b039091168152602090f35b346101805761022a61021e61043f61021336610a70565b90610ec3565b34610180575f36600319011261018057600154336001600160a01b03909116036104b757600180546001600160a01b03199081169091555f805433928116831782556001600160a01b0316907f8be0079c531659141344cd1fd0a4f28419497f9722a3daafe3b4186f6b6457e09080a3005b63118cdaa760e01b5f523360045260245ffd5b34610180575f366003190112610180576104e2611218565b600180546001600160a01b03199081169091555f80549182168155906001600160a01b03167f8be0079c531659141344cd1fd0a4f28419497f9722a3daafe3b4186f6b6457e08280a3005b34610180576020366003190112610180576001600160a01b0361054e610a16565b165f526005602052602060405f2054604051908152f35b34610180575f366003190112610180576020601254604051908152f35b3461018057602036600319011261018057335f52600560205260405f20548015610695575b5f8051602061178d83398151915254604051638c14cc2160e01b815260048082019390935291356024830152600160f81b6044830152602090829060649082905f906001600160a01b03165af1801561068a575f90610656575b806106269150335f5260056020528060405f205561061f3082611602565b3390611602565b5f604051811981527fddf252ad1be2c89b69c2b068fc378daa952ba7f163c4a11628f55a4df523b3ef60203392a3005b506020813d602011610682575b8161067060209383610ab7565b81010312610180576106269051610601565b3d9150610663565b6040513d5f823e3d90fd5b505f60206106a161166a565b9150506105a7565b34610180576040366003190112610180576106c2610a16565b6024356106cd611218565b6001600160a01b0382165f8181526005602052604081205491939091801561081f575b5f8051602061178d8339815191525460405163f953e42760e01b8152600481019290925260248201859052600160f81b6044830152909260209184916064918391906001600160a01b03165af1801561068a575f906107eb575b61076c9250845f5260056020528060405f20556107673082611602565b611602565b815f7fddf252ad1be2c89b69c2b068fc378daa952ba7f163c4a11628f55a4df523b3ef602060405183198152a36002548181018091116107d7577f0f6798a560793a54c3bcfe86a93cde1e73087d944c0ea20544137d412139688591602091600255604051908152a2005b634e487b7160e01b5f52601160045260245ffd5b506020823d602011610817575b8161080560209383610ab7565b810103126101805761076c915161074a565b3d91506107f8565b50602061082a61166a565b90506106f0565b34610180575f36600319011261018057602060405160068152f35b3461018057606036600319011261018057602061025d61086a610a16565b610872610a2c565b60443591610b42565b346101805760403660031901126101805760243560ff8116809103610180577f93ab6e17f2c461cce6ea5d4ec117e51dda77a64affc2b2c05f8cd440def0e700546001600160a01b03163303610180576012545f1981146107d757600181016012555f52601160205260405f209060ff198254161790555f80f35b34610180575f366003190112610180576020600254604051908152f35b3461018057604036600319011261018057602061025d610931610a16565b60243590610aed565b34610180575f366003190112610180575f6003548060011c906001811680156109e8575b6020831081146103e3578285529081156103bf575060011461098a5761035d8361034981850382610ab7565b91905060035f527fc2575a0e9e593c00f959f8c92f12db2869c3395a3b0502d05e2516446f71f85b915f905b8082106109ce57509091508101602001610349610339565b9192600181602092548385880101520191019092916109b6565b91607f169161095e565b805180835260209291819084018484015e5f828201840152601f01601f1916010190565b600435906001600160a01b038216820361018057565b602435906001600160a01b038216820361018057565b9181601f840112156101805782359167ffffffffffffffff8311610180576020838186019501011161018057565b6060600319820112610180576004356001600160a01b03811681036101805791602435916044359067ffffffffffffffff821161018057610ab391600401610a42565b9091565b90601f8019910116810190811067ffffffffffffffff821117610ad957604052565b634e487b7160e01b5f52604160045260245ffd5b90610b0290610afb81610f43565b8233610fe2565b6040515f1981526001600160a01b039091169033907f8c5be1e5ebec7d5bd14f71427d1e84f3dd0314c0f7b2291e5b200ac8c7c3b92590602090a3600190565b91610b4c81610f43565b6001600160a01b0383165f81815260066020908152604080832033845290915290205493909290610b7d858461132b565b935f610b876116c0565b5f8051602061178d83398151915254604051631ce2e8d760e31b815260026004820152600160f91b60248201529260209184916044918391906001600160a01b03165af190811561068a575f91610e26575b610be49250876115b0565b505f526005602052610bfa60405f20548461132b565b5f8051602061178d833981519152546040516309c00ffd60e11b81526004810183905290602090829060249082905f906001600160a01b03165af190811561068a575f91610df3575b505f8051602061178d83398151915254604051630ccd46b160e31b81526004810192909252602482018790525f6044830181905260209183916064918391906001600160a01b03165af1801561068a575f90610dbf575b610cb59150610ca7611716565b610caf6116c0565b916115b0565b604095865191610cc58884610ab7565b60018352601f19880136602085013780610cde84610ea2565b5260644201908142116107d757610cfa610d0592602095611411565b5061061f8682611602565b606460018060a01b035f8051602061178d8339815191525416935f89519586948593630ccd46b160e31b8552600485015260248401528160448401525af1948515610db657505f94610d7e575b50610d74610d6d86610d6786610d799961151b565b876115b0565b3383610fe2565b61105f565b600190565b9493506020853d602011610dae575b81610d9a60209383610ab7565b810103126101805793519293610d74610d52565b3d9150610d8d565b513d5f823e3d90fd5b506020813d602011610deb575b81610dd960209383610ab7565b8101031261018057610cb59051610c9a565b3d9150610dcc565b90506020813d602011610e1e575b81610e0e60209383610ab7565b8101031261018057516020610c43565b3d9150610e01565b90506020823d602011610e54575b81610e4160209383610ab7565b8101031261018057610be4915190610bd9565b3d9150610e34565b92919267ffffffffffffffff8211610ad95760405191610e86601f8201601f191660200184610ab7565b829481845281830111610180578281602093845f960137010152565b805115610eaf5760200190565b634e487b7160e01b5f52603260045260245ffd5b90610ecd81610f43565b335f526005602052610ee360405f20548261132b565b90610efe610eef6116c0565b610ef7611716565b90846115b0565b9260405193610f0e604086610ab7565b6001855260203681870137610f2285610ea2565b5260644201938442116107d757610d7994610f3c91611411565b503361105f565b5f8051602061176d83398151915254604051632fd514cd60e11b81526004810192909252336024830152602090829060449082906001600160a01b03165afa90811561068a575f91610fa7575b5015610f9857565b632fa38b3f60e01b5f5260045ffd5b90506020813d602011610fda575b81610fc260209383610ab7565b8101031261018057518015158103610180575f610f90565b3d9150610fb5565b6001600160a01b038116939290841561104c576001600160a01b03831694851561103957906110379495610767925f52600660205260405f20905f526020528260405f20556110313084611602565b82611602565b565b85634a1406b160e11b5f5260045260245ffd5b8463e602df0560e01b5f5260045260245ffd5b91926001600160a01b03831692908315611205576001600160a01b0383169485156111f2579061109191610caf61166a565b91845f5260056020525f602060408220548581156111e2575b86156111d4575b5f8051602061178d8339815191525460405163f953e42760e01b8152600480820194909452848101909301919091526001600160f81b0319841660448301529092839160649183916001600160a01b03165af190811561068a575f9161119e575b509261113961114b92856111639650885f5260056020528060405f20556107673082611602565b845f52600560205260405f205461151b565b835f5260056020528060405f20556107673082611602565b6012545f1981019081116107d75760207fddf252ad1be2c89b69c2b068fc378daa952ba7f163c4a11628f55a4df523b3ef91604051908152a3565b9390506020843d6020116111cc575b816111ba60209383610ab7565b81010312610180579251611139611112565b3d91506111ad565b506111dd61166a565b6110b1565b90506111ec61166a565b906110aa565b8563ec442f0560e01b5f5260045260245ffd5b83634b637e8f60e11b5f5260045260245ffd5b5f546001600160a01b031633036104b757565b61127a9160209160018060a01b035f8051602061178d8339815191525416905f6040518096819582946302e817ff60e41b845260048401523360248401526080604484015260848301906109f2565b600160fb1b606483015203925af190811561068a575f916112f9575b505f8051602061176d833981519152546001600160a01b0316803b15610180576040516346ce4e4960e11b815260048101839052336024820152905f908290604490829084905af1801561068a576112ec575090565b5f6112f691610ab7565b90565b90506020813d602011611323575b8161131460209383610ab7565b8101031261018057515f611296565b3d9150611307565b9081156113ce575b80156113bc575b602090606460018060a01b035f8051602061178d8339815191525416935f60405195869485936334a6d7b960e11b8552600485015260248401528160448401525af190811561068a575f9161138d575090565b90506020813d6020116113b4575b816113a860209383610ab7565b81010312610180575190565b3d915061139b565b5060206113c761166a565b905061133a565b90506113d861166a565b90611333565b90602080835192838152019201905f5b8181106113fb5750505090565b82518452602093840193909201916001016113ee565b5f8051602061176d833981519152545f9291906001600160a01b0316803b15610180575f604051809263155f840160e21b82526020600483015281838161145b60248201896113de565b03925af1801561068a57611504575b507f93ab6e17f2c461cce6ea5d4ec117e51dda77a64affc2b2c05f8cd440def0e70054604051634c0d927760e01b815260a060048201529260209284926001600160a01b0316918391879183916114c59060a48401906113de565b90632207ea6360e01b6024840152836044840152606483015282608483015203925af19182156114f8579161138d575090565b604051903d90823e3d90fd5b6115119193505f90610ab7565b5f916114c561146a565b6020905f9281156115a0575b8015611592575b5f8051602061178d83398151915254604051638c14cc2160e01b8152600480820194909452848101909301919091526001600160f81b0319841660448301529092839160649183916001600160a01b03165af190811561068a575f9161138d575090565b5061159b61166a565b61152e565b90506115aa61166a565b90611527565b9060646020925f60018060a01b035f8051602061178d8339815191525416604051968795869463cb3b940760e01b86526004860152602485015260448401525af190811561068a575f9161138d575090565b5f8051602061176d833981519152546001600160a01b031691823b1561018057604051631974142760e21b815260048101929092526001600160a01b03166024820152905f908290604490829084905af1801561068a576116605750565b5f61103791610ab7565b5f8051602061178d83398151915254604051631ce2e8d760e31b81525f60048201819052600160fb1b60248301529091602091839160449183916001600160a01b03165af190811561068a575f9161138d575090565b5f8051602061178d83398151915254604051631ce2e8d760e31b81525f60048201819052600160f91b60248301529091602091839160449183916001600160a01b03165af190811561068a575f9161138d575090565b5f8051602061178d83398151915254604051631ce2e8d760e31b815260016004820152600160f91b602482015290602090829060449082905f906001600160a01b03165af190811561068a575f9161138d57509056feed8d60e34876f751cc8b014c560745351147d9de11b9347c854e881b128ea600ed8d60e34876f751cc8b014c560745351147d9de11b9347c854e881b128ea601a2646970667358221220abb45c4b4074e4d5fda23b7c8193ccadf968bfd95d0517e923911b4f4071514064736f6c634300081a0033a2646970667358221220c5be0bd6c845068263dc7fbbc2dca9d6b97df8dc832d30068cc87838772ffed464736f6c634300081a0033","linkReferences":{}},"methodIdentifiers":{"createConfidentialIndexFund(address[],address)":"83c3cb15","feeDivisor()":"9a36f932","indexTokensAndStablecoinToIndexFund(bytes32)":"8c2d2783","marketDataFetcher()":"7c7024d6","owner()":"8da5cb5b","removeWhitelistedTokenStablecoinPair(address,address)":"e57b0faf","renounceOwnership()":"715018a6","setDefaultSharePrice(uint256)":"c9da4508","setFeeDivisor(uint256)":"043531b1","setProtocolFee(uint256)":"787dce3d","swapsManagerProxy()":"44fc4fab","tokenStablecoinPairToPoolKey(bytes32)":"44c60582","transferOwnership(address)":"f2fde38b","whitelistTokenStablecoinPair(address,address,uint24,int24,address)":"ff63aa73"},"id":6}