{"abi":[{"type":"constructor","inputs":[],"stateMutability":"nonpayable"},{"type":"function","name":"BTC_TOTAL_SUPPLY","inputs":[],"outputs":[{"name":"","type":"uint256","internalType":"uint256"}],"stateMutability":"view"},{"type":"function","name":"ETH_TOTAL_SUPPLY","inputs":[],"outputs":[{"name":"","type":"uint256","internalType":"uint256"}],"stateMutability":"view"},{"type":"function","name":"addDataFeed","inputs":[{"name":"token","type":"address","internalType":"address"},{"name":"dataFeed","type":"address","internalType":"address"}],"outputs":[],"stateMutability":"nonpayable"},{"type":"function","name":"getIndexMarketCaps","inputs":[{"name":"indexTokenAddresses","type":"address[]","internalType":"address[]"}],"outputs":[{"name":"totalMarketCap","type":"uint256","internalType":"uint256"},{"name":"individualMarketCaps","type":"uint256[]","internalType":"uint256[]"}],"stateMutability":"view"},{"type":"function","name":"getTokenDataFeed","inputs":[{"name":"token","type":"address","internalType":"address"}],"outputs":[{"name":"","type":"address","internalType":"address"}],"stateMutability":"view"},{"type":"function","name":"getTokenMarketCap","inputs":[{"name":"token","type":"address","internalType":"address"}],"outputs":[{"name":"","type":"uint256","internalType":"uint256"}],"stateMutability":"view"},{"type":"function","name":"getTokenPrice","inputs":[{"name":"token","type":"address","internalType":"address"}],"outputs":[{"name":"","type":"uint256","internalType":"uint256"}],"stateMutability":"view"},{"type":"function","name":"owner","inputs":[],"outputs":[{"name":"","type":"address","internalType":"address"}],"stateMutability":"view"},{"type":"function","name":"removeDataFeed","inputs":[{"name":"token","type":"address","internalType":"address"}],"outputs":[],"stateMutability":"nonpayable"},{"type":"function","name":"renounceOwnership","inputs":[],"outputs":[],"stateMutability":"nonpayable"},{"type":"function","name":"setBTCTotalSupply","inputs":[{"name":"_BTCTotalSupply","type":"uint256","internalType":"uint256"}],"outputs":[],"stateMutability":"nonpayable"},{"type":"function","name":"setETHTotalSupply","inputs":[{"name":"_ethTotalSupply","type":"uint256","internalType":"uint256"}],"outputs":[],"stateMutability":"nonpayable"},{"type":"function","name":"transferOwnership","inputs":[{"name":"newOwner","type":"address","internalType":"address"}],"outputs":[],"stateMutability":"nonpayable"},{"type":"event","name":"OwnershipTransferred","inputs":[{"name":"previousOwner","type":"address","indexed":true,"internalType":"address"},{"name":"newOwner","type":"address","indexed":true,"internalType":"address"}],"anonymous":false},{"type":"error","name":"DataFeedDoesNotExist","inputs":[{"name":"token","type":"address","internalType":"address"},{"name":"isAgainstUSD","type":"bool","internalType":"bool"}]},{"type":"error","name":"OwnableInvalidOwner","inputs":[{"name":"owner","type":"address","internalType":"address"}]},{"type":"error","name":"OwnableUnauthorizedAccount","inputs":[{"name":"account","type":"address","internalType":"address"}]}],"bytecode":{"object":"0x608080604052346081573315606e575f8054336001600160a01b0319821681178355916001600160a01b03909116907f8be0079c531659141344cd1fd0a4f28419497f9722a3daafe3b4186f6b6457e09080a363072debd06001556301406f406002556109a590816100868239f35b631e4fbdf760e01b5f525f60045260245ffd5b5f80fdfe6080806040526004361015610012575f80fd5b5f3560e01c90816325e9181b146104805750806329f06f541461032357806339dbc3df146103005780636e202843146102b9578063715018a6146102625780638da5cb5b1461023b578063a37860571461021e578063b240add3146101fd578063bb79aed6146101e0578063d02641a0146101b5578063d8c7432314610194578063f2fde38b1461010f5763ff228df7146100ab575f80fd5b3461010b57604036600319011261010b576100c46104bf565b6024356001600160a01b038116919082900361010b576100e26108e6565b6001600160a01b03165f90815260036020526040902080546001600160a01b0319169091179055005b5f80fd5b3461010b57602036600319011261010b576101286104bf565b6101306108e6565b6001600160a01b03168015610181575f80546001600160a01b03198116831782556001600160a01b0316907f8be0079c531659141344cd1fd0a4f28419497f9722a3daafe3b4186f6b6457e09080a3005b631e4fbdf760e01b5f525f60045260245ffd5b3461010b57602036600319011261010b576101ad6108e6565b600435600255005b3461010b57602036600319011261010b5760206101d86101d36104bf565b61059f565b604051908152f35b3461010b575f36600319011261010b576020600254604051908152f35b3461010b57602036600319011261010b576102166108e6565b600435600155005b3461010b575f36600319011261010b576020600154604051908152f35b3461010b575f36600319011261010b575f546040516001600160a01b039091168152602090f35b3461010b575f36600319011261010b5761027a6108e6565b5f80546001600160a01b0319811682556001600160a01b03167f8be0079c531659141344cd1fd0a4f28419497f9722a3daafe3b4186f6b6457e08280a3005b3461010b57602036600319011261010b576102d26104bf565b6102da6108e6565b6001600160a01b03165f90815260036020526040902080546001600160a01b0319169055005b3461010b57602036600319011261010b5760206101d861031e6104bf565b610547565b3461010b57602036600319011261010b5760043567ffffffffffffffff811161010b573660238201121561010b57806004013567ffffffffffffffff811161010b576024820191602436918360051b01011161010b575f916103848261050b565b9161039260405193846104d5565b80835261039e8161050b565b602084019290601f19013684375f915b8083106103ff575050506040519283926040840191845260406020850152518091526060830191905f5b8181106103e6575050500390f35b82518452859450602093840193909201916001016103d8565b909192939461041a61031e610415868587610523565b610533565b810180911161046c579261043561031e610415838587610523565b9086518110156104585760019160208260051b89010152019190949392946103ae565b634e487b7160e01b5f52603260045260245ffd5b634e487b7160e01b5f52601160045260245ffd5b3461010b57602036600319011261010b576020906001600160a01b036104a46104bf565b165f9081526003835260409020546001600160a01b03168152f35b600435906001600160a01b038216820361010b57565b90601f8019910116810190811067ffffffffffffffff8211176104f757604052565b634e487b7160e01b5f52604160045260245ffd5b67ffffffffffffffff81116104f75760051b60200190565b91908110156104585760051b0190565b356001600160a01b038116810361010b5790565b6001600160a01b038181165f908152600360205260409020546105749161056e911661059f565b91610773565b9081810291818304149015171561046c5790565b519069ffffffffffffffffffff8216820361010b57565b6001600160a01b039081165f818152600360205260409020549091169081156106e95750604051633fabe5a360e21b81529060a082600481845afa91821561068a575f92610695575b5060206004916040519283809263313ce56760e01b82525afa801561068a575f9061064d575b60ff915016604d811161046c57600a0a90811561063957600160ff1b81145f1983141661046c570590565b634e487b7160e01b5f52601260045260245ffd5b506020813d602011610682575b81610667602093836104d5565b8101031261010b575160ff8116810361010b5760ff9061060e565b3d915061065a565b6040513d5f823e3d90fd5b90915060a0813d60a0116106e1575b816106b160a093836104d5565b8101031261010b576020816106c7600493610588565b506106d86080838301519201610588565b509291506105e8565b3d91506106a4565b630724090560e41b5f52600452600160245260445ffd5b60208183031261010b5780519067ffffffffffffffff821161010b570181601f8201121561010b5780519067ffffffffffffffff82116104f75760405192610752601f8401601f1916602001856104d5565b8284526020838301011161010b57815f9260208093018386015e8301015290565b6040516395d89b4160e01b8152906001600160a01b03165f82600481845afa91821561068a575f926108ca575b506107ca6040928351906107b485836104d5565b60048252635742544360e01b602083015261090c565b156107d757505060025490565b8015801561084d575b6108455760206004918351928380926318160ddd60e01b82525afa91821561083c57505f9161080d575090565b90506020813d602011610834575b81610828602093836104d5565b8101031261010b575190565b3d915061081b565b513d5f823e3d90fd5b505060015490565b5081516395d89b4160e01b81525f81600481855afa9081156108c05790610899915f9161089e575b5083519061088385836104d5565b60048252630ae8aa8960e31b602083015261090c565b6107e0565b6108ba91503d805f833e6108b281836104d5565b810190610700565b5f610875565b83513d5f823e3d90fd5b6108df9192503d805f833e6108b281836104d5565b905f6107a0565b5f546001600160a01b031633036108f957565b63118cdaa760e01b5f523360045260245ffd5b6040516109386020828180820195805191829101875e81015f838201520301601f1981018352826104d5565b519020906040516109686020828180820195805191829101875e81015f838201520301601f1981018352826104d5565b519020149056fea2646970667358221220ee1beecb317ae0ab6b37ff89e39856bcfa403b9067adc417b2edb3a997fa605d64736f6c634300081a0033","linkReferences":{}},"methodIdentifiers":{"BTC_TOTAL_SUPPLY()":"bb79aed6","ETH_TOTAL_SUPPLY()":"a3786057","addDataFeed(address,address)":"ff228df7","getIndexMarketCaps(address[])":"29f06f54","getTokenDataFeed(address)":"25e9181b","getTokenMarketCap(address)":"39dbc3df","getTokenPrice(address)":"d02641a0","owner()":"8da5cb5b","removeDataFeed(address)":"6e202843","renounceOwnership()":"715018a6","setBTCTotalSupply(uint256)":"d8c74323","setETHTotalSupply(uint256)":"b240add3","transferOwnership(address)":"f2fde38b"},"id":13}