{"abi":[{"type":"function","name":"BTC_TOTAL_SUPPLY","inputs":[],"outputs":[{"name":"","type":"uint256","internalType":"uint256"}],"stateMutability":"view"},{"type":"function","name":"ETH_TOTAL_SUPPLY","inputs":[],"outputs":[{"name":"","type":"uint256","internalType":"uint256"}],"stateMutability":"view"},{"type":"function","name":"UPGRADE_INTERFACE_VERSION","inputs":[],"outputs":[{"name":"","type":"string","internalType":"string"}],"stateMutability":"view"},{"type":"function","name":"compareStrings","inputs":[{"name":"a","type":"string","internalType":"string"},{"name":"b","type":"string","internalType":"string"}],"outputs":[{"name":"","type":"bool","internalType":"bool"}],"stateMutability":"pure"},{"type":"function","name":"getIndexMarketCap","inputs":[{"name":"indexTokenAddresses","type":"address[]","internalType":"address[]"},{"name":"keys","type":"tuple[]","internalType":"struct PoolKey[]","components":[{"name":"currency0","type":"address","internalType":"Currency"},{"name":"currency1","type":"address","internalType":"Currency"},{"name":"fee","type":"uint24","internalType":"uint24"},{"name":"tickSpacing","type":"int24","internalType":"int24"},{"name":"hooks","type":"address","internalType":"contract IHooks"}]}],"outputs":[{"name":"","type":"uint256","internalType":"uint256"}],"stateMutability":"view"},{"type":"function","name":"getPoolPrice","inputs":[{"name":"key","type":"tuple","internalType":"struct PoolKey","components":[{"name":"currency0","type":"address","internalType":"Currency"},{"name":"currency1","type":"address","internalType":"Currency"},{"name":"fee","type":"uint24","internalType":"uint24"},{"name":"tickSpacing","type":"int24","internalType":"int24"},{"name":"hooks","type":"address","internalType":"contract IHooks"}]}],"outputs":[{"name":"price","type":"uint256","internalType":"uint256"}],"stateMutability":"view"},{"type":"function","name":"getTokenMarketCap","inputs":[{"name":"token","type":"address","internalType":"address"},{"name":"key","type":"tuple","internalType":"struct PoolKey","components":[{"name":"currency0","type":"address","internalType":"Currency"},{"name":"currency1","type":"address","internalType":"Currency"},{"name":"fee","type":"uint24","internalType":"uint24"},{"name":"tickSpacing","type":"int24","internalType":"int24"},{"name":"hooks","type":"address","internalType":"contract IHooks"}]}],"outputs":[{"name":"","type":"uint256","internalType":"uint256"}],"stateMutability":"view"},{"type":"function","name":"initialize","inputs":[{"name":"_poolManager","type":"address","internalType":"address"}],"outputs":[],"stateMutability":"nonpayable"},{"type":"function","name":"owner","inputs":[],"outputs":[{"name":"","type":"address","internalType":"address"}],"stateMutability":"view"},{"type":"function","name":"poolManager","inputs":[],"outputs":[{"name":"","type":"address","internalType":"contract IPoolManager"}],"stateMutability":"view"},{"type":"function","name":"proxiableUUID","inputs":[],"outputs":[{"name":"","type":"bytes32","internalType":"bytes32"}],"stateMutability":"view"},{"type":"function","name":"renounceOwnership","inputs":[],"outputs":[],"stateMutability":"nonpayable"},{"type":"function","name":"setBTCTotalSupply","inputs":[{"name":"_BTCTotalSupply","type":"uint256","internalType":"uint256"}],"outputs":[],"stateMutability":"nonpayable"},{"type":"function","name":"setETHTotalSupply","inputs":[{"name":"_ethTotalSupply","type":"uint256","internalType":"uint256"}],"outputs":[],"stateMutability":"nonpayable"},{"type":"function","name":"transferOwnership","inputs":[{"name":"newOwner","type":"address","internalType":"address"}],"outputs":[],"stateMutability":"nonpayable"},{"type":"function","name":"upgradeToAndCall","inputs":[{"name":"newImplementation","type":"address","internalType":"address"},{"name":"data","type":"bytes","internalType":"bytes"}],"outputs":[],"stateMutability":"payable"},{"type":"event","name":"Initialized","inputs":[{"name":"version","type":"uint64","indexed":false,"internalType":"uint64"}],"anonymous":false},{"type":"event","name":"OwnershipTransferred","inputs":[{"name":"previousOwner","type":"address","indexed":true,"internalType":"address"},{"name":"newOwner","type":"address","indexed":true,"internalType":"address"}],"anonymous":false},{"type":"event","name":"Upgraded","inputs":[{"name":"implementation","type":"address","indexed":true,"internalType":"address"}],"anonymous":false},{"type":"error","name":"AddressEmptyCode","inputs":[{"name":"target","type":"address","internalType":"address"}]},{"type":"error","name":"ERC1967InvalidImplementation","inputs":[{"name":"implementation","type":"address","internalType":"address"}]},{"type":"error","name":"ERC1967NonPayable","inputs":[]},{"type":"error","name":"FailedCall","inputs":[]},{"type":"error","name":"InvalidInitialization","inputs":[]},{"type":"error","name":"NotInitializing","inputs":[]},{"type":"error","name":"OwnableInvalidOwner","inputs":[{"name":"owner","type":"address","internalType":"address"}]},{"type":"error","name":"OwnableUnauthorizedAccount","inputs":[{"name":"account","type":"address","internalType":"address"}]},{"type":"error","name":"UUPSUnauthorizedCallContext","inputs":[]},{"type":"error","name":"UUPSUnsupportedProxiableUUID","inputs":[{"name":"slot","type":"bytes32","internalType":"bytes32"}]}],"bytecode":{"object":"0x60a080604052346039573060805263072debd06001556301406f406002556110bd908161003e8239608051818181610799015261083c0152f35b5f80fdfe60806040526004361015610011575f80fd5b5f3560e01c80634f1ef286146107ed57806352d1902d14610787578063715018a6146107205780638d3aaa38146105bb5780638da5cb5b1461058757806395ab4e1a1461051f57806397b8b5f3146103d4578063a3786057146103b7578063ad3cb1cc14610359578063b240add314610338578063bb79aed61461031b578063bed34bba146102b4578063c4d66de814610140578063d8c743231461011f578063dc4c90d3146100f85763f2fde38b146100c9575f80fd5b346100f45760203660031901126100f4576100f26100e56109f3565b6100ed610d95565b610d24565b005b5f80fd5b346100f4575f3660031901126100f4575f546040516001600160a01b039091168152602090f35b346100f45760203660031901126100f457610138610d95565b600435600255005b346100f45760203660031901126100f4576101596109f3565b5f80516020611068833981519152549060ff8260401c16159167ffffffffffffffff8116801590816102ac575b60011490816102a2575b159081610299575b5061028a5767ffffffffffffffff1981166001175f80516020611068833981519152558261025e575b506101ca610f9e565b6101d2610f9e565b6101db33610d24565b6101e3610f9e565b60018060a01b03166bffffffffffffffffffffffff60a01b5f5416175f5561020757005b68ff0000000000000000195f8051602061106883398151915254165f80516020611068833981519152557fc7f505b2f371ae2175ee4913f4499e1f2633a7b5936321eed1cdaeb6115181d2602060405160018152a1005b68ffffffffffffffffff191668010000000000000001175f8051602061106883398151915255826101c1565b63f92ee8a960e01b5f5260045ffd5b90501584610198565b303b159150610190565b849150610186565b346100f45760403660031901126100f45760043567ffffffffffffffff81116100f4576102e5903690600401610ac1565b60243567ffffffffffffffff81116100f45760209161030b610311923690600401610ac1565b90610cc1565b6040519015158152f35b346100f4575f3660031901126100f4576020600254604051908152f35b346100f45760203660031901126100f457610351610d95565b600435600155005b346100f4575f3660031901126100f45760408051906103788183610a4d565b600582526020820191640352e302e360dc1b83528151928391602083525180918160208501528484015e5f828201840152601f01601f19168101030190f35b346100f4575f3660031901126100f4576020600154604051908152f35b346100f457366003190160a081126100f4575f546001600160a01b03169060a0136100f45760405161040581610a1d565b6004356001600160a01b03811681036100f45781526024356001600160a01b03811681036100f457602082015260443562ffffff811681036100f45760408201526064358060020b81036100f45760608201526084356001600160a01b03811681036100f4578160a09160806020940152206040518281019182526006604082015260408152610496606082610a4d565b519020602460405180948193631e2eaeaf60e01b835260048301525afa908115610514575f916104e0575b60206104d56001600160a01b038416610adf565b60601c604051908152f35b90506020813d60201161050c575b816104fb60209383610a4d565b810103126100f457516104d56104c1565b3d91506104ee565b6040513d5f823e3d90fd5b346100f45760c03660031901126100f4576105386109f3565b60a03660231901126100f4576105576105516024610b9d565b91610e2b565b9081810291818304149015171561057357604051908152602090f35b634e487b7160e01b5f52601160045260245ffd5b346100f4575f3660031901126100f4575f80516020611028833981519152546040516001600160a01b039091168152602090f35b346100f45760403660031901126100f45760043567ffffffffffffffff81116100f457366023820112156100f457806004013567ffffffffffffffff81116100f4573660248260051b840101116100f45760243567ffffffffffffffff81116100f457366023820112156100f45780600401359067ffffffffffffffff82116100f45736602460a08402830101116100f4578183036106db575f93845b848610156106d057600586901b8201602401356001600160a01b03811681036100f457848710156106bc57610697610551602460a08a02870101610b9d565b9081810291818304149015171561057357810180911161057357600190950194610658565b634e487b7160e01b5f52603260045260245ffd5b602090604051908152f35b60405162461bcd60e51b815260206004820152601f60248201527f4d697373696e6720746f6b656e20616464726573736573206f72206b657973006044820152606490fd5b346100f4575f3660031901126100f457610738610d95565b5f8051602061102883398151915280546001600160a01b031981169091555f906001600160a01b03167f8be0079c531659141344cd1fd0a4f28419497f9722a3daafe3b4186f6b6457e08280a3005b346100f4575f3660031901126100f4577f00000000000000000000000000000000000000000000000000000000000000006001600160a01b031630036107de5760206040515f805160206110488339815191528152f35b63703e46dd60e11b5f5260045ffd5b60403660031901126100f4576108016109f3565b60243567ffffffffffffffff81116100f457366023820112156100f457610832903690602481600401359101610a8b565b6001600160a01b037f0000000000000000000000000000000000000000000000000000000000000000163081149081156109d1575b506107de57610874610d95565b6040516352d1902d60e01b81526001600160a01b0383169290602081600481875afa5f918161099d575b506108b65783634c9c8ce360e01b5f5260045260245ffd5b805f8051602061104883398151915285920361098b5750813b15610979575f8051602061104883398151915280546001600160a01b031916821790557fbc7cd75a20ee27fd9adebab32041f755214dbc6bffa90cc0225b39da2e5c2d3b5f80a2815115610961575f808360206100f295519101845af43d15610959573d9161093d83610a6f565b9261094b6040519485610a4d565b83523d5f602085013e610fc9565b606091610fc9565b50503461096a57005b63b398979f60e01b5f5260045ffd5b634c9c8ce360e01b5f5260045260245ffd5b632a87526960e21b5f5260045260245ffd5b9091506020813d6020116109c9575b816109b960209383610a4d565b810103126100f45751908561089e565b3d91506109ac565b5f80516020611048833981519152546001600160a01b03161415905083610867565b600435906001600160a01b03821682036100f457565b35906001600160a01b03821682036100f457565b60a0810190811067ffffffffffffffff821117610a3957604052565b634e487b7160e01b5f52604160045260245ffd5b90601f8019910116810190811067ffffffffffffffff821117610a3957604052565b67ffffffffffffffff8111610a3957601f01601f191660200190565b929192610a9782610a6f565b91610aa56040519384610a4d565b8294818452818301116100f4578281602093845f960137010152565b9080601f830112156100f457816020610adc93359101610a8b565b90565b5f908015610b97578080600114610b8f57600214610b885760016101338210166001600b83101617610b7a579060019060025b60018111610b3e5750825f19048211610b2a57500290565b634e487b7160e01b81526011600452602490fd5b92805f19048111610b665760018416610b5d575b80029260011c610b12565b80920291610b52565b634e487b7160e01b82526011600452602482fd5b6002900a919080610b2a5750565b5050600490565b505050600190565b50505f90565b5f546001600160a01b03169060a036829003126100f45760405190610bc182610a1d565b610bca81610a09565b8252610bd860208201610a09565b6020830152604081013562ffffff811681036100f45760408301526060810135908160020b82036100f4576060830191909152608001356001600160a01b03811681036100f4578160a09160806020940152206040518281019182526006604082015260408152610c4a606082610a4d565b519020602460405180948193631e2eaeaf60e01b835260048301525afa8015610514575f90610c8d575b610c8791506001600160a01b0316610adf565b60601c90565b506020813d602011610cb9575b81610ca760209383610a4d565b810103126100f457610c879051610c74565b3d9150610c9a565b604051610ced6020828180820195805191829101875e81015f838201520301601f198101835282610a4d565b51902090604051610d1d6020828180820195805191829101875e81015f838201520301601f198101835282610a4d565b5190201490565b6001600160a01b03168015610d82575f8051602061102883398151915280546001600160a01b0319811683179091556001600160a01b03167f8be0079c531659141344cd1fd0a4f28419497f9722a3daafe3b4186f6b6457e05f80a3565b631e4fbdf760e01b5f525f60045260245ffd5b5f80516020611028833981519152546001600160a01b03163303610db557565b63118cdaa760e01b5f523360045260245ffd5b6020818303126100f45780519067ffffffffffffffff82116100f4570181601f820112156100f457805190610dfc82610a6f565b92610e0a6040519485610a4d565b828452602083830101116100f457815f9260208093018386015e8301015290565b6040516395d89b4160e01b8152906001600160a01b03165f82600481845afa918215610514575f92610f82575b50610e82604092835190610e6c8583610a4d565b60048252635742544360e01b6020830152610cc1565b15610e8f57505060025490565b80158015610f05575b610efd5760206004918351928380926318160ddd60e01b82525afa918215610ef457505f91610ec5575090565b90506020813d602011610eec575b81610ee060209383610a4d565b810103126100f4575190565b3d9150610ed3565b513d5f823e3d90fd5b505060015490565b5081516395d89b4160e01b81525f81600481855afa908115610f785790610f51915f91610f56575b50835190610f3b8583610a4d565b60048252630ae8aa8960e31b6020830152610cc1565b610e98565b610f7291503d805f833e610f6a8183610a4d565b810190610dc8565b5f610f2d565b83513d5f823e3d90fd5b610f979192503d805f833e610f6a8183610a4d565b905f610e58565b60ff5f805160206110688339815191525460401c1615610fba57565b631afcd79f60e31b5f5260045ffd5b90610fed5750805115610fde57805190602001fd5b63d6bda27560e01b5f5260045ffd5b8151158061101e575b610ffe575090565b639996b31560e01b5f9081526001600160a01b0391909116600452602490fd5b50803b15610ff656fe9016d09d72d40fdae2fd8ceac6b6234c7706214fd39c1cd1e609a0528c199300360894a13ba1a3210667c828492db98dca3e2076cc3735a920a3ca505d382bbcf0c57e16840df040f15088dc2f81fe391c3923bec73e23a9662efc9c229c6a00a2646970667358221220b1eb4ef832342bf5fa2c329850586ac2e64a84a1a695c01cb1ba9f8c1a07b54e64736f6c634300081a0033","linkReferences":{}},"methodIdentifiers":{"BTC_TOTAL_SUPPLY()":"bb79aed6","ETH_TOTAL_SUPPLY()":"a3786057","UPGRADE_INTERFACE_VERSION()":"ad3cb1cc","compareStrings(string,string)":"bed34bba","getIndexMarketCap(address[],(address,address,uint24,int24,address)[])":"8d3aaa38","getPoolPrice((address,address,uint24,int24,address))":"97b8b5f3","getTokenMarketCap(address,(address,address,uint24,int24,address))":"95ab4e1a","initialize(address)":"c4d66de8","owner()":"8da5cb5b","poolManager()":"dc4c90d3","proxiableUUID()":"52d1902d","renounceOwnership()":"715018a6","setBTCTotalSupply(uint256)":"d8c74323","setETHTotalSupply(uint256)":"b240add3","transferOwnership(address)":"f2fde38b","upgradeToAndCall(address,bytes)":"4f1ef286"},"id":5}