{"abi":[{"type":"constructor","inputs":[],"stateMutability":"nonpayable"},{"type":"function","name":"BTC_TOTAL_SUPPLY","inputs":[],"outputs":[{"name":"","type":"uint256","internalType":"uint256"}],"stateMutability":"view"},{"type":"function","name":"ETH_TOTAL_SUPPLY","inputs":[],"outputs":[{"name":"","type":"uint256","internalType":"uint256"}],"stateMutability":"view"},{"type":"function","name":"addDataFeed","inputs":[{"name":"token","type":"address","internalType":"address"},{"name":"dataFeed","type":"address","internalType":"address"}],"outputs":[],"stateMutability":"nonpayable"},{"type":"function","name":"getIndexMarketCaps","inputs":[{"name":"indexTokenAddresses","type":"address[]","internalType":"address[]"}],"outputs":[{"name":"totalMarketCap","type":"uint256","internalType":"uint256"},{"name":"individualMarketCaps","type":"uint256[]","internalType":"uint256[]"}],"stateMutability":"view"},{"type":"function","name":"getTokenDataFeed","inputs":[{"name":"token","type":"address","internalType":"address"}],"outputs":[{"name":"","type":"address","internalType":"address"}],"stateMutability":"view"},{"type":"function","name":"getTokenMarketCap","inputs":[{"name":"token","type":"address","internalType":"address"}],"outputs":[{"name":"","type":"uint256","internalType":"uint256"}],"stateMutability":"view"},{"type":"function","name":"getTokenPrice","inputs":[{"name":"token","type":"address","internalType":"address"}],"outputs":[{"name":"","type":"uint256","internalType":"uint256"}],"stateMutability":"view"},{"type":"function","name":"owner","inputs":[],"outputs":[{"name":"","type":"address","internalType":"address"}],"stateMutability":"view"},{"type":"function","name":"removeDataFeed","inputs":[{"name":"token","type":"address","internalType":"address"}],"outputs":[],"stateMutability":"nonpayable"},{"type":"function","name":"renounceOwnership","inputs":[],"outputs":[],"stateMutability":"nonpayable"},{"type":"function","name":"setBTCTotalSupply","inputs":[{"name":"_BTCTotalSupply","type":"uint256","internalType":"uint256"}],"outputs":[],"stateMutability":"nonpayable"},{"type":"function","name":"setETHTotalSupply","inputs":[{"name":"_ethTotalSupply","type":"uint256","internalType":"uint256"}],"outputs":[],"stateMutability":"nonpayable"},{"type":"function","name":"transferOwnership","inputs":[{"name":"newOwner","type":"address","internalType":"address"}],"outputs":[],"stateMutability":"nonpayable"},{"type":"event","name":"OwnershipTransferred","inputs":[{"name":"previousOwner","type":"address","indexed":true,"internalType":"address"},{"name":"newOwner","type":"address","indexed":true,"internalType":"address"}],"anonymous":false},{"type":"error","name":"DataFeedDoesNotExist","inputs":[{"name":"token","type":"address","internalType":"address"},{"name":"isAgainstUSD","type":"bool","internalType":"bool"}]},{"type":"error","name":"OwnableInvalidOwner","inputs":[{"name":"owner","type":"address","internalType":"address"}]},{"type":"error","name":"OwnableUnauthorizedAccount","inputs":[{"name":"account","type":"address","internalType":"address"}]}],"bytecode":{"object":"0x608060405234610027576100116100d8565b61001961002c565b6115926102bf823961159290f35b610032565b60405190565b5f80fd5b5f1b90565b906100475f1991610036565b9181191691161790565b90565b90565b90565b61006e61006961007392610051565b610057565b610054565b90565b90565b9061008e6100896100959261005a565b610076565b825461003b565b9055565b90565b6100b06100ab6100b592610099565b610057565b610054565b90565b906100cd6100c86100d49261009c565b610076565b825461003b565b9055565b6100e133610165565b6100f063072debd06001610079565b6100ff6301406f4060026100b8565b565b90565b60018060a01b031690565b61012361011e61012892610101565b610057565b610104565b90565b6101349061010f565b90565b61014090610104565b90565b61014c90610137565b9052565b9190610163905f60208501940190610143565b565b8061018061017a6101755f61012b565b610137565b91610137565b146101905761018e9061025f565b565b6101b361019c5f61012b565b5f918291631e4fbdf760e01b835260048301610150565b0390fd5b5f1c90565b60018060a01b031690565b6101d36101d8916101b7565b6101bc565b90565b6101e590546101c7565b90565b906101f960018060a01b0391610036565b9181191691161790565b61021761021261021c92610104565b610057565b610104565b90565b61022890610203565b90565b6102349061021f565b90565b90565b9061024f61024a6102569261022b565b610237565b82546101e8565b9055565b5f0190565b6102685f6101db565b610272825f61023a565b906102a66102a07f8be0079c531659141344cd1fd0a4f28419497f9722a3daafe3b4186f6b6457e09361022b565b9161022b565b916102af61002c565b806102b98161025a565b0390a356fe60806040526004361015610013575b610646565b61001d5f356100ec565b806325e9181b146100e757806329f06f54146100e257806339dbc3df146100dd5780636e202843146100d8578063715018a6146100d35780638da5cb5b146100ce578063a3786057146100c9578063b240add3146100c4578063bb79aed6146100bf578063d02641a0146100ba578063d8c74323146100b5578063f2fde38b146100b05763ff228df70361000e57610612565b6105b2565b61057f565b61054a565b610515565b6104d3565b61045d565b6103ec565b6103b9565b610377565b61033d565b6102f1565b61017e565b60e01c90565b60405190565b5f80fd5b5f80fd5b5f80fd5b60018060a01b031690565b61011890610104565b90565b6101248161010f565b0361012b57565b5f80fd5b9050359061013c8261011b565b565b9060208282031261015757610154915f0161012f565b90565b6100fc565b6101659061010f565b9052565b919061017c905f6020850194019061015c565b565b346101ae576101aa61019961019436600461013e565b6106cc565b6101a16100f2565b91829182610169565b0390f35b6100f8565b5f80fd5b5f80fd5b5f80fd5b909182601f830112156101f95781359167ffffffffffffffff83116101f45760200192602083028401116101ef57565b6101bb565b6101b7565b6101b3565b9060208282031261022f575f82013567ffffffffffffffff811161022a5761022692016101bf565b9091565b610100565b6100fc565b90565b61024090610234565b9052565b5190565b60209181520190565b60200190565b61026090610234565b9052565b9061027181602093610257565b0190565b60200190565b9061029861029261028b84610244565b8093610248565b92610251565b905f5b8181106102a85750505090565b9091926102c16102bb6001928651610264565b94610275565b910191909161029b565b916102ee926102e160408201935f830190610237565b602081840391015261027b565b90565b346103235761030a6103043660046101fe565b9061087f565b9061031f6103166100f2565b928392836102cb565b0390f35b6100f8565b919061033b905f60208501940190610237565b565b3461036d5761036961035861035336600461013e565b610982565b6103606100f2565b91829182610328565b0390f35b6100f8565b5f0190565b346103a55761038f61038a36600461013e565b610a4d565b6103976100f2565b806103a181610372565b0390f35b6100f8565b5f9103126103b457565b6100fc565b346103e7576103c93660046103aa565b6103d1610aa5565b6103d96100f2565b806103e381610372565b0390f35b6100f8565b3461041c576103fc3660046103aa565b610418610407610aaf565b61040f6100f2565b91829182610169565b0390f35b6100f8565b1c90565b90565b61043890600861043d9302610421565b610425565b90565b9061044b9154610428565b90565b61045a60015f90610440565b90565b3461048d5761046d3660046103aa565b61048961047861044e565b6104806100f2565b91829182610328565b0390f35b6100f8565b61049b81610234565b036104a257565b5f80fd5b905035906104b382610492565b565b906020828203126104ce576104cb915f016104a6565b90565b6100fc565b34610501576104eb6104e63660046104b5565b610b3e565b6104f36100f2565b806104fd81610372565b0390f35b6100f8565b61051260025f90610440565b90565b34610545576105253660046103aa565b610541610530610506565b6105386100f2565b91829182610328565b0390f35b6100f8565b3461057a5761057661056561056036600461013e565b610d58565b61056d6100f2565b91829182610328565b0390f35b6100f8565b346105ad576105976105923660046104b5565b610f16565b61059f6100f2565b806105a981610372565b0390f35b6100f8565b346105e0576105ca6105c536600461013e565b610f86565b6105d26100f2565b806105dc81610372565b0390f35b6100f8565b919060408382031261060d578061060161060a925f860161012f565b9360200161012f565b90565b6100fc565b346106415761062b6106253660046105e5565b90610ff6565b6106336100f2565b8061063d81610372565b0390f35b6100f8565b5f80fd5b5f90565b90565b61066561066061066a92610104565b61064e565b610104565b90565b61067690610651565b90565b6106829061066d565b90565b9061068f90610679565b5f5260205260405f2090565b5f1c90565b60018060a01b031690565b6106b76106bc9161069b565b6106a0565b90565b6106c990546106ab565b90565b6106e36106e8916106db61064a565b506003610685565b6106bf565b90565b5f90565b606090565b90565b61070b610706610710926106f4565b61064e565b610234565b90565b5090565b601f801991011690565b634e487b7160e01b5f52604160045260245ffd5b9061073f90610717565b810190811067ffffffffffffffff82111761075957604052565b610721565b9061077161076a6100f2565b9283610735565b565b67ffffffffffffffff811161078b5760208091020190565b610721565b906107a261079d83610773565b61075e565b918252565b369037565b906107d16107b983610790565b926020806107c78693610773565b92019103906107a7565b565b60016107df9101610234565b90565b634e487b7160e01b5f52603260045260245ffd5b9190811015610806576020020190565b6107e2565b356108158161011b565b90565b634e487b7160e01b5f52601160045260245ffd5b61083b61084191939293610234565b92610234565b820180921161084c57565b610818565b9061085b82610244565b81101561086c576020809102010190565b6107e2565b9061087b90610234565b9052565b91906108896106eb565b506108926106ef565b5061089c5f6106f7565b926108b06108ab828490610713565b6107ac565b936108ba5f6106f7565b905b816108d96108d36108ce868890610713565b610234565b91610234565b10156109455761090861093f916109026108fd6108f8878988916107f6565b61080b565b610982565b9061082c565b9161093a61092861092361091e878986916107f6565b61080b565b610982565b6109358991849092610851565b610871565b6107d3565b906108bc565b925050509190565b61095c61096291939293610234565b92610234565b9161096e838202610234565b92818404149015171561097d57565b610818565b6109ba9061098e6106eb565b506109b46109ae6109a96109a460038590610685565b6106bf565b610d58565b916111d2565b9061094d565b90565b6109ce906109c96113bb565b610a37565b565b1b90565b919060086109f49102916109ee60018060a01b03846109d0565b926109d0565b9181191691161790565b90565b9190610a17610a12610a1f93610679565b6109fe565b9083546109d4565b9055565b610a3591610a2f61064a565b91610a01565b565b5f610a46610a4b926003610685565b610a23565b565b610a56906109bd565b565b610a606113bb565b610a68610a92565b565b610a7e610a79610a83926106f4565b61064e565b610104565b90565b610a8f90610a6a565b90565b610aa3610a9e5f610a86565b611409565b565b610aad610a58565b565b610ab761064a565b50610ac15f6106bf565b90565b610ad590610ad06113bb565b610b31565b565b5f1b90565b90610ae85f1991610ad7565b9181191691161790565b610b06610b01610b0b92610234565b61064e565b610234565b90565b90565b90610b26610b21610b2d92610af2565b610b0e565b8254610adc565b9055565b610b3c906001610b11565b565b610b4790610ac4565b565b151590565b610b5790610b49565b9052565b916020610b7c929493610b7560408201965f83019061015c565b0190610b4e565b565b610b8790610651565b90565b610b9390610b7e565b90565b610b9f9061066d565b90565b60e01b90565b69ffffffffffffffffffff1690565b610bc081610ba8565b03610bc757565b5f80fd5b90505190610bd882610bb7565b565b90565b610be681610bda565b03610bed57565b5f80fd5b90505190610bfe82610bdd565b565b90505190610c0d82610492565b565b919060a083820312610c6057610c27815f8501610bcb565b92610c358260208301610bf1565b92610c5d610c468460408501610c00565b93610c548160608601610c00565b93608001610bcb565b90565b6100fc565b610c6d6100f2565b3d5f823e3d90fd5b60ff1690565b610c8481610c75565b03610c8b57565b5f80fd5b90505190610c9c82610c7b565b565b90602082820312610cb757610cb4915f01610c8f565b90565b6100fc565b610cd0610ccb610cd592610bda565b61064e565b610234565b90565b90565b610cef610cea610cf492610cd8565b61064e565b610234565b90565b610d03620f4240610cdb565b90565b610d0f90610c75565b604d8111610d1d57600a0a90565b610818565b634e487b7160e01b5f52601260045260245ffd5b610d42610d4891610234565b91610234565b908115610d53570490565b610d22565b610d606106eb565b50610d75610d7060038390610685565b6106bf565b9081610d91610d8b610d865f610a86565b61010f565b9161010f565b14610ed557508060a0610dae610da9610dc494610b8a565b610b96565b63feaf968c90610dbc6100f2565b948592610ba2565b82528180610dd460048201610372565b03915afa918215610ed057610e02610dfd610e18946020935f80929050610e9f575b5093610b8a565b610b96565b63313ce56790610e106100f2565b948592610ba2565b82528180610e2860048201610372565b03915afa918215610e9a57610e5d610e4f610e6994610e63935f91610e6c575b5093610cbc565b610e57610cf7565b9061094d565b91610d06565b90610d36565b90565b610e8d915060203d8111610e93575b610e858183610735565b810190610c9e565b5f610e48565b503d610e7b565b610c65565b610ec0915060a03d8111610ec9575b610eb88183610735565b810190610c0f565b50505090610df6565b503d610eae565b610c65565b600190610ef25f928392630724090560e41b845260048401610b5b565b0390fd5b610f0790610f026113bb565b610f09565b565b610f14906002610b11565b565b610f1f90610ef6565b565b610f3290610f2d6113bb565b610f34565b565b80610f4f610f49610f445f610a86565b61010f565b9161010f565b14610f5f57610f5d90611409565b565b610f82610f6b5f610a86565b5f918291631e4fbdf760e01b835260048301610169565b0390fd5b610f8f90610f21565b565b90610fa391610f9e6113bb565b610fe0565b565b90610fb660018060a01b0391610ad7565b9181191691161790565b90610fd5610fd0610fdc92610679565b6109fe565b8254610fa5565b9055565b610fef610ff492916003610685565b610fc0565b565b9061100091610f91565b565b61100b90610651565b90565b61101790611002565b90565b6110239061066d565b90565b5f80fd5b67ffffffffffffffff811161104857611044602091610717565b0190565b610721565b90825f9392825e0152565b9092919261106d6110688261102a565b61075e565b93818552602085019082840111611089576110879261104d565b565b611026565b9080601f830112156110ac578160206110a993519101611058565b90565b6101b3565b906020828203126110e1575f82015167ffffffffffffffff81116110dc576110d9920161108e565b90565b610100565b6100fc565b906110f86110f38361102a565b61075e565b918252565b5f7f5742544300000000000000000000000000000000000000000000000000000000910152565b61112e60046110e6565b9061113b602083016110fd565b565b611145611124565b90565b5f7f5745544800000000000000000000000000000000000000000000000000000000910152565b61117960046110e6565b9061118660208301611148565b565b61119061116f565b90565b61119f6111a49161069b565b610425565b90565b6111b19054611193565b90565b906020828203126111cd576111ca915f01610c00565b90565b6100fc565b6111da6106eb565b506112065f6111f06111eb8461100e565b61101a565b6395d89b41906111fe6100f2565b938492610ba2565b8252818061121660048201610372565b03915afa80156113b65761123a915f91611394575b5061123461113d565b906114b7565b5f1461124e575061124b60026111a7565b90565b8061126961126361125e5f610a86565b61010f565b9161010f565b148015611308575b6112fa57602061128b6112866112a19361100e565b61101a565b6318160ddd906112996100f2565b938492610ba2565b825281806112b160048201610372565b03915afa9081156112f5575f916112c7575b5090565b6112e8915060203d81116112ee575b6112e08183610735565b8101906111b4565b5f6112c3565b503d6112d6565b610c65565b5061130560016111a7565b90565b506113345f61131e6113198461100e565b61101a565b6395d89b419061132c6100f2565b938492610ba2565b8252818061134460048201610372565b03915afa801561138f57611368915f9161136d575b50611362611188565b906114b7565b611271565b61138991503d805f833e6113818183610735565b8101906110b1565b5f611359565b610c65565b6113b091503d805f833e6113a88183610735565b8101906110b1565b5f61122b565b610c65565b6113c3610aaf565b6113dc6113d66113d161154f565b61010f565b9161010f565b036113e357565b6114056113ee61154f565b5f91829163118cdaa760e01b835260048301610169565b0390fd5b6114125f6106bf565b61141c825f610fc0565b9061145061144a7f8be0079c531659141344cd1fd0a4f28419497f9722a3daafe3b4186f6b6457e093610679565b91610679565b916114596100f2565b8061146381610372565b0390a3565b5f90565b5190565b905090565b61149a611491926020926114888161146c565b94858093611470565b9384910161104d565b0190565b6114a791611475565b90565b60200190565b5190565b90565b61154561151e61152d6114e76114f661154b956114d2611468565b506114db6100f2565b9283916020830161149e565b60208201810382520382610735565b611508611502826114b0565b916114aa565b20946115126100f2565b9283916020830161149e565b60208201810382520382610735565b61153f611539826114b0565b916114aa565b206114b4565b916114b4565b1490565b61155761064a565b50339056fea26469706673582212200a313798087fd67dac6c91cded38723cbae00d772206e3c736e58a81c092f42b64736f6c634300081a0033","linkReferences":{}},"methodIdentifiers":{"BTC_TOTAL_SUPPLY()":"bb79aed6","ETH_TOTAL_SUPPLY()":"a3786057","addDataFeed(address,address)":"ff228df7","getIndexMarketCaps(address[])":"29f06f54","getTokenDataFeed(address)":"25e9181b","getTokenMarketCap(address)":"39dbc3df","getTokenPrice(address)":"d02641a0","owner()":"8da5cb5b","removeDataFeed(address)":"6e202843","renounceOwnership()":"715018a6","setBTCTotalSupply(uint256)":"d8c74323","setETHTotalSupply(uint256)":"b240add3","transferOwnership(address)":"f2fde38b"},"id":14}