{"abi":[{"type":"function","name":"BTC_TOTAL_SUPPLY","inputs":[],"outputs":[{"name":"","type":"uint256","internalType":"uint256"}],"stateMutability":"view"},{"type":"function","name":"ETH_TOTAL_SUPPLY","inputs":[],"outputs":[{"name":"","type":"uint256","internalType":"uint256"}],"stateMutability":"view"},{"type":"function","name":"UPGRADE_INTERFACE_VERSION","inputs":[],"outputs":[{"name":"","type":"string","internalType":"string"}],"stateMutability":"view"},{"type":"function","name":"compareStrings","inputs":[{"name":"a","type":"string","internalType":"string"},{"name":"b","type":"string","internalType":"string"}],"outputs":[{"name":"","type":"bool","internalType":"bool"}],"stateMutability":"pure"},{"type":"function","name":"getIndexMarketCaps","inputs":[{"name":"indexTokenAddresses","type":"address[]","internalType":"address[]"},{"name":"keys","type":"tuple[]","internalType":"struct PoolKey[]","components":[{"name":"currency0","type":"address","internalType":"Currency"},{"name":"currency1","type":"address","internalType":"Currency"},{"name":"fee","type":"uint24","internalType":"uint24"},{"name":"tickSpacing","type":"int24","internalType":"int24"},{"name":"hooks","type":"address","internalType":"contract IHooks"}]}],"outputs":[{"name":"totalMarketCap","type":"uint256","internalType":"uint256"},{"name":"marketCaps","type":"uint256[]","internalType":"uint256[]"}],"stateMutability":"view"},{"type":"function","name":"getTokenMarketCap","inputs":[{"name":"token","type":"address","internalType":"address"},{"name":"key","type":"tuple","internalType":"struct PoolKey","components":[{"name":"currency0","type":"address","internalType":"Currency"},{"name":"currency1","type":"address","internalType":"Currency"},{"name":"fee","type":"uint24","internalType":"uint24"},{"name":"tickSpacing","type":"int24","internalType":"int24"},{"name":"hooks","type":"address","internalType":"contract IHooks"}]}],"outputs":[{"name":"","type":"uint256","internalType":"uint256"}],"stateMutability":"view"},{"type":"function","name":"getTokenPrice","inputs":[{"name":"token","type":"address","internalType":"address"},{"name":"key","type":"tuple","internalType":"struct PoolKey","components":[{"name":"currency0","type":"address","internalType":"Currency"},{"name":"currency1","type":"address","internalType":"Currency"},{"name":"fee","type":"uint24","internalType":"uint24"},{"name":"tickSpacing","type":"int24","internalType":"int24"},{"name":"hooks","type":"address","internalType":"contract IHooks"}]}],"outputs":[{"name":"","type":"uint256","internalType":"uint256"}],"stateMutability":"view"},{"type":"function","name":"initialize","inputs":[{"name":"_poolManager","type":"address","internalType":"address"}],"outputs":[],"stateMutability":"nonpayable"},{"type":"function","name":"owner","inputs":[],"outputs":[{"name":"","type":"address","internalType":"address"}],"stateMutability":"view"},{"type":"function","name":"poolManager","inputs":[],"outputs":[{"name":"","type":"address","internalType":"contract IPoolManager"}],"stateMutability":"view"},{"type":"function","name":"proxiableUUID","inputs":[],"outputs":[{"name":"","type":"bytes32","internalType":"bytes32"}],"stateMutability":"view"},{"type":"function","name":"renounceOwnership","inputs":[],"outputs":[],"stateMutability":"nonpayable"},{"type":"function","name":"setBTCTotalSupply","inputs":[{"name":"_BTCTotalSupply","type":"uint256","internalType":"uint256"}],"outputs":[],"stateMutability":"nonpayable"},{"type":"function","name":"setETHTotalSupply","inputs":[{"name":"_ethTotalSupply","type":"uint256","internalType":"uint256"}],"outputs":[],"stateMutability":"nonpayable"},{"type":"function","name":"transferOwnership","inputs":[{"name":"newOwner","type":"address","internalType":"address"}],"outputs":[],"stateMutability":"nonpayable"},{"type":"function","name":"upgradeToAndCall","inputs":[{"name":"newImplementation","type":"address","internalType":"address"},{"name":"data","type":"bytes","internalType":"bytes"}],"outputs":[],"stateMutability":"payable"},{"type":"event","name":"Initialized","inputs":[{"name":"version","type":"uint64","indexed":false,"internalType":"uint64"}],"anonymous":false},{"type":"event","name":"OwnershipTransferred","inputs":[{"name":"previousOwner","type":"address","indexed":true,"internalType":"address"},{"name":"newOwner","type":"address","indexed":true,"internalType":"address"}],"anonymous":false},{"type":"event","name":"Upgraded","inputs":[{"name":"implementation","type":"address","indexed":true,"internalType":"address"}],"anonymous":false},{"type":"error","name":"AddressEmptyCode","inputs":[{"name":"target","type":"address","internalType":"address"}]},{"type":"error","name":"ERC1967InvalidImplementation","inputs":[{"name":"implementation","type":"address","internalType":"address"}]},{"type":"error","name":"ERC1967NonPayable","inputs":[]},{"type":"error","name":"FailedCall","inputs":[]},{"type":"error","name":"InvalidInitialization","inputs":[]},{"type":"error","name":"NotInitializing","inputs":[]},{"type":"error","name":"OwnableInvalidOwner","inputs":[{"name":"owner","type":"address","internalType":"address"}]},{"type":"error","name":"OwnableUnauthorizedAccount","inputs":[{"name":"account","type":"address","internalType":"address"}]},{"type":"error","name":"UUPSUnauthorizedCallContext","inputs":[]},{"type":"error","name":"UUPSUnsupportedProxiableUUID","inputs":[{"name":"slot","type":"bytes32","internalType":"bytes32"}]}],"bytecode":{"object":"0x60a080604052346039573060805263072debd06001556301406f40600255611238908161003e823960805181818161068d015261072f0152f35b5f80fdfe6080806040526004361015610012575f80fd5b5f3560e01c90816339f43664146108e6575080634f1ef286146106e157806352d1902d1461067b578063715018a6146106145780638da5cb5b146105e057806395ab4e1a1461056c578063a37860571461054f578063ad3cb1cc146104f1578063b240add3146104d0578063bb79aed6146104b3578063bed34bba1461044e578063c4d66de8146102db578063d8c74323146102ba578063dc4c90d314610293578063f2fde38b146102685763fef336e2146100cc575f80fd5b346102515760c0366003190112610251576100e5610adf565b60a0366023190112610251575f546040516001600160a01b039091169161010b82610b09565b602435926001600160a01b03841692838503610251578481526044356001600160a01b038116810361025157602082015260643562ffffff811681036102515760408201526084358060020b810361025157606082015260a4356001600160a01b0381168103610251578160a091608060209401522060405182810191825260066040820152604081526101a0606082610b38565b519020602460405180948193631e2eaeaf60e01b835260048301525afa90811561025d575f91610227575b506001600160a01b03908116935016036101f5576101ea602091610c13565b60601c604051908152f35b8015610213576020906101ea906001046001600160a01b0316610c13565b634e487b7160e01b5f52601260045260245ffd5b90506020813d602011610255575b8161024260209383610b38565b8101031261025157515f6101cb565b5f80fd5b3d9150610235565b6040513d5f823e3d90fd5b3461025157602036600319011261025157610291610284610adf565b61028c610dcc565b610d5b565b005b34610251575f366003190112610251575f546040516001600160a01b039091168152602090f35b34610251576020366003190112610251576102d3610dcc565b600435600255005b34610251576020366003190112610251576102f4610adf565b5f805160206111e3833981519152549060ff8260401c1615916001600160401b03811680159081610446575b600114908161043c575b159081610433575b506104245767ffffffffffffffff1981166001175f805160206111e383398151915255826103f8575b50610364611119565b61036c611119565b61037533610d5b565b61037d611119565b60018060a01b03166bffffffffffffffffffffffff60a01b5f5416175f556103a157005b68ff0000000000000000195f805160206111e383398151915254165f805160206111e3833981519152557fc7f505b2f371ae2175ee4913f4499e1f2633a7b5936321eed1cdaeb6115181d2602060405160018152a1005b68ffffffffffffffffff191668010000000000000001175f805160206111e3833981519152558261035b565b63f92ee8a960e01b5f5260045ffd5b90501584610332565b303b15915061032a565b849150610320565b34610251576040366003190112610251576004356001600160401b0381116102515761047e903690600401610baa565b6024356001600160401b038111610251576020916104a36104a9923690600401610baa565b90610cf8565b6040519015158152f35b34610251575f366003190112610251576020600254604051908152f35b34610251576020366003190112610251576104e9610dcc565b600435600155005b34610251575f3660031901126102515760408051906105108183610b38565b600582526020820191640352e302e360dc1b83528151928391602083525180918160208501528484015e5f828201840152601f01601f19168101030190f35b34610251575f366003190112610251576020600154604051908152f35b346102515760c036600319011261025157610585610adf565b60a0366023190112610251576105ae6105a86105a2602484610dff565b92610fa6565b91610c13565b8181029181830414901517156105cc5760209060601c604051908152f35b634e487b7160e01b5f52601160045260245ffd5b34610251575f366003190112610251575f805160206111a3833981519152546040516001600160a01b039091168152602090f35b34610251575f3660031901126102515761062c610dcc565b5f805160206111a383398151915280546001600160a01b031981169091555f906001600160a01b03167f8be0079c531659141344cd1fd0a4f28419497f9722a3daafe3b4186f6b6457e08280a3005b34610251575f366003190112610251577f00000000000000000000000000000000000000000000000000000000000000006001600160a01b031630036106d25760206040515f805160206111c38339815191528152f35b63703e46dd60e11b5f5260045ffd5b6040366003190112610251576106f5610adf565b6024356001600160401b038111610251573660238201121561025157610725903690602481600401359101610b74565b6001600160a01b037f0000000000000000000000000000000000000000000000000000000000000000163081149081156108c4575b506106d257610767610dcc565b6040516352d1902d60e01b81526001600160a01b0383169290602081600481875afa5f9181610890575b506107a95783634c9c8ce360e01b5f5260045260245ffd5b805f805160206111c383398151915285920361087e5750813b1561086c575f805160206111c383398151915280546001600160a01b031916821790557fbc7cd75a20ee27fd9adebab32041f755214dbc6bffa90cc0225b39da2e5c2d3b5f80a2815115610854575f8083602061029195519101845af43d1561084c573d9161083083610b59565b9261083e6040519485610b38565b83523d5f602085013e611144565b606091611144565b50503461085d57005b63b398979f60e01b5f5260045ffd5b634c9c8ce360e01b5f5260045260245ffd5b632a87526960e21b5f5260045260245ffd5b9091506020813d6020116108bc575b816108ac60209383610b38565b8101031261025157519085610791565b3d915061089f565b5f805160206111c3833981519152546001600160a01b0316141590508361075a565b34610251576040366003190112610251576004356001600160401b03811161025157366023820112156102515780600401356001600160401b038111610251576024820191602436918360051b01011161025157602435926001600160401b0384116102515736602385011215610251578360040135906001600160401b0382116102515760248501946024369160a0850201011161025157818303610a9d57509290915f9361099584610bc8565b936109a36040519586610b38565b8085526109af81610bc8565b602086019490601f19013686375f935b828510610a10578787876040519283926040840191845260406020850152518091526060830191905f5b8181106109f7575050500390f35b82518452859450602093840193909201916001016109e9565b90919293949596610a3e610a2d610a28888786610bdf565b610bef565b610a38888887610c03565b90610cd1565b81018091116105cc5794610a64610a59610a28838786610bdf565b610a38838887610c03565b908851811015610a895760019160208260051b8b0101520193929190969594966109bf565b634e487b7160e01b5f52603260045260245ffd5b62461bcd60e51b815260206004820152601f60248201527f4d697373696e6720746f6b656e20616464726573736573206f72206b657973006044820152606490fd5b600435906001600160a01b038216820361025157565b35906001600160a01b038216820361025157565b60a081019081106001600160401b03821117610b2457604052565b634e487b7160e01b5f52604160045260245ffd5b90601f801991011681019081106001600160401b03821117610b2457604052565b6001600160401b038111610b2457601f01601f191660200190565b929192610b8082610b59565b91610b8e6040519384610b38565b829481845281830111610251578281602093845f960137010152565b9080601f8301121561025157816020610bc593359101610b74565b90565b6001600160401b038111610b245760051b60200190565b9190811015610a895760051b0190565b356001600160a01b03811681036102515790565b9190811015610a895760a0020190565b5f908015610ccb578080600114610cc357600214610cbc5760016101338210166001600b83101617610cae579060019060025b60018111610c725750825f19048211610c5e57500290565b634e487b7160e01b81526011600452602490fd5b92805f19048111610c9a5760018416610c91575b80029260011c610c46565b80920291610c86565b634e487b7160e01b82526011600452602482fd5b6002900a919080610c5e5750565b5050600490565b505050600190565b50505f90565b906105a86105a2610ce29284610dff565b8181029181830414901517156105cc5760601c90565b604051610d246020828180820195805191829101875e81015f838201520301601f198101835282610b38565b51902090604051610d546020828180820195805191829101875e81015f838201520301601f198101835282610b38565b5190201490565b6001600160a01b03168015610db9575f805160206111a383398151915280546001600160a01b0319811683179091556001600160a01b03167f8be0079c531659141344cd1fd0a4f28419497f9722a3daafe3b4186f6b6457e05f80a3565b631e4fbdf760e01b5f525f60045260245ffd5b5f805160206111a3833981519152546001600160a01b03163303610dec57565b63118cdaa760e01b5f523360045260245ffd5b5f546001600160a01b031660a0368490031261025157604051610e2181610b09565b610e2a84610af5565b8152610e3860208501610af5565b6020820152604084013562ffffff8116810361025157604082015260608401358060020b810361025157606082015260808401356001600160a01b0381168103610251578160a09160806020940152206040518281019182526006604082015260408152610ea7606082610b38565b519020602460405180948193631e2eaeaf60e01b835260048301525afa90811561025d575f91610f12575b506001600160a01b0390811692610ee890610bef565b6001600160a01b03909216911603610efd5790565b8015610213576001046001600160a01b031690565b90506020813d602011610f3c575b81610f2d60209383610b38565b8101031261025157515f610ed2565b3d9150610f20565b602081830312610251578051906001600160401b038211610251570181601f8201121561025157805190610f7782610b59565b92610f856040519485610b38565b8284526020838301011161025157815f9260208093018386015e8301015290565b6040516395d89b4160e01b8152906001600160a01b03165f82600481845afa91821561025d575f926110fd575b50610ffd604092835190610fe78583610b38565b60048252635742544360e01b6020830152610cf8565b1561100a57505060025490565b80158015611080575b6110785760206004918351928380926318160ddd60e01b82525afa91821561106f57505f91611040575090565b90506020813d602011611067575b8161105b60209383610b38565b81010312610251575190565b3d915061104e565b513d5f823e3d90fd5b505060015490565b5081516395d89b4160e01b81525f81600481855afa9081156110f357906110cc915f916110d1575b508351906110b68583610b38565b60048252630ae8aa8960e31b6020830152610cf8565b611013565b6110ed91503d805f833e6110e58183610b38565b810190610f44565b5f6110a8565b83513d5f823e3d90fd5b6111129192503d805f833e6110e58183610b38565b905f610fd3565b60ff5f805160206111e38339815191525460401c161561113557565b631afcd79f60e31b5f5260045ffd5b90611168575080511561115957805190602001fd5b63d6bda27560e01b5f5260045ffd5b81511580611199575b611179575090565b639996b31560e01b5f9081526001600160a01b0391909116600452602490fd5b50803b1561117156fe9016d09d72d40fdae2fd8ceac6b6234c7706214fd39c1cd1e609a0528c199300360894a13ba1a3210667c828492db98dca3e2076cc3735a920a3ca505d382bbcf0c57e16840df040f15088dc2f81fe391c3923bec73e23a9662efc9c229c6a00a264697066735822122012e38e00fe6a3b8e3b9998224dd2549358ce79989630dbff1c7d771af12b62fd64736f6c634300081a0033","linkReferences":{}},"methodIdentifiers":{"BTC_TOTAL_SUPPLY()":"bb79aed6","ETH_TOTAL_SUPPLY()":"a3786057","UPGRADE_INTERFACE_VERSION()":"ad3cb1cc","compareStrings(string,string)":"bed34bba","getIndexMarketCaps(address[],(address,address,uint24,int24,address)[])":"39f43664","getTokenMarketCap(address,(address,address,uint24,int24,address))":"95ab4e1a","getTokenPrice(address,(address,address,uint24,int24,address))":"fef336e2","initialize(address)":"c4d66de8","owner()":"8da5cb5b","poolManager()":"dc4c90d3","proxiableUUID()":"52d1902d","renounceOwnership()":"715018a6","setBTCTotalSupply(uint256)":"d8c74323","setETHTotalSupply(uint256)":"b240add3","transferOwnership(address)":"f2fde38b","upgradeToAndCall(address,bytes)":"4f1ef286"},"id":10}