{"abi":[{"type":"constructor","inputs":[{"name":"_indexTokens","type":"address[]","internalType":"address[]"},{"name":"_stablecoin","type":"address","internalType":"address"},{"name":"_indexFundToken","type":"address","internalType":"address"},{"name":"_marketDataFetcher","type":"address","internalType":"address"},{"name":"_swapsManager","type":"address","internalType":"address"},{"name":"_initialSharePrice","type":"uint256","internalType":"uint256"}],"stateMutability":"nonpayable"},{"type":"function","name":"burnShares","inputs":[{"name":"amount","type":"uint256","internalType":"uint256"}],"outputs":[],"stateMutability":"nonpayable"},{"type":"function","name":"getIndexFundToken","inputs":[],"outputs":[{"name":"","type":"address","internalType":"contract IERC20"}],"stateMutability":"view"},{"type":"function","name":"getIndexTokens","inputs":[],"outputs":[{"name":"","type":"address[]","internalType":"address[]"}],"stateMutability":"view"},{"type":"function","name":"getStablecoin","inputs":[],"outputs":[{"name":"","type":"address","internalType":"contract IERC20"}],"stateMutability":"view"},{"type":"function","name":"mintShares","inputs":[{"name":"amount","type":"uint256","internalType":"uint256"}],"outputs":[],"stateMutability":"nonpayable"},{"type":"event","name":"FeeCollected","inputs":[{"name":"user","type":"address","indexed":true,"internalType":"address"},{"name":"feeAmount","type":"uint256","indexed":true,"internalType":"uint256"}],"anonymous":false},{"type":"event","name":"SharesBurned","inputs":[{"name":"user","type":"address","indexed":true,"internalType":"address"},{"name":"amount","type":"uint256","indexed":true,"internalType":"uint256"}],"anonymous":false},{"type":"event","name":"SharesMinted","inputs":[{"name":"user","type":"address","indexed":true,"internalType":"address"},{"name":"amount","type":"uint256","indexed":true,"internalType":"uint256"},{"name":"stablecoinIn","type":"uint256","indexed":true,"internalType":"uint256"}],"anonymous":false}],"bytecode":{"object":"0x6080604052346101ec5761042a80380380610019816101f0565b92833981019060c0818303126101ec5780516001600160401b0381116101ec57810182601f820112156101ec578051926001600160401b0384116101c0578360051b9160206100698185016101f0565b809681520190602082948201019283116101ec57602001905b8282106101d45750505061009860208301610215565b6100a460408401610215565b906100b160608501610215565b9260a06100c060808701610215565b9501519551906001600160401b0382116101c0576801000000000000000082116101c0575f54825f55808310610190575b505f8080525f8051602061040a833981519152905b838110610173575050600480546001600160a01b03199081166001600160a01b03958616179091556001805482169585169590951790945550506002805483169382169390931790925560038054909116929091169190911790556005556040516101e0908161022a8239f35b82516001600160a01b031681830155602090920191600101610106565b5f80525f8051602061040a8339815191529081019083015b8181106101b557506100f1565b5f81556001016101a8565b634e487b7160e01b5f52604160045260245ffd5b602080916101e184610215565b815201910190610082565b5f80fd5b6040519190601f01601f191682016001600160401b038111838210176101c057604052565b51906001600160a01b03821682036101ec5756fe6080806040526004361015610012575f80fd5b5f3560e01c90816338f250ec146100ac5750806375696e7f14610084578063853c637d1461007f578063b1aa90a11461007f5763b6f6731214610053575f80fd5b3461007b575f36600319011261007b576004546040516001600160a01b039091168152602090f35b5f80fd5b610197565b3461007b575f36600319011261007b576001546040516001600160a01b039091168152602090f35b3461007b575f36600319011261007b575f548082526020820180915f80527f290decd9548b62a8d60345a988386fc84ba6bc95484008f6362f93160ef3e563905f5b81811061017857505050829003601f01601f191682019167ffffffffffffffff8311818410176101645790829182604052602083019060208452518091526040830191905f5b818110610142575050500390f35b82516001600160a01b0316845285945060209384019390920191600101610134565b634e487b7160e01b5f52604160045260245ffd5b82546001600160a01b03168452602090930192600192830192016100ee565b3461007b57602036600319011261007b5700fea26469706673582212201ed977252463290e6cfc576b54e9a056df9b5725f86d22c46882419c5cf523d964736f6c634300081a0033290decd9548b62a8d60345a988386fc84ba6bc95484008f6362f93160ef3e563","linkReferences":{}},"methodIdentifiers":{"burnShares(uint256)":"853c637d","getIndexFundToken()":"75696e7f","getIndexTokens()":"38f250ec","getStablecoin()":"b6f67312","mintShares(uint256)":"b1aa90a1"},"id":0}