{"abi":[{"type":"constructor","inputs":[{"name":"_indexTokens","type":"address[]","internalType":"address[]"},{"name":"_stablecoin","type":"address","internalType":"address"},{"name":"_indexFundFactory","type":"address","internalType":"address"},{"name":"_indexFundToken","type":"address","internalType":"address"},{"name":"_marketDataFetcherProxy","type":"address","internalType":"address"},{"name":"_swapsManagerProxy","type":"address","internalType":"address"},{"name":"_initialSharePrice","type":"uint256","internalType":"uint256"},{"name":"_isStablecoinEncrypted","type":"bool","internalType":"bool"}],"stateMutability":"nonpayable"},{"type":"function","name":"DEFAULT_ADMIN_ROLE","inputs":[],"outputs":[{"name":"","type":"bytes32","internalType":"bytes32"}],"stateMutability":"view"},{"type":"function","name":"burnShares","inputs":[{"name":"amount","type":"uint256","internalType":"uint256"}],"outputs":[],"stateMutability":"nonpayable"},{"type":"function","name":"getIndexFundToken","inputs":[],"outputs":[{"name":"","type":"address","internalType":"contract IndexFundToken"}],"stateMutability":"view"},{"type":"function","name":"getIndexTokens","inputs":[],"outputs":[{"name":"","type":"address[]","internalType":"address[]"}],"stateMutability":"view"},{"type":"function","name":"getRoleAdmin","inputs":[{"name":"role","type":"bytes32","internalType":"bytes32"}],"outputs":[{"name":"","type":"bytes32","internalType":"bytes32"}],"stateMutability":"view"},{"type":"function","name":"getStablecoin","inputs":[],"outputs":[{"name":"","type":"address","internalType":"contract IERC20"}],"stateMutability":"view"},{"type":"function","name":"grantRole","inputs":[{"name":"role","type":"bytes32","internalType":"bytes32"},{"name":"account","type":"address","internalType":"address"}],"outputs":[],"stateMutability":"nonpayable"},{"type":"function","name":"hasRole","inputs":[{"name":"role","type":"bytes32","internalType":"bytes32"},{"name":"account","type":"address","internalType":"address"}],"outputs":[{"name":"","type":"bool","internalType":"bool"}],"stateMutability":"view"},{"type":"function","name":"mintShares","inputs":[{"name":"amount","type":"uint256","internalType":"uint256"}],"outputs":[],"stateMutability":"nonpayable"},{"type":"function","name":"renounceRole","inputs":[{"name":"role","type":"bytes32","internalType":"bytes32"},{"name":"callerConfirmation","type":"address","internalType":"address"}],"outputs":[],"stateMutability":"nonpayable"},{"type":"function","name":"revokeRole","inputs":[{"name":"role","type":"bytes32","internalType":"bytes32"},{"name":"account","type":"address","internalType":"address"}],"outputs":[],"stateMutability":"nonpayable"},{"type":"function","name":"sendFeesToProtocolOwner","inputs":[],"outputs":[],"stateMutability":"nonpayable"},{"type":"function","name":"supportsInterface","inputs":[{"name":"interfaceId","type":"bytes4","internalType":"bytes4"}],"outputs":[{"name":"","type":"bool","internalType":"bool"}],"stateMutability":"view"},{"type":"event","name":"FeeCollected","inputs":[{"name":"user","type":"address","indexed":true,"internalType":"address"},{"name":"feeAmount","type":"uint256","indexed":true,"internalType":"uint256"}],"anonymous":false},{"type":"event","name":"RoleAdminChanged","inputs":[{"name":"role","type":"bytes32","indexed":true,"internalType":"bytes32"},{"name":"previousAdminRole","type":"bytes32","indexed":true,"internalType":"bytes32"},{"name":"newAdminRole","type":"bytes32","indexed":true,"internalType":"bytes32"}],"anonymous":false},{"type":"event","name":"RoleGranted","inputs":[{"name":"role","type":"bytes32","indexed":true,"internalType":"bytes32"},{"name":"account","type":"address","indexed":true,"internalType":"address"},{"name":"sender","type":"address","indexed":true,"internalType":"address"}],"anonymous":false},{"type":"event","name":"RoleRevoked","inputs":[{"name":"role","type":"bytes32","indexed":true,"internalType":"bytes32"},{"name":"account","type":"address","indexed":true,"internalType":"address"},{"name":"sender","type":"address","indexed":true,"internalType":"address"}],"anonymous":false},{"type":"event","name":"SharesBurned","inputs":[{"name":"user","type":"address","indexed":true,"internalType":"address"},{"name":"amount","type":"uint256","indexed":true,"internalType":"uint256"}],"anonymous":false},{"type":"event","name":"SharesMinted","inputs":[{"name":"user","type":"address","indexed":true,"internalType":"address"},{"name":"amount","type":"uint256","indexed":true,"internalType":"uint256"},{"name":"stablecoinIn","type":"uint256","indexed":true,"internalType":"uint256"}],"anonymous":false},{"type":"error","name":"AccessControlBadConfirmation","inputs":[]},{"type":"error","name":"AccessControlUnauthorizedAccount","inputs":[{"name":"account","type":"address","internalType":"address"},{"name":"neededRole","type":"bytes32","internalType":"bytes32"}]},{"type":"error","name":"AmountToSwapTooBig","inputs":[{"name":"amountToSwap","type":"uint256","internalType":"uint256"}]},{"type":"error","name":"InsufficientAllowance","inputs":[{"name":"token","type":"address","internalType":"address"}]},{"type":"error","name":"SharesToMintAmountTooBig","inputs":[{"name":"amountToMint","type":"uint256","internalType":"uint256"}]}],"bytecode":{"object":"0x610120806040523461025557611398803803809161001d828561032e565b8339810190610100818303126102555780516001600160401b0381116102555781019082601f83011215610255578151926001600160401b038411610302578360051b9260405194610072602086018761032e565b855260208501906020829582010192831161025557602001905b828210610316575050506100a260208201610351565b916100af60408301610351565b926100bc60608401610351565b6100c860808501610351565b916100d560a08601610351565b9360e060c08701519601519788151589036102555751906001600160401b0382116103025768010000000000000000821161030257600154826001558083106102be575b5060015f5260205f205f5b8381106102a1575050505060018060a01b0316610100528460e05260018060a01b031660018060a01b0319600354161760035560805260c05260045560018060a01b0316604051634d1b7c9960e11b8152602081600481855afa908115610261575f9161026c575b509060049260209260055560a05260405192838092638da5cb5b60e01b82525afa908115610261575f91610223575b50600780546001600160a01b0319166001600160a01b0392909216919091179055604051611032908161036682396080518161021a015260a051816101de015260c05181610347015260e0518150506101005181818160fa0152818161015e0152610c150152f35b90506020813d602011610259575b8161023e6020938361032e565b810103126102555761024f90610351565b5f6101bb565b5f80fd5b3d9150610231565b6040513d5f823e3d90fd5b9190506020823d602011610299575b816102886020938361032e565b81010312610255579051600461018c565b3d915061027b565b82516001600160a01b031681830155602090920191600101610124565b60015f527fb10e2d527612073b26eecdfd717e6a320cf44b4afac2b0732d9fcbe2b7fa0cf69081019083015b8181106102f75750610119565b5f81556001016102ea565b634e487b7160e01b5f52604160045260245ffd5b6020809161032384610351565b81520191019061008c565b601f909101601f19168101906001600160401b0382119082101761030257604052565b51906001600160a01b03821682036102555756fe6080806040526004361015610012575f80fd5b5f3560e01c90816301ffc9a714610d005750806305d7d94b14610bb5578063248a9ca314610b835780632f2ff15d14610b5457806336568abe14610b1e57806338f250ec14610aaa57806375696e7f14610a82578063853c637d14610a6f57806391d1485414610a34578063a217fddf14610a1a578063b1aa90a114610129578063b6f67312146100e55763d547741f146100ab575f80fd5b346100e1576100df6100bc36610d53565b906100da6100d5825f525f602052600160405f20015490565b610ebc565b610f7c565b005b5f80fd5b346100e1575f3660031901126100e1576040517f00000000000000000000000000000000000000000000000000000000000000006001600160a01b03168152602090f35b346100e15760203660031901126100e15760043580156109d557604051636eb1769f60e11b81523360048201523060248201527f00000000000000000000000000000000000000000000000000000000000000006001600160a01b03169190602081604481865afa80156105af5782915f916109a0575b501061098d576040516323b872dd60e01b8152336004820152306024820152604481018290526020816064815f875af180156105af57610970575b507f000000000000000000000000000000000000000000000000000000000000000061090c575b60408051630e7d0d9960e21b815260048101919091527f00000000000000000000000000000000000000000000000000000000000000006001600160a01b0316928161025060448201610db3565b600319828203016024830152602060025491828152019060025f527f405787fa12a823e0f2b7631cc41b3ba8828b3321ca811111fa75cd3aa3bb5ace905f5b8181106108b35750505090805f920381875afa9283156105af575f925f94610818575b50826006556102c360055482610e1c565b6008548181018091116105ba576008556040519080337f06c5efeff5c320943d265dc4e5f1af95ad523555ce0c1957e367dda5514572df5f80a382039182116105ba5784519060015482036107a45750909380519161032183610e04565b9261032f6040519485610d79565b80845261033e601f1991610e04565b013660208501377f00000000000000000000000000000000000000000000000000000000000000006001600160a01b03169465ffffffffffff4262015180810191821694911091905f5b8481106106ee575050505050505f90603c420191824211905b60015481101561063c576002548110156106285760025f52604051906003810260a0830167ffffffffffffffff8111848210176106145760409081527f405787fa12a823e0f2b7631cc41b3ba8828b3321ca811111fa75cd3aa3bb5ace8201546001600160a01b0390811685527f405787fa12a823e0f2b7631cc41b3ba8828b3321ca811111fa75cd3aa3bb5acf830154808216602087015260a081901c62ffffff169286019290925260b89190911c60020b60608501527f405787fa12a823e0f2b7631cc41b3ba8828b3321ca811111fa75cd3aa3bb5ad09091015416608083015261048e8185610e3a565b5189602061049b84610e4e565b9054604051637f799b7160e11b815260039290921b1c6001600160a01b0316600482015291829060c49082906104d4602483018a610e66565b5afa80156105af5782905f906105df575b6104ef9250610ea9565b906009820291808304600914901517156105ba576001600160801b0381116105ce57846105ba576001600160801b039182600a9261053e60405197630abff6dd60e11b89526004890190610e66565b1660a4860152041660c48301528460e4830152600161010483015285610124830152602082610144815f8b5af19182156105af57600192610581575b50016103a1565b6105a19060203d81116105a8575b6105998183610d79565b810190610df5565b508961057a565b503d61058f565b6040513d5f823e3d90fd5b634e487b7160e01b5f52601160045260245ffd5b628af7f560e11b5f5260045260245ffd5b50506020813d821161060c575b816105f960209383610d79565b810103126100e157816104ef91516104e5565b3d91506105ec565b634e487b7160e01b5f52604160045260245ffd5b634e487b7160e01b5f52603260045260245ffd5b8661064960045482610e1c565b67ffffffffffffffff81116106dc576003546001600160a01b0316803b156100e1575f80916044604051809481936302893c5b60e41b835233600484015267ffffffffffffffff881660248401525af180156105af576106cc575b50337fd5103f333769455df788908e17b0f6f83838ebeae2cd1ed6f23ec20dad88c9a35f80a4005b5f6106d691610d79565b826106a4565b63dcba2f6b60e01b5f5260045260245ffd5b806107108461070b61070488959b9e9b87610e3a565b518b610ea9565b610e1c565b61071a828d610e3a565b5261072481610e4e565b90546001600160a01b0360039290921b1c811690610742838e610e3a565b5116926105ba578a3b156100e1578a9260645f9283604051968794859363267b14bd60e01b8552600485015260248401528c60448401525af19182156105af57600192610794575b5001989598610388565b5f61079e91610d79565b8c61078a565b62461bcd60e51b815260206004820152604360248201527f446973726570616e6379206265747765656e206e756d626572206f66206d617260448201527f6b6574206361707320616e64206e756d626572206f6620696e64657820746f6b606482015262656e7360e81b608482015260a490fd5b925092503d805f843e61082b8184610d79565b8201916040818403126100e15780519060208101519067ffffffffffffffff82116100e157019280601f850112156100e157835161086881610e04565b946108766040519687610d79565b81865260208087019260051b8201019283116100e157602001905b8282106108a3575050509192856102b2565b8151815260209182019101610891565b82546001600160a01b039081168552600180850154808316602088015260a081811c62ffffff16604089015260b89190911c600290810b606089015286015490921660808701528896509401936003909301920161028f565b60405163040b850f60e31b8152306004820152602481018290526020816044815f875af180156105af57610941575b50610202565b6109629060203d602011610969575b61095a8183610d79565b810190610d9b565b508261093b565b503d610950565b6109889060203d6020116109695761095a8183610d79565b6101db565b50632fcad63b60e21b5f5260045260245ffd5b9150506020813d6020116109cd575b816109bc60209383610d79565b810103126100e157819051846101a0565b3d91506109af565b60405162461bcd60e51b815260206004820152601d60248201527f416d6f756e74206d7573742062652067726561746572207468616e20300000006044820152606490fd5b346100e1575f3660031901126100e15760206040515f8152f35b346100e157610a4236610d53565b905f525f60205260405f209060018060a01b03165f52602052602060ff60405f2054166040519015158152f35b346100e15760203660031901126100e157005b346100e1575f3660031901126100e1576003546040516001600160a01b039091168152602090f35b346100e1575f3660031901126100e157604051610ad181610aca81610db3565b0382610d79565b6040518091602082016020835281518091526020604084019201905f5b818110610afc575050500390f35b82516001600160a01b0316845285945060209384019390920191600101610aee565b346100e157610b2c36610d53565b336001600160a01b03821603610b45576100df91610f7c565b63334bd91960e11b5f5260045ffd5b346100e1576100df610b6536610d53565b90610b7e6100d5825f525f602052600160405f20015490565b610ef4565b346100e15760203660031901126100e1576020610bad6004355f525f602052600160405f20015490565b604051908152f35b346100e1575f3660031901126100e1576007546001600160a01b031633819003610ca457600854908115610c6d5760405163a9059cbb60e01b81526001600160a01b0390911660048201526024810191909152602081806044810103815f7f00000000000000000000000000000000000000000000000000000000000000006001600160a01b03165af180156105af57610c50575b5f600855005b610c689060203d6020116109695761095a8183610d79565b610c4a565b60405162461bcd60e51b815260206004820152600f60248201526e139bc81999595cc81d1bc81cd95b99608a1b6044820152606490fd5b60405162461bcd60e51b815260206004820152602e60248201527f4f6e6c79207468652070726f746f636f6c206f776e65722063616e2063616c6c60448201526d103a3434b990333ab731ba34b7b760911b6064820152608490fd5b346100e15760203660031901126100e1576004359063ffffffff60e01b82168092036100e157602091637965db0b60e01b8114908115610d42575b5015158152f35b6301ffc9a760e01b14905083610d3b565b60409060031901126100e157600435906024356001600160a01b03811681036100e15790565b90601f8019910116810190811067ffffffffffffffff82111761061457604052565b908160209103126100e1575180151581036100e15790565b602060015491828152019060015f5260205f20905f5b818110610dd65750505090565b82546001600160a01b0316845260209093019260019283019201610dc9565b908160209103126100e1575190565b67ffffffffffffffff81116106145760051b60200190565b8115610e26570490565b634e487b7160e01b5f52601260045260245ffd5b80518210156106285760209160051b010190565b6001548110156106285760015f5260205f2001905f90565b80516001600160a01b03908116835260208083015182169084015260408083015162ffffff169084015260608083015160020b9084015260809182015116910152565b818102929181159184041417156105ba57565b5f8181526020818152604080832033845290915290205460ff1615610ede5750565b63e2517d3f60e01b5f523360045260245260445ffd5b5f818152602081815260408083206001600160a01b038616845290915290205460ff16610f76575f818152602081815260408083206001600160a01b0395909516808452949091528120805460ff19166001179055339291907f2f8788117e7eff1d82e926ec794901d17c78024a50270940304540a733656f0d9080a4600190565b50505f90565b5f818152602081815260408083206001600160a01b038616845290915290205460ff1615610f76575f818152602081815260408083206001600160a01b0395909516808452949091528120805460ff19169055339291907ff6391f5c32d9c69d2a47ea670b442974b53935d1edc7fd64eb21e047a839171b9080a460019056fea26469706673582212203a80aacc4be934d41fb6333913adf500b07a428e7193e3dafd4a4af1b38599d864736f6c634300081a0033","linkReferences":{}},"methodIdentifiers":{"DEFAULT_ADMIN_ROLE()":"a217fddf","burnShares(uint256)":"853c637d","getIndexFundToken()":"75696e7f","getIndexTokens()":"38f250ec","getRoleAdmin(bytes32)":"248a9ca3","getStablecoin()":"b6f67312","grantRole(bytes32,address)":"2f2ff15d","hasRole(bytes32,address)":"91d14854","mintShares(uint256)":"b1aa90a1","renounceRole(bytes32,address)":"36568abe","revokeRole(bytes32,address)":"d547741f","sendFeesToProtocolOwner()":"05d7d94b","supportsInterface(bytes4)":"01ffc9a7"},"id":1}