{
  "abi": [
    {
      "type": "constructor",
      "inputs": [
        {
          "name": "name_",
          "type": "string",
          "internalType": "string"
        },
        {
          "name": "symbol_",
          "type": "string",
          "internalType": "string"
        },
        {
          "name": "erc20_",
          "type": "address",
          "internalType": "address"
        },
        {
          "name": "maxDecryptionDelay_",
          "type": "uint256",
          "internalType": "uint256"
        }
      ],
      "stateMutability": "nonpayable"
    },
    {
      "type": "function",
      "name": "ERC20_TOKEN",
      "inputs": [],
      "outputs": [
        {
          "name": "",
          "type": "address",
          "internalType": "contract IERC20Metadata"
        }
      ],
      "stateMutability": "view"
    },
    {
      "type": "function",
      "name": "allowance",
      "inputs": [
        {
          "name": "owner",
          "type": "address",
          "internalType": "address"
        },
        {
          "name": "spender",
          "type": "address",
          "internalType": "address"
        }
      ],
      "outputs": [
        {
          "name": "",
          "type": "uint256",
          "internalType": "euint64"
        }
      ],
      "stateMutability": "view"
    },
    {
      "type": "function",
      "name": "approve",
      "inputs": [
        {
          "name": "spender",
          "type": "address",
          "internalType": "address"
        },
        {
          "name": "amount",
          "type": "uint256",
          "internalType": "euint64"
        }
      ],
      "outputs": [
        {
          "name": "",
          "type": "bool",
          "internalType": "bool"
        }
      ],
      "stateMutability": "nonpayable"
    },
    {
      "type": "function",
      "name": "approve",
      "inputs": [
        {
          "name": "spender",
          "type": "address",
          "internalType": "address"
        },
        {
          "name": "encryptedAmount",
          "type": "bytes32",
          "internalType": "einput"
        },
        {
          "name": "inputProof",
          "type": "bytes",
          "internalType": "bytes"
        }
      ],
      "outputs": [
        {
          "name": "",
          "type": "bool",
          "internalType": "bool"
        }
      ],
      "stateMutability": "nonpayable"
    },
    {
      "type": "function",
      "name": "balanceOf",
      "inputs": [
        {
          "name": "account",
          "type": "address",
          "internalType": "address"
        }
      ],
      "outputs": [
        {
          "name": "",
          "type": "uint256",
          "internalType": "euint64"
        }
      ],
      "stateMutability": "view"
    },
    {
      "type": "function",
      "name": "callbackUnwrap",
      "inputs": [
        {
          "name": "requestId",
          "type": "uint256",
          "internalType": "uint256"
        },
        {
          "name": "canUnwrap",
          "type": "bool",
          "internalType": "bool"
        }
      ],
      "outputs": [],
      "stateMutability": "nonpayable"
    },
    {
      "type": "function",
      "name": "decimals",
      "inputs": [],
      "outputs": [
        {
          "name": "",
          "type": "uint8",
          "internalType": "uint8"
        }
      ],
      "stateMutability": "view"
    },
    {
      "type": "function",
      "name": "errorGetCounter",
      "inputs": [],
      "outputs": [
        {
          "name": "countErrors",
          "type": "uint256",
          "internalType": "uint256"
        }
      ],
      "stateMutability": "view"
    },
    {
      "type": "function",
      "name": "getErrorCodeForTransferId",
      "inputs": [
        {
          "name": "transferId",
          "type": "uint256",
          "internalType": "uint256"
        }
      ],
      "outputs": [
        {
          "name": "errorCode",
          "type": "uint8",
          "internalType": "uint8"
        }
      ],
      "stateMutability": "view"
    },
    {
      "type": "function",
      "name": "isAccountRestricted",
      "inputs": [
        {
          "name": "account",
          "type": "address",
          "internalType": "address"
        }
      ],
      "outputs": [
        {
          "name": "isRestricted",
          "type": "bool",
          "internalType": "bool"
        }
      ],
      "stateMutability": "view"
    },
    {
      "type": "function",
      "name": "name",
      "inputs": [],
      "outputs": [
        {
          "name": "",
          "type": "string",
          "internalType": "string"
        }
      ],
      "stateMutability": "view"
    },
    {
      "type": "function",
      "name": "symbol",
      "inputs": [],
      "outputs": [
        {
          "name": "",
          "type": "string",
          "internalType": "string"
        }
      ],
      "stateMutability": "view"
    },
    {
      "type": "function",
      "name": "totalSupply",
      "inputs": [],
      "outputs": [
        {
          "name": "",
          "type": "uint64",
          "internalType": "uint64"
        }
      ],
      "stateMutability": "view"
    },
    {
      "type": "function",
      "name": "transfer",
      "inputs": [
        {
          "name": "to",
          "type": "address",
          "internalType": "address"
        },
        {
          "name": "encryptedAmount",
          "type": "bytes32",
          "internalType": "einput"
        },
        {
          "name": "inputProof",
          "type": "bytes",
          "internalType": "bytes"
        }
      ],
      "outputs": [
        {
          "name": "",
          "type": "bool",
          "internalType": "bool"
        }
      ],
      "stateMutability": "nonpayable"
    },
    {
      "type": "function",
      "name": "transfer",
      "inputs": [
        {
          "name": "to",
          "type": "address",
          "internalType": "address"
        },
        {
          "name": "amount",
          "type": "uint256",
          "internalType": "euint64"
        }
      ],
      "outputs": [
        {
          "name": "",
          "type": "bool",
          "internalType": "bool"
        }
      ],
      "stateMutability": "nonpayable"
    },
    {
      "type": "function",
      "name": "transferCallback",
      "inputs": [
        {
          "name": "",
          "type": "uint256",
          "internalType": "uint256"
        },
        {
          "name": "decryptedErrorCode",
          "type": "uint8",
          "internalType": "uint8"
        }
      ],
      "outputs": [],
      "stateMutability": "nonpayable"
    },
    {
      "type": "function",
      "name": "transferFrom",
      "inputs": [
        {
          "name": "from",
          "type": "address",
          "internalType": "address"
        },
        {
          "name": "to",
          "type": "address",
          "internalType": "address"
        },
        {
          "name": "amount",
          "type": "uint256",
          "internalType": "euint64"
        }
      ],
      "outputs": [
        {
          "name": "",
          "type": "bool",
          "internalType": "bool"
        }
      ],
      "stateMutability": "nonpayable"
    },
    {
      "type": "function",
      "name": "transferFrom",
      "inputs": [
        {
          "name": "from",
          "type": "address",
          "internalType": "address"
        },
        {
          "name": "to",
          "type": "address",
          "internalType": "address"
        },
        {
          "name": "encryptedAmount",
          "type": "bytes32",
          "internalType": "einput"
        },
        {
          "name": "inputProof",
          "type": "bytes",
          "internalType": "bytes"
        }
      ],
      "outputs": [
        {
          "name": "",
          "type": "bool",
          "internalType": "bool"
        }
      ],
      "stateMutability": "nonpayable"
    },
    {
      "type": "function",
      "name": "unwrap",
      "inputs": [
        {
          "name": "amount",
          "type": "uint64",
          "internalType": "uint64"
        }
      ],
      "outputs": [],
      "stateMutability": "nonpayable"
    },
    {
      "type": "function",
      "name": "unwrapRequests",
      "inputs": [
        {
          "name": "requestId",
          "type": "uint256",
          "internalType": "uint256"
        }
      ],
      "outputs": [
        {
          "name": "account",
          "type": "address",
          "internalType": "address"
        },
        {
          "name": "amount",
          "type": "uint64",
          "internalType": "uint64"
        }
      ],
      "stateMutability": "view"
    },
    {
      "type": "function",
      "name": "wrap",
      "inputs": [
        {
          "name": "amount",
          "type": "uint256",
          "internalType": "uint256"
        }
      ],
      "outputs": [],
      "stateMutability": "nonpayable"
    },
    {
      "type": "event",
      "name": "Approval",
      "inputs": [
        {
          "name": "owner",
          "type": "address",
          "indexed": true,
          "internalType": "address"
        },
        {
          "name": "spender",
          "type": "address",
          "indexed": true,
          "internalType": "address"
        },
        {
          "name": "placeholder",
          "type": "uint256",
          "indexed": false,
          "internalType": "uint256"
        }
      ],
      "anonymous": false
    },
    {
      "type": "event",
      "name": "Transfer",
      "inputs": [
        {
          "name": "from",
          "type": "address",
          "indexed": true,
          "internalType": "address"
        },
        {
          "name": "to",
          "type": "address",
          "indexed": true,
          "internalType": "address"
        },
        {
          "name": "transferId",
          "type": "uint256",
          "indexed": false,
          "internalType": "uint256"
        }
      ],
      "anonymous": false
    },
    {
      "type": "event",
      "name": "Unwrap",
      "inputs": [
        {
          "name": "account",
          "type": "address",
          "indexed": true,
          "internalType": "address"
        },
        {
          "name": "amount",
          "type": "uint64",
          "indexed": false,
          "internalType": "uint64"
        }
      ],
      "anonymous": false
    },
    {
      "type": "event",
      "name": "UnwrapFailNotEnoughBalance",
      "inputs": [
        {
          "name": "account",
          "type": "address",
          "indexed": false,
          "internalType": "address"
        },
        {
          "name": "amount",
          "type": "uint64",
          "indexed": false,
          "internalType": "uint64"
        }
      ],
      "anonymous": false
    },
    {
      "type": "event",
      "name": "UnwrapFailTransferFail",
      "inputs": [
        {
          "name": "account",
          "type": "address",
          "indexed": false,
          "internalType": "address"
        },
        {
          "name": "amount",
          "type": "uint64",
          "indexed": false,
          "internalType": "uint64"
        }
      ],
      "anonymous": false
    },
    {
      "type": "event",
      "name": "Wrap",
      "inputs": [
        {
          "name": "account",
          "type": "address",
          "indexed": true,
          "internalType": "address"
        },
        {
          "name": "amount",
          "type": "uint64",
          "indexed": false,
          "internalType": "uint64"
        }
      ],
      "anonymous": false
    },
    {
      "type": "error",
      "name": "AmountTooHigh",
      "inputs": []
    },
    {
      "type": "error",
      "name": "CannotTransferOrUnwrap",
      "inputs": []
    },
    {
      "type": "error",
      "name": "ERC20InsufficientAllowance",
      "inputs": [
        {
          "name": "spender",
          "type": "address",
          "internalType": "address"
        },
        {
          "name": "allowance",
          "type": "uint256",
          "internalType": "uint256"
        },
        {
          "name": "needed",
          "type": "uint256",
          "internalType": "uint256"
        }
      ]
    },
    {
      "type": "error",
      "name": "ERC20InsufficientBalance",
      "inputs": [
        {
          "name": "sender",
          "type": "address",
          "internalType": "address"
        },
        {
          "name": "balance",
          "type": "uint256",
          "internalType": "uint256"
        },
        {
          "name": "needed",
          "type": "uint256",
          "internalType": "uint256"
        }
      ]
    },
    {
      "type": "error",
      "name": "ERC20InvalidApprover",
      "inputs": [
        {
          "name": "approver",
          "type": "address",
          "internalType": "address"
        }
      ]
    },
    {
      "type": "error",
      "name": "ERC20InvalidReceiver",
      "inputs": [
        {
          "name": "receiver",
          "type": "address",
          "internalType": "address"
        }
      ]
    },
    {
      "type": "error",
      "name": "ERC20InvalidSender",
      "inputs": [
        {
          "name": "sender",
          "type": "address",
          "internalType": "address"
        }
      ]
    },
    {
      "type": "error",
      "name": "ERC20InvalidSpender",
      "inputs": [
        {
          "name": "spender",
          "type": "address",
          "internalType": "address"
        }
      ]
    },
    {
      "type": "error",
      "name": "MaxDecryptionDelayTooHigh",
      "inputs": []
    },
    {
      "type": "error",
      "name": "ReentrancyGuardReentrantCall",
      "inputs": []
    },
    {
      "type": "error",
      "name": "SafeERC20FailedOperation",
      "inputs": [
        {
          "name": "token",
          "type": "address",
          "internalType": "address"
        }
      ]
    },
    {
      "type": "error",
      "name": "TFHESenderNotAllowed",
      "inputs": []
    }
  ],
  "bytecode": {
    "object": "0x60a060405234610506576124948038038061001981610529565b9283398101906080818303126105065780516001600160401b038111610506578261004591830161054e565b602082015190926001600160401b0382116105065761006591830161054e565b604082015190916001600160a01b03821691829003610506576060015183519091906001600160401b03811161041757600154600181811c911680156104fc575b60208210146103f957601f8111610499575b50602094601f8211600114610436579481929394955f9261042b575b50508160011b915f199060031b1c1916176001555b8251926001600160401b03841161041757600254600181811c9116801561040d575b60208210146103f957601f8111610396575b50602090601f851160011461032d576201518094915f9183610322575b50508160011b915f199060031b1c1916176002555b5f606061015a61050a565b8281528260208201528260408201520152739d6891a6240d6130c54ae243d8005063d05fe14b606061018a61050a565b73fee8407e2f5e3ee68ad77cae98c434e637f516e580825273687408ab54661ba0b4aef3a44156c616c6955e076020830181905273fb03be574d14c256d56f09a198b586bdfc0a9de26040840181905293909201939093527fed8d60e34876f751cc8b014c560745351147d9de11b9347c854e881b128ea60080546001600160a01b031990811690941790557fed8d60e34876f751cc8b014c560745351147d9de11b9347c854e881b128ea6018054841690911790557fed8d60e34876f751cc8b014c560745351147d9de11b9347c854e881b128ea6028054831690911790557fed8d60e34876f751cc8b014c560745351147d9de11b9347c854e881b128ea60380548216739d6891a6240d6130c54ae243d8005063d05fe14b1790557f93ab6e17f2c461cce6ea5d4ec117e51dda77a64affc2b2c05f8cd440def0e70080549091167333347831500f1e73f0cccbb95c9f86b94d7b11231790556080521161031357604051611ef490816105a0823960805181818161011a0152818161018d01526108d30152f35b63049587e360e41b5f5260045ffd5b015190505f8061013a565b90601f1985169160025f52815f20925f5b81811061037e575091600193918762015180989410610366575b505050811b0160025561014f565b01515f1960f88460031b161c191690555f8080610358565b9293602060018192878601518155019501930161033e565b60025f527f405787fa12a823e0f2b7631cc41b3ba8828b3321ca811111fa75cd3aa3bb5ace601f860160051c810191602087106103ef575b601f0160051c01905b8181106103e4575061011d565b5f81556001016103d7565b90915081906103ce565b634e487b7160e01b5f52602260045260245ffd5b90607f169061010b565b634e487b7160e01b5f52604160045260245ffd5b015190505f806100d4565b601f1982169560015f52805f20915f5b88811061048157508360019596979810610469575b505050811b016001556100e9565b01515f1960f88460031b161c191690555f808061045b565b91926020600181928685015181550194019201610446565b60015f527fb10e2d527612073b26eecdfd717e6a320cf44b4afac2b0732d9fcbe2b7fa0cf6601f830160051c810191602084106104f2575b601f0160051c01905b8181106104e757506100b8565b5f81556001016104da565b90915081906104d1565b90607f16906100a6565b5f80fd5b60405190608082016001600160401b0381118382101761041757604052565b6040519190601f01601f191682016001600160401b0381118382101761041757604052565b81601f82011215610506578051906001600160401b0382116104175761057d601f8301601f1916602001610529565b928284526020838301011161050657815f9260208093018386015e830101529056fe6080806040526004361015610012575f80fd5b5f905f3560e01c90816306fdde0314610fca57508063095ea7b314610fa357806318160ddd14610f7e5780632207ea6314610f1657806323b872dd14610ee7578063313ce56714610ecc57806367a74a2814610eaf57806370a0823114610e775780637b7e0a5a14610e5a57806395d89b4114610d525780639a09435214610cf2578063a5184baf14610cc5578063a9059cbb14610c94578063b32c100114610c5a578063b820e6ce146107f1578063d99c2a72146107a1578063dc412e83146104cc578063dd62ed3e14610479578063e6e095051461043a578063ea598cb01461014c5763efc4c63114610105575f80fd5b346101495780600319360112610149576040517f00000000000000000000000000000000000000000000000000000000000000006001600160a01b03168152602090f35b80fd5b5034610149576020366003190112610149576040516323b872dd60e01b602082810191825233602484015230604484015260043560648085018290528452927f00000000000000000000000000000000000000000000000000000000000000006001600160a01b03169285916101c3608482611174565b519082855af11561042f5782513d6104265750803b155b6104145760206004916040519283809263313ce56760e01b82525afa9081156103a557610217916102129185916103e5575b50611603565b611616565b9081156103d157046001600160401b0381116103c2576001600160401b0316338252600360205281604081205480156103b0575b5f80516020611e9f8339815191525460405163f953e42760e01b8152600481019290925260248201849052600160f81b6044830152909160209183916064918391906001600160a01b03165af180156103a557839061036d575b6102c9915033845260036020528060408520556102c23082611cf4565b3390611cf4565b6040515f198152827fddf252ad1be2c89b69c2b068fc378daa952ba7f163c4a11628f55a4df523b3ef60203393a38154816001600160401b038216016001600160401b038111610359576001600160401b0316906001600160401b0319161782556040519081527f20925aeb4fb032b41fb6819a065d482a8e6c281370fc218281522cc25182536b60203392a280f35b634e487b7160e01b84526011600452602484fd5b506020813d60201161039d575b8161038760209383611174565b81010312610399576102c990516102a5565b5f80fd5b3d915061037a565b6040513d85823e3d90fd5b5060206103bb611d5c565b905061024b565b63fd7850ad60e01b8252600482fd5b634e487b7160e01b83526012600452602483fd5b610407915060203d60201161040d575b6103ff8183611174565b8101906115ea565b5f61020c565b503d6103f5565b635274afe760e01b8352600452602482fd5b600114156101da565b6040513d84823e3d90fd5b50346101495760203660031901126101495760209060ff906040906001600160a01b036104656110a6565b168152601184522054166040519015158152f35b50346101495760403660031901126101495760406104956110a6565b9161049e6110bc565b9260018060a01b031681526004602052209060018060a01b03165f52602052602060405f2054604051908152f35b5034610399576020366003190112610399576004356001600160401b038116809103610399575f906104fd33611bde565b338252601160205260408220600160ff1982541617905533825260036020526040822054801561078f575b5f80516020611e9f8339815191525460405163052896f160e01b8152600481019290925260248201839052600160f81b6044830152909260209184916064918391906001600160a01b03165af1918215610784575f92610750575b5060408051926105938285611174565b60018452601f1982013660208601376105ab84611549565b52606442019283421161073c575f80516020611e5f833981519152546001600160a01b0316803b15610399575f8351809263155f840160e21b8252602060048301528183816105fd6024820189611ab4565b03925af180156107325761071b575b505f80516020611e7f833981519152548251634c0d927760e01b815260a060048201529460209286926001600160a01b0316918391899183916106539060a4840190611ab4565b90635c10736760e11b6024840152836044840152606483015282608483015203925af19283156107115784936106dd575b5080519261069184611145565b33845260208085019384529085526012905283209151825491516001600160e01b03199092166001600160a01b03919091161760a09190911b67ffffffffffffffff60a01b1617905580f35b9092506020813d602011610709575b816106f960209383611174565b810103126103995751915f610684565b3d91506106ec565b81513d86823e3d90fd5b6107289195505f90611174565b5f9361065361060c565b83513d5f823e3d90fd5b634e487b7160e01b5f52601160045260245ffd5b9091506020813d60201161077c575b8161076c60209383611174565b810103126103995751905f610583565b3d915061075f565b6040513d5f823e3d90fd5b50602061079a611d5c565b9050610528565b34610399576020366003190112610399576004355f908152601260209081526040918290205482516001600160a01b038216815260a09190911c6001600160401b031691810191909152f35b0390f35b34610399576040366003190112610399576024356004358115158203610399577f9b779b17422d0df92223018b32b4d1fa46e071723d6817e2486d003becc55f005c610c4b5760017f9b779b17422d0df92223018b32b4d1fa46e071723d6817e2486d003becc55f005d5f80516020611e7f833981519152546001600160a01b0316330361039957805f52601260205260405f20916040519261089384611145565b546001600160a01b03811680855260a09190911c6001600160401b0316602085018181529290919015610bff575050805160405163313ce56760e01b81527f00000000000000000000000000000000000000000000000000000000000000006001600160a01b0316916001600160401b031690602081600481865afa9081156107845761092a91610212915f91610be05750611603565b9081810291818304149015171561073c57602090604460018060a01b038751165f604051958694859363a9059cbb60e01b8552600485015260248401525af19081610bb3575b50610a0d5782519051604080516001600160a01b0390931683526001600160401b0390911660208301527f936799e3a22b0bdb5ef05df98e796a4835cff5297075fdb001414e53f5e302a791a15b5f5260126020525f604081205560018060a01b039051165f52601160205260405f2060ff1981541690555f7f9b779b17422d0df92223018b32b4d1fa46e071723d6817e2486d003becc55f005d005b825181516001600160a01b039091165f81815260036020526040902054916001600160401b03168215610b9f575b5f80516020611e9f83398151915254604051638c14cc2160e01b815260048101949094526024840191909152600160f81b6044840152602090839060649082905f906001600160a01b03165af1918215610784575f92610b69575b50610abc81835f94508185526003602052806040862055610ab73082611cf4565b611cf4565b7fddf252ad1be2c89b69c2b068fc378daa952ba7f163c4a11628f55a4df523b3ef602060405184198152a36001600160401b038151165f54906001600160401b038216036001600160401b03811161073c576001600160401b0316906001600160401b031916175f557f0bbd89dc609b4c985f78b075c0f9271cf66dd34e7e08bb2437a103a6ba9a8db760206001600160401b0360018060a01b03865116935116604051908152a26109be565b91506020823d602011610b97575b81610b8460209383611174565b8101031261039957905190610abc610a96565b3d9150610b77565b91506020610bab611d5c565b929050610a3b565b610bd49060203d602011610bd9575b610bcc8183611174565b810190611627565b610970565b503d610bc2565b610bf9915060203d60201161040d576103ff8183611174565b8861020c565b604080516001600160a01b039290921682526001600160401b039290921660208201527f48a802dbfec664d2280b2ebd5e5ed95ebbc1c96453297d67cbf0c721884fac9e9250a16109be565b633ee5aeb560e01b5f5260045ffd5b3461039957610c88610c7c610c82610c71366110ff565b949192943691611504565b90611901565b90611195565b50602060405160018152f35b34610399576040366003190112610399576020610cbb610cb26110a6565b6024359061156a565b6040519015158152f35b34610399576020366003190112610399576004355f52600f602052602060ff60405f205416604051908152f35b3461039957608036600319011261039957610d0b6110a6565b610d136110bc565b90606435916001600160401b03831161039957610d4c610d44610d3d610c889536906004016110d2565b3691611504565b604435611901565b916111ea565b34610399575f366003190112610399576040515f6002548060011c90600181168015610e50575b602083108114610e3c57828552908115610e185750600114610dba575b6107ed83610da681850382611174565b604051918291602083526020830190611082565b91905060025f527f405787fa12a823e0f2b7631cc41b3ba8828b3321ca811111fa75cd3aa3bb5ace915f905b808210610dfe57509091508101602001610da6610d96565b919260018160209254838588010152019101909291610de6565b60ff191660208086019190915291151560051b84019091019150610da69050610d96565b634e487b7160e01b5f52602260045260245ffd5b91607f1691610d79565b3461039957610c88610c7c610e71610c71366110ff565b9061156a565b34610399576020366003190112610399576001600160a01b03610e986110a6565b165f526003602052602060405f2054604051908152f35b34610399575f366003190112610399576020601054604051908152f35b34610399575f36600319011261039957602060405160068152f35b34610399576060366003190112610399576020610cbb610f056110a6565b610f0d6110bc565b604435916111ea565b346103995760403660031901126103995760243560ff8116809103610399575f80516020611e7f833981519152546001600160a01b03163303610399576010545f19811461073c57600181016010555f52600f60205260405f209060ff198254161790555f80f35b34610399575f3660031901126103995760206001600160401b035f5416604051908152f35b34610399576040366003190112610399576020610cbb610fc16110a6565b60243590611195565b34610399575f366003190112610399575f6001548060011c90600181168015611078575b602083108114610e3c57828552908115610e18575060011461101a576107ed83610da681850382611174565b91905060015f527fb10e2d527612073b26eecdfd717e6a320cf44b4afac2b0732d9fcbe2b7fa0cf6915f905b80821061105e57509091508101602001610da6610d96565b919260018160209254838588010152019101909291611046565b91607f1691610fee565b805180835260209291819084018484015e5f828201840152601f01601f1916010190565b600435906001600160a01b038216820361039957565b602435906001600160a01b038216820361039957565b9181601f84011215610399578235916001600160401b038311610399576020838186019501011161039957565b6060600319820112610399576004356001600160a01b0381168103610399579160243591604435906001600160401b03821161039957611141916004016110d2565b9091565b604081019081106001600160401b0382111761116057604052565b634e487b7160e01b5f52604160045260245ffd5b90601f801991011681019081106001600160401b0382111761116057604052565b906111aa906111a38161163f565b82336116c2565b6040515f1981526001600160a01b039091169033907f8c5be1e5ebec7d5bd14f71427d1e84f3dd0314c0f7b2291e5b200ac8c7c3b92590602090a3600190565b916111f48161163f565b6001600160a01b0383165f818152600460209081526040808320338452909152902054939092906112258584611a01565b935f61122f611db2565b5f80516020611e9f83398151915254604051631ce2e8d760e31b815260026004820152600160f91b60248201529260209184916044918391906001600160a01b03165af1908115610784575f916114ce575b61128c925087611ca2565b505f5260036020526112a260405f205484611a01565b5f80516020611e9f833981519152546040516309c00ffd60e11b81526004810183905290602090829060249082905f906001600160a01b03165af1908115610784575f9161149b575b505f80516020611e9f83398151915254604051630ccd46b160e31b81526004810192909252602482018790525f6044830181905260209183916064918391906001600160a01b03165af18015610784575f90611467575b61135d915061134f611e08565b611357611db2565b91611ca2565b60409586519161136d8884611174565b60018352601f1988013660208501378061138684611549565b52606442019081421161073c576113a26113ad92602095611ae7565b506102c28682611cf4565b606460018060a01b035f80516020611e9f8339815191525416935f89519586948593630ccd46b160e31b8552600485015260248401528160448401525af194851561145e57505f94611426575b5061141c6114158661140f8661142199611c0d565b87611ca2565b33836116c2565b61173f565b600190565b9493506020853d602011611456575b8161144260209383611174565b81010312610399579351929361141c6113fa565b3d9150611435565b513d5f823e3d90fd5b506020813d602011611493575b8161148160209383611174565b810103126103995761135d9051611342565b3d9150611474565b90506020813d6020116114c6575b816114b660209383611174565b81010312610399575160206112eb565b3d91506114a9565b90506020823d6020116114fc575b816114e960209383611174565b810103126103995761128c915190611281565b3d91506114dc565b9291926001600160401b038211611160576040519161152d601f8201601f191660200184611174565b829481845281830111610399578281602093845f960137010152565b8051156115565760200190565b634e487b7160e01b5f52603260045260245ffd5b906115748161163f565b335f52600360205261158a60405f205482611a01565b906115a5611596611db2565b61159e611e08565b9084611ca2565b92604051936115b5604086611174565b60018552602036818701376115c985611549565b52606442019384421161073c57611421946115e391611ae7565b503361173f565b90816020910312610399575160ff811681036103995790565b60ff6005199116019060ff821161073c57565b60ff16604d811161073c57600a0a90565b90816020910312610399575180151581036103995790565b5f80516020611e5f83398151915254604051632fd514cd60e11b81526004810192909252336024830152602090829060449082906001600160a01b03165afa908115610784575f916116a3575b501561169457565b632fa38b3f60e01b5f5260045ffd5b6116bc915060203d602011610bd957610bcc8183611174565b5f61168c565b6001600160a01b038116939290841561172c576001600160a01b03831694851561171957906117179495610ab7925f52600460205260405f20905f526020528260405f20556117113084611cf4565b82611cf4565b565b85634a1406b160e11b5f5260045260245ffd5b8463e602df0560e01b5f5260045260245ffd5b92919261174b81611bde565b6001600160a01b0381169283156118ee576001600160a01b0383169485156118db579061177a91611357611d5c565b91845f5260036020525f602060408220548581156118cb575b86156118bd575b5f80516020611e9f8339815191525460405163f953e42760e01b8152600480820194909452848101909301919091526001600160f81b0319841660448301529092839160649183916001600160a01b03165af1908115610784575f91611887575b5092611822611834928561184c9650885f5260036020528060405f2055610ab73082611cf4565b845f52600360205260405f2054611c0d565b835f5260036020528060405f2055610ab73082611cf4565b6010545f19810190811161073c5760207fddf252ad1be2c89b69c2b068fc378daa952ba7f163c4a11628f55a4df523b3ef91604051908152a3565b9390506020843d6020116118b5575b816118a360209383611174565b810103126103995792516118226117fb565b3d9150611896565b506118c6611d5c565b61179a565b90506118d5611d5c565b90611793565b8563ec442f0560e01b5f5260045260245ffd5b83634b637e8f60e11b5f5260045260245ffd5b6119509160209160018060a01b035f80516020611e9f8339815191525416905f6040518096819582946302e817ff60e41b84526004840152336024840152608060448401526084830190611082565b600560f81b606483015203925af1908115610784575f916119cf575b505f80516020611e5f833981519152546001600160a01b0316803b15610399576040516346ce4e4960e11b815260048101839052336024820152905f908290604490829084905af18015610784576119c2575090565b5f6119cc91611174565b90565b90506020813d6020116119f9575b816119ea60209383611174565b8101031261039957515f61196c565b3d91506119dd565b908115611aa4575b8015611a92575b602090606460018060a01b035f80516020611e9f8339815191525416935f60405195869485936334a6d7b960e11b8552600485015260248401528160448401525af1908115610784575f91611a63575090565b90506020813d602011611a8a575b81611a7e60209383611174565b81010312610399575190565b3d9150611a71565b506020611a9d611d5c565b9050611a10565b9050611aae611d5c565b90611a09565b90602080835192838152019201905f5b818110611ad15750505090565b8251845260209384019390920191600101611ac4565b5f80516020611e5f833981519152545f9291906001600160a01b0316803b15610399575f604051809263155f840160e21b825260206004830152818381611b316024820189611ab4565b03925af1801561078457611bc7575b505f80516020611e7f83398151915254604051634c0d927760e01b815260a060048201529260209284926001600160a01b031691839187918391611b889060a4840190611ab4565b90632207ea6360e01b6024840152836044840152606483015282608483015203925af1918215611bbb5791611a63575090565b604051903d90823e3d90fd5b611bd49193505f90611174565b5f91611b88611b40565b6001600160a01b03165f9081526011602052604090205460ff16611bfe57565b63adf54df960e01b5f5260045ffd5b6020905f928115611c92575b8015611c84575b5f80516020611e9f83398151915254604051638c14cc2160e01b8152600480820194909452848101909301919091526001600160f81b0319841660448301529092839160649183916001600160a01b03165af1908115610784575f91611a63575090565b50611c8d611d5c565b611c20565b9050611c9c611d5c565b90611c19565b9060646020925f60018060a01b035f80516020611e9f8339815191525416604051968795869463cb3b940760e01b86526004860152602485015260448401525af1908115610784575f91611a63575090565b5f80516020611e5f833981519152546001600160a01b031691823b1561039957604051631974142760e21b815260048101929092526001600160a01b03166024820152905f908290604490829084905af1801561078457611d525750565b5f61171791611174565b5f80516020611e9f83398151915254604051631ce2e8d760e31b81525f60048201819052600560f81b60248301529091602091839160449183916001600160a01b03165af1908115610784575f91611a63575090565b5f80516020611e9f83398151915254604051631ce2e8d760e31b81525f60048201819052600160f91b60248301529091602091839160449183916001600160a01b03165af1908115610784575f91611a63575090565b5f80516020611e9f83398151915254604051631ce2e8d760e31b815260016004820152600160f91b602482015290602090829060449082905f906001600160a01b03165af1908115610784575f91611a6357509056feed8d60e34876f751cc8b014c560745351147d9de11b9347c854e881b128ea60093ab6e17f2c461cce6ea5d4ec117e51dda77a64affc2b2c05f8cd440def0e700ed8d60e34876f751cc8b014c560745351147d9de11b9347c854e881b128ea601a2646970667358221220cacfb51320bb8ace0c476fc25cb8804171f4d35f212b2bd6e085f22505e1767764736f6c634300081a0033",
    "linkReferences": {}
  },
  "methodIdentifiers": {
    "ERC20_TOKEN()": "efc4c631",
    "allowance(address,address)": "dd62ed3e",
    "approve(address,bytes32,bytes)": "b32c1001",
    "approve(address,uint256)": "095ea7b3",
    "balanceOf(address)": "70a08231",
    "callbackUnwrap(uint256,bool)": "b820e6ce",
    "decimals()": "313ce567",
    "errorGetCounter()": "67a74a28",
    "getErrorCodeForTransferId(uint256)": "a5184baf",
    "isAccountRestricted(address)": "e6e09505",
    "name()": "06fdde03",
    "symbol()": "95d89b41",
    "totalSupply()": "18160ddd",
    "transfer(address,bytes32,bytes)": "7b7e0a5a",
    "transfer(address,uint256)": "a9059cbb",
    "transferCallback(uint256,uint8)": "2207ea63",
    "transferFrom(address,address,bytes32,bytes)": "9a094352",
    "transferFrom(address,address,uint256)": "23b872dd",
    "unwrap(uint64)": "dc412e83",
    "unwrapRequests(uint256)": "d99c2a72",
    "wrap(uint256)": "ea598cb0"
  },
  "id": 4
}