{"abi":[{"type":"function","name":"FEE_GROWTH_GLOBAL0_OFFSET","inputs":[],"outputs":[{"name":"","type":"uint256","internalType":"uint256"}],"stateMutability":"view"},{"type":"function","name":"LIQUIDITY_OFFSET","inputs":[],"outputs":[{"name":"","type":"uint256","internalType":"uint256"}],"stateMutability":"view"},{"type":"function","name":"POOLS_SLOT","inputs":[],"outputs":[{"name":"","type":"bytes32","internalType":"bytes32"}],"stateMutability":"view"},{"type":"function","name":"POSITIONS_OFFSET","inputs":[],"outputs":[{"name":"","type":"uint256","internalType":"uint256"}],"stateMutability":"view"},{"type":"function","name":"TICKS_OFFSET","inputs":[],"outputs":[{"name":"","type":"uint256","internalType":"uint256"}],"stateMutability":"view"},{"type":"function","name":"TICK_BITMAP_OFFSET","inputs":[],"outputs":[{"name":"","type":"uint256","internalType":"uint256"}],"stateMutability":"view"}],"bytecode":{"object":"0x608060405234602057600e6024565b61037861002f82393081505061037890f35b602a565b60405190565b5f80fdfe60806040526004361015610013575b61033e565b61001d5f3561007c565b80632ba31c531461007757806357eb1da714610072578063769323e31461006d5780637d35604a14610068578063b432004a146100635763ca24e3b50361000e57610313565b6102b1565b61024f565b6101ed565b61018b565b6100fa565b60e01c90565b60405190565b5f80fd5b5f91031261009657565b610088565b90565b90565b90565b6100b86100b36100bd9261009b565b6100a1565b61009e565b90565b6100ca60066100a4565b90565b6100d56100c0565b90565b6100e19061009e565b9052565b91906100f8905f602085019401906100d8565b565b61010536600461008c565b6101216101106100cd565b610118610082565b918291826100e5565b0390f35b90565b5f1b90565b61014161013c6101469261009e565b610128565b610125565b90565b61015b61015660066100a4565b61012d565b90565b610166610149565b90565b61017290610125565b9052565b9190610189905f60208501940190610169565b565b61019636600461008c565b6101b26101a161015e565b6101a9610082565b91829182610176565b0390f35b90565b6101cd6101c86101d2926101b6565b6100a1565b61009e565b90565b6101df60046101b9565b90565b6101ea6101d5565b90565b6101f836600461008c565b6102146102036101e2565b61020b610082565b918291826100e5565b0390f35b90565b61022f61022a61023492610218565b6100a1565b61009e565b90565b610241600561021b565b90565b61024c610237565b90565b61025a36600461008c565b610276610265610244565b61026d610082565b918291826100e5565b0390f35b90565b61029161028c6102969261027a565b6100a1565b61009e565b90565b6102a3600361027d565b90565b6102ae610299565b90565b6102bc36600461008c565b6102d86102c76102a6565b6102cf610082565b918291826100e5565b0390f35b90565b6102f36102ee6102f8926102dc565b6100a1565b61009e565b90565b61030560016102df565b90565b6103106102fb565b90565b61031e36600461008c565b61033a610329610308565b610331610082565b918291826100e5565b0390f35b5f80fdfea26469706673582212207eaaaeb609b02f638cf7f310242f5a42a5151838874b78f7f43f3c3fda9cb23364736f6c634300081a0033","linkReferences":{}},"methodIdentifiers":{"FEE_GROWTH_GLOBAL0_OFFSET()":"ca24e3b5","LIQUIDITY_OFFSET()":"b432004a","POOLS_SLOT()":"57eb1da7","POSITIONS_OFFSET()":"2ba31c53","TICKS_OFFSET()":"769323e3","TICK_BITMAP_OFFSET()":"7d35604a"},"id":146}