{"abi":[{"type":"constructor","inputs":[{"name":"_indexTokens","type":"address[]","internalType":"address[]"},{"name":"_stablecoin","type":"address","internalType":"address"},{"name":"_indexFundFactory","type":"address","internalType":"address"},{"name":"_indexFundToken","type":"address","internalType":"address"},{"name":"_marketDataFetcher","type":"address","internalType":"address"},{"name":"_swapsManagerProxy","type":"address","internalType":"address"},{"name":"_initialSharePrice","type":"uint256","internalType":"uint256"},{"name":"_poolKeys","type":"tuple[]","internalType":"struct PoolKey[]","components":[{"name":"currency0","type":"address","internalType":"Currency"},{"name":"currency1","type":"address","internalType":"Currency"},{"name":"fee","type":"uint24","internalType":"uint24"},{"name":"tickSpacing","type":"int24","internalType":"int24"},{"name":"hooks","type":"address","internalType":"contract IHooks"}]}],"stateMutability":"nonpayable"},{"type":"function","name":"DEFAULT_ADMIN_ROLE","inputs":[],"outputs":[{"name":"","type":"bytes32","internalType":"bytes32"}],"stateMutability":"view"},{"type":"function","name":"burnShares","inputs":[{"name":"encryptedAmount","type":"bytes32","internalType":"einput"},{"name":"encryptedRedeemIndexTokens","type":"bytes32","internalType":"einput"},{"name":"inputProof","type":"bytes","internalType":"bytes"}],"outputs":[],"stateMutability":"nonpayable"},{"type":"function","name":"burnSharesCallback","inputs":[{"name":"requestID","type":"uint256","internalType":"uint256"},{"name":"decryptedAmount","type":"uint256","internalType":"uint256"},{"name":"redeemIndexTokens","type":"bool","internalType":"bool"},{"name":"hasUserEnoughSharesToBurn","type":"bool","internalType":"bool"}],"outputs":[],"stateMutability":"nonpayable"},{"type":"function","name":"computeShareValue","inputs":[],"outputs":[{"name":"shareValue","type":"uint256","internalType":"uint256"}],"stateMutability":"view"},{"type":"function","name":"getIndexFundToken","inputs":[],"outputs":[{"name":"","type":"address","internalType":"contract IndexFundToken"}],"stateMutability":"view"},{"type":"function","name":"getIndexTokens","inputs":[],"outputs":[{"name":"","type":"address[]","internalType":"address[]"}],"stateMutability":"view"},{"type":"function","name":"getRoleAdmin","inputs":[{"name":"role","type":"bytes32","internalType":"bytes32"}],"outputs":[{"name":"","type":"bytes32","internalType":"bytes32"}],"stateMutability":"view"},{"type":"function","name":"getStablecoin","inputs":[],"outputs":[{"name":"","type":"address","internalType":"contract ERC20EncryptionWrapper"}],"stateMutability":"view"},{"type":"function","name":"grantRole","inputs":[{"name":"role","type":"bytes32","internalType":"bytes32"},{"name":"account","type":"address","internalType":"address"}],"outputs":[],"stateMutability":"nonpayable"},{"type":"function","name":"hasRole","inputs":[{"name":"role","type":"bytes32","internalType":"bytes32"},{"name":"account","type":"address","internalType":"address"}],"outputs":[{"name":"","type":"bool","internalType":"bool"}],"stateMutability":"view"},{"type":"function","name":"mintShares","inputs":[{"name":"encryptedAmount","type":"bytes32","internalType":"einput"},{"name":"inputProof","type":"bytes","internalType":"bytes"}],"outputs":[],"stateMutability":"nonpayable"},{"type":"function","name":"mintSharesCallback","inputs":[{"name":"requestID","type":"uint256","internalType":"uint256"},{"name":"decryptedAmount","type":"uint256","internalType":"uint256"}],"outputs":[],"stateMutability":"nonpayable"},{"type":"function","name":"renounceRole","inputs":[{"name":"role","type":"bytes32","internalType":"bytes32"},{"name":"callerConfirmation","type":"address","internalType":"address"}],"outputs":[],"stateMutability":"nonpayable"},{"type":"function","name":"revokeRole","inputs":[{"name":"role","type":"bytes32","internalType":"bytes32"},{"name":"account","type":"address","internalType":"address"}],"outputs":[],"stateMutability":"nonpayable"},{"type":"function","name":"sendFeesToProtocolOwner","inputs":[],"outputs":[],"stateMutability":"nonpayable"},{"type":"function","name":"supportsInterface","inputs":[{"name":"interfaceId","type":"bytes4","internalType":"bytes4"}],"outputs":[{"name":"","type":"bool","internalType":"bool"}],"stateMutability":"view"},{"type":"event","name":"BurnSwapsPerformed","inputs":[],"anonymous":false},{"type":"event","name":"FeeCollected","inputs":[{"name":"feeAmount","type":"uint256","indexed":true,"internalType":"uint256"}],"anonymous":false},{"type":"event","name":"IndexTokensRedeemed","inputs":[],"anonymous":false},{"type":"event","name":"MintSwapsPerformed","inputs":[],"anonymous":false},{"type":"event","name":"RoleAdminChanged","inputs":[{"name":"role","type":"bytes32","indexed":true,"internalType":"bytes32"},{"name":"previousAdminRole","type":"bytes32","indexed":true,"internalType":"bytes32"},{"name":"newAdminRole","type":"bytes32","indexed":true,"internalType":"bytes32"}],"anonymous":false},{"type":"event","name":"RoleGranted","inputs":[{"name":"role","type":"bytes32","indexed":true,"internalType":"bytes32"},{"name":"account","type":"address","indexed":true,"internalType":"address"},{"name":"sender","type":"address","indexed":true,"internalType":"address"}],"anonymous":false},{"type":"event","name":"RoleRevoked","inputs":[{"name":"role","type":"bytes32","indexed":true,"internalType":"bytes32"},{"name":"account","type":"address","indexed":true,"internalType":"address"},{"name":"sender","type":"address","indexed":true,"internalType":"address"}],"anonymous":false},{"type":"event","name":"SharesBurned","inputs":[{"name":"user","type":"address","indexed":true,"internalType":"address"},{"name":"amount","type":"uint256","indexed":true,"internalType":"uint256"}],"anonymous":false},{"type":"event","name":"SharesMinted","inputs":[{"name":"user","type":"address","indexed":true,"internalType":"address"},{"name":"amount","type":"uint256","indexed":true,"internalType":"uint256"}],"anonymous":false},{"type":"error","name":"AccessControlBadConfirmation","inputs":[]},{"type":"error","name":"AccessControlUnauthorizedAccount","inputs":[{"name":"account","type":"address","internalType":"address"},{"name":"neededRole","type":"bytes32","internalType":"bytes32"}]},{"type":"error","name":"AmountToSwapTooBig","inputs":[{"name":"amountToSwap","type":"uint256","internalType":"uint256"}]},{"type":"error","name":"InsufficientAllowance","inputs":[{"name":"token","type":"address","internalType":"address"}]},{"type":"error","name":"NotEnoughSharesToBurn","inputs":[{"name":"user","type":"address","internalType":"address"},{"name":"amountToBurn","type":"uint256","internalType":"uint256"}]},{"type":"error","name":"ReentrancyGuardReentrantCall","inputs":[]},{"type":"error","name":"SharesToBurnAmountTooBig","inputs":[{"name":"amountToBurn","type":"uint256","internalType":"uint256"}]},{"type":"error","name":"SharesToMintAmountTooBig","inputs":[{"name":"amountToMint","type":"uint256","internalType":"uint256"}]},{"type":"error","name":"TransferFailed","inputs":[]}],"bytecode":{"object":"0x61014080604052346105dc57612efa803803809161001d8285610720565b8339810190610100818303126105dc5780516001600160401b0381116105dc5781019082601f830112156105dc5781519061005782610743565b926100656040519485610720565b828452602084016020819460051b830101918683116105dc57602001905b8282106106ed575050506100996020820161075a565b916100a66040830161075a565b926100b36060840161075a565b6100bf6080850161075a565b916100cc60a0860161075a565b60c086015160e087015190969195916001600160401b0382116105dc57019789601f8a0112156105dc578851996101028b610743565b996101106040519b8c610720565b8b8b5260208b0191602060a0849e02830101918183116105dc57602001925b8284106106545750505050600180555f606060405161014d81610705565b8281528260208201528260408201520152739d6891a6240d6130c54ae243d8005063d05fe14b606060405161018181610705565b73fee8407e2f5e3ee68ad77cae98c434e637f516e580825273687408ab54661ba0b4aef3a44156c616c6955e076020830181905273fb03be574d14c256d56f09a198b586bdfc0a9de26040840181905293909201939093527fed8d60e34876f751cc8b014c560745351147d9de11b9347c854e881b128ea60080546001600160a01b031990811690941790557fed8d60e34876f751cc8b014c560745351147d9de11b9347c854e881b128ea6018054841690911790557fed8d60e34876f751cc8b014c560745351147d9de11b9347c854e881b128ea6028054831690911790557fed8d60e34876f751cc8b014c560745351147d9de11b9347c854e881b128ea60380548216739d6891a6240d6130c54ae243d8005063d05fe14b1790557f93ab6e17f2c461cce6ea5d4ec117e51dda77a64affc2b2c05f8cd440def0e70080549091167333347831500f1e73f0cccbb95c9f86b94d7b112317905551906001600160401b0382116105965768010000000000000000821161059657600c5482600c55808310610610575b50600c5f5260205f205f5b8381106105f3578b8b600460208d8d8d8d8d8d60018060a01b0316610100528460e05260018060a01b031660805260018060a01b031660a05260c052600e5560405192838092638da5cb5b60e01b825260018060a01b03165afa9081156105e8575f916105aa575b50601080546001600160a01b0319166001600160a01b0392909216919091179055519068010000000000000000821161059657600d5482600d55808310610516575b5090600d5f5260205f205f925b82841061047d5760405161278b908161076f823960805181818161015b01528181610ad901528181610f600152818161123a01526118e8015260a0518181816103cd0152818161107a015281816113cc0152611911015260c0518181816104fa015281816114e60152818161169f01526116f6015260e051816110cf0152610100518181816105ee0152818161090d01528181611024015281816114b00152611c8301526101205181611fbf0152f35b8051805183546001600160a01b039182166001600160a01b0319918216178555602080840151600180880180546040880151606089015160b81b62ffffff60b81b1662ffffff60a01b60a09290921b919091169488166001600160d01b031990921691909117939093179290921790915560809094015160028701805491909416921691909117909155940193600390920191016103cd565b80600302906003820403610582578260030260038104840361058257600d5f527fd7b6990105719101dabeb77144f2a3385c8033acd3af97e9423a695e81ad1eb591820191015b81811061056a57506103c0565b805f600392555f60018201555f60028201550161055d565b634e487b7160e01b5f52601160045260245ffd5b634e487b7160e01b5f52604160045260245ffd5b90506020813d6020116105e0575b816105c560209383610720565b810103126105dc576105d69061075a565b8361037e565b5f80fd5b3d91506105b8565b6040513d5f823e3d90fd5b82516001600160a01b031681830155602090920191600101610316565b600c5f527fdf6966c971051c3d54ec59162606531493a51404a002842f56009d7e5cf4a8c79081019083015b818110610649575061030b565b5f815560010161063c565b60a0848303126105dc576040519060a082016001600160401b03811183821017610596576040526106848561075a565b82526106926020860161075a565b6020830152604085015162ffffff811681036105dc57604083015260608501518060020b81036105dc5760608301526080850151906001600160a01b03821682036105dc5782602092608060a095015281520193019261012f565b602080916106fa8461075a565b815201910190610083565b608081019081106001600160401b0382111761059657604052565b601f909101601f19168101906001600160401b0382119082101761059657604052565b6001600160401b0381116105965760051b60200190565b51906001600160a01b03821682036105dc5756fe6080806040526004361015610012575f80fd5b5f905f3560e01c90816301ffc9a7146120ad5750806305d7d94b14611f52578063248a9ca314611f205780632f2ff15d14611eef57806335c995ec14611c1257806336568abe14611bd957806338f250ec14611b635780634148fc4f146118ca57806360c8d85714610f8f57806375696e7f14610f4a5780639134867c1461099457806391d1485414610958578063a217fddf1461093c578063b6f67312146108f7578063d547741f146108c25763f98723c7146100ce575f80fd5b346108bf5760803660031901126108bf5760243560443580151581036108bb576064358015908115036108b7575f80516020612716833981519152546001600160a01b031633036108b7576004358452600960205261013961014060408620604051928380926122ac565b0382612154565b6001600160a01b039061015290612228565b5116906108a0577f00000000000000000000000000000000000000000000000000000000000000006001600160a01b03169084823b1561089c5785604051630852cd8d60e31b8152866004820152818160248183895af180156106b457610887575b505084337fdb79cc492679ef2624944d6ed3cdbad5b974b5550de330ae18922f2944eec78a8880a385805b600c54811015610883576101f2816122ec565b905460039190911b1c6001600160a01b0316801561080d576040516370a0823160e01b8152306004820152602081602481855afa801561080257899185916107c8575b509061024091612304565b6040516318160ddd60e01b8152906020826004818b5afa9182156107bd578592610786575b509061027091612325565b871561031b5760405163a9059cbb60e01b81526001600160a01b038716600482015260248101919091529260209184916044918391905af1918215610310576001926102e4575b507ee2d681c483528119b71f74ebcd6ad9dd9ca7fd71ea2245aa2362e27d3f2eb68880a15b0186906101df565b6103049060203d8111610309575b6102fc8183612154565b81019061218a565b6102b7565b503d6102f2565b6040513d8a823e3d90fd5b918094935061032a91506122ec565b60018060a01b0391549060031b1c1660125461ff0061034e60ff8360081c16612343565b60081b169061ff0019161760125580895260146020526040892061037383825461225d565b9055601254600260ff8260081c1614610393575b505050906001906102dc565b61ff0019166012558089526014602052604089205491816107205760125b604051630681320d60e51b8152600481018490526020816024817f00000000000000000000000000000000000000000000000000000000000000006001600160a01b03165afa908115610715578c916106e4575b506009810290808204600914901517156106bf5790610433600a61042c8761043995612304565b0491612317565b90612325565b926001600160801b0381116106d3575061045285612354565b5092603c4201918242116106bf578b949392916001600160801b03809260405196630abff6dd60e11b885260018060a01b038154166004890152600181015460018060a01b03811660248a015262ffffff8160a01c1660448a015260b81c60020b6064890152600260018060a01b039101541660848801521660a48601521660c484015260e48301526001610104830152610124820152602081610144818560018060a01b037f0000000000000000000000000000000000000000000000000000000000000000165af19081156106b457829161067e575b50610535919261225d565b917f875fc5b1c93e96a85172e0d2b74fcdb6f314c3460e99e6a7da8743bc8b75e37c8280a182610569575b91905f80610387565b5f8051602061273683398151915254604051631ce2e8d760e31b815260048101859052600160fb1b60248201529260209184916044918391906001600160a01b03165af1918215610310578892610646575b506040516323b872dd60e01b815230600482015233602482015260448101929092526020826064818b6001600160a01b037f0000000000000000000000000000000000000000000000000000000000000000165af191821561031057600192610628575b50879150610560565b61063f9060203d8111610309576102fc8183612154565b505f61061f565b91506020823d8211610676575b8161066060209383612154565b810103126106725790519060206105bb565b5f80fd5b3d9150610653565b9150506020813d82116106ac575b8161069960209383612154565b810103126106725751879061053561052a565b3d915061068c565b6040513d84823e3d90fd5b634e487b7160e01b8c52601160045260248cfd5b628af7f560e11b8b5260045260248afd5b90506020813d821161070d575b816106fe60209383612154565b8101031261067257515f610405565b3d91506106f1565b6040513d8e823e3d90fd5b60405163313ce56760e01b8152602081600481865afa801561077b5760ff918c9161074d575b50166103b1565b61076e915060203d8111610774575b6107668183612154565b8101906121f7565b5f610746565b503d61075c565b6040513d8d823e3d90fd5b915093506020813d82116107b5575b816107a260209383612154565b8101031261067257518993610270610265565b3d9150610795565b6040513d87823e3d90fd5b945050506020833d82116107fa575b816107e460209383612154565b8101031261067257610240888a94519091610235565b3d91506107d7565b6040513d86823e3d90fd5b6108178847612304565b6040516318160ddd60e01b8152906020826004818b5afa9182156107bd57859261084c575b509061084791612325565b610270565b915093506020813d821161087b575b8161086860209383612154565b810103126106725751899361084761083c565b3d915061085b565b5080f35b8161089191612154565b61089c57855f6101b4565b8580fd5b63793fd43160e01b84526004526024829052604483fd5b8380fd5b8280fd5b80fd5b50346108bf576108836108d436612100565b906108f26108ed825f525f602052600160405f20015490565b612390565b6124d8565b50346108bf57806003193601126108bf576040517f00000000000000000000000000000000000000000000000000000000000000006001600160a01b03168152602090f35b50346108bf57806003193601126108bf57602090604051908152f35b50346108bf57604061096936612100565b9290815280602052209060018060a01b03165f52602052602060ff60405f2054166040519015158152f35b50346108bf5760603660031901126108bf5760443567ffffffffffffffff8111610d8e5760a46020806109ce6109f6943690600401612126565b94906109d8612370565b6109ee6109e63688846121a2565b600435612558565b9536916121a2565b60018060a01b035f80516020612736833981519152541690866040519586809581946302e817ff60e41b83526024356004840152336024840152608060448401528051918291826084860152018484015e83838284010152836064830152601f801991011681010301925af1908115610f3f578391610f0d575b505f805160206126f68339815191525483906001600160a01b0316803b15610d8e578180916044604051809481936346ce4e4960e11b83528860048401523360248401525af180156106b457610ef8575b50506040516370a0823160e01b8152336004820152907f00000000000000000000000000000000000000000000000000000000000000006001600160a01b0316602083602481845afa9283156107bd578593610ec0575b508284938515610eb0575b15610e9e575b602090606460018060a01b035f805160206127368339815191525416958860405197889485936334a6d7b960e11b8552600485015260248401528160448401525af19283156107bd578593610e6a575b506040516323b872dd60e01b81523360048201523060248201526044810185905260208160648189865af18015610e4257610e4d575b50604051630cf4e94560e31b8152602081600481855afa908115610e42578691610e10575b505f198101908111610dfc5760209060246040518094819363a5184baf60e01b835260048301525afa80156107bd5760ff918691610ddd575b5016610dce5760405192610c22608085612154565b600384526060366020860137610c3784612228565b52825160011015610dba576040830152815160021015610da65760608201526064420190814211610d92575f805160206126f68339815191525483906001600160a01b0316803b15610d8e5781604051809263155f840160e21b825260206004830152818381610caa602482018a612450565b03925af180156106b457610d79575b50505f8051602061271683398151915254604051634c0d927760e01b815260a060048201529260209284926001600160a01b031691839187918391610d029060a4840190612450565b9063f98723c760e01b6024840152836044840152606483015282608483015203925af180156106b4578290610d45575b610d3e91503390612483565b6001805580f35b506020813d602011610d71575b81610d5f60209383612154565b8101031261067257610d3e9051610d32565b3d9150610d52565b81610d8391612154565b6108bb57825f610cb9565b5080fd5b634e487b7160e01b83526011600452602483fd5b634e487b7160e01b83526032600452602483fd5b634e487b7160e01b84526032600452602484fd5b6312171d8360e31b8452600484fd5b610df6915060203d602011610774576107668183612154565b5f610c0d565b634e487b7160e01b86526011600452602486fd5b90506020813d602011610e3a575b81610e2b60209383612154565b8101031261067257515f610bd4565b3d9150610e1e565b6040513d88823e3d90fd5b610e659060203d602011610309576102fc8183612154565b610baf565b9092506020813d602011610e96575b81610e8660209383612154565b810103126106725751915f610b79565b3d9150610e79565b506020610ea9612670565b9050610b29565b9350610eba612670565b93610b23565b9092506020813d602011610ef0575b81610edc60209383612154565b81010312610eec5751915f610b18565b8480fd5b3d9150610ecf565b81610f0291612154565b6108bb57825f610ac1565b90506020813d602011610f37575b81610f2860209383612154565b8101031261067257515f610a70565b3d9150610f1b565b6040513d85823e3d90fd5b50346108bf57806003193601126108bf576040517f00000000000000000000000000000000000000000000000000000000000000006001600160a01b03168152602090f35b50346108bf5760403660031901126108bf575f8051602061271683398151915254602435906001600160a01b03163303610d8e5760043582526009602052610139610fe360408420604051928380926122ac565b6001600160a01b0390610ff590612228565b5160405163040b850f60e31b815230600482015260248101849052911690602081604481876001600160a01b037f0000000000000000000000000000000000000000000000000000000000000000165af18015610802576118ad575b50604051630a7c1bd560e21b815260206004820152908382806110766024820161226a565b03817f00000000000000000000000000000000000000000000000000000000000000006001600160a01b03165afa918215610802578490859361180d575b50600f819055604051634d1b7c9960e11b81526020816004817f00000000000000000000000000000000000000000000000000000000000000006001600160a01b03165afa8015610e425786906117d9575b611111915085612325565b61111d8160115461225d565b601155807fc472cb3a7a659a876494d66b3063145f279701771d6150b9329c31611ed6405c8780a284039384116117c5578251600c54810361174e579083519361116685612210565b946111746040519687612154565b808652611183601f1991612210565b0136602087013786916201518042019165ffffffffffff8342119316935b8581106116425750505050505060125460ff6111be818316612343565b169060ff191617601255835b600c5481101561121757806111e160019285612249565b516111eb826122ec565b848060a01b0391549060031b1c168752601360205261120f6040882091825461225d565b9055016111ca565b848285601254600260ff8216146112e2575b50600e5461123691612325565b90827f00000000000000000000000000000000000000000000000000000000000000006001600160a01b0316803b15610d8e576040516340c10f1960e01b81526001600160a01b0384166004820152602481018590529082908290604490829084905af180156106b4576112cd575b50807f6332ddaa8a69b5eb2524ec7ca317b7c2b01ecf678d584031415f81270977b8fc91a380f35b816112d791612154565b6108bb5782846112a5565b60ff19166012559042603c81011090835b600c5481101561161157611306816122ec565b905460039190911b1c6001600160a01b03169061132281612354565b506040519260a0840184811067ffffffffffffffff8211176115fd5760405260018060a01b038254168452600182015491602085019260018060a01b0381168452604086019162ffffff8260a01c168352606087019160b81c60020b8252600260018060a01b03910154169160808701928352838b52601360205260408b20549380155f146115af576012905b604051630681320d60e51b815260048101919091526020816024817f00000000000000000000000000000000000000000000000000000000000000006001600160a01b03165afa9081156115a4578d91611573575b5060098102908082046009149015171561155f5790610433600a61042c8861142b95612304565b946001600160801b03851161154c57896106bf57604051630abff6dd60e11b815297516001600160a01b0390811660048a0152905181166024890152905162ffffff166044880152905160020b60648701529051811660848601526001600160801b0391821660a4860152911660c484015242603c0160e484015260016101048401527f0000000000000000000000000000000000000000000000000000000000000000811661012484015260209083906101449082908a907f0000000000000000000000000000000000000000000000000000000000000000165af1918215610e425760019261151e575b50016112f3565b61153e9060203d8111611545575b6115368183612154565b8101906121e8565b5086611517565b503d61152c565b628af7f560e11b8c52600485905260248cfd5b634e487b7160e01b8d52601160045260248dfd5b90506020813d821161159c575b8161158d60209383612154565b8101031261067257518d611404565b3d9150611580565b6040513d8f823e3d90fd5b60405163313ce56760e01b81528c90602081600481865afa9081156106b45760ff92916115df575b5016906113af565b6115f7915060203d8111610774576107668183612154565b8e6115d7565b634e487b7160e01b89526041600452602489fd5b509161123691507f79154593ad5827af96f232d8b081e8d48c8bad62e5314fd67880b9880b4812408480a190611229565b61165f8361165a6116538486612249565b518c612304565b612325565b611669828a612249565b52611673816122ec565b90546001600160a01b0360039290921b1c8116908590611693848c612249565b5116906106bf578b91907f00000000000000000000000000000000000000000000000000000000000000006001600160a01b03163b156108bb5760405163267b14bd60e01b815260048101929092526024820152604481018790528181606481837f00000000000000000000000000000000000000000000000000000000000000006001600160a01b03165af180156106b457611735575b50506001016111a1565b8161173f91612154565b61174a57895f61172b565b8980fd5b60405162461bcd60e51b815260206004820152604360248201527f446973726570616e6379206265747765656e206e756d626572206f66206d617260448201527f6b6574206361707320616e64206e756d626572206f6620696e64657820746f6b606482015262656e7360e81b608482015260a490fd5b634e487b7160e01b85526011600452602485fd5b506020813d602011611805575b816117f360209383612154565b81010312610672576111119051611106565b3d91506117e6565b9250503d8085843e61181f8184612154565b820191604081840312610eec5780519060208101519067ffffffffffffffff82116118a957019280601f8501121561089c57835161185c81612210565b9461186a6040519687612154565b81865260208087019260051b8201019283116118a557602001905b828210611895575050505f6110b4565b8151815260209182019101611885565b8780fd5b8680fd5b6118c59060203d602011610309576102fc8183612154565b611051565b50346108bf57806003193601126108bf57600c546001600160a01b037f000000000000000000000000000000000000000000000000000000000000000081169291829182907f000000000000000000000000000000000000000000000000000000000000000016815b83851061194557602086604051908152f35b909192939450611954856122ec565b9054604051630681320d60e51b815260039290921b1c6001600160a01b03166004820152602081602481865afa908115610802578491611b32575b506024602061199d886122ec565b90546040516370a0823160e01b81523060048201529384929091839160031b1c6001600160a01b03165afa9081156107bd578591611b01575b506119e0876122ec565b905460039190911b1c6001600160a01b0316611a8857611a199291610433611a0d611a1393601293612304565b91612317565b9061225d565b906040516318160ddd60e01b81526020816004818a5afa908115610802578491611a55575b50611a4b60019184612325565b9501939291611933565b90506020813d8211611a80575b81611a6f60209383612154565b810103126106725751611a4b611a3e565b3d9150611a62565b60046020611a95896122ec565b905460405163313ce56760e01b81529384929091839160031b1c6001600160a01b03165afa908115610e4257611a0d611a139360ff611a19979694610433948b91611ae3575b501693612304565b611afb915060203d8111610774576107668183612154565b5f611adb565b90506020813d8211611b2a575b81611b1b60209383612154565b8101031261067257515f6119d6565b3d9150611b0e565b90506020813d8211611b5b575b81611b4c60209383612154565b8101031261067257515f61198f565b3d9150611b3f565b50346108bf57806003193601126108bf5760405190611b8c82611b858161226a565b0383612154565b604051918291602083016020845282518091526020604085019301915b818110611bb7575050500390f35b82516001600160a01b0316845285945060209384019390920191600101611ba9565b50346108bf57611be836612100565b90336001600160a01b03831603611c035790610883916124d8565b63334bd91960e11b8352600483fd5b50346106725760403660031901126106725760243567ffffffffffffffff8111610672576109e6611c4a611c59923690600401612126565b611c52612370565b36916121a2565b6040516323b872dd60e01b8152336004820152306024820152604481018290526001600160a01b037f000000000000000000000000000000000000000000000000000000000000000016906020816064815f865af18015611e9557611ed2575b50604051630cf4e94560e31b8152602081600481855afa908115611e95575f91611ea0575b505f198101908111611e535760209060246040518094819363a5184baf60e01b835260048301525afa8015611e955760ff915f91611e76575b5016611e67576040805191611d2c8284612154565b60018352601f198201366020850137611d4483612228565b526064420191824211611e53575f805160206126f6833981519152546001600160a01b0316803b15610672575f8351809263155f840160e21b825260206004830152818381611d966024820189612450565b03925af18015611e4957611e32575b505f80516020612716833981519152548251634c0d927760e01b815260a060048201529360209285926001600160a01b031691839188918391611dec9060a4840190612450565b906360c8d85760e01b6024840152836044840152606483015282608483015203925af1908115611e2957508290610d4557610d3e91503390612483565b513d84823e3d90fd5b611e3f9194505f90612154565b5f92611dec611da5565b83513d5f823e3d90fd5b634e487b7160e01b5f52601160045260245ffd5b6312171d8360e31b5f5260045ffd5b611e8f915060203d602011610774576107668183612154565b5f611d17565b6040513d5f823e3d90fd5b90506020813d602011611eca575b81611ebb60209383612154565b8101031261067257515f611cde565b3d9150611eae565b611eea9060203d602011610309576102fc8183612154565b611cb9565b3461067257611f1e611f0036612100565b90611f196108ed825f525f602052600160405f20015490565b6123c8565b005b34610672576020366003190112610672576020611f4a6004355f525f602052600160405f20015490565b604051908152f35b34610672575f366003190112610672576010546001600160a01b0316330361205157611f7c612370565b6011541561201a575f601181905560105460405163a9059cbb60e01b81526001600160a01b039182166004820152602481018390529160209183916044918391907f0000000000000000000000000000000000000000000000000000000000000000165af1908115611e95575f91611ffb575b5015611e675760018055005b612014915060203d602011610309576102fc8183612154565b81611fef565b60405162461bcd60e51b815260206004820152600f60248201526e139bc81999595cc81d1bc81cd95b99608a1b6044820152606490fd5b60405162461bcd60e51b815260206004820152602e60248201527f4f6e6c79207468652070726f746f636f6c206f776e65722063616e2063616c6c60448201526d103a3434b990333ab731ba34b7b760911b6064820152608490fd5b34610672576020366003190112610672576004359063ffffffff60e01b821680920361067257602091637965db0b60e01b81149081156120ef575b5015158152f35b6301ffc9a760e01b149050836120e8565b604090600319011261067257600435906024356001600160a01b03811681036106725790565b9181601f840112156106725782359167ffffffffffffffff8311610672576020838186019501011161067257565b90601f8019910116810190811067ffffffffffffffff82111761217657604052565b634e487b7160e01b5f52604160045260245ffd5b90816020910312610672575180151581036106725790565b92919267ffffffffffffffff821161217657604051916121cc601f8201601f191660200184612154565b829481845281830111610672578281602093845f960137010152565b90816020910312610672575190565b90816020910312610672575160ff811681036106725790565b67ffffffffffffffff81116121765760051b60200190565b8051156122355760200190565b634e487b7160e01b5f52603260045260245ffd5b80518210156122355760209160051b010190565b91908201809211611e5357565b6020600c54918281520190600c5f5260205f20905f5b81811061228d5750505090565b82546001600160a01b0316845260209093019260019283019201612280565b90602082549182815201915f5260205f20905f5b8181106122cd5750505090565b82546001600160a01b03168452602090930192600192830192016122c0565b600c5481101561223557600c5f5260205f2001905f90565b81810292918115918404141715611e5357565b604d8111611e5357600a0a90565b811561232f570490565b634e487b7160e01b5f52601260045260245ffd5b60ff1660ff8114611e535760010190565b600d5481101561223557600d5f52600360205f20910201905f90565b600260015414612381576002600155565b633ee5aeb560e01b5f5260045ffd5b5f8181526020818152604080832033845290915290205460ff16156123b25750565b63e2517d3f60e01b5f523360045260245260445ffd5b5f818152602081815260408083206001600160a01b038616845290915290205460ff1661244a575f818152602081815260408083206001600160a01b0395909516808452949091528120805460ff19166001179055339291907f2f8788117e7eff1d82e926ec794901d17c78024a50270940304540a733656f0d9080a4600190565b50505f90565b90602080835192838152019201905f5b81811061246d5750505090565b8251845260209384019390920191600101612460565b5f52600960205260405f20805490680100000000000000008210156121765760018201808255821015612235575f5260205f20019060018060a01b03166bffffffffffffffffffffffff60a01b825416179055565b5f818152602081815260408083206001600160a01b038616845290915290205460ff161561244a575f818152602081815260408083206001600160a01b0395909516808452949091528120805460ff19169055339291907ff6391f5c32d9c69d2a47ea670b442974b53935d1edc7fd64eb21e047a839171b9080a4600190565b6020929183915f8051602061273683398151915254905f60a46040518098819682956302e817ff60e41b84526004840152336024840152608060448401528051918291826084860152018484015e8181018301849052600160fb1b6064830152601f01601f191681010301926001600160a01b03165af1918215611e95575f9261263c575b505f805160206126f6833981519152546001600160a01b031682813b15610672575f916044839260405194859384926346ce4e4960e11b845260048401523360248401525af18015611e95576126305750565b5f61263a91612154565b565b9091506020813d602011612668575b8161265860209383612154565b810103126106725751905f6125dd565b3d915061264b565b5f8051602061273683398151915254604051631ce2e8d760e31b81525f60048201819052600160fb1b60248301529091602091839160449183916001600160a01b03165af1908115611e95575f916126c6575090565b90506020813d6020116126ed575b816126e160209383612154565b81010312610672575190565b3d91506126d456feed8d60e34876f751cc8b014c560745351147d9de11b9347c854e881b128ea60093ab6e17f2c461cce6ea5d4ec117e51dda77a64affc2b2c05f8cd440def0e700ed8d60e34876f751cc8b014c560745351147d9de11b9347c854e881b128ea601a26469706673582212200528610d0f0bee32c3f01f64226b370994be711fb07845f5837ab21128448e7b64736f6c634300081a0033","linkReferences":{}},"methodIdentifiers":{"DEFAULT_ADMIN_ROLE()":"a217fddf","burnShares(bytes32,bytes32,bytes)":"9134867c","burnSharesCallback(uint256,uint256,bool,bool)":"f98723c7","computeShareValue()":"4148fc4f","getIndexFundToken()":"75696e7f","getIndexTokens()":"38f250ec","getRoleAdmin(bytes32)":"248a9ca3","getStablecoin()":"b6f67312","grantRole(bytes32,address)":"2f2ff15d","hasRole(bytes32,address)":"91d14854","mintShares(bytes32,bytes)":"35c995ec","mintSharesCallback(uint256,uint256)":"60c8d857","renounceRole(bytes32,address)":"36568abe","revokeRole(bytes32,address)":"d547741f","sendFeesToProtocolOwner()":"05d7d94b","supportsInterface(bytes4)":"01ffc9a7"},"id":0}