{"abi":[{"type":"constructor","inputs":[{"name":"_indexTokens","type":"address[]","internalType":"address[]"},{"name":"_stablecoin","type":"address","internalType":"address"},{"name":"_indexFundFactory","type":"address","internalType":"address"},{"name":"_indexFundToken","type":"address","internalType":"address"},{"name":"_marketDataFetcher","type":"address","internalType":"address"},{"name":"_swapsManagerProxy","type":"address","internalType":"address"},{"name":"_initialSharePrice","type":"uint256","internalType":"uint256"},{"name":"_poolKeys","type":"tuple[]","internalType":"struct PoolKey[]","components":[{"name":"currency0","type":"address","internalType":"Currency"},{"name":"currency1","type":"address","internalType":"Currency"},{"name":"fee","type":"uint24","internalType":"uint24"},{"name":"tickSpacing","type":"int24","internalType":"int24"},{"name":"hooks","type":"address","internalType":"contract IHooks"}]}],"stateMutability":"nonpayable"},{"type":"function","name":"DEFAULT_ADMIN_ROLE","inputs":[],"outputs":[{"name":"","type":"bytes32","internalType":"bytes32"}],"stateMutability":"view"},{"type":"function","name":"burnShares","inputs":[{"name":"amount","type":"uint256","internalType":"uint256"},{"name":"redeemIndexTokens","type":"bool","internalType":"bool"}],"outputs":[],"stateMutability":"nonpayable"},{"type":"function","name":"computeShareValue","inputs":[],"outputs":[],"stateMutability":"nonpayable"},{"type":"function","name":"getIndexFundToken","inputs":[],"outputs":[{"name":"","type":"address","internalType":"contract IndexFundToken"}],"stateMutability":"view"},{"type":"function","name":"getIndexTokens","inputs":[],"outputs":[{"name":"","type":"address[]","internalType":"address[]"}],"stateMutability":"view"},{"type":"function","name":"getRoleAdmin","inputs":[{"name":"role","type":"bytes32","internalType":"bytes32"}],"outputs":[{"name":"","type":"bytes32","internalType":"bytes32"}],"stateMutability":"view"},{"type":"function","name":"getStablecoin","inputs":[],"outputs":[{"name":"","type":"address","internalType":"contract ERC20EncryptionWrapper"}],"stateMutability":"view"},{"type":"function","name":"grantRole","inputs":[{"name":"role","type":"bytes32","internalType":"bytes32"},{"name":"account","type":"address","internalType":"address"}],"outputs":[],"stateMutability":"nonpayable"},{"type":"function","name":"hasRole","inputs":[{"name":"role","type":"bytes32","internalType":"bytes32"},{"name":"account","type":"address","internalType":"address"}],"outputs":[{"name":"","type":"bool","internalType":"bool"}],"stateMutability":"view"},{"type":"function","name":"mintShares","inputs":[{"name":"encryptedAmount","type":"bytes32","internalType":"einput"},{"name":"inputProof","type":"bytes","internalType":"bytes"}],"outputs":[],"stateMutability":"nonpayable"},{"type":"function","name":"mintSharesCallback","inputs":[{"name":"requestID","type":"uint256","internalType":"uint256"},{"name":"decryptedAmount","type":"uint256","internalType":"uint256"}],"outputs":[],"stateMutability":"nonpayable"},{"type":"function","name":"renounceRole","inputs":[{"name":"role","type":"bytes32","internalType":"bytes32"},{"name":"callerConfirmation","type":"address","internalType":"address"}],"outputs":[],"stateMutability":"nonpayable"},{"type":"function","name":"revokeRole","inputs":[{"name":"role","type":"bytes32","internalType":"bytes32"},{"name":"account","type":"address","internalType":"address"}],"outputs":[],"stateMutability":"nonpayable"},{"type":"function","name":"sendFeesToProtocolOwner","inputs":[],"outputs":[],"stateMutability":"nonpayable"},{"type":"function","name":"supportsInterface","inputs":[{"name":"interfaceId","type":"bytes4","internalType":"bytes4"}],"outputs":[{"name":"","type":"bool","internalType":"bool"}],"stateMutability":"view"},{"type":"event","name":"FeeCollected","inputs":[{"name":"feeAmount","type":"uint256","indexed":true,"internalType":"uint256"}],"anonymous":false},{"type":"event","name":"RoleAdminChanged","inputs":[{"name":"role","type":"bytes32","indexed":true,"internalType":"bytes32"},{"name":"previousAdminRole","type":"bytes32","indexed":true,"internalType":"bytes32"},{"name":"newAdminRole","type":"bytes32","indexed":true,"internalType":"bytes32"}],"anonymous":false},{"type":"event","name":"RoleGranted","inputs":[{"name":"role","type":"bytes32","indexed":true,"internalType":"bytes32"},{"name":"account","type":"address","indexed":true,"internalType":"address"},{"name":"sender","type":"address","indexed":true,"internalType":"address"}],"anonymous":false},{"type":"event","name":"RoleRevoked","inputs":[{"name":"role","type":"bytes32","indexed":true,"internalType":"bytes32"},{"name":"account","type":"address","indexed":true,"internalType":"address"},{"name":"sender","type":"address","indexed":true,"internalType":"address"}],"anonymous":false},{"type":"event","name":"SharesBurned","inputs":[{"name":"user","type":"address","indexed":true,"internalType":"address"},{"name":"amount","type":"uint256","indexed":true,"internalType":"uint256"}],"anonymous":false},{"type":"event","name":"SharesMinted","inputs":[{"name":"user","type":"address","indexed":true,"internalType":"address"},{"name":"amount","type":"uint256","indexed":true,"internalType":"uint256"}],"anonymous":false},{"type":"event","name":"SwapsPerformed","inputs":[],"anonymous":false},{"type":"error","name":"AccessControlBadConfirmation","inputs":[]},{"type":"error","name":"AccessControlUnauthorizedAccount","inputs":[{"name":"account","type":"address","internalType":"address"},{"name":"neededRole","type":"bytes32","internalType":"bytes32"}]},{"type":"error","name":"AmountToSwapTooBig","inputs":[{"name":"amountToSwap","type":"uint256","internalType":"uint256"}]},{"type":"error","name":"InsufficientAllowance","inputs":[{"name":"token","type":"address","internalType":"address"}]},{"type":"error","name":"ReentrancyGuardReentrantCall","inputs":[]},{"type":"error","name":"SharesToBurnAmountTooBig","inputs":[{"name":"amountToBurn","type":"uint256","internalType":"uint256"}]},{"type":"error","name":"SharesToMintAmountTooBig","inputs":[{"name":"amountToMint","type":"uint256","internalType":"uint256"}]},{"type":"error","name":"TransferFailed","inputs":[]}],"bytecode":{"object":"0x610140806040523461058f57611f59803803809161001d82856106d3565b83398101906101008183031261058f5780516001600160401b03811161058f5781019082601f8301121561058f57815190610057826106f6565b9261006560405194856106d3565b828452602084016020819460051b8301019186831161058f57602001905b8282106106a0575050506100996020820161070d565b916100a66040830161070d565b926100b36060840161070d565b6100bf6080850161070d565b916100cc60a0860161070d565b60c086015160e087015190969195916001600160401b03821161058f57019789601f8a01121561058f578851996101028b6106f6565b996101106040519b8c6106d3565b8b8b5260208b0191602060a0849e028301019181831161058f57602001925b8284106106075750505050600180555f606060405161014d816106b8565b8281528260208201528260408201520152739d6891a6240d6130c54ae243d8005063d05fe14b6060604051610181816106b8565b73fee8407e2f5e3ee68ad77cae98c434e637f516e580825273687408ab54661ba0b4aef3a44156c616c6955e076020830181905273fb03be574d14c256d56f09a198b586bdfc0a9de26040840181905293909201939093527fed8d60e34876f751cc8b014c560745351147d9de11b9347c854e881b128ea60080546001600160a01b031990811690941790557fed8d60e34876f751cc8b014c560745351147d9de11b9347c854e881b128ea6018054841690911790557fed8d60e34876f751cc8b014c560745351147d9de11b9347c854e881b128ea6028054831690911790557fed8d60e34876f751cc8b014c560745351147d9de11b9347c854e881b128ea60380548216739d6891a6240d6130c54ae243d8005063d05fe14b1790557f93ab6e17f2c461cce6ea5d4ec117e51dda77a64affc2b2c05f8cd440def0e70080549091167333347831500f1e73f0cccbb95c9f86b94d7b112317905551906001600160401b0382116105495768010000000000000000821161054957600c5482600c558083106105c3575b50600c5f5260205f205f5b8381106105a6578b8b600460208d8d8d8d8d8d60018060a01b0316610100528460e05260018060a01b031660805260018060a01b031660a05260c052600e5560405192838092638da5cb5b60e01b825260018060a01b03165afa90811561059b575f9161055d575b50601080546001600160a01b0319166001600160a01b0392909216919091179055519068010000000000000000821161054957600d5482600d558083106104c9575b5090600d5f5260205f205f925b82841061043057604051611837908161072282396080518181816101b101526104f9015260a051816102ed015260c05181610414015260e051816103560152610100518181816101140152818161029a0152610dfc015261012051816113a20152f35b8051805183546001600160a01b039182166001600160a01b0319918216178555602080840151600180880180546040880151606089015160b81b62ffffff60b81b1662ffffff60a01b60a09290921b919091169488166001600160d01b031990921691909117939093179290921790915560809094015160028701805491909416921691909117909155940193600390920191016103cd565b80600302906003820403610535578260030260038104840361053557600d5f527fd7b6990105719101dabeb77144f2a3385c8033acd3af97e9423a695e81ad1eb591820191015b81811061051d57506103c0565b805f600392555f60018201555f600282015501610510565b634e487b7160e01b5f52601160045260245ffd5b634e487b7160e01b5f52604160045260245ffd5b90506020813d602011610593575b81610578602093836106d3565b8101031261058f576105899061070d565b8361037e565b5f80fd5b3d915061056b565b6040513d5f823e3d90fd5b82516001600160a01b031681830155602090920191600101610316565b600c5f527fdf6966c971051c3d54ec59162606531493a51404a002842f56009d7e5cf4a8c79081019083015b8181106105fc575061030b565b5f81556001016105ef565b60a08483031261058f576040519060a082016001600160401b03811183821017610549576040526106378561070d565b82526106456020860161070d565b6020830152604085015162ffffff8116810361058f57604083015260608501518060020b810361058f5760608301526080850151906001600160a01b038216820361058f5782602092608060a095015281520193019261012f565b602080916106ad8461070d565b815201910190610083565b608081019081106001600160401b0382111761054957604052565b601f909101601f19168101906001600160401b0382119082101761054957604052565b6001600160401b0381116105495760051b60200190565b51906001600160a01b038216820361058f5756fe6080806040526004361015610012575f80fd5b5f905f3560e01c90816301ffc9a71461149f5750806305d7d94b14611335578063248a9ca314611303578063292a9cec146112095780632f2ff15d146111d857806335c995ec14610c6157806336568abe14610c2857806338f250ec14610bb25780634148fc4f14610b9e57806360c8d857146101e057806375696e7f1461019b57806391d148541461015f578063a217fddf14610143578063b6f67312146100fe5763d547741f146100c3575f80fd5b346100fb576100f76100d4366114f2565b906100f26100ed825f525f602052600160405f20015490565b61168e565b611781565b5080f35b80fd5b50346100fb57806003193601126100fb576040517f00000000000000000000000000000000000000000000000000000000000000006001600160a01b03168152602090f35b50346100fb57806003193601126100fb57602090604051908152f35b50346100fb576040610170366114f2565b9290815280602052209060018060a01b03165f52602052602060ff60405f2054166040519015158152f35b50346100fb57806003193601126100fb576040517f00000000000000000000000000000000000000000000000000000000000000006001600160a01b03168152602090f35b50346100fb5760403660031901126100fb577f93ab6e17f2c461cce6ea5d4ec117e51dda77a64affc2b2c05f8cd440def0e70054602435906001600160a01b031633036105b05760043582526009602052604082206040518080926020815493848152019086526020862092865b818110610b7c57505061026392500382611518565b6001600160a01b03906102759061158d565b5160405163040b850f60e31b8152306004820152602481018490526001600160a01b037f00000000000000000000000000000000000000000000000000000000000000001693929091169060208160448188885af18015610b7157610b44575b50604051630a7c1bd560e21b815260206004820152927f00000000000000000000000000000000000000000000000000000000000000006001600160a01b03169290858580610326602482016115e3565b0381875afa938415610b395786958795610a8e575b50600f869055604051634d1b7c9960e11b81526020816004817f00000000000000000000000000000000000000000000000000000000000000006001600160a01b03165afa8015610a83578890610a4f575b610398915084611625565b6103a4816011546115c2565b601155807fc472cb3a7a659a876494d66b3063145f279701771d6150b9329c31611ed6405c8980a28303928311610a3b57845194600c5486036109c457948551956103ee87611575565b966103fc6040519889611518565b80885261040b601f1991611575565b013660208901377f00000000000000000000000000000000000000000000000000000000000000006001600160a01b03169765ffffffffffff4262015180810191821693911091908b5b85811061090a5750505050505060125460ff811660ff81146108f657600160ff9101169060ff191617601255865b600c548110156104d0578061049a600192886115ae565b516104a482611643565b848060a01b0391549060031b1c168a5260136020526104c860408b209182546115c2565b905501610483565b5086945085601254600260ff8216146105b4575b505050506104f590600e5490611625565b90827f00000000000000000000000000000000000000000000000000000000000000006001600160a01b0316803b156105b0576040516340c10f1960e01b81526001600160a01b0384166004820152602481018590529082908290604490829084905af180156105a55761058c575b50807f6332ddaa8a69b5eb2524ec7ca317b7c2b01ecf678d584031415f81270977b8fc91a380f35b8161059691611518565b6105a1578284610564565b8280fd5b6040513d84823e3d90fd5b5080fd5b60ff191660125542603c81019695929390871092865b600c548110156108bd57600d548110156108a957600d88526040516003820260a0820167ffffffffffffffff8111838210176108955760409081527fd7b6990105719101dabeb77144f2a3385c8033acd3af97e9423a695e81ad1eb58201546001600160a01b0390811684527fd7b6990105719101dabeb77144f2a3385c8033acd3af97e9423a695e81ad1eb68301548082166020860190815260a082901c62ffffff1693860193845260b89190911c60020b606086019081527fd7b6990105719101dabeb77144f2a3385c8033acd3af97e9423a695e81ad1eb7909401549091166080850190815290926106be86611643565b60018060a01b0391549060031b1c168d52601360205260408d2054928b60206106e689611643565b9054604051630681320d60e51b815260039290921b1c6001600160a01b0316600482015291829060249082905afa8015610888578f9086919061084f575b61072e925061165b565b94600986029580870460091490151715610828576001600160801b03851161083c578b61082857604051630abff6dd60e11b815296516001600160a01b039081166004890152905181166024880152905162ffffff166044870152905160020b606486015290511660848401526001600160801b0390811660a4840152600a9091041660c482015260e481018a905260016101048201526101248101849052602081610144818c895af1801561081d5790600192916107ef575b50016105ca565b61080f9060203d8111610816575b6108078183611518565b810190611566565b508a6107e8565b503d6107fd565b6040513d8b823e3d90fd5b634e487b7160e01b8f52601160045260248ffd5b628af7f560e11b8f52600485905260248ffd5b50506020813d8211610880575b8161086960209383611518565b8101031261087c578461072e9151610724565b5f80fd5b3d915061085c565b8f604051903d90823e3d90fd5b634e487b7160e01b8b52604160045260248bfd5b634e487b7160e01b88526032600452602488fd5b50959650505050506104f5907ff2a32d2d88a573f9ff9679e9796f679899817d433b3e223985b14e3cc74a72cb8480a1908480806104e4565b634e487b7160e01b89526011600452602489fd5b6109278361092261091b84866115ae565b518c61165b565b611625565b610931828d6115ae565b528361093c82611643565b90546001600160a01b0360039290921b1c81169061095a848f6115ae565b51169161082857908e918e3b156105a1578e916064849283604051958694859363267b14bd60e01b8552600485015260248401528c60448401525af180156105a5576109ab575b5050600101610455565b816109b591611518565b6109c0578c5f6109a1565b8c80fd5b60405162461bcd60e51b815260206004820152604360248201527f446973726570616e6379206265747765656e206e756d626572206f66206d617260448201527f6b6574206361707320616e64206e756d626572206f6620696e64657820746f6b606482015262656e7360e81b608482015260a490fd5b634e487b7160e01b87526011600452602487fd5b506020813d602011610a7b575b81610a6960209383611518565b8101031261087c57610398905161038d565b3d9150610a5c565b6040513d8a823e3d90fd5b955093503d8087873e610aa18187611518565b850194604081870312610b355780519060208101519067ffffffffffffffff8211610b3157019580601f88011215610b2d578651610ade81611575565b97610aec604051998a611518565b8189526020808a019260051b820101928311610b2957602001905b828210610b195750505094935f61033b565b8151815260209182019101610b07565b8980fd5b8780fd5b8880fd5b8680fd5b6040513d88823e3d90fd5b610b659060203d602011610b6a575b610b5d8183611518565b81019061154e565b6102d5565b503d610b53565b6040513d87823e3d90fd5b84546001600160a01b031683526001948501948694506020909301920161024e565b50346100fb57806003193601126100fb5780f35b50346100fb57806003193601126100fb5760405190610bdb82610bd4816115e3565b0383611518565b604051918291602083016020845282518091526020604085019301915b818110610c06575050500390f35b82516001600160a01b0316845285945060209384019390920191600101610bf8565b50346100fb57610c37366114f2565b90336001600160a01b03831603610c5257906100f791611781565b63334bd91960e11b8352600483fd5b503461087c57604036600319011261087c5760243567ffffffffffffffff811161087c573660238201121561087c57806004013567ffffffffffffffff811161087c57366024828401011161087c5760a491602091610cbe61166e565b5f8360405192610cd782601f19601f8401160185611518565b808452806024838601960186378301015260018060a01b037fed8d60e34876f751cc8b014c560745351147d9de11b9347c854e881b128ea6015416905f6040519586809581946302e817ff60e41b83526004356004840152336024840152608060448401525180918160848501528484015e8181018301849052600160fb1b6064830152601f01601f191681010301925af190811561119b575f916111a6575b507fed8d60e34876f751cc8b014c560745351147d9de11b9347c854e881b128ea600546001600160a01b0316803b1561087c575f80916044604051809481936346ce4e4960e11b83528760048401523360248401525af1801561119b57611186575b506040516323b872dd60e01b8152336004820152306024820152604481018290527f00000000000000000000000000000000000000000000000000000000000000006001600160a01b03169060208160648187865af190811561114d578491611167575b501561115857604051630cf4e94560e31b8152602081600481855afa90811561114d57849161111b575b505f1981019081116110b05760209060246040518094819363a5184baf60e01b835260048301525afa80156111105783906110d3575b60ff9150166110c457604090815190610eb68383611518565b60018252601f198301366020840137610ece8261158d565b5260644201908142116110b0577fed8d60e34876f751cc8b014c560745351147d9de11b9347c854e881b128ea6005484906001600160a01b0316803b156105b057818551809263155f840160e21b825260206004830152818381610f35602482018a61174e565b03925af180156110a65761108d575b50507f93ab6e17f2c461cce6ea5d4ec117e51dda77a64affc2b2c05f8cd440def0e700548351634c0d927760e01b815260a060048201529260209284926001600160a01b031691839188918391610f9f9060a484019061174e565b906360c8d85760e01b6024840152836044840152606483015282608483015203925af190811561108157839161104f575b508252600960205281208054906801000000000000000082101561103b5760018201808255821015611027578252602082200180546001600160a01b03600384901b90811b199091163390911b1790556001805580f35b634e487b7160e01b83526032600452602483fd5b634e487b7160e01b83526041600452602483fd5b90506020813d602011611079575b8161106a60209383611518565b8101031261087c57515f610fd0565b3d915061105d565b505051903d90823e3d90fd5b8161109791611518565b6110a257835f610f44565b8380fd5b85513d84823e3d90fd5b634e487b7160e01b84526011600452602484fd5b6312171d8360e31b8252600482fd5b506020813d602011611108575b816110ed60209383611518565b810103126105a1575160ff811681036105a15760ff90610e9d565b3d91506110e0565b6040513d85823e3d90fd5b90506020813d602011611145575b8161113660209383611518565b8101031261087c57515f610e67565b3d9150611129565b6040513d86823e3d90fd5b6312171d8360e31b8352600483fd5b611180915060203d602011610b6a57610b5d8183611518565b5f610e3d565b6111939192505f90611518565b5f905f610dd9565b6040513d5f823e3d90fd5b90506020813d6020116111d0575b816111c160209383611518565b8101031261087c57515f610d77565b3d91506111b4565b3461087c576112076111e9366114f2565b906112026100ed825f525f602052600160405f20015490565b6116c6565b005b3461087c57604036600319011261087c576004356024358015150361087c5780156112be577fed8d60e34876f751cc8b014c560745351147d9de11b9347c854e881b128ea60154604051631ce2e8d760e31b81526004810192909252600160fb1b6024830152602090829060449082905f906001600160a01b03165af1801561119b5761129257005b6020813d6020116112b6575b816112ab60209383611518565b8101031261087c5751005b3d915061129e565b60405162461bcd60e51b815260206004820152601d60248201527f416d6f756e74206d7573742062652067726561746572207468616e20300000006044820152606490fd5b3461087c57602036600319011261087c57602061132d6004355f525f602052600160405f20015490565b604051908152f35b3461087c575f36600319011261087c576010546001600160a01b031633036114435761135f61166e565b6011541561140c575f601181905560105460405163a9059cbb60e01b81526001600160a01b039182166004820152602481018390529160209183916044918391907f0000000000000000000000000000000000000000000000000000000000000000165af190811561119b575f916113ed575b50156113de5760018055005b6312171d8360e31b5f5260045ffd5b611406915060203d602011610b6a57610b5d8183611518565b816113d2565b60405162461bcd60e51b815260206004820152600f60248201526e139bc81999595cc81d1bc81cd95b99608a1b6044820152606490fd5b60405162461bcd60e51b815260206004820152602e60248201527f4f6e6c79207468652070726f746f636f6c206f776e65722063616e2063616c6c60448201526d103a3434b990333ab731ba34b7b760911b6064820152608490fd5b3461087c57602036600319011261087c576004359063ffffffff60e01b821680920361087c57602091637965db0b60e01b81149081156114e1575b5015158152f35b6301ffc9a760e01b149050836114da565b604090600319011261087c57600435906024356001600160a01b038116810361087c5790565b90601f8019910116810190811067ffffffffffffffff82111761153a57604052565b634e487b7160e01b5f52604160045260245ffd5b9081602091031261087c5751801515810361087c5790565b9081602091031261087c575190565b67ffffffffffffffff811161153a5760051b60200190565b80511561159a5760200190565b634e487b7160e01b5f52603260045260245ffd5b805182101561159a5760209160051b010190565b919082018092116115cf57565b634e487b7160e01b5f52601160045260245ffd5b6020600c54918281520190600c5f5260205f20905f5b8181106116065750505090565b82546001600160a01b03168452602090930192600192830192016115f9565b811561162f570490565b634e487b7160e01b5f52601260045260245ffd5b600c5481101561159a57600c5f5260205f2001905f90565b818102929181159184041417156115cf57565b60026001541461167f576002600155565b633ee5aeb560e01b5f5260045ffd5b5f8181526020818152604080832033845290915290205460ff16156116b05750565b63e2517d3f60e01b5f523360045260245260445ffd5b5f818152602081815260408083206001600160a01b038616845290915290205460ff16611748575f818152602081815260408083206001600160a01b0395909516808452949091528120805460ff19166001179055339291907f2f8788117e7eff1d82e926ec794901d17c78024a50270940304540a733656f0d9080a4600190565b50505f90565b90602080835192838152019201905f5b81811061176b5750505090565b825184526020938401939092019160010161175e565b5f818152602081815260408083206001600160a01b038616845290915290205460ff1615611748575f818152602081815260408083206001600160a01b0395909516808452949091528120805460ff19169055339291907ff6391f5c32d9c69d2a47ea670b442974b53935d1edc7fd64eb21e047a839171b9080a460019056fea26469706673582212207de69e8d48c83d51dac15eb9f70ae426532e2a85fe5d49538c6700117187d28364736f6c634300081a0033","linkReferences":{}},"methodIdentifiers":{"DEFAULT_ADMIN_ROLE()":"a217fddf","burnShares(uint256,bool)":"292a9cec","computeShareValue()":"4148fc4f","getIndexFundToken()":"75696e7f","getIndexTokens()":"38f250ec","getRoleAdmin(bytes32)":"248a9ca3","getStablecoin()":"b6f67312","grantRole(bytes32,address)":"2f2ff15d","hasRole(bytes32,address)":"91d14854","mintShares(bytes32,bytes)":"35c995ec","mintSharesCallback(uint256,uint256)":"60c8d857","renounceRole(bytes32,address)":"36568abe","revokeRole(bytes32,address)":"d547741f","sendFeesToProtocolOwner()":"05d7d94b","supportsInterface(bytes4)":"01ffc9a7"},"id":0}