{"abi":[{"type":"constructor","inputs":[{"name":"_indexTokens","type":"address[]","internalType":"address[]"},{"name":"_stablecoin","type":"address","internalType":"address"},{"name":"_decypheredStablecoin","type":"address","internalType":"address"},{"name":"_indexFundFactory","type":"address","internalType":"address"},{"name":"_indexFundToken","type":"address","internalType":"address"},{"name":"_marketDataFetcher","type":"address","internalType":"address"},{"name":"_swapsManagerProxy","type":"address","internalType":"address"},{"name":"_initialSharePrice","type":"uint256","internalType":"uint256"},{"name":"_poolKeys","type":"tuple[]","internalType":"struct PoolKey[]","components":[{"name":"currency0","type":"address","internalType":"Currency"},{"name":"currency1","type":"address","internalType":"Currency"},{"name":"fee","type":"uint24","internalType":"uint24"},{"name":"tickSpacing","type":"int24","internalType":"int24"},{"name":"hooks","type":"address","internalType":"contract IHooks"}]}],"stateMutability":"nonpayable"},{"type":"function","name":"DEFAULT_ADMIN_ROLE","inputs":[],"outputs":[{"name":"","type":"bytes32","internalType":"bytes32"}],"stateMutability":"view"},{"type":"function","name":"burnShares","inputs":[{"name":"encryptedAmount","type":"bytes32","internalType":"einput"},{"name":"encryptedRedeemIndexTokens","type":"bytes32","internalType":"einput"},{"name":"inputProof","type":"bytes","internalType":"bytes"}],"outputs":[],"stateMutability":"nonpayable"},{"type":"function","name":"burnSharesCallback","inputs":[{"name":"requestID","type":"uint256","internalType":"uint256"},{"name":"transferErrorCode","type":"uint8","internalType":"uint8"},{"name":"decryptedAmount","type":"uint64","internalType":"uint64"},{"name":"redeemIndexTokens","type":"bool","internalType":"bool"},{"name":"hasUserEnoughSharesToBurn","type":"bool","internalType":"bool"}],"outputs":[],"stateMutability":"nonpayable"},{"type":"function","name":"computeShareValue","inputs":[],"outputs":[{"name":"shareValue","type":"uint256","internalType":"uint256"}],"stateMutability":"view"},{"type":"function","name":"getIndexFundToken","inputs":[],"outputs":[{"name":"","type":"address","internalType":"contract IndexFundToken"}],"stateMutability":"view"},{"type":"function","name":"getIndexTokens","inputs":[],"outputs":[{"name":"","type":"address[]","internalType":"address[]"}],"stateMutability":"view"},{"type":"function","name":"getRoleAdmin","inputs":[{"name":"role","type":"bytes32","internalType":"bytes32"}],"outputs":[{"name":"","type":"bytes32","internalType":"bytes32"}],"stateMutability":"view"},{"type":"function","name":"getStablecoin","inputs":[],"outputs":[{"name":"","type":"address","internalType":"contract ConfidentialERC20WithErrorsWrapped"}],"stateMutability":"view"},{"type":"function","name":"grantRole","inputs":[{"name":"role","type":"bytes32","internalType":"bytes32"},{"name":"account","type":"address","internalType":"address"}],"outputs":[],"stateMutability":"nonpayable"},{"type":"function","name":"hasRole","inputs":[{"name":"role","type":"bytes32","internalType":"bytes32"},{"name":"account","type":"address","internalType":"address"}],"outputs":[{"name":"","type":"bool","internalType":"bool"}],"stateMutability":"view"},{"type":"function","name":"mintShares","inputs":[{"name":"encryptedAmount","type":"bytes32","internalType":"einput"},{"name":"inputProof","type":"bytes","internalType":"bytes"}],"outputs":[],"stateMutability":"nonpayable"},{"type":"function","name":"mintSharesCallback","inputs":[{"name":"requestID","type":"uint256","internalType":"uint256"},{"name":"transferErrorCode","type":"uint8","internalType":"uint8"},{"name":"decryptedAmount","type":"uint64","internalType":"uint64"}],"outputs":[],"stateMutability":"nonpayable"},{"type":"function","name":"renounceRole","inputs":[{"name":"role","type":"bytes32","internalType":"bytes32"},{"name":"callerConfirmation","type":"address","internalType":"address"}],"outputs":[],"stateMutability":"nonpayable"},{"type":"function","name":"revokeRole","inputs":[{"name":"role","type":"bytes32","internalType":"bytes32"},{"name":"account","type":"address","internalType":"address"}],"outputs":[],"stateMutability":"nonpayable"},{"type":"function","name":"sendFeesToProtocolOwner","inputs":[],"outputs":[],"stateMutability":"nonpayable"},{"type":"function","name":"supportsInterface","inputs":[{"name":"interfaceId","type":"bytes4","internalType":"bytes4"}],"outputs":[{"name":"","type":"bool","internalType":"bool"}],"stateMutability":"view"},{"type":"event","name":"BurnSwapsPerformed","inputs":[],"anonymous":false},{"type":"event","name":"FeeCollected","inputs":[{"name":"feeAmount","type":"uint256","indexed":true,"internalType":"uint256"}],"anonymous":false},{"type":"event","name":"IndexTokensRedeemed","inputs":[],"anonymous":false},{"type":"event","name":"MintSwapsPerformed","inputs":[],"anonymous":false},{"type":"event","name":"RoleAdminChanged","inputs":[{"name":"role","type":"bytes32","indexed":true,"internalType":"bytes32"},{"name":"previousAdminRole","type":"bytes32","indexed":true,"internalType":"bytes32"},{"name":"newAdminRole","type":"bytes32","indexed":true,"internalType":"bytes32"}],"anonymous":false},{"type":"event","name":"RoleGranted","inputs":[{"name":"role","type":"bytes32","indexed":true,"internalType":"bytes32"},{"name":"account","type":"address","indexed":true,"internalType":"address"},{"name":"sender","type":"address","indexed":true,"internalType":"address"}],"anonymous":false},{"type":"event","name":"RoleRevoked","inputs":[{"name":"role","type":"bytes32","indexed":true,"internalType":"bytes32"},{"name":"account","type":"address","indexed":true,"internalType":"address"},{"name":"sender","type":"address","indexed":true,"internalType":"address"}],"anonymous":false},{"type":"event","name":"SharesBurned","inputs":[{"name":"user","type":"address","indexed":true,"internalType":"address"},{"name":"amount","type":"uint256","indexed":true,"internalType":"uint256"}],"anonymous":false},{"type":"event","name":"SharesMinted","inputs":[{"name":"user","type":"address","indexed":true,"internalType":"address"},{"name":"amount","type":"uint256","indexed":true,"internalType":"uint256"}],"anonymous":false},{"type":"error","name":"AccessControlBadConfirmation","inputs":[]},{"type":"error","name":"AccessControlUnauthorizedAccount","inputs":[{"name":"account","type":"address","internalType":"address"},{"name":"neededRole","type":"bytes32","internalType":"bytes32"}]},{"type":"error","name":"AmountToSwapTooBig","inputs":[{"name":"amountToSwap","type":"uint256","internalType":"uint256"}]},{"type":"error","name":"InsufficientAllowance","inputs":[{"name":"token","type":"address","internalType":"address"}]},{"type":"error","name":"ReentrancyGuardReentrantCall","inputs":[]},{"type":"error","name":"SharesToBurnAmountTooBig","inputs":[{"name":"amountToBurn","type":"uint256","internalType":"uint256"}]},{"type":"error","name":"SharesToMintAmountTooBig","inputs":[{"name":"amountToMint","type":"uint256","internalType":"uint256"}]},{"type":"error","name":"TransferFailed","inputs":[]},{"type":"error","name":"UserShareBalanceTooSmall","inputs":[{"name":"user","type":"address","internalType":"address"},{"name":"amountToBurn","type":"uint256","internalType":"uint256"}]}],"bytecode":{"object":"0x61014080604052346105ff57613028803803809161001d8285610743565b8339810190610120818303126105ff5780516001600160401b0381116105ff5781019082601f830112156105ff5781519061005782610766565b926100656040519485610743565b828452602084016020819460051b830101918683116105ff57602001905b828210610710575050506100996020820161077d565b916100a66040830161077d565b926100b36060840161077d565b936100c06080850161077d565b906100cd60a0860161077d565b926100da60c0870161077d565b60e087015161010088015190979196916001600160401b0382116105ff5701988a601f8b0112156105ff5789519a6101118c610766565b9a61011f6040519c8d610743565b8c8c5260208c0191602060a0849f02830101918183116105ff57602001925b8284106106775750505050600180555f606060405161015c81610728565b8281528260208201528260408201520152739d6891a6240d6130c54ae243d8005063d05fe14b606060405161019081610728565b73fee8407e2f5e3ee68ad77cae98c434e637f516e580825273687408ab54661ba0b4aef3a44156c616c6955e076020830181905273fb03be574d14c256d56f09a198b586bdfc0a9de26040840181905293909201939093527fed8d60e34876f751cc8b014c560745351147d9de11b9347c854e881b128ea60080546001600160a01b031990811690941790557fed8d60e34876f751cc8b014c560745351147d9de11b9347c854e881b128ea6018054841690911790557fed8d60e34876f751cc8b014c560745351147d9de11b9347c854e881b128ea6028054831690911790557fed8d60e34876f751cc8b014c560745351147d9de11b9347c854e881b128ea60380548216739d6891a6240d6130c54ae243d8005063d05fe14b1790557f93ab6e17f2c461cce6ea5d4ec117e51dda77a64affc2b2c05f8cd440def0e70080549091167333347831500f1e73f0cccbb95c9f86b94d7b112317905551906001600160401b0382116105b9576801000000000000000082116105b957600c5482600c55808310610633575b50600c5f5260205f205f5b838110610616578c8c600460208e8e8e8e8e8e8e60018060a01b03166101005260018060a01b0316610120528460e05260018060a01b031660805260018060a01b031660a05260c052600e5560405192838092638da5cb5b60e01b825260018060a01b03165afa90811561060b575f916105cd575b50601080546001600160a01b0319166001600160a01b039290921691909117905551906801000000000000000082116105b957600d5482600d55808310610539575b5090600d5f5260205f205f925b8284106104a0576040516128969081610792823960805181818161019201528181610c93015281816114cf0152818161195101526119a2015260a05181818161040101528181610ac901528181610e2301526119c6015260c05181818161052e01528181610f3d0152818161110b0152611162015260e05181610b1e0152610100518181816106220152818161093501528181610a1e01528181610a6a01528181610f070152611d3a0152610120518161206a0152f35b8051805183546001600160a01b039182166001600160a01b0319918216178555602080840151600180880180546040880151606089015160b81b62ffffff60b81b1662ffffff60a01b60a09290921b919091169488166001600160d01b031990921691909117939093179290921790915560809094015160028701805491909416921691909117909155940193600390920191016103e9565b806003029060038204036105a557826003026003810484036105a557600d5f527fd7b6990105719101dabeb77144f2a3385c8033acd3af97e9423a695e81ad1eb591820191015b81811061058d57506103dc565b805f600392555f60018201555f600282015501610580565b634e487b7160e01b5f52601160045260245ffd5b634e487b7160e01b5f52604160045260245ffd5b90506020813d602011610603575b816105e860209383610743565b810103126105ff576105f99061077d565b8361039a565b5f80fd5b3d91506105db565b6040513d5f823e3d90fd5b82516001600160a01b031681830155602090920191600101610325565b600c5f527fdf6966c971051c3d54ec59162606531493a51404a002842f56009d7e5cf4a8c79081019083015b81811061066c575061031a565b5f815560010161065f565b60a0848303126105ff576040519060a082016001600160401b038111838210176105b9576040526106a78561077d565b82526106b56020860161077d565b6020830152604085015162ffffff811681036105ff57604083015260608501518060020b81036105ff5760608301526080850151906001600160a01b03821682036105ff5782602092608060a095015281520193019261013e565b6020809161071d8461077d565b815201910190610083565b608081019081106001600160401b038211176105b957604052565b601f909101601f19168101906001600160401b038211908210176105b957604052565b6001600160401b0381116105b95760051b60200190565b51906001600160a01b03821682036105ff5756fe6080806040526004361015610012575f80fd5b5f905f3560e01c90816301ffc9a7146121675750806305d7d94b14611ffd578063248a9ca314611fcb5780632f2ff15d14611f9a57806335c995ec14611cca57806336568abe14611c9157806338f250ec14611c1b5780634148fc4f1461198057806375696e7f1461193b5780639134867c1461138c57806391d148541461135057806397771de514610980578063a217fddf14610964578063b6f673121461091f578063d547741f146108e65763fcb74a45146100ce575f80fd5b346108e35760a03660031901126108e3576100e761220d565b6100ef61221d565b906064359182151583036108df57608435918215928315036108db5761011361247b565b5f80516020612821833981519152546001600160a01b031633036108db5760ff166108cc576001600160401b0316916001600160401b0383116108b85760043584526009602052610170610177604086206040519283809261237f565b0382612233565b6001600160a01b0390610189906122eb565b5116916108a1577f00000000000000000000000000000000000000000000000000000000000000006001600160a01b03169184833b1561089d5785604051634edf56a160e11b81528660048201528181602481838a5af180156106e857610888575b505084337fdb79cc492679ef2624944d6ed3cdbad5b974b5550de330ae18922f2944eec78a8880a385805b600c5481101561088057610229816123bf565b905460039190911b1c6001600160a01b03168015610838576040516370a0823160e01b8152306004820152602081602481855afa801561082d57899185916107f3575b5090610277916123f0565b6040516318160ddd60e01b8152906020826004818c5afa9182156107e8576102b1926001600160401b039187916107ba575b501690612411565b861561034f57906044602092604051958693849263a9059cbb60e01b84528a600485015260248401525af191821561034457600192610318575b507ee2d681c483528119b71f74ebcd6ad9dd9ca7fd71ea2245aa2362e27d3f2eb68880a15b018690610216565b6103389060203d811161033d575b6103308183612233565b810190612268565b6102eb565b503d610326565b6040513d8a823e3d90fd5b918094935061035e91506123bf565b60018060a01b0391549060031b1c1660125461ff0061038260ff8360081c1661244e565b60081b169061ff001916176012558089526014602052604089206103a7838254612330565b9055601254600260ff8260081c16146103c7575b50505090600190610310565b61ff0019166012558089526014602052604089205491816107545760125b604051630681320d60e51b8152600481018490526020816024817f00000000000000000000000000000000000000000000000000000000000000006001600160a01b03165afa908115610749578c91610718575b506009810290808204600914901517156106f35790610467600a6104608761046d956123f0565b0491612403565b90612411565b926001600160801b03811161070757506104868561245f565b5092603c4201918242116106f3578b949392916001600160801b03809260405196630abff6dd60e11b885260018060a01b038154166004890152600181015460018060a01b03811660248a015262ffffff8160a01c1660448a015260b81c60020b6064890152600260018060a01b039101541660848801521660a48601521660c484015260e48301526001610104830152610124820152602081610144818560018060a01b037f0000000000000000000000000000000000000000000000000000000000000000165af19081156106e85782916106b2575b506105699192612330565b917f875fc5b1c93e96a85172e0d2b74fcdb6f314c3460e99e6a7da8743bc8b75e37c8280a18261059d575b91905f806103bb565b5f8051602061284183398151915254604051631ce2e8d760e31b815260048101859052600560f81b60248201529260209184916044918391906001600160a01b03165af191821561034457889261067a575b506040516323b872dd60e01b815230600482015233602482015260448101929092526020826064818b6001600160a01b037f0000000000000000000000000000000000000000000000000000000000000000165af19182156103445760019261065c575b50879150610594565b6106739060203d811161033d576103308183612233565b505f610653565b91506020823d82116106aa575b8161069460209383612233565b810103126106a65790519060206105ef565b5f80fd5b3d9150610687565b9150506020813d82116106e0575b816106cd60209383612233565b810103126106a65751879061056961055e565b3d91506106c0565b6040513d84823e3d90fd5b634e487b7160e01b8c52601160045260248cfd5b628af7f560e11b8b5260045260248afd5b90506020813d8211610741575b8161073260209383612233565b810103126106a657515f610439565b3d9150610725565b6040513d8e823e3d90fd5b60405163313ce56760e01b8152602081600481865afa80156107af5760ff918c91610781575b50166103e5565b6107a2915060203d81116107a8575b61079a8183612233565b8101906123d7565b5f61077a565b503d610790565b6040513d8d823e3d90fd5b6107db915060203d81116107e1575b6107d38183612233565b81019061242f565b5f6102a9565b503d6107c9565b6040513d87823e3d90fd5b945050506020833d8211610825575b8161080f60209383612233565b810103126106a657610277888a9451909161026c565b3d9150610802565b6040513d86823e3d90fd5b61084288476123f0565b6040516318160ddd60e01b8152906020826004818c5afa9182156107e85761087b926001600160401b039187916107ba57501690612411565b6102b1565b506001805580f35b8161089291612233565b61089d57855f6101eb565b8580fd5b6044848484637655665160e11b8352600452602452fd5b632dd1ea2160e11b84526004839052602484fd5b6312171d8360e31b8452600484fd5b8480fd5b8380fd5b80fd5b50346108e35761091b6108f8366121ba565b90610916610911825f525f602052600160405f20015490565b61249b565b6125e3565b5080f35b50346108e357806003193601126108e3576040517f00000000000000000000000000000000000000000000000000000000000000006001600160a01b03168152602090f35b50346108e357806003193601126108e357602090604051908152f35b50346108e35760603660031901126108e35761099a61220d565b6109a261221d565b6109aa61247b565b5f80516020612821833981519152546001600160a01b03163303610d32576004358352600960205260ff6101706109ea604086206040519283809261237f565b6001600160a01b03906109fc906122eb565b51169216611341576001600160401b0316906001600160401b03821161132d577f00000000000000000000000000000000000000000000000000000000000000006001600160a01b03163b15610d325760405163dc412e8360e01b81526004810183905283908181602481837f00000000000000000000000000000000000000000000000000000000000000006001600160a01b03165af180156106e857611318575b5050604051630a7c1bd560e21b81526020600482015290838280610ac56024820161233d565b03817f00000000000000000000000000000000000000000000000000000000000000006001600160a01b03165afa91821561082d5784908593611279575b50600f819055604051634d1b7c9960e11b81526020816004817f00000000000000000000000000000000000000000000000000000000000000006001600160a01b03165afa8015610fa3578690611245575b610b60915085612411565b610b6c81601154612330565b601155807fc472cb3a7a659a876494d66b3063145f279701771d6150b9329c31611ed6405c8780a28403938411611231578251600c5481036111ba5790835193610bb5856122d4565b94610bc36040519687612233565b808652610bd2601f19916122d4565b0136602087013786916201518042019165ffffffffffff8342119316935b8581106110ae5750505050505060125460ff610c0d81831661244e565b169060ff191617601255835b600c54811015610c665780610c306001928561231c565b51610c3a826123bf565b848060a01b0391549060031b1c1687526013602052610c5e60408820918254612330565b905501610c19565b848285601254600260ff821614610d3a575b50610c8e6001600160401b0391600e5490612411565b1690827f00000000000000000000000000000000000000000000000000000000000000006001600160a01b0316803b15610d36578180916044604051809481936302893c5b60e41b83528860048401528960248401525af180156106e857610d1d575b50807f6332ddaa8a69b5eb2524ec7ca317b7c2b01ecf678d584031415f81270977b8fc91a36001805580f35b81610d2791612233565b610d32578284610cf1565b8280fd5b5080fd5b60ff19166012559042603c81011090835b600c5481101561107357610d5e816123bf565b905460039190911b1c6001600160a01b031690610d7a8161245f565b506040519260a084018481106001600160401b0382111761105f5760405260018060a01b038254168452600182015491602085019260018060a01b0381168452604086019162ffffff8260a01c168352606087019160b81c60020b8252600260018060a01b03910154169160808701928352838b52601360205260408b20549380155f14611011576012905b604051630681320d60e51b815260048101919091526020816024817f00000000000000000000000000000000000000000000000000000000000000006001600160a01b03165afa908115611006578d91610fd5575b50600981029080820460091490151715610fc15790610467600a61046088610e82956123f0565b946001600160801b038511610fae57896106f357604051630abff6dd60e11b815297516001600160a01b0390811660048a0152905181166024890152905162ffffff166044880152905160020b60648701529051811660848601526001600160801b0391821660a4860152911660c484015242603c0160e484015260016101048401527f0000000000000000000000000000000000000000000000000000000000000000811661012484015260209083906101449082908a907f0000000000000000000000000000000000000000000000000000000000000000165af1918215610fa357600192610f75575b5001610d4b565b610f959060203d8111610f9c575b610f8d8183612233565b8101906122c5565b5086610f6e565b503d610f83565b6040513d88823e3d90fd5b628af7f560e11b8c52600485905260248cfd5b634e487b7160e01b8d52601160045260248dfd5b90506020813d8211610ffe575b81610fef60209383612233565b810103126106a657518d610e5b565b3d9150610fe2565b6040513d8f823e3d90fd5b60405163313ce56760e01b81528c90602081600481865afa9081156106e85760ff9291611041575b501690610e06565b611059915060203d81116107a85761079a8183612233565b8e611039565b634e487b7160e01b89526041600452602489fd5b50916001600160401b039150610c8e907f79154593ad5827af96f232d8b081e8d48c8bad62e5314fd67880b9880b4812408580a19150610c78565b6110cb836110c66110bf848661231c565b518c6123f0565b612411565b6110d5828a61231c565b526110df816123bf565b90546001600160a01b0360039290921b1c81169085906110ff848c61231c565b5116906106f3578b91907f00000000000000000000000000000000000000000000000000000000000000006001600160a01b03163b15610d325760405163267b14bd60e01b815260048101929092526024820152604481018790528181606481837f00000000000000000000000000000000000000000000000000000000000000006001600160a01b03165af180156106e8576111a1575b5050600101610bf0565b816111ab91612233565b6111b657895f611197565b8980fd5b60405162461bcd60e51b815260206004820152604360248201527f446973726570616e6379206265747765656e206e756d626572206f66206d617260448201527f6b6574206361707320616e64206e756d626572206f6620696e64657820746f6b606482015262656e7360e81b608482015260a490fd5b634e487b7160e01b85526011600452602485fd5b506020813d602011611271575b8161125f60209383612233565b810103126106a657610b609051610b55565b3d9150611252565b9250503d8085843e61128b8184612233565b8201916040818403126108db578051906020810151906001600160401b03821161131457019280601f8501121561089d5783516112c7816122d4565b946112d56040519687612233565b81865260208087019260051b82010192831161131057602001905b828210611300575050505f610b03565b81518152602091820191016112f0565b8780fd5b8680fd5b8161132291612233565b610d3257825f610a9f565b63dcba2f6b60e01b83526004829052602483fd5b6312171d8360e31b8352600483fd5b50346108e3576040611361366121ba565b9290815280602052209060018060a01b03165f52602052602060ff60405f2054166040519015158152f35b50346108e35760603660031901126108e3576044356001600160401b038111610d36576113ed6020806113c560a49436906004016121e0565b93906113cf61247b565b6113e56113dd368784612280565b600435612663565b943691612280565b60018060a01b035f80516020612841833981519152541690866040519687809581946302e817ff60e41b83526024356004840152336024840152608060448401528051918291826084860152018484015e83838284010152836064830152601f801991011681010301925af19182156119305783926118fc575b505f805160206128018339815191525483906001600160a01b0316803b15610d36578180916044604051809481936346ce4e4960e11b83528960048401523360248401525af180156106e8576118e7575b50506040516370a0823160e01b81523360048201527f00000000000000000000000000000000000000000000000000000000000000006001600160a01b0316929091602083602481875afa9283156107e85785936118b3575b5082819382156118a3575b15611891575b602090606460018060a01b035f805160206128418339815191525416958860405197889485936334a6d7b960e11b8552600485015260248401528160448401525af19283156107e857859361185d575b506040516323b872dd60e01b81523360048201523060248201526044810182905260208160648189895af18015610fa357611840575b50604051630cf4e94560e31b8152602081600481885afa908115610fa357869161180e575b505f1981019081116117fa5760209060246040518097819363a5184baf60e01b835260048301525afa9384156107e85785946117c6575b506040519361161460a086612233565b600485526080366020870137611629856122eb565b526116338461230c565b528251600210156117b257606083015281516003101561179e576080820152606442019081421161178a575f805160206128018339815191525483906001600160a01b0316803b15610d365781604051809263155f840160e21b8252602060048301528183816116a6602482018a61255b565b03925af180156106e857611775575b50505f8051602061282183398151915254604051634c0d927760e01b815260a060048201529260209284926001600160a01b0316918391879183916116fe9060a484019061255b565b9063fcb74a4560e01b6024840152836044840152606483015282608483015203925af180156106e8578290611741575b61173a9150339061258e565b6001805580f35b506020813d60201161176d575b8161175b60209383612233565b810103126106a65761173a905161172e565b3d915061174e565b8161177f91612233565b610d3257825f6116b5565b634e487b7160e01b83526011600452602483fd5b634e487b7160e01b83526032600452602483fd5b634e487b7160e01b84526032600452602484fd5b9093506020813d6020116117f2575b816117e260209383612233565b810103126106a65751925f611604565b3d91506117d5565b634e487b7160e01b86526011600452602486fd5b90506020813d602011611838575b8161182960209383612233565b810103126106a657515f6115cd565b3d915061181c565b6118589060203d60201161033d576103308183612233565b6115a8565b9092506020813d602011611889575b8161187960209383612233565b810103126106a65751915f611572565b3d915061186c565b50602061189c61277b565b9050611522565b93506118ad61277b565b9361151c565b9092506020813d6020116118df575b816118cf60209383612233565b810103126108db5751915f611511565b3d91506118c2565b816118f191612233565b610d3257825f6114b8565b9091506020813d602011611928575b8161191860209383612233565b810103126106a65751905f611467565b3d915061190b565b6040513d85823e3d90fd5b50346108e357806003193601126108e3576040517f00000000000000000000000000000000000000000000000000000000000000006001600160a01b03168152602090f35b50346108e357806003193601126108e357600c54819081906001600160a01b037f00000000000000000000000000000000000000000000000000000000000000008116907f000000000000000000000000000000000000000000000000000000000000000016835b8385106119fa57602086604051908152f35b909192939450611a09856123bf565b9054604051630681320d60e51b815260039290921b1c6001600160a01b0316600482015290602082602481865afa8015611b33578790611be9575b602492506020611a53886123bf565b90546040516370a0823160e01b81523060048201529586929091839160031b1c6001600160a01b03165afa928315610344578893611bb6575b5087611a97886123bf565b905460039190911b1c6001600160a01b0316611b3e5750611aca90610467611ac4611ad0956012936123f0565b91612403565b90612330565b6040516318160ddd60e01b8152602081600481875afa8015611b33576001600160401b03611b0a916001938a91611b15575b501683612411565b9501939291906119e8565b611b2d915060203d81116107e1576107d38183612233565b5f611b02565b6040513d89823e3d90fd5b9060046020611b4c8a6123bf565b905460405163313ce56760e01b81529384929091839160031b1c6001600160a01b03165afa90811561193057611ad09560ff61046793611ac493611aca9791611b98575b5016936123f0565b611bb0915060203d81116107a85761079a8183612233565b5f611b90565b9092506020813d8211611be1575b81611bd160209383612233565b810103126106a65751915f611a8c565b3d9150611bc4565b506020823d8211611c13575b81611c0260209383612233565b810103126106a65760249151611a44565b3d9150611bf5565b50346108e357806003193601126108e35760405190611c4482611c3d8161233d565b0383612233565b604051918291602083016020845282518091526020604085019301915b818110611c6f575050500390f35b82516001600160a01b0316845285945060209384019390920191600101611c61565b50346108e357611ca0366121ba565b90336001600160a01b03831603611cbb579061091b916125e3565b63334bd91960e11b8352600483fd5b50346106a65760403660031901126106a6576024356001600160401b0381116106a6576113dd611d01611d109236906004016121e0565b611d0961247b565b3691612280565b6040516323b872dd60e01b8152336004820152306024820152604481018290526001600160a01b037f00000000000000000000000000000000000000000000000000000000000000001691906020816064815f875af18015611ef857611f7d575b50604051630cf4e94560e31b8152602081600481865afa908115611ef8575f91611f4b575b505f198101908111611f035760209060246040518095819363a5184baf60e01b835260048301525afa918215611ef8575f92611f17575b5060405191611ddd606084612233565b600283526040366020850137611df2836122eb565b52611dfc8261230c565b526064420190814211611f03575f80516020612801833981519152546001600160a01b0316803b156106a6575f604051809263155f840160e21b825260206004830152818381611e4f602482018961255b565b03925af18015611ef857611ee1575b505f8051602061282183398151915254604051634c0d927760e01b815260a060048201529260209284926001600160a01b031691839187918391611ea69060a484019061255b565b906397771de560e01b6024840152836044840152606483015282608483015203925af180156106e85782906117415761173a9150339061258e565b611eee9193505f90612233565b5f91611ea6611e5e565b6040513d5f823e3d90fd5b634e487b7160e01b5f52601160045260245ffd5b9091506020813d602011611f43575b81611f3360209383612233565b810103126106a65751905f611dcd565b3d9150611f26565b90506020813d602011611f75575b81611f6660209383612233565b810103126106a657515f611d96565b3d9150611f59565b611f959060203d60201161033d576103308183612233565b611d71565b346106a657611fc9611fab366121ba565b90611fc4610911825f525f602052600160405f20015490565b6124d3565b005b346106a65760203660031901126106a6576020611ff56004355f525f602052600160405f20015490565b604051908152f35b346106a6575f3660031901126106a6576010546001600160a01b0316330361210b5761202761247b565b601154156120d4575f601181905560105460405163a9059cbb60e01b81526001600160a01b039182166004820152602481018390529160209183916044918391907f0000000000000000000000000000000000000000000000000000000000000000165af1908115611ef8575f916120b5575b50156120a65760018055005b6312171d8360e31b5f5260045ffd5b6120ce915060203d60201161033d576103308183612233565b8161209a565b60405162461bcd60e51b815260206004820152600f60248201526e139bc81999595cc81d1bc81cd95b99608a1b6044820152606490fd5b60405162461bcd60e51b815260206004820152602e60248201527f4f6e6c79207468652070726f746f636f6c206f776e65722063616e2063616c6c60448201526d103a3434b990333ab731ba34b7b760911b6064820152608490fd5b346106a65760203660031901126106a6576004359063ffffffff60e01b82168092036106a657602091637965db0b60e01b81149081156121a9575b5015158152f35b6301ffc9a760e01b149050836121a2565b60409060031901126106a657600435906024356001600160a01b03811681036106a65790565b9181601f840112156106a6578235916001600160401b0383116106a657602083818601950101116106a657565b6024359060ff821682036106a657565b604435906001600160401b03821682036106a657565b90601f801991011681019081106001600160401b0382111761225457604052565b634e487b7160e01b5f52604160045260245ffd5b908160209103126106a6575180151581036106a65790565b9291926001600160401b03821161225457604051916122a9601f8201601f191660200184612233565b8294818452818301116106a6578281602093845f960137010152565b908160209103126106a6575190565b6001600160401b0381116122545760051b60200190565b8051156122f85760200190565b634e487b7160e01b5f52603260045260245ffd5b8051600110156122f85760400190565b80518210156122f85760209160051b010190565b91908201809211611f0357565b6020600c54918281520190600c5f5260205f20905f5b8181106123605750505090565b82546001600160a01b0316845260209093019260019283019201612353565b90602082549182815201915f5260205f20905f5b8181106123a05750505090565b82546001600160a01b0316845260209093019260019283019201612393565b600c548110156122f857600c5f5260205f2001905f90565b908160209103126106a6575160ff811681036106a65790565b81810292918115918404141715611f0357565b604d8111611f0357600a0a90565b811561241b570490565b634e487b7160e01b5f52601260045260245ffd5b908160209103126106a657516001600160401b03811681036106a65790565b60ff1660ff8114611f035760010190565b600d548110156122f857600d5f52600360205f20910201905f90565b60026001541461248c576002600155565b633ee5aeb560e01b5f5260045ffd5b5f8181526020818152604080832033845290915290205460ff16156124bd5750565b63e2517d3f60e01b5f523360045260245260445ffd5b5f818152602081815260408083206001600160a01b038616845290915290205460ff16612555575f818152602081815260408083206001600160a01b0395909516808452949091528120805460ff19166001179055339291907f2f8788117e7eff1d82e926ec794901d17c78024a50270940304540a733656f0d9080a4600190565b50505f90565b90602080835192838152019201905f5b8181106125785750505090565b825184526020938401939092019160010161256b565b5f52600960205260405f208054906801000000000000000082101561225457600182018082558210156122f8575f5260205f20019060018060a01b03166bffffffffffffffffffffffff60a01b825416179055565b5f818152602081815260408083206001600160a01b038616845290915290205460ff1615612555575f818152602081815260408083206001600160a01b0395909516808452949091528120805460ff19169055339291907ff6391f5c32d9c69d2a47ea670b442974b53935d1edc7fd64eb21e047a839171b9080a4600190565b6020929183915f8051602061284183398151915254905f60a46040518098819682956302e817ff60e41b84526004840152336024840152608060448401528051918291826084860152018484015e8181018301849052600560f81b6064830152601f01601f191681010301926001600160a01b03165af1918215611ef8575f92612747575b505f80516020612801833981519152546001600160a01b031682813b156106a6575f916044839260405194859384926346ce4e4960e11b845260048401523360248401525af18015611ef85761273b5750565b5f61274591612233565b565b9091506020813d602011612773575b8161276360209383612233565b810103126106a65751905f6126e8565b3d9150612756565b5f8051602061284183398151915254604051631ce2e8d760e31b81525f60048201819052600560f81b60248301529091602091839160449183916001600160a01b03165af1908115611ef8575f916127d1575090565b90506020813d6020116127f8575b816127ec60209383612233565b810103126106a6575190565b3d91506127df56feed8d60e34876f751cc8b014c560745351147d9de11b9347c854e881b128ea60093ab6e17f2c461cce6ea5d4ec117e51dda77a64affc2b2c05f8cd440def0e700ed8d60e34876f751cc8b014c560745351147d9de11b9347c854e881b128ea601a26469706673582212202d5adb8a4eaf65046494fa4d63316753f73b7e9a9fe0c816cc85ebe231ae718764736f6c634300081a0033","linkReferences":{}},"methodIdentifiers":{"DEFAULT_ADMIN_ROLE()":"a217fddf","burnShares(bytes32,bytes32,bytes)":"9134867c","burnSharesCallback(uint256,uint8,uint64,bool,bool)":"fcb74a45","computeShareValue()":"4148fc4f","getIndexFundToken()":"75696e7f","getIndexTokens()":"38f250ec","getRoleAdmin(bytes32)":"248a9ca3","getStablecoin()":"b6f67312","grantRole(bytes32,address)":"2f2ff15d","hasRole(bytes32,address)":"91d14854","mintShares(bytes32,bytes)":"35c995ec","mintSharesCallback(uint256,uint8,uint64)":"97771de5","renounceRole(bytes32,address)":"36568abe","revokeRole(bytes32,address)":"d547741f","sendFeesToProtocolOwner()":"05d7d94b","supportsInterface(bytes4)":"01ffc9a7"},"id":0}