{"abi":[{"type":"constructor","inputs":[{"name":"_indexTokens","type":"address[]","internalType":"address[]"},{"name":"_stablecoin","type":"address","internalType":"address"},{"name":"_indexFundFactory","type":"address","internalType":"address"},{"name":"_indexFundToken","type":"address","internalType":"address"},{"name":"_marketDataFetcher","type":"address","internalType":"address"},{"name":"_swapsManagerProxy","type":"address","internalType":"address"},{"name":"_initialSharePrice","type":"uint256","internalType":"uint256"},{"name":"_poolKeys","type":"tuple[]","internalType":"struct PoolKey[]","components":[{"name":"currency0","type":"address","internalType":"Currency"},{"name":"currency1","type":"address","internalType":"Currency"},{"name":"fee","type":"uint24","internalType":"uint24"},{"name":"tickSpacing","type":"int24","internalType":"int24"},{"name":"hooks","type":"address","internalType":"contract IHooks"}]}],"stateMutability":"nonpayable"},{"type":"function","name":"DEFAULT_ADMIN_ROLE","inputs":[],"outputs":[{"name":"","type":"bytes32","internalType":"bytes32"}],"stateMutability":"view"},{"type":"function","name":"burnShares","inputs":[{"name":"encryptedAmount","type":"bytes32","internalType":"einput"},{"name":"encryptedRedeemIndexTokens","type":"bytes32","internalType":"einput"},{"name":"inputProof","type":"bytes","internalType":"bytes"}],"outputs":[],"stateMutability":"nonpayable"},{"type":"function","name":"burnSharesCallback","inputs":[{"name":"requestID","type":"uint256","internalType":"uint256"},{"name":"decryptedAmount","type":"uint256","internalType":"uint256"},{"name":"redeemIndexTokens","type":"bool","internalType":"bool"},{"name":"hasUserEnoughSharesToBurn","type":"bool","internalType":"bool"}],"outputs":[],"stateMutability":"nonpayable"},{"type":"function","name":"computeShareValue","inputs":[],"outputs":[{"name":"shareValue","type":"uint256","internalType":"uint256"}],"stateMutability":"view"},{"type":"function","name":"getIndexFundToken","inputs":[],"outputs":[{"name":"","type":"address","internalType":"contract IndexFundToken"}],"stateMutability":"view"},{"type":"function","name":"getIndexTokens","inputs":[],"outputs":[{"name":"","type":"address[]","internalType":"address[]"}],"stateMutability":"view"},{"type":"function","name":"getRoleAdmin","inputs":[{"name":"role","type":"bytes32","internalType":"bytes32"}],"outputs":[{"name":"","type":"bytes32","internalType":"bytes32"}],"stateMutability":"view"},{"type":"function","name":"getStablecoin","inputs":[],"outputs":[{"name":"","type":"address","internalType":"contract ERC20EncryptionWrapper"}],"stateMutability":"view"},{"type":"function","name":"grantRole","inputs":[{"name":"role","type":"bytes32","internalType":"bytes32"},{"name":"account","type":"address","internalType":"address"}],"outputs":[],"stateMutability":"nonpayable"},{"type":"function","name":"hasRole","inputs":[{"name":"role","type":"bytes32","internalType":"bytes32"},{"name":"account","type":"address","internalType":"address"}],"outputs":[{"name":"","type":"bool","internalType":"bool"}],"stateMutability":"view"},{"type":"function","name":"mintShares","inputs":[{"name":"encryptedAmount","type":"bytes32","internalType":"einput"},{"name":"inputProof","type":"bytes","internalType":"bytes"}],"outputs":[],"stateMutability":"nonpayable"},{"type":"function","name":"mintSharesCallback","inputs":[{"name":"requestID","type":"uint256","internalType":"uint256"},{"name":"decryptedAmount","type":"uint256","internalType":"uint256"}],"outputs":[],"stateMutability":"nonpayable"},{"type":"function","name":"renounceRole","inputs":[{"name":"role","type":"bytes32","internalType":"bytes32"},{"name":"callerConfirmation","type":"address","internalType":"address"}],"outputs":[],"stateMutability":"nonpayable"},{"type":"function","name":"revokeRole","inputs":[{"name":"role","type":"bytes32","internalType":"bytes32"},{"name":"account","type":"address","internalType":"address"}],"outputs":[],"stateMutability":"nonpayable"},{"type":"function","name":"sendFeesToProtocolOwner","inputs":[],"outputs":[],"stateMutability":"nonpayable"},{"type":"function","name":"supportsInterface","inputs":[{"name":"interfaceId","type":"bytes4","internalType":"bytes4"}],"outputs":[{"name":"","type":"bool","internalType":"bool"}],"stateMutability":"view"},{"type":"event","name":"FeeCollected","inputs":[{"name":"feeAmount","type":"uint256","indexed":true,"internalType":"uint256"}],"anonymous":false},{"type":"event","name":"IndexTokensRedeemed","inputs":[{"name":"user","type":"address","indexed":true,"internalType":"address"},{"name":"token","type":"address","indexed":true,"internalType":"address"},{"name":"amount","type":"uint256","indexed":true,"internalType":"uint256"}],"anonymous":false},{"type":"event","name":"IndexTokensSwapped","inputs":[{"name":"user","type":"address","indexed":true,"internalType":"address"},{"name":"token","type":"address","indexed":true,"internalType":"address"},{"name":"amount","type":"uint256","indexed":true,"internalType":"uint256"}],"anonymous":false},{"type":"event","name":"RoleAdminChanged","inputs":[{"name":"role","type":"bytes32","indexed":true,"internalType":"bytes32"},{"name":"previousAdminRole","type":"bytes32","indexed":true,"internalType":"bytes32"},{"name":"newAdminRole","type":"bytes32","indexed":true,"internalType":"bytes32"}],"anonymous":false},{"type":"event","name":"RoleGranted","inputs":[{"name":"role","type":"bytes32","indexed":true,"internalType":"bytes32"},{"name":"account","type":"address","indexed":true,"internalType":"address"},{"name":"sender","type":"address","indexed":true,"internalType":"address"}],"anonymous":false},{"type":"event","name":"RoleRevoked","inputs":[{"name":"role","type":"bytes32","indexed":true,"internalType":"bytes32"},{"name":"account","type":"address","indexed":true,"internalType":"address"},{"name":"sender","type":"address","indexed":true,"internalType":"address"}],"anonymous":false},{"type":"event","name":"SharesBurned","inputs":[{"name":"user","type":"address","indexed":true,"internalType":"address"},{"name":"amount","type":"uint256","indexed":true,"internalType":"uint256"}],"anonymous":false},{"type":"event","name":"SharesMinted","inputs":[{"name":"user","type":"address","indexed":true,"internalType":"address"},{"name":"amount","type":"uint256","indexed":true,"internalType":"uint256"}],"anonymous":false},{"type":"event","name":"SwapsPerformed","inputs":[],"anonymous":false},{"type":"error","name":"AccessControlBadConfirmation","inputs":[]},{"type":"error","name":"AccessControlUnauthorizedAccount","inputs":[{"name":"account","type":"address","internalType":"address"},{"name":"neededRole","type":"bytes32","internalType":"bytes32"}]},{"type":"error","name":"AmountToSwapTooBig","inputs":[{"name":"amountToSwap","type":"uint256","internalType":"uint256"}]},{"type":"error","name":"InsufficientAllowance","inputs":[{"name":"token","type":"address","internalType":"address"}]},{"type":"error","name":"NotEnoughSharesToBurn","inputs":[{"name":"user","type":"address","internalType":"address"},{"name":"amountToBurn","type":"uint256","internalType":"uint256"}]},{"type":"error","name":"ReentrancyGuardReentrantCall","inputs":[]},{"type":"error","name":"SharesToBurnAmountTooBig","inputs":[{"name":"amountToBurn","type":"uint256","internalType":"uint256"}]},{"type":"error","name":"SharesToMintAmountTooBig","inputs":[{"name":"amountToMint","type":"uint256","internalType":"uint256"}]},{"type":"error","name":"TransferFailed","inputs":[]}],"bytecode":{"object":"0x61014080604052346105c057612c76803803809161001d8285610704565b8339810190610100818303126105c05780516001600160401b0381116105c05781019082601f830112156105c05781519061005782610727565b926100656040519485610704565b828452602084016020819460051b830101918683116105c057602001905b8282106106d1575050506100996020820161073e565b916100a66040830161073e565b926100b36060840161073e565b6100bf6080850161073e565b916100cc60a0860161073e565b60c086015160e087015190969195916001600160401b0382116105c057019789601f8a0112156105c0578851996101028b610727565b996101106040519b8c610704565b8b8b5260208b0191602060a0849e02830101918183116105c057602001925b8284106106385750505050600180555f606060405161014d816106e9565b8281528260208201528260408201520152739d6891a6240d6130c54ae243d8005063d05fe14b6060604051610181816106e9565b73fee8407e2f5e3ee68ad77cae98c434e637f516e580825273687408ab54661ba0b4aef3a44156c616c6955e076020830181905273fb03be574d14c256d56f09a198b586bdfc0a9de26040840181905293909201939093527fed8d60e34876f751cc8b014c560745351147d9de11b9347c854e881b128ea60080546001600160a01b031990811690941790557fed8d60e34876f751cc8b014c560745351147d9de11b9347c854e881b128ea6018054841690911790557fed8d60e34876f751cc8b014c560745351147d9de11b9347c854e881b128ea6028054831690911790557fed8d60e34876f751cc8b014c560745351147d9de11b9347c854e881b128ea60380548216739d6891a6240d6130c54ae243d8005063d05fe14b1790557f93ab6e17f2c461cce6ea5d4ec117e51dda77a64affc2b2c05f8cd440def0e70080549091167333347831500f1e73f0cccbb95c9f86b94d7b112317905551906001600160401b03821161057a5768010000000000000000821161057a57600c5482600c558083106105f4575b50600c5f5260205f205f5b8381106105d7578b8b600460208d8d8d8d8d8d60018060a01b0316610100528460e05260018060a01b031660805260018060a01b031660a05260c052600e5560405192838092638da5cb5b60e01b825260018060a01b03165afa9081156105cc575f9161058e575b50601080546001600160a01b0319166001600160a01b0392909216919091179055519068010000000000000000821161057a57600d5482600d558083106104fa575b5090600d5f5260205f205f925b828410610461576040516125239081610753823960805181818161015b015281816108e901528181610d8b015281816110a40152611681015260a051818181610e9801526116aa015260c0518181816103e20152610fbf015260e05181610f010152610100518181816103ac0152818161060d0152818161071d01528181610e450152611a3a01526101205181611d760152f35b8051805183546001600160a01b039182166001600160a01b0319918216178555602080840151600180880180546040880151606089015160b81b62ffffff60b81b1662ffffff60a01b60a09290921b919091169488166001600160d01b031990921691909117939093179290921790915560809094015160028701805491909416921691909117909155940193600390920191016103cd565b80600302906003820403610566578260030260038104840361056657600d5f527fd7b6990105719101dabeb77144f2a3385c8033acd3af97e9423a695e81ad1eb591820191015b81811061054e57506103c0565b805f600392555f60018201555f600282015501610541565b634e487b7160e01b5f52601160045260245ffd5b634e487b7160e01b5f52604160045260245ffd5b90506020813d6020116105c4575b816105a960209383610704565b810103126105c0576105ba9061073e565b8361037e565b5f80fd5b3d915061059c565b6040513d5f823e3d90fd5b82516001600160a01b031681830155602090920191600101610316565b600c5f527fdf6966c971051c3d54ec59162606531493a51404a002842f56009d7e5cf4a8c79081019083015b81811061062d575061030b565b5f8155600101610620565b60a0848303126105c0576040519060a082016001600160401b0381118382101761057a576040526106688561073e565b82526106766020860161073e565b6020830152604085015162ffffff811681036105c057604083015260608501518060020b81036105c05760608301526080850151906001600160a01b03821682036105c05782602092608060a095015281520193019261012f565b602080916106de8461073e565b815201910190610083565b608081019081106001600160401b0382111761057a57604052565b601f909101601f19168101906001600160401b0382119082101761057a57604052565b6001600160401b03811161057a5760051b60200190565b51906001600160a01b03821682036105c05756fe6080806040526004361015610012575f80fd5b5f905f3560e01c90816301ffc9a714611e645750806305d7d94b14611d09578063248a9ca314611cd75780632f2ff15d14611ca657806335c995ec146119c957806336568abe1461199057806338f250ec1461191a5780634148fc4f1461166357806360c8d85714610dba57806375696e7f14610d755780639134867c146107a457806391d1485414610768578063a217fddf1461074c578063b6f6731214610707578063d547741f146106d25763f98723c7146100ce575f80fd5b346106cf5760803660031901126106cf5760243560443580151581036106cb576064358015908115036106c7575f805160206124ae833981519152546001600160a01b031633036106c757600435845260096020526101396101406040862060405192838092612063565b0382611f0b565b6001600160a01b039061015290611fdf565b5116906106b0577f00000000000000000000000000000000000000000000000000000000000000006001600160a01b03169084823b156106ac5785604051630852cd8d60e31b8152866004820152818160248183895af1801561065957610697575b505084337fdb79cc492679ef2624944d6ed3cdbad5b974b5550de330ae18922f2944eec78a8880a3855b86600c5482101561057c57506101f3816120a3565b905460039190911b1c6001600160a01b0316908115610509576040516370a0823160e01b8152306004820152602081602481865afa80156104fe5788908a906104c9575b61024192506120bb565b6040516318160ddd60e01b8152906020826004818a5afa90811561030c578a91610494575b61027092506120ce565b86156103175760405163a9059cbb60e01b81526001600160a01b038616600482015260248101829052926020846044818d855af193841561030c576001946102e0575b50857fb06a452a84fa41bb0bd1ac3a396221cbad915a39589ba2ce8fe0ec16f4b51abc8b80a45b016101de565b6103009060203d8111610305575b6102f88183611f0b565b810190611f41565b6102b3565b503d6102ee565b6040513d8c823e3d90fd5b610323829493946120ec565b50603c420180421161048057604051630abff6dd60e11b815282546001600160a01b039081166004830152600180850154808316602485015260a081901c62ffffff16604485015260b81c600290810b606485015290940154811660848301526001600160801b03851660a483015260c482018d905260e48201929092526101048101929092527f0000000000000000000000000000000000000000000000000000000000000000811661012483015260209082906101449082908e907f0000000000000000000000000000000000000000000000000000000000000000165af190811561030c578a9161044a575b5061041f90600194612014565b93857f3c7a5a67037bba423dedf10fb639bdb414a8f5c7d35c20c6dfd7a3140d548a9a8b80a46102da565b90506020813d8211610478575b8161046460209383611f0b565b8101031261047457516001610412565b5f80fd5b3d9150610457565b634e487b7160e01b8b52601160045260248bfd5b90506020823d82116104c1575b816104ae60209383611f0b565b8101031261047457610270915190610266565b3d91506104a1565b50506020813d82116104f6575b816104e360209383611f0b565b8101031261047457876102419151610237565b3d91506104d6565b6040513d8b823e3d90fd5b61051387476120bb565b6040516318160ddd60e01b8152906020826004818a5afa90811561030c578a91610547575b61054292506120ce565b610270565b90506020823d8211610574575b8161056160209383611f0b565b8101031261047457610542915190610538565b3d9150610554565b8083806105865750f35b5f805160206124ce83398151915254604051631ce2e8d760e31b81526004810192909252600160fb1b6024830152909160209183916044918391906001600160a01b03165af1908115610659578291610664575b506040516323b872dd60e01b81523060048201523360248201526044810191909152602081606481856001600160a01b037f0000000000000000000000000000000000000000000000000000000000000000165af180156106595761063d575080f35b6106559060203d602011610305576102f88183611f0b565b5080f35b6040513d84823e3d90fd5b90506020813d60201161068f575b8161067f60209383611f0b565b81010312610474575160206105da565b3d9150610672565b816106a191611f0b565b6106ac57855f6101b4565b8580fd5b63793fd43160e01b84526004526024829052604483fd5b8380fd5b8280fd5b80fd5b50346106cf576106556106e436611eb7565b906107026106fd825f525f602052600160405f20015490565b612128565b612270565b50346106cf57806003193601126106cf576040517f00000000000000000000000000000000000000000000000000000000000000006001600160a01b03168152602090f35b50346106cf57806003193601126106cf57602090604051908152f35b50346106cf57604061077936611eb7565b9290815280602052209060018060a01b03165f52602052602060ff60405f2054166040519015158152f35b50346106cf5760603660031901126106cf5760443567ffffffffffffffff8111610b9e5760a46020806107de610806943690600401611edd565b94906107e8612108565b6107fe6107f6368884611f59565b6004356122f0565b953691611f59565b60018060a01b035f805160206124ce833981519152541690866040519586809581946302e817ff60e41b83526024356004840152336024840152608060448401528051918291826084860152018484015e83838284010152836064830152601f801991011681010301925af1908115610d6a578391610d38575b505f8051602061248e8339815191525483906001600160a01b0316803b15610b9e578180916044604051809481936346ce4e4960e11b83528860048401523360248401525af1801561065957610d23575b50506040516370a0823160e01b8152336004820152907f00000000000000000000000000000000000000000000000000000000000000006001600160a01b0316602083602481845afa928315610c1c578593610ceb575b508284938515610cdb575b15610cc9575b602090606460018060a01b035f805160206124ce8339815191525416958860405197889485936334a6d7b960e11b8552600485015260248401528160448401525af1928315610c1c578593610c95575b506040516323b872dd60e01b81523360048201523060248201526044810185905260208160648189865af18015610c6d57610c78575b50604051630cf4e94560e31b8152602081600481855afa908115610c6d578691610c3b575b505f198101908111610c275760209060246040518094819363a5184baf60e01b835260048301525afa8015610c1c5760ff918691610bed575b5016610bde5760405192610a32608085611f0b565b600384526060366020860137610a4784611fdf565b52825160011015610bca576040830152815160021015610bb65760608201526064420190814211610ba2575f8051602061248e8339815191525483906001600160a01b0316803b15610b9e5781604051809263155f840160e21b825260206004830152818381610aba602482018a6121e8565b03925af1801561065957610b89575b50505f805160206124ae83398151915254604051634c0d927760e01b815260a060048201529260209284926001600160a01b031691839187918391610b129060a48401906121e8565b9063f98723c760e01b6024840152836044840152606483015282608483015203925af18015610659578290610b55575b610b4e9150339061221b565b6001805580f35b506020813d602011610b81575b81610b6f60209383611f0b565b8101031261047457610b4e9051610b42565b3d9150610b62565b81610b9391611f0b565b6106cb57825f610ac9565b5080fd5b634e487b7160e01b83526011600452602483fd5b634e487b7160e01b83526032600452602483fd5b634e487b7160e01b84526032600452602484fd5b6312171d8360e31b8452600484fd5b610c0f915060203d602011610c15575b610c078183611f0b565b810190611fae565b5f610a1d565b503d610bfd565b6040513d87823e3d90fd5b634e487b7160e01b86526011600452602486fd5b90506020813d602011610c65575b81610c5660209383611f0b565b8101031261047457515f6109e4565b3d9150610c49565b6040513d88823e3d90fd5b610c909060203d602011610305576102f88183611f0b565b6109bf565b9092506020813d602011610cc1575b81610cb160209383611f0b565b810103126104745751915f610989565b3d9150610ca4565b506020610cd4612408565b9050610939565b9350610ce5612408565b93610933565b9092506020813d602011610d1b575b81610d0760209383611f0b565b81010312610d175751915f610928565b8480fd5b3d9150610cfa565b81610d2d91611f0b565b6106cb57825f6108d1565b90506020813d602011610d62575b81610d5360209383611f0b565b8101031261047457515f610880565b3d9150610d46565b6040513d85823e3d90fd5b50346106cf57806003193601126106cf576040517f00000000000000000000000000000000000000000000000000000000000000006001600160a01b03168152602090f35b50346106cf5760403660031901126106cf575f805160206124ae83398151915254602435906001600160a01b03163303610b9e5760043582526009602052610139610e0e6040842060405192838092612063565b6001600160a01b0390610e2090611fdf565b5160405163040b850f60e31b8152306004820152602481018490526001600160a01b037f00000000000000000000000000000000000000000000000000000000000000001693929091169060208160448188885af18015610c1c57611646575b50604051630a7c1bd560e21b815260206004820152927f00000000000000000000000000000000000000000000000000000000000000006001600160a01b03169290858580610ed160248201612021565b0381875afa938415610c6d578695879561159b575b50600f869055604051634d1b7c9960e11b81526020816004817f00000000000000000000000000000000000000000000000000000000000000006001600160a01b03165afa801561159057889061155c575b610f439150846120ce565b610f4f81601154612014565b601155807fc472cb3a7a659a876494d66b3063145f279701771d6150b9329c31611ed6405c8980a2830392831161154857845194600c5486036114d15794855195610f9987611fc7565b96610fa76040519889611f0b565b808852610fb6601f1991611fc7565b013660208901377f00000000000000000000000000000000000000000000000000000000000000006001600160a01b03169765ffffffffffff4262015180810191821693911091908b5b8581106114175750505050505060125460ff811660ff811461140357600160ff9101169060ff191617601255865b600c5481101561107b578061104560019288612000565b5161104f826120a3565b848060a01b0391549060031b1c168a52601360205261107360408b20918254612014565b90550161102e565b5086945085601254600260ff82161461114c575b505050506110a090600e54906120ce565b90827f00000000000000000000000000000000000000000000000000000000000000006001600160a01b0316803b15610b9e576040516340c10f1960e01b81526001600160a01b0384166004820152602481018590529082908290604490829084905af1801561065957611137575b50807f6332ddaa8a69b5eb2524ec7ca317b7c2b01ecf678d584031415f81270977b8fc91a380f35b8161114191611f0b565b6106cb57828461110f565b60ff191660125542603c81019695929390871092865b600c548110156113ca57611175816120ec565b506040519060a0820182811067ffffffffffffffff8211176113b657604090815281546001600160a01b03908116845260018301548082166020860190815260a082901c62ffffff1693860193845260b89190911c600290810b606087019081529401549091166080850190815290926111ee866120a3565b60018060a01b0391549060031b1c168d52601360205260408d2054928b6020611216896120a3565b9054604051630681320d60e51b815260039290921b1c6001600160a01b0316600482015291829060249082905afa80156113a9578f90869190611374575b61125e92506120bb565b9460098602958087046009149015171561134d576001600160801b038511611361578b61134d57604051630abff6dd60e11b815296516001600160a01b039081166004890152905181166024880152905162ffffff166044870152905160020b606486015290511660848401526001600160801b0390811660a4840152600a9091041660c482015260e481018a905260016101048201526101248101849052602081610144818c895af180156104fe57906001929161131f575b5001611162565b61133f9060203d8111611346575b6113378183611f0b565b810190611f9f565b508a611318565b503d61132d565b634e487b7160e01b8f52601160045260248ffd5b628af7f560e11b8f52600485905260248ffd5b50506020813d82116113a1575b8161138e60209383611f0b565b81010312610474578461125e9151611254565b3d9150611381565b8f604051903d90823e3d90fd5b634e487b7160e01b8b52604160045260248bfd5b50959650505050506110a0907ff2a32d2d88a573f9ff9679e9796f679899817d433b3e223985b14e3cc74a72cb8480a19084808061108f565b634e487b7160e01b89526011600452602489fd5b6114348361142f6114288486612000565b518c6120bb565b6120ce565b61143e828d612000565b5283611449826120a3565b90546001600160a01b0360039290921b1c811690611467848f612000565b51169161134d57908e918e3b156106cb578e916064849283604051958694859363267b14bd60e01b8552600485015260248401528c60448401525af18015610659576114b8575b5050600101611000565b816114c291611f0b565b6114cd578c5f6114ae565b8c80fd5b60405162461bcd60e51b815260206004820152604360248201527f446973726570616e6379206265747765656e206e756d626572206f66206d617260448201527f6b6574206361707320616e64206e756d626572206f6620696e64657820746f6b606482015262656e7360e81b608482015260a490fd5b634e487b7160e01b87526011600452602487fd5b506020813d602011611588575b8161157660209383611f0b565b8101031261047457610f439051610f38565b3d9150611569565b6040513d8a823e3d90fd5b955093503d8087873e6115ae8187611f0b565b8501946040818703126116425780519060208101519067ffffffffffffffff821161163e57019580601f8801121561163a5786516115eb81611fc7565b976115f9604051998a611f0b565b8189526020808a019260051b82010192831161163657602001905b8282106116265750505094935f610ee6565b8151815260209182019101611614565b8980fd5b8780fd5b8880fd5b8680fd5b61165e9060203d602011610305576102f88183611f0b565b610e80565b50346106cf57806003193601126106cf57600c546001600160a01b037f000000000000000000000000000000000000000000000000000000000000000081169291829182907f000000000000000000000000000000000000000000000000000000000000000016815b8385106116de57602086604051908152f35b9091929394506116ed856120a3565b9054604051630681320d60e51b815260039290921b1c6001600160a01b03166004820152602081602481865afa90811561182b5784916118e9575b5060246020611736886120a3565b90546040516370a0823160e01b81523060048201529384929091839160031b1c6001600160a01b03165afa908115610c1c5785916118b8575b50611779876120a3565b905460039190911b1c6001600160a01b031661184a5761179b906012926120bb565b90604d8111611836576117bc92916117b691600a0a906120ce565b90612014565b906040516318160ddd60e01b81526020816004818a5afa90811561182b5784916117f8575b506117ee600191846120ce565b95019392916116cc565b90506020813d8211611823575b8161181260209383611f0b565b8101031261047457516117ee6117e1565b3d9150611805565b6040513d86823e3d90fd5b634e487b7160e01b85526011600452602485fd5b60046020611857896120a3565b905460405163313ce56760e01b81529384929091839160031b1c6001600160a01b03165afa908115610c6d5761179b929160ff91889161189a575b5016926120bb565b6118b2915060203d8111610c1557610c078183611f0b565b5f611892565b90506020813d82116118e1575b816118d260209383611f0b565b8101031261047457515f61176f565b3d91506118c5565b90506020813d8211611912575b8161190360209383611f0b565b8101031261047457515f611728565b3d91506118f6565b50346106cf57806003193601126106cf57604051906119438261193c81612021565b0383611f0b565b604051918291602083016020845282518091526020604085019301915b81811061196e575050500390f35b82516001600160a01b0316845285945060209384019390920191600101611960565b50346106cf5761199f36611eb7565b90336001600160a01b038316036119ba579061065591612270565b63334bd91960e11b8352600483fd5b50346104745760403660031901126104745760243567ffffffffffffffff8111610474576107f6611a01611a10923690600401611edd565b611a09612108565b3691611f59565b6040516323b872dd60e01b8152336004820152306024820152604481018290526001600160a01b037f000000000000000000000000000000000000000000000000000000000000000016906020816064815f865af18015611c4c57611c89575b50604051630cf4e94560e31b8152602081600481855afa908115611c4c575f91611c57575b505f198101908111611c0a5760209060246040518094819363a5184baf60e01b835260048301525afa8015611c4c5760ff915f91611c2d575b5016611c1e576040805191611ae38284611f0b565b60018352601f198201366020850137611afb83611fdf565b526064420191824211611c0a575f8051602061248e833981519152546001600160a01b0316803b15610474575f8351809263155f840160e21b825260206004830152818381611b4d60248201896121e8565b03925af18015611c0057611be9575b505f805160206124ae833981519152548251634c0d927760e01b815260a060048201529360209285926001600160a01b031691839188918391611ba39060a48401906121e8565b906360c8d85760e01b6024840152836044840152606483015282608483015203925af1908115611be057508290610b5557610b4e9150339061221b565b513d84823e3d90fd5b611bf69194505f90611f0b565b5f92611ba3611b5c565b83513d5f823e3d90fd5b634e487b7160e01b5f52601160045260245ffd5b6312171d8360e31b5f5260045ffd5b611c46915060203d602011610c1557610c078183611f0b565b5f611ace565b6040513d5f823e3d90fd5b90506020813d602011611c81575b81611c7260209383611f0b565b8101031261047457515f611a95565b3d9150611c65565b611ca19060203d602011610305576102f88183611f0b565b611a70565b3461047457611cd5611cb736611eb7565b90611cd06106fd825f525f602052600160405f20015490565b612160565b005b34610474576020366003190112610474576020611d016004355f525f602052600160405f20015490565b604051908152f35b34610474575f366003190112610474576010546001600160a01b03163303611e0857611d33612108565b60115415611dd1575f601181905560105460405163a9059cbb60e01b81526001600160a01b039182166004820152602481018390529160209183916044918391907f0000000000000000000000000000000000000000000000000000000000000000165af1908115611c4c575f91611db2575b5015611c1e5760018055005b611dcb915060203d602011610305576102f88183611f0b565b81611da6565b60405162461bcd60e51b815260206004820152600f60248201526e139bc81999595cc81d1bc81cd95b99608a1b6044820152606490fd5b60405162461bcd60e51b815260206004820152602e60248201527f4f6e6c79207468652070726f746f636f6c206f776e65722063616e2063616c6c60448201526d103a3434b990333ab731ba34b7b760911b6064820152608490fd5b34610474576020366003190112610474576004359063ffffffff60e01b821680920361047457602091637965db0b60e01b8114908115611ea6575b5015158152f35b6301ffc9a760e01b14905083611e9f565b604090600319011261047457600435906024356001600160a01b03811681036104745790565b9181601f840112156104745782359167ffffffffffffffff8311610474576020838186019501011161047457565b90601f8019910116810190811067ffffffffffffffff821117611f2d57604052565b634e487b7160e01b5f52604160045260245ffd5b90816020910312610474575180151581036104745790565b92919267ffffffffffffffff8211611f2d5760405191611f83601f8201601f191660200184611f0b565b829481845281830111610474578281602093845f960137010152565b90816020910312610474575190565b90816020910312610474575160ff811681036104745790565b67ffffffffffffffff8111611f2d5760051b60200190565b805115611fec5760200190565b634e487b7160e01b5f52603260045260245ffd5b8051821015611fec5760209160051b010190565b91908201809211611c0a57565b6020600c54918281520190600c5f5260205f20905f5b8181106120445750505090565b82546001600160a01b0316845260209093019260019283019201612037565b90602082549182815201915f5260205f20905f5b8181106120845750505090565b82546001600160a01b0316845260209093019260019283019201612077565b600c54811015611fec57600c5f5260205f2001905f90565b81810292918115918404141715611c0a57565b81156120d8570490565b634e487b7160e01b5f52601260045260245ffd5b600d54811015611fec57600d5f52600360205f20910201905f90565b600260015414612119576002600155565b633ee5aeb560e01b5f5260045ffd5b5f8181526020818152604080832033845290915290205460ff161561214a5750565b63e2517d3f60e01b5f523360045260245260445ffd5b5f818152602081815260408083206001600160a01b038616845290915290205460ff166121e2575f818152602081815260408083206001600160a01b0395909516808452949091528120805460ff19166001179055339291907f2f8788117e7eff1d82e926ec794901d17c78024a50270940304540a733656f0d9080a4600190565b50505f90565b90602080835192838152019201905f5b8181106122055750505090565b82518452602093840193909201916001016121f8565b5f52600960205260405f2080549068010000000000000000821015611f2d5760018201808255821015611fec575f5260205f20019060018060a01b03166bffffffffffffffffffffffff60a01b825416179055565b5f818152602081815260408083206001600160a01b038616845290915290205460ff16156121e2575f818152602081815260408083206001600160a01b0395909516808452949091528120805460ff19169055339291907ff6391f5c32d9c69d2a47ea670b442974b53935d1edc7fd64eb21e047a839171b9080a4600190565b6020929183915f805160206124ce83398151915254905f60a46040518098819682956302e817ff60e41b84526004840152336024840152608060448401528051918291826084860152018484015e8181018301849052600160fb1b6064830152601f01601f191681010301926001600160a01b03165af1918215611c4c575f926123d4575b505f8051602061248e833981519152546001600160a01b031682813b15610474575f916044839260405194859384926346ce4e4960e11b845260048401523360248401525af18015611c4c576123c85750565b5f6123d291611f0b565b565b9091506020813d602011612400575b816123f060209383611f0b565b810103126104745751905f612375565b3d91506123e3565b5f805160206124ce83398151915254604051631ce2e8d760e31b81525f60048201819052600160fb1b60248301529091602091839160449183916001600160a01b03165af1908115611c4c575f9161245e575090565b90506020813d602011612485575b8161247960209383611f0b565b81010312610474575190565b3d915061246c56feed8d60e34876f751cc8b014c560745351147d9de11b9347c854e881b128ea60093ab6e17f2c461cce6ea5d4ec117e51dda77a64affc2b2c05f8cd440def0e700ed8d60e34876f751cc8b014c560745351147d9de11b9347c854e881b128ea601a26469706673582212209800cd61b49d9dab8f86260ab1a45c1f04d30684f9048c5a3d87987622b7e96664736f6c634300081a0033","linkReferences":{}},"methodIdentifiers":{"DEFAULT_ADMIN_ROLE()":"a217fddf","burnShares(bytes32,bytes32,bytes)":"9134867c","burnSharesCallback(uint256,uint256,bool,bool)":"f98723c7","computeShareValue()":"4148fc4f","getIndexFundToken()":"75696e7f","getIndexTokens()":"38f250ec","getRoleAdmin(bytes32)":"248a9ca3","getStablecoin()":"b6f67312","grantRole(bytes32,address)":"2f2ff15d","hasRole(bytes32,address)":"91d14854","mintShares(bytes32,bytes)":"35c995ec","mintSharesCallback(uint256,uint256)":"60c8d857","renounceRole(bytes32,address)":"36568abe","revokeRole(bytes32,address)":"d547741f","sendFeesToProtocolOwner()":"05d7d94b","supportsInterface(bytes4)":"01ffc9a7"},"id":0}