{"abi":[{"type":"constructor","inputs":[{"name":"_indexTokens","type":"address[]","internalType":"address[]"},{"name":"_stablecoin","type":"address","internalType":"address"},{"name":"_indexFundFactory","type":"address","internalType":"address"},{"name":"_indexFundToken","type":"address","internalType":"address"},{"name":"_marketDataFetcher","type":"address","internalType":"address"},{"name":"_swapsManagerProxy","type":"address","internalType":"address"},{"name":"_initialSharePrice","type":"uint256","internalType":"uint256"},{"name":"_poolKeys","type":"tuple[]","internalType":"struct PoolKey[]","components":[{"name":"currency0","type":"address","internalType":"Currency"},{"name":"currency1","type":"address","internalType":"Currency"},{"name":"fee","type":"uint24","internalType":"uint24"},{"name":"tickSpacing","type":"int24","internalType":"int24"},{"name":"hooks","type":"address","internalType":"contract IHooks"}]}],"stateMutability":"nonpayable"},{"type":"function","name":"DEFAULT_ADMIN_ROLE","inputs":[],"outputs":[{"name":"","type":"bytes32","internalType":"bytes32"}],"stateMutability":"view"},{"type":"function","name":"burnShares","inputs":[{"name":"amount","type":"uint256","internalType":"uint256"},{"name":"redeemIndexTokens","type":"bool","internalType":"bool"}],"outputs":[],"stateMutability":"nonpayable"},{"type":"function","name":"computeShareValue","inputs":[],"outputs":[],"stateMutability":"nonpayable"},{"type":"function","name":"getIndexFundToken","inputs":[],"outputs":[{"name":"","type":"address","internalType":"contract IndexFundToken"}],"stateMutability":"view"},{"type":"function","name":"getIndexTokens","inputs":[],"outputs":[{"name":"","type":"address[]","internalType":"address[]"}],"stateMutability":"view"},{"type":"function","name":"getRoleAdmin","inputs":[{"name":"role","type":"bytes32","internalType":"bytes32"}],"outputs":[{"name":"","type":"bytes32","internalType":"bytes32"}],"stateMutability":"view"},{"type":"function","name":"getStablecoin","inputs":[],"outputs":[{"name":"","type":"address","internalType":"contract ERC20EncryptionWrapper"}],"stateMutability":"view"},{"type":"function","name":"grantRole","inputs":[{"name":"role","type":"bytes32","internalType":"bytes32"},{"name":"account","type":"address","internalType":"address"}],"outputs":[],"stateMutability":"nonpayable"},{"type":"function","name":"hasRole","inputs":[{"name":"role","type":"bytes32","internalType":"bytes32"},{"name":"account","type":"address","internalType":"address"}],"outputs":[{"name":"","type":"bool","internalType":"bool"}],"stateMutability":"view"},{"type":"function","name":"mintShares","inputs":[{"name":"encryptedAmount","type":"bytes32","internalType":"einput"},{"name":"inputProof","type":"bytes","internalType":"bytes"}],"outputs":[],"stateMutability":"nonpayable"},{"type":"function","name":"renounceRole","inputs":[{"name":"role","type":"bytes32","internalType":"bytes32"},{"name":"callerConfirmation","type":"address","internalType":"address"}],"outputs":[],"stateMutability":"nonpayable"},{"type":"function","name":"revokeRole","inputs":[{"name":"role","type":"bytes32","internalType":"bytes32"},{"name":"account","type":"address","internalType":"address"}],"outputs":[],"stateMutability":"nonpayable"},{"type":"function","name":"sendFeesToProtocolOwner","inputs":[],"outputs":[],"stateMutability":"nonpayable"},{"type":"function","name":"supportsInterface","inputs":[{"name":"interfaceId","type":"bytes4","internalType":"bytes4"}],"outputs":[{"name":"","type":"bool","internalType":"bool"}],"stateMutability":"view"},{"type":"event","name":"FeeCollected","inputs":[{"name":"user","type":"address","indexed":true,"internalType":"address"},{"name":"feeAmount","type":"uint256","indexed":true,"internalType":"uint256"}],"anonymous":false},{"type":"event","name":"RoleAdminChanged","inputs":[{"name":"role","type":"bytes32","indexed":true,"internalType":"bytes32"},{"name":"previousAdminRole","type":"bytes32","indexed":true,"internalType":"bytes32"},{"name":"newAdminRole","type":"bytes32","indexed":true,"internalType":"bytes32"}],"anonymous":false},{"type":"event","name":"RoleGranted","inputs":[{"name":"role","type":"bytes32","indexed":true,"internalType":"bytes32"},{"name":"account","type":"address","indexed":true,"internalType":"address"},{"name":"sender","type":"address","indexed":true,"internalType":"address"}],"anonymous":false},{"type":"event","name":"RoleRevoked","inputs":[{"name":"role","type":"bytes32","indexed":true,"internalType":"bytes32"},{"name":"account","type":"address","indexed":true,"internalType":"address"},{"name":"sender","type":"address","indexed":true,"internalType":"address"}],"anonymous":false},{"type":"event","name":"SharesBurned","inputs":[{"name":"user","type":"address","indexed":true,"internalType":"address"},{"name":"amount","type":"uint256","indexed":true,"internalType":"uint256"}],"anonymous":false},{"type":"event","name":"SharesMinted","inputs":[{"name":"user","type":"address","indexed":true,"internalType":"address"},{"name":"amount","type":"uint256","indexed":true,"internalType":"uint256"},{"name":"stablecoinIn","type":"uint256","indexed":true,"internalType":"uint256"}],"anonymous":false},{"type":"error","name":"AccessControlBadConfirmation","inputs":[]},{"type":"error","name":"AccessControlUnauthorizedAccount","inputs":[{"name":"account","type":"address","internalType":"address"},{"name":"neededRole","type":"bytes32","internalType":"bytes32"}]},{"type":"error","name":"AmountToSwapTooBig","inputs":[{"name":"amountToSwap","type":"uint256","internalType":"uint256"}]},{"type":"error","name":"InsufficientAllowance","inputs":[{"name":"token","type":"address","internalType":"address"}]},{"type":"error","name":"ReentrancyGuardReentrantCall","inputs":[]},{"type":"error","name":"SharesToBurnAmountTooBig","inputs":[{"name":"amountToBurn","type":"uint256","internalType":"uint256"}]},{"type":"error","name":"SharesToMintAmountTooBig","inputs":[{"name":"amountToMint","type":"uint256","internalType":"uint256"}]},{"type":"error","name":"TransferFailed","inputs":[]}],"bytecode":{"object":"0x61014080604052346103d9576110ec803803809161001d8285610502565b8339810190610100818303126103d95780516001600160401b0381116103d95781019082601f830112156103d95781519061005782610525565b926100656040519485610502565b828452602084016020819460051b830101918683116103d957602001905b8282106104ea575050506100996020820161053c565b916100a66040830161053c565b926100b36060840161053c565b6100bf6080850161053c565b916100cc60a0860161053c565b60c086015160e087015190969195916001600160401b0382116103d957019789601f8a0112156103d9578851996101028b610525565b996101106040519b8c610502565b8b8b5260208b0191602060a0849e02830101918183116103d957602001925b82841061045157505060018055505051906001600160401b03821161039357680100000000000000008211610393576002548260025580831061040d575b5060025f5260205f205f5b8381106103f0578b8b600460208d8d8d8d8d8d60018060a01b0316610100528460e05260018060a01b031660805260018060a01b031660a05260c052835560405192838092638da5cb5b60e01b825260018060a01b03165afa9081156103e5575f916103a7575b50600680546001600160a01b0319166001600160a01b039290921691909117905551906801000000000000000082116103935760035482600355808310610313575b509060035f5260205f205f925b82841061027a57604051610b9b90816105518239608051816101a6015260a05181505060c05181505060e051815050610100518181816101090152610486015261012051816108410152f35b8051805183546001600160a01b039182166001600160a01b0319918216178555602080840151600180880180546040880151606089015160b81b62ffffff60b81b1662ffffff60a01b60a09290921b919091169488166001600160d01b0319909216919091179390931792909217909155608090940151600287018054919094169216919091179091559401936003909201910161022e565b8060030290600382040361037f578260030260038104840361037f5760035f527fc2575a0e9e593c00f959f8c92f12db2869c3395a3b0502d05e2516446f71f85b91820191015b8181106103675750610221565b805f600392555f60018201555f60028201550161035a565b634e487b7160e01b5f52601160045260245ffd5b634e487b7160e01b5f52604160045260245ffd5b90506020813d6020116103dd575b816103c260209383610502565b810103126103d9576103d39061053c565b836101df565b5f80fd5b3d91506103b5565b6040513d5f823e3d90fd5b82516001600160a01b031681830155602090920191600101610178565b60025f527f405787fa12a823e0f2b7631cc41b3ba8828b3321ca811111fa75cd3aa3bb5ace9081019083015b818110610446575061016d565b5f8155600101610439565b60a0848303126103d9576040519060a082016001600160401b03811183821017610393576040526104818561053c565b825261048f6020860161053c565b6020830152604085015162ffffff811681036103d957604083015260608501518060020b81036103d95760608301526080850151906001600160a01b03821682036103d95782602092608060a095015281520193019261012f565b602080916104f78461053c565b815201910190610083565b601f909101601f19168101906001600160401b0382119082101761039357604052565b6001600160401b0381116103935760051b60200190565b51906001600160a01b03821682036103d95756fe6080806040526004361015610012575f80fd5b5f905f3560e01c90816301ffc9a71461093e5750806305d7d94b146107d4578063248a9ca3146107a2578063292a9cec146106a85780632f2ff15d1461067757806335c995ec146102ea57806336568abe146102b157806338f250ec146101e95780634148fc4f146101d557806375696e7f1461019057806391d1485414610154578063a217fddf14610138578063b6f67312146100f35763d547741f146100b8575f80fd5b346100f0576100ec6100c936610991565b906100e76100e2825f525f602052600160405f20015490565b610a25565b610ae5565b5080f35b80fd5b50346100f057806003193601126100f0576040517f00000000000000000000000000000000000000000000000000000000000000006001600160a01b03168152602090f35b50346100f057806003193601126100f057602090604051908152f35b50346100f057604061016536610991565b9290815280602052209060018060a01b03165f52602052602060ff60405f2054166040519015158152f35b50346100f057806003193601126100f0576040517f00000000000000000000000000000000000000000000000000000000000000006001600160a01b03168152602090f35b50346100f057806003193601126100f05780f35b50346100f057806003193601126100f05760405180602060025491828152018091600285527f405787fa12a823e0f2b7631cc41b3ba8828b3321ca811111fa75cd3aa3bb5ace90855b81811061029257505050826102489103836109b7565b604051928392602084019060208552518091526040840192915b818110610270575050500390f35b82516001600160a01b0316845285945060209384019390920191600101610262565b82546001600160a01b0316845260209093019260019283019201610232565b50346100f0576102c036610991565b90336001600160a01b038316036102db57906100ec91610ae5565b63334bd91960e11b8352600483fd5b50346105d05760403660031901126105d05760243567ffffffffffffffff81116105d057366023820112156105d057806004013567ffffffffffffffff81116105d05736602482840101116105d05760a491602091610347610a05565b5f836040519261036082601f19601f84011601856109b7565b808452806024838601960186378301015260018060a01b037fed8d60e34876f751cc8b014c560745351147d9de11b9347c854e881b128ea6015416905f6040519586809581946302e817ff60e41b83526004356004840152336024840152608060448401525180918160848501528484015e8181018301849052600160fb1b6064830152601f01601f191681010301925af190811561063a575f91610645575b507fed8d60e34876f751cc8b014c560745351147d9de11b9347c854e881b128ea600546001600160a01b0316803b156105d0575f80916044604051809481936346ce4e4960e11b83528760048401523360248401525af1801561063a57610625575b506040516323b872dd60e01b815233600482015230602482015260448101919091527f00000000000000000000000000000000000000000000000000000000000000006001600160a01b03169060208160648186865af19081156105dc5783916105f6575b50156105e757604051630cf4e94560e31b8152602081600481855afa9081156105dc5783916105a6575b505f1981019081116105925760209060246040518094819363a5184baf60e01b835260048301525afa8015610587578290610546575b60ff915016610537576001805580f35b6312171d8360e31b8152600490fd5b506020813d60201161057f575b81610560602093836109b7565b8101031261057b575160ff8116810361057b5760ff90610527565b5080fd5b3d9150610553565b6040513d84823e3d90fd5b634e487b7160e01b83526011600452602483fd5b90506020813d6020116105d4575b816105c1602093836109b7565b810103126105d057515f6104f1565b5f80fd5b3d91506105b4565b6040513d85823e3d90fd5b6312171d8360e31b8252600482fd5b610618915060203d60201161061e575b61061081836109b7565b8101906109ed565b5f6104c7565b503d610606565b6106329192505f906109b7565b5f905f610462565b6040513d5f823e3d90fd5b90506020813d60201161066f575b81610660602093836109b7565b810103126105d057515f610400565b3d9150610653565b346105d0576106a661068836610991565b906106a16100e2825f525f602052600160405f20015490565b610a5d565b005b346105d05760403660031901126105d057600435602435801515036105d057801561075d577fed8d60e34876f751cc8b014c560745351147d9de11b9347c854e881b128ea60154604051631ce2e8d760e31b81526004810192909252600160fb1b6024830152602090829060449082905f906001600160a01b03165af1801561063a5761073157005b6020813d602011610755575b8161074a602093836109b7565b810103126105d05751005b3d915061073d565b60405162461bcd60e51b815260206004820152601d60248201527f416d6f756e74206d7573742062652067726561746572207468616e20300000006044820152606490fd5b346105d05760203660031901126105d05760206107cc6004355f525f602052600160405f20015490565b604051908152f35b346105d0575f3660031901126105d0576006546001600160a01b031633036108e2576107fe610a05565b600754156108ab575f600781905560065460405163a9059cbb60e01b81526001600160a01b039182166004820152602481018390529160209183916044918391907f0000000000000000000000000000000000000000000000000000000000000000165af190811561063a575f9161088c575b501561087d5760018055005b6312171d8360e31b5f5260045ffd5b6108a5915060203d60201161061e5761061081836109b7565b81610871565b60405162461bcd60e51b815260206004820152600f60248201526e139bc81999595cc81d1bc81cd95b99608a1b6044820152606490fd5b60405162461bcd60e51b815260206004820152602e60248201527f4f6e6c79207468652070726f746f636f6c206f776e65722063616e2063616c6c60448201526d103a3434b990333ab731ba34b7b760911b6064820152608490fd5b346105d05760203660031901126105d0576004359063ffffffff60e01b82168092036105d057602091637965db0b60e01b8114908115610980575b5015158152f35b6301ffc9a760e01b14905083610979565b60409060031901126105d057600435906024356001600160a01b03811681036105d05790565b90601f8019910116810190811067ffffffffffffffff8211176109d957604052565b634e487b7160e01b5f52604160045260245ffd5b908160209103126105d0575180151581036105d05790565b600260015414610a16576002600155565b633ee5aeb560e01b5f5260045ffd5b5f8181526020818152604080832033845290915290205460ff1615610a475750565b63e2517d3f60e01b5f523360045260245260445ffd5b5f818152602081815260408083206001600160a01b038616845290915290205460ff16610adf575f818152602081815260408083206001600160a01b0395909516808452949091528120805460ff19166001179055339291907f2f8788117e7eff1d82e926ec794901d17c78024a50270940304540a733656f0d9080a4600190565b50505f90565b5f818152602081815260408083206001600160a01b038616845290915290205460ff1615610adf575f818152602081815260408083206001600160a01b0395909516808452949091528120805460ff19169055339291907ff6391f5c32d9c69d2a47ea670b442974b53935d1edc7fd64eb21e047a839171b9080a460019056fea2646970667358221220ff34c3b6827ce127438af21ac4479829c523df5d5a6d7a437e5f0fb2e4a4da9764736f6c634300081a0033","linkReferences":{}},"methodIdentifiers":{"DEFAULT_ADMIN_ROLE()":"a217fddf","burnShares(uint256,bool)":"292a9cec","computeShareValue()":"4148fc4f","getIndexFundToken()":"75696e7f","getIndexTokens()":"38f250ec","getRoleAdmin(bytes32)":"248a9ca3","getStablecoin()":"b6f67312","grantRole(bytes32,address)":"2f2ff15d","hasRole(bytes32,address)":"91d14854","mintShares(bytes32,bytes)":"35c995ec","renounceRole(bytes32,address)":"36568abe","revokeRole(bytes32,address)":"d547741f","sendFeesToProtocolOwner()":"05d7d94b","supportsInterface(bytes4)":"01ffc9a7"},"id":0}