{"abi":[{"type":"constructor","inputs":[{"name":"_indexTokens","type":"address[]","internalType":"address[]"},{"name":"_stablecoin","type":"address","internalType":"address"},{"name":"_decypheredStablecoin","type":"address","internalType":"address"},{"name":"_indexFundFactory","type":"address","internalType":"address"},{"name":"_marketDataFetcher","type":"address","internalType":"address"},{"name":"_swapsManagerProxy","type":"address","internalType":"address"},{"name":"_initialSharePrice","type":"uint256","internalType":"uint256"},{"name":"_poolKeys","type":"tuple[]","internalType":"struct PoolKey[]","components":[{"name":"currency0","type":"address","internalType":"Currency"},{"name":"currency1","type":"address","internalType":"Currency"},{"name":"fee","type":"uint24","internalType":"uint24"},{"name":"tickSpacing","type":"int24","internalType":"int24"},{"name":"hooks","type":"address","internalType":"contract IHooks"}]},{"name":"_numberOfSwapsToBatch","type":"uint8","internalType":"uint8"},{"name":"currentIndexFundsCount","type":"uint96","internalType":"uint96"}],"stateMutability":"nonpayable"},{"type":"function","name":"DEFAULT_ADMIN_ROLE","inputs":[],"outputs":[{"name":"","type":"bytes32","internalType":"bytes32"}],"stateMutability":"view"},{"type":"function","name":"burnShares","inputs":[{"name":"encryptedAmount","type":"bytes32","internalType":"einput"},{"name":"encryptedRedeemIndexTokens","type":"bytes32","internalType":"einput"},{"name":"inputProof","type":"bytes","internalType":"bytes"}],"outputs":[],"stateMutability":"nonpayable"},{"type":"function","name":"burnSharesCallback","inputs":[{"name":"requestID","type":"uint256","internalType":"uint256"},{"name":"transferErrorCode","type":"uint8","internalType":"uint8"},{"name":"decryptedAmount","type":"uint64","internalType":"uint64"},{"name":"redeemIndexTokens","type":"bool","internalType":"bool"},{"name":"hasUserEnoughSharesToBurn","type":"bool","internalType":"bool"}],"outputs":[],"stateMutability":"nonpayable"},{"type":"function","name":"callbackTriggers","inputs":[],"outputs":[{"name":"","type":"uint256","internalType":"uint256"}],"stateMutability":"view"},{"type":"function","name":"finishMintShares","inputs":[{"name":"user","type":"address","internalType":"address"}],"outputs":[],"stateMutability":"nonpayable"},{"type":"function","name":"finishRedeemInStablecoinCase","inputs":[{"name":"user","type":"address","internalType":"address"}],"outputs":[],"stateMutability":"nonpayable"},{"type":"function","name":"getIndexFundToken","inputs":[],"outputs":[{"name":"","type":"address","internalType":"contract IndexFundToken"}],"stateMutability":"view"},{"type":"function","name":"getIndexTokens","inputs":[],"outputs":[{"name":"","type":"address[]","internalType":"address[]"}],"stateMutability":"view"},{"type":"function","name":"getPendingStablecoinRedeemAmount","inputs":[],"outputs":[{"name":"pendingStablecoinRedeemAmount","type":"uint256","internalType":"euint64"}],"stateMutability":"view"},{"type":"function","name":"getRoleAdmin","inputs":[{"name":"role","type":"bytes32","internalType":"bytes32"}],"outputs":[{"name":"","type":"bytes32","internalType":"bytes32"}],"stateMutability":"view"},{"type":"function","name":"getSharePrice","inputs":[],"outputs":[{"name":"sharePrice","type":"uint256","internalType":"uint256"}],"stateMutability":"view"},{"type":"function","name":"getStablecoin","inputs":[],"outputs":[{"name":"","type":"address","internalType":"contract ConfidentialERC20WithErrorsWrapped"}],"stateMutability":"view"},{"type":"function","name":"grantRole","inputs":[{"name":"role","type":"bytes32","internalType":"bytes32"},{"name":"account","type":"address","internalType":"address"}],"outputs":[],"stateMutability":"nonpayable"},{"type":"function","name":"hasRole","inputs":[{"name":"role","type":"bytes32","internalType":"bytes32"},{"name":"account","type":"address","internalType":"address"}],"outputs":[{"name":"","type":"bool","internalType":"bool"}],"stateMutability":"view"},{"type":"function","name":"initRedeemAfterBurn","inputs":[],"outputs":[],"stateMutability":"nonpayable"},{"type":"function","name":"mintCallbackTriggers","inputs":[],"outputs":[{"name":"","type":"uint256","internalType":"uint256"}],"stateMutability":"view"},{"type":"function","name":"mintShares","inputs":[{"name":"encryptedAmount","type":"bytes32","internalType":"einput"},{"name":"inputProof","type":"bytes","internalType":"bytes"}],"outputs":[],"stateMutability":"nonpayable"},{"type":"function","name":"mintSharesCallback","inputs":[{"name":"requestID","type":"uint256","internalType":"uint256"},{"name":"transferErrorCode","type":"uint8","internalType":"uint8"},{"name":"decryptedAmount","type":"uint64","internalType":"uint64"}],"outputs":[],"stateMutability":"nonpayable"},{"type":"function","name":"renounceRole","inputs":[{"name":"role","type":"bytes32","internalType":"bytes32"},{"name":"callerConfirmation","type":"address","internalType":"address"}],"outputs":[],"stateMutability":"nonpayable"},{"type":"function","name":"revokeRole","inputs":[{"name":"role","type":"bytes32","internalType":"bytes32"},{"name":"account","type":"address","internalType":"address"}],"outputs":[],"stateMutability":"nonpayable"},{"type":"function","name":"sendFeesToProtocolOwner","inputs":[],"outputs":[],"stateMutability":"nonpayable"},{"type":"function","name":"supportsInterface","inputs":[{"name":"interfaceId","type":"bytes4","internalType":"bytes4"}],"outputs":[{"name":"","type":"bool","internalType":"bool"}],"stateMutability":"view"},{"type":"function","name":"updateSharePrice","inputs":[],"outputs":[],"stateMutability":"nonpayable"},{"type":"event","name":"BurnSwapsPerformed","inputs":[],"anonymous":false},{"type":"event","name":"EncryptedStablecoinTransfer","inputs":[{"name":"from","type":"uint256","indexed":true,"internalType":"eaddress"},{"name":"to","type":"uint256","indexed":true,"internalType":"eaddress"},{"name":"amount","type":"uint256","indexed":true,"internalType":"euint64"}],"anonymous":false},{"type":"event","name":"FeeCollected","inputs":[{"name":"user","type":"uint256","indexed":false,"internalType":"eaddress"},{"name":"feeAmount","type":"uint256","indexed":true,"internalType":"uint256"}],"anonymous":false},{"type":"event","name":"IndexTokensRedeemed","inputs":[],"anonymous":false},{"type":"event","name":"MintSwapsPerformed","inputs":[],"anonymous":false},{"type":"event","name":"RoleAdminChanged","inputs":[{"name":"role","type":"bytes32","indexed":true,"internalType":"bytes32"},{"name":"previousAdminRole","type":"bytes32","indexed":true,"internalType":"bytes32"},{"name":"newAdminRole","type":"bytes32","indexed":true,"internalType":"bytes32"}],"anonymous":false},{"type":"event","name":"RoleGranted","inputs":[{"name":"role","type":"bytes32","indexed":true,"internalType":"bytes32"},{"name":"account","type":"address","indexed":true,"internalType":"address"},{"name":"sender","type":"address","indexed":true,"internalType":"address"}],"anonymous":false},{"type":"event","name":"RoleRevoked","inputs":[{"name":"role","type":"bytes32","indexed":true,"internalType":"bytes32"},{"name":"account","type":"address","indexed":true,"internalType":"address"},{"name":"sender","type":"address","indexed":true,"internalType":"address"}],"anonymous":false},{"type":"event","name":"SharesBurned","inputs":[{"name":"user","type":"uint256","indexed":true,"internalType":"eaddress"},{"name":"amount","type":"uint256","indexed":true,"internalType":"uint256"}],"anonymous":false},{"type":"event","name":"SharesMintRevertedAmountTooBig","inputs":[],"anonymous":false},{"type":"event","name":"SharesMinted","inputs":[{"name":"user","type":"uint256","indexed":true,"internalType":"eaddress"},{"name":"amount","type":"uint256","indexed":true,"internalType":"uint256"}],"anonymous":false},{"type":"event","name":"SharesToMintAmountBiggerThanMax","inputs":[{"name":"minter","type":"uint256","indexed":false,"internalType":"eaddress"},{"name":"amountToBurn","type":"uint256","indexed":false,"internalType":"uint256"}],"anonymous":false},{"type":"error","name":"AccessControlBadConfirmation","inputs":[]},{"type":"error","name":"AccessControlUnauthorizedAccount","inputs":[{"name":"account","type":"address","internalType":"address"},{"name":"neededRole","type":"bytes32","internalType":"bytes32"}]},{"type":"error","name":"AmountToSwapTooBig","inputs":[{"name":"amountToSwap","type":"uint256","internalType":"uint256"}]},{"type":"error","name":"EncryptedTransferFailed","inputs":[{"name":"token","type":"uint256","internalType":"eaddress"},{"name":"from","type":"uint256","internalType":"eaddress"},{"name":"to","type":"uint256","internalType":"eaddress"},{"name":"amount","type":"uint256","internalType":"uint256"}]},{"type":"error","name":"InsufficientAllowance","inputs":[{"name":"allower","type":"uint256","internalType":"eaddress"},{"name":"token","type":"address","internalType":"address"}]},{"type":"error","name":"NoPendingWithdrawal","inputs":[{"name":"user","type":"uint256","internalType":"eaddress"}]},{"type":"error","name":"NotEnoughSwapsToBatch","inputs":[]},{"type":"error","name":"ReentrancyGuardReentrantCall","inputs":[]},{"type":"error","name":"SharesToBurnAmountBiggerThanMax","inputs":[{"name":"burner","type":"uint256","internalType":"eaddress"},{"name":"amountToBurn","type":"uint256","internalType":"uint256"}]},{"type":"error","name":"TransferFailed","inputs":[{"name":"token","type":"address","internalType":"address"},{"name":"from","type":"uint256","internalType":"eaddress"},{"name":"to","type":"uint256","internalType":"eaddress"},{"name":"amount","type":"uint256","internalType":"euint256"}]},{"type":"error","name":"UserShareBalanceTooSmall","inputs":[{"name":"user","type":"uint256","internalType":"eaddress"},{"name":"amountToBurn","type":"uint256","internalType":"uint256"}]}],"bytecode":{"object":"0x6080806040523461075a5761504c803803809161001c8285610832565b833981016101408282031261075a5781516001600160401b03811161075a57820181601f8201121561075a57805161005381610855565b916100616040519384610832565b818352602083016020819360051b8301019185831161075a57602001905b8282106107ff575050506100956020850161086c565b6100a16040860161086c565b916100ae6060870161086c565b936100bb6080880161086c565b956100c860a0890161086c565b60c089015160e08a01519098906001600160401b03811161075a578a019280601f8501121561075a578351906100fd82610855565b9461010b6040519687610832565b8286526020860191602060a08495028301019181831161075a57602001925b82841061076657505050506101008b01519a60ff8c168c0361075a5761012001516001600160601b03811699908a900361075a57600180555f606060405161017181610817565b8281528260208201528260408201520152739d6891a6240d6130c54ae243d8005063d05fe14b60606040516101a581610817565b73fee8407e2f5e3ee68ad77cae98c434e637f516e580825273687408ab54661ba0b4aef3a44156c616c6955e07602080840182905273fb03be574d14c256d56f09a198b586bdfc0a9de2604080860182905295909401959095527fed8d60e34876f751cc8b014c560745351147d9de11b9347c854e881b128ea60080546001600160a01b031990811690931790557fed8d60e34876f751cc8b014c560745351147d9de11b9347c854e881b128ea6018054831690911790557fed8d60e34876f751cc8b014c560745351147d9de11b9347c854e881b128ea602805482169092179091557fed8d60e34876f751cc8b014c560745351147d9de11b9347c854e881b128ea60380548216739d6891a6240d6130c54ae243d8005063d05fe14b1790557f93ab6e17f2c461cce6ea5d4ec117e51dda77a64affc2b2c05f8cd440def0e70080549091167333347831500f1e73f0cccbb95c9f86b94d7b112317905551638da5cb5b60e01b81526001600160a01b039290921695919081600481895afa90811561058f575f91610728575b50601a80546001600160a01b0319166001600160a01b0392909216919091179055519068010000000000000000821161059a57600e5482600e558083106106a8575b50600e5f5260205f205f915b83831061060f575050601080546001600160a01b03199081166001600160a01b0395861617909155600f80548216959094169490941790925550506013805462010000600160d01b03191662010000600160d01b031790556011805490911691909117905551906001600160401b03821161059a5768010000000000000000821161059a57600d5482600d558083106105cb575b50600d5f5260205f205f5b8381106105ae57601680546001600160a01b038781166001600160a01b031992831617909255601780549289169290911691909117905588886020806104ee60236104bd8d6104b8602f610472836108bf565b6040519889916d24b73232bc233ab7322a37b5b2b760911b82840152605f60f81b602e8401528051918291018484015e81015f838201520301601f198101885287610832565b6108bf565b6040519384916212519560ea1b828401528051918291018484015e81015f838201520301601f198101835282610832565b60405191611ea991828401906001600160401b0382118583101761059a576105286105369386956131a38739604084526040840190610880565b916020818403910152610880565b03905ff0801561058f57601880546001600160a01b0319166001600160a01b0392909216919091179055601955600f805460ff60a01b191660a09290921b60ff60a01b1691909117905560405161276c9081610a378239f35b6040513d5f823e3d90fd5b634e487b7160e01b5f52604160045260245ffd5b82516001600160a01b03168183015560209092019160010161041f565b600d5f527fd7b6990105719101dabeb77144f2a3385c8033acd3af97e9423a695e81ad1eb59081019083015b8181106106045750610414565b5f81556001016105f7565b8051805183546001600160a01b039182166001600160a01b0319918216178555602080840151600180880180546040880151606089015160b81b62ffffff60b81b1662ffffff60a01b60a09290921b919091169488166001600160d01b03199092169190911793909317929092179091556080909401516002870180549190941692169190911790915593019260039092019101610380565b80600302906003820403610714578260030260038104840361071457600e5f527fbb7b4a454dc3493923482f07822329ed19e8244eff582cc204f8554c3620c3fd91820191015b8181106106fc5750610374565b805f600392555f60018201555f6002820155016106ef565b634e487b7160e01b5f52601160045260245ffd5b90506020813d60201161075e575b8161074360209383610832565b8101031261075a576107549061086c565b5f610332565b5f80fd5b3d9150610736565b60a08483031261075a576040519060a082016001600160401b0381118382101761059a576040526107968561086c565b82526107a46020860161086c565b6020830152604085015162ffffff8116810361075a57604083015260608501518060020b810361075a5760608301526080850151906001600160a01b038216820361075a5782602092608060a095015281520193019261012a565b6020809161080c8461086c565b81520191019061007f565b608081019081106001600160401b0382111761059a57604052565b601f909101601f19168101906001600160401b0382119082101761059a57604052565b6001600160401b03811161059a5760051b60200190565b51906001600160a01b038216820361075a57565b805180835260209291819084018484015e5f828201840152601f01601f1916010190565b6001600160401b03811161059a57601f01601f191660200190565b805f917a184f03e93ff9f4daa797ed6e38ed64bf6a1f010000000000000000821015610a0e575b806d04ee2d6d415b85acef8100000000600a9210156109f3575b662386f26fc100008110156109df575b6305f5e1008110156109ce575b6127108110156109bf575b60648110156109b1575b10156109a6575b600a6021600184019361094b856108a4565b946109596040519687610832565b808652610968601f19916108a4565b013660208701378401015b5f1901916f181899199a1a9b1b9c1cb0b131b232b360811b8282061a83530480156109a157600a9091610973565b505090565b600190910190610939565b606460029104930192610932565b61271060049104930192610928565b6305f5e1006008910493019261091d565b662386f26fc1000060109104930192610910565b6d04ee2d6d415b85acef810000000060209104930192610900565b50604091507a184f03e93ff9f4daa797ed6e38ed64bf6a1f01000000000000000081046108e656fe6080806040526004361015610012575f80fd5b5f905f3560e01c90816301ffc9a714611d565750806305d7d94b14611bc5578063248a9ca314611b935780632f2ff15d14611b545780633352a629146119f557806335c995ec1461165257806336568abe1461160d578063372df775146115e657806338f250ec1461157f5780635b1dac601461156157806375696e7f1461153857806376b150151461151f5780638fe01f0b146115015780639134867c14610f1057806391d1485414610ec757806397771de514610c71578063a217fddf14610c55578063b6f6731214610c2c578063b7064d99146108d8578063c3d02d96146108bb578063d547741f14610874578063e61681ef146105365763fcb74a451461011b575f80fd5b346105335760a036600319011261053357610134611e02565b61013c611e12565b90606435908115928315809303610464576084359182159283150361043c57610163612283565b5f805160206126f7833981519152546001600160a01b0316330361043c57601f546001810180911161051f57601f5560ff166104b5576001600160401b038060135460901c1691169081116104965760043585526009602052604085206001600160a01b03906101db906101d690611f52565b611eba565b511691610477576101ea611fc1565b60185485906001600160a01b0316803b1561047357818091602460405180948193634edf56a160e11b83528860048401525af180156104685761044f575b505061023333612433565b9080604051927f3acb72c06eaa137bacda5d4c12b12db324ae4cec48c4d80544122a8ffb28e28c8880a36318a5f69160e11b8252600c60048301526024820152848160448173__$4bd4e058d5e733e11ce3933a38e00d3f30$__5af490811561044457859161039d575b50818552601b602052604085208151916001600160401b03831161038957600160401b8311610389578154838355808410610363575b5060200190865260208620865b83811061034f57505050508352601c602052604083209060ff8019835416911617905561030f575b6001805580f35b60135460ff8160081c1660ff811461033b57600161ff00910160081b169061ff00191617601355610308565b634e487b7160e01b83526011600452602483fd5b6001906020845194019381840155016102e0565b828852836020892091820191015b81811061037e57506102d3565b888155600101610371565b634e487b7160e01b87526041600452602487fd5b90503d8086833e6103ae8183611e28565b81019060208183031261043c578051906001600160401b03821161044057019080601f8301121561043c578151916001600160401b038311610389578260051b9060208201936104016040519586611e28565b845260208085019282010192831161043857602001905b828210610428575050505f61029d565b8151815260209182019101610418565b8780fd5b8580fd5b8680fd5b6040513d87823e3d90fd5b8161045991611e28565b61046457845f610228565b8480fd5b6040513d84823e3d90fd5b5080fd5b8490610484604493612433565b633721f7cb60e01b8352600452602452fd5b846044916104a333612433565b6353d6b89960e11b8352600452602452fd5b6018546104ca906001600160a01b0316612433565b61051b6104d633612433565b926104e030612433565b604051948594638443530d60e01b86526004860192936001600160401b03919594606093608086019786526020860152604085015216910152565b0390fd5b634e487b7160e01b87526011600452602487fd5b80fd5b503461053357602036600319011261053357610550611dbf565b6001600160a01b038116808352601e60205260408320549091906001600160401b0316801561082f57828452601e60205260408420805467ffffffffffffffff1916905560165484906001600160a01b0316803b156104735781809160246040518094819363dc412e8360e01b83528860048401525af180156104685761081a575b5073__$4bd4e058d5e733e11ce3933a38e00d3f30$__6040519263304e078360e01b8452600c60048501526024840152604083604481845af4801561046857829383916107e1575b507faf7c505ee772ec188af7067e1f73db08ab028e3d564273442b907742b9c41fa0602061064787612433565b604051908152a260ff6013541660ff600f5460a01c161461076c575b505061066d611fc1565b6019548015610719576106896001600160401b03918693611fa3565b169260018060a01b036018541690813b156107155782916044839260405194859384926302893c5b60e41b845260048401528960248401525af1801561046857610700575b50506106d990612433565b7f0a7d587acc3bafe631c58ed4a25eda1e905acfb47594d1b86b332ae63df225948380a380f35b8161070a91611e28565b61071557825f6106ce565b8280fd5b60405162461bcd60e51b815260206004820152602560248201527f5368617265207072696365206d7573742062652067726561746572207468616e604482015264207a65726f60d81b6064820152608490fd5b803b1561047357816024916040519283809263a52cd1cb60e01b8252600c60048301525af48015610468576107c8575b50807f79154593ad5827af96f232d8b081e8d48c8bad62e5314fd67880b9880b48124091a1835f610663565b816107d291611e28565b6107dd57835f61079c565b8380fd5b9350506040833d604011610812575b816107fd60409383611e28565b8101031261047357602083519301515f61061a565b3d91506107f0565b8161082491611e28565b6107dd57835f6105d2565b60405162461bcd60e51b815260206004820152601d60248201527f4e6f2070656e64696e67206d696e7420666f72207468697320757365720000006044820152606490fd5b5034610533576040366003190112610533576108b7600435610894611da9565b906108b26108ad825f525f602052600160405f20015490565b6122a3565b6123b3565b5080f35b503461053357806003193601126105335760208054604051908152f35b5034610533578060031936011261053357338152601b602052604081205415610c1157338152601b602052604081206040518082602082945493848152019085526020852092855b818110610bf857505061093592500382611e28565b338252601c6020528160ff604082205416338252601b6020526040822080549083815581610bd8575b505015610a2f575060ff60135460081c1660ff600f5460a01c1611610a2057819073__$4bd4e058d5e733e11ce3933a38e00d3f30$__803b15610a1c576109d19183916040518080958194630881151960e01b8352600c6004840152336024840152606060448401526064830190612250565b03915af4801561046857610a07575b50807ee2d681c483528119b71f74ebcd6ad9dd9ca7fd71ea2245aa2362e27d3f2eb691a180f35b81610a1191611e28565b61053357805f6109e0565b5050fd5b634cc203a560e11b8252600482fd5b610a6a91602060018060a01b03601654169160405180958192632e128d5b60e11b8352600c6004840152604060248401526044830190612250565b038173__$4bd4e058d5e733e11ce3933a38e00d3f30$__5af4928315610468578293610b9d575b5060175460165460405163095ea7b360e01b81526001600160a01b0391821660048201526024810186905291602091839160449183918891165af18015610b9257610b65575b50803b1561047357818091602460405180948193630ea598cb60e41b83528860048401525af1801561046857610b50575b5050610b139061250f565b338252601d6020526040822055338152601d602052610b36336040832054612682565b338152601d602052610b4d60408220543090612682565b80f35b81610b5a91611e28565b61047357815f610b08565b610b869060203d602011610b8b575b610b7e8183611e28565b810190611e5d565b610ad7565b503d610b74565b6040513d85823e3d90fd5b915091506020813d602011610bd0575b81610bba60209383611e28565b81010312610bcc57829051915f610a91565b5f80fd5b3d9150610bad565b835260208320908101905b8181101561095e579283558492600101610be3565b8454835260019485019486945060209093019201610920565b602490610c1d33612433565b63cd7a4aa560e01b8252600452fd5b50346105335780600319360112610533576016546040516001600160a01b039091168152602090f35b5034610533578060031936011261053357602090604051908152f35b503461053357606036600319011261053357610c8b611e02565b610c93611e12565b90610c9c612283565b5f805160206126f7833981519152546001600160a01b031633036107155760205460018101809111610eb3576020556004358352600960205260018060a01b03610ceb6101d660408620611f52565b51169060ff60018060a01b03601654169116610ea9578390610d0c83612433565b6001600160401b03610d1d30612433565b951694610d298661250f565b917ffdda383f98b7ae2bbc9363df5694616f2c7890613a6dc6e80c9328c1186d95ef8580a46001600160401b0360135460901c168411610d86575b5052601e60205260408220906001600160401b03198254161790556001805580f35b610d8f8461250f565b5f805160206126d7833981519152546001600160a01b0316803b156107dd576040516346ce4e4960e11b8152600481018390526001600160a01b03841660248201529084908290604490829084905af1908115610e89578491610e94575b505060405163a9059cbb60e01b81526001600160a01b038516600482015260248101919091529160209183916044918391905af18015610e8957610e6c575b507f6f59438bec28ae7fde9ad29d1b94c360525f0ffd036127ccc684c82eb8cbc7a26040610e5983612433565b8151908152846020820152a1825f610d64565b610e849060203d602011610b8b57610b7e8183611e28565b610e2c565b6040513d86823e3d90fd5b81610e9e91611e28565b61071557825f610ded565b6104ca9150612433565b634e487b7160e01b84526011600452602484fd5b5034610533576040366003190112610533576040610ee3611da9565b91600435815280602052209060018060a01b03165f52602052602060ff60405f2054166040519015158152f35b5034610533576060366003190112610533576044356001600160401b03811161047357610f71602080610f4960a4943690600401611dd5565b9390610f53612283565b610f69610f61368784611e75565b600435612565565b943691611e75565b60018060a01b035f80516020612717833981519152541690866040519687809581946302e817ff60e41b83526024356004840152336024840152608060448401528051918291826084860152018484015e83838284010152836064830152601f801991011681010301925af1918215610b925783926114cd575b505f805160206126d78339815191525483906001600160a01b0316803b15610473576040516346ce4e4960e11b8152600481018590523360248201529082908290604490829084905af18015610468576114b8575b50506018546040516306e928fd60e01b81523360048201526001600160a01b0390911692909160208360248188885af1928315610444578593611484575b508281938215611474575b15611462575b602090606460018060a01b035f805160206127178339815191525416958860405197889485936334a6d7b960e11b8552600485015260248401528160448401525af192831561044457859361142e575b505f805160206126d78339815191525485906001600160a01b0316803b15610473576040516346ce4e4960e11b8152600481018490526001600160a01b03871660248201529082908290604490829084905af1801561046857611419575b50506040516323b872dd60e01b81523360048201523060248201526044810182905260208160648189895af180156113f1576113fc575b50604051630cf4e94560e31b8152602081600481885afa9081156113f15786916113bf575b505f1981019081116113ab5760209060246040518097819363a5184baf60e01b835260048301525afa938415610444578594611377575b50604051936111e060a086611e28565b6004855260803660208701376111f585611eba565b526111ff84611edb565b5282516002101561136357606083015281516003101561134f576080820152606442019081421161033b575f805160206126d78339815191525483906001600160a01b0316803b156104735781604051809263155f840160e21b825260206004830152818381611272602482018a612250565b03925af180156104685761133a575b50505f805160206126f783398151915254604051634c0d927760e01b815260a060048201529260209284926001600160a01b0316918391879183916112ca9060a4840190612250565b9063fcb74a4560e01b6024840152836044840152606483015282608483015203925af18015610468578290611306575b61030891503390612363565b506020813d602011611332575b8161132060209383611e28565b81010312610bcc5761030890516112fa565b3d9150611313565b8161134491611e28565b61071557825f611281565b634e487b7160e01b83526032600452602483fd5b634e487b7160e01b84526032600452602484fd5b9093506020813d6020116113a3575b8161139360209383611e28565b81010312610bcc5751925f6111d0565b3d9150611386565b634e487b7160e01b86526011600452602486fd5b90506020813d6020116113e9575b816113da60209383611e28565b81010312610bcc57515f611199565b3d91506113cd565b6040513d88823e3d90fd5b6114149060203d602011610b8b57610b7e8183611e28565b611174565b8161142391611e28565b61046457845f61113d565b9092506020813d60201161145a575b8161144a60209383611e28565b81010312610bcc5751915f6110df565b3d915061143d565b50602061146d6124b9565b905061108f565b935061147e6124b9565b93611089565b9092506020813d6020116114b0575b816114a060209383611e28565b810103126104645751915f61107e565b3d9150611493565b816114c291611e28565b61071557825f611040565b9091506020813d6020116114f9575b816114e960209383611e28565b81010312610bcc5751905f610feb565b3d91506114dc565b50346105335780600319360112610533576020601f54604051908152f35b5034610533578060031936011261053357610b4d611fc1565b50346105335780600319360112610533576018546040516001600160a01b039091168152602090f35b50346105335780600319360112610533576020601954604051908152f35b5034610533578060031936011261053357611598611eff565b90604051918291602083016020845282518091526020604085019301915b8181106115c4575050500390f35b82516001600160a01b03168452859450602093840193909201916001016115b6565b50346105335780600319360112610533576040602091338152601d83522054604051908152f35b503461053357604036600319011261053357611627611da9565b336001600160a01b03821603611643576108b7906004356123b3565b63334bd91960e11b8252600482fd5b5034610533576040366003190112610533576024356001600160401b03811161047357906116a861168a610f61933690600401611dd5565b9390611694612283565b6016546001600160a01b0316943691611e75565b5f805160206126d7833981519152546001600160a01b0316803b15610715576040516346ce4e4960e11b8152600481018390526001600160a01b03851660248201529083908290604490829084905af18015610b92579083916119e0575b50506040516323b872dd60e01b81523360048201523060248201526044810182905260208160648186885af18015610b92576119c3575b50604051630cf4e94560e31b8152602081600481875afa908115610b92578391611991575b501561195857604051630cf4e94560e31b8152602081600481875afa908115610b92578391611926575b505f19810190811161033b5782936024602092604051958693849263a5184baf60e01b845260048401525af1918215610b925783926118f2575b50604051916117d6606084611e28565b6002835260403660208501376117eb83611eba565b526117f582611edb565b52606442019081421161033b575f805160206126d78339815191525483906001600160a01b0316803b156104735781604051809263155f840160e21b82526020600483015281838161184a602482018a612250565b03925af18015610468576118dd575b50505f805160206126f783398151915254604051634c0d927760e01b815260a060048201529260209284926001600160a01b0316918391879183916118a29060a4840190612250565b906397771de560e01b6024840152836044840152606483015282608483015203925af180156104685782906113065761030891503390612363565b816118e791611e28565b61071557825f611859565b9091506020813d60201161191e575b8161190e60209383611e28565b81010312610bcc5751905f6117c6565b3d9150611901565b90506020813d602011611950575b8161194160209383611e28565b81010312610bcc57515f61178c565b3d9150611934565b60405162461bcd60e51b8152602060048201526011602482015270139bc8195c9c9bdc881c9958dbdc991959607a1b6044820152606490fd5b90506020813d6020116119bb575b816119ac60209383611e28565b81010312610bcc57515f611762565b3d915061199f565b6119db9060203d602011610b8b57610b7e8183611e28565b61173d565b816119ea91611e28565b61047357815f611706565b5034610bcc576020366003190112610bcc57611a0f611dbf565b6001600160a01b0381165f818152601d60205260409020549190611a316124b9565b5f918252601d6020526040909120556016545f805160206126d7833981519152546001600160a01b03918216929116803b15610bcc576040516346ce4e4960e11b8152600481018590526001600160a01b0384166024820152905f908290604490829084905af18015611b4957611b2a575b5060405163a9059cbb60e01b81526001600160a01b03909116600482015260248101929092526020908290818581604481015b03925af1801561046857611b0d575b507f875fc5b1c93e96a85172e0d2b74fcdb6f314c3460e99e6a7da8743bc8b75e37c8180a180f35b611b259060203d602011610b8b57610b7e8183611e28565b611ae5565b611ad69391945091611b3e5f602094611e28565b5f9491935091611aa3565b6040513d5f823e3d90fd5b34610bcc576040366003190112610bcc57611b91600435611b73611da9565b90611b8c6108ad825f525f602052600160405f20015490565b6122db565b005b34610bcc576020366003190112610bcc576020611bbd6004355f525f602052600160405f20015490565b604051908152f35b34610bcc575f366003190112610bcc57601a546001600160a01b03163303611cfa57611bef612283565b6012548015611cc357601754601a5460405163a9059cbb60e01b81526001600160a01b0391821660048201526024810193909352602091839160449183915f91165af1908115611b49575f91611ca4575b5015611c50575f60125560018055005b60405162461bcd60e51b815260206004820152602660248201527f4661696c656420746f2073656e64206665657320746f2070726f746f636f6c2060448201526537bbb732b91760d11b6064820152608490fd5b611cbd915060203d602011610b8b57610b7e8183611e28565b81611c40565b60405162461bcd60e51b815260206004820152600f60248201526e139bc81999595cc81d1bc81cd95b99608a1b6044820152606490fd5b60405162461bcd60e51b815260206004820152602e60248201527f4f6e6c79207468652070726f746f636f6c206f776e65722063616e2063616c6c60448201526d103a3434b990333ab731ba34b7b760911b6064820152608490fd5b34610bcc576020366003190112610bcc576004359063ffffffff60e01b8216809203610bcc57602091637965db0b60e01b8114908115611d98575b5015158152f35b6301ffc9a760e01b14905083611d91565b602435906001600160a01b0382168203610bcc57565b600435906001600160a01b0382168203610bcc57565b9181601f84011215610bcc578235916001600160401b038311610bcc5760208381860195010111610bcc57565b6024359060ff82168203610bcc57565b604435906001600160401b0382168203610bcc57565b90601f801991011681019081106001600160401b03821117611e4957604052565b634e487b7160e01b5f52604160045260245ffd5b90816020910312610bcc57518015158103610bcc5790565b9291926001600160401b038211611e495760405191611e9e601f8201601f191660200184611e28565b829481845281830111610bcc578281602093845f960137010152565b805115611ec75760200190565b634e487b7160e01b5f52603260045260245ffd5b805160011015611ec75760400190565b8051821015611ec75760209160051b010190565b60405190600d548083528260208101600d5f5260205f20925f5b818110611f30575050611f2e92500383611e28565b565b84546001600160a01b0316835260019485019487945060209093019201611f19565b90604051918281549182825260208201905f5260205f20925f5b818110611f81575050611f2e92500383611e28565b84546001600160a01b0316835260019485019487945060209093019201611f6c565b8115611fad570490565b634e487b7160e01b5f52601260045260245ffd5b5f90611fcb611eff565b6010545f936001600160a01b03909116905b8251851015612194576001600160a01b03611ff88685611eeb565b51604051630681320d60e51b815291166004820152602081602481865afa8015611b49575f90612162575b6024915060206001600160a01b0361203b8988611eeb565b5116604051938480926370a0823160e01b82523060048301525afa918215611b49575f9261212e575b5060049060206001600160a01b0361207c8a89611eeb565b51166040519384809263313ce56760e01b82525afa918215611b49575f926120f1575b508281029281840414901517156120dd5760ff1690604d82116120dd576120c991600a0a90611fa3565b81018091116120dd57600190940193611fdd565b634e487b7160e01b5f52601160045260245ffd5b9091506020813d8211612126575b8161210c60209383611e28565b81010312610bcc575160ff81168103610bcc57905f61209f565b3d91506120ff565b9091506020813d821161215a575b8161214960209383611e28565b81010312610bcc5751906004612064565b3d915061213c565b506020813d821161218c575b8161217b60209383611e28565b81010312610bcc5760249051612023565b3d915061216e565b6018546040516318160ddd60e01b81529495509093925060209150829060049082906001600160a01b03165afa8015611b49575f90612207575b6001600160401b03915016806121e2575050565b620f4240820291808304620f424014901517156120dd5761220291611fa3565b601955565b506020813d602011612248575b8161222160209383611e28565b81010312610bcc57516001600160401b0381168103610bcc576001600160401b03906121ce565b3d9150612214565b90602080835192838152019201905f5b81811061226d5750505090565b8251845260209384019390920191600101612260565b600260015414612294576002600155565b633ee5aeb560e01b5f5260045ffd5b5f8181526020818152604080832033845290915290205460ff16156122c55750565b63e2517d3f60e01b5f523360045260245260445ffd5b5f818152602081815260408083206001600160a01b038616845290915290205460ff1661235d575f818152602081815260408083206001600160a01b0395909516808452949091528120805460ff19166001179055339291907f2f8788117e7eff1d82e926ec794901d17c78024a50270940304540a733656f0d9080a4600190565b50505f90565b5f52600960205260405f20805490600160401b821015611e495760018201808255821015611ec7575f5260205f20019060018060a01b03166bffffffffffffffffffffffff60a01b825416179055565b5f818152602081815260408083206001600160a01b038616845290915290205460ff161561235d575f818152602081815260408083206001600160a01b0395909516808452949091528120805460ff19169055339291907ff6391f5c32d9c69d2a47ea670b442974b53935d1edc7fd64eb21e047a839171b9080a4600190565b5f8051602061271783398151915254604051631ce2e8d760e31b81526001600160a01b039283166004820152600760f81b602482015291602091839160449183915f91165af1908115611b49575f9161248a575090565b90506020813d6020116124b1575b816124a560209383611e28565b81010312610bcc575190565b3d9150612498565b5f8051602061271783398151915254604051631ce2e8d760e31b81525f60048201819052600560f81b60248301529091602091839160449183916001600160a01b03165af1908115611b49575f9161248a575090565b5f8051602061271783398151915254604051631ce2e8d760e31b81526004810192909252600560f81b6024830152602090829060449082905f906001600160a01b03165af1908115611b49575f9161248a575090565b6020929183915f8051602061271783398151915254905f60a46040518098819682956302e817ff60e41b84526004840152336024840152608060448401528051918291826084860152018484015e8181018301849052600560f81b6064830152601f01601f191681010301926001600160a01b03165af1918215611b49575f9261264e575b505f805160206126d78339815191525482906001600160a01b0316803b15610bcc576040516346ce4e4960e11b815260048101929092523360248301525f908290818381604481015b03925af18015611b49576126445750565b5f611f2e91611e28565b9091506020813d60201161267a575b8161266a60209383611e28565b81010312610bcc5751905f6125ea565b3d915061265d565b5f805160206126d7833981519152546001600160a01b031691823b15610bcc57604051631974142760e21b815260048101929092526001600160a01b03166024820152905f9082908183816044810161263356feed8d60e34876f751cc8b014c560745351147d9de11b9347c854e881b128ea60093ab6e17f2c461cce6ea5d4ec117e51dda77a64affc2b2c05f8cd440def0e700ed8d60e34876f751cc8b014c560745351147d9de11b9347c854e881b128ea601a26469706673582212201f550efbdf5179924f2462a8892f1e579b339bcb2bd95aef86c10a38c1b1248564736f6c634300081a003360a0806040523461040957611ea9803803809161001c828561066b565b83398101906040818303126104095780516001600160401b038111610409578261004791830161068e565b60208201519092906001600160401b03811161040957610067920161068e565b5f606060405161007681610650565b8281528260208201528260408201520152739d6891a6240d6130c54ae243d8005063d05fe14b60606040516100aa81610650565b73fee8407e2f5e3ee68ad77cae98c434e637f516e5815273687408ab54661ba0b4aef3a44156c616c6955e07602082015273fb03be574d14c256d56f09a198b586bdfc0a9de26040820152015273fee8407e2f5e3ee68ad77cae98c434e637f516e560018060a01b03195f80516020611e298339815191525416175f80516020611e298339815191525573687408ab54661ba0b4aef3a44156c616c6955e0760018060a01b03195f80516020611e698339815191525416175f80516020611e698339815191525573fb03be574d14c256d56f09a198b586bdfc0a9de260018060a01b03195f80516020611e898339815191525416175f80516020611e8983398151915255739d6891a6240d6130c54ae243d8005063d05fe14b60018060a01b03195f80516020611e498339815191525416175f80516020611e4983398151915255331561063d57600180546001600160a01b03199081169091555f805433928116831782556001600160a01b0316907f8be0079c531659141344cd1fd0a4f28419497f9722a3daafe3b4186f6b6457e09080a381516001600160401b03811161055057600254600181811c91168015610633575b602082101461053257601f81116105d0575b50602092601f821160011461056f57928192935f92610564575b50508160011b915f199060031b1c1916176002555b80516001600160401b03811161055057600354600181811c91168015610546575b602082101461053257601f81116104cf575b50602091601f821160011461046f579181925f92610464575b50508160011b915f199060031b1c1916176003555b5f5b60ff81169060028211610440575f80516020611e6983398151915254604051631ce2e8d760e31b815260048101849052600160f91b60248201529290602090849060449082905f906001600160a01b03165af19283156103fe575f9361040d575b505f9081526007602052604090208290555f80516020611e29833981519152546001600160a01b031691823b15610409575f92604484926040519586938492631974142760e21b845260048401523060248401525af19182156103fe5760ff926103ee575b501660ff81146103da57600101610302565b634e487b7160e01b5f52601160045260245ffd5b5f6103f89161066b565b5f6103c8565b6040513d5f823e3d90fd5b5f80fd5b9092506020813d8211610438575b816104286020938361066b565b810103126104095751915f610363565b3d915061041b565b600260805260405161174590816106e48239608051818181610c8d0152610f910152f35b015190505f806102eb565b601f1982169260035f52805f20915f5b8581106104b75750836001951061049f575b505050811b01600355610300565b01515f1960f88460031b161c191690555f8080610491565b9192602060018192868501518155019401920161047f565b60035f527fc2575a0e9e593c00f959f8c92f12db2869c3395a3b0502d05e2516446f71f85b601f830160051c81019160208410610528575b601f0160051c01905b81811061051d57506102d2565b5f8155600101610510565b9091508190610507565b634e487b7160e01b5f52602260045260245ffd5b90607f16906102c0565b634e487b7160e01b5f52604160045260245ffd5b015190505f8061028a565b601f1982169360025f52805f20915f5b8681106105b857508360019596106105a0575b505050811b0160025561029f565b01515f1960f88460031b161c191690555f8080610592565b9192602060018192868501518155019401920161057f565b60025f527f405787fa12a823e0f2b7631cc41b3ba8828b3321ca811111fa75cd3aa3bb5ace601f830160051c81019160208410610629575b601f0160051c01905b81811061061e5750610270565b5f8155600101610611565b9091508190610608565b90607f169061025e565b631e4fbdf760e01b5f525f60045260245ffd5b608081019081106001600160401b0382111761055057604052565b601f909101601f19168101906001600160401b0382119082101761055057604052565b81601f82011215610409578051906001600160401b03821161055057604051926106c2601f8401601f19166020018561066b565b8284526020838301011161040957815f9260208093018386015e830101529056fe6080806040526004361015610012575f80fd5b5f905f3560e01c90816306e928fd14610a575750806306fdde031461099a578063095ea7b31461097257806318160ddd1461094757806323b872dd146109175780632893c5b014610734578063313ce5671461071857806367a74a28146106fa57806370a08231146106c1578063715018a61461065c57806379ba5097146105d75780637b7e0a5a146105b95780638da5cb5b1461059257806395d89b41146104815780639a0943521461041f5780639dbead42146102ac578063a5184baf14610268578063a9059cbb14610236578063b32c1001146101fb578063dd62ed3e146101a8578063e30c39781461017f5763f2fde38b14610110575f80fd5b3461017c57602036600319011261017c57610129610afd565b610131611324565b600180546001600160a01b0319166001600160a01b0392831690811790915582549091167f38d16b8cac22d99fc7c124b9cd0de2d3fa1faef420bfe791d8c362d765e227008380a380f35b80fd5b503461017c578060031936011261017c576001546040516001600160a01b039091168152602090f35b503461017c57604036600319011261017c5760406101c4610afd565b916101cd610b13565b9260018060a01b031681526005602052209060018060a01b03165f52602052602060405f2054604051908152f35b503461017c5761022a61021e61022461021336610b7b565b949192943691610f26565b9061134a565b90610bf8565b50602060405160018152f35b503461017c57604036600319011261017c57602061025e610255610afd565b60243590610f6c565b6040519015158152f35b503461017c57602036600319011261017c5760043560065481101561029d578160409160209352600883522054604051908152f35b63d65c1f3360e01b8252600482fd5b503461017c57602036600319011261017c5760043567ffffffffffffffff811680910361041b5733825260046020528160408120548015610409575b5f805160206116f083398151915254604051638c14cc2160e01b8152600481019290925260248201849052600160f81b6044830152909160209183916064918391906001600160a01b03165af180156103fe5783906103c6575b6103669150338452600460205280604085205561035f30826115bf565b33906115bf565b6001549067ffffffffffffffff8260a01c160367ffffffffffffffff81116103b25767ffffffffffffffff60a01b1990911660a09190911b67ffffffffffffffff60a01b161760015580f35b634e487b7160e01b83526011600452602483fd5b506020813d6020116103f6575b816103e060209383610bc2565b810103126103f2576103669051610342565b5f80fd5b3d91506103d3565b6040513d85823e3d90fd5b506020610414611679565b90506102e8565b5080fd5b503461017c57608036600319011261017c57610439610afd565b610441610b13565b6064359267ffffffffffffffff841161017c575061047b61047361046c61022a953690600401610b4d565b3691610f26565b60443561134a565b91610c4d565b503461017c578060031936011261017c576040519080600354908160011c91600181168015610588575b6020841081146105745783865290811561054d57506001146104f0575b6104ec846104d881860382610bc2565b604051918291602083526020830190610b29565b0390f35b600381527fc2575a0e9e593c00f959f8c92f12db2869c3395a3b0502d05e2516446f71f85b939250905b808210610533575090915081016020016104d8826104c8565b91926001816020925483858801015201910190929161051a565b60ff191660208087019190915292151560051b850190920192506104d891508390506104c8565b634e487b7160e01b83526022600452602483fd5b92607f16926104ab565b503461017c578060031936011261017c57546040516001600160a01b039091168152602090f35b503461017c5761022a61021e6105d161021336610b7b565b90610f6c565b503461017c578060031936011261017c57600154336001600160a01b039091160361064957600180546001600160a01b0319908116909155815433918116821783556001600160a01b03167f8be0079c531659141344cd1fd0a4f28419497f9722a3daafe3b4186f6b6457e08380a380f35b63118cdaa760e01b815233600452602490fd5b503461017c578060031936011261017c57610675611324565b600180546001600160a01b03199081169091558154908116825581906001600160a01b03167f8be0079c531659141344cd1fd0a4f28419497f9722a3daafe3b4186f6b6457e08280a380f35b503461017c57602036600319011261017c576020906040906001600160a01b036106e9610afd565b168152600483522054604051908152f35b503461017c578060031936011261017c576020600654604051908152f35b503461017c578060031936011261017c57602060405160068152f35b503461017c57604036600319011261017c5761074e610afd565b60243567ffffffffffffffff81168091036109135761076b611324565b6001600160a01b03821680845260046020526040842054909284918015610901575b5f805160206116f08339815191525460405163f953e42760e01b8152600481019290925260248201859052600160f81b6044830152909260209184916064918391906001600160a01b03165af180156108f65785906108c2575b6108099250848652600460205280604087205561080430826115bf565b6115bf565b81837fddf252ad1be2c89b69c2b068fc378daa952ba7f163c4a11628f55a4df523b3ef60206040515f198152a36001548167ffffffffffffffff8260a01c160167ffffffffffffffff81116108ae5767ffffffffffffffff60a01b1990911660a09190911b67ffffffffffffffff60a01b16176001556040519081527f9109de113672aaca72ede8bc906f7aafabee865311ac020fb15c71edf94a0a0190602090a280f35b634e487b7160e01b85526011600452602485fd5b506020823d6020116108ee575b816108dc60209383610bc2565b810103126103f25761080991516107e7565b3d91506108cf565b6040513d87823e3d90fd5b50602061090c611679565b905061078d565b8280fd5b503461017c57606036600319011261017c57602061025e610936610afd565b61093e610b13565b60443591610c4d565b503461017c578060031936011261017c57602067ffffffffffffffff60015460a01c16604051908152f35b503461017c57604036600319011261017c57602061025e610991610afd565b60243590610bf8565b503461017c578060031936011261017c576040519080600254908160011c91600181168015610a4d575b6020841081146105745783865290811561054d57506001146109f0576104ec846104d881860382610bc2565b600281527f405787fa12a823e0f2b7631cc41b3ba8828b3321ca811111fa75cd3aa3bb5ace939250905b808210610a33575090915081016020016104d8826104c8565b919260018160209254838588010152019101909291610a1a565b92607f16926109c4565b346103f25760203660031901126103f2576001600160a01b03610a78610afd565b165f908152600460205260409020545f805160206116d0833981519152546001600160a01b0316803b156103f2576346ce4e4960e11b8352600483018290523360248401525f908390604490829084905af1918215610af257602092610ae2575b50604051908152f35b5f610aec91610bc2565b5f610ad9565b6040513d5f823e3d90fd5b600435906001600160a01b03821682036103f257565b602435906001600160a01b03821682036103f257565b805180835260209291819084018484015e5f828201840152601f01601f1916010190565b9181601f840112156103f25782359167ffffffffffffffff83116103f257602083818601950101116103f257565b60606003198201126103f2576004356001600160a01b03811681036103f25791602435916044359067ffffffffffffffff82116103f257610bbe91600401610b4d565b9091565b90601f8019910116810190811067ffffffffffffffff821117610be457604052565b634e487b7160e01b5f52604160045260245ffd5b90610c0d90610c0681611035565b82336110d4565b6040515f1981526001600160a01b039091169033907f8c5be1e5ebec7d5bd14f71427d1e84f3dd0314c0f7b2291e5b200ac8c7c3b92590602090a3600190565b91610c5781611035565b6001600160a01b0383165f81815260056020908152604080832033845290915290205493909290610c88858461144a565b9360ff7f0000000000000000000000000000000000000000000000000000000000000000169485600211610eae5760076020527f6d5257204ebe7d88fd91ae87941cb2dd9d8062b64ae5a2bd2d28ec40b9fbf6df5460025f9081527fb7c774451310d1be4108bc180d1b52823cb0ee0274a6c0081bcaf94f115fb96d54909391610d13919084611627565b9083526004602052610d2960408420548761144a565b96602060018060a01b035f805160206116f083398151915254166024604051809781936309c00ffd60e11b83528d60048401525af1938415610af2575f94610ef1575b505f805160206116f083398151915254604051630ccd46b160e31b81526004810195909552602485018490525f6044860181905260209186916064918391906001600160a01b03165af1938415610af2575f94610ebd575b50600111610eae57610de9610dfd9160209460015f526007865260405f205490611627565b610df2816114fd565b5061035f85826115bf565b606460018060a01b035f805160206116f08339815191525416965f6040519889948593630ccd46b160e31b8552600485015260248401528160448401525af1938415610af2575f94610e76575b50610e6c610e6586610e5f86610e719961152a565b87611627565b33836110d4565b611151565b600190565b9493506020853d602011610ea6575b81610e9260209383610bc2565b810103126103f25793519293610e6c610e4a565b3d9150610e85565b63d65c1f3360e01b5f5260045ffd5b9093506020813d602011610ee9575b81610ed960209383610bc2565b810103126103f25751925f610dc4565b3d9150610ecc565b93506020843d602011610f1e575b81610f0c60209383610bc2565b810103126103f2579251926020610d6c565b3d9150610eff565b92919267ffffffffffffffff8211610be45760405191610f50601f8201601f191660200184610bc2565b8294818452818301116103f2578281602093845f960137010152565b90610f7681611035565b335f526004602052610f8c60405f20548261144a565b9060ff7f000000000000000000000000000000000000000000000000000000000000000016600111610eae5760076020527f6d5257204ebe7d88fd91ae87941cb2dd9d8062b64ae5a2bd2d28ec40b9fbf6df5460015f527fb39221ace053465ec3453ce2b36430bd138b997ecea25c1043da0c366812b82854610e71949161102f91839161101b919087611627565b611024816114fd565b5061080433826115bf565b33611151565b5f805160206116d083398151915254604051632fd514cd60e11b81526004810192909252336024830152602090829060449082906001600160a01b03165afa908115610af2575f91611099575b501561108a57565b632fa38b3f60e01b5f5260045ffd5b90506020813d6020116110cc575b816110b460209383610bc2565b810103126103f2575180151581036103f2575f611082565b3d91506110a7565b6001600160a01b038116939290841561113e576001600160a01b03831694851561112b57906111299495610804925f52600560205260405f20905f526020528260405f205561112330846115bf565b826115bf565b565b85634a1406b160e11b5f5260045260245ffd5b8463e602df0560e01b5f5260045260245ffd5b91926001600160a01b03831692908315611311576001600160a01b0383169485156112fe579061118991611183611679565b91611627565b91845f5260046020525f602060408220548581156112ee575b86156112e0575b5f805160206116f08339815191525460405163f953e42760e01b8152600480820194909452848101909301919091526001600160f81b0319841660448301529092839160649183916001600160a01b03165af1908115610af2575f916112aa575b5092611231611243928561125b9650885f5260046020528060405f205561080430826115bf565b845f52600460205260405f205461152a565b835f5260046020528060405f205561080430826115bf565b6006545f1981019081116112965760207fddf252ad1be2c89b69c2b068fc378daa952ba7f163c4a11628f55a4df523b3ef91604051908152a3565b634e487b7160e01b5f52601160045260245ffd5b9390506020843d6020116112d8575b816112c660209383610bc2565b810103126103f257925161123161120a565b3d91506112b9565b506112e9611679565b6111a9565b90506112f8611679565b906111a2565b8563ec442f0560e01b5f5260045260245ffd5b83634b637e8f60e11b5f5260045260245ffd5b5f546001600160a01b0316330361133757565b63118cdaa760e01b5f523360045260245ffd5b6113999160209160018060a01b035f805160206116f08339815191525416905f6040518096819582946302e817ff60e41b84526004840152336024840152608060448401526084830190610b29565b600560f81b606483015203925af1908115610af2575f91611418575b505f805160206116d0833981519152546001600160a01b0316803b156103f2576040516346ce4e4960e11b815260048101839052336024820152905f908290604490829084905af18015610af25761140b575090565b5f61141591610bc2565b90565b90506020813d602011611442575b8161143360209383610bc2565b810103126103f257515f6113b5565b3d9150611426565b9081156114ed575b80156114db575b602090606460018060a01b035f805160206116f08339815191525416935f60405195869485936334a6d7b960e11b8552600485015260248401528160448401525af1908115610af2575f916114ac575090565b90506020813d6020116114d3575b816114c760209383610bc2565b810103126103f2575190565b3d91506114ba565b5060206114e6611679565b9050611459565b90506114f7611679565b90611452565b60065491905f198314611296576111299060018401600655835f5260086020528060405f205530906115bf565b6020905f9281156115af575b80156115a1575b5f805160206116f083398151915254604051638c14cc2160e01b8152600480820194909452848101909301919091526001600160f81b0319841660448301529092839160649183916001600160a01b03165af1908115610af2575f916114ac575090565b506115aa611679565b61153d565b90506115b9611679565b90611536565b5f805160206116d0833981519152546001600160a01b031691823b156103f257604051631974142760e21b815260048101929092526001600160a01b03166024820152905f908290604490829084905af18015610af25761161d5750565b5f61112991610bc2565b9060646020925f60018060a01b035f805160206116f08339815191525416604051968795869463cb3b940760e01b86526004860152602485015260448401525af1908115610af2575f916114ac575090565b5f805160206116f083398151915254604051631ce2e8d760e31b81525f60048201819052600560f81b60248301529091602091839160449183916001600160a01b03165af1908115610af2575f916114ac57509056feed8d60e34876f751cc8b014c560745351147d9de11b9347c854e881b128ea600ed8d60e34876f751cc8b014c560745351147d9de11b9347c854e881b128ea601a26469706673582212202b1b5bfaadc0ea53faaa823bd15c2e09954c17af5930a1ebcb6731558fc86c8764736f6c634300081a0033ed8d60e34876f751cc8b014c560745351147d9de11b9347c854e881b128ea600ed8d60e34876f751cc8b014c560745351147d9de11b9347c854e881b128ea603ed8d60e34876f751cc8b014c560745351147d9de11b9347c854e881b128ea601ed8d60e34876f751cc8b014c560745351147d9de11b9347c854e881b128ea602","linkReferences":{"contracts/lib/IndexFundStateManagement.sol":{"IndexFundStateManagement":[{"start":3249,"length":20},{"start":4108,"length":20},{"start":5048,"length":20},{"start":5285,"length":20}]}}},"methodIdentifiers":{"DEFAULT_ADMIN_ROLE()":"a217fddf","burnShares(bytes32,bytes32,bytes)":"9134867c","burnSharesCallback(uint256,uint8,uint64,bool,bool)":"fcb74a45","callbackTriggers()":"8fe01f0b","finishMintShares(address)":"e61681ef","finishRedeemInStablecoinCase(address)":"3352a629","getIndexFundToken()":"75696e7f","getIndexTokens()":"38f250ec","getPendingStablecoinRedeemAmount()":"372df775","getRoleAdmin(bytes32)":"248a9ca3","getSharePrice()":"5b1dac60","getStablecoin()":"b6f67312","grantRole(bytes32,address)":"2f2ff15d","hasRole(bytes32,address)":"91d14854","initRedeemAfterBurn()":"b7064d99","mintCallbackTriggers()":"c3d02d96","mintShares(bytes32,bytes)":"35c995ec","mintSharesCallback(uint256,uint8,uint64)":"97771de5","renounceRole(bytes32,address)":"36568abe","revokeRole(bytes32,address)":"d547741f","sendFeesToProtocolOwner()":"05d7d94b","supportsInterface(bytes4)":"01ffc9a7","updateSharePrice()":"76b15015"},"id":0}