{"abi":[{"type":"constructor","inputs":[{"name":"_indexTokens","type":"address[]","internalType":"address[]"},{"name":"_stablecoin","type":"address","internalType":"address"},{"name":"_decypheredStablecoin","type":"address","internalType":"address"},{"name":"_indexFundFactory","type":"address","internalType":"address"},{"name":"_marketDataFetcher","type":"address","internalType":"address"},{"name":"_swapsManagerProxy","type":"address","internalType":"address"},{"name":"_initialSharePrice","type":"uint256","internalType":"uint256"},{"name":"_poolKeys","type":"tuple[]","internalType":"struct PoolKey[]","components":[{"name":"currency0","type":"address","internalType":"Currency"},{"name":"currency1","type":"address","internalType":"Currency"},{"name":"fee","type":"uint24","internalType":"uint24"},{"name":"tickSpacing","type":"int24","internalType":"int24"},{"name":"hooks","type":"address","internalType":"contract IHooks"}]},{"name":"_numberOfSwapsToBatch","type":"uint8","internalType":"uint8"},{"name":"currentIndexFundsCount","type":"uint96","internalType":"uint96"}],"stateMutability":"nonpayable"},{"type":"function","name":"DEFAULT_ADMIN_ROLE","inputs":[],"outputs":[{"name":"","type":"bytes32","internalType":"bytes32"}],"stateMutability":"view"},{"type":"function","name":"burnShares","inputs":[{"name":"encryptedAmount","type":"bytes32","internalType":"einput"},{"name":"encryptedRedeemIndexTokens","type":"bytes32","internalType":"einput"},{"name":"inputProof","type":"bytes","internalType":"bytes"}],"outputs":[],"stateMutability":"nonpayable"},{"type":"function","name":"burnSharesCallback","inputs":[{"name":"requestID","type":"uint256","internalType":"uint256"},{"name":"transferErrorCode","type":"uint8","internalType":"uint8"},{"name":"decryptedAmount","type":"uint64","internalType":"uint64"},{"name":"redeemIndexTokens","type":"bool","internalType":"bool"},{"name":"hasUserEnoughSharesToBurn","type":"bool","internalType":"bool"}],"outputs":[],"stateMutability":"nonpayable"},{"type":"function","name":"finishMintShares","inputs":[{"name":"user","type":"address","internalType":"address"}],"outputs":[],"stateMutability":"nonpayable"},{"type":"function","name":"finishRedeemInStablecoinCase","inputs":[{"name":"user","type":"address","internalType":"address"}],"outputs":[],"stateMutability":"nonpayable"},{"type":"function","name":"getIndexFundToken","inputs":[],"outputs":[{"name":"","type":"address","internalType":"contract IndexFundToken"}],"stateMutability":"view"},{"type":"function","name":"getIndexTokens","inputs":[],"outputs":[{"name":"","type":"address[]","internalType":"address[]"}],"stateMutability":"view"},{"type":"function","name":"getPendingStablecoinRedeemAmount","inputs":[],"outputs":[{"name":"pendingStablecoinRedeemAmount","type":"uint256","internalType":"euint64"}],"stateMutability":"view"},{"type":"function","name":"getRoleAdmin","inputs":[{"name":"role","type":"bytes32","internalType":"bytes32"}],"outputs":[{"name":"","type":"bytes32","internalType":"bytes32"}],"stateMutability":"view"},{"type":"function","name":"getSharePrice","inputs":[],"outputs":[{"name":"sharePrice","type":"uint256","internalType":"uint256"}],"stateMutability":"view"},{"type":"function","name":"getStablecoin","inputs":[],"outputs":[{"name":"","type":"address","internalType":"contract ConfidentialERC20WithErrorsWrapped"}],"stateMutability":"view"},{"type":"function","name":"grantRole","inputs":[{"name":"role","type":"bytes32","internalType":"bytes32"},{"name":"account","type":"address","internalType":"address"}],"outputs":[],"stateMutability":"nonpayable"},{"type":"function","name":"hasRole","inputs":[{"name":"role","type":"bytes32","internalType":"bytes32"},{"name":"account","type":"address","internalType":"address"}],"outputs":[{"name":"","type":"bool","internalType":"bool"}],"stateMutability":"view"},{"type":"function","name":"initRedeemAfterBurn","inputs":[],"outputs":[],"stateMutability":"nonpayable"},{"type":"function","name":"mintShares","inputs":[{"name":"encryptedAmount","type":"bytes32","internalType":"einput"},{"name":"inputProof","type":"bytes","internalType":"bytes"}],"outputs":[],"stateMutability":"nonpayable"},{"type":"function","name":"mintSharesCallback","inputs":[{"name":"requestID","type":"uint256","internalType":"uint256"},{"name":"transferErrorCode","type":"uint8","internalType":"uint8"},{"name":"decryptedAmount","type":"uint64","internalType":"uint64"}],"outputs":[],"stateMutability":"nonpayable"},{"type":"function","name":"renounceRole","inputs":[{"name":"role","type":"bytes32","internalType":"bytes32"},{"name":"callerConfirmation","type":"address","internalType":"address"}],"outputs":[],"stateMutability":"nonpayable"},{"type":"function","name":"revokeRole","inputs":[{"name":"role","type":"bytes32","internalType":"bytes32"},{"name":"account","type":"address","internalType":"address"}],"outputs":[],"stateMutability":"nonpayable"},{"type":"function","name":"sendFeesToProtocolOwner","inputs":[],"outputs":[],"stateMutability":"nonpayable"},{"type":"function","name":"supportsInterface","inputs":[{"name":"interfaceId","type":"bytes4","internalType":"bytes4"}],"outputs":[{"name":"","type":"bool","internalType":"bool"}],"stateMutability":"view"},{"type":"function","name":"updateSharePrice","inputs":[],"outputs":[],"stateMutability":"nonpayable"},{"type":"event","name":"BurnSwapsPerformed","inputs":[],"anonymous":false},{"type":"event","name":"EncryptedStablecoinTransfer","inputs":[{"name":"from","type":"uint256","indexed":true,"internalType":"eaddress"},{"name":"to","type":"uint256","indexed":true,"internalType":"eaddress"},{"name":"amount","type":"uint256","indexed":true,"internalType":"euint64"}],"anonymous":false},{"type":"event","name":"FeeCollected","inputs":[{"name":"user","type":"uint256","indexed":false,"internalType":"eaddress"},{"name":"feeAmount","type":"uint256","indexed":true,"internalType":"uint256"}],"anonymous":false},{"type":"event","name":"IndexTokensRedeemed","inputs":[],"anonymous":false},{"type":"event","name":"MintSwapsPerformed","inputs":[],"anonymous":false},{"type":"event","name":"RoleAdminChanged","inputs":[{"name":"role","type":"bytes32","indexed":true,"internalType":"bytes32"},{"name":"previousAdminRole","type":"bytes32","indexed":true,"internalType":"bytes32"},{"name":"newAdminRole","type":"bytes32","indexed":true,"internalType":"bytes32"}],"anonymous":false},{"type":"event","name":"RoleGranted","inputs":[{"name":"role","type":"bytes32","indexed":true,"internalType":"bytes32"},{"name":"account","type":"address","indexed":true,"internalType":"address"},{"name":"sender","type":"address","indexed":true,"internalType":"address"}],"anonymous":false},{"type":"event","name":"RoleRevoked","inputs":[{"name":"role","type":"bytes32","indexed":true,"internalType":"bytes32"},{"name":"account","type":"address","indexed":true,"internalType":"address"},{"name":"sender","type":"address","indexed":true,"internalType":"address"}],"anonymous":false},{"type":"event","name":"SharesBurned","inputs":[{"name":"user","type":"uint256","indexed":true,"internalType":"eaddress"},{"name":"amount","type":"uint256","indexed":true,"internalType":"uint256"}],"anonymous":false},{"type":"event","name":"SharesMintRevertedAmountTooBig","inputs":[],"anonymous":false},{"type":"event","name":"SharesMinted","inputs":[{"name":"user","type":"uint256","indexed":true,"internalType":"eaddress"},{"name":"amount","type":"uint256","indexed":true,"internalType":"uint256"}],"anonymous":false},{"type":"event","name":"SharesToMintAmountBiggerThanMax","inputs":[{"name":"minter","type":"uint256","indexed":false,"internalType":"eaddress"},{"name":"amountToBurn","type":"uint256","indexed":false,"internalType":"uint256"}],"anonymous":false},{"type":"error","name":"AccessControlBadConfirmation","inputs":[]},{"type":"error","name":"AccessControlUnauthorizedAccount","inputs":[{"name":"account","type":"address","internalType":"address"},{"name":"neededRole","type":"bytes32","internalType":"bytes32"}]},{"type":"error","name":"AmountToSwapTooBig","inputs":[{"name":"amountToSwap","type":"uint256","internalType":"uint256"}]},{"type":"error","name":"EncryptedTransferFailed","inputs":[{"name":"token","type":"uint256","internalType":"eaddress"},{"name":"from","type":"uint256","internalType":"eaddress"},{"name":"to","type":"uint256","internalType":"eaddress"},{"name":"amount","type":"uint256","internalType":"uint256"}]},{"type":"error","name":"InsufficientAllowance","inputs":[{"name":"allower","type":"uint256","internalType":"eaddress"},{"name":"token","type":"address","internalType":"address"}]},{"type":"error","name":"NoPendingWithdrawal","inputs":[{"name":"user","type":"uint256","internalType":"eaddress"}]},{"type":"error","name":"NotEnoughSwapsToBatch","inputs":[]},{"type":"error","name":"ReentrancyGuardReentrantCall","inputs":[]},{"type":"error","name":"SharesToBurnAmountBiggerThanMax","inputs":[{"name":"burner","type":"uint256","internalType":"eaddress"},{"name":"amountToBurn","type":"uint256","internalType":"uint256"}]},{"type":"error","name":"TransferFailed","inputs":[{"name":"token","type":"address","internalType":"address"},{"name":"from","type":"uint256","internalType":"eaddress"},{"name":"to","type":"uint256","internalType":"eaddress"},{"name":"amount","type":"uint256","internalType":"euint256"}]},{"type":"error","name":"UserShareBalanceTooSmall","inputs":[{"name":"user","type":"uint256","internalType":"eaddress"},{"name":"amountToBurn","type":"uint256","internalType":"uint256"}]}],"bytecode":{"object":"0x60806040523461003c57610026610014610480565b98979097969196959295949394610ef4565b61002e610041565b614aa66118d28239614aa690f35b610047565b60405190565b5f80fd5b601f801991011690565b634e487b7160e01b5f52604160045260245ffd5b906100739061004b565b810190811060018060401b0382111761008b57604052565b610055565b906100a361009c610041565b9283610069565b565b5f80fd5b5f80fd5b5f80fd5b60018060401b0381116100c75760208091020190565b610055565b5f80fd5b60018060a01b031690565b6100e4906100d0565b90565b6100f0816100db565b036100f757565b5f80fd5b90505190610108826100e7565b565b9092919261011f61011a826100b1565b610090565b938185526020808601920283019281841161015c57915b8383106101435750505050565b6020809161015184866100fb565b815201920191610136565b6100cc565b9080601f8301121561017f5781602061017c9351910161010a565b90565b6100ad565b90565b61019081610184565b0361019757565b5f80fd5b905051906101a882610187565b565b60018060401b0381116101c05760208091020190565b610055565b5f80fd5b6101d2816100db565b036101d957565b5f80fd5b905051906101ea826101c9565b565b62ffffff1690565b6101fd816101ec565b0361020457565b5f80fd5b90505190610215826101f4565b565b60020b90565b61022681610217565b0361022d57565b5f80fd5b9050519061023e8261021d565b565b610249906100db565b90565b61025581610240565b0361025c57565b5f80fd5b9050519061026d8261024c565b565b919060a0838203126102df576102d89061028960a0610090565b93610296825f83016101dd565b5f8601526102a782602083016101dd565b60208601526102b98260408301610208565b60408601526102cb8260608301610231565b6060860152608001610260565b6080830152565b6101c5565b909291926102f96102f4826101aa565b610090565b9381855260a060208601920283019281841161033857915b83831061031e5750505050565b602060a09161032d848661026f565b815201920191610311565b6100cc565b9080601f8301121561035b57816020610358935191016102e4565b90565b6100ad565b60ff1690565b61036f81610360565b0361037657565b5f80fd5b9050519061038782610366565b565b60018060601b031690565b61039d81610389565b036103a457565b5f80fd5b905051906103b582610394565b565b6101408183031261047b575f81015160018060401b03811161047657826103df918301610161565b926103ed83602084016100fb565b926103fb81604085016100fb565b9261040982606083016100fb565b9261041783608084016100fb565b926104258160a085016100fb565b926104338260c0830161019b565b9260e082015160018060401b038111610471576104558461046e92850161033d565b9361046481610100860161037a565b93610120016103a8565b90565b6100a9565b6100a9565b6100a5565b61049e619e698038038061049381610090565b9283398101906103b7565b90919293949596979899565b90565b6104c16104bc6104c6926100d0565b6104aa565b6100d0565b90565b6104d2906104ad565b90565b6104de906104c9565b90565b6104ea906104ad565b90565b6104f6906104e1565b90565b60e01b90565b9060208282031261051857610515915f016100fb565b90565b6100a5565b5f0190565b61052a610041565b3d5f823e3d90fd5b5f1b90565b9061054860018060a01b0391610532565b9181191691161790565b61055b906104e1565b90565b90565b9061057661057161057d92610552565b61055e565b8254610537565b9055565b634e487b7160e01b5f525f60045260245ffd5b60200190565b5490565b634e487b7160e01b5f52601160045260245ffd5b6105c16105c791939293610184565b92610184565b916105d3838202610184565b9281840414901517156105e257565b61059e565b6105f29060036105b2565b90565b5f5260205f2090565b60025f9182808201558260018201550155565b905f0361062357610621906105fe565b565b610581565b5b818110610634575050565b806106415f600393610611565b01610629565b9091828110610656575b505050565b61067461066e61066861067f956105e7565b926105e7565b926105f5565b918201910190610628565b5f8080610651565b906801000000000000000081116106b057816106a56106ae9361059a565b90828155610647565b565b610055565b5190565b5190565b6106c790516100db565b90565b90565b906106e26106dd6106e992610552565b6106ca565b8254610537565b9055565b6106f790516101ec565b90565b60a01b90565b9061071162ffffff60a01b916106fa565b9181191691161790565b61072f61072a610734926101ec565b6104aa565b6101ec565b90565b90565b9061074f61074a6107569261071b565b610737565b8254610700565b9055565b6107649051610217565b90565b60b81b90565b9061077e62ffffff60b81b91610767565b9181191691161790565b61079c6107976107a192610217565b6104aa565b610217565b90565b90565b906107bc6107b76107c392610788565b6107a4565b825461076d565b9055565b6107d19051610240565b90565b6107dd906104ad565b90565b6107e9906107d4565b90565b90565b906108046107ff61080b926107e0565b6107ec565b8254610537565b9055565b906108856080600261088b946108325f820161082c5f88016106bd565b906106cd565b61084b60018201610845602088016106bd565b906106cd565b6108646001820161085e604088016106ed565b9061073a565b61087d600182016108776060880161075a565b906107a7565b0192016107c7565b906107ef565b565b906108979161080f565b565b6108be6108b86108a8846106b5565b936108b38585610687565b610594565b916105f5565b5f915b8383106108ce5750505050565b60036020826108e76108e16001956106b9565b8661088d565b019201920191906108c1565b906108fd91610899565b565b610908906104ad565b90565b610914906108ff565b90565b610920906108ff565b90565b90565b9061093b61093661094292610917565b610923565b8254610537565b9055565b60101b90565b9061096062010000600160901b0391610946565b9181191691161790565b60018060801b031690565b61098961098461098e9261096a565b6104aa565b61096a565b90565b90565b906109a96109a46109b092610975565b610991565b825461094c565b9055565b60901b90565b906109cf600160901b600160d01b03916109b4565b9181191691161790565b60018060401b031690565b6109f86109f36109fd926109d9565b6104aa565b6109d9565b90565b90565b90610a18610a13610a1f926109e4565b610a00565b82546109ba565b9055565b5490565b600190818003010490565b5f5260205f2090565b1b90565b91906008610a5a910291610a545f1984610a3b565b92610a3b565b9181191691161790565b610a78610a73610a7d92610184565b6104aa565b610184565b90565b90565b9190610a99610a94610aa193610a64565b610a80565b908354610a3f565b9055565b5f90565b610abb91610ab5610aa5565b91610a83565b565b5b818110610ac9575050565b80610ad65f600193610aa9565b01610abe565b9091828110610aeb575b505050565b610b09610b03610afd610b1495610a27565b92610a27565b92610a32565b918201910190610abd565b5f8080610ae6565b90680100000000000000008111610b455781610b3a610b4393610a23565b90828155610adc565b565b610055565b5190565b610b5890516100db565b90565b60200190565b610b6a82610b4a565b9160018060401b038311610bcb57610b96610b90600192610b8b8686610b1c565b610b5b565b92610a32565b9204915f5b838110610ba85750505050565b6001906020610bbe610bb986610b4e565b61055e565b9401938184015501610b9b565b610055565b90610bda91610b61565b565b610be5906104ad565b90565b610bf190610bdc565b90565b610bfd90610bdc565b90565b90565b90610c18610c13610c1f92610bf4565b610c00565b8254610537565b9055565b610c2c906104ad565b90565b610c3890610c23565b90565b610c4490610c23565b90565b90565b90610c5f610c5a610c6692610c3b565b610c47565b8254610537565b9055565b610c7e610c79610c8392610389565b6104aa565b610184565b90565b7f496e64657846756e64546f6b656e0000000000000000000000000000000000009052565b7f5f000000000000000000000000000000000000000000000000000000000000009052565b5190565b905090565b90825f9392825e0152565b610d09610d0092602092610cf781610cd0565b94858093610cd4565b93849101610cd9565b0190565b906001600e610d3093610d1f81610c86565b01610d2981610cab565b0190610ce4565b90565b90610d5b610d3f610041565b8093610d4f602083019182610d0d565b90810382520383610069565b565b7f49465400000000000000000000000000000000000000000000000000000000009052565b906003610d9992610d9281610d5d565b0190610ce4565b90565b90610dc4610da8610041565b8093610db8602083019182610d82565b90810382520383610069565b565b60209181520190565b610dee610df7602093610dfc93610de581610cd0565b93848093610dc6565b95869101610cd9565b61004b565b0190565b9091610e1a610e289360408401908482035f860152610dcf565b916020818403910152610dcf565b90565b610e34906104ad565b90565b610e4090610e2b565b90565b90565b90610e5b610e56610e6292610e37565b610e43565b8254610537565b9055565b90610e725f1991610532565b9181191691161790565b90610e91610e8c610e9892610a64565b610a80565b8254610e66565b9055565b90610eab60ff60a01b916106fa565b9181191691161790565b610ec9610ec4610ece92610360565b6104aa565b610360565b90565b90565b90610ee9610ee4610ef092610eb5565b610ed1565b8254610e9c565b9055565b610f31909997929495939699610f086110d7565b6020610f1b610f168a6104d5565b6104ed565b638da5cb5b90610f29610041565b9485926104f9565b82528180610f416004820161051d565b03915afa9687156110d25761100098610fa6610ff197610f9c610f92610fd895610f8d610fe79b610ff69f610f8390610fe29c5f916110a4575b50601a610561565b6002600c016108f3565b61090b565b6004600c01610926565b6003600c01610561565b610fba60018060801b036007600c01610994565b610fce60018060401b036007600c01610a03565b6005600c01610561565b6001600c01610bd0565b610be8565b600a600c01610c03565b610c2f565b600b600c01610c4a565b61103261102d61102861102261101d61101886610c6a565b61124f565b610d33565b93610c6a565b61124f565b610d9c565b9061103b610041565b91613af183019083821060018060401b0383111761109f57839261106692613af16163788639610e00565b03905ff0801561109a576110989261108461108e92600c8001610e46565b600d600c01610e7c565b6003600c01610ed4565b565b610522565b610055565b6110c5915060203d81116110cb575b6110bd8183610069565b8101906104ff565b5f610f7b565b503d6110b3565b610522565b6110df6110e1565b565b6110e96110fb565b6110f96110f46112fc565b61131d565b565b611103611141565b61111361110e6113a7565b611440565b565b90565b61112c61112761113192611115565b6104aa565b610184565b90565b61113e6001611118565b90565b61115361114c611134565b6001610e7c565b565b606090565b906111659101610184565b90565b60018060401b0381116111845761118060209161004b565b0190565b610055565b9061119b61119683611168565b610090565b918252565b369037565b906111ca6111b283611189565b926020806111c08693611168565b92019103906111a0565b565b60016111d89103610184565b90565b90565b6111f26111ed6111f7926111db565b6104aa565b610184565b90565b634e487b7160e01b5f52601260045260245ffd5b61121a61122091610184565b91610184565b90811561122b570490565b6111fa565b90565b61124761124261124c92611230565b6104aa565b610184565b90565b611257611155565b50611274611264826115bf565b61126e6001611118565b9061115a565b9061127e826111a5565b91611287610aa5565b5060200182015b6001156112f1576112a16112cd916111cc565b916f181899199a1a9b1b9c1cb0b131b232b360811b600a82061a83536112c7600a6111de565b9061120e565b806112e06112da5f611233565b91610184565b146112eb579061128e565b50505b90565b50506112ee565b5f90565b6113046112f8565b507333347831500f1e73f0cccbb95c9f86b94d7b112390565b611330905f61132a611820565b01610561565b565b61133c6080610090565b90565b5f90565b61134b611332565b9060208080808561135a61133f565b81520161136561133f565b81520161137061133f565b81520161137b61133f565b81525050565b611389611343565b90565b6113966080610090565b90565b906113a3906100db565b9052565b6113af611381565b5073fee8407e2f5e3ee68ad77cae98c434e637f516e561143d73687408ab54661ba0b4aef3a44156c616c6955e0761143473fb03be574d14c256d56f09a198b586bdfc0a9de261142b739d6891a6240d6130c54ae243d8005063d05fe14b9361142261141961138c565b975f8901611399565b60208701611399565b60408501611399565b60608301611399565b90565b61144990611844565b565b90565b61146261145d6114679261144b565b6104aa565b610184565b90565b90565b61148161147c6114869261146a565b6104aa565b610184565b90565b90565b6114a061149b6114a592611489565b6104aa565b610184565b90565b90565b6114bf6114ba6114c4926114a8565b6104aa565b610184565b90565b90565b6114de6114d96114e3926114c7565b6104aa565b610184565b90565b90565b6114fd6114f8611502926114e6565b6104aa565b610184565b90565b90565b61151c61151761152192611505565b6104aa565b610184565b90565b90565b61153b61153661154092611524565b6104aa565b610184565b90565b90565b61155a61155561155f92611543565b6104aa565b610184565b90565b90565b61157961157461157e92611562565b6104aa565b610184565b90565b90565b61159861159361159d92611581565b6104aa565b610184565b90565b90565b6115b76115b26115bc926115a0565b6104aa565b610184565b90565b6115c7610aa5565b506115d15f611233565b90806116006115fa7a184f03e93ff9f4daa797ed6e38ed64bf6a1f01000000000000000061144e565b91610184565b10156117d8575b806116286116226d04ee2d6d415b85acef810000000061148c565b91610184565b101561179d575b80611649611643662386f26fc100006114ca565b91610184565b1015611769575b806116676116616305f5e100611508565b91610184565b1015611738575b8061168361167d612710611546565b91610184565b1015611709575b8061169e6116986064611584565b91610184565b10156116db575b6116b86116b2600a6111de565b91610184565b10156116c2575b90565b6116d6906116d06001611118565b9061115a565b6116bf565b6116f2611703916116ec6064611584565b9061120e565b916116fd60026115a3565b9061115a565b906116a5565b6117216117329161171b612710611546565b9061120e565b9161172c6004611565565b9061115a565b9061168a565b6117526117639161174c6305f5e100611508565b9061120e565b9161175d6008611527565b9061115a565b9061166e565b61178661179791611780662386f26fc100006114ca565b9061120e565b9161179160106114e9565b9061115a565b90611650565b6117c16117d2916117bb6d04ee2d6d415b85acef810000000061148c565b9061120e565b916117cc60206114ab565b9061115a565b9061162f565b61180961181a916118037a184f03e93ff9f4daa797ed6e38ed64bf6a1f01000000000000000061144e565b9061120e565b91611814604061146d565b9061115a565b90611607565b7f93ab6e17f2c461cce6ea5d4ec117e51dda77a64affc2b2c05f8cd440def0e70090565b6118ab9060036118a460606118576118ad565b9361186e6118665f8301610b4e565b5f8701610561565b61188661187d60208301610b4e565b60018701610561565b61189e61189560408301610b4e565b60028701610561565b01610b4e565b9101610561565b565b7fed8d60e34876f751cc8b014c560745351147d9de11b9347c854e881b128ea6009056fe60806040526004361015610013575b610b3f565b61001d5f3561016c565b806301ffc9a71461016757806305d7d94b14610162578063248a9ca31461015d5780632f2ff15d146101585780633352a6291461015357806335c995ec1461014e57806336568abe14610149578063372df7751461014457806338f250ec1461013f5780635b1dac601461013a57806375696e7f1461013557806376b15015146101305780639134867c1461012b57806391d148541461012657806397771de514610121578063a217fddf1461011c578063b6f6731214610117578063b7064d9914610112578063d547741f1461010d578063e61681ef146101085763fcb74a450361000e57610b08565b610a5c565b610a28565b6109f5565b6109c0565b61095d565b6108ee565b610802565b6107cb565b610746565b610711565b610686565b61062f565b61055b565b6104e3565b6104af565b6103c8565b610376565b6102da565b610241565b6101f8565b60e01c90565b60405190565b5f80fd5b5f80fd5b5f80fd5b63ffffffff60e01b1690565b61019981610184565b036101a057565b5f80fd5b905035906101b182610190565b565b906020828203126101cc576101c9915f016101a4565b90565b61017c565b151590565b6101df906101d1565b9052565b91906101f6905f602085019401906101d6565b565b346102285761022461021361020e3660046101b3565b610b47565b61021b610172565b918291826101e3565b0390f35b610178565b5f91031261023757565b61017c565b5f0190565b3461026f5761025136600461022d565b610259611035565b610261610172565b8061026b8161023c565b0390f35b610178565b90565b61028081610274565b0361028757565b5f80fd5b9050359061029882610277565b565b906020828203126102b3576102b0915f0161028b565b90565b61017c565b6102c190610274565b9052565b91906102d8905f602085019401906102b8565b565b3461030a576103066102f56102f036600461029a565b611089565b6102fd610172565b918291826102c5565b0390f35b610178565b60018060a01b031690565b6103239061030f565b90565b61032f8161031a565b0361033657565b5f80fd5b9050359061034782610326565b565b9190604083820312610371578061036561036e925f860161028b565b9360200161033a565b90565b61017c565b346103a55761038f610389366004610349565b906110d4565b610397610172565b806103a18161023c565b0390f35b610178565b906020828203126103c3576103c0915f0161033a565b90565b61017c565b346103f6576103e06103db3660046103aa565b61116c565b6103e8610172565b806103f28161023c565b0390f35b610178565b61040481610274565b0361040b57565b5f80fd5b9050359061041c826103fb565b565b5f80fd5b5f80fd5b5f80fd5b909182601f830112156104645781359167ffffffffffffffff831161045f57602001926001830284011161045a57565b610426565b610422565b61041e565b9190916040818403126104aa57610482835f830161040f565b92602082013567ffffffffffffffff81116104a5576104a1920161042a565b9091565b610180565b61017c565b346104de576104c86104c2366004610469565b916118f4565b6104d0610172565b806104da8161023c565b0390f35b610178565b34610512576104fc6104f6366004610349565b90611901565b610504610172565b8061050e8161023c565b0390f35b610178565b90565b90565b61053161052c61053692610517565b61051a565b610517565b90565b6105429061051d565b9052565b9190610559905f60208501940190610539565b565b3461058b5761056b36600461022d565b61058761057661194d565b61057e610172565b91829182610546565b0390f35b610178565b5190565b60209181520190565b60200190565b6105ac9061031a565b9052565b906105bd816020936105a3565b0190565b60200190565b906105e46105de6105d784610590565b8093610594565b9261059d565b905f5b8181106105f45750505090565b90919261060d61060760019286516105b0565b946105c1565b91019190916105e7565b61062c9160208201915f8184039101526105c7565b90565b3461065f5761063f36600461022d565b61065b61064a611a2d565b610652610172565b91829182610617565b0390f35b610178565b61066d90610517565b9052565b9190610684905f60208501940190610664565b565b346106b65761069636600461022d565b6106b26106a1611a4a565b6106a9610172565b91829182610671565b0390f35b610178565b6106cf6106ca6106d49261030f565b61051a565b61030f565b90565b6106e0906106bb565b90565b6106ec906106d7565b90565b6106f8906106e3565b9052565b919061070f905f602085019401906106ef565b565b346107415761072136600461022d565b61073d61072c611a93565b610734610172565b918291826106fc565b0390f35b610178565b346107745761075636600461022d565b61075e611cb3565b610766610172565b806107708161023c565b0390f35b610178565b916060838303126107c657610790825f850161040f565b9261079e836020830161040f565b92604082013567ffffffffffffffff81116107c1576107bd920161042a565b9091565b610180565b61017c565b346107fd576107e76107de366004610779565b929190916123cd565b6107ef610172565b806107f98161023c565b0390f35b610178565b346108335761082f61081e610818366004610349565b90612418565b610826610172565b918291826101e3565b0390f35b610178565b61084181610517565b0361084857565b5f80fd5b9050359061085982610838565b565b60ff1690565b61086a8161085b565b0361087157565b5f80fd5b9050359061088282610861565b565b67ffffffffffffffff1690565b61089a81610884565b036108a157565b5f80fd5b905035906108b282610891565b565b90916060828403126108e9576108e66108cf845f850161084c565b936108dd8160208601610875565b936040016108a5565b90565b61017c565b3461091d576109076109013660046108b4565b91612841565b61090f610172565b806109198161023c565b0390f35b610178565b90565b5f1b90565b61093e61093961094392610922565b610925565b610274565b90565b61094f5f61092a565b90565b61095a610946565b90565b3461098d5761096d36600461022d565b610989610978610952565b610980610172565b918291826102c5565b0390f35b610178565b61099b906106d7565b90565b6109a790610992565b9052565b91906109be905f6020850194019061099e565b565b346109f0576109d036600461022d565b6109ec6109db612852565b6109e3610172565b918291826109ab565b0390f35b610178565b34610a2357610a0536600461022d565b610a0d612bf0565b610a15610172565b80610a1f8161023c565b0390f35b610178565b34610a5757610a41610a3b366004610349565b90612ff4565b610a49610172565b80610a538161023c565b0390f35b610178565b34610a8a57610a74610a6f3660046103aa565b61325b565b610a7c610172565b80610a868161023c565b0390f35b610178565b610a98816101d1565b03610a9f57565b5f80fd5b90503590610ab082610a8f565b565b919060a083820312610b0357610aca815f850161084c565b92610ad88260208301610875565b92610b00610ae984604085016108a5565b93610af78160608601610aa3565b93608001610aa3565b90565b61017c565b34610b3a57610b24610b1b366004610ab2565b93929092613b9c565b610b2c610172565b80610b368161023c565b0390f35b610178565b5f80fd5b5f90565b610b4f610b43565b5080610b6a610b64637965db0b60e01b610184565b91610184565b14908115610b77575b5090565b610b819150613bab565b5f610b73565b5f1c90565b60018060a01b031690565b610ba3610ba891610b87565b610b8c565b90565b610bb59054610b97565b90565b60209181520190565b60207f20746869732066756e6374696f6e000000000000000000000000000000000000917f4f6e6c79207468652070726f746f636f6c206f776e65722063616e2063616c6c5f8201520152565b610c1b602e604092610bb8565b610c2481610bc1565b0190565b610c3d9060208101905f818303910152610c0e565b90565b15610c4757565b610c4f610172565b62461bcd60e51b815280610c6560048201610c28565b0390fd5b610c8e33610c88610c82610c7d601a610bab565b61031a565b9161031a565b14610c40565b610c96610c98565b565b610ca0613bde565b610ca8610f4b565b610cb0613c43565b565b90565b610cc1610cc691610b87565b610cb2565b90565b610cd39054610cb5565b90565b610cea610ce5610cef92610922565b61051a565b610517565b90565b5f7f4e6f206665657320746f2073656e640000000000000000000000000000000000910152565b610d26600f602092610bb8565b610d2f81610cf2565b0190565b610d489060208101905f818303910152610d19565b90565b15610d5257565b610d5a610172565b62461bcd60e51b815280610d7060048201610d33565b0390fd5b60018060a01b031690565b610d8b610d9091610b87565b610d74565b90565b610d9d9054610d7f565b90565b610da9906106d7565b90565b5f80fd5b601f801991011690565b634e487b7160e01b5f52604160045260245ffd5b90610dd890610db0565b810190811067ffffffffffffffff821117610df257604052565b610dba565b60e01b90565b90505190610e0a82610a8f565b565b90602082820312610e2557610e22915f01610dfd565b90565b61017c565b610e339061031a565b9052565b916020610e58929493610e5160408201965f830190610e2a565b0190610664565b565b610e62610172565b3d5f823e3d90fd5b60207f6f776e65722e0000000000000000000000000000000000000000000000000000917f4661696c656420746f2073656e64206665657320746f2070726f746f636f6c205f8201520152565b610ec46026604092610bb8565b610ecd81610e6a565b0190565b610ee69060208101905f818303910152610eb7565b90565b15610ef057565b610ef8610172565b62461bcd60e51b815280610f0e60048201610ed1565b0390fd5b90610f1e5f1991610925565b9181191691161790565b90565b90610f40610f3b610f479261051d565b610f28565b8254610f12565b9055565b610f73610f5b6006600c01610cc9565b610f6d610f675f610cd6565b91610517565b11610d4b565b610f88610f83600b600c01610d93565b610da0565b602063a9059cbb91610f9a601a610bab565b90610fc45f610fac6006600c01610cc9565b95610fcf610fb8610172565b97889687958694610df7565b845260048401610e37565b03925af1801561103057610fea915f91611002575b50610ee9565b611000610ff65f610cd6565b6006600c01610f2b565b565b611023915060203d8111611029575b61101b8183610dce565b810190610e0c565b5f610fe4565b503d611011565b610e5a565b61103d610c69565b565b5f90565b61104c90610274565b90565b9061105990611043565b5f5260205260405f2090565b90565b61107461107991610b87565b611065565b90565b6110869054611068565b90565b60016110a16110a79261109a61103f565b505f61104f565b0161107c565b90565b906110c5916110c06110bb82611089565b613c57565b6110c7565b565b906110d191613c6b565b50565b906110de916110aa565b565b6110e9906106d7565b90565b906110f6906110e0565b5f5260205260405f2090565b90565b61111161111691610b87565b611102565b90565b6111239054611105565b90565b90565b9061113e6111396111459261051d565b611126565b8254610f12565b9055565b91602061116a92949361116360408201965f830190610e2a565b0190610539565b565b602061118261117d601d84906110ec565b611119565b6111a76111966111915f610cd6565b613d42565b6111a2601d86906110ec565b611129565b6111ca6111b2612852565b6111c5836111bf83610992565b90613d68565b610992565b6111ed5f63a9059cbb9593956111f86111e1610172565b97889687958694610df7565b845260048401611149565b03925af1801561126c57611240575b507f875fc5b1c93e96a85172e0d2b74fcdb6f314c3460e99e6a7da8743bc8b75e37c611231610172565b8061123b8161023c565b0390a1565b6112609060203d8111611265575b6112588183610dce565b810190610e0c565b611207565b503d61124e565b610e5a565b90611284929161127f613bde565b6115f9565b61128c613c43565b565b60018060a01b031690565b6112a56112aa91610b87565b61128e565b90565b6112b79054611299565b90565b5f80fd5b906112d16112ca610172565b9283610dce565b565b67ffffffffffffffff81116112f1576112ed602091610db0565b0190565b610dba565b90825f939282370152565b90929192611316611311826112d3565b6112be565b9381855260208501908284011161133257611330926112f6565b565b6112ba565b611342913691611301565b90565b61134e906106d7565b90565b60409061137a611381949695939661137060608401985f850190610e2a565b6020830190610e2a565b0190610539565b565b9050519061139082610838565b565b906020828203126113ab576113a8915f01611383565b90565b61017c565b5f7f4e6f206572726f72207265636f72646564000000000000000000000000000000910152565b6113e46011602092610bb8565b6113ed816113b0565b0190565b6114069060208101905f8183039101526113d7565b90565b1561141057565b611418610172565b62461bcd60e51b81528061142e600482016113f1565b0390fd5b90565b61144961144461144e92611432565b61051a565b610517565b90565b634e487b7160e01b5f52601160045260245ffd5b61147461147a91939293610517565b92610517565b820391821161148557565b611451565b61149381610517565b0361149a57565b5f80fd5b905051906114ab8261148a565b565b906020828203126114c6576114c3915f0161149e565b90565b61017c565b90565b6114e26114dd6114e7926114cb565b61051a565b610517565b90565b67ffffffffffffffff81116115025760208091020190565b610dba565b90611519611514836114ea565b6112be565b918252565b369037565b9061154861153083611507565b9260208061153e86936114ea565b920191039061151e565b565b634e487b7160e01b5f52603260045260245ffd5b5190565b9061156c8261155e565b81101561157d576020809102010190565b61154a565b9061158c90610517565b9052565b63ffffffff1690565b6115ad6115a86115b292611590565b610df7565b610184565b90565b90565b6115cc6115c76115d1926115b5565b61051a565b610517565b90565b6115e36115e991939293610517565b92610517565b82018092116115f457565b611451565b919061161661161c9261160f600a600c016112ad565b9492611337565b90613d7c565b906116308261162a83610992565b90613d68565b61163981610992565b60206323b872dd9133906116695f61165030611345565b956116748961165d610172565b98899788968795610df7565b855260048501611351565b03925af180156118ef576118c3575b506116a8602061169283610992565b6367a74a28906116a0610172565b938492610df7565b825281806116b86004820161023c565b03915afa80156118be576116e6915f91611890575b506116e06116da5f610cd6565b91610517565b11611409565b61170a60206116f483610992565b6367a74a2890611702610172565b938492610df7565b8252818061171a6004820161023c565b03915afa91821561188b5761175061174a611778946020945f9161185e575b506117446001611435565b90611465565b91610992565b61176d5f63a5184baf611761610172565b96879586948593610df7565b835260048301610671565b03925af1918215611859576117ee6117d561182994611822945f9161182b575b50926117d06117b86117b26117ad60026114ce565b611523565b95613dac565b6117cb866117c55f610cd6565b90611562565b611582565b613dc1565b6117e9836117e36001611435565b90611562565b611582565b6117fb6397771de5611599565b5f916118114261180b60646115b8565b906115d4565b9161181c5f94610cd6565b91613eed565b339061410e565b565b61184c915060203d8111611852575b6118448183610dce565b8101906114ad565b5f611798565b503d61183a565b610e5a565b61187e9150853d8111611884575b6118768183610dce565b810190611392565b5f611739565b503d61186c565b610e5a565b6118b1915060203d81116118b7575b6118a98183610dce565b810190611392565b5f6116cd565b503d61189f565b610e5a565b6118e39060203d81116118e8575b6118db8183610dce565b810190610e0c565b611683565b503d6118d1565b610e5a565b906118ff9291611271565b565b908061191c611916611911614130565b61031a565b9161031a565b0361192d5761192a9161413d565b50565b5f63334bd91960e11b8152806119456004820161023c565b0390fd5b5f90565b611955611949565b5061196a611965601d33906110ec565b611119565b90565b606090565b5490565b60209181520190565b5f5260205f2090565b6119929054610b97565b90565b60010190565b906119b86119b26119ab84611972565b8093611976565b9261197f565b905f5b8181106119c85750505090565b9091926119e86119e26001926119dd87611988565b6105b0565b94611995565b91019190916119bb565b906119fc9161199b565b90565b90611a1f611a1892611a0f610172565b938480926119f2565b0383610dce565b565b611a2a906119ff565b90565b611a3561196d565b50611a436001600c01611a21565b90565b5f90565b611a52611a46565b50611a60600d600c01610cc9565b90565b5f90565b60018060a01b031690565b611a7e611a8391610b87565b611a67565b90565b611a909054611a72565b90565b611a9b611a63565b50611aa8600c8001611a86565b90565b6001611ab79101610517565b90565b60018060a01b031690565b611ad1611ad691610b87565b611aba565b90565b611ae39054611ac5565b90565b611aef906106bb565b90565b611afb90611ae6565b90565b611b07906106d7565b90565b90611b1482610590565b811015611b25576020809102010190565b61154a565b611b34905161031a565b90565b9190611b4a905f60208501940190610e2a565b565b611b55906106bb565b90565b611b6190611b4c565b90565b611b6d906106d7565b90565b611b79906106bb565b90565b611b8590611b70565b90565b90505190611b9582610861565b565b90602082820312611bb057611bad915f01611b88565b90565b61017c565b611bc4611bca91939293610517565b92610517565b91611bd6838202610517565b928184041490151715611be557565b611451565b611bf39061085b565b604d8111611c0157600a0a90565b611451565b634e487b7160e01b5f52601260045260245ffd5b611c26611c2c91610517565b91610517565b908115611c37570490565b611c06565b90505190611c4982610891565b565b90602082820312611c6457611c61915f01611c3c565b90565b61017c565b611c7d611c78611c8292610884565b61051a565b610517565b90565b90565b611c9c611c97611ca192611c85565b61051a565b610517565b90565b611cb0620f4240611c88565b90565b611cbc5f610cd6565b90611cca6001600c01611a21565b91611cd45f610cd6565b905b81611cf1611ceb611ce687610590565b610517565b91610517565b1015611f0657611d556020611d19611d14611d0f6004600c01611ad9565b611af2565b611afe565b63d02641a090611d4a611d35611d308a8990611b0a565b611b2a565b92611d3e610172565b95869485938493610df7565b835260048301611b37565b03915afa8015611f0157611dc3915f91611ed3575b50916020611d91611d8c611d87611d828a8990611b0a565b611b2a565b611b58565b611b64565b6370a0823190611db8611da330611345565b92611dac610172565b96879485938493610df7565b835260048301611b37565b03915afa8015611ece57611e14925f91611ea0575b506020611dfe611df9611df4611def8b8a90611b0a565b611b2a565b611b7c565b610da0565b63313ce56790611e0c610172565b958692610df7565b82528180611e246004820161023c565b03915afa938415611e9b57611e55611e4f611e5b93611e6797611e61975f91611e6d575b5093611bb5565b91611bea565b90611c1a565b906115d4565b91611aab565b90611cd6565b611e8e915060203d8111611e94575b611e868183610dce565b810190611b97565b5f611e48565b503d611e7c565b610e5a565b611ec1915060203d8111611ec7575b611eb98183610dce565b810190611392565b5f611dd8565b503d611eaf565b610e5a565b611ef4915060203d8111611efa575b611eec8183610dce565b810190611392565b5f611d6a565b503d611ee2565b610e5a565b91925050611f396020611f23611f1e600c8001611a86565b6106e3565b6318160ddd90611f31610172565b938492610df7565b82528180611f496004820161023c565b03915afa8015611fdf57611f64915f91611fb1575b50611c69565b9081611f78611f725f610cd6565b91610517565b11611f82575b5050565b611faa91611f9b611fa092611f95611ca4565b90611bb5565b611c1a565b600d600c01610f2b565b5f80611f7e565b611fd2915060203d8111611fd8575b611fca8183610dce565b810190611c4b565b5f611f5e565b503d611fc0565b610e5a565b90611ff8939291611ff3613bde565b612081565b612000613c43565b565b61200b81610517565b0361201257565b5f80fd5b9050519061202382612002565b565b9060208282031261203e5761203b915f01612016565b90565b61017c565b90565b61205a61205561205f92612043565b61051a565b610517565b90565b90565b61207961207461207e92612062565b61051a565b610517565b90565b6120ac92919361209f6120a692612099858490611337565b90613d7c565b9492611337565b9061420a565b6120b8600c8001611a86565b916120f260206120c7856106e3565b6306e928fd906120e75f33936120db610172565b96879586948593610df7565b835260048301611b37565b03925af180156123c85761210e915f9161239a575b508261423a565b926121228261211c836106e3565b90613d68565b61212b816106e3565b60206323b872dd91339061215b5f61214230611345565b956121668961214f610172565b98899788968795610df7565b855260048501611351565b03925af1801561239557612369575b5061219a6020612184836106e3565b6367a74a2890612192610172565b938492610df7565b825281806121aa6004820161023c565b03915afa918215612364576121e06121da612207946020945f91612337575b506121d46001611435565b90611465565b916106e3565b6121fc63a5184baf6121f0610172565b95869485938493610df7565b835260048301610671565b03915afa92831561233257612302946122a96122906122ae9361228b6122726122fb996122c7985f91612304575b509861226d61225561224f61224a6004612046565b611523565b9b613dac565b6122688c6122625f610cd6565b90611562565b611582565b613dc1565b612286896122806001611435565b90611562565b611582565b6142d3565b6122a48661229e60026114ce565b90611562565b611582565b6142d3565b6122c2836122bc6003612065565b90611562565b611582565b6122d463fcb74a45611599565b5f916122ea426122e460646115b8565b906115d4565b916122f55f94610cd6565b91613eed565b339061410e565b565b612325915060203d811161232b575b61231d8183610dce565b8101906114ad565b5f612235565b503d612313565b610e5a565b6123579150853d811161235d575b61234f8183610dce565b810190611392565b5f6121c9565b503d612345565b610e5a565b6123899060203d811161238e575b6123818183610dce565b810190610e0c565b612175565b503d612377565b610e5a565b6123bb915060203d81116123c1575b6123b38183610dce565b810190612025565b5f612107565b503d6123a9565b610e5a565b906123d9939291611fe4565b565b906123e5906110e0565b5f5260205260405f2090565b60ff1690565b61240361240891610b87565b6123f1565b90565b61241590546123f7565b90565b61243e915f6124336124399361242c610b43565b508261104f565b016123db565b61240b565b90565b90612454929161244f613bde565b612469565b61245c613c43565b565b1561246557565b5f80fd5b9061249792916124923361248c6124866124816142e8565b61031a565b9161031a565b1461245e565b6125f5565b565b634e487b7160e01b5f52602160045260245ffd5b600311156124b757565b612499565b906124c6826124ad565b565b6124d1906124bc565b90565b6124dd9061051d565b9052565b6124ea90611c69565b9052565b61252361252a9461251960609498979561250f608086019a5f8701906124d4565b60208501906124d4565b60408301906124d4565b01906124e1565b565b60901c90565b67ffffffffffffffff1690565b61254b6125509161252c565b612532565b90565b61255d905461253f565b90565b91602061258192949361257a60408201965f8301906124d4565b01906124e1565b565b9061258d906110e0565b5f5260205260405f2090565b906125ac67ffffffffffffffff91610925565b9181191691161790565b6125ca6125c56125cf92610884565b61051a565b610884565b90565b90565b906125ea6125e56125f1926125b6565b6125d2565b8254612599565b9055565b61261361260461261892614306565b61260d5f610cd6565b90611b0a565b611b2a565b90612621612852565b9061263c6126366126315f6124c8565b61085b565b9161085b565b036127ef5761264a8261437d565b61265b61265630611345565b61437d565b61266c61266786611c69565b613d42565b906126a96126a361269d7ffdda383f98b7ae2bbc9363df5694616f2c7890613a6dc6e80c9328c1186d95ef9561051d565b9261051d565b9261051d565b926126b2610172565b806126bc8161023c565b0390a4826126de6126d86126d36007600c01612553565b610884565b91610884565b116126fb575b506126f46126f99291601e612583565b6125d5565b565b91602061272b61271261270d84611c69565b613d42565b946127268661272083610992565b90613d68565b610992565b9363a9059cbb946127505f86939761275b612744610172565b998a9687958694610df7565b845260048401611149565b03925af19081156127ea576126f9936126f4926127be575b5061277d8361437d565b817f6f59438bec28ae7fde9ad29d1b94c360525f0ffd036127ccc684c82eb8cbc7a2916127b46127ab610172565b92839283612560565b0390a192506126e4565b6127de9060203d81116127e3575b6127d68183610dce565b810190610e0c565b612773565b503d6127cc565b610e5a565b6128016127fc8492610992565b61437d565b61283d61280d3361437d565b9261281f61281a30611345565b61437d565b612827610172565b948594638443530d60e01b8652600486016124ee565b0390fd5b9061284c9291612441565b565b5f90565b61285a61284e565b50612868600a600c016112ad565b90565b90612875906110e0565b5f5260205260405f2090565b5490565b9190612898905f602085019401906124d4565b565b60209181520190565b5f5260205f2090565b6128b590610517565b9052565b906128c6816020936128ac565b0190565b6128d49054610cb5565b90565b60010190565b906128fa6128f46128ed84612881565b809361289a565b926128a3565b905f5b81811061290a5750505090565b90919261292a61292460019261291f876128ca565b6128b9565b946128d7565b91019190916128fd565b9061293e916128dd565b90565b9061296161295a92612951610172565b93848092612934565b0383610dce565b565b61296c90612941565b90565b600190818003010490565b1b90565b919060086129999102916129935f198461297a565b9261297a565b9181191691161790565b91906129b96129b46129c19361051d565b610f28565b90835461297e565b9055565b6129d7916129d1611a46565b916129a3565b565b5b8181106129e5575050565b806129f25f6001936129c5565b016129da565b9091828110612a07575b505050565b612a25612a1f612a19612a309561296f565b9261296f565b926128a3565b9182019101906129d9565b5f8080612a02565b90680100000000000000008111612a615781612a56612a5f93612881565b908281556129f8565b565b610dba565b5f612a7091612a38565b565b634e487b7160e01b5f525f60045260245ffd5b905f03612a9757612a9590612a66565b565b612a72565b90565b9052565b60209181520190565b60200190565b612abb90610517565b9052565b90612acc81602093612ab2565b0190565b60200190565b90612af3612aed612ae68461155e565b8093612aa3565b92612aac565b905f5b818110612b035750505090565b909192612b1c612b166001928651612abf565b94612ad0565b9101919091612af6565b91612b4992612b3c60408201935f830190612a9f565b6020818403910152612ad6565b90565b5f910312612b5657565b61017c565b60081c90565b60ff1690565b612b73612b7891612b5b565b612b61565b90565b612b859054612b67565b90565b60a01c90565b612b9a612b9f91612b88565b612b61565b90565b612bac9054612b8e565b90565b612bb89061031a565b9052565b612be0612bed949293612bd660608401955f850190612a9f565b6020830190612baf565b6040818403910152612ad6565b90565b33612c05612c00601b839061286b565b612881565b612c17612c115f610cd6565b91610517565b14612fa357612c30612c2b601b839061286b565b612963565b90612c45612c40601c83906123db565b61240b565b612c5a5f612c55601b859061286b565b612a85565b5f14612d7f57612c6d6007600c01612b7b565b612c8b612c85612c806003600c01612ba2565b61085b565b9161085b565b10612d6357612c9a600c612a9c565b73__$4bd4e058d5e733e11ce3933a38e00d3f30$__63088115199293813b15612d5e575f93612ce5612cda92612cce610172565b97889687958695610df7565b855260048501612bbc565b03915af48015612d5957612d2d575b507ee2d681c483528119b71f74ebcd6ad9dd9ca7fd71ea2245aa2362e27d3f2eb6612d1d610172565b80612d278161023c565b0390a15b565b612d4c905f3d8111612d52575b612d448183610dce565b810190612b4c565b5f612cf4565b503d612d3a565b610e5a565b610dac565b5f634cc203a560e11b815280612d7b6004820161023c565b0390fd5b50612d8d600a600c016112ad565b906020612d9a600c612a9c565b73__$4bd4e058d5e733e11ce3933a38e00d3f30$__612dce635c251ab6612dd9612dc2610172565b96879586948594610df7565b845260048401612b26565b03915af4908115612f9e575f91612f70575b5090612dfa600b600c01610d93565b906020612e1b612e15612e10600a600c016112ad565b610992565b93610da0565b63095ea7b39390612e3f5f8796612e4a612e33610172565b98899687958694610df7565b845260048401610e37565b03925af1918215612f6b57612e6492612f3f575b50610992565b9063ea598cb081833b15612f3a57612e9b93612e905f8094612e84610172565b97889586948593610df7565b835260048301610671565b03925af1908115612f3557612eca92612eb992612f09575b50613d42565b612ec5601d33906110ec565b611129565b612ee8612ee1612edc601d33906110ec565b611119565b33906143b3565b612f04612eff612efa601d33906110ec565b611119565b6143d3565b612d2b565b612f28905f3d8111612f2e575b612f208183610dce565b810190612b4c565b5f612eb3565b503d612f16565b610e5a565b610dac565b612f5f9060203d8111612f64575b612f578183610dce565b810190610e0c565b612e5e565b503d612f4d565b610e5a565b612f91915060203d8111612f97575b612f898183610dce565b810190611392565b5f612deb565b503d612f7f565b610e5a565b612faf612fc69161437d565b5f91829163cd7a4aa560e01b835260048301612885565b0390fd5b90612fe591612fe0612fdb82611089565b613c57565b612fe7565b565b90612ff19161413d565b50565b90612ffe91612fca565b565b61300c61301191610b87565b612532565b90565b61301e9054613000565b90565b61303561303061303a92610922565b61051a565b610884565b90565b5f7f4e6f2070656e64696e67206d696e7420666f7220746869732075736572000000910152565b613071601d602092610bb8565b61307a8161303d565b0190565b6130939060208101905f818303910152613064565b90565b1561309d57565b6130a5610172565b62461bcd60e51b8152806130bb6004820161307e565b0390fd5b6130c890610884565b9052565b91906130df905f602085019401906130bf565b565b919060408382031261310957806130fd613106925f8601611383565b93602001611383565b90565b61017c565b61311790611c69565b9052565b91602061313c92949361313560408201965f830190612a9f565b019061310e565b565b61314a61314f91610b87565b612b61565b90565b61315c905461313e565b90565b9190613172905f60208501940190612a9f565b565b60207f207a65726f000000000000000000000000000000000000000000000000000000917f5368617265207072696365206d7573742062652067726561746572207468616e5f8201520152565b6131ce6025604092610bb8565b6131d781613174565b0190565b6131f09060208101905f8183039101526131c1565b90565b156131fa57565b613202610172565b62461bcd60e51b815280613218600482016131db565b0390fd5b61323061322b61323592610517565b61051a565b610884565b90565b91602061325992949361325260408201965f830190610e2a565b01906130bf565b565b61326f61326a601e8390612583565b613014565b61328b8161328561327f5f613021565b91610884565b11613096565b6132a86132975f613021565b6132a3601e8590612583565b6125d5565b6132b86132b3612852565b610992565b63dc412e8382823b1561365e576132ee926132e35f80946132d7610172565b96879586948593610df7565b8352600483016130cc565b03925af180156136595761362d575b50604061330a600c612a9c565b73__$4bd4e058d5e733e11ce3933a38e00d3f30$__61333e63304e0783613349613332610172565b96879586948594610df7565b84526004840161311b565b03915af48015613628575f809290916135f7575b50906133688361437d565b906133a86133967faf7c505ee772ec188af7067e1f73db08ab028e3d564273442b907742b9c41fa09261051d565b9261339f610172565b91829182612885565b0390a26133b86007600c01613152565b6133d66133d06133cb6003600c01612ba2565b61085b565b9161085b565b14613514575b61342661342b916133eb611cb3565b6134136133fb600d600c01610cc9565b61340d6134075f610cd6565b91610517565b116131f3565b613420600d600c01610cc9565b90611c1a565b61321c565b9061344061343b600c8001611a86565b6106e3565b90632893c5b0818493803b1561350f5761346d5f8094613478613461610172565b98899687958694610df7565b845260048401613238565b03925af191821561350a57613492926134de575b5061437d565b906134c66134c07f0a7d587acc3bafe631c58ed4a25eda1e905acfb47594d1b86b332ae63df225949361051d565b91611c69565b916134cf610172565b806134d98161023c565b0390a3565b6134fd905f3d8111613503575b6134f58183610dce565b810190612b4c565b5f61348c565b503d6134eb565b610e5a565b610dac565b61351e600c612a9c565b9073__$4bd4e058d5e733e11ce3933a38e00d3f30$__9163a52cd1cb90833b156135f25761356a9361355f5f93613553610172565b96879485938493610df7565b83526004830161315f565b03915af49081156135ed5761342b92613426926135c1575b507f79154593ad5827af96f232d8b081e8d48c8bad62e5314fd67880b9880b4812406135ac610172565b806135b68161023c565b0390a19150506133dc565b6135e0905f3d81116135e6575b6135d88183610dce565b810190612b4c565b5f613582565b503d6135ce565b610e5a565b610dac565b905061361a915060403d8111613621575b6136128183610dce565b8101906130e1565b905f61335d565b503d613608565b610e5a565b61364c905f3d8111613652575b6136448183610dce565b810190612b4c565b5f6132fd565b503d61363a565b610e5a565b610dac565b9061367894939291613673613bde565b613682565b613680613c43565b565b906136b2949392916136ad336136a76136a161369c6142e8565b61031a565b9161031a565b1461245e565b6138aa565b565b909291926136c96136c4826114ea565b6112be565b938185526020808601920283019281841161370657915b8383106136ed5750505050565b602080916136fb8486611383565b8152019201916136e0565b610426565b9080601f8301121561372957816020613726935191016136b4565b90565b61041e565b9060208282031261375e575f82015167ffffffffffffffff811161375957613756920161370b565b90565b610180565b61017c565b61376d9051610517565b90565b6137798261155e565b9167ffffffffffffffff83116137dc576137a76137a160019261379c8686612a38565b612aac565b926128a3565b9204915f5b8381106137b95750505050565b60019060206137cf6137ca86613763565b610f28565b94019381840155016137ac565b610dba565b906137eb91613770565b565b906137f960ff91610925565b9181191691161790565b61380c906101d1565b90565b90565b9061382761382261382e92613803565b61380f565b82546137ed565b9055565b61383b9061085b565b60ff81146138495760010190565b611451565b60081b90565b9061386161ff009161384e565b9181191691161790565b61387f61387a6138849261085b565b61051a565b61085b565b90565b90565b9061389f61389a6138a69261386b565b613887565b8254613854565b9055565b909391936138c86138c26138bd5f6124c8565b61085b565b9161085b565b03613b3f57836138ec6138e66138e16007600c01612553565b610884565b91610884565b11613b175761391761391261390361391e93614306565b61390c5f610cd6565b90611b0a565b611b2a565b91156101d1565b613aef5761392a611cb3565b61393e613939600c8001611a86565b6106e3565b639dbead4284823b15613aea57613974926139695f809461395d610172565b96879586948593610df7565b8352600483016130cc565b03925af18015613ae557613ab9575b5061398d3361437d565b836139c16139bb7f3acb72c06eaa137bacda5d4c12b12db324ae4cec48c4d80544122a8ffb28e28c9361051d565b91611c69565b916139ca610172565b806139d48161023c565b0390a35f6139e2600c612a9c565b73__$4bd4e058d5e733e11ce3933a38e00d3f30$__613a1663314bed22613a21613a0a610172565b98899586948594610df7565b84526004840161311b565b03915af4908115613ab457613a50613a6192613a67955f91613a92575b50613a4b601b849061286b565b6137e1565b613a5c8391601c6123db565b613812565b156101d1565b613a6e575b565b613a8d6007600c01613a87613a8282612b7b565b613832565b9061388a565b613a6c565b613aae91503d805f833e613aa68183610dce565b81019061372e565b5f613a3e565b610e5a565b613ad8905f3d8111613ade575b613ad08183610dce565b810190612b4c565b5f613983565b503d613ac6565b610e5a565b610dac565b613af9915061437d565b613b135f928392633721f7cb60e01b845260048401612560565b0390fd5b83613b213361437d565b613b3b5f9283926353d6b89960e11b845260048401612560565b0390fd5b83613b5c613b57613b52600c8001611a86565b6106e3565b61437d565b613b98613b683361437d565b92613b7a613b7530611345565b61437d565b613b82610172565b948594638443530d60e01b8652600486016124ee565b0390fd5b90613ba994939291613663565b565b613bb3610b43565b50613bcd613bc76301ffc9a760e01b610184565b91610184565b1490565b613bdb60026114ce565b90565b613be86001610cc9565b613c01613bfb613bf6613bd1565b610517565b91610517565b14613c1a57613c18613c11613bd1565b6001610f2b565b565b5f633ee5aeb560e01b815280613c326004820161023c565b0390fd5b613c406001611435565b90565b613c55613c4e613c36565b6001610f2b565b565b613c6990613c63614130565b90614413565b565b613c73610b43565b50613c88613c82828490612418565b156101d1565b5f14613d1057613caf6001613caa5f613ca281869061104f565b0185906123db565b613812565b90613cb8614130565b90613cf5613cef613ce97f2f8788117e7eff1d82e926ec794901d17c78024a50270940304540a733656f0d95611043565b926110e0565b926110e0565b92613cfe610172565b80613d088161023c565b0390a4600190565b50505f90565b90565b613d2d613d28613d3292613d16565b61051a565b61085b565b90565b613d3f6005613d19565b90565b613d60613d6591613d51611949565b50613d5a613d35565b906144cd565b61051d565b90565b90613d75613d7a9261051d565b61459f565b565b613da991613d95613da492613d8f611949565b50611043565b90613d9e613d35565b916146cd565b61051d565b90565b613dbe90613db8611a46565b5061051d565b90565b613dd390613dcd611a46565b5061051d565b90565b613ddf906106bb565b90565b613deb90613dd6565b90565b613df7906106d7565b90565b60209181520190565b90613e20613e1a613e138461155e565b8093613dfa565b92612aac565b905f5b818110613e305750505090565b909192613e49613e4360019286516128b9565b94612ad0565b9101919091613e23565b613e689160208201915f818403910152613e03565b90565b613e74906106bb565b90565b613e8090613e6b565b90565b613e8c906106d7565b90565b613e9890610184565b9052565b90613eeb94613eda608094989795613ed0613ec5613ee49560a08801908882035f8a0152613e03565b9a6020870190613e8f565b6040850190610664565b6060830190610664565b01906101d6565b565b9293909193613efa611a46565b50613f1d613f18613f135f613f0d61481c565b01610bab565b613de2565b613dee565b63557e100485823b1561403757613f5392613f485f8094613f3c610172565b96879586948593610df7565b835260048301613e53565b03925af194851561403257613fbd613fb2935f93602098614006575b50613f92613f8d613f8886613f82614840565b01610bab565b613e77565b613e83565b95634c0d9277939799919091613fa6610172565b9a8b998a988997610df7565b875260048701613e9c565b03925af1908115614001575f91613fd3575b5090565b613ff4915060203d8111613ffa575b613fec8183610dce565b810190611392565b5f613fcf565b503d613fe2565b610e5a565b61402590853d811161402b575b61401d8183610dce565b810190612b4c565b5f613f6f565b503d614013565b610e5a565b610dac565b906140469061051d565b5f5260205260405f2090565b90565b5f5260205f2090565b5490565b61406b8161405e565b8210156140855761407d600191614055565b910201905f90565b61154a565b919060086140aa9102916140a460018060a01b038461297a565b9261297a565b9181191691161790565b90565b91906140cd6140c86140d5936110e0565b6140b4565b90835461408a565b9055565b9081549168010000000000000000831015614109578261410191600161410795018155614062565b906140b7565b565b610dba565b9061412561412061412a93600961403c565b614052565b6140d9565b565b5f90565b61413861412c565b503390565b614145610b43565b50614151818390612418565b5f146141d8576141775f6141725f61416a81869061104f565b0185906123db565b613812565b90614180614130565b906141bd6141b76141b17ff6391f5c32d9c69d2a47ea670b442974b53935d1edc7fd64eb21e047a839171b95611043565b926110e0565b926110e0565b926141c6610172565b806141d08161023c565b0390a4600190565b50505f90565b5f90565b6141f66141f16141fb92610922565b61051a565b61085b565b90565b6142075f6141e2565b90565b614237916142236142329261421d6141de565b50611043565b9061422c6141fe565b916146cd565b61051d565b90565b614297916142929161424a6141de565b5061425d61425782614864565b156101d1565b6142bc575b61427461426e83614864565b156101d1565b61429a575b61428561428b9161051d565b9161051d565b5f916148fb565b61051d565b90565b905061428b6142856142b36142ae5f610cd6565b613d42565b92915050614279565b506142ce6142c95f610cd6565b613d42565b614262565b6142e5906142df611a46565b5061051d565b90565b6142f061412c565b506143035f6142fd614840565b01610bab565b90565b61431d6143229161431561196d565b50600961403c565b611a21565b90565b5f90565b614332906106bb565b90565b90565b61434c61434761435192614335565b61051a565b61085b565b90565b61435e6007614338565b90565b61437561437061437a9261030f565b61051a565b610517565b90565b6143ab6143956143b09261438f614325565b50614329565b6143a66143a0614354565b91614361565b6144cd565b61051d565b90565b906143c06143c59261051d565b6149ce565b565b6143d0906106d7565b90565b6143df6143ee9161051d565b6143e8306143c7565b906149ce565b565b91602061441192949361440a60408201965f830190610e2a565b01906102b8565b565b90614428614422838390612418565b156101d1565b614430575050565b61444a5f92839263e2517d3f60e01b8452600484016143f0565b0390fd5b614457906106bb565b90565b6144639061444e565b90565b61446f906106d7565b90565b60ff60f81b1690565b60f81b90565b61449561449061449a9261085b565b61447b565b614472565b90565b6144a690614472565b9052565b9160206144cb9294936144c460408201965f830190610664565b019061449d565b565b906020906144d9611a46565b506144fd6144f86144f360016144ed61481c565b01610bab565b61445a565b614466565b6145285f61451063e71746b89694614481565b9561453361451c610172565b97889687958694610df7565b8452600484016144aa565b03925af1908115614577575f91614549575b5090565b61456a915060203d8111614570575b6145628183610dce565b810190611392565b5f614545565b503d614558565b610e5a565b91602061459d92949361459660408201965f830190610664565b0190610e2a565b565b6145c16145bc6145b75f6145b161481c565b01610bab565b613de2565b613dee565b91638d9c9c92919092803b1561463c576145ee5f80946145f96145e2610172565b97889687958694610df7565b84526004840161457c565b03925af180156146375761460b575b50565b61462a905f3d8111614630575b6146228183610dce565b810190612b4c565b5f614608565b503d614618565b610e5a565b610dac565b5190565b60209181520190565b90825f9392825e0152565b6146786146816020936146869361466f81614641565b93848093614645565b9586910161464e565b610db0565b0190565b9493916060916146cb946146b66146c3936146ac60808b01945f8c01906102b8565b60208a0190610e2a565b8782036040890152614659565b94019061449d565b565b92916020906146da611a46565b506146e361481c565b9461472f5f6147046146ff6146fa60018b01610bab565b61445a565b614466565b9261473a632e817ff0919561471a339991614481565b90614723610172565b998a9889978896610df7565b86526004860161468a565b03925af1908115614817576147605f61476a936147659382916147e9575b509501610bab565b613de2565b613dee565b638d9c9c92833392803b156147e4576147965f80946147a161478a610172565b97889687958694610df7565b84526004840161457c565b03925af180156147df576147b3575b50565b6147d2905f3d81116147d8575b6147ca8183610dce565b810190612b4c565b5f6147b0565b503d6147c0565b610e5a565b610dac565b61480a915060203d8111614810575b6148028183610dce565b810190611392565b5f614758565b503d6147f8565b610e5a565b7fed8d60e34876f751cc8b014c560745351147d9de11b9347c854e881b128ea60090565b7f93ab6e17f2c461cce6ea5d4ec117e51dda77a64affc2b2c05f8cd440def0e70090565b61487690614870610b43565b5061051d565b6148886148825f610cd6565b91610517565b141590565b5f90565b6148a56148a06148aa92610922565b61447b565b614472565b90565b6148c16148bc6148c692611432565b61447b565b614472565b90565b6040906148f26148f994969593966148e860608401985f850190610664565b6020830190610664565b019061449d565b565b9190602091614908611a46565b5061491161488d565b505f146149bf5761492260016148ad565b925b61496b5f61494b614946614941600161493b61481c565b01610bab565b61445a565b614466565b9261497663694daf7291959761495f610172565b98899788968795610df7565b8552600485016148c9565b03925af19081156149ba575f9161498c575b5090565b6149ad915060203d81116149b3575b6149a58183610dce565b810190611392565b5f614988565b503d61499b565b610e5a565b6149c85f614891565b92614924565b6149f06149eb6149e65f6149e061481c565b01610bab565b613de2565b613dee565b916365d0509c919092803b15614a6b57614a1d5f8094614a28614a11610172565b97889687958694610df7565b84526004840161457c565b03925af18015614a6657614a3a575b50565b614a59905f3d8111614a5f575b614a518183610dce565b810190612b4c565b5f614a37565b503d614a47565b610e5a565b610dac56fea2646970667358221220d82447ae37c36a002772452c8a66abe6b6df0a77d5e3b6c62f1b203f05aa276764736f6c634300081a003360a0604052346100405761001a610014610197565b906101b9565b610022610045565b612d73610d7e8239608051818181611a400152611da10152612d7390f35b61004b565b60405190565b5f80fd5b601f801991011690565b634e487b7160e01b5f52604160045260245ffd5b906100779061004f565b810190811060018060401b0382111761008f57604052565b610059565b906100a76100a0610045565b928361006d565b565b5f80fd5b5f80fd5b5f80fd5b5f80fd5b60018060401b0381116100d5576100d160209161004f565b0190565b610059565b90825f9392825e0152565b909291926100fa6100f5826100b9565b610094565b9381855260208501908284011161011657610114926100da565b565b6100b5565b9080601f8301121561013957816020610136935191016100e5565b90565b6100b1565b919091604081840312610192575f81015160018060401b03811161018d578361016891830161011b565b92602082015160018060401b03811161018857610185920161011b565b90565b6100ad565b6100ad565b6100a9565b6101b5613af1803803806101aa81610094565b92833981019061013e565b9091565b906101c6919033916101c8565b565b916101d5929190916101d7565b565b916101e492919091610221565b565b634e487b7160e01b5f52602160045260245ffd5b6003111561020457565b6101e6565b90610213826101fa565b565b61021e90610209565b90565b61023892916102306002610215565b919091610346565b565b60ff1690565b90565b90565b61025a61025561025f92610240565b610243565b61023a565b90565b5f0190565b5f90565b634e487b7160e01b5f52601160045260245ffd5b6102889061023a565b60ff81146102965760010190565b61026b565b90565b6102b26102ad6102b79261023a565b610243565b61029b565b90565b6102ce6102c96102d39261023a565b610243565b61023a565b90565b906102e0906102ba565b5f5260205260405f2090565b5f1b90565b906102fd5f19916102ec565b9181191691161790565b61031b6103166103209261029b565b610243565b61029b565b90565b90565b9061033b61033661034292610307565b610323565b82546102f1565b9055565b9290916103529261061e565b8061036561035f5f610246565b9161023a565b146103cd57610372610267565b5b806103866103808461023a565b9161023a565b116103c757806103bd6103a361039e6103c29461029e565b610771565b6103b8816103b3600786906102d6565b610326565b6107cb565b61027f565b610373565b50608052565b5f63328d4ab160e01b8152806103e560048201610262565b0390fd5b5190565b634e487b7160e01b5f52602260045260245ffd5b9060016002830492168015610421575b602083101461041c57565b6103ed565b91607f1691610411565b5f5260205f2090565b601f602091010490565b1b90565b9190600861045d9102916104575f198461043e565b9261043e565b9181191691161790565b90565b919061048061047b61048893610307565b610467565b908354610442565b9055565b5f90565b6104a29161049c61048c565b9161046a565b565b5b8181106104b0575050565b806104bd5f600193610490565b016104a5565b9190601f81116104d3575b505050565b6104df6105049361042b565b9060206104eb84610434565b8301931061050c575b6104fd90610434565b01906104a4565b5f80806104ce565b91506104fd819290506104f4565b1c90565b9061052e905f199060080261051a565b191690565b8161053d9161051e565b906002021790565b9061054f816103e9565b9060018060401b03821161060d576105718261056b8554610401565b856104c3565b602090601f83116001146105a557918091610594935f92610599575b5050610533565b90555b565b90915001515f8061058d565b601f198316916105b48561042b565b925f5b8181106105f5575091600293918560019694106105db575b50505002019055610597565b6105eb910151601f84169061051e565b90555f80806105cf565b919360206001819287870151815501950192016105b7565b610059565b9061061c91610545565b565b6106359061062e61063c9461063e565b6002610612565b6003610612565b565b61064790610649565b565b61065290610654565b565b61065d9061065f565b565b610668906106cb565b565b60018060a01b031690565b61068961068461068e92610240565b610243565b61066a565b90565b61069a90610675565b90565b6106a69061066a565b90565b6106b29061069d565b9052565b91906106c9905f602085019401906106a9565b565b6106d3610725565b806106ee6106e86106e35f610691565b61069d565b9161069d565b146106fe576106fc9061085b565b565b61072161070a5f610691565b5f918291631e4fbdf760e01b8352600483016106b6565b0390fd5b61072d61072f565b565b61073f61073a6108e6565b61097f565b565b5f90565b90565b61075c61075761076192610745565b610243565b61023a565b90565b61076e6002610748565b90565b61078f61079491610780610741565b50610789610764565b90610aa2565b610307565b90565b6107ab6107a66107b09261066a565b610243565b61066a565b90565b6107bc90610797565b90565b6107c8906107b3565b90565b6107d76107e691610307565b6107e0306107bf565b90610ba7565b565b9190600861080891029161080260018060a01b038461043e565b9261043e565b9181191691161790565b61081b906107b3565b90565b90565b919061083761083261083f93610812565b61081e565b9083546107e8565b9055565b5f90565b61085991610853610843565b91610821565b565b61086f9061086a5f6001610847565b610c84565b565b61087b6080610094565b90565b5f90565b61088a610871565b9060208080808561089961087e565b8152016108a461087e565b8152016108af61087e565b8152016108ba61087e565b81525050565b6108c8610882565b90565b6108d56080610094565b90565b906108e29061069d565b9052565b6108ee6108c0565b5073fee8407e2f5e3ee68ad77cae98c434e637f516e561097c73687408ab54661ba0b4aef3a44156c616c6955e0761097373fb03be574d14c256d56f09a198b586bdfc0a9de261096a739d6891a6240d6130c54ae243d8005063d05fe14b936109616109586108cb565b975f89016108d8565b602087016108d8565b604085016108d8565b606083016108d8565b90565b61098890610cf0565b565b5f1c90565b60018060a01b031690565b6109a66109ab9161098a565b61098f565b90565b6109b8905461099a565b90565b6109c490610797565b90565b6109d0906109bb565b90565b6109dc906107b3565b90565b60ff60f81b1690565b60f81b90565b610a026109fd610a079261023a565b6109e8565b6109df565b90565b5f80fd5b60e01b90565b610a1d8161029b565b03610a2457565b5f80fd5b90505190610a3582610a14565b565b90602082820312610a5057610a4d915f01610a28565b90565b6100a9565b610a5e9061029b565b9052565b610a6b906109df565b9052565b916020610a90929493610a8960408201965f830190610a55565b0190610a62565b565b610a9a610045565b3d5f823e3d90fd5b90602090610aae61048c565b50610ad2610acd610ac86001610ac2610d59565b016109ae565b6109c7565b6109d3565b610afd5f610ae563e71746b896946109ee565b95610b08610af1610045565b97889687958694610a0e565b845260048401610a6f565b03925af1908115610b4c575f91610b1e575b5090565b610b3f915060203d8111610b45575b610b37818361006d565b810190610a37565b5f610b1a565b503d610b2d565b610a92565b610b5a90610797565b90565b610b6690610b51565b90565b610b72906107b3565b90565b5f910312610b7f57565b6100a9565b916020610ba5929493610b9e60408201965f830190610a55565b01906106a9565b565b610bc9610bc4610bbf5f610bb9610d59565b016109ae565b610b5d565b610b69565b916365d0509c919092803b15610c4457610bf65f8094610c01610bea610045565b97889687958694610a0e565b845260048401610b84565b03925af18015610c3f57610c13575b50565b610c32905f3d8111610c38575b610c2a818361006d565b810190610b75565b5f610c10565b503d610c20565b610a92565b610a0a565b90610c5a60018060a01b03916102ec565b9181191691161790565b90610c79610c74610c8092610812565b61081e565b8254610c49565b9055565b610c8d5f6109ae565b610c97825f610c64565b90610ccb610cc57f8be0079c531659141344cd1fd0a4f28419497f9722a3daafe3b4186f6b6457e093610812565b91610812565b91610cd4610045565b80610cde81610262565b0390a3565b610ced905161069d565b90565b610d57906003610d506060610d03610d59565b93610d1a610d125f8301610ce3565b5f8701610c64565b610d32610d2960208301610ce3565b60018701610c64565b610d4a610d4160408301610ce3565b60028701610c64565b01610ce3565b9101610c64565b565b7fed8d60e34876f751cc8b014c560745351147d9de11b9347c854e881b128ea6009056fe60806040526004361015610013575b610ab1565b61001d5f3561017c565b806306e928fd1461017757806306fdde0314610172578063095ea7b31461016d57806318160ddd1461016857806323b872dd146101635780632893c5b01461015e578063313ce5671461015957806367a74a281461015457806370a082311461014f578063715018a61461014a57806379ba5097146101455780637b7e0a5a146101405780638da5cb5b1461013b57806395d89b41146101365780639a094352146101315780639dbead421461012c578063a5184baf14610127578063a9059cbb14610122578063b32c10011461011d578063dd62ed3e14610118578063e30c3978146101135763f2fde38b0361000e57610a7e565b610a49565b610a13565b6109ad565b610977565b610942565b6108ac565b610855565b6107c0565b61078b565b610730565b61063a565b610607565b6105d2565b61059d565b610546565b6104ea565b61045f565b6103f0565b61038b565b6102df565b610230565b60e01c90565b60405190565b5f80fd5b5f80fd5b5f80fd5b60018060a01b031690565b6101a890610194565b90565b6101b48161019f565b036101bb57565b5f80fd5b905035906101cc826101ab565b565b906020828203126101e7576101e4915f016101bf565b90565b61018c565b90565b90565b61020661020161020b926101ec565b6101ef565b6101ec565b90565b610217906101f2565b9052565b919061022e905f6020850194019061020e565b565b346102605761025c61024b6102463660046101ce565b610b2c565b610253610182565b9182918261021b565b0390f35b610188565b5f91031261026f57565b61018c565b5190565b60209181520190565b90825f9392825e0152565b601f801991011690565b6102b56102be6020936102c3936102ac81610274565b93848093610278565b95869101610281565b61028c565b0190565b6102dc9160208201915f818403910152610296565b90565b3461030f576102ef366004610265565b61030b6102fa610caf565b610302610182565b918291826102c7565b0390f35b610188565b61031d816101ec565b0361032457565b5f80fd5b9050359061033582610314565b565b919060408382031261035f578061035361035c925f86016101bf565b93602001610328565b90565b61018c565b151590565b61037290610364565b9052565b9190610389905f60208501940190610369565b565b346103bc576103b86103a76103a1366004610337565b90610cce565b6103af610182565b91829182610376565b0390f35b610188565b67ffffffffffffffff1690565b6103d7906103c1565b9052565b91906103ee905f602085019401906103ce565b565b3461042057610400366004610265565b61041c61040b610d82565b610413610182565b918291826103db565b0390f35b610188565b909160608284031261045a57610457610440845f85016101bf565b9361044e81602086016101bf565b93604001610328565b90565b61018c565b346104905761048c61047b610475366004610425565b91610d98565b610483610182565b91829182610376565b0390f35b610188565b61049e816103c1565b036104a557565b5f80fd5b905035906104b682610495565b565b91906040838203126104e057806104d46104dd925f86016101bf565b936020016104a9565b90565b61018c565b5f0190565b34610519576105036104fd3660046104b8565b90610eee565b61050b610182565b80610515816104e5565b0390f35b610188565b60ff1690565b61052d9061051e565b9052565b9190610544905f60208501940190610524565b565b3461057657610556366004610265565b610572610561610f1d565b610569610182565b91829182610531565b0390f35b610188565b610584906101ec565b9052565b919061059b905f6020850194019061057b565b565b346105cd576105ad366004610265565b6105c96105b8610f37565b6105c0610182565b91829182610588565b0390f35b610188565b34610602576105fe6105ed6105e83660046101ce565b610f4b565b6105f5610182565b9182918261021b565b0390f35b610188565b3461063557610617366004610265565b61061f610fba565b610627610182565b80610631816104e5565b0390f35b610188565b346106685761064a366004610265565b610652610fc4565b61065a610182565b80610664816104e5565b0390f35b610188565b90565b6106798161066d565b0361068057565b5f80fd5b9050359061069182610670565b565b5f80fd5b5f80fd5b5f80fd5b909182601f830112156106d95781359167ffffffffffffffff83116106d45760200192600183028401116106cf57565b61069b565b610697565b610693565b9160608383031261072b576106f5825f85016101bf565b926107038360208301610684565b92604082013567ffffffffffffffff811161072657610722920161069f565b9091565b610190565b61018c565b346107645761076061074f6107463660046106de565b929190916110a0565b610757610182565b91829182610376565b0390f35b610188565b6107729061019f565b9052565b9190610789905f60208501940190610769565b565b346107bb5761079b366004610265565b6107b76107a66110ff565b6107ae610182565b91829182610776565b0390f35b610188565b346107f0576107d0366004610265565b6107ec6107db611114565b6107e3610182565b918291826102c7565b0390f35b610188565b906080828203126108505761080c815f84016101bf565b9261081a82602085016101bf565b926108288360408301610684565b92606082013567ffffffffffffffff811161084b57610847920161069f565b9091565b610190565b61018c565b346108895761088561087461086b3660046107f5565b9392909261112a565b61087c610182565b91829182610376565b0390f35b610188565b906020828203126108a7576108a4915f016104a9565b90565b61018c565b346108da576108c46108bf36600461088e565b611185565b6108cc610182565b806108d6816104e5565b0390f35b610188565b6108e8816101ec565b036108ef57565b5f80fd5b90503590610900826108df565b565b9060208282031261091b57610918915f016108f3565b90565b61018c565b610929906101f2565b9052565b9190610940905f60208501940190610920565b565b346109725761096e61095d610958366004610902565b6111b3565b610965610182565b9182918261092d565b0390f35b610188565b346109a8576109a461099361098d366004610337565b90611203565b61099b610182565b91829182610376565b0390f35b610188565b346109e1576109dd6109cc6109c33660046106de565b9291909161127a565b6109d4610182565b91829182610376565b0390f35b610188565b9190604083820312610a0e5780610a02610a0b925f86016101bf565b936020016101bf565b90565b61018c565b34610a4457610a40610a2f610a293660046109e6565b906112a9565b610a37610182565b9182918261021b565b0390f35b610188565b34610a7957610a59366004610265565b610a75610a646112bf565b610a6c610182565b91829182610776565b0390f35b610188565b34610aac57610a96610a913660046101ce565b61138a565b610a9e610182565b80610aa8816104e5565b0390f35b610188565b5f80fd5b5f90565b610acd610ac8610ad292610194565b6101ef565b610194565b90565b610ade90610ab9565b90565b610aea90610ad5565b90565b90610af790610ae1565b5f5260205260405f2090565b5f1c90565b90565b610b17610b1c91610b03565b610b08565b90565b610b299054610b0b565b90565b610b43610b4891610b3b610ab5565b506004610aed565b610b1f565b610b53813390611395565b90565b606090565b634e487b7160e01b5f52602260045260245ffd5b9060016002830492168015610b8f575b6020831014610b8a57565b610b5b565b91607f1691610b7f565b60209181520190565b5f5260205f2090565b905f9291805490610bc5610bbe83610b6f565b8094610b99565b916001811690815f14610c1c5750600114610be0575b505050565b610bed9192939450610ba2565b915f925b818410610c0457505001905f8080610bdb565b60018160209295939554848601520191019290610bf1565b92949550505060ff19168252151560200201905f8080610bdb565b90610c4191610bab565b90565b634e487b7160e01b5f52604160045260245ffd5b90610c629061028c565b810190811067ffffffffffffffff821117610c7c57604052565b610c44565b90610ca1610c9a92610c91610182565b93848092610c37565b0383610c58565b565b610cac90610c81565b90565b610cb7610b56565b50610cc26002610ca3565b90565b5f90565b5f1990565b90610cd7610cc5565b50610ce1816113a9565b610cf03391829084909161142c565b90610cf9610cc9565b91610d42610d30610d2a7f8c5be1e5ebec7d5bd14f71427d1e84f3dd0314c0f7b2291e5b200ac8c7c3b92593610ae1565b93610ae1565b93610d39610182565b91829182610588565b0390a3600190565b5f90565b60a01c90565b67ffffffffffffffff1690565b610d6d610d7291610d4e565b610d54565b90565b610d7f9054610d61565b90565b610d8a610d4a565b50610d956001610d75565b90565b610dc592610da4610cc5565b50610dae816113a9565b610dbb33839083916114ef565b91929091926115fc565b600190565b90610ddc91610dd7611677565b610e81565b565b634e487b7160e01b5f52601160045260245ffd5b610dfe610e04916103c1565b916103c1565b019067ffffffffffffffff8211610e1757565b610dde565b60a01b90565b90610e3867ffffffffffffffff60a01b91610e1c565b9181191691161790565b610e56610e51610e5b926103c1565b6101ef565b6103c1565b90565b90565b90610e76610e71610e7d92610e42565b610e5e565b8254610e22565b9055565b610e8c8183906116c5565b610eaa610ea3610e9c6001610d75565b8490610df2565b6001610e61565b610ee9610ed77f9109de113672aaca72ede8bc906f7aafabee865311ac020fb15c71edf94a0a0192610ae1565b92610ee0610182565b918291826103db565b0390a2565b90610ef891610dca565b565b5f90565b90565b610f15610f10610f1a92610efe565b6101ef565b61051e565b90565b610f25610efa565b50610f306006610f01565b90565b5f90565b610f3f610f33565b50610f48611754565b90565b610f62610f6791610f5a610ab5565b506004610aed565b610b1f565b90565b610f72611677565b610f7a610fa7565b565b90565b610f93610f8e610f9892610f7c565b6101ef565b610194565b90565b610fa490610f7f565b90565b610fb8610fb35f610f9b565b6117ce565b565b610fc2610f6a565b565b610fcc6117e4565b610fd46112bf565b610fe6610fe08361019f565b9161019f565b03610ff657610ff4906117ce565b565b611011905f91829163118cdaa760e01b835260048301610776565b0390fd5b5f80fd5b9061102c611025610182565b9283610c58565b565b67ffffffffffffffff811161104c5761104860209161028c565b0190565b610c44565b90825f939282370152565b9092919261107161106c8261102e565b611019565b9381855260208501908284011161108d5761108b92611051565b565b611015565b61109d91369161105c565b90565b916110bd6110c9946110c393946110b5610cc5565b509492611092565b90611829565b90611203565b50600190565b5f90565b60018060a01b031690565b6110ea6110ef91610b03565b6110d3565b90565b6110fc90546110de565b90565b6111076110cf565b506111115f6110f2565b90565b61111c610b56565b506111276003610ca3565b90565b926111486111549561114e939561113f610cc5565b50959492611092565b90611829565b91610d98565b50600190565b61116661116c916103c1565b916103c1565b90039067ffffffffffffffff821161118057565b610dde565b6111a66111ad91611197338290611859565b6111a16001610d75565b61115a565b6001610e61565b565b5f90565b6111c5906111bf6111af565b5061189f565b90565b634e487b7160e01b5f52602160045260245ffd5b600311156111e657565b6111c8565b906111f5826111dc565b565b611200906111eb565b90565b6112759161120f610cc5565b50611219816113a9565b6112378161123161122c60043390610aed565b610b1f565b90611918565b9061126b61124f8361124960016111f7565b90611a15565b61125881611b3e565b50611264813390611b8e565b8490611b8e565b33929091926115fc565b600190565b916112976112a39461129d939461128f610cc5565b509492611092565b90611829565b90610cce565b50600190565b906112bc916112b6610ab5565b50611ba2565b90565b6112c76110cf565b506112d260016110f2565b90565b6112e6906112e1611677565b61132b565b565b5f1b90565b906112fe60018060a01b03916112e8565b9181191691161790565b90565b9061132061131b61132792610ae1565b611308565b82546112ed565b9055565b61133681600161130b565b61133e6110ff565b9061137261136c7f38d16b8cac22d99fc7c124b9cd0de2d3fa1faef420bfe791d8c362d765e2270093610ae1565b91610ae1565b9161137b610182565b80611385816104e5565b0390a3565b611393906112d5565b565b906113a26113a7926101f2565b611c3a565b565b6113b56113bb91611cdc565b15610364565b6113c157565b5f632fa38b3f60e01b8152806113d9600482016104e5565b0390fd5b906113e790610ae1565b5f5260205260405f2090565b906113ff5f19916112e8565b9181191691161790565b90565b9061142161141c611428926101f2565b611409565b82546113f3565b9055565b9190918061144a61144461143f5f610f9b565b61019f565b9161019f565b146114cc578261146a61146461145f5f610f9b565b61019f565b9161019f565b146114ad57906114a66114ab93926114978361149261148b600585906113dd565b8790610aed565b61140c565b6114a083611d07565b82611d24565b611d24565b565b6114c8835f918291634a1406b160e11b835260048301610776565b0390fd5b6114e7905f91829163e602df0560e01b835260048301610776565b0390fd5b5f90565b9291906115b6916114fe6114eb565b506115b061150d868490611ba2565b9161159b61151c828590611918565b6115308161152a60026111f7565b90611a15565b61159661157a6115548c61154e61154989926004610aed565b610b1f565b90611918565b9261156861156185611d38565b8690611d5d565b9061157360016111f7565b9091611d8e565b61158381611b3e565b5061158f818d90611b8e565b8890611b8e565b611d5d565b9693926115a9889282611e0d565b9091611ea6565b9161142c565b565b90565b6115cf6115ca6115d4926115b8565b6101ef565b6101ec565b90565b6115e66115ec919392936101ec565b926101ec565b82039182116115f757565b610dde565b9161160d9193839185909192611ee0565b90611629611619611754565b61162360016115bb565b906115d7565b9161167261166061165a7fddf252ad1be2c89b69c2b068fc378daa952ba7f163c4a11628f55a4df523b3ef93610ae1565b93610ae1565b93611669610182565b91829182610588565b0390a3565b61167f6110ff565b61169861169261168d6117e4565b61019f565b9161019f565b0361169f57565b6116c16116aa6117e4565b5f91829163118cdaa760e01b835260048301610776565b0390fd5b906116d0908261200a565b6116d95f610f9b565b906116e2610cc9565b9161172b6117196117137fddf252ad1be2c89b69c2b068fc378daa952ba7f163c4a11628f55a4df523b3ef93610ae1565b93610ae1565b93611722610182565b91829182610588565b0390a3565b90565b61173f61174491610b03565b611730565b90565b6117519054611733565b90565b61175c610f33565b506117676006611747565b90565b1b90565b9190600861178e91029161178860018060a01b038461176a565b9261176a565b9181191691161790565b91906117ae6117a96117b693610ae1565b611308565b90835461176e565b9055565b6117cc916117c66110cf565b91611798565b565b6117e2906117dd5f60016117ba565b61204f565b565b6117ec6110cf565b503390565b6117fa9061066d565b90565b90565b61181461180f611819926117fd565b6101ef565b61051e565b90565b6118266005611800565b90565b611856916118426118519261183c610ab5565b506117f1565b9061184b61181c565b916121c5565b6101f2565b90565b9061186391612314565b565b9061186f906101f2565b5f5260205260405f2090565b90565b61188a61188f91610b03565b61187b565b90565b61189c905461187e565b90565b6118a76111af565b50806118c46118be6118b96006611747565b6101ec565b916101ec565b10156118e0576118d86118dd916008611865565b611892565b90565b5f63d65c1f3360e01b8152806118f8600482016104e5565b0390fd5b61191061190b61191592610f7c565b6101ef565b6101ec565b90565b61197591611970916119286114eb565b5061193b61193582612359565b15610364565b61199a575b61195261194c83612359565b15610364565b611978575b611963611969916101f2565b916101f2565b5f91612416565b6101f2565b90565b905061196961196361199161198c5f6118fc565b612382565b92915050611957565b506119ac6119a75f6118fc565b612382565b611940565b6119c56119c06119ca92610f7c565b6101ef565b61051e565b90565b906119d7906119b1565b5f5260205260405f2090565b6119f76119f26119fc9261051e565b6101ef565b61051e565b90565b90611a09906119e3565b5f5260205260405f2090565b90611a1e6111af565b5080611a32611a2c5f6119b1565b9161051e565b14611ac05780611a6a611a647f000000000000000000000000000000000000000000000000000000000000000061051e565b9161051e565b11611aa457611aa19190611a9b611a96611a8e611a8960075f906119cd565b611892565b9260076119ff565b611892565b916124e9565b90565b5f63d65c1f3360e01b815280611abc600482016104e5565b0390fd5b5f63436badaf60e11b815280611ad8600482016104e5565b0390fd5b611ae5906101ec565b5f198114611af35760010190565b610dde565b90565b90611b10611b0b611b17926101f2565b611af8565b82546113f3565b9055565b90565b90611b33611b2e611b3a926101f2565b611b1b565b82546113f3565b9055565b90611b47610f33565b50611b8c611b556006611747565b92611b72611b6b611b666006611747565b611adc565b6006611afb565b611b8781611b8260088790611865565b611b1e565b612523565b565b90611b9b611ba0926101f2565b612540565b565b611bc791611bbd611bc292611bb5610ab5565b5060056113dd565b610aed565b610b1f565b90565b611bd390610ab9565b90565b611bdf90611bca565b90565b611beb90610ad5565b90565b5f80fd5b60e01b90565b5f910312611c0257565b61018c565b916020611c28929493611c2160408201965f83019061057b565b0190610769565b565b611c32610182565b3d5f823e3d90fd5b611c5c611c57611c525f611c4c6125e2565b016110f2565b611bd6565b611be2565b91638d9c9c92919092803b15611cd757611c895f8094611c94611c7d610182565b97889687958694611bf2565b845260048401611c07565b03925af18015611cd257611ca6575b50565b611cc5905f3d8111611ccb575b611cbd8183610c58565b810190611bf8565b5f611ca3565b503d611cb3565b611c2a565b611bee565b611cf1611cf891611ceb610cc5565b506101f2565b3390612647565b90565b611d0490610ad5565b90565b611d13611d22916101f2565b611d1c30611cfb565b90612540565b565b90611d31611d36926101f2565b612540565b565b611d55611d50611d5a92611d4a6114eb565b506101f2565b6126ec565b6101f2565b90565b611d8b91611d7f611d79611d8693611d736114eb565b506101f2565b916101f2565b5f9161278f565b6101f2565b90565b91611d976111af565b5081611dcb611dc57f000000000000000000000000000000000000000000000000000000000000000061051e565b9161051e565b11611df157611de7611de2611dee949360076119ff565b611892565b90916124e9565b90565b5f63d65c1f3360e01b815280611e09600482016104e5565b0390fd5b611e6a91611e6591611e1d610ab5565b50611e30611e2a82612359565b15610364565b611e8f575b611e47611e4183612359565b15610364565b611e6d575b611e58611e5e916101f2565b916101f2565b5f91612862565b6101f2565b90565b9050611e5e611e58611e86611e815f6118fc565b612382565b92915050611e4c565b50611ea1611e9c5f6118fc565b612382565b611e35565b90611edd92611ed2611ecc611ec6611ed895611ec0610ab5565b506101f2565b936101f2565b916101f2565b91612967565b6101f2565b90565b9190939282611eff611ef9611ef45f610f9b565b61019f565b9161019f565b14611feb5784611f1f611f19611f145f610f9b565b61019f565b9161019f565b14611fcc5793611f8e611f4c611fa793611fca969790611f46611f415f6118fc565b612382565b91611ea6565b91611f6b611f64611f5f60048490610aed565b610b1f565b8490612a0f565b611f8081611f7b60048590610aed565b61140c565b611f8981611d07565b611d24565b611fa2611f9d60048590610aed565b610b1f565b611e0d565b611fbc81611fb760048590610aed565b61140c565b611fc581611d07565b611d24565b565b611fe7855f91829163ec442f0560e01b835260048301610776565b0390fd5b612006835f918291634b637e8f60e11b835260048301610776565b0390fd5b61202a61204d9261202561202060048590610aed565b610b1f565b612ac4565b61203f8161203a60048590610aed565b61140c565b61204881611d07565b611d24565b565b6120585f6110f2565b612062825f61130b565b906120966120907f8be0079c531659141344cd1fd0a4f28419497f9722a3daafe3b4186f6b6457e093610ae1565b91610ae1565b9161209f610182565b806120a9816104e5565b0390a3565b6120b790610ab9565b90565b6120c3906120ae565b90565b6120cf90610ad5565b90565b60ff60f81b1690565b60f81b90565b6120f56120f06120fa9261051e565b6120db565b6120d2565b90565b9050519061210a826108df565b565b9060208282031261212557612122915f016120fd565b90565b61018c565b6121339061066d565b9052565b5190565b60209181520190565b61216361216c6020936121719361215a81612137565b9384809361213b565b95869101610281565b61028c565b0190565b61217e906120d2565b9052565b9493916060916121c3946121ae6121bb936121a460808b01945f8c019061212a565b60208a0190610769565b8782036040890152612144565b940190612175565b565b92916020906121d2610f33565b506121db6125e2565b946122275f6121fc6121f76121f260018b016110f2565b6120ba565b6120c6565b92612232632e817ff091956122123399916120e1565b9061221b610182565b998a9889978896611bf2565b865260048601612182565b03925af190811561230f576122585f6122629361225d9382916122e1575b5095016110f2565b611bd6565b611be2565b638d9c9c92833392803b156122dc5761228e5f8094612299612282610182565b97889687958694611bf2565b845260048401611c07565b03925af180156122d7576122ab575b50565b6122ca905f3d81116122d0575b6122c28183610c58565b810190611bf8565b5f6122a8565b503d6122b8565b611c2a565b611bee565b612302915060203d8111612308575b6122fa8183610c58565b81019061210c565b5f612250565b503d6122f0565b611c2a565b6123346123579261232f61232a60048590610aed565b610b1f565b612b2e565b6123498161234460048590610aed565b61140c565b61235281611d07565b611d24565b565b61236b90612365610cc5565b506101f2565b61237d6123775f6118fc565b916101ec565b141590565b6123a06123a591612391610ab5565b5061239a61181c565b90612bbb565b6101f2565b90565b5f90565b6123c06123bb6123c592610f7c565b6120db565b6120d2565b90565b6123dc6123d76123e1926115b8565b6120db565b6120d2565b90565b60409061240d612414949695939661240360608401985f85019061057b565b602083019061057b565b0190612175565b565b9190602091612423610f33565b5061242c6123a8565b505f146124da5761243d60016123c8565b925b6124865f61246661246161245c60016124566125e2565b016110f2565b6120ba565b6120c6565b9261249163694daf7291959761247a610182565b98899788968795611bf2565b8552600485016123e4565b03925af19081156124d5575f916124a7575b5090565b6124c8915060203d81116124ce575b6124c08183610c58565b81019061210c565b5f6124a3565b503d6124b6565b611c2a565b6124e35f6123ac565b9261243f565b906125209261251561250f61250961251b956125036111af565b506101f2565b936101f2565b916101f2565b91612967565b6101f2565b90565b61252f61253e916101f2565b61253830611cfb565b90612540565b565b61256261255d6125585f6125526125e2565b016110f2565b611bd6565b611be2565b916365d0509c919092803b156125dd5761258f5f809461259a612583610182565b97889687958694611bf2565b845260048401611c07565b03925af180156125d8576125ac575b50565b6125cb905f3d81116125d1575b6125c38183610c58565b810190611bf8565b5f6125a9565b503d6125b9565b611c2a565b611bee565b7fed8d60e34876f751cc8b014c560745351147d9de11b9347c854e881b128ea60090565b61260f81610364565b0361261657565b5f80fd5b9050519061262782612606565b565b906020828203126126425761263f915f0161261a565b90565b61018c565b90602090612653610cc5565b5061267661267161266c5f6126666125e2565b016110f2565b611bd6565b611be2565b612698635faa299a9492946126a361268c610182565b96879586948594611bf2565b845260048401611c07565b03915afa9081156126e7575f916126b9575b5090565b6126da915060203d81116126e0575b6126d28183610c58565b810190612629565b5f6126b5565b503d6126c8565b611c2a565b6020612746916126fa610f33565b5061271e612719612714600161270e6125e2565b016110f2565b6120ba565b6120c6565b61273b5f6313801ffa61272f610182565b96879586948593611bf2565b835260048301610588565b03925af190811561278a575f9161275c575b5090565b61277d915060203d8111612783575b6127758183610c58565b81019061210c565b5f612758565b503d61276b565b611c2a565b919060209161279c610f33565b506127a56123a8565b505f14612853576127b660016123c8565b925b6127ff5f6127df6127da6127d560016127cf6125e2565b016110f2565b6120ba565b6120c6565b9261280a63666a35889195976127f3610182565b98899788968795611bf2565b8552600485016123e4565b03925af190811561284e575f91612820575b5090565b612841915060203d8111612847575b6128398183610c58565b81019061210c565b5f61281c565b503d61282f565b611c2a565b61285c5f6123ac565b926127b8565b919060209161286f610f33565b506128786123a8565b505f146129265761288960016123c8565b925b6128d25f6128b26128ad6128a860016128a26125e2565b016110f2565b6120ba565b6120c6565b926128dd638c14cc219195976128c6610182565b98899788968795611bf2565b8552600485016123e4565b03925af1908115612921575f916128f3575b5090565b612914915060203d811161291a575b61290c8183610c58565b81019061210c565b5f6128ef565b503d612902565b611c2a565b61292f5f6123ac565b9261288b565b60409061295e612965949695939661295460608401985f85019061057b565b602083019061057b565b019061057b565b565b90602091612973610f33565b506129bb5f61299b612996612991600161298b6125e2565b016110f2565b6120ba565b6120c6565b926129c663cb3b94079195976129af610182565b98899788968795611bf2565b855260048501612935565b03925af1908115612a0a575f916129dc575b5090565b6129fd915060203d8111612a03575b6129f58183610c58565b81019061210c565b5f6129d8565b503d6129eb565b611c2a565b612a6c91612a6791612a1f610ab5565b50612a32612a2c82612359565b15610364565b612a91575b612a49612a4383612359565b15610364565b612a6f575b612a5a612a60916101f2565b916101f2565b5f91612c6a565b6101f2565b90565b9050612a60612a5a612a88612a835f6118fc565b612382565b92915050612a4e565b50612aa3612a9e5f6118fc565b612382565b612a37565b612abc612ab7612ac1926103c1565b6101ef565b6101ec565b90565b612b0b91612b0691612ad4610ab5565b50612ae7612ae182612359565b15610364565b612b0e575b612af8612afe916101f2565b91612aa8565b600191612c6a565b6101f2565b90565b50612afe612af8612b26612b215f6118fc565b612382565b915050612aec565b612b7591612b7091612b3e610ab5565b50612b51612b4b82612359565b15610364565b612b78575b612b62612b68916101f2565b91612aa8565b600191612862565b6101f2565b90565b50612b68612b62612b90612b8b5f6118fc565b612382565b915050612b56565b916020612bb9929493612bb260408201965f83019061057b565b0190612175565b565b90602090612bc7610f33565b50612beb612be6612be16001612bdb6125e2565b016110f2565b6120ba565b6120c6565b612c165f612bfe63e71746b896946120e1565b95612c21612c0a610182565b97889687958694611bf2565b845260048401612b98565b03925af1908115612c65575f91612c37575b5090565b612c58915060203d8111612c5e575b612c508183610c58565b81019061210c565b5f612c33565b503d612c46565b611c2a565b9190602091612c77610f33565b50612c806123a8565b505f14612d2e57612c9160016123c8565b925b612cda5f612cba612cb5612cb06001612caa6125e2565b016110f2565b6120ba565b6120c6565b92612ce563f953e427919597612cce610182565b98899788968795611bf2565b8552600485016123e4565b03925af1908115612d29575f91612cfb575b5090565b612d1c915060203d8111612d22575b612d148183610c58565b81019061210c565b5f612cf7565b503d612d0a565b611c2a565b612d375f6123ac565b92612c9356fea264697066735822122096cd666304b047dcecb5da8d431d38fb42c8b89da2b1fb463017f32e35bd30fd64736f6c634300081a0033","linkReferences":{"contracts/lib/IndexFundStateManagement.sol":{"IndexFundStateManagement":[{"start":17774,"length":20},{"start":18030,"length":20},{"start":19422,"length":20},{"start":19955,"length":20},{"start":21174,"length":20}]}}},"methodIdentifiers":{"DEFAULT_ADMIN_ROLE()":"a217fddf","burnShares(bytes32,bytes32,bytes)":"9134867c","burnSharesCallback(uint256,uint8,uint64,bool,bool)":"fcb74a45","finishMintShares(address)":"e61681ef","finishRedeemInStablecoinCase(address)":"3352a629","getIndexFundToken()":"75696e7f","getIndexTokens()":"38f250ec","getPendingStablecoinRedeemAmount()":"372df775","getRoleAdmin(bytes32)":"248a9ca3","getSharePrice()":"5b1dac60","getStablecoin()":"b6f67312","grantRole(bytes32,address)":"2f2ff15d","hasRole(bytes32,address)":"91d14854","initRedeemAfterBurn()":"b7064d99","mintShares(bytes32,bytes)":"35c995ec","mintSharesCallback(uint256,uint8,uint64)":"97771de5","renounceRole(bytes32,address)":"36568abe","revokeRole(bytes32,address)":"d547741f","sendFeesToProtocolOwner()":"05d7d94b","supportsInterface(bytes4)":"01ffc9a7","updateSharePrice()":"76b15015"},"id":0}