{"abi":[{"type":"constructor","inputs":[{"name":"_indexTokens","type":"address[]","internalType":"address[]"},{"name":"_stablecoin","type":"address","internalType":"address"},{"name":"_indexFundFactory","type":"address","internalType":"address"},{"name":"_indexFundToken","type":"address","internalType":"address"},{"name":"_marketDataFetcher","type":"address","internalType":"address"},{"name":"_swapsManagerProxy","type":"address","internalType":"address"},{"name":"_initialSharePrice","type":"uint256","internalType":"uint256"},{"name":"_poolKeys","type":"tuple[]","internalType":"struct PoolKey[]","components":[{"name":"currency0","type":"address","internalType":"Currency"},{"name":"currency1","type":"address","internalType":"Currency"},{"name":"fee","type":"uint24","internalType":"uint24"},{"name":"tickSpacing","type":"int24","internalType":"int24"},{"name":"hooks","type":"address","internalType":"contract IHooks"}]}],"stateMutability":"nonpayable"},{"type":"function","name":"DEFAULT_ADMIN_ROLE","inputs":[],"outputs":[{"name":"","type":"bytes32","internalType":"bytes32"}],"stateMutability":"view"},{"type":"function","name":"burnShares","inputs":[{"name":"encryptedAmount","type":"bytes32","internalType":"einput"},{"name":"encryptedRedeemIndexTokens","type":"bytes32","internalType":"einput"},{"name":"inputProof","type":"bytes","internalType":"bytes"}],"outputs":[],"stateMutability":"nonpayable"},{"type":"function","name":"burnSharesCallback","inputs":[{"name":"requestID","type":"uint256","internalType":"uint256"},{"name":"decryptedAmount","type":"uint64","internalType":"uint64"},{"name":"redeemIndexTokens","type":"bool","internalType":"bool"},{"name":"hasUserEnoughSharesToBurn","type":"bool","internalType":"bool"}],"outputs":[],"stateMutability":"nonpayable"},{"type":"function","name":"computeShareValue","inputs":[],"outputs":[{"name":"shareValue","type":"uint256","internalType":"uint256"}],"stateMutability":"view"},{"type":"function","name":"getIndexFundToken","inputs":[],"outputs":[{"name":"","type":"address","internalType":"contract IndexFundToken"}],"stateMutability":"view"},{"type":"function","name":"getIndexTokens","inputs":[],"outputs":[{"name":"","type":"address[]","internalType":"address[]"}],"stateMutability":"view"},{"type":"function","name":"getRoleAdmin","inputs":[{"name":"role","type":"bytes32","internalType":"bytes32"}],"outputs":[{"name":"","type":"bytes32","internalType":"bytes32"}],"stateMutability":"view"},{"type":"function","name":"getStablecoin","inputs":[],"outputs":[{"name":"","type":"address","internalType":"contract ConfidentialERC20WithTransparentErrorsWrapped"}],"stateMutability":"view"},{"type":"function","name":"grantRole","inputs":[{"name":"role","type":"bytes32","internalType":"bytes32"},{"name":"account","type":"address","internalType":"address"}],"outputs":[],"stateMutability":"nonpayable"},{"type":"function","name":"hasRole","inputs":[{"name":"role","type":"bytes32","internalType":"bytes32"},{"name":"account","type":"address","internalType":"address"}],"outputs":[{"name":"","type":"bool","internalType":"bool"}],"stateMutability":"view"},{"type":"function","name":"mintShares","inputs":[{"name":"encryptedAmount","type":"bytes32","internalType":"einput"},{"name":"inputProof","type":"bytes","internalType":"bytes"}],"outputs":[],"stateMutability":"nonpayable"},{"type":"function","name":"mintSharesCallback","inputs":[{"name":"requestID","type":"uint256","internalType":"uint256"},{"name":"decryptedAmount","type":"uint64","internalType":"uint64"}],"outputs":[],"stateMutability":"nonpayable"},{"type":"function","name":"renounceRole","inputs":[{"name":"role","type":"bytes32","internalType":"bytes32"},{"name":"callerConfirmation","type":"address","internalType":"address"}],"outputs":[],"stateMutability":"nonpayable"},{"type":"function","name":"revokeRole","inputs":[{"name":"role","type":"bytes32","internalType":"bytes32"},{"name":"account","type":"address","internalType":"address"}],"outputs":[],"stateMutability":"nonpayable"},{"type":"function","name":"sendFeesToProtocolOwner","inputs":[],"outputs":[],"stateMutability":"nonpayable"},{"type":"function","name":"supportsInterface","inputs":[{"name":"interfaceId","type":"bytes4","internalType":"bytes4"}],"outputs":[{"name":"","type":"bool","internalType":"bool"}],"stateMutability":"view"},{"type":"event","name":"BurnSwapsPerformed","inputs":[],"anonymous":false},{"type":"event","name":"FeeCollected","inputs":[{"name":"feeAmount","type":"uint256","indexed":true,"internalType":"uint256"}],"anonymous":false},{"type":"event","name":"IndexTokensRedeemed","inputs":[],"anonymous":false},{"type":"event","name":"MintSwapsPerformed","inputs":[],"anonymous":false},{"type":"event","name":"RoleAdminChanged","inputs":[{"name":"role","type":"bytes32","indexed":true,"internalType":"bytes32"},{"name":"previousAdminRole","type":"bytes32","indexed":true,"internalType":"bytes32"},{"name":"newAdminRole","type":"bytes32","indexed":true,"internalType":"bytes32"}],"anonymous":false},{"type":"event","name":"RoleGranted","inputs":[{"name":"role","type":"bytes32","indexed":true,"internalType":"bytes32"},{"name":"account","type":"address","indexed":true,"internalType":"address"},{"name":"sender","type":"address","indexed":true,"internalType":"address"}],"anonymous":false},{"type":"event","name":"RoleRevoked","inputs":[{"name":"role","type":"bytes32","indexed":true,"internalType":"bytes32"},{"name":"account","type":"address","indexed":true,"internalType":"address"},{"name":"sender","type":"address","indexed":true,"internalType":"address"}],"anonymous":false},{"type":"event","name":"SharesBurned","inputs":[{"name":"user","type":"address","indexed":true,"internalType":"address"},{"name":"amount","type":"uint256","indexed":true,"internalType":"uint256"}],"anonymous":false},{"type":"event","name":"SharesMinted","inputs":[{"name":"user","type":"address","indexed":true,"internalType":"address"},{"name":"amount","type":"uint256","indexed":true,"internalType":"uint256"}],"anonymous":false},{"type":"error","name":"AccessControlBadConfirmation","inputs":[]},{"type":"error","name":"AccessControlUnauthorizedAccount","inputs":[{"name":"account","type":"address","internalType":"address"},{"name":"neededRole","type":"bytes32","internalType":"bytes32"}]},{"type":"error","name":"AmountToSwapTooBig","inputs":[{"name":"amountToSwap","type":"uint256","internalType":"uint256"}]},{"type":"error","name":"InsufficientAllowance","inputs":[{"name":"token","type":"address","internalType":"address"}]},{"type":"error","name":"NotEnoughSharesToBurn","inputs":[{"name":"user","type":"address","internalType":"address"},{"name":"amountToBurn","type":"uint256","internalType":"uint256"}]},{"type":"error","name":"ReentrancyGuardReentrantCall","inputs":[]},{"type":"error","name":"SharesToBurnAmountTooBig","inputs":[{"name":"amountToBurn","type":"uint256","internalType":"uint256"}]},{"type":"error","name":"SharesToMintAmountTooBig","inputs":[{"name":"amountToMint","type":"uint256","internalType":"uint256"}]},{"type":"error","name":"TransferFailed","inputs":[]}],"bytecode":{"object":"0x61014080604052346105e357612fba803803809161001d8285610727565b8339810190610100818303126105e35780516001600160401b0381116105e35781019082601f830112156105e3578151906100578261074a565b926100656040519485610727565b828452602084016020819460051b830101918683116105e357602001905b8282106106f45750505061009960208201610761565b916100a660408301610761565b926100b360608401610761565b6100bf60808501610761565b916100cc60a08601610761565b60c086015160e087015190969195916001600160401b0382116105e357019789601f8a0112156105e3578851996101028b61074a565b996101106040519b8c610727565b8b8b5260208b0191602060a0849e02830101918183116105e357602001925b82841061065b5750505050600180555f606060405161014d8161070c565b8281528260208201528260408201520152739d6891a6240d6130c54ae243d8005063d05fe14b60606040516101818161070c565b73fee8407e2f5e3ee68ad77cae98c434e637f516e580825273687408ab54661ba0b4aef3a44156c616c6955e076020830181905273fb03be574d14c256d56f09a198b586bdfc0a9de26040840181905293909201939093527fed8d60e34876f751cc8b014c560745351147d9de11b9347c854e881b128ea60080546001600160a01b031990811690941790557fed8d60e34876f751cc8b014c560745351147d9de11b9347c854e881b128ea6018054841690911790557fed8d60e34876f751cc8b014c560745351147d9de11b9347c854e881b128ea6028054831690911790557fed8d60e34876f751cc8b014c560745351147d9de11b9347c854e881b128ea60380548216739d6891a6240d6130c54ae243d8005063d05fe14b1790557f93ab6e17f2c461cce6ea5d4ec117e51dda77a64affc2b2c05f8cd440def0e70080549091167333347831500f1e73f0cccbb95c9f86b94d7b112317905551906001600160401b03821161059d5768010000000000000000821161059d57600c5482600c55808310610617575b50600c5f5260205f205f5b8381106105fa578b8b600460208d8d8d8d8d8d60018060a01b0316610100528460e05260018060a01b031660805260018060a01b031660a05260c052600e5560405192838092638da5cb5b60e01b825260018060a01b03165afa9081156105ef575f916105b1575b50601080546001600160a01b0319166001600160a01b0392909216919091179055519068010000000000000000821161059d57600d5482600d5580831061051d575b5090600d5f5260205f205f925b828410610484576040516128449081610776823960805181818161016901528181610bfc0152818161149c015281816119100152611961015260a0518181816103e301528181610a3201528181610d880152611985015260c05181818161051001528181610ea20152818161107001526110c7015260e05181610a870152610100518181816106040152818161095e015281816109b701528181610e6c015281816112d10152611d4d015261012051816120890152f35b8051805183546001600160a01b039182166001600160a01b0319918216178555602080840151600180880180546040880151606089015160b81b62ffffff60b81b1662ffffff60a01b60a09290921b919091169488166001600160d01b031990921691909117939093179290921790915560809094015160028701805491909416921691909117909155940193600390920191016103cd565b80600302906003820403610589578260030260038104840361058957600d5f527fd7b6990105719101dabeb77144f2a3385c8033acd3af97e9423a695e81ad1eb591820191015b81811061057157506103c0565b805f600392555f60018201555f600282015501610564565b634e487b7160e01b5f52601160045260245ffd5b634e487b7160e01b5f52604160045260245ffd5b90506020813d6020116105e7575b816105cc60209383610727565b810103126105e3576105dd90610761565b8361037e565b5f80fd5b3d91506105bf565b6040513d5f823e3d90fd5b82516001600160a01b031681830155602090920191600101610316565b600c5f527fdf6966c971051c3d54ec59162606531493a51404a002842f56009d7e5cf4a8c79081019083015b818110610650575061030b565b5f8155600101610643565b60a0848303126105e3576040519060a082016001600160401b0381118382101761059d5760405261068b85610761565b825261069960208601610761565b6020830152604085015162ffffff811681036105e357604083015260608501518060020b81036105e35760608301526080850151906001600160a01b03821682036105e35782602092608060a095015281520193019261012f565b6020809161070184610761565b815201910190610083565b608081019081106001600160401b0382111761059d57604052565b601f909101601f19168101906001600160401b0382119082101761059d57604052565b6001600160401b03811161059d5760051b60200190565b51906001600160a01b03821682036105e35756fe6080806040526004361015610012575f80fd5b5f905f3560e01c90816301ffc9a7146121775750806305d7d94b1461201c578063248a9ca314611fea5780632f2ff15d14611fb957806335c995ec14611cdd57806336568abe14611ca457806338f250ec14611bda5780634148fc4f1461193f57806375696e7f146118fa5780639134867c1461135857806391d148541461131c578063a217fddf14611300578063b6f67312146112bb578063b7c04c79146108e8578063d547741f146108af5763eb53b056146100ce575f80fd5b346108ac5760803660031901126108ac576100e761221d565b60443580151581036108a857606435908115918215036108a457610109612429565b5f805160206127cf833981519152546001600160a01b031633036108a4576004358452600960205261014761014e6040862060405192838092612346565b0382612233565b6001600160a01b039061016090612304565b511691610883577f00000000000000000000000000000000000000000000000000000000000000006001600160a01b03169184833b1561087f57856001600160401b0360405196634edf56a160e11b885216958660048201528181602481838a5af180156106ca5761086a575b505084337fdb79cc492679ef2624944d6ed3cdbad5b974b5550de330ae18922f2944eec78a8880a385805b600c548110156108625761020b81612386565b905460039190911b1c6001600160a01b0316801561081a576040516370a0823160e01b8152306004820152602081602481855afa801561080f57899185916107d5575b50906102599161239e565b6040516318160ddd60e01b8152906020826004818c5afa9182156107ca57610293926001600160401b0391879161079c575b5016906123bf565b861561033157906044602092604051958693849263a9059cbb60e01b84528a600485015260248401525af1918215610326576001926102fa575b507ee2d681c483528119b71f74ebcd6ad9dd9ca7fd71ea2245aa2362e27d3f2eb68880a15b0186906101f8565b61031a9060203d811161031f575b6103128183612233565b810190612268565b6102cd565b503d610308565b6040513d8a823e3d90fd5b91809493506103409150612386565b60018060a01b0391549060031b1c1660125461ff0061036460ff8360081c166123fc565b60081b169061ff00191617601255808952601460205260408920610389838254612339565b9055601254600260ff8260081c16146103a9575b505050906001906102f2565b61ff0019166012558089526014602052604089205491816107365760125b604051630681320d60e51b8152600481018490526020816024817f00000000000000000000000000000000000000000000000000000000000000006001600160a01b03165afa90811561072b578c916106fa575b506009810290808204600914901517156106d55790610449600a6104428761044f9561239e565b04916123b1565b906123bf565b926001600160801b0381116106e957506104688561240d565b5092603c4201918242116106d5578b949392916001600160801b03809260405196630abff6dd60e11b885260018060a01b038154166004890152600181015460018060a01b03811660248a015262ffffff8160a01c1660448a015260b81c60020b6064890152600260018060a01b039101541660848801521660a48601521660c484015260e48301526001610104830152610124820152602081610144818560018060a01b037f0000000000000000000000000000000000000000000000000000000000000000165af19081156106ca578291610694575b5061054b9192612339565b917f875fc5b1c93e96a85172e0d2b74fcdb6f314c3460e99e6a7da8743bc8b75e37c8280a18261057f575b91905f8061039d565b5f805160206127ef83398151915254604051631ce2e8d760e31b815260048101859052600560f81b60248201529260209184916044918391906001600160a01b03165af191821561032657889261065c575b506040516323b872dd60e01b815230600482015233602482015260448101929092526020826064818b6001600160a01b037f0000000000000000000000000000000000000000000000000000000000000000165af19182156103265760019261063e575b50879150610576565b6106559060203d811161031f576103128183612233565b505f610635565b91506020823d821161068c575b8161067660209383612233565b810103126106885790519060206105d1565b5f80fd5b3d9150610669565b9150506020813d82116106c2575b816106af60209383612233565b810103126106885751879061054b610540565b3d91506106a2565b6040513d84823e3d90fd5b634e487b7160e01b8c52601160045260248cfd5b628af7f560e11b8b5260045260248afd5b90506020813d8211610723575b8161071460209383612233565b8101031261068857515f61041b565b3d9150610707565b6040513d8e823e3d90fd5b60405163313ce56760e01b8152602081600481865afa80156107915760ff918c91610763575b50166103c7565b610784915060203d811161078a575b61077c8183612233565b8101906122d4565b5f61075c565b503d610772565b6040513d8d823e3d90fd5b6107bd915060203d81116107c3575b6107b58183612233565b8101906123dd565b5f61028b565b503d6107ab565b6040513d87823e3d90fd5b945050506020833d8211610807575b816107f160209383612233565b8101031261068857610259888a9451909161024e565b3d91506107e4565b6040513d86823e3d90fd5b610824884761239e565b6040516318160ddd60e01b8152906020826004818c5afa9182156107ca5761085d926001600160401b0391879161079c575016906123bf565b610293565b506001805580f35b8161087491612233565b61087f57855f6101cd565b8580fd5b63793fd43160e01b845260048290526001600160401b038316602452604484fd5b8380fd5b8280fd5b80fd5b50346108ac576108e46108c1366121ca565b906108df6108da825f525f602052600160405f20015490565b612449565b612591565b5080f35b50346108ac5760403660031901126108ac5761090261221d565b61090a612429565b5f805160206127cf833981519152546001600160a01b03163303610c9b57600435825260096020526101476109486040842060405192838092612346565b6001600160a01b039061095a90612304565b51167f00000000000000000000000000000000000000000000000000000000000000006001600160a01b03163b156108a85760405163dc412e8360e01b81526001600160401b0392909216600483018190529183908181602481837f00000000000000000000000000000000000000000000000000000000000000006001600160a01b03165af180156106ca576112a6575b505060405190630a7c1bd560e21b82526024820160206004840152600c54809152848360448101600c83526020832093835b8181106112815750929350909150819003817f00000000000000000000000000000000000000000000000000000000000000006001600160a01b03165afa91821561080f57849085936111de575b50600f819055604051634d1b7c9960e11b81526020816004817f00000000000000000000000000000000000000000000000000000000000000006001600160a01b03165afa8015610f085786906111aa575b610ac99150856123bf565b610ad581601154612339565b601155807fc472cb3a7a659a876494d66b3063145f279701771d6150b9329c31611ed6405c8780a28403938411611196578251600c54810361111f5790835193610b1e856122ed565b94610b2c6040519687612233565b808652610b3b601f19916122ed565b0136602087013786916201518042019165ffffffffffff8342119316935b8581106110135750505050505060125460ff610b768183166123fc565b169060ff191617601255835b600c54811015610bcf5780610b9960019285612325565b51610ba382612386565b848060a01b0391549060031b1c1687526013602052610bc760408820918254612339565b905501610b82565b848285601254600260ff821614610c9f575b50610bf76001600160401b0391600e54906123bf565b1690827f00000000000000000000000000000000000000000000000000000000000000006001600160a01b0316803b15610c9b578180916044604051809481936302893c5b60e41b83528860048401528960248401525af180156106ca57610c86575b50807f6332ddaa8a69b5eb2524ec7ca317b7c2b01ecf678d584031415f81270977b8fc91a36001805580f35b81610c9091612233565b6108a8578284610c5a565b5080fd5b60ff19166012559042603c81011090835b600c54811015610fd857610cc381612386565b905460039190911b1c6001600160a01b031690610cdf8161240d565b506040519260a084018481106001600160401b03821117610fc45760405260018060a01b038254168452600182015491602085019260018060a01b0381168452604086019162ffffff8260a01c168352606087019160b81c60020b8252600260018060a01b03910154169160808701928352838b52601360205260408b20549380155f14610f76576012905b604051630681320d60e51b815260048101919091526020816024817f00000000000000000000000000000000000000000000000000000000000000006001600160a01b03165afa908115610f6b578d91610f3a575b50600981029080820460091490151715610f265790610449600a61044288610de79561239e565b946001600160801b038511610f1357896106d557604051630abff6dd60e11b815297516001600160a01b0390811660048a0152905181166024890152905162ffffff166044880152905160020b60648701529051811660848601526001600160801b0391821660a4860152911660c484015242603c0160e484015260016101048401527f0000000000000000000000000000000000000000000000000000000000000000811661012484015260209083906101449082908a907f0000000000000000000000000000000000000000000000000000000000000000165af1918215610f0857600192610eda575b5001610cb0565b610efa9060203d8111610f01575b610ef28183612233565b8101906122c5565b5086610ed3565b503d610ee8565b6040513d88823e3d90fd5b628af7f560e11b8c52600485905260248cfd5b634e487b7160e01b8d52601160045260248dfd5b90506020813d8211610f63575b81610f5460209383612233565b8101031261068857518d610dc0565b3d9150610f47565b6040513d8f823e3d90fd5b60405163313ce56760e01b81528c90602081600481865afa9081156106ca5760ff9291610fa6575b501690610d6b565b610fbe915060203d811161078a5761077c8183612233565b8e610f9e565b634e487b7160e01b89526041600452602489fd5b50916001600160401b039150610bf7907f79154593ad5827af96f232d8b081e8d48c8bad62e5314fd67880b9880b4812408580a19150610be1565b6110308361102b6110248486612325565b518c61239e565b6123bf565b61103a828a612325565b5261104481612386565b90546001600160a01b0360039290921b1c8116908590611064848c612325565b5116906106d5578b91907f00000000000000000000000000000000000000000000000000000000000000006001600160a01b03163b156108a85760405163267b14bd60e01b815260048101929092526024820152604481018790528181606481837f00000000000000000000000000000000000000000000000000000000000000006001600160a01b03165af180156106ca57611106575b5050600101610b59565b8161111091612233565b61111b57895f6110fc565b8980fd5b60405162461bcd60e51b815260206004820152604360248201527f446973726570616e6379206265747765656e206e756d626572206f66206d617260448201527f6b6574206361707320616e64206e756d626572206f6620696e64657820746f6b606482015262656e7360e81b608482015260a490fd5b634e487b7160e01b85526011600452602485fd5b506020813d6020116111d6575b816111c460209383612233565b8101031261068857610ac99051610abe565b3d91506111b7565b9250503d8085843e6111f08184612233565b82019160408184031261127d578051906020810151906001600160401b03821161127957019280601f8501121561087f57835161122c816122ed565b9461123a6040519687612233565b81865260208087019260051b82010192831161127557602001905b828210611265575050505f610a6c565b8151815260209182019101611255565b8780fd5b8680fd5b8480fd5b85546001600160a01b031683526001958601958a955088945060209093019201610a1e565b816112b091612233565b6108a857825f6109ec565b50346108ac57806003193601126108ac576040517f00000000000000000000000000000000000000000000000000000000000000006001600160a01b03168152602090f35b50346108ac57806003193601126108ac57602090604051908152f35b50346108ac57604061132d366121ca565b9290815280602052209060018060a01b03165f52602052602060ff60405f2054166040519015158152f35b50346108ac5760603660031901126108ac576044356001600160401b038111610c9b5760a46020806113916113b99436906004016121f0565b949061139b612429565b6113b16113a9368884612280565b600435612611565b953691612280565b60018060a01b035f805160206127ef833981519152541690866040519586809581946302e817ff60e41b83526024356004840152336024840152608060448401528051918291826084860152018484015e83838284010152836064830152601f801991011681010301925af19081156118ef5783916118bd575b505f805160206127af8339815191525483906001600160a01b0316803b15610c9b578180916044604051809481936346ce4e4960e11b83528860048401523360248401525af180156106ca576118a8575b50506040516370a0823160e01b8152336004820152907f00000000000000000000000000000000000000000000000000000000000000006001600160a01b0316602083602481845afa9283156107ca578593611874575b508284938515611864575b15611852575b602090606460018060a01b035f805160206127ef8339815191525416958860405197889485936334a6d7b960e11b8552600485015260248401528160448401525af19283156107ca57859361181e575b506040516323b872dd60e01b81523360048201523060248201526044810185905260208160648189865af18015610f0857611801575b50604051630cf4e94560e31b8152602081600481855afa908115610f085786916117cf575b505f1981019081116117bb5760209060246040518094819363a5184baf60e01b835260048301525afa80156107ca5760ff91869161179c575b501661178d57604051926115e5608085612233565b6003845260603660208601376115fa84612304565b528251600110156117795760408301528151600210156117655760608201526064420190814211611751575f805160206127af8339815191525483906001600160a01b0316803b15610c9b5781604051809263155f840160e21b82526020600483015281838161166d602482018a612509565b03925af180156106ca5761173c575b50505f805160206127cf83398151915254604051634c0d927760e01b815260a060048201529260209284926001600160a01b0316918391879183916116c59060a4840190612509565b906375a9d82b60e11b6024840152836044840152606483015282608483015203925af180156106ca578290611708575b6117019150339061253c565b6001805580f35b506020813d602011611734575b8161172260209383612233565b810103126106885761170190516116f5565b3d9150611715565b8161174691612233565b6108a857825f61167c565b634e487b7160e01b83526011600452602483fd5b634e487b7160e01b83526032600452602483fd5b634e487b7160e01b84526032600452602484fd5b6312171d8360e31b8452600484fd5b6117b5915060203d60201161078a5761077c8183612233565b5f6115d0565b634e487b7160e01b86526011600452602486fd5b90506020813d6020116117f9575b816117ea60209383612233565b8101031261068857515f611597565b3d91506117dd565b6118199060203d60201161031f576103128183612233565b611572565b9092506020813d60201161184a575b8161183a60209383612233565b810103126106885751915f61153c565b3d915061182d565b50602061185d612729565b90506114ec565b935061186e612729565b936114e6565b9092506020813d6020116118a0575b8161189060209383612233565b8101031261127d5751915f6114db565b3d9150611883565b816118b291612233565b6108a857825f611484565b90506020813d6020116118e7575b816118d860209383612233565b8101031261068857515f611433565b3d91506118cb565b6040513d85823e3d90fd5b50346108ac57806003193601126108ac576040517f00000000000000000000000000000000000000000000000000000000000000006001600160a01b03168152602090f35b50346108ac57806003193601126108ac57600c54819081906001600160a01b037f00000000000000000000000000000000000000000000000000000000000000008116907f000000000000000000000000000000000000000000000000000000000000000016835b8385106119b957602086604051908152f35b9091929394506119c885612386565b9054604051630681320d60e51b815260039290921b1c6001600160a01b0316600482015290602082602481865afa8015611af2578790611ba8575b602492506020611a1288612386565b90546040516370a0823160e01b81523060048201529586929091839160031b1c6001600160a01b03165afa928315610326578893611b75575b5087611a5688612386565b905460039190911b1c6001600160a01b0316611afd5750611a8990610449611a83611a8f9560129361239e565b916123b1565b90612339565b6040516318160ddd60e01b8152602081600481875afa8015611af2576001600160401b03611ac9916001938a91611ad4575b5016836123bf565b9501939291906119a7565b611aec915060203d81116107c3576107b58183612233565b5f611ac1565b6040513d89823e3d90fd5b9060046020611b0b8a612386565b905460405163313ce56760e01b81529384929091839160031b1c6001600160a01b03165afa9081156118ef57611a8f9560ff61044993611a8393611a899791611b57575b50169361239e565b611b6f915060203d811161078a5761077c8183612233565b5f611b4f565b9092506020813d8211611ba0575b81611b9060209383612233565b810103126106885751915f611a4b565b3d9150611b83565b506020823d8211611bd2575b81611bc160209383612233565b810103126106885760249151611a03565b3d9150611bb4565b50346108ac57806003193601126108ac57604051600c8054808352908352602082019081907fdf6966c971051c3d54ec59162606531493a51404a002842f56009d7e5cf4a8c790855b818110611c85575050508281611c3b92500383612233565b604051928392602084019060208552518091526040840192915b818110611c63575050500390f35b82516001600160a01b0316845285945060209384019390920191600101611c55565b82546001600160a01b0316845260209093019260019283019201611c23565b50346108ac57611cb3366121ca565b90336001600160a01b03831603611cce57906108e491612591565b63334bd91960e11b8352600483fd5b5034610688576040366003190112610688576024356001600160401b038111610688576113a9611d14611d239236906004016121f0565b611d1c612429565b3691612280565b6040516323b872dd60e01b8152336004820152306024820152604481018290526001600160a01b037f000000000000000000000000000000000000000000000000000000000000000016906020816064815f865af18015611f5f57611f9c575b50604051630cf4e94560e31b8152602081600481855afa908115611f5f575f91611f6a575b505f198101908111611f1d5760209060246040518094819363a5184baf60e01b835260048301525afa8015611f5f5760ff915f91611f40575b5016611f31576040805191611df68284612233565b60018352601f198201366020850137611e0e83612304565b526064420191824211611f1d575f805160206127af833981519152546001600160a01b0316803b15610688575f8351809263155f840160e21b825260206004830152818381611e606024820189612509565b03925af18015611f1357611efc575b505f805160206127cf833981519152548251634c0d927760e01b815260a060048201529360209285926001600160a01b031691839188918391611eb69060a4840190612509565b9063b7c04c7960e01b6024840152836044840152606483015282608483015203925af1908115611ef357508290611708576117019150339061253c565b513d84823e3d90fd5b611f099194505f90612233565b5f92611eb6611e6f565b83513d5f823e3d90fd5b634e487b7160e01b5f52601160045260245ffd5b6312171d8360e31b5f5260045ffd5b611f59915060203d60201161078a5761077c8183612233565b5f611de1565b6040513d5f823e3d90fd5b90506020813d602011611f94575b81611f8560209383612233565b8101031261068857515f611da8565b3d9150611f78565b611fb49060203d60201161031f576103128183612233565b611d83565b3461068857611fe8611fca366121ca565b90611fe36108da825f525f602052600160405f20015490565b612481565b005b346106885760203660031901126106885760206120146004355f525f602052600160405f20015490565b604051908152f35b34610688575f366003190112610688576010546001600160a01b0316330361211b57612046612429565b601154156120e4575f601181905560105460405163a9059cbb60e01b81526001600160a01b039182166004820152602481018390529160209183916044918391907f0000000000000000000000000000000000000000000000000000000000000000165af1908115611f5f575f916120c5575b5015611f315760018055005b6120de915060203d60201161031f576103128183612233565b816120b9565b60405162461bcd60e51b815260206004820152600f60248201526e139bc81999595cc81d1bc81cd95b99608a1b6044820152606490fd5b60405162461bcd60e51b815260206004820152602e60248201527f4f6e6c79207468652070726f746f636f6c206f776e65722063616e2063616c6c60448201526d103a3434b990333ab731ba34b7b760911b6064820152608490fd5b34610688576020366003190112610688576004359063ffffffff60e01b821680920361068857602091637965db0b60e01b81149081156121b9575b5015158152f35b6301ffc9a760e01b149050836121b2565b604090600319011261068857600435906024356001600160a01b03811681036106885790565b9181601f84011215610688578235916001600160401b038311610688576020838186019501011161068857565b602435906001600160401b038216820361068857565b90601f801991011681019081106001600160401b0382111761225457604052565b634e487b7160e01b5f52604160045260245ffd5b90816020910312610688575180151581036106885790565b9291926001600160401b03821161225457604051916122a9601f8201601f191660200184612233565b829481845281830111610688578281602093845f960137010152565b90816020910312610688575190565b90816020910312610688575160ff811681036106885790565b6001600160401b0381116122545760051b60200190565b8051156123115760200190565b634e487b7160e01b5f52603260045260245ffd5b80518210156123115760209160051b010190565b91908201809211611f1d57565b90602082549182815201915f5260205f20905f5b8181106123675750505090565b82546001600160a01b031684526020909301926001928301920161235a565b600c5481101561231157600c5f5260205f2001905f90565b81810292918115918404141715611f1d57565b604d8111611f1d57600a0a90565b81156123c9570490565b634e487b7160e01b5f52601260045260245ffd5b9081602091031261068857516001600160401b03811681036106885790565b60ff1660ff8114611f1d5760010190565b600d5481101561231157600d5f52600360205f20910201905f90565b60026001541461243a576002600155565b633ee5aeb560e01b5f5260045ffd5b5f8181526020818152604080832033845290915290205460ff161561246b5750565b63e2517d3f60e01b5f523360045260245260445ffd5b5f818152602081815260408083206001600160a01b038616845290915290205460ff16612503575f818152602081815260408083206001600160a01b0395909516808452949091528120805460ff19166001179055339291907f2f8788117e7eff1d82e926ec794901d17c78024a50270940304540a733656f0d9080a4600190565b50505f90565b90602080835192838152019201905f5b8181106125265750505090565b8251845260209384019390920191600101612519565b5f52600960205260405f20805490680100000000000000008210156122545760018201808255821015612311575f5260205f20019060018060a01b03166bffffffffffffffffffffffff60a01b825416179055565b5f818152602081815260408083206001600160a01b038616845290915290205460ff1615612503575f818152602081815260408083206001600160a01b0395909516808452949091528120805460ff19169055339291907ff6391f5c32d9c69d2a47ea670b442974b53935d1edc7fd64eb21e047a839171b9080a4600190565b6020929183915f805160206127ef83398151915254905f60a46040518098819682956302e817ff60e41b84526004840152336024840152608060448401528051918291826084860152018484015e8181018301849052600560f81b6064830152601f01601f191681010301926001600160a01b03165af1918215611f5f575f926126f5575b505f805160206127af833981519152546001600160a01b031682813b15610688575f916044839260405194859384926346ce4e4960e11b845260048401523360248401525af18015611f5f576126e95750565b5f6126f391612233565b565b9091506020813d602011612721575b8161271160209383612233565b810103126106885751905f612696565b3d9150612704565b5f805160206127ef83398151915254604051631ce2e8d760e31b81525f60048201819052600560f81b60248301529091602091839160449183916001600160a01b03165af1908115611f5f575f9161277f575090565b90506020813d6020116127a6575b8161279a60209383612233565b81010312610688575190565b3d915061278d56feed8d60e34876f751cc8b014c560745351147d9de11b9347c854e881b128ea60093ab6e17f2c461cce6ea5d4ec117e51dda77a64affc2b2c05f8cd440def0e700ed8d60e34876f751cc8b014c560745351147d9de11b9347c854e881b128ea601a264697066735822122069963bb170c869b2d680a9162ea2d2586b07c55ab782c7328811475d4e6472aa64736f6c634300081a0033","linkReferences":{}},"methodIdentifiers":{"DEFAULT_ADMIN_ROLE()":"a217fddf","burnShares(bytes32,bytes32,bytes)":"9134867c","burnSharesCallback(uint256,uint64,bool,bool)":"eb53b056","computeShareValue()":"4148fc4f","getIndexFundToken()":"75696e7f","getIndexTokens()":"38f250ec","getRoleAdmin(bytes32)":"248a9ca3","getStablecoin()":"b6f67312","grantRole(bytes32,address)":"2f2ff15d","hasRole(bytes32,address)":"91d14854","mintShares(bytes32,bytes)":"35c995ec","mintSharesCallback(uint256,uint64)":"b7c04c79","renounceRole(bytes32,address)":"36568abe","revokeRole(bytes32,address)":"d547741f","sendFeesToProtocolOwner()":"05d7d94b","supportsInterface(bytes4)":"01ffc9a7"},"id":0}