{"abi":[{"type":"function","name":"approveTokenWithPermit2","inputs":[{"name":"","type":"address","internalType":"address"},{"name":"","type":"uint160","internalType":"uint160"},{"name":"","type":"uint48","internalType":"uint48"}],"outputs":[],"stateMutability":"nonpayable"},{"type":"function","name":"nextAmountOut","inputs":[],"outputs":[{"name":"","type":"uint256","internalType":"uint256"}],"stateMutability":"view"},{"type":"function","name":"setNextAmountOut","inputs":[{"name":"a","type":"uint256","internalType":"uint256"}],"outputs":[],"stateMutability":"nonpayable"},{"type":"function","name":"swap","inputs":[{"name":"","type":"tuple","internalType":"struct PoolKey","components":[{"name":"currency0","type":"address","internalType":"Currency"},{"name":"currency1","type":"address","internalType":"Currency"},{"name":"fee","type":"uint24","internalType":"uint24"},{"name":"tickSpacing","type":"int24","internalType":"int24"},{"name":"hooks","type":"address","internalType":"contract IHooks"}]},{"name":"","type":"uint128","internalType":"uint128"},{"name":"","type":"uint128","internalType":"uint128"},{"name":"","type":"uint256","internalType":"uint256"},{"name":"","type":"bool","internalType":"bool"},{"name":"","type":"address","internalType":"address"}],"outputs":[{"name":"amountOut","type":"uint256","internalType":"uint256"}],"stateMutability":"view"}],"bytecode":{"object":"0x608060405234601c57600e6020565b61048161002b823961048190f35b6026565b60405190565b5f80fdfe60806040526004361015610013575b610399565b61001d5f3561005c565b8063157fedba14610057578063267b14bd146100525780634c0169e21461004d57635252f0ed0361000e57610364565b6102e8565b61029c565b6101d0565b60e01c90565b60405190565b5f80fd5b5f80fd5b5f80fd5b908160a09103126100825790565b610070565b6fffffffffffffffffffffffffffffffff1690565b6100a581610087565b036100ac57565b5f80fd5b905035906100bd8261009c565b565b90565b6100cb816100bf565b036100d257565b5f80fd5b905035906100e3826100c2565b565b151590565b6100f3816100e5565b036100fa57565b5f80fd5b9050359061010b826100ea565b565b60018060a01b031690565b6101219061010d565b90565b61012d81610118565b0361013457565b5f80fd5b9050359061014582610124565b565b9091610140828403126101a957610160835f8401610074565b9261016e8160a085016100b0565b9261017c8260c083016100b0565b926101a661018d8460e085016100d6565b9361019c8161010086016100fe565b9361012001610138565b90565b61006c565b6101b7906100bf565b9052565b91906101ce905f602085019401906101ae565b565b34610207576102036101f26101e6366004610147565b949390939291926103c7565b6101fa610062565b918291826101bb565b0390f35b610068565b6102158161010d565b0361021c57565b5f80fd5b9050359061022d8261020c565b565b65ffffffffffff1690565b6102438161022f565b0361024a57565b5f80fd5b9050359061025b8261023a565b565b90916060828403126102925761028f610278845f8501610138565b936102868160208601610220565b9360400161024e565b90565b61006c565b5f0190565b346102c5576102ac36600461025d565b5050506102b7610062565b806102c181610297565b0390f35b610068565b906020828203126102e3576102e0915f016100d6565b90565b61006c565b34610316576103006102fb3660046102ca565b61043f565b610308610062565b8061031281610297565b0390f35b610068565b5f91031261032557565b61006c565b1c90565b90565b610341906008610346930261032a565b61032e565b90565b906103549154610331565b90565b6103615f80610349565b90565b346103945761037436600461031b565b61039061037f610357565b610387610062565b918291826101bb565b0390f35b610068565b5f80fd5b5f90565b5f1c90565b6103b26103b7916103a1565b61032e565b90565b6103c490546103a6565b90565b5050505050506103d561039d565b506103df5f6103ba565b90565b5f1b90565b906103f35f19916103e2565b9181191691161790565b90565b61041461040f610419926100bf565b6103fd565b6100bf565b90565b90565b9061043461042f61043b92610400565b61041c565b82546103e7565b9055565b610449905f61041f565b56fea2646970667358221220966d71a709c57f7a1c89f61e20ee88cccfcfc6479f8fd85b7be2f36b0a26d3ae64736f6c634300081a0033","linkReferences":{}},"methodIdentifiers":{"approveTokenWithPermit2(address,uint160,uint48)":"267b14bd","nextAmountOut()":"5252f0ed","setNextAmountOut(uint256)":"4c0169e2","swap((address,address,uint24,int24,address),uint128,uint128,uint256,bool,address)":"157fedba"},"id":16}