{"abi":[{"type":"function","name":"UPGRADE_INTERFACE_VERSION","inputs":[],"outputs":[{"name":"","type":"string","internalType":"string"}],"stateMutability":"view"},{"type":"function","name":"approveTokenWithPermit2","inputs":[{"name":"token","type":"address","internalType":"address"},{"name":"amount","type":"uint160","internalType":"uint160"},{"name":"expiration","type":"uint48","internalType":"uint48"}],"outputs":[],"stateMutability":"nonpayable"},{"type":"function","name":"initialize","inputs":[{"name":"_router","type":"address","internalType":"address"},{"name":"_permit2","type":"address","internalType":"address"}],"outputs":[],"stateMutability":"nonpayable"},{"type":"function","name":"owner","inputs":[],"outputs":[{"name":"","type":"address","internalType":"address"}],"stateMutability":"view"},{"type":"function","name":"permit2","inputs":[],"outputs":[{"name":"","type":"address","internalType":"contract IPermit2"}],"stateMutability":"view"},{"type":"function","name":"proxiableUUID","inputs":[],"outputs":[{"name":"","type":"bytes32","internalType":"bytes32"}],"stateMutability":"view"},{"type":"function","name":"renounceOwnership","inputs":[],"outputs":[],"stateMutability":"nonpayable"},{"type":"function","name":"router","inputs":[],"outputs":[{"name":"","type":"address","internalType":"contract UniversalRouter"}],"stateMutability":"view"},{"type":"function","name":"swap","inputs":[{"name":"key","type":"tuple","internalType":"struct PoolKey","components":[{"name":"currency0","type":"address","internalType":"Currency"},{"name":"currency1","type":"address","internalType":"Currency"},{"name":"fee","type":"uint24","internalType":"uint24"},{"name":"tickSpacing","type":"int24","internalType":"int24"},{"name":"hooks","type":"address","internalType":"contract IHooks"}]},{"name":"amountIn","type":"uint128","internalType":"uint128"},{"name":"minAmountOut","type":"uint128","internalType":"uint128"},{"name":"deadline","type":"uint256","internalType":"uint256"},{"name":"stablecoinForToken","type":"bool","internalType":"bool"},{"name":"stablecoinAddress","type":"address","internalType":"address"}],"outputs":[{"name":"amountOut","type":"uint256","internalType":"uint256"}],"stateMutability":"payable"},{"type":"function","name":"transferOwnership","inputs":[{"name":"newOwner","type":"address","internalType":"address"}],"outputs":[],"stateMutability":"nonpayable"},{"type":"function","name":"upgradeToAndCall","inputs":[{"name":"newImplementation","type":"address","internalType":"address"},{"name":"data","type":"bytes","internalType":"bytes"}],"outputs":[],"stateMutability":"payable"},{"type":"event","name":"Initialized","inputs":[{"name":"version","type":"uint64","indexed":false,"internalType":"uint64"}],"anonymous":false},{"type":"event","name":"OwnershipTransferred","inputs":[{"name":"previousOwner","type":"address","indexed":true,"internalType":"address"},{"name":"newOwner","type":"address","indexed":true,"internalType":"address"}],"anonymous":false},{"type":"event","name":"Upgraded","inputs":[{"name":"implementation","type":"address","indexed":true,"internalType":"address"}],"anonymous":false},{"type":"error","name":"AddressEmptyCode","inputs":[{"name":"target","type":"address","internalType":"address"}]},{"type":"error","name":"ERC1967InvalidImplementation","inputs":[{"name":"implementation","type":"address","internalType":"address"}]},{"type":"error","name":"ERC1967NonPayable","inputs":[]},{"type":"error","name":"FailedCall","inputs":[]},{"type":"error","name":"InsufficientSwapOutput","inputs":[{"name":"token","type":"address","internalType":"address"},{"name":"expectedAmount","type":"uint256","internalType":"uint256"},{"name":"actualAmount","type":"uint256","internalType":"uint256"}]},{"type":"error","name":"InvalidInitialization","inputs":[]},{"type":"error","name":"NotInitializing","inputs":[]},{"type":"error","name":"OwnableInvalidOwner","inputs":[{"name":"owner","type":"address","internalType":"address"}]},{"type":"error","name":"OwnableUnauthorizedAccount","inputs":[{"name":"account","type":"address","internalType":"address"}]},{"type":"error","name":"SwapOutputTransferFailed","inputs":[{"name":"to","type":"address","internalType":"address"},{"name":"token","type":"address","internalType":"contract IERC20"},{"name":"amount","type":"uint256","internalType":"uint256"}]},{"type":"error","name":"UUPSUnauthorizedCallContext","inputs":[]},{"type":"error","name":"UUPSUnsupportedProxiableUUID","inputs":[{"name":"slot","type":"bytes32","internalType":"bytes32"}]}],"bytecode":{"object":"0x60a060405234603957600e6047565b6014603d565b6127a16100ac82396080518181816120f90152818161215e015261231901526127a190f35b6043565b60405190565b5f80fd5b604d604f565b565b60556057565b565b605d605f565b565b6065609f565b565b60018060a01b031690565b90565b608460806088926067565b6072565b6067565b90565b6092906075565b90565b609c90608b565b90565b60a6306095565b60805256fe60806040526004361015610013575b6108e9565b61001d5f356100cc565b806312261ee7146100c7578063157fedba146100c2578063267b14bd146100bd578063485cc955146100b85780634f1ef286146100b357806352d1902d146100ae578063715018a6146100a95780638da5cb5b146100a4578063ad3cb1cc1461009f578063f2fde38b1461009a5763f887ea400361000e576108b4565b610809565b6107b6565b610685565b610630565b6105fb565b6105ac565b610448565b6103e7565b610325565b610197565b60e01c90565b60405190565b5f80fd5b5f80fd5b5f9103126100ea57565b6100dc565b1c90565b60018060a01b031690565b61010e90600861011393026100ef565b6100f3565b90565b9061012191546100fe565b90565b61013060015f90610116565b90565b60018060a01b031690565b90565b61015561015061015a92610133565b61013e565b610133565b90565b61016690610141565b90565b6101729061015d565b90565b61017e90610169565b9052565b9190610195905f60208501940190610175565b565b346101c7576101a73660046100e0565b6101c36101b2610124565b6101ba6100d2565b91829182610182565b0390f35b6100d8565b5f80fd5b5f80fd5b908160a09103126101e25790565b6101d0565b6fffffffffffffffffffffffffffffffff1690565b610205816101e7565b0361020c57565b5f80fd5b9050359061021d826101fc565b565b90565b61022b8161021f565b0361023257565b5f80fd5b9050359061024382610222565b565b151590565b61025381610245565b0361025a57565b5f80fd5b9050359061026b8261024a565b565b61027690610133565b90565b6102828161026d565b0361028957565b5f80fd5b9050359061029a82610279565b565b9091610140828403126102fe576102b5835f84016101d4565b926102c38160a08501610210565b926102d18260c08301610210565b926102fb6102e28460e08501610236565b936102f181610100860161025e565b936101200161028d565b90565b6100dc565b61030c9061021f565b9052565b9190610323905f60208501940190610303565b565b61035361034261033636600461029c565b94939093929192611203565b61034a6100d2565b91829182610310565b0390f35b61036081610133565b0361036757565b5f80fd5b9050359061037882610357565b565b65ffffffffffff1690565b61038e8161037a565b0361039557565b5f80fd5b905035906103a682610385565b565b90916060828403126103dd576103da6103c3845f850161028d565b936103d1816020860161036b565b93604001610399565b90565b6100dc565b5f0190565b34610416576104006103fa3660046103a8565b91611989565b6104086100d2565b80610412816103e2565b0390f35b6100d8565b91906040838203126104435780610437610440925f860161028d565b9360200161028d565b90565b6100dc565b346104775761046161045b36600461041b565b90611e9b565b6104696100d2565b80610473816103e2565b0390f35b6100d8565b5f80fd5b5f80fd5b601f801991011690565b634e487b7160e01b5f52604160045260245ffd5b906104ac90610484565b810190811067ffffffffffffffff8211176104c657604052565b61048e565b906104de6104d76100d2565b92836104a2565b565b67ffffffffffffffff81116104fe576104fa602091610484565b0190565b61048e565b90825f939282370152565b9092919261052361051e826104e0565b6104cb565b9381855260208501908284011161053f5761053d92610503565b565b610480565b9080601f830112156105625781602061055f9335910161050e565b90565b61047c565b9190916040818403126105a757610580835f830161028d565b92602082013567ffffffffffffffff81116105a25761059f9201610544565b90565b6101cc565b6100dc565b6105c06105ba366004610567565b90611ed0565b6105c86100d2565b806105d2816103e2565b0390f35b90565b6105e2906105d6565b9052565b91906105f9905f602085019401906105d9565b565b3461062b5761060b3660046100e0565b610627610616611f4b565b61061e6100d2565b918291826105e6565b0390f35b6100d8565b3461065e576106403660046100e0565b610648611f83565b6106506100d2565b8061065a816103e2565b0390f35b6100d8565b61066c9061026d565b9052565b9190610683905f60208501940190610663565b565b346106b5576106953660046100e0565b6106b16106a0611fbd565b6106a86100d2565b91829182610670565b0390f35b6100d8565b67ffffffffffffffff81116106d8576106d4602091610484565b0190565b61048e565b906106ef6106ea836106ba565b6104cb565b918252565b5f7f352e302e30000000000000000000000000000000000000000000000000000000910152565b61072560056106dd565b90610732602083016106f4565b565b61073c61071b565b90565b610747610734565b90565b61075261073f565b90565b5190565b60209181520190565b90825f9392825e0152565b61078c61079560209361079a9361078381610755565b93848093610759565b95869101610762565b610484565b0190565b6107b39160208201915f81840391015261076d565b90565b346107e6576107c63660046100e0565b6107e26107d161074a565b6107d96100d2565b9182918261079e565b0390f35b6100d8565b9060208282031261080457610801915f0161028d565b90565b6100dc565b346108375761082161081c3660046107eb565b612040565b6108296100d2565b80610833816103e2565b0390f35b6100d8565b60018060a01b031690565b61085790600861085c93026100ef565b61083c565b90565b9061086a9154610847565b90565b6108775f8061085f565b90565b61088390610141565b90565b61088f9061087a565b90565b61089b90610886565b9052565b91906108b2905f60208501940190610892565b565b346108e4576108c43660046100e0565b6108e06108cf61086d565b6108d76100d2565b9182918261089f565b0390f35b6100d8565b5f80fd5b5f90565b90565b61090861090361090d926108f1565b61013e565b61021f565b90565b61091a60106108f4565b90565b60ff1690565b61093761093261093c9261021f565b61013e565b61091d565b90565b60f81b90565b61094e9061093f565b90565b61095d6109629161091d565b610945565b9052565b61097281600193610951565b0190565b90565b61098d61098861099292610976565b61013e565b61021f565b90565b67ffffffffffffffff81116109ad5760208091020190565b61048e565b906109c46109bf83610995565b6104cb565b918252565b606090565b5f5b8281106109dc57505050565b6020906109e76109c9565b81840152016109d0565b90610a166109fe836109b2565b92602080610a0c8693610995565b92019103906109ce565b565b90565b610a2f610a2a610a3492610a18565b61013e565b61021f565b90565b610a416006610a1b565b90565b90565b610a5b610a56610a6092610a44565b61013e565b61021f565b90565b610a6d600c610a47565b90565b90565b610a87610a82610a8c92610a70565b61013e565b61021f565b90565b610a99600f610a73565b90565b60019392610abb8583610ab38295610ac397610951565b018092610951565b018092610951565b0190565b90565b610ade610ad9610ae392610ac7565b61013e565b61021f565b90565b610aef8161026d565b03610af657565b5f80fd5b35610b0481610ae6565b90565b610b109061015d565b90565b610b1c5f6106dd565b90565b610b27610b13565b90565b610b3460a06104cb565b90565b5f80fd5b90503590610b4882610ae6565b565b62ffffff1690565b610b5b81610b4a565b03610b6257565b5f80fd5b90503590610b7382610b52565b565b60020b90565b610b8481610b75565b03610b8b57565b5f80fd5b90503590610b9c82610b7b565b565b610ba79061026d565b90565b610bb381610b9e565b03610bba57565b5f80fd5b90503590610bcb82610baa565b565b919060a083820312610c3d57610c3690610be760a06104cb565b93610bf4825f8301610b3b565b5f860152610c058260208301610b3b565b6020860152610c178260408301610b66565b6040860152610c298260608301610b8f565b6060860152608001610bbe565b6080830152565b610b37565b610c4d903690610bcd565b90565b52565b90610c5d90610245565b9052565b90610c6b906101e7565b9052565b52565b610c7b90610b07565b9052565b610c8890610b4a565b9052565b610c9590610b75565b9052565b610ca29061015d565b90565b610cae90610c99565b9052565b90608080610d0a93610cca5f8201515f860190610c72565b610cdc60208201516020860190610c72565b610cee60408201516040860190610c7f565b610d0060608201516060860190610c8c565b0151910190610ca5565b565b610d1590610245565b9052565b610d22906101e7565b9052565b5190565b60209181520190565b610d52610d5b602093610d6093610d4981610d26565b93848093610d2a565b95869101610762565b610484565b0190565b610dc7916080610120820192610d805f8201515f850190610cb2565b610d92602082015160a0850190610d0c565b610da4604082015160c0850190610d19565b610db6606082015160e0850190610d19565b015190610100818403910152610d33565b90565b610ddf9160208201915f818403910152610d64565b90565b634e487b7160e01b5f52603260045260245ffd5b5190565b90610e0482610df6565b811015610e15576020809102010190565b610de2565b90565b610e31610e2c610e3692610e1a565b61013e565b61021f565b90565b610e4290610b07565b9052565b610e4f906101e7565b9052565b916020610e74929493610e6d60408201965f830190610e39565b0190610e46565b565b90565b610e8d610e88610e9292610e76565b61013e565b61021f565b90565b60209181520190565b610ebd610ec6602093610ecb93610eb481610d26565b93848093610e95565b95869101610762565b610484565b0190565b60209181520190565b60200190565b90610ee891610d33565b90565b60200190565b90610f05610efe83610df6565b8092610ecf565b9081610f1660208302840194610ed8565b925f915b838310610f2957505050505090565b90919293946020610f4b610f4583856001950387528951610ede565b97610eeb565b9301930191939290610f1a565b9091610f72610f809360408401908482035f860152610e9e565b916020818403910152610ef1565b90565b5f1c90565b610f94610f9991610f83565b61083c565b90565b610fa69054610f88565b90565b610fb29061015d565b90565b5f80fd5b60e01b90565b5f910312610fc957565b6100dc565b939290610ffd61100593610fef60409360608901908982035f8b0152610e9e565b908782036020890152610ef1565b940190610303565b565b61100f6100d2565b3d5f823e3d90fd5b5f90565b61102f61102a61103492610e1a565b61013e565b610133565b90565b6110409061101b565b90565b61105461104f5f611037565b610b07565b90565b61106090610141565b90565b61106c90611057565b90565b6110789061015d565b90565b6110849061015d565b90565b9050519061109482610222565b565b906020828203126110af576110ac915f01611087565b90565b6100dc565b905051906110c18261024a565b565b906020828203126110dc576110d9915f016110b4565b90565b6100dc565b9160206111029294936110fb60408201965f830190610663565b0190610303565b565b905090565b6111145f8092611104565b0190565b61112190611109565b90565b90611136611131836104e0565b6104cb565b918252565b606090565b3d5f1461115b576111503d611124565b903d5f602084013e5b565b61116361113b565b90611159565b61117d611178611182926101e7565b61013e565b61021f565b90565b61118e90611169565b9052565b6040906111bb6111c294969593966111b160608401985f850190610663565b6020830190610303565b0190611185565b565b6111cd9061106f565b9052565b6040906111fa61120194969593966111f060608401985f850190610663565b60208301906111c4565b0190610303565b565b93909291946112106108ed565b50611219610910565b61122290610923565b61122a6100d2565b8091602082019061123a91610966565b60208201810382520361124d90826104a2565b91600161125990610979565b611262906109f1565b9161126b610a37565b61127490610923565b61127c610a63565b61128590610923565b61128d610a8f565b61129690610923565b9161129f6100d2565b92839260208401926112b093610a9c565b6020820181038252036112c390826104a2565b9060036112cf90610aca565b6112d8906109f1565b9290885f016112e690610afa565b6112ef90610b07565b906112f99061026d565b906113039061026d565b1461130d90610245565b9061131790610245565b14958787828b90611326610b1f565b9261132f610b2a565b9461133990610c42565b5f86019061134691610c50565b602085019061135491610c53565b604084019061136291610c61565b606083019061137091610c61565b608082019061137e91610c6f565b6113866100d2565b8091602082019061139691610dca565b6020820181038252036113a990826104a2565b83905f906113b682610e1d565b6113c09084610dfa565b526113ca90610e1d565b6113d391610dfa565b5150875f016113e190610afa565b906113ea6100d2565b91829160208301916113fb92610e53565b60208201810382520361140e90826104a2565b829060019061141c82610979565b6114269084610dfa565b5261143090610979565b61143991610dfa565b51508660200161144890610afa565b886114516100d2565b918291602083019161146292610e53565b60208201810382520361147590826104a2565b829060029061148382610e79565b61148d9084610dfa565b5261149790610e79565b6114a091610dfa565b5150906114ab6100d2565b91829160208301916114bc92610f58565b6020820181038252036114cf90826104a2565b81905f906114dc82610e1d565b6114e69084610dfa565b526114f090610e1d565b6114f991610dfa565b51506115045f610f9c565b61150d90610fa9565b633593564c92919392813b1561190b575f61153b91611546829661152f6100d2565b98899788968795610fb9565b855260048501610fce565b03925af18015611906576118da575b5061155e611017565b505f14611740576115bf602061158d61158861158361157e848701610afa565b610b07565b611063565b61106f565b6370a08231906115b461159f3061107b565b926115a86100d2565b95869485938493610fb9565b835260048301610670565b03915afa90811561173b575f9161170d575b50916115f76115f26115ed6115e860208601610afa565b610b07565b611063565b61106f565b602063a9059cbb91339061161e5f88956116296116126100d2565b97889687958694610fb9565b8452600484016110e1565b03925af1908115611708575f916116da575b50905b8361165161164b83611169565b9161021f565b106116a557506116619015610245565b611669575090565b6116a161168961168461167f6020339501610afa565b610b07565b611063565b925f938493635d8c0faf60e11b8552600485016111d1565b0390fd5b836116d66116bd6116b860208701610afa565b610b07565b91925f938493630c95a6ab60e31b855260048501611192565b0390fd5b6116fb915060203d8111611701575b6116f381836104a2565b8101906110c3565b5f61163b565b503d6116e9565b611007565b61172e915060203d8111611734575b61172681836104a2565b810190611096565b5f6115d1565b503d61171c565b611007565b61175c61174e5f8301610afa565b611756611043565b9061204b565b5f146117985761176b3061107b565b31915f8033856117796100d2565b908161178481611118565b03925af1611790611140565b50905b61163e565b6117f260206117c06117bb6117b66117b15f8701610afa565b610b07565b611063565b61106f565b6370a08231906117e76117d23061107b565b926117db6100d2565b95869485938493610fb9565b835260048301610670565b03915afa9081156118d5575f916118a7575b509161182961182461181f61181a5f8601610afa565b610b07565b611063565b61106f565b602063a9059cbb9133906118505f889561185b6118446100d2565b97889687958694610fb9565b8452600484016110e1565b03925af19081156118a2575f91611874575b5090611793565b611895915060203d811161189b575b61188d81836104a2565b8101906110c3565b5f61186d565b503d611883565b611007565b6118c8915060203d81116118ce575b6118c081836104a2565b810190611096565b5f611804565b503d6118b6565b611007565b6118f9905f3d81116118ff575b6118f181836104a2565b810190610fbf565b5f611555565b503d6118e7565b611007565b610fb5565b61191c61192191610f83565b6100f3565b90565b61192e9054611910565b90565b61193a90610133565b9052565b6119479061037a565b9052565b6119806119879461197660609498979561196c608086019a5f870190610663565b6020850190610663565b6040830190611931565b019061193e565b565b909161199c61199783611063565b61106f565b602063095ea7b3916119b66119b16001611924565b610169565b906119d55f8019956119e06119c96100d2565b97889687958694610fb9565b8452600484016110e1565b03925af18015611ac157611a95575b50611a026119fd6001611924565b610169565b6387517c459291611a1a611a155f610f9c565b610fa9565b9490823b15611a90575f94611a4d8692611a4294611a366100d2565b998a9889978896610fb9565b86526004860161194b565b03925af18015611a8b57611a5f575b50565b611a7e905f3d8111611a84575b611a7681836104a2565b810190610fbf565b5f611a5c565b503d611a6c565b611007565b610fb5565b611ab59060203d8111611aba575b611aad81836104a2565b8101906110c3565b6119ef565b503d611aa3565b611007565b60401c90565b60ff1690565b611ade611ae391611ac6565b611acc565b90565b611af09054611ad2565b90565b67ffffffffffffffff1690565b611b0c611b1191610f83565b611af3565b90565b611b1e9054611b00565b90565b67ffffffffffffffff1690565b611b42611b3d611b4792610e1a565b61013e565b611b21565b90565b611b5e611b59611b6392610976565b61013e565b611b21565b90565b611b6f9061015d565b90565b5f1b90565b90611b8a67ffffffffffffffff91611b72565b9181191691161790565b611ba8611ba3611bad92611b21565b61013e565b611b21565b90565b90565b90611bc8611bc3611bcf92611b94565b611bb0565b8254611b77565b9055565b60401b90565b90611bed68ff000000000000000091611bd3565b9181191691161790565b611c0090610245565b90565b90565b90611c1b611c16611c2292611bf7565b611c03565b8254611bd9565b9055565b611c2f90611b4a565b9052565b9190611c46905f60208501940190611c26565b565b90611c5161207b565b91611c66611c605f8501611ae6565b15610245565b91611c725f8501611b14565b80611c85611c7f5f611b2e565b91611b21565b1480611d9f575b90611ca0611c9a6001611b4a565b91611b21565b1480611d77575b611cb2909115610245565b9081611d66575b50611d4a57611ce291611cd7611ccf6001611b4a565b5f8701611bb3565b83611d38575b611e5b565b611cea575b50565b611cf7905f809101611c06565b6001611d2f7fc7f505b2f371ae2175ee4913f4499e1f2633a7b5936321eed1cdaeb6115181d291611d266100d2565b91829182611c33565b0390a15f611ce7565b611d4560015f8701611c06565b611cdd565b5f63f92ee8a960e01b815280611d62600482016103e2565b0390fd5b611d71915015610245565b5f611cb9565b50611cb2611d8430611b66565b3b611d97611d915f610e1d565b9161021f565b149050611ca7565b5083611c8c565b611daf9061087a565b90565b611dbb90610141565b90565b611dc790611db2565b90565b90611ddb60018060a01b0391611b72565b9181191691161790565b611dee90611db2565b90565b90565b90611e09611e04611e1092611de5565b611df1565b8254611dca565b9055565b611e1d90610141565b90565b611e2990611e14565b90565b611e3590611e14565b90565b90565b90611e50611e4b611e5792611e2c565b611e38565b8254611dca565b9055565b611e9991611e8d611e87611e82611e9294611e75336120bd565b611e7d6120d2565b611da6565b611dbe565b5f611df4565b611e20565b6001611e3b565b565b90611ea591611c48565b565b90611eb991611eb46120e8565b611ebb565b565b90611ece91611ec98161219a565b61220a565b565b90611eda91611ea7565b565b5f90565b611ef190611eec612308565b611f3f565b90565b90565b611f0b611f06611f1092611ef4565b611b72565b6105d6565b90565b611f3c7f360894a13ba1a3210667c828492db98dca3e2076cc3735a920a3ca505d382bbc611ef7565b90565b50611f48611f13565b90565b611f5b611f56611edc565b611ee0565b90565b611f66612366565b611f6e611f70565b565b611f81611f7c5f611037565b6123d7565b565b611f8b611f5e565b565b5f90565b60018060a01b031690565b611fa8611fad91610f83565b611f91565b90565b611fba9054611f9c565b90565b611fc5611f8d565b50611fd85f611fd2612443565b01611fb0565b90565b611fec90611fe7612366565b611fee565b565b80612009612003611ffe5f611037565b61026d565b9161026d565b1461201957612017906123d7565b565b61203c6120255f611037565b5f918291631e4fbdf760e01b835260048301610670565b0390fd5b61204990611fdb565b565b61207161206c61206661207793612060611017565b50610b07565b93610b07565b61026d565b9161026d565b1490565b7ff0c57e16840df040f15088dc2f81fe391c3923bec73e23a9662efc9c229c6a0090565b6120b0906120ab612467565b6120b2565b565b6120bb906124ff565b565b6120c69061209f565b565b6120d0612467565b565b6120da6120c8565b565b6120e59061015d565b90565b6120f1306120dc565b61212361211d7f000000000000000000000000000000000000000000000000000000000000000061026d565b9161026d565b14801561214d575b61213157565b5f63703e46dd60e11b815280612149600482016103e2565b0390fd5b5061215661250a565b6121886121827f000000000000000000000000000000000000000000000000000000000000000061026d565b9161026d565b141561212b565b50612198612366565b565b6121a39061218f565b565b6121ae90610141565b90565b6121ba906121a5565b90565b6121c69061015d565b90565b6121d2816105d6565b036121d957565b5f80fd5b905051906121ea826121c9565b565b9060208282031261220557612202915f016121dd565b90565b6100dc565b9190612238602061222261221d866121b1565b6121bd565b6352d1902d906122306100d2565b938492610fb9565b82528180612248600482016103e2565b03915afa80915f926122d8575b50155f1461228957505090600161226a57505b565b612285905f918291634c9c8ce360e01b835260048301610670565b0390fd5b92836122a461229e612299611f13565b6105d6565b916105d6565b036122b9576122b4929350612530565b612268565b6122d4845f918291632a87526960e21b8352600483016105e6565b0390fd5b6122fa91925060203d8111612301575b6122f281836104a2565b8101906121ec565b905f612255565b503d6122e8565b612311306120dc565b61234361233d7f000000000000000000000000000000000000000000000000000000000000000061026d565b9161026d565b0361234a57565b5f63703e46dd60e11b815280612362600482016103e2565b0390fd5b61236e611fbd565b61238761238161237c6125b9565b61026d565b9161026d565b0361238e57565b6123b06123996125b9565b5f91829163118cdaa760e01b835260048301610670565b0390fd5b90565b906123cc6123c76123d392610b07565b6123b4565b8254611dca565b9055565b6123df612443565b6123f76123ed5f8301611fb0565b915f8491016123b7565b9061242b6124257f8be0079c531659141344cd1fd0a4f28419497f9722a3daafe3b4186f6b6457e093610b07565b91610b07565b916124346100d2565b8061243e816103e2565b0390a3565b7f9016d09d72d40fdae2fd8ceac6b6234c7706214fd39c1cd1e609a0528c19930090565b6124786124726125c6565b15610245565b61247e57565b5f631afcd79f60e31b815280612496600482016103e2565b0390fd5b6124ab906124a6612467565b6124ad565b565b806124c86124c26124bd5f611037565b61026d565b9161026d565b146124d8576124d6906123d7565b565b6124fb6124e45f611037565b5f918291631e4fbdf760e01b835260048301610670565b0390fd5b6125089061249a565b565b612512611f8d565b5061252d5f612527612522611f13565b6125e4565b01611fb0565b90565b9061253a826125e7565b816125657fbc7cd75a20ee27fd9adebab32041f755214dbc6bffa90cc0225b39da2e5c2d3b91610b07565b9061256e6100d2565b80612578816103e2565b0390a261258481610d26565b6125966125905f610e1d565b9161021f565b115f146125aa576125a691612672565b505b565b50506125b461263c565b6125a8565b6125c1611f8d565b503390565b6125ce611017565b506125e15f6125db61207b565b01611ae6565b90565b90565b803b6125fb6125f55f610e1d565b9161021f565b1461261d5761261b905f612615612610611f13565b6125e4565b016123b7565b565b612638905f918291634c9c8ce360e01b835260048301610670565b0390fd5b3461264f6126495f610e1d565b9161021f565b1161265657565b5f63b398979f60e01b81528061266e600482016103e2565b0390fd5b5f8061269e9361268061113b565b508390602081019051915af490612695611140565b909190916126a1565b90565b906126b5906126ae61113b565b5015610245565b5f146126c15750612725565b6126ca82610d26565b6126dc6126d65f610e1d565b9161021f565b148061270a575b6126eb575090565b612706905f918291639996b31560e01b835260048301610670565b0390fd5b50803b61271f6127195f610e1d565b9161021f565b146126e3565b61272e81610d26565b61274061273a5f610e1d565b9161021f565b115f1461274f57805190602001fd5b5f63d6bda27560e01b815280612767600482016103e2565b0390fdfea2646970667358221220937cda4daab7aeb182dc8441907a118d27bbcdb4c40aa9eecbb36c91c3b7e49264736f6c634300081a0033","linkReferences":{}},"methodIdentifiers":{"UPGRADE_INTERFACE_VERSION()":"ad3cb1cc","approveTokenWithPermit2(address,uint160,uint48)":"267b14bd","initialize(address,address)":"485cc955","owner()":"8da5cb5b","permit2()":"12261ee7","proxiableUUID()":"52d1902d","renounceOwnership()":"715018a6","router()":"f887ea40","swap((address,address,uint24,int24,address),uint128,uint128,uint256,bool,address)":"157fedba","transferOwnership(address)":"f2fde38b","upgradeToAndCall(address,bytes)":"4f1ef286"},"id":14}