{"abi":[{"type":"function","name":"UPGRADE_INTERFACE_VERSION","inputs":[],"outputs":[{"name":"","type":"string","internalType":"string"}],"stateMutability":"view"},{"type":"function","name":"approveTokenWithPermit2","inputs":[{"name":"token","type":"address","internalType":"address"},{"name":"amount","type":"uint160","internalType":"uint160"},{"name":"expiration","type":"uint48","internalType":"uint48"}],"outputs":[],"stateMutability":"nonpayable"},{"type":"function","name":"initialize","inputs":[{"name":"_router","type":"address","internalType":"address"},{"name":"_poolManager","type":"address","internalType":"address"},{"name":"_permit2","type":"address","internalType":"address"}],"outputs":[],"stateMutability":"nonpayable"},{"type":"function","name":"owner","inputs":[],"outputs":[{"name":"","type":"address","internalType":"address"}],"stateMutability":"view"},{"type":"function","name":"permit2","inputs":[],"outputs":[{"name":"","type":"address","internalType":"contract IPermit2"}],"stateMutability":"view"},{"type":"function","name":"poolManager","inputs":[],"outputs":[{"name":"","type":"address","internalType":"contract IPoolManager"}],"stateMutability":"view"},{"type":"function","name":"proxiableUUID","inputs":[],"outputs":[{"name":"","type":"bytes32","internalType":"bytes32"}],"stateMutability":"view"},{"type":"function","name":"renounceOwnership","inputs":[],"outputs":[],"stateMutability":"nonpayable"},{"type":"function","name":"router","inputs":[],"outputs":[{"name":"","type":"address","internalType":"contract UniversalRouter"}],"stateMutability":"view"},{"type":"function","name":"swap","inputs":[{"name":"key","type":"tuple","internalType":"struct PoolKey","components":[{"name":"currency0","type":"address","internalType":"Currency"},{"name":"currency1","type":"address","internalType":"Currency"},{"name":"fee","type":"uint24","internalType":"uint24"},{"name":"tickSpacing","type":"int24","internalType":"int24"},{"name":"hooks","type":"address","internalType":"contract IHooks"}]},{"name":"amountIn","type":"uint128","internalType":"uint128"},{"name":"minAmountOut","type":"uint128","internalType":"uint128"},{"name":"deadline","type":"uint256","internalType":"uint256"},{"name":"stablecoinForToken","type":"bool","internalType":"bool"},{"name":"stablecoinAddress","type":"address","internalType":"address"}],"outputs":[{"name":"amountOut","type":"uint256","internalType":"uint256"}],"stateMutability":"nonpayable"},{"type":"function","name":"transferOwnership","inputs":[{"name":"newOwner","type":"address","internalType":"address"}],"outputs":[],"stateMutability":"nonpayable"},{"type":"function","name":"upgradeToAndCall","inputs":[{"name":"newImplementation","type":"address","internalType":"address"},{"name":"data","type":"bytes","internalType":"bytes"}],"outputs":[],"stateMutability":"payable"},{"type":"event","name":"Initialized","inputs":[{"name":"version","type":"uint64","indexed":false,"internalType":"uint64"}],"anonymous":false},{"type":"event","name":"OwnershipTransferred","inputs":[{"name":"previousOwner","type":"address","indexed":true,"internalType":"address"},{"name":"newOwner","type":"address","indexed":true,"internalType":"address"}],"anonymous":false},{"type":"event","name":"Upgraded","inputs":[{"name":"implementation","type":"address","indexed":true,"internalType":"address"}],"anonymous":false},{"type":"error","name":"AddressEmptyCode","inputs":[{"name":"target","type":"address","internalType":"address"}]},{"type":"error","name":"ERC1967InvalidImplementation","inputs":[{"name":"implementation","type":"address","internalType":"address"}]},{"type":"error","name":"ERC1967NonPayable","inputs":[]},{"type":"error","name":"FailedCall","inputs":[]},{"type":"error","name":"InvalidInitialization","inputs":[]},{"type":"error","name":"NotInitializing","inputs":[]},{"type":"error","name":"OwnableInvalidOwner","inputs":[{"name":"owner","type":"address","internalType":"address"}]},{"type":"error","name":"OwnableUnauthorizedAccount","inputs":[{"name":"account","type":"address","internalType":"address"}]},{"type":"error","name":"SwapOutputTransferFailed","inputs":[{"name":"to","type":"address","internalType":"address"},{"name":"token","type":"address","internalType":"contract IERC20"},{"name":"amount","type":"uint256","internalType":"uint256"}]},{"type":"error","name":"UUPSUnauthorizedCallContext","inputs":[]},{"type":"error","name":"UUPSUnsupportedProxiableUUID","inputs":[{"name":"slot","type":"bytes32","internalType":"bytes32"}]}],"bytecode":{"object":"0x60a08060405234602957306080526111b0908161002e82396080518181816103e101526104b10152f35b5f80fdfe6080806040526004361015610012575f80fd5b5f905f3560e01c90816312261ee714610e2057508063157fedba146107c3578063267b14bd146106875780634f1ef2861461043557806352d1902d146103ce578063715018a6146103655780638da5cb5b14610330578063ad3cb1cc146102e3578063c0c53b8b14610121578063dc4c90d3146100f8578063f2fde38b146100cb5763f887ea40146100a2575f80fd5b346100c857806003193601126100c857546040516001600160a01b039091168152602090f35b80fd5b50346100c85760203660031901126100c8576100f56100e8610e43565b6100f061105e565b610fed565b80f35b50346100c857806003193601126100c8576001546040516001600160a01b039091168152602090f35b50346100c85760603660031901126100c85761013b610e43565b610143610e59565b6044356001600160a01b03811691908290036102df575f8051602061115b833981519152549260ff8460401c16159367ffffffffffffffff8116801590816102d7575b60011490816102cd575b1590816102c4575b506102b55767ffffffffffffffff1981166001175f8051602061115b8339815191525584610289575b506101ca611091565b6101d2611091565b6101db33610fed565b6101e3611091565b60018060a01b03166001600160601b0360a01b85541617845560018060a01b03166001600160601b0360a01b60015416176001556001600160601b0360a01b60025416176002556102315780f35b68ff0000000000000000195f8051602061115b83398151915254165f8051602061115b833981519152557fc7f505b2f371ae2175ee4913f4499e1f2633a7b5936321eed1cdaeb6115181d2602060405160018152a180f35b68ffffffffffffffffff191668010000000000000001175f8051602061115b833981519152555f6101c1565b63f92ee8a960e01b8652600486fd5b9050155f610198565b303b159150610190565b869150610186565b8380fd5b50346100c857806003193601126100c8575061032c604051610306604082610e8b565b60058152640352e302e360dc1b6020820152604051918291602083526020830190610ec9565b0390f35b50346100c857806003193601126100c8575f8051602061111b833981519152546040516001600160a01b039091168152602090f35b50346100c857806003193601126100c85761037e61105e565b5f8051602061111b83398151915280546001600160a01b0319811690915581906001600160a01b03167f8be0079c531659141344cd1fd0a4f28419497f9722a3daafe3b4186f6b6457e08280a380f35b50346100c857806003193601126100c8577f00000000000000000000000000000000000000000000000000000000000000006001600160a01b031630036104265760206040515f8051602061113b8339815191528152f35b63703e46dd60e11b8152600490fd5b5060403660031901126100c85761044a610e43565b6024359067ffffffffffffffff82116106835736602383011215610683578160040135908361047883610ead565b936104866040519586610e8b565b8385526020850193366024828401011161068357806024602093018637850101526001600160a01b037f000000000000000000000000000000000000000000000000000000000000000016308114908115610661575b50610652576104e961105e565b6040516352d1902d60e01b81526001600160a01b0382169390602081600481885afa86918161061a575b5061052c57634c9c8ce360e01b86526004859052602486fd5b93845f8051602061113b8339815191528796036106085750823b156105f6575f8051602061113b83398151915280546001600160a01b031916821790558491907fbc7cd75a20ee27fd9adebab32041f755214dbc6bffa90cc0225b39da2e5c2d3b8380a28051156105db576105cf9382915190845af43d156105d3573d916105b383610ead565b926105c16040519485610e8b565b83523d85602085013e6110bc565b5080f35b6060916110bc565b50505050346105e75780f35b63b398979f60e01b8152600490fd5b634c9c8ce360e01b8552600452602484fd5b632a87526960e21b8652600452602485fd5b9091506020813d60201161064a575b8161063660209383610e8b565b810103126106465751905f610513565b8680fd5b3d9150610629565b63703e46dd60e11b8452600484fd5b5f8051602061113b833981519152546001600160a01b0316141590505f6104dc565b8280fd5b50346100c85760603660031901126100c857806106a2610e43565b6024356001600160a01b03811691908290036107bf576044359065ffffffffffff82168092036107ba5760025460405163095ea7b360e01b81526001600160a01b0391821660048201525f19602482015291169060208160448188865af180156107af57610782575b5060025484546001600160a01b0390811692911690813b1561077e5785608492819560405197889687956387517c4560e01b875260048701526024860152604485015260648401525af18015610773576107625750f35b8161076c91610e8b565b6100c85780f35b6040513d84823e3d90fd5b8580fd5b6107a39060203d6020116107a8575b61079b8183610e8b565b810190610fd5565b61070b565b503d610791565b6040513d87823e3d90fd5b505050fd5b5050fd5b5034610d265736600319016101408112610d265760a013610d265760a4356001600160801b03811691828203610d265760c4356001600160801b03811690818103610d265761010435948515158603610d2657610124356001600160a01b0381169690879003610d2657604051600160fc1b6020820152600181529261084a602185610e8b565b60408051989061085a818b610e8b565b60018a52979897601f19015f5b818110610e0d575050604051600360f91b6020820152600360fa1b6021820152600f60f81b602282015260038152916108a1602384610e8b565b6040519060806108b18184610e8b565b60038352601f19015f5b818110610de857505060209a8b93604051966108d78689610e8b565b5f8852604051986108e78a610e6f565b604051966108f488610e6f565b6108fc610e43565b8852610906610e59565b9088015260443562ffffff81168103610d265760408801526064358060020b8103610d265760608801526084356001600160a01b0381168103610d26578f919a610a11610b2d9b8f6001600160801b0390610b1b9f82908e610a119f986080610a1f9a0152875288870160018152604088019182526060880193845260808801958652604051998a9881808b0152519060018060a01b0382511660408b015260018060a01b03908201511660608a015262ffffff60408201511660808a0152606081015160020b60a08a0152608060018060a01b039101511660c089015251151560e08801525116610100860152511661012084015251610120610140840152610160830190610ec9565b03601f198101835282610e8b565b610a2886610eed565b52610a3285610eed565b5015610d91576001600160a01b03610a48610f2e565b1603610d2a57610a56610f2e565b610a6b8d610a11846040519485938401610f5a565b610a7484610f0e565b52610a7e83610f0e565b50610a87610f44565b610a9c8d610a11856040519485938401610f5a565b610aa584610f1e565b52610aaf83610f1e565b505b610ace8c610a11610ac0610f2e565b936040519485938401610f5a565b610ad783610f0e565b52610ae182610f0e565b50610af18b610a11610ac0610f44565b610afa82610f1e565b52610b0481610f1e565b5060405194859360408c8601526060850190610ec9565b838103601f1901604085015290610f7d565b610b3685610eed565b52610b4084610eed565b505f546001600160a01b031693843b15610d2657610b9594610b835f809460405198899586948593630d64d59360e21b8552606060048601526064850190610ec9565b83810360031901602485015290610f7d565b60e435604483015203925af1928315610d1b57602493610d06575b50836001600160a01b03610bc2610f44565b16604051948580926370a0823160e01b82523060048301525afa928315610773578293610cd3575b508210610c8e576001600160a01b03610c01610f44565b60405163a9059cbb60e01b815233600482015260248101859052918591839160449183918791165af1908115610773578291610c71575b5015610c475750604051908152f35b6064916001600160a01b03610c5a610f44565b635d8c0faf60e11b84523360045216602452604452fd5b610c889150843d86116107a85761079b8183610e8b565b5f610c38565b60405162461bcd60e51b815260048101849052601a60248201527f496e73756666696369656e74206f757470757420616d6f756e740000000000006044820152606490fd5b9092508381813d8311610cff575b610ceb8183610e8b565b81010312610cfb5751915f610bea565b5080fd5b503d610ce1565b610d139192505f90610e8b565b5f905f610bb0565b6040513d5f823e3d90fd5b5f80fd5b610d32610f44565b610d478d610a11846040519485938401610f5a565b610d5084610f0e565b52610d5a83610f0e565b50610d63610f2e565b610d788d610a11856040519485938401610f5a565b610d8184610f1e565b52610d8b83610f1e565b50610ab1565b6001600160a01b03610da1610f2e565b1603610daf57610d32610f44565b610db7610f2e565b610dcc8d610a11846040519485938401610f5a565b610dd584610f0e565b52610ddf83610f0e565b50610d63610f44565b8060606020809387010152016108bb565b634e487b7160e01b5f52604160045260245ffd5b60606020828c0181019190915201610867565b34610d26575f366003190112610d26576002546001600160a01b03168152602090f35b600435906001600160a01b0382168203610d2657565b602435906001600160a01b0382168203610d2657565b60a0810190811067ffffffffffffffff821117610df957604052565b90601f8019910116810190811067ffffffffffffffff821117610df957604052565b67ffffffffffffffff8111610df957601f01601f191660200190565b805180835260209291819084018484015e5f828201840152601f01601f1916010190565b805115610efa5760200190565b634e487b7160e01b5f52603260045260245ffd5b805160011015610efa5760400190565b805160021015610efa5760600190565b6004356001600160a01b0381168103610d265790565b6024356001600160a01b0381168103610d265790565b6001600160a01b0390911681526001600160801b03909116602082015260400190565b9080602083519182815201916020808360051b8301019401925f915b838310610fa857505050505090565b9091929394602080610fc6600193601f198682030187528951610ec9565b97019301930191939290610f99565b90816020910312610d2657518015158103610d265790565b6001600160a01b0316801561104b575f8051602061111b83398151915280546001600160a01b0319811683179091556001600160a01b03167f8be0079c531659141344cd1fd0a4f28419497f9722a3daafe3b4186f6b6457e05f80a3565b631e4fbdf760e01b5f525f60045260245ffd5b5f8051602061111b833981519152546001600160a01b0316330361107e57565b63118cdaa760e01b5f523360045260245ffd5b60ff5f8051602061115b8339815191525460401c16156110ad57565b631afcd79f60e31b5f5260045ffd5b906110e057508051156110d157805190602001fd5b63d6bda27560e01b5f5260045ffd5b81511580611111575b6110f1575090565b639996b31560e01b5f9081526001600160a01b0391909116600452602490fd5b50803b156110e956fe9016d09d72d40fdae2fd8ceac6b6234c7706214fd39c1cd1e609a0528c199300360894a13ba1a3210667c828492db98dca3e2076cc3735a920a3ca505d382bbcf0c57e16840df040f15088dc2f81fe391c3923bec73e23a9662efc9c229c6a00a2646970667358221220b7934a60ea71eb8c7deebd31472cb670f33a3499b0e96d75c05aefc569721ac764736f6c634300081a0033","linkReferences":{}},"methodIdentifiers":{"UPGRADE_INTERFACE_VERSION()":"ad3cb1cc","approveTokenWithPermit2(address,uint160,uint48)":"267b14bd","initialize(address,address,address)":"c0c53b8b","owner()":"8da5cb5b","permit2()":"12261ee7","poolManager()":"dc4c90d3","proxiableUUID()":"52d1902d","renounceOwnership()":"715018a6","router()":"f887ea40","swap((address,address,uint24,int24,address),uint128,uint128,uint256,bool,address)":"157fedba","transferOwnership(address)":"f2fde38b","upgradeToAndCall(address,bytes)":"4f1ef286"},"id":11}