{"abi":[{"type":"function","name":"UPGRADE_INTERFACE_VERSION","inputs":[],"outputs":[{"name":"","type":"string","internalType":"string"}],"stateMutability":"view"},{"type":"function","name":"approveTokenWithPermit2","inputs":[{"name":"token","type":"address","internalType":"address"},{"name":"amount","type":"uint160","internalType":"uint160"},{"name":"expiration","type":"uint48","internalType":"uint48"}],"outputs":[],"stateMutability":"nonpayable"},{"type":"function","name":"initialize","inputs":[{"name":"_router","type":"address","internalType":"address"},{"name":"_poolManager","type":"address","internalType":"address"},{"name":"_permit2","type":"address","internalType":"address"}],"outputs":[],"stateMutability":"nonpayable"},{"type":"function","name":"owner","inputs":[],"outputs":[{"name":"","type":"address","internalType":"address"}],"stateMutability":"view"},{"type":"function","name":"permit2","inputs":[],"outputs":[{"name":"","type":"address","internalType":"contract IPermit2"}],"stateMutability":"view"},{"type":"function","name":"poolManager","inputs":[],"outputs":[{"name":"","type":"address","internalType":"contract IPoolManager"}],"stateMutability":"view"},{"type":"function","name":"proxiableUUID","inputs":[],"outputs":[{"name":"","type":"bytes32","internalType":"bytes32"}],"stateMutability":"view"},{"type":"function","name":"renounceOwnership","inputs":[],"outputs":[],"stateMutability":"nonpayable"},{"type":"function","name":"router","inputs":[],"outputs":[{"name":"","type":"address","internalType":"contract UniversalRouter"}],"stateMutability":"view"},{"type":"function","name":"swap","inputs":[{"name":"key","type":"tuple","internalType":"struct PoolKey","components":[{"name":"currency0","type":"address","internalType":"Currency"},{"name":"currency1","type":"address","internalType":"Currency"},{"name":"fee","type":"uint24","internalType":"uint24"},{"name":"tickSpacing","type":"int24","internalType":"int24"},{"name":"hooks","type":"address","internalType":"contract IHooks"}]},{"name":"amountIn","type":"uint128","internalType":"uint128"},{"name":"minAmountOut","type":"uint128","internalType":"uint128"},{"name":"deadline","type":"uint256","internalType":"uint256"},{"name":"stablecoinForToken","type":"bool","internalType":"bool"},{"name":"stablecoinAddress","type":"address","internalType":"address"}],"outputs":[{"name":"amountOut","type":"uint256","internalType":"uint256"}],"stateMutability":"nonpayable"},{"type":"function","name":"transferOwnership","inputs":[{"name":"newOwner","type":"address","internalType":"address"}],"outputs":[],"stateMutability":"nonpayable"},{"type":"function","name":"upgradeToAndCall","inputs":[{"name":"newImplementation","type":"address","internalType":"address"},{"name":"data","type":"bytes","internalType":"bytes"}],"outputs":[],"stateMutability":"payable"},{"type":"event","name":"Initialized","inputs":[{"name":"version","type":"uint64","indexed":false,"internalType":"uint64"}],"anonymous":false},{"type":"event","name":"OwnershipTransferred","inputs":[{"name":"previousOwner","type":"address","indexed":true,"internalType":"address"},{"name":"newOwner","type":"address","indexed":true,"internalType":"address"}],"anonymous":false},{"type":"event","name":"Upgraded","inputs":[{"name":"implementation","type":"address","indexed":true,"internalType":"address"}],"anonymous":false},{"type":"error","name":"AddressEmptyCode","inputs":[{"name":"target","type":"address","internalType":"address"}]},{"type":"error","name":"ERC1967InvalidImplementation","inputs":[{"name":"implementation","type":"address","internalType":"address"}]},{"type":"error","name":"ERC1967NonPayable","inputs":[]},{"type":"error","name":"FailedCall","inputs":[]},{"type":"error","name":"InsufficientSwapOutput","inputs":[{"name":"token","type":"address","internalType":"address"},{"name":"expectedAmount","type":"uint256","internalType":"uint256"},{"name":"actualAmount","type":"uint256","internalType":"uint256"}]},{"type":"error","name":"InvalidInitialization","inputs":[]},{"type":"error","name":"NotInitializing","inputs":[]},{"type":"error","name":"OwnableInvalidOwner","inputs":[{"name":"owner","type":"address","internalType":"address"}]},{"type":"error","name":"OwnableUnauthorizedAccount","inputs":[{"name":"account","type":"address","internalType":"address"}]},{"type":"error","name":"SwapOutputTransferFailed","inputs":[{"name":"to","type":"address","internalType":"address"},{"name":"token","type":"address","internalType":"contract IERC20"},{"name":"amount","type":"uint256","internalType":"uint256"}]},{"type":"error","name":"UUPSUnauthorizedCallContext","inputs":[]},{"type":"error","name":"UUPSUnsupportedProxiableUUID","inputs":[{"name":"slot","type":"bytes32","internalType":"bytes32"}]}],"bytecode":{"object":"0x60a08060405234602957306080526111d6908161002e82396080518181816103e101526104b10152f35b5f80fdfe6080806040526004361015610012575f80fd5b5f905f3560e01c90816312261ee714610e1757508063157fedba1461079c578063267b14bd146106605780634f1ef2861461043557806352d1902d146103ce578063715018a6146103655780638da5cb5b14610330578063ad3cb1cc146102e3578063c0c53b8b14610121578063dc4c90d3146100f8578063f2fde38b146100cb5763f887ea40146100a2575f80fd5b346100c857806003193601126100c857546040516001600160a01b039091168152602090f35b80fd5b50346100c85760203660031901126100c8576100f56100e8610e3a565b6100f0611084565b611013565b80f35b50346100c857806003193601126100c8576001546040516001600160a01b039091168152602090f35b50346100c85760603660031901126100c85761013b610e3a565b610143610e50565b6044356001600160a01b03811691908290036102df575f80516020611181833981519152549260ff8460401c16159367ffffffffffffffff8116801590816102d7575b60011490816102cd575b1590816102c4575b506102b55767ffffffffffffffff1981166001175f805160206111818339815191525584610289575b506101ca6110b7565b6101d26110b7565b6101db33611013565b6101e36110b7565b60018060a01b03166001600160601b0360a01b85541617845560018060a01b03166001600160601b0360a01b60015416176001556001600160601b0360a01b60025416176002556102315780f35b68ff0000000000000000195f8051602061118183398151915254165f80516020611181833981519152557fc7f505b2f371ae2175ee4913f4499e1f2633a7b5936321eed1cdaeb6115181d2602060405160018152a180f35b68ffffffffffffffffff191668010000000000000001175f80516020611181833981519152555f6101c1565b63f92ee8a960e01b8652600486fd5b9050155f610198565b303b159150610190565b869150610186565b8380fd5b50346100c857806003193601126100c8575061032c604051610306604082610e82565b60058152640352e302e360dc1b6020820152604051918291602083526020830190610ec0565b0390f35b50346100c857806003193601126100c8575f80516020611141833981519152546040516001600160a01b039091168152602090f35b50346100c857806003193601126100c85761037e611084565b5f8051602061114183398151915280546001600160a01b0319811690915581906001600160a01b03167f8be0079c531659141344cd1fd0a4f28419497f9722a3daafe3b4186f6b6457e08280a380f35b50346100c857806003193601126100c8577f00000000000000000000000000000000000000000000000000000000000000006001600160a01b031630036104265760206040515f805160206111618339815191528152f35b63703e46dd60e11b8152600490fd5b5060403660031901126100c85761044a610e3a565b6024359067ffffffffffffffff821161065c573660238301121561065c578160040135908361047883610ea4565b936104866040519586610e82565b8385526020850193366024828401011161065c57806024602093018637850101526001600160a01b037f00000000000000000000000000000000000000000000000000000000000000001630811490811561063a575b5061062b576104e9611084565b6040516352d1902d60e01b81526001600160a01b0382169390602081600481885afa8691816105f3575b5061052c57634c9c8ce360e01b86526004859052602486fd5b93845f805160206111618339815191528796036105e15750823b156105cf575f8051602061116183398151915280546001600160a01b031916821790558491907fbc7cd75a20ee27fd9adebab32041f755214dbc6bffa90cc0225b39da2e5c2d3b8380a28051156105b4576105b09382915190845af46105aa610fe4565b916110e2565b5080f35b50505050346105c05780f35b63b398979f60e01b8152600490fd5b634c9c8ce360e01b8552600452602484fd5b632a87526960e21b8652600452602485fd5b9091506020813d602011610623575b8161060f60209383610e82565b8101031261061f5751905f610513565b8680fd5b3d9150610602565b63703e46dd60e11b8452600484fd5b5f80516020611161833981519152546001600160a01b0316141590505f6104dc565b8280fd5b50346100c85760603660031901126100c8578061067b610e3a565b6024356001600160a01b0381169190829003610798576044359065ffffffffffff82168092036107935760025460405163095ea7b360e01b81526001600160a01b0391821660048201525f19602482015291169060208160448188865af180156107885761075b575b5060025484546001600160a01b0390811692911690813b156107575785608492819560405197889687956387517c4560e01b875260048701526024860152604485015260648401525af1801561074c5761073b5750f35b8161074591610e82565b6100c85780f35b6040513d84823e3d90fd5b8580fd5b61077c9060203d602011610781575b6107748183610e82565b810190610fcc565b6106e4565b503d61076a565b6040513d87823e3d90fd5b505050fd5b5050fd5b5034610d1f5736600319016101408112610d1f5760a013610d1f5760a435906001600160801b03821690818303610d1f5760c435916001600160801b03831692838103610d1f5761010435918215158303610d1f57610124356001600160a01b03811690819003610d1f57604051600160fc1b60208201526001815292610824602185610e82565b6040805195906108348188610e82565b60018752601f19015f5b818110610e06575050604051600360f91b6020820152600360fa1b6021820152600f60f81b60228201526003815291610878602384610e82565b6040519060806108888184610e82565b60038352601f19015f5b818110610de157505060209a8b95604051946108ae8887610e82565b5f8652604051986108be8a610e66565b604051986108cb8a610e66565b6108d3610e3a565b8a526108dd610e50565b908a015260443562ffffff81168103610d1f5760408a01526064358060020b8103610d1f5760608a01526084356001600160a01b0381168103610d1f578f919a8f6109e8996001600160801b036109e892610af29f610b049f90816109f698608086940152875288870160018152604088019182526060880193845260808801958652604051998a9881808b0152519060018060a01b0382511660408b015260018060a01b03908201511660608a015262ffffff60408201511660808a0152606081015160020b60a08a0152608060018060a01b039101511660c089015251151560e08801525116610100860152511661012084015251610120610140840152610160830190610ec0565b03601f198101835282610e82565b6109ff86610ee4565b52610a0985610ee4565b5015610d8a576001600160a01b03610a1f610f25565b1603610d2357610a2d610f25565b610a428d6109e8846040519485938401610f51565b610a4b84610f05565b52610a5583610f05565b50610a5e610f3b565b610a738d6109e8856040519485938401610f51565b610a7c84610f15565b52610a8683610f15565b505b610aa58c6109e8610a97610f25565b936040519485938401610f51565b610aae83610f05565b52610ab882610f05565b50610ac88b6109e8610a97610f3b565b610ad182610f15565b52610adb81610f15565b5060405194859360408c8601526060850190610ec0565b838103601f1901604085015290610f74565b610b0d83610ee4565b52610b1782610ee4565b505f546001600160a01b031691823b15610d1f57610b6c92610b5a5f809460405196879586948593630d64d59360e21b8552606060048601526064850190610ec0565b83810360031901602485015290610f74565b60e435604483015203925af18015610d1457610d01575b506001600160a01b03610b94610f3b565b1615610c1b5747918180808086335af1610bac610fe4565b50905b808410610bef575015610bc55750604051908152f35b6064916001600160a01b03610bd8610f3b565b635d8c0faf60e11b84523360045216602452604452fd5b6064939091506001600160a01b03610c05610f3b565b630c95a6ab60e31b855216600452602452604452fd5b602491836001600160a01b03610c2f610f3b565b16604051948580926370a0823160e01b82523060048301525afa92831561074c578293610cce575b5082846001600160a01b03610c6a610f3b565b60405163a9059cbb60e01b81523360048201526024810194909452839160449183918891165af1908115610cc3578391610ca6575b5090610baf565b610cbd9150853d8711610781576107748183610e82565b5f610c9f565b6040513d85823e3d90fd5b9092508381813d8311610cfa575b610ce68183610e82565b81010312610cf65751915f610c57565b5080fd5b503d610cdc565b610d0d91505f90610e82565b5f80610b83565b6040513d5f823e3d90fd5b5f80fd5b610d2b610f3b565b610d408d6109e8846040519485938401610f51565b610d4984610f05565b52610d5383610f05565b50610d5c610f25565b610d718d6109e8856040519485938401610f51565b610d7a84610f15565b52610d8483610f15565b50610a88565b6001600160a01b03610d9a610f25565b1603610da857610d2b610f3b565b610db0610f25565b610dc58d6109e8846040519485938401610f51565b610dce84610f05565b52610dd883610f05565b50610d5c610f3b565b806060602080938701015201610892565b634e487b7160e01b5f52604160045260245ffd5b806060602080938b0101520161083e565b34610d1f575f366003190112610d1f576002546001600160a01b03168152602090f35b600435906001600160a01b0382168203610d1f57565b602435906001600160a01b0382168203610d1f57565b60a0810190811067ffffffffffffffff821117610df257604052565b90601f8019910116810190811067ffffffffffffffff821117610df257604052565b67ffffffffffffffff8111610df257601f01601f191660200190565b805180835260209291819084018484015e5f828201840152601f01601f1916010190565b805115610ef15760200190565b634e487b7160e01b5f52603260045260245ffd5b805160011015610ef15760400190565b805160021015610ef15760600190565b6004356001600160a01b0381168103610d1f5790565b6024356001600160a01b0381168103610d1f5790565b6001600160a01b0390911681526001600160801b03909116602082015260400190565b9080602083519182815201916020808360051b8301019401925f915b838310610f9f57505050505090565b9091929394602080610fbd600193601f198682030187528951610ec0565b97019301930191939290610f90565b90816020910312610d1f57518015158103610d1f5790565b3d1561100e573d90610ff582610ea4565b916110036040519384610e82565b82523d5f602084013e565b606090565b6001600160a01b03168015611071575f8051602061114183398151915280546001600160a01b0319811683179091556001600160a01b03167f8be0079c531659141344cd1fd0a4f28419497f9722a3daafe3b4186f6b6457e05f80a3565b631e4fbdf760e01b5f525f60045260245ffd5b5f80516020611141833981519152546001600160a01b031633036110a457565b63118cdaa760e01b5f523360045260245ffd5b60ff5f805160206111818339815191525460401c16156110d357565b631afcd79f60e31b5f5260045ffd5b9061110657508051156110f757805190602001fd5b63d6bda27560e01b5f5260045ffd5b81511580611137575b611117575090565b639996b31560e01b5f9081526001600160a01b0391909116600452602490fd5b50803b1561110f56fe9016d09d72d40fdae2fd8ceac6b6234c7706214fd39c1cd1e609a0528c199300360894a13ba1a3210667c828492db98dca3e2076cc3735a920a3ca505d382bbcf0c57e16840df040f15088dc2f81fe391c3923bec73e23a9662efc9c229c6a00a264697066735822122066208064bfb8ea406f1349281f192b5bdeaaf7e6fd1ed6d40e90dc94b46308d564736f6c634300081a0033","linkReferences":{}},"methodIdentifiers":{"UPGRADE_INTERFACE_VERSION()":"ad3cb1cc","approveTokenWithPermit2(address,uint160,uint48)":"267b14bd","initialize(address,address,address)":"c0c53b8b","owner()":"8da5cb5b","permit2()":"12261ee7","poolManager()":"dc4c90d3","proxiableUUID()":"52d1902d","renounceOwnership()":"715018a6","router()":"f887ea40","swap((address,address,uint24,int24,address),uint128,uint128,uint256,bool,address)":"157fedba","transferOwnership(address)":"f2fde38b","upgradeToAndCall(address,bytes)":"4f1ef286"},"id":14}