{"abi":[{"type":"constructor","inputs":[{"name":"_name","type":"string","internalType":"string"},{"name":"_symbol","type":"string","internalType":"string"},{"name":"underlyingToken","type":"address","internalType":"contract IERC20"}],"stateMutability":"nonpayable"},{"type":"function","name":"acceptOwnership","inputs":[],"outputs":[],"stateMutability":"nonpayable"},{"type":"function","name":"allowance","inputs":[{"name":"owner","type":"address","internalType":"address"},{"name":"spender","type":"address","internalType":"address"}],"outputs":[{"name":"","type":"uint256","internalType":"euint64"}],"stateMutability":"view"},{"type":"function","name":"approve","inputs":[{"name":"spender","type":"address","internalType":"address"},{"name":"amount","type":"uint256","internalType":"euint64"}],"outputs":[{"name":"","type":"bool","internalType":"bool"}],"stateMutability":"nonpayable"},{"type":"function","name":"approve","inputs":[{"name":"spender","type":"address","internalType":"address"},{"name":"encryptedAmount","type":"bytes32","internalType":"einput"},{"name":"inputProof","type":"bytes","internalType":"bytes"}],"outputs":[{"name":"","type":"bool","internalType":"bool"}],"stateMutability":"nonpayable"},{"type":"function","name":"balanceOf","inputs":[{"name":"account","type":"address","internalType":"address"}],"outputs":[{"name":"","type":"uint256","internalType":"euint64"}],"stateMutability":"view"},{"type":"function","name":"decimals","inputs":[],"outputs":[{"name":"","type":"uint8","internalType":"uint8"}],"stateMutability":"view"},{"type":"function","name":"depositFor","inputs":[{"name":"account","type":"address","internalType":"address"},{"name":"value","type":"uint256","internalType":"uint256"}],"outputs":[{"name":"","type":"bool","internalType":"bool"}],"stateMutability":"nonpayable"},{"type":"function","name":"mint","inputs":[{"name":"to","type":"address","internalType":"address"},{"name":"amount","type":"uint64","internalType":"uint64"}],"outputs":[],"stateMutability":"nonpayable"},{"type":"function","name":"name","inputs":[],"outputs":[{"name":"","type":"string","internalType":"string"}],"stateMutability":"view"},{"type":"function","name":"owner","inputs":[],"outputs":[{"name":"","type":"address","internalType":"address"}],"stateMutability":"view"},{"type":"function","name":"pendingOwner","inputs":[],"outputs":[{"name":"","type":"address","internalType":"address"}],"stateMutability":"view"},{"type":"function","name":"renounceOwnership","inputs":[],"outputs":[],"stateMutability":"nonpayable"},{"type":"function","name":"symbol","inputs":[],"outputs":[{"name":"","type":"string","internalType":"string"}],"stateMutability":"view"},{"type":"function","name":"totalSupply","inputs":[],"outputs":[{"name":"","type":"uint64","internalType":"uint64"}],"stateMutability":"view"},{"type":"function","name":"transfer","inputs":[{"name":"to","type":"address","internalType":"address"},{"name":"encryptedAmount","type":"bytes32","internalType":"einput"},{"name":"inputProof","type":"bytes","internalType":"bytes"}],"outputs":[{"name":"","type":"bool","internalType":"bool"}],"stateMutability":"nonpayable"},{"type":"function","name":"transfer","inputs":[{"name":"to","type":"address","internalType":"address"},{"name":"amount","type":"uint256","internalType":"euint64"}],"outputs":[{"name":"","type":"bool","internalType":"bool"}],"stateMutability":"nonpayable"},{"type":"function","name":"transferFrom","inputs":[{"name":"from","type":"address","internalType":"address"},{"name":"to","type":"address","internalType":"address"},{"name":"amount","type":"uint256","internalType":"euint64"}],"outputs":[{"name":"","type":"bool","internalType":"bool"}],"stateMutability":"nonpayable"},{"type":"function","name":"transferFrom","inputs":[{"name":"from","type":"address","internalType":"address"},{"name":"to","type":"address","internalType":"address"},{"name":"encryptedAmount","type":"bytes32","internalType":"einput"},{"name":"inputProof","type":"bytes","internalType":"bytes"}],"outputs":[{"name":"","type":"bool","internalType":"bool"}],"stateMutability":"nonpayable"},{"type":"function","name":"transferOwnership","inputs":[{"name":"newOwner","type":"address","internalType":"address"}],"outputs":[],"stateMutability":"nonpayable"},{"type":"function","name":"underlying","inputs":[],"outputs":[{"name":"","type":"address","internalType":"contract IERC20"}],"stateMutability":"view"},{"type":"function","name":"withdrawTo","inputs":[{"name":"account","type":"address","internalType":"address"},{"name":"value","type":"uint256","internalType":"uint256"}],"outputs":[{"name":"","type":"bool","internalType":"bool"}],"stateMutability":"nonpayable"},{"type":"event","name":"Approval","inputs":[{"name":"owner","type":"address","indexed":true,"internalType":"address"},{"name":"spender","type":"address","indexed":true,"internalType":"address"},{"name":"placeholder","type":"uint256","indexed":false,"internalType":"uint256"}],"anonymous":false},{"type":"event","name":"Burn","inputs":[{"name":"to","type":"address","indexed":true,"internalType":"address"},{"name":"amount","type":"uint64","indexed":false,"internalType":"uint64"}],"anonymous":false},{"type":"event","name":"Mint","inputs":[{"name":"to","type":"address","indexed":true,"internalType":"address"},{"name":"amount","type":"uint64","indexed":false,"internalType":"uint64"}],"anonymous":false},{"type":"event","name":"OwnershipTransferStarted","inputs":[{"name":"previousOwner","type":"address","indexed":true,"internalType":"address"},{"name":"newOwner","type":"address","indexed":true,"internalType":"address"}],"anonymous":false},{"type":"event","name":"OwnershipTransferred","inputs":[{"name":"previousOwner","type":"address","indexed":true,"internalType":"address"},{"name":"newOwner","type":"address","indexed":true,"internalType":"address"}],"anonymous":false},{"type":"event","name":"Transfer","inputs":[{"name":"from","type":"address","indexed":true,"internalType":"address"},{"name":"to","type":"address","indexed":true,"internalType":"address"},{"name":"transferId","type":"uint256","indexed":false,"internalType":"uint256"}],"anonymous":false},{"type":"error","name":"ERC20InsufficientAllowance","inputs":[{"name":"spender","type":"address","internalType":"address"},{"name":"allowance","type":"uint256","internalType":"uint256"},{"name":"needed","type":"uint256","internalType":"uint256"}]},{"type":"error","name":"ERC20InsufficientBalance","inputs":[{"name":"sender","type":"address","internalType":"address"},{"name":"balance","type":"uint256","internalType":"uint256"},{"name":"needed","type":"uint256","internalType":"uint256"}]},{"type":"error","name":"ERC20InvalidApprover","inputs":[{"name":"approver","type":"address","internalType":"address"}]},{"type":"error","name":"ERC20InvalidReceiver","inputs":[{"name":"receiver","type":"address","internalType":"address"}]},{"type":"error","name":"ERC20InvalidSender","inputs":[{"name":"sender","type":"address","internalType":"address"}]},{"type":"error","name":"ERC20InvalidSpender","inputs":[{"name":"spender","type":"address","internalType":"address"}]},{"type":"error","name":"ERC20InvalidUnderlying","inputs":[{"name":"token","type":"address","internalType":"address"}]},{"type":"error","name":"OwnableInvalidOwner","inputs":[{"name":"owner","type":"address","internalType":"address"}]},{"type":"error","name":"OwnableUnauthorizedAccount","inputs":[{"name":"account","type":"address","internalType":"address"}]},{"type":"error","name":"SafeERC20FailedOperation","inputs":[{"name":"token","type":"address","internalType":"address"}]},{"type":"error","name":"TFHESenderNotAllowed","inputs":[]}],"bytecode":{"object":"0x60a06040523461056957611cf4803803806100198161058c565b9283398101906060818303126105695780516001600160401b03811161056957826100459183016105b1565b60208201519092906001600160401b038111610569576040916100699184016105b1565b9101516001600160a01b038116808203610569575f606061008861056d565b8281528260208201528260408201520152739d6891a6240d6130c54ae243d8005063d05fe14b60606100b861056d565b73fee8407e2f5e3ee68ad77cae98c434e637f516e5815273687408ab54661ba0b4aef3a44156c616c6955e07602082015273fb03be574d14c256d56f09a198b586bdfc0a9de26040820152015273fee8407e2f5e3ee68ad77cae98c434e637f516e560018060a01b03197fed8d60e34876f751cc8b014c560745351147d9de11b9347c854e881b128ea6005416177fed8d60e34876f751cc8b014c560745351147d9de11b9347c854e881b128ea6005573687408ab54661ba0b4aef3a44156c616c6955e0760018060a01b03195f80516020611cb48339815191525416175f80516020611cb48339815191525573fb03be574d14c256d56f09a198b586bdfc0a9de260018060a01b03195f80516020611cd48339815191525416175f80516020611cd483398151915255739d6891a6240d6130c54ae243d8005063d05fe14b60018060a01b03195f80516020611c948339815191525416175f80516020611c9483398151915255331561055657600180546001600160a01b03199081169091555f805433928116831782556001600160a01b0316907f8be0079c531659141344cd1fd0a4f28419497f9722a3daafe3b4186f6b6457e09080a383516001600160401b03811161046757600254600181811c9116801561054c575b602082101461044957601f81116104e9575b50602094601f8211600114610486579481929394955f9261047b575b50508160011b915f199060031b1c1916176002555b82516001600160401b03811161046757600354600181811c9116801561045d575b602082101461044957601f81116103e6575b506020601f821160011461038357819293945f92610378575b50508160011b915f199060031b1c1916176003555b301461036557608052604051611691908161060382396080518181816105410152818161060d0152610def0152f35b63438d6fe360e01b5f523060045260245ffd5b015190505f80610321565b601f1982169060035f52805f20915f5b8181106103ce575095836001959697106103b6575b505050811b01600355610336565b01515f1960f88460031b161c191690555f80806103a8565b9192602060018192868b015181550194019201610393565b60035f527fc2575a0e9e593c00f959f8c92f12db2869c3395a3b0502d05e2516446f71f85b601f830160051c8101916020841061043f575b601f0160051c01905b8181106104345750610308565b5f8155600101610427565b909150819061041e565b634e487b7160e01b5f52602260045260245ffd5b90607f16906102f6565b634e487b7160e01b5f52604160045260245ffd5b015190505f806102c0565b601f1982169560025f52805f20915f5b8881106104d1575083600195969798106104b9575b505050811b016002556102d5565b01515f1960f88460031b161c191690555f80806104ab565b91926020600181928685015181550194019201610496565b60025f527f405787fa12a823e0f2b7631cc41b3ba8828b3321ca811111fa75cd3aa3bb5ace601f830160051c81019160208410610542575b601f0160051c01905b81811061053757506102a4565b5f815560010161052a565b9091508190610521565b90607f1690610292565b631e4fbdf760e01b5f525f60045260245ffd5b5f80fd5b60405190608082016001600160401b0381118382101761046757604052565b6040519190601f01601f191682016001600160401b0381118382101761046757604052565b81601f82011215610569578051906001600160401b038211610467576105e0601f8301601f191660200161058c565b928284526020838301011161056957815f9260208093018386015e830101529056fe6080806040526004361015610012575f80fd5b5f3560e01c90816306fdde0314610a5657508063095ea7b314610a2f57806318160ddd14610a06578063205c28781461088157806323b872dd146108525780632893c5b01461075e5780632f4f21e214610595578063313ce567146105705780636f307dc31461052c57806370a08231146104f4578063715018a61461049157806379ba50971461040c5780637b7e0a5a146103ef5780638da5cb5b146103c857806395d89b41146102bc5780639a0943521461025c578063a9059cbb1461022b578063b32c1001146101f1578063dd62ed3e146101a1578063e30c3978146101795763f2fde38b14610103575f80fd5b346101755760203660031901126101755761011c610b32565b610124611228565b60018060a01b0316806bffffffffffffffffffffffff60a01b600154161760015560018060a01b035f54167f38d16b8cac22d99fc7c124b9cd0de2d3fa1faef420bfe791d8c362d765e227005f80a3005b5f80fd5b34610175575f366003190112610175576001546040516001600160a01b039091168152602090f35b34610175576040366003190112610175576101ba610b32565b6101c2610b48565b6001600160a01b039182165f908152600560209081526040808320949093168252928352819020549051908152f35b346101755761021f61021361021961020836610b8b565b949192943691610e6d565b9061123b565b90610c06565b50602060405160018152f35b34610175576040366003190112610175576020610252610249610b32565b60243590610eb2565b6040519015158152f35b3461017557608036600319011261017557610275610b32565b61027d610b48565b90606435916001600160401b038311610175576102b66102ae6102a761021f953690600401610b5e565b3691610e6d565b60443561123b565b91610c5b565b34610175575f366003190112610175576040515f6003548060011c906001811680156103be575b6020831081146103aa578285529081156103865750600114610328575b6103248361031081850382610bd1565b604051918291602083526020830190610b0e565b0390f35b91905060035f527fc2575a0e9e593c00f959f8c92f12db2869c3395a3b0502d05e2516446f71f85b915f905b80821061036c57509091508101602001610310610300565b919260018160209254838588010152019101909291610354565b60ff191660208086019190915291151560051b840190910191506103109050610300565b634e487b7160e01b5f52602260045260245ffd5b91607f16916102e3565b34610175575f366003190112610175575f546040516001600160a01b039091168152602090f35b346101755761021f61021361040661020836610b8b565b90610eb2565b34610175575f36600319011261017557600154336001600160a01b039091160361047e57600180546001600160a01b03199081169091555f805433928116831782556001600160a01b0316907f8be0079c531659141344cd1fd0a4f28419497f9722a3daafe3b4186f6b6457e09080a3005b63118cdaa760e01b5f523360045260245ffd5b34610175575f366003190112610175576104a9611228565b600180546001600160a01b03199081169091555f80549182168155906001600160a01b03167f8be0079c531659141344cd1fd0a4f28419497f9722a3daafe3b4186f6b6457e08280a3005b34610175576020366003190112610175576001600160a01b03610515610b32565b165f526004602052602060405f2054604051908152f35b34610175575f366003190112610175576040517f00000000000000000000000000000000000000000000000000000000000000006001600160a01b03168152602090f35b34610175575f36600319011261017557602061058a610dda565b60ff60405191168152f35b34610175576040366003190112610175576105ae610b32565b6024359030331461074b576001600160a01b03811691308314610738576001600160401b03610676916106316040516323b872dd60e01b60208201523360248201523060448201528260648201526064815261060b608482610bd1565b7f00000000000000000000000000000000000000000000000000000000000000006113fe565b169161063b611228565b835f52600460205260405f2054838115610724575b610659916115bc565b845f5260046020528060405f205561067130826114eb565b6114eb565b815f5f8051602061163c833981519152602060405183198152a360015490806001600160401b038360a01c1601906001600160401b0382116107105767ffffffffffffffff60a01b1990921660a09190911b67ffffffffffffffff60a01b16176001556040519081527f9109de113672aaca72ede8bc906f7aafabee865311ac020fb15c71edf94a0a0190602090a2602060405160018152f35b634e487b7160e01b5f52601160045260245ffd5b6106599150610731611566565b9150610650565b8263ec442f0560e01b5f5260045260245ffd5b634b637e8f60e11b5f523060045260245ffd5b3461017557604036600319011261017557610777610b32565b6024356001600160401b03811680910361017557610793611228565b6001600160a01b0382165f8181526004602052604090205490926107c19183811561072457610659916115bc565b815f5f8051602061163c833981519152602060405183198152a360015490806001600160401b038360a01c1601906001600160401b0382116107105767ffffffffffffffff60a01b1990921660a09190911b67ffffffffffffffff60a01b16176001556040519081527f9109de113672aaca72ede8bc906f7aafabee865311ac020fb15c71edf94a0a0190602090a2005b34610175576060366003190112610175576020610252610870610b32565b610878610b48565b60443591610c5b565b346101755760403660031901126101755761089a610b32565b6001600160a01b03166024353082146109f357905f913383526004602052604083205480156109e1575b5f8051602061161c83398151915254604051638c14cc2160e01b815260048101929092526001600160401b0383166024830152600160f81b6044830152909360209185916064918391906001600160a01b03165af19283156109d6575f936109a0575b50610950836109959450335f5260046020528060405f205561094930826114eb565b33906114eb565b5f604051811981525f8051602061163c83398151915260203392a36040519163a9059cbb60e01b6020840152602483015260448201526044815261060b606482610bd1565b602060405160018152f35b92506020833d6020116109ce575b816109bb60209383610bd1565b8101031261017557915191610950610927565b3d91506109ae565b6040513d5f823e3d90fd5b5060206109ec611566565b90506108c4565b5063ec442f0560e01b5f5260045260245ffd5b34610175575f3660031901126101755760206001600160401b0360015460a01c16604051908152f35b34610175576040366003190112610175576020610252610a4d610b32565b60243590610c06565b34610175575f366003190112610175575f6002548060011c90600181168015610b04575b6020831081146103aa578285529081156103865750600114610aa6576103248361031081850382610bd1565b91905060025f527f405787fa12a823e0f2b7631cc41b3ba8828b3321ca811111fa75cd3aa3bb5ace915f905b808210610aea57509091508101602001610310610300565b919260018160209254838588010152019101909291610ad2565b91607f1691610a7a565b805180835260209291819084018484015e5f828201840152601f01601f1916010190565b600435906001600160a01b038216820361017557565b602435906001600160a01b038216820361017557565b9181601f84011215610175578235916001600160401b038311610175576020838186019501011161017557565b6060600319820112610175576004356001600160a01b0381168103610175579160243591604435906001600160401b03821161017557610bcd91600401610b5e565b9091565b90601f801991011681019081106001600160401b03821117610bf257604052565b634e487b7160e01b5f52604160045260245ffd5b90610c1b90610c1481610edc565b8233610f8e565b6040515f1981526001600160a01b039091169033907f8c5be1e5ebec7d5bd14f71427d1e84f3dd0314c0f7b2291e5b200ac8c7c3b92590602090a3600190565b91610c6581610edc565b6001600160a01b0383165f81815260056020908152604080832033845290915290205493909290610c96858461134b565b935f5260046020526020610cae60405f20548561134b565b94606460018060a01b035f8051602061161c8339815191525416965f6040519889948593630ccd46b160e31b8552600485015260248401528160448401525af19384156109d6575f94610da6575b506020610d098487611456565b95606460018060a01b035f8051602061161c8339815191525416975f604051998a94859363cb3b940760e01b85528b6004860152602485015260448401525af19485156109d6575f95610d70575b50610d66610d6b953383610f8e565b61100b565b600190565b94506020853d602011610d9e575b81610d8b60209383610bd1565b8101031261017557935193610d66610d57565b3d9150610d7e565b9093506020813d602011610dd2575b81610dc260209383610bd1565b810103126101755751925f610cfc565b3d9150610db5565b60405163313ce56760e01b81526020816004817f00000000000000000000000000000000000000000000000000000000000000006001600160a01b03165afa5f9181610e2f575b50610e2c5750600690565b90565b9091506020813d602011610e65575b81610e4b60209383610bd1565b81010312610175575160ff8116810361017557905f610e21565b3d9150610e3e565b9291926001600160401b038211610bf25760405191610e96601f8201601f191660200184610bd1565b829481845281830111610175578281602093845f960137010152565b610d6b91610ebf81610edc565b335f526004602052610ed560405f20548261134b565b913361100b565b7fed8d60e34876f751cc8b014c560745351147d9de11b9347c854e881b128ea60054604051632fd514cd60e11b81526004810192909252336024830152602090829060449082906001600160a01b03165afa9081156109d6575f91610f53575b5015610f4457565b632fa38b3f60e01b5f5260045ffd5b90506020813d602011610f86575b81610f6e60209383610bd1565b8101031261017557518015158103610175575f610f3c565b3d9150610f61565b6001600160a01b0381169392908415610ff8576001600160a01b038316948515610fe55790610fe39495610671925f52600560205260405f20905f526020528260405f2055610fdd30846114eb565b826114eb565b565b85634a1406b160e11b5f5260045260245ffd5b8463e602df0560e01b5f5260045260245ffd5b91926001600160a01b0383169290918315611215576001600160a01b03811694851561120257602090606461103e611566565b5f8051602061161c8339815191525460405163cb3b940760e01b8152600481019890985260248801939093526044870152859182905f906001600160a01b03165af19283156109d6575f936111ce575b50845f5260046020525f602060408220548581156111be575b86156111b0575b5f8051602061161c8339815191525460405163f953e42760e01b8152600480820194909452848101909301919091526001600160f81b0319841660448301529092839160649183916001600160a01b03165af19081156109d6575f9161117a575b509261113661114892856111609650885f5260046020528060405f205561067130826114eb565b845f52600460205260405f2054611456565b835f5260046020528060405f205561067130826114eb565b5f8051602061163c83398151915260206040515f198152a3565b9390506020843d6020116111a8575b8161119660209383610bd1565b8101031261017557925161113661110f565b3d9150611189565b506111b9611566565b6110ae565b90506111c8611566565b906110a7565b9092506020813d6020116111fa575b816111ea60209383610bd1565b810103126101755751915f61108e565b3d91506111dd565b8563ec442f0560e01b5f5260045260245ffd5b83634b637e8f60e11b5f5260045260245ffd5b5f546001600160a01b0316330361047e57565b61128a9160209160018060a01b035f8051602061161c8339815191525416905f6040518096819582946302e817ff60e41b84526004840152336024840152608060448401526084830190610b0e565b600560f81b606483015203925af19081156109d6575f91611319575b507fed8d60e34876f751cc8b014c560745351147d9de11b9347c854e881b128ea600546001600160a01b0316803b15610175576040516346ce4e4960e11b815260048101839052336024820152905f908290604490829084905af180156109d65761130f575090565b5f610e2c91610bd1565b90506020813d602011611343575b8161133460209383610bd1565b8101031261017557515f6112a6565b3d9150611327565b9081156113ee575b80156113dc575b602090606460018060a01b035f8051602061161c8339815191525416935f60405195869485936334a6d7b960e11b8552600485015260248401528160448401525af19081156109d6575f916113ad575090565b90506020813d6020116113d4575b816113c860209383610bd1565b81010312610175575190565b3d91506113bb565b5060206113e7611566565b905061135a565b90506113f8611566565b90611353565b905f602091828151910182855af1156109d6575f513d61144d57506001600160a01b0381163b155b61142d5750565b635274afe760e01b5f9081526001600160a01b0391909116600452602490fd5b60011415611426565b6020905f9281156114db575b80156114cd575b5f8051602061161c83398151915254604051638c14cc2160e01b8152600480820194909452848101909301919091526001600160f81b0319841660448301529092839160649183916001600160a01b03165af19081156109d6575f916113ad575090565b506114d6611566565b611469565b90506114e5611566565b90611462565b7fed8d60e34876f751cc8b014c560745351147d9de11b9347c854e881b128ea600546001600160a01b031691823b1561017557604051631974142760e21b815260048101929092526001600160a01b03166024820152905f908290604490829084905af180156109d65761155c5750565b5f610fe391610bd1565b5f8051602061161c83398151915254604051631ce2e8d760e31b81525f60048201819052600560f81b60248301529091602091839160449183916001600160a01b03165af19081156109d6575f916113ad575090565b5f8051602061161c8339815191525460405163f953e42760e01b815260048101929092526024820192909252600160f81b604482015290602090829060649082905f906001600160a01b03165af19081156109d6575f916113ad57509056feed8d60e34876f751cc8b014c560745351147d9de11b9347c854e881b128ea601ddf252ad1be2c89b69c2b068fc378daa952ba7f163c4a11628f55a4df523b3efa26469706673582212203fb1db51c53f9956c60278e36ec773bdb116d197340f0c4734a84fb352c8dfbe64736f6c634300081a0033ed8d60e34876f751cc8b014c560745351147d9de11b9347c854e881b128ea603ed8d60e34876f751cc8b014c560745351147d9de11b9347c854e881b128ea601ed8d60e34876f751cc8b014c560745351147d9de11b9347c854e881b128ea602","linkReferences":{}},"methodIdentifiers":{"acceptOwnership()":"79ba5097","allowance(address,address)":"dd62ed3e","approve(address,bytes32,bytes)":"b32c1001","approve(address,uint256)":"095ea7b3","balanceOf(address)":"70a08231","decimals()":"313ce567","depositFor(address,uint256)":"2f4f21e2","mint(address,uint64)":"2893c5b0","name()":"06fdde03","owner()":"8da5cb5b","pendingOwner()":"e30c3978","renounceOwnership()":"715018a6","symbol()":"95d89b41","totalSupply()":"18160ddd","transfer(address,bytes32,bytes)":"7b7e0a5a","transfer(address,uint256)":"a9059cbb","transferFrom(address,address,bytes32,bytes)":"9a094352","transferFrom(address,address,uint256)":"23b872dd","transferOwnership(address)":"f2fde38b","underlying()":"6f307dc3","withdrawTo(address,uint256)":"205c2878"},"id":0}