{"abi":[{"type":"constructor","inputs":[{"name":"_name","type":"string","internalType":"string"},{"name":"_symbol","type":"string","internalType":"string"},{"name":"underlyingToken","type":"address","internalType":"contract IERC20"}],"stateMutability":"nonpayable"},{"type":"function","name":"acceptOwnership","inputs":[],"outputs":[],"stateMutability":"nonpayable"},{"type":"function","name":"allowance","inputs":[{"name":"owner","type":"address","internalType":"address"},{"name":"spender","type":"address","internalType":"address"}],"outputs":[{"name":"","type":"uint256","internalType":"euint256"}],"stateMutability":"view"},{"type":"function","name":"approve","inputs":[{"name":"spender","type":"address","internalType":"address"},{"name":"amount","type":"uint256","internalType":"euint256"}],"outputs":[{"name":"","type":"bool","internalType":"bool"}],"stateMutability":"nonpayable"},{"type":"function","name":"approve","inputs":[{"name":"spender","type":"address","internalType":"address"},{"name":"encryptedAmount","type":"bytes32","internalType":"einput"},{"name":"inputProof","type":"bytes","internalType":"bytes"}],"outputs":[{"name":"","type":"bool","internalType":"bool"}],"stateMutability":"nonpayable"},{"type":"function","name":"balanceOf","inputs":[{"name":"account","type":"address","internalType":"address"}],"outputs":[{"name":"","type":"uint256","internalType":"euint256"}],"stateMutability":"view"},{"type":"function","name":"decimals","inputs":[],"outputs":[{"name":"","type":"uint8","internalType":"uint8"}],"stateMutability":"view"},{"type":"function","name":"depositFor","inputs":[{"name":"account","type":"address","internalType":"address"},{"name":"value","type":"uint256","internalType":"uint256"}],"outputs":[{"name":"","type":"bool","internalType":"bool"}],"stateMutability":"nonpayable"},{"type":"function","name":"errorGetCounter","inputs":[],"outputs":[{"name":"countErrors","type":"uint256","internalType":"uint256"}],"stateMutability":"view"},{"type":"function","name":"getErrorCodeForTransferId","inputs":[{"name":"transferId","type":"uint256","internalType":"uint256"}],"outputs":[{"name":"errorCode","type":"uint8","internalType":"uint8"}],"stateMutability":"view"},{"type":"function","name":"mint","inputs":[{"name":"to","type":"address","internalType":"address"},{"name":"amount","type":"uint256","internalType":"uint256"}],"outputs":[],"stateMutability":"nonpayable"},{"type":"function","name":"name","inputs":[],"outputs":[{"name":"","type":"string","internalType":"string"}],"stateMutability":"view"},{"type":"function","name":"owner","inputs":[],"outputs":[{"name":"","type":"address","internalType":"address"}],"stateMutability":"view"},{"type":"function","name":"pendingOwner","inputs":[],"outputs":[{"name":"","type":"address","internalType":"address"}],"stateMutability":"view"},{"type":"function","name":"renounceOwnership","inputs":[],"outputs":[],"stateMutability":"nonpayable"},{"type":"function","name":"symbol","inputs":[],"outputs":[{"name":"","type":"string","internalType":"string"}],"stateMutability":"view"},{"type":"function","name":"totalSupply","inputs":[],"outputs":[{"name":"","type":"uint256","internalType":"uint256"}],"stateMutability":"view"},{"type":"function","name":"transfer","inputs":[{"name":"to","type":"address","internalType":"address"},{"name":"encryptedAmount","type":"bytes32","internalType":"einput"},{"name":"inputProof","type":"bytes","internalType":"bytes"}],"outputs":[{"name":"","type":"bool","internalType":"bool"}],"stateMutability":"nonpayable"},{"type":"function","name":"transfer","inputs":[{"name":"to","type":"address","internalType":"address"},{"name":"amount","type":"uint256","internalType":"euint256"}],"outputs":[{"name":"","type":"bool","internalType":"bool"}],"stateMutability":"nonpayable"},{"type":"function","name":"transferCallback","inputs":[{"name":"","type":"uint256","internalType":"uint256"},{"name":"decryptedErrorCode","type":"uint8","internalType":"uint8"}],"outputs":[],"stateMutability":"nonpayable"},{"type":"function","name":"transferFrom","inputs":[{"name":"from","type":"address","internalType":"address"},{"name":"to","type":"address","internalType":"address"},{"name":"amount","type":"uint256","internalType":"euint256"}],"outputs":[{"name":"","type":"bool","internalType":"bool"}],"stateMutability":"nonpayable"},{"type":"function","name":"transferFrom","inputs":[{"name":"from","type":"address","internalType":"address"},{"name":"to","type":"address","internalType":"address"},{"name":"encryptedAmount","type":"bytes32","internalType":"einput"},{"name":"inputProof","type":"bytes","internalType":"bytes"}],"outputs":[{"name":"","type":"bool","internalType":"bool"}],"stateMutability":"nonpayable"},{"type":"function","name":"transferOwnership","inputs":[{"name":"newOwner","type":"address","internalType":"address"}],"outputs":[],"stateMutability":"nonpayable"},{"type":"function","name":"underlying","inputs":[],"outputs":[{"name":"","type":"address","internalType":"contract IERC20"}],"stateMutability":"view"},{"type":"function","name":"withdrawTo","inputs":[{"name":"account","type":"address","internalType":"address"},{"name":"value","type":"uint256","internalType":"uint256"}],"outputs":[{"name":"","type":"bool","internalType":"bool"}],"stateMutability":"nonpayable"},{"type":"event","name":"Approval","inputs":[{"name":"owner","type":"address","indexed":true,"internalType":"address"},{"name":"spender","type":"address","indexed":true,"internalType":"address"},{"name":"placeholder","type":"uint256","indexed":false,"internalType":"uint256"}],"anonymous":false},{"type":"event","name":"Burn","inputs":[{"name":"to","type":"address","indexed":true,"internalType":"address"},{"name":"amount","type":"uint256","indexed":false,"internalType":"uint256"}],"anonymous":false},{"type":"event","name":"Mint","inputs":[{"name":"to","type":"address","indexed":true,"internalType":"address"},{"name":"amount","type":"uint256","indexed":false,"internalType":"uint256"}],"anonymous":false},{"type":"event","name":"OwnershipTransferStarted","inputs":[{"name":"previousOwner","type":"address","indexed":true,"internalType":"address"},{"name":"newOwner","type":"address","indexed":true,"internalType":"address"}],"anonymous":false},{"type":"event","name":"OwnershipTransferred","inputs":[{"name":"previousOwner","type":"address","indexed":true,"internalType":"address"},{"name":"newOwner","type":"address","indexed":true,"internalType":"address"}],"anonymous":false},{"type":"event","name":"Transfer","inputs":[{"name":"from","type":"address","indexed":true,"internalType":"address"},{"name":"to","type":"address","indexed":true,"internalType":"address"},{"name":"transferId","type":"uint256","indexed":false,"internalType":"uint256"}],"anonymous":false},{"type":"error","name":"ERC20InsufficientAllowance","inputs":[{"name":"spender","type":"address","internalType":"address"},{"name":"allowance","type":"uint256","internalType":"uint256"},{"name":"needed","type":"uint256","internalType":"uint256"}]},{"type":"error","name":"ERC20InsufficientBalance","inputs":[{"name":"sender","type":"address","internalType":"address"},{"name":"balance","type":"uint256","internalType":"uint256"},{"name":"needed","type":"uint256","internalType":"uint256"}]},{"type":"error","name":"ERC20InvalidApprover","inputs":[{"name":"approver","type":"address","internalType":"address"}]},{"type":"error","name":"ERC20InvalidReceiver","inputs":[{"name":"receiver","type":"address","internalType":"address"}]},{"type":"error","name":"ERC20InvalidSender","inputs":[{"name":"sender","type":"address","internalType":"address"}]},{"type":"error","name":"ERC20InvalidSpender","inputs":[{"name":"spender","type":"address","internalType":"address"}]},{"type":"error","name":"ERC20InvalidUnderlying","inputs":[{"name":"token","type":"address","internalType":"address"}]},{"type":"error","name":"OwnableInvalidOwner","inputs":[{"name":"owner","type":"address","internalType":"address"}]},{"type":"error","name":"OwnableUnauthorizedAccount","inputs":[{"name":"account","type":"address","internalType":"address"}]},{"type":"error","name":"SafeERC20FailedOperation","inputs":[{"name":"token","type":"address","internalType":"address"}]},{"type":"error","name":"TFHESenderNotAllowed","inputs":[]}],"bytecode":{"object":"0x60a06040523461055d576120908038038061001981610580565b92833981019060608183031261055d5780516001600160401b03811161055d57826100459183016105a5565b60208201519092906001600160401b03811161055d576040916100699184016105a5565b9101516001600160a01b03811680820361055d57331561054a57600180546001600160a01b03199081169091555f805433928116831782556001600160a01b0316907f8be0079c531659141344cd1fd0a4f28419497f9722a3daafe3b4186f6b6457e09080a383516001600160401b03811161045b57600354600181811c91168015610540575b602082101461043d57601f81116104dd575b50602094601f821160011461047a579481929394955f9261046f575b50508160011b915f199060031b1c1916176003555b82516001600160401b03811161045b57600454600181811c91168015610451575b602082101461043d57601f81116103da575b506020601f821160011461037757819293945f9261036c575b50508160011b915f199060031b1c1916176004555b5f606061019f610561565b8281528260208201528260408201520152739d6891a6240d6130c54ae243d8005063d05fe14b60606101cf610561565b73fee8407e2f5e3ee68ad77cae98c434e637f516e580825273687408ab54661ba0b4aef3a44156c616c6955e076020830181905273fb03be574d14c256d56f09a198b586bdfc0a9de26040840181905293909201939093527fed8d60e34876f751cc8b014c560745351147d9de11b9347c854e881b128ea60080546001600160a01b031990811690941790557fed8d60e34876f751cc8b014c560745351147d9de11b9347c854e881b128ea6018054841690911790557fed8d60e34876f751cc8b014c560745351147d9de11b9347c854e881b128ea6028054831690911790557fed8d60e34876f751cc8b014c560745351147d9de11b9347c854e881b128ea60380548216739d6891a6240d6130c54ae243d8005063d05fe14b1790557f93ab6e17f2c461cce6ea5d4ec117e51dda77a64affc2b2c05f8cd440def0e70080549091167333347831500f1e73f0cccbb95c9f86b94d7b1123179055301461035957608052604051611a9990816105f78239608051818181610590015281816107690152610fc70152f35b63438d6fe360e01b5f523060045260245ffd5b015190505f8061017f565b601f1982169060045f52805f20915f5b8181106103c2575095836001959697106103aa575b505050811b01600455610194565b01515f1960f88460031b161c191690555f808061039c565b9192602060018192868b015181550194019201610387565b60045f527f8a35acfbc15ff81a39ae7d344fd709f28e8600b4aa8c65c6b64bfe7fe36bd19b601f830160051c81019160208410610433575b601f0160051c01905b8181106104285750610166565b5f815560010161041b565b9091508190610412565b634e487b7160e01b5f52602260045260245ffd5b90607f1690610154565b634e487b7160e01b5f52604160045260245ffd5b015190505f8061011e565b601f1982169560035f52805f20915f5b8881106104c5575083600195969798106104ad575b505050811b01600355610133565b01515f1960f88460031b161c191690555f808061049f565b9192602060018192868501518155019401920161048a565b60035f527fc2575a0e9e593c00f959f8c92f12db2869c3395a3b0502d05e2516446f71f85b601f830160051c81019160208410610536575b601f0160051c01905b81811061052b5750610102565b5f815560010161051e565b9091508190610515565b90607f16906100f0565b631e4fbdf760e01b5f525f60045260245ffd5b5f80fd5b60405190608082016001600160401b0381118382101761045b57604052565b6040519190601f01601f191682016001600160401b0381118382101761045b57604052565b81601f8201121561055d578051906001600160401b03821161045b576105d4601f8301601f1916602001610580565b928284526020838301011161055d57815f9260208093018386015e830101529056fe6080806040526004361015610012575f80fd5b5f3560e01c90816306fdde0314610a9057508063095ea7b314610a6957806318160ddd14610a4c578063205c2878146108cf5780632207ea631461084057806323b872dd146108115780632f4f21e2146106d7578063313ce567146106b257806340c10f19146105dc57806367a74a28146105bf5780636f307dc31461057b57806370a0823114610543578063715018a6146104e057806379ba50971461045b5780637b7e0a5a1461043e5780638da5cb5b1461041757806395d89b411461030b5780639a094352146102aa578063a5184baf1461027d578063a9059cbb1461024c578063b32c100114610212578063dd62ed3e146101c2578063e30c39781461019a5763f2fde38b14610124575f80fd5b346101965760203660031901126101965761013d610b6c565b6101456113fb565b60018060a01b0316806bffffffffffffffffffffffff60a01b600154161760015560018060a01b035f54167f38d16b8cac22d99fc7c124b9cd0de2d3fa1faef420bfe791d8c362d765e227005f80a3005b5f80fd5b34610196575f366003190112610196576001546040516001600160a01b039091168152602090f35b34610196576040366003190112610196576101db610b6c565b6101e3610b82565b6001600160a01b039182165f908152600660209081526040808320949093168252928352819020549051908152f35b346101965761024061023461023a61022936610bc6565b949192943691611052565b9061140e565b90610c43565b50602060405160018152f35b3461019657604036600319011261019657602061027361026a610b6c565b602435906110b9565b6040519015158152f35b34610196576020366003190112610196576004355f526011602052602060ff60405f205416604051908152f35b34610196576080366003190112610196576102c3610b6c565b6102cb610b82565b906064359167ffffffffffffffff8311610196576103056102fd6102f6610240953690600401610b98565b3691611052565b60443561140e565b91610c98565b34610196575f366003190112610196576040515f6004548060011c9060018116801561040d575b6020831081146103f9578285529081156103d55750600114610377575b6103738361035f81850382610c0d565b604051918291602083526020830190610b48565b0390f35b91905060045f527f8a35acfbc15ff81a39ae7d344fd709f28e8600b4aa8c65c6b64bfe7fe36bd19b915f905b8082106103bb5750909150810160200161035f61034f565b9192600181602092548385880101520191019092916103a3565b60ff191660208086019190915291151560051b8401909101915061035f905061034f565b634e487b7160e01b5f52602260045260245ffd5b91607f1691610332565b34610196575f366003190112610196575f546040516001600160a01b039091168152602090f35b346101965761024061023461045561022936610bc6565b906110b9565b34610196575f36600319011261019657600154336001600160a01b03909116036104cd57600180546001600160a01b03199081169091555f805433928116831782556001600160a01b0316907f8be0079c531659141344cd1fd0a4f28419497f9722a3daafe3b4186f6b6457e09080a3005b63118cdaa760e01b5f523360045260245ffd5b34610196575f366003190112610196576104f86113fb565b600180546001600160a01b03199081169091555f80549182168155906001600160a01b03167f8be0079c531659141344cd1fd0a4f28419497f9722a3daafe3b4186f6b6457e08280a3005b34610196576020366003190112610196576001600160a01b03610564610b6c565b165f526005602052602060405f2054604051908152f35b34610196575f366003190112610196576040517f00000000000000000000000000000000000000000000000000000000000000006001600160a01b03168152602090f35b34610196575f366003190112610196576020601254604051908152f35b34610196576040366003190112610196576105f5610b6c565b7f0f6798a560793a54c3bcfe86a93cde1e73087d944c0ea20544137d412139688560206024356106236113fb565b6001600160a01b0384165f818152600584526040902054909461066d9183811561069e575b610651916119a4565b865f52600585528060405f2055610668308261183a565b61183a565b835f5f80516020611a448339815191528460405183198152a361069281600254611045565b600255604051908152a2005b61065191506106ab6118a2565b9150610648565b34610196575f3660031901126101965760206106cc610fb2565b60ff60405191168152f35b34610196576040366003190112610196576106f0610b6c565b6024353033146107fe576001600160a01b038216913083146107eb577f0f6798a560793a54c3bcfe86a93cde1e73087d944c0ea20544137d4121396885916107b160209261078d6040516323b872dd60e01b8682015233602482015230604482015284606482015260648152610767608482610c0d565b7f00000000000000000000000000000000000000000000000000000000000000006116fb565b6107956113fb565b855f526005845260405f205483811561069e57610651916119a4565b835f5f80516020611a448339815191528460405183198152a36107d681600254611045565b600255604051908152a2602060405160018152f35b8263ec442f0560e01b5f5260045260245ffd5b634b637e8f60e11b5f523060045260245ffd5b3461019657606036600319011261019657602061027361082f610b6c565b610837610b82565b60443591610c98565b346101965760403660031901126101965760243560ff8116809103610196577f93ab6e17f2c461cce6ea5d4ec117e51dda77a64affc2b2c05f8cd440def0e700546001600160a01b03163303610196576012545f1981146108bb57600181016012555f52601160205260405f209060ff198254161790555f80f35b634e487b7160e01b5f52601160045260245ffd5b34610196576040366003190112610196576108e8610b6c565b6001600160a01b0316602435308214610a3957905f91338352600560205260408320548015610a27575b5f80516020611a2483398151915254604051638c14cc2160e01b8152600481019290925260248201839052600160f81b6044830152909360209185916064918391906001600160a01b03165af1928315610a1c575f936109e6575b50610996836109db9450335f5260056020528060405f205561098f308261183a565b339061183a565b5f604051811981525f80516020611a4483398151915260203392a36040519163a9059cbb60e01b60208401526024830152604482015260448152610767606482610c0d565b602060405160018152f35b92506020833d602011610a14575b81610a0160209383610c0d565b810103126101965791519161099661096d565b3d91506109f4565b6040513d5f823e3d90fd5b506020610a326118a2565b9050610912565b5063ec442f0560e01b5f5260045260245ffd5b34610196575f366003190112610196576020600254604051908152f35b34610196576040366003190112610196576020610273610a87610b6c565b60243590610c43565b34610196575f366003190112610196575f6003548060011c90600181168015610b3e575b6020831081146103f9578285529081156103d55750600114610ae0576103738361035f81850382610c0d565b91905060035f527fc2575a0e9e593c00f959f8c92f12db2869c3395a3b0502d05e2516446f71f85b915f905b808210610b245750909150810160200161035f61034f565b919260018160209254838588010152019101909291610b0c565b91607f1691610ab4565b805180835260209291819084018484015e5f828201840152601f01601f1916010190565b600435906001600160a01b038216820361019657565b602435906001600160a01b038216820361019657565b9181601f840112156101965782359167ffffffffffffffff8311610196576020838186019501011161019657565b6060600319820112610196576004356001600160a01b03811681036101965791602435916044359067ffffffffffffffff821161019657610c0991600401610b98565b9091565b90601f8019910116810190811067ffffffffffffffff821117610c2f57604052565b634e487b7160e01b5f52604160045260245ffd5b90610c5890610c5181611139565b82336111d8565b6040515f1981526001600160a01b039091169033907f8c5be1e5ebec7d5bd14f71427d1e84f3dd0314c0f7b2291e5b200ac8c7c3b92590602090a3600190565b91610ca281611139565b6001600160a01b0383165f81815260066020908152604080832033845290915290205493909290610cd3858461150b565b935f610cdd6118f8565b5f80516020611a2483398151915254604051631ce2e8d760e31b815260026004820152600160f91b60248201529260209184916044918391906001600160a01b03165af1908115610a1c575f91610f7c575b610d3a9250876117e8565b505f526005602052610d5060405f20548461150b565b5f80516020611a24833981519152546040516309c00ffd60e11b81526004810183905290602090829060249082905f906001600160a01b03165af1908115610a1c575f91610f49575b505f80516020611a2483398151915254604051630ccd46b160e31b81526004810192909252602482018790525f6044830181905260209183916064918391906001600160a01b03165af18015610a1c575f90610f15575b610e0b9150610dfd61194e565b610e056118f8565b916117e8565b604095865191610e1b8884610c0d565b60018352601f19880136602085013780610e3484611098565b5260644201908142116108bb57610e50610e5b926020956115f1565b5061098f868261183a565b606460018060a01b035f80516020611a248339815191525416935f89519586948593630ccd46b160e31b8552600485015260248401528160448401525af1948515610f0c57505f94610ed4575b50610eca610ec386610ebd86610ecf99611753565b876117e8565b33836111d8565b611255565b600190565b9493506020853d602011610f04575b81610ef060209383610c0d565b810103126101965793519293610eca610ea8565b3d9150610ee3565b513d5f823e3d90fd5b506020813d602011610f41575b81610f2f60209383610c0d565b8101031261019657610e0b9051610df0565b3d9150610f22565b90506020813d602011610f74575b81610f6460209383610c0d565b8101031261019657516020610d99565b3d9150610f57565b90506020823d602011610faa575b81610f9760209383610c0d565b8101031261019657610d3a915190610d2f565b3d9150610f8a565b60405163313ce56760e01b81526020816004817f00000000000000000000000000000000000000000000000000000000000000006001600160a01b03165afa5f9181611007575b506110045750600690565b90565b9091506020813d60201161103d575b8161102360209383610c0d565b81010312610196575160ff8116810361019657905f610ff9565b3d9150611016565b919082018092116108bb57565b92919267ffffffffffffffff8211610c2f576040519161107c601f8201601f191660200184610c0d565b829481845281830111610196578281602093845f960137010152565b8051156110a55760200190565b634e487b7160e01b5f52603260045260245ffd5b906110c381611139565b335f5260056020526110d960405f20548261150b565b906110f46110e56118f8565b6110ed61194e565b90846117e8565b9260405193611104604086610c0d565b600185526020368187013761111885611098565b5260644201938442116108bb57610ecf94611132916115f1565b5033611255565b5f80516020611a0483398151915254604051632fd514cd60e11b81526004810192909252336024830152602090829060449082906001600160a01b03165afa908115610a1c575f9161119d575b501561118e57565b632fa38b3f60e01b5f5260045ffd5b90506020813d6020116111d0575b816111b860209383610c0d565b8101031261019657518015158103610196575f611186565b3d91506111ab565b6001600160a01b0381169392908415611242576001600160a01b03831694851561122f579061122d9495610668925f52600660205260405f20905f526020528260405f2055611227308461183a565b8261183a565b565b85634a1406b160e11b5f5260045260245ffd5b8463e602df0560e01b5f5260045260245ffd5b91926001600160a01b038316929083156113e8576001600160a01b0383169485156113d5579061128791610e056118a2565b91845f5260056020525f602060408220548581156113c5575b86156113b7575b5f80516020611a248339815191525460405163f953e42760e01b8152600480820194909452848101909301919091526001600160f81b0319841660448301529092839160649183916001600160a01b03165af1908115610a1c575f91611381575b509261132f61134192856113599650885f5260056020528060405f2055610668308261183a565b845f52600560205260405f2054611753565b835f5260056020528060405f2055610668308261183a565b6012545f1981019081116108bb5760205f80516020611a4483398151915291604051908152a3565b9390506020843d6020116113af575b8161139d60209383610c0d565b8101031261019657925161132f611308565b3d9150611390565b506113c06118a2565b6112a7565b90506113cf6118a2565b906112a0565b8563ec442f0560e01b5f5260045260245ffd5b83634b637e8f60e11b5f5260045260245ffd5b5f546001600160a01b031633036104cd57565b61145d9160209160018060a01b035f80516020611a248339815191525416905f6040518096819582946302e817ff60e41b84526004840152336024840152608060448401526084830190610b48565b600160fb1b606483015203925af1908115610a1c575f916114d9575b505f80516020611a04833981519152546001600160a01b0316803b15610196576040516346ce4e4960e11b815260048101839052336024820152905f908290604490829084905af18015610a1c576114cf575090565b5f61100491610c0d565b90506020813d602011611503575b816114f460209383610c0d565b8101031261019657515f611479565b3d91506114e7565b9081156115ae575b801561159c575b602090606460018060a01b035f80516020611a248339815191525416935f60405195869485936334a6d7b960e11b8552600485015260248401528160448401525af1908115610a1c575f9161156d575090565b90506020813d602011611594575b8161158860209383610c0d565b81010312610196575190565b3d915061157b565b5060206115a76118a2565b905061151a565b90506115b86118a2565b90611513565b90602080835192838152019201905f5b8181106115db5750505090565b82518452602093840193909201916001016115ce565b5f80516020611a04833981519152545f9291906001600160a01b0316803b15610196575f604051809263155f840160e21b82526020600483015281838161163b60248201896115be565b03925af18015610a1c576116e4575b507f93ab6e17f2c461cce6ea5d4ec117e51dda77a64affc2b2c05f8cd440def0e70054604051634c0d927760e01b815260a060048201529260209284926001600160a01b0316918391879183916116a59060a48401906115be565b90632207ea6360e01b6024840152836044840152606483015282608483015203925af19182156116d8579161156d575090565b604051903d90823e3d90fd5b6116f19193505f90610c0d565b5f916116a561164a565b905f602091828151910182855af115610a1c575f513d61174a57506001600160a01b0381163b155b61172a5750565b635274afe760e01b5f9081526001600160a01b0391909116600452602490fd5b60011415611723565b6020905f9281156117d8575b80156117ca575b5f80516020611a2483398151915254604051638c14cc2160e01b8152600480820194909452848101909301919091526001600160f81b0319841660448301529092839160649183916001600160a01b03165af1908115610a1c575f9161156d575090565b506117d36118a2565b611766565b90506117e26118a2565b9061175f565b9060646020925f60018060a01b035f80516020611a248339815191525416604051968795869463cb3b940760e01b86526004860152602485015260448401525af1908115610a1c575f9161156d575090565b5f80516020611a04833981519152546001600160a01b031691823b1561019657604051631974142760e21b815260048101929092526001600160a01b03166024820152905f908290604490829084905af18015610a1c576118985750565b5f61122d91610c0d565b5f80516020611a2483398151915254604051631ce2e8d760e31b81525f60048201819052600160fb1b60248301529091602091839160449183916001600160a01b03165af1908115610a1c575f9161156d575090565b5f80516020611a2483398151915254604051631ce2e8d760e31b81525f60048201819052600160f91b60248301529091602091839160449183916001600160a01b03165af1908115610a1c575f9161156d575090565b5f80516020611a2483398151915254604051631ce2e8d760e31b815260016004820152600160f91b602482015290602090829060449082905f906001600160a01b03165af1908115610a1c575f9161156d575090565b5f80516020611a248339815191525460405163f953e42760e01b815260048101929092526024820192909252600160f81b604482015290602090829060649082905f906001600160a01b03165af1908115610a1c575f9161156d57509056feed8d60e34876f751cc8b014c560745351147d9de11b9347c854e881b128ea600ed8d60e34876f751cc8b014c560745351147d9de11b9347c854e881b128ea601ddf252ad1be2c89b69c2b068fc378daa952ba7f163c4a11628f55a4df523b3efa26469706673582212207d1cad830b9de520ac9796146fd1f50ab18b891edb6a00b0bb8040b4e7d44c1364736f6c634300081a0033","linkReferences":{}},"methodIdentifiers":{"acceptOwnership()":"79ba5097","allowance(address,address)":"dd62ed3e","approve(address,bytes32,bytes)":"b32c1001","approve(address,uint256)":"095ea7b3","balanceOf(address)":"70a08231","decimals()":"313ce567","depositFor(address,uint256)":"2f4f21e2","errorGetCounter()":"67a74a28","getErrorCodeForTransferId(uint256)":"a5184baf","mint(address,uint256)":"40c10f19","name()":"06fdde03","owner()":"8da5cb5b","pendingOwner()":"e30c3978","renounceOwnership()":"715018a6","symbol()":"95d89b41","totalSupply()":"18160ddd","transfer(address,bytes32,bytes)":"7b7e0a5a","transfer(address,uint256)":"a9059cbb","transferCallback(uint256,uint8)":"2207ea63","transferFrom(address,address,bytes32,bytes)":"9a094352","transferFrom(address,address,uint256)":"23b872dd","transferOwnership(address)":"f2fde38b","underlying()":"6f307dc3","withdrawTo(address,uint256)":"205c2878"},"id":4}