{"abi":[{"type":"constructor","inputs":[],"stateMutability":"nonpayable"},{"type":"function","name":"callbackAddress","inputs":[{"name":"","type":"uint256","internalType":"uint256"},{"name":"decryptedInput","type":"address","internalType":"address"}],"outputs":[{"name":"","type":"address","internalType":"address"}],"stateMutability":"nonpayable"},{"type":"function","name":"callbackAddresses","inputs":[{"name":"","type":"uint256","internalType":"uint256"},{"name":"decryptedInput1","type":"address","internalType":"address"},{"name":"decryptedInput2","type":"address","internalType":"address"}],"outputs":[{"name":"","type":"address","internalType":"address"}],"stateMutability":"nonpayable"},{"type":"function","name":"callbackBool","inputs":[{"name":"","type":"uint256","internalType":"uint256"},{"name":"decryptedInput","type":"bool","internalType":"bool"}],"outputs":[{"name":"","type":"bool","internalType":"bool"}],"stateMutability":"nonpayable"},{"type":"function","name":"callbackBoolTrustless","inputs":[{"name":"requestID","type":"uint256","internalType":"uint256"},{"name":"decryptedInput","type":"bool","internalType":"bool"},{"name":"signatures","type":"bytes[]","internalType":"bytes[]"}],"outputs":[{"name":"","type":"bool","internalType":"bool"}],"stateMutability":"nonpayable"},{"type":"function","name":"callbackBytes128","inputs":[{"name":"","type":"uint256","internalType":"uint256"},{"name":"decryptedInput","type":"bytes","internalType":"bytes"}],"outputs":[{"name":"","type":"bytes","internalType":"bytes"}],"stateMutability":"nonpayable"},{"type":"function","name":"callbackBytes256","inputs":[{"name":"","type":"uint256","internalType":"uint256"},{"name":"decryptedInput","type":"bytes","internalType":"bytes"}],"outputs":[{"name":"","type":"bytes","internalType":"bytes"}],"stateMutability":"nonpayable"},{"type":"function","name":"callbackBytes256Trustless","inputs":[{"name":"requestID","type":"uint256","internalType":"uint256"},{"name":"decryptedInput","type":"bytes","internalType":"bytes"},{"name":"signatures","type":"bytes[]","internalType":"bytes[]"}],"outputs":[{"name":"","type":"bytes","internalType":"bytes"}],"stateMutability":"nonpayable"},{"type":"function","name":"callbackBytes64","inputs":[{"name":"","type":"uint256","internalType":"uint256"},{"name":"decryptedInput","type":"bytes","internalType":"bytes"}],"outputs":[{"name":"","type":"bytes","internalType":"bytes"}],"stateMutability":"nonpayable"},{"type":"function","name":"callbackMixed","inputs":[{"name":"requestID","type":"uint256","internalType":"uint256"},{"name":"decBool_1","type":"bool","internalType":"bool"},{"name":"decBool_2","type":"bool","internalType":"bool"},{"name":"decUint4","type":"uint8","internalType":"uint8"},{"name":"decUint8","type":"uint8","internalType":"uint8"},{"name":"decUint16","type":"uint16","internalType":"uint16"},{"name":"decUint32","type":"uint32","internalType":"uint32"},{"name":"decUint64_1","type":"uint64","internalType":"uint64"},{"name":"decUint64_2","type":"uint64","internalType":"uint64"},{"name":"decUint64_3","type":"uint64","internalType":"uint64"},{"name":"decAddress","type":"address","internalType":"address"}],"outputs":[{"name":"","type":"uint8","internalType":"uint8"}],"stateMutability":"nonpayable"},{"type":"function","name":"callbackMixedBytes256","inputs":[{"name":"","type":"uint256","internalType":"uint256"},{"name":"decBool","type":"bool","internalType":"bool"},{"name":"decAddress","type":"address","internalType":"address"},{"name":"bytesRes","type":"bytes","internalType":"bytes"},{"name":"bytesRes2","type":"bytes","internalType":"bytes"}],"outputs":[],"stateMutability":"nonpayable"},{"type":"function","name":"callbackMixedBytes256Trustless","inputs":[{"name":"requestID","type":"uint256","internalType":"uint256"},{"name":"decBool","type":"bool","internalType":"bool"},{"name":"bytesRes","type":"bytes","internalType":"bytes"},{"name":"decAddress","type":"address","internalType":"address"},{"name":"signatures","type":"bytes[]","internalType":"bytes[]"}],"outputs":[],"stateMutability":"nonpayable"},{"type":"function","name":"callbackUint128","inputs":[{"name":"","type":"uint256","internalType":"uint256"},{"name":"decryptedInput","type":"uint128","internalType":"uint128"}],"outputs":[{"name":"","type":"uint128","internalType":"uint128"}],"stateMutability":"nonpayable"},{"type":"function","name":"callbackUint16","inputs":[{"name":"","type":"uint256","internalType":"uint256"},{"name":"decryptedInput","type":"uint16","internalType":"uint16"}],"outputs":[{"name":"","type":"uint16","internalType":"uint16"}],"stateMutability":"nonpayable"},{"type":"function","name":"callbackUint256","inputs":[{"name":"","type":"uint256","internalType":"uint256"},{"name":"decryptedInput","type":"uint256","internalType":"uint256"}],"outputs":[{"name":"","type":"uint256","internalType":"uint256"}],"stateMutability":"nonpayable"},{"type":"function","name":"callbackUint32","inputs":[{"name":"requestID","type":"uint256","internalType":"uint256"},{"name":"decryptedInput","type":"uint32","internalType":"uint32"}],"outputs":[{"name":"","type":"uint32","internalType":"uint32"}],"stateMutability":"nonpayable"},{"type":"function","name":"callbackUint4","inputs":[{"name":"","type":"uint256","internalType":"uint256"},{"name":"decryptedInput","type":"uint8","internalType":"uint8"}],"outputs":[{"name":"","type":"uint8","internalType":"uint8"}],"stateMutability":"nonpayable"},{"type":"function","name":"callbackUint64","inputs":[{"name":"","type":"uint256","internalType":"uint256"},{"name":"decryptedInput","type":"uint64","internalType":"uint64"}],"outputs":[{"name":"","type":"uint64","internalType":"uint64"}],"stateMutability":"nonpayable"},{"type":"function","name":"callbackUint8","inputs":[{"name":"","type":"uint256","internalType":"uint256"},{"name":"decryptedInput","type":"uint8","internalType":"uint8"}],"outputs":[{"name":"","type":"uint8","internalType":"uint8"}],"stateMutability":"nonpayable"},{"type":"function","name":"latestRequestID","inputs":[],"outputs":[{"name":"","type":"uint256","internalType":"uint256"}],"stateMutability":"view"},{"type":"function","name":"requestAddress","inputs":[],"outputs":[],"stateMutability":"nonpayable"},{"type":"function","name":"requestBool","inputs":[],"outputs":[],"stateMutability":"nonpayable"},{"type":"function","name":"requestBoolAboveDelay","inputs":[],"outputs":[],"stateMutability":"nonpayable"},{"type":"function","name":"requestBoolTrustless","inputs":[],"outputs":[],"stateMutability":"nonpayable"},{"type":"function","name":"requestEbytes128NonTrivial","inputs":[{"name":"inputHandle","type":"bytes32","internalType":"einput"},{"name":"inputProof","type":"bytes","internalType":"bytes"}],"outputs":[],"stateMutability":"nonpayable"},{"type":"function","name":"requestEbytes128Trivial","inputs":[{"name":"value","type":"bytes","internalType":"bytes"}],"outputs":[],"stateMutability":"nonpayable"},{"type":"function","name":"requestEbytes256NonTrivial","inputs":[{"name":"inputHandle","type":"bytes32","internalType":"einput"},{"name":"inputProof","type":"bytes","internalType":"bytes"}],"outputs":[],"stateMutability":"nonpayable"},{"type":"function","name":"requestEbytes256NonTrivialTrustless","inputs":[{"name":"inputHandle","type":"bytes32","internalType":"einput"},{"name":"inputProof","type":"bytes","internalType":"bytes"}],"outputs":[],"stateMutability":"nonpayable"},{"type":"function","name":"requestEbytes256Trivial","inputs":[{"name":"value","type":"bytes","internalType":"bytes"}],"outputs":[],"stateMutability":"nonpayable"},{"type":"function","name":"requestEbytes64NonTrivial","inputs":[{"name":"inputHandle","type":"bytes32","internalType":"einput"},{"name":"inputProof","type":"bytes","internalType":"bytes"}],"outputs":[],"stateMutability":"nonpayable"},{"type":"function","name":"requestEbytes64Trivial","inputs":[{"name":"value","type":"bytes","internalType":"bytes"}],"outputs":[],"stateMutability":"nonpayable"},{"type":"function","name":"requestMixed","inputs":[{"name":"input1","type":"uint32","internalType":"uint32"},{"name":"input2","type":"uint32","internalType":"uint32"}],"outputs":[],"stateMutability":"nonpayable"},{"type":"function","name":"requestMixedBytes256","inputs":[{"name":"inputHandle","type":"bytes32","internalType":"einput"},{"name":"inputProof","type":"bytes","internalType":"bytes"}],"outputs":[],"stateMutability":"nonpayable"},{"type":"function","name":"requestMixedBytes256Trustless","inputs":[{"name":"inputHandle","type":"bytes32","internalType":"einput"},{"name":"inputProof","type":"bytes","internalType":"bytes"}],"outputs":[],"stateMutability":"nonpayable"},{"type":"function","name":"requestSeveralAddresses","inputs":[],"outputs":[],"stateMutability":"nonpayable"},{"type":"function","name":"requestUint128","inputs":[],"outputs":[],"stateMutability":"nonpayable"},{"type":"function","name":"requestUint128NonTrivial","inputs":[{"name":"inputHandle","type":"bytes32","internalType":"einput"},{"name":"inputProof","type":"bytes","internalType":"bytes"}],"outputs":[],"stateMutability":"nonpayable"},{"type":"function","name":"requestUint16","inputs":[],"outputs":[],"stateMutability":"nonpayable"},{"type":"function","name":"requestUint256","inputs":[],"outputs":[],"stateMutability":"nonpayable"},{"type":"function","name":"requestUint256NonTrivial","inputs":[{"name":"inputHandle","type":"bytes32","internalType":"einput"},{"name":"inputProof","type":"bytes","internalType":"bytes"}],"outputs":[],"stateMutability":"nonpayable"},{"type":"function","name":"requestUint32","inputs":[{"name":"input1","type":"uint32","internalType":"uint32"},{"name":"input2","type":"uint32","internalType":"uint32"}],"outputs":[],"stateMutability":"nonpayable"},{"type":"function","name":"requestUint4","inputs":[],"outputs":[],"stateMutability":"nonpayable"},{"type":"function","name":"requestUint64","inputs":[],"outputs":[],"stateMutability":"nonpayable"},{"type":"function","name":"requestUint64NonTrivial","inputs":[{"name":"inputHandle","type":"bytes32","internalType":"einput"},{"name":"inputProof","type":"bytes","internalType":"bytes"}],"outputs":[],"stateMutability":"nonpayable"},{"type":"function","name":"requestUint8","inputs":[],"outputs":[],"stateMutability":"nonpayable"},{"type":"function","name":"yAddress","inputs":[],"outputs":[{"name":"","type":"address","internalType":"address"}],"stateMutability":"view"},{"type":"function","name":"yAddress2","inputs":[],"outputs":[{"name":"","type":"address","internalType":"address"}],"stateMutability":"view"},{"type":"function","name":"yBool","inputs":[],"outputs":[{"name":"","type":"bool","internalType":"bool"}],"stateMutability":"view"},{"type":"function","name":"yBytes128","inputs":[],"outputs":[{"name":"","type":"bytes","internalType":"bytes"}],"stateMutability":"view"},{"type":"function","name":"yBytes256","inputs":[],"outputs":[{"name":"","type":"bytes","internalType":"bytes"}],"stateMutability":"view"},{"type":"function","name":"yBytes64","inputs":[],"outputs":[{"name":"","type":"bytes","internalType":"bytes"}],"stateMutability":"view"},{"type":"function","name":"yUint128","inputs":[],"outputs":[{"name":"","type":"uint128","internalType":"uint128"}],"stateMutability":"view"},{"type":"function","name":"yUint16","inputs":[],"outputs":[{"name":"","type":"uint16","internalType":"uint16"}],"stateMutability":"view"},{"type":"function","name":"yUint256","inputs":[],"outputs":[{"name":"","type":"uint256","internalType":"uint256"}],"stateMutability":"view"},{"type":"function","name":"yUint32","inputs":[],"outputs":[{"name":"","type":"uint32","internalType":"uint32"}],"stateMutability":"view"},{"type":"function","name":"yUint4","inputs":[],"outputs":[{"name":"","type":"uint8","internalType":"uint8"}],"stateMutability":"view"},{"type":"function","name":"yUint64","inputs":[],"outputs":[{"name":"","type":"uint64","internalType":"uint64"}],"stateMutability":"view"},{"type":"function","name":"yUint64_2","inputs":[],"outputs":[{"name":"","type":"uint64","internalType":"uint64"}],"stateMutability":"view"},{"type":"function","name":"yUint64_3","inputs":[],"outputs":[{"name":"","type":"uint64","internalType":"uint64"}],"stateMutability":"view"},{"type":"function","name":"yUint8","inputs":[],"outputs":[{"name":"","type":"uint8","internalType":"uint8"}],"stateMutability":"view"}],"bytecode":{"object":"0x60808060405234610675576060816100175f93610939565b8281528260208201528260408201520152739d6891a6240d6130c54ae243d8005063d05fe14b606060405161004b81610939565b73fee8407e2f5e3ee68ad77cae98c434e637f516e580825273687408ab54661ba0b4aef3a44156c616c6955e07602080840182905273fb03be574d14c256d56f09a198b586bdfc0a9de2604080860182905295909401959095527fed8d60e34876f751cc8b014c560745351147d9de11b9347c854e881b128ea60080546001600160a01b031990811690931790555f80516020614eb783398151915280548316821790557fed8d60e34876f751cc8b014c560745351147d9de11b9347c854e881b128ea602805483169093179092557fed8d60e34876f751cc8b014c560745351147d9de11b9347c854e881b128ea60380548216739d6891a6240d6130c54ae243d8005063d05fe14b1790557f93ab6e17f2c461cce6ea5d4ec117e51dda77a64affc2b2c05f8cd440def0e70080549091167333347831500f1e73f0cccbb95c9f86b94d7b11231790559051631ce2e8d760e31b8152600160048201525f6024820181905290929183916044918391905af18015610681575f90610894575b6101d8915080600a556108c8565b5f80516020614eb783398151915254604051631ce2e8d760e31b8152600480820152600160f81b602482015290602090829060449082905f906001600160a01b03165af18015610681575f90610860575b610237915080600b556108c8565b5f80516020614eb783398151915254604051631ce2e8d760e31b8152602a6004820152600160f91b602482015290602090829060449082905f906001600160a01b03165af18015610681575f9061082c575b610297915080600c556108c8565b5f80516020614eb783398151915254604051631ce2e8d760e31b815260106004820152600360f81b602482015290602090829060449082905f906001600160a01b03165af18015610681575f906107f8575b6102f7915080600d556108c8565b5f80516020614eb783398151915254604051631ce2e8d760e31b8152602060048201819052600160fa1b60248301529091829060449082905f906001600160a01b03165af18015610681575f906107c4575b610357915080600e556108c8565b5f80516020614eb783398151915254604051631ce2e8d760e31b81526010600160401b036004820152600560f81b602482015290602090829060449082905f906001600160a01b03165af18015610681575f90610790575b6103bd915080600f556108c8565b5f80516020614eb783398151915254604051631ce2e8d760e31b81526411d440e13a6004820152600560f81b602482015290602090829060449082905f906001600160a01b03165af18015610681575f9061075c575b6104219150806010556108c8565b5f80516020614eb783398151915254604051631ce2e8d760e31b81526119006004820152600560f81b602482015290602090829060449082905f906001600160a01b03165af18015610681575f90610728575b6104829150806011556108c8565b5f80516020614eb783398151915254604051631ce2e8d760e31b81526c100000000000000000000000436004820152600360f91b602482015290602090829060449082905f906001600160a01b03165af18015610681575f906106f4575b6104ee9150806012556108c8565b5f80516020614eb783398151915254604051631ce2e8d760e31b81526043600160ea1b016004820152600160fb1b602482015290602090829060449082905f906001600160a01b03165af18015610681575f906106c0575b6105549150806015556108c8565b5f80516020614eb783398151915254604051631ce2e8d760e31b8152738ba1f109551bd432803012645ac136ddd64dba726004820152600760f81b602482015290602090829060449082905f906001600160a01b03165af18015610681575f9061068c575b6105c79150806013556108c8565b5f80516020614eb783398151915254604051631ce2e8d760e31b815273f48b8840387ba3809dae990c930f3b4766a86ca36004820152600760f81b602482015290602090829060449082905f906001600160a01b03165af18015610681575f90610649575b601481905561063a906108c8565b60405161452b908161098c8239f35b506020813d602011610679575b8161066360209383610968565b810103126106755761063a905161062c565b5f80fd5b3d9150610656565b6040513d5f823e3d90fd5b506020813d6020116106b8575b816106a660209383610968565b81010312610675576105c790516105b9565b3d9150610699565b506020813d6020116106ec575b816106da60209383610968565b81010312610675576105549051610546565b3d91506106cd565b506020813d602011610720575b8161070e60209383610968565b81010312610675576104ee90516104e0565b3d9150610701565b506020813d602011610754575b8161074260209383610968565b81010312610675576104829051610474565b3d9150610735565b506020813d602011610788575b8161077660209383610968565b81010312610675576104219051610413565b3d9150610769565b506020813d6020116107bc575b816107aa60209383610968565b81010312610675576103bd90516103af565b3d915061079d565b506020813d6020116107f0575b816107de60209383610968565b81010312610675576103579051610349565b3d91506107d1565b506020813d602011610824575b8161081260209383610968565b81010312610675576102f790516102e9565b3d9150610805565b506020813d602011610858575b8161084660209383610968565b81010312610675576102979051610289565b3d9150610839565b506020813d60201161088c575b8161087a60209383610968565b81010312610675576102379051610229565b3d915061086d565b506020813d6020116108c0575b816108ae60209383610968565b81010312610675576101d890516101ca565b3d91506108a1565b7fed8d60e34876f751cc8b014c560745351147d9de11b9347c854e881b128ea600546001600160a01b031690813b15610675575f91604483926040519485938492631974142760e21b845260048401523060248401525af180156106815761092d5750565b5f61093791610968565b565b608081019081106001600160401b0382111761095457604052565b634e487b7160e01b5f52604160045260245ffd5b601f909101601f19168101906001600160401b038211908210176109545760405256fe60806040526004361015610011575f80fd5b5f3560e01c8063031165ca146103c45780630526e1f1146103bf57806314720686146103ba57806318288c78146103b55780631d57abf4146103b057806323752ca7146103ab57806324d4e824146103a65780632c3c59f8146103a1578063323566a51461039c5780633a5ff6b0146103975780633db09e62146103925780633ffcf52a1461038d5780634838a5c8146103885780634baa0782146103835780634c4ef3c91461037e5780635022a5401461037957806354dc83dc14610374578063580ccfc51461036f5780635a1d3bea1461036a5780635a8aaf421461036557806365ca06361461036057806367c71a2b1461035b5780636c8f69cf146103565780636da8b1a41461035157806374262db91461034c57806377309623146103475780637752a687146103425780637bcbc6de1461033d578063803732861461033857806381bd4906146103335780638ac573d81461032e5780638f83ef7a146103295780639afbe861146103245780639cec1b611461031f578063a4b42fd91461031a578063be9daa4814610315578063c16d7f6b14610310578063c375d8371461030b578063c39f47e514610306578063c8779aca14610301578063cb76288d146102fc578063cc9df9f1146102f7578063cfde774a146102f2578063d16444eb146102ed578063d258d887146102e8578063d2f2150d146102e3578063e4dc7969146102de578063e572a526146102d9578063e6a6ee46146102d4578063ea1106ca146102cf578063f183f84d146102ca578063f459e61b146102c5578063f5020b9f146102c0578063f5cc5a57146102bb578063f7d25d57146102b6578063faa776f5146102b1578063fd05702b146102ac578063fea71979146102a75763ffcbf815146102a2575f80fd5b612838565b612742565b612707565b612674565b612651565b6125b3565b61258b565b612429565b612400565b6123c3565b612323565b6122c2565b612144565b61200a565b611ede565b611dde565b611da3565b611d68565b611d3f565b611c9a565b611c76565b611b5e565b611aec565b611a4c565b6119b4565b61198b565b611950565b611915565b6117df565b6117b6565b611708565b6116e2565b6116c5565b6115cb565b61149f565b6113cd565b6111ee565b611026565b610f57565b610e2b565b610cff565b610cc4565b610c89565b610b36565b610a7f565b6109f0565b610973565b6108f2565b6108d5565b610898565b610805565b6107a8565b610735565b6106e2565b6105ad565b6104ae565b61048b565b61042e565b6103d7565b5f9103126103d357565b5f80fd5b346103d3575f3660031901126103d3576103ef61285e565b600d54815115610419576020820152606442018042116104145761041291612ed3565b005b61296b565b6128a3565b6024359060ff821682036103d357565b346103d35760403660031901126103d35761044761041e565b5f805160206144b6833981519152546001600160a01b031633036103d3576016805462ff00001916601083901b62ff0000161790556020905b60ff60405191168152f35b346103d3575f3660031901126103d357602060ff60165460101c16604051908152f35b346103d3575f3660031901126103d35760405160606104cd8183610a5e565b60028252601f1901366020830137601354815115610419576020820152601454815160011015610419576040820152606442018042116104145761041291612fc7565b610a4a565b9181601f840112156103d3578235916001600160401b0383116103d357602083818601950101116103d357565b9060406003198301126103d35760043591602435906001600160401b0382116103d35761057191600401610515565b9091565b805180835260209291819084018484015e5f828201840152601f01601f1916010190565b9060206105aa928181520190610575565b90565b346103d3576105bb36610542565b5f805160206144b683398151915254919250906001600160a01b031633036103d3576001600160401b038111610510576105ff816105fa601c54610a12565b6129e9565b5f601f82116001146106595791816106338161063e9461064a965f9161064e575b508160011b915f199060031b1c19161790565b601c555b3691611108565b60405191829182610599565b0390f35b90508401355f610620565b601c5f52601f198216907f0e4562a10381dec21b205ed72637e6b1b523bdd0e4d4d50af5cd23dd4500a211915f5b8181106106ca575091839161063e9461064a9694106106b1575b5050600181811b01601c55610637565b8301355f19600384901b60f8161c191690555f806106a1565b91926020600181928689013581550194019201610687565b346103d35760403660031901126103d3575f805160206144b683398151915254602435906001600160a01b031633036103d35780602091601a55604051908152f35b60a4359061ffff821682036103d357565b346103d35760403660031901126103d35760243561ffff81168082036103d3575f805160206144b6833981519152546001600160a01b031633036103d35761079660209264ffff0000006016549160181b169064ffff000000191617601655565b604051908152f35b801515036103d357565b346103d35760403660031901126103d3576024356107c58161079e565b5f805160206144b6833981519152546001600160a01b031633036103d3576016805491151560ff1660ff1992909216821790556040519015158152602090f35b346103d35761082961082361081936610542565b9291923691611108565b90614149565b604051610837608082610a5e565b600381526108456003611159565b602082019290601f1901368437600a5482511561041957610412935261086a826128b7565b52601354610877826128c7565b5261088a6108844261297f565b8261308d565b61089381601e55565b613a9c565b346103d3575f3660031901126103d3576108b061285e565b600a548151156104195760208201526202a30042018042116104145761041291613154565b346103d3575f3660031901126103d3576020601a54604051908152f35b346103d3575f3660031901126103d3576019546040516001600160a01b039091168152602090f35b602435906001600160a01b03821682036103d357565b604435906001600160a01b03821682036103d357565b606435906001600160a01b03821682036103d357565b61014435906001600160a01b03821682036103d357565b346103d35760603660031901126103d35761098c61091a565b610994610930565b5f805160206144b6833981519152549091906001600160a01b031633036103d357601880546001600160a01b039283166001600160a01b0319918216811790925560198054949093169316929092179055604051908152602090f35b346103d3575f3660031901126103d357602060ff601654166040519015158152f35b90600182811c92168015610a40575b6020831014610a2c57565b634e487b7160e01b5f52602260045260245ffd5b91607f1691610a21565b634e487b7160e01b5f52604160045260245ffd5b90601f801991011681019081106001600160401b0382111761051057604052565b346103d3575f3660031901126103d3576040515f601d54610a9f81610a12565b8084529060018116908115610b125750600114610ac7575b61064a8361063e81850382610a5e565b601d5f9081525f80516020614496833981519152939250905b808210610af85750909150810160200161063e610ab7565b919260018160209254838588010152019101909291610ae0565b60ff191660208086019190915291151560051b8401909101915061063e9050610ab7565b346103d357610ba16020610b4c61081936610542565b5f805160206144d683398151915254610b7b90610b6f906001600160a01b031681565b6001600160a01b031690565b905f6040518096819582946302e817ff60e41b8452600960f81b9133906004860161410d565b03925af1908115610c55575f91610c5a575b505f8051602061447683398151915254610bd790610b6f906001600160a01b031681565b803b156103d3576040516346ce4e4960e11b815260048101839052336024820152905f908290604490829084905af18015610c5557610c3b575b50610c1a61285e565b9081511561041957602082015260644201804211610414576104129161321a565b80610c495f610c4f93610a5e565b806103c9565b5f610c11565b612e7c565b610c7c915060203d602011610c82575b610c748183610a5e565b810190612e87565b5f610bb3565b503d610c6a565b346103d3575f3660031901126103d357610ca161285e565b600c548151156104195760208201526064420180421161041457610412916132e0565b346103d3575f3660031901126103d357610cdc61285e565b6012548151156104195760208201526064420180421161041457610412916133a6565b346103d357610d5e6020610d1561081936610542565b5f805160206144d683398151915254610d3890610b6f906001600160a01b031681565b905f6040518096819582946302e817ff60e41b8452600160fb1b9133906004860161410d565b03925af1908115610c55575f91610e0c575b505f8051602061447683398151915254610d9490610b6f906001600160a01b031681565b803b156103d3576040516346ce4e4960e11b815260048101839052336024820152905f908290604490829084905af18015610c5557610df8575b50610dd761285e565b9081511561041957602082015260644201804211610414576104129161346c565b80610c495f610e0693610a5e565b5f610dce565b610e25915060203d602011610c8257610c748183610a5e565b5f610d70565b346103d357610e8a6020610e4161081936610542565b5f805160206144d683398151915254610e6490610b6f906001600160a01b031681565b905f6040518096819582946302e817ff60e41b8452600560f91b9133906004860161410d565b03925af1908115610c55575f91610f38575b505f8051602061447683398151915254610ec090610b6f906001600160a01b031681565b803b156103d3576040516346ce4e4960e11b815260048101839052336024820152905f908290604490829084905af18015610c5557610f24575b50610f0361285e565b90815115610419576020820152606442018042116104145761041291613532565b80610c495f610f3293610a5e565b5f610efa565b610f51915060203d602011610c8257610c748183610a5e565b5f610e9c565b346103d3575f3660031901126103d3576040515f601b54610f7781610a12565b8084529060018116908115610b125750600114610f9e5761064a8361063e81850382610a5e565b601b5f9081527f3ad8aa4f87544323a9d1e5dd902f40c356527a7955687113db5f9a85ad579dc1939250905b808210610fe25750909150810160200161063e610ab7565b919260018160209254838588010152019101909291610fca565b60206003198201126103d357600435906001600160401b0382116103d35761057191600401610515565b346103d35761103761063736610ffc565b61104661010082511115613b70565b61104e613bbc565b906110598151613c66565b5f5b8181106110d857505f5b82518110156110aa578061108c61107e60019386613ca1565b516001600160f81b03191690565b6110a361109983866129c6565b915f1a9187613ca1565b5301611065565b6104126110b6856142a2565b6110be61285e565b906110c8826128d7565b526110d24261297f565b906135f8565b805f6110e660019387613ca1565b530161105b565b6001600160401b03811161051057601f01601f191660200190565b929192611114826110ed565b916111226040519384610a5e565b8294818452818301116103d3578281602093845f960137010152565b9080601f830112156103d3578160206105aa93359101611108565b6001600160401b0381116105105760051b60200190565b9080601f830112156103d357813561118781611159565b926111956040519485610a5e565b81845260208085019260051b820101918383116103d35760208201905b8382106111c157505050505090565b81356001600160401b0381116103d3576020916111e38784809488010161113e565b8152019101906111b2565b346103d35760a03660031901126103d35760243560043561120e8261079e565b6044356001600160401b0381116103d35761122d90369060040161113e565b91611236610946565b916084356001600160401b0381116103d357611256903690600401611170565b5f805160206144b6833981519152549091906001600160a01b031633036103d35761129f9161129561129a92611290601e54918214612ad6565b613cfa565b613e27565b612b2c565b60ff801960165416911515161760165560018060a01b03166001600160601b0360a01b601854161760185580516001600160401b038111610510576112ee816112e9601d54610a12565b612a2e565b602091601f821160011461132c5761131c925f9183611321575b50508160011b915f199060031b1c19161790565b601d55005b015190505f80611308565b601d5f52601f198216925f80516020614496833981519152915f5b85811061137c57508360019510611364575b505050811b01601d55005b01515f1960f88460031b161c191690555f8080611359565b91926020600181928685015181550194019201611347565b6004359063ffffffff821682036103d357565b6024359063ffffffff821682036103d357565b60c4359063ffffffff821682036103d357565b346103d35760403660031901126103d3576104126113e9611394565b63ffffffff6113f66113a7565b61149882611490611405612880565b600a5480611412836128d7565b5261141c826128b7565b52600b54611429826128c7565b52600c54611436826128e4565b52600d54611443826128f4565b52600e5461145082612904565b52600f548061145e83612914565b528061146983612924565b5261147382612935565b5260135461148082612946565b5261148a4261297f565b906136be565b941684613fd5565b1690613fd5565b346103d3576114fe60206114b561081936610542565b5f805160206144d6833981519152546114d890610b6f906001600160a01b031681565b905f6040518096819582946302e817ff60e41b8452600360f91b9133906004860161410d565b03925af1908115610c55575f916115ac575b505f805160206144768339815191525461153490610b6f906001600160a01b031681565b803b156103d3576040516346ce4e4960e11b815260048101839052336024820152905f908290604490829084905af18015610c5557611598575b5061157761285e565b908151156104195760208201526064420180421161041457610412916133a6565b80610c495f6115a693610a5e565b5f61156e565b6115c5915060203d602011610c8257610c748183610a5e565b5f611510565b346103d35760403660031901126103d3576004356115e76113a7565b5f805160206144b6833981519152549091906001600160a01b031633036103d3575f52600860205260405f206040519081602082549182815201915f5260205f20905f5b8181106116af5761064a6116758761166b88611649818a0382610a5e565b61166b61165b61166561165b846128d7565b5163ffffffff1690565b926128b7565b0163ffffffff1690565b6016805468ffffffff00000000001916602883901b68ffffffff00000000001617905560405163ffffffff90911681529081906020820190565b825484526020909301926001928301920161162b565b346103d3575f3660031901126103d3576020601e54604051908152f35b346103d3575f3660031901126103d35760206001600160401b0360175416604051908152f35b346103d35761171961063736610ffc565b611727608082511115614007565b61172f613bf0565b9061173a8151613c76565b5f5b8181106117a157505f5b8251811015611773578061175f61107e60019386613ca1565b61176c61109983866129c6565b5301611746565b61041261177f85614306565b61178761285e565b90611791826128d7565b5261179b4261297f565b90613532565b805f6117af60019387613ca1565b530161173c565b346103d3576117d76117d26117cd61063736610ffc565b614053565b61423e565b610c1a61285e565b346103d3576117f361082361081936610542565b6117fb61285e565b908151156104195760208201526064420190814211610414575f805160206144768339815191525461183790610b6f906001600160a01b031681565b803b156103d3575f604051809263155f840160e21b825281838161185e8860048301612e6b565b03925af18015610c55576118c393602092600192611901575b505f805160206144b68339815191525461189b90610b6f906001600160a01b031681565b905f604051809781958294634c0d927760e01b84528463d2f2150d60e01b8b60048701612e96565b03925af18015610c5557610412925f916118e2575b5080601e55613a9c565b6118fb915060203d602011610c8257610c748183610a5e565b5f6118d8565b80610c495f61190f93610a5e565b5f611877565b346103d3575f3660031901126103d35761192d61285e565b600f54815115610419576020820152606442018042116104145761041291613784565b346103d3575f3660031901126103d35761196861285e565b60155481511561041957602082015260644201804211610414576104129161346c565b346103d3575f3660031901126103d35760206001600160401b0360165460481c16604051908152f35b346103d35760403660031901126103d3576119cd61041e565b5f805160206144b6833981519152546001600160a01b031633036103d3576016805461ff001916600883901b61ff0016179055602090610480565b60e435906001600160401b03821682036103d357565b61010435906001600160401b03821682036103d357565b61012435906001600160401b03821682036103d357565b346103d3576101603660031901126103d357602435600435611a6d8261079e565b60443590611a7a8261079e565b6064359260ff841684036103d3576084359260ff841684036103d35761064a94611ad894611aa6610724565b611aae6113ba565b91611ab7611a08565b93611ac0611a1e565b95611ac9611a35565b97611ad261095c565b99612c61565b60405160ff90911681529081906020820190565b346103d35760403660031901126103d3576024356001600160401b0381168082036103d3575f805160206144b6833981519152546001600160a01b031633036103d35761079660209267ffffffffffffffff60481b6016549160481b169067ffffffffffffffff60481b191617601655565b346103d357611b6c36610542565b5f805160206144b683398151915254919250906001600160a01b031633036103d3576001600160401b03811161051057611bb081611bab601b54610a12565b612a66565b5f601f8211600114611bed579181611be38161063e9461064a965f9161064e57508160011b915f199060031b1c19161790565b601b553691611108565b601b5f52601f198216907f3ad8aa4f87544323a9d1e5dd902f40c356527a7955687113db5f9a85ad579dc1915f5b818110611c5e575091839161063e9461064a969410611c45575b5050600181811b01601b55610637565b8301355f19600384901b60f8161c191690555f80611c35565b91926020600181928689013581550194019201611c1b565b346103d3575f3660031901126103d357602061ffff60165460181c16604051908152f35b346103d3575f3660031901126103d3576040515f601c54611cba81610a12565b8084529060018116908115610b125750600114611ce15761064a8361063e81850382610a5e565b601c5f9081527f0e4562a10381dec21b205ed72637e6b1b523bdd0e4d4d50af5cd23dd4500a211939250905b808210611d255750909150810160200161063e610ab7565b919260018160209254838588010152019101909291611d0d565b346103d3575f3660031901126103d35760206001600160801b0360175460401c16604051908152f35b346103d3575f3660031901126103d357611d8061285e565b600a54815115610419576020820152606442018042116104145761041291613154565b346103d3575f3660031901126103d357611dbb61285e565b600b5481511561041957602082015260644201804211610414576104129161384a565b346103d357611dec36610542565b5f805160206144b683398151915254919250906001600160a01b031633036103d3576001600160401b03811161051057611e2b816112e9601d54610a12565b5f601f8211600114611e68579181611e5e8161063e9461064a965f9161064e57508160011b915f199060031b1c19161790565b601d553691611108565b601d5f52601f198216905f80516020614496833981519152915f5b818110611ec6575091839161063e9461064a969410611ead575b5050600181811b01601d55610637565b8301355f19600384901b60f8161c191690555f80611e9d565b91926020600181928689013581550194019201611e83565b346103d357611f3d6020611ef461081936610542565b5f805160206144d683398151915254611f1790610b6f906001600160a01b031681565b905f6040518096819582946302e817ff60e41b8452600560f81b9133906004860161410d565b03925af1908115610c55575f91611feb575b505f8051602061447683398151915254611f7390610b6f906001600160a01b031681565b803b156103d3576040516346ce4e4960e11b815260048101839052336024820152905f908290604490829084905af18015610c5557611fd7575b50611fb661285e565b90815115610419576020820152606442018042116104145761041291613784565b80610c495f611fe593610a5e565b5f611fad565b612004915060203d602011610c8257610c748183610a5e565b5f611f4f565b346103d35760603660031901126103d3576004356024356001600160401b0381116103d35761203d903690600401610515565b90916044356001600160401b0381116103d35761205e903690600401611170565b5f805160206144b6833981519152549091906001600160a01b031633036103d3576120989161129561129a92611290601e54918214612ad6565b6001600160401b038111610510576120b5816112e9601d54610a12565b5f601f82116001146120e8579181611e5e8161063e9461064a965f9161064e57508160011b915f199060031b1c19161790565b601d5f52601f198216905f80516020614496833981519152915f5b81811061212c575091839161063e9461064a969410611ead575050600181811b01601d55610637565b91926020600181928689013581550194019201612103565b346103d35760a03660031901126103d3576024356121618161079e565b612169610930565b906064356001600160401b0381116103d35761218990369060040161113e565b916084356001600160401b0381116103d3576121a990369060040161113e565b5f805160206144b6833981519152549092906001600160a01b031633036103d35760ff801960165416911515161760165560018060a01b03166001600160601b0360a01b60185416176018558151916001600160401b03831161051057612215836112e9601d54610a12565b602090601f841160011461224f57928061224792610412955f926113215750508160011b915f199060031b1c19161790565b601d55612b8a565b601d5f52601f19841691905f80516020614496833981519152925f5b8181106122aa5750916001939186610412979410612292575b505050811b01601d55612b8a565b01515f1960f88460031b161c191690555f8080612284565b9293602060018192878601518155019501930161226b565b346103d35760403660031901126103d3576122db61091a565b5f805160206144b6833981519152546001600160a01b031633036103d357601880546001600160a01b0319166001600160a01b03929092169182179055604051908152602090f35b346103d35760603660031901126103d3576004356024356123438161079e565b6044356001600160401b0381116103d357612362903690600401611170565b5f805160206144b6833981519152546001600160a01b031633036103d35761129a61239c9161129561064a95611290601e54918214612ad6565b6016805491151560ff1660ff19929092168217905560405190151581529081906020820190565b346103d3576123d761082361081936610542565b6123df61285e565b908151156104195760208201526064420180421161041457610412916135f8565b346103d3575f3660031901126103d35760206001600160401b0360165460881c16604051908152f35b346103d35760403660031901126103d357612442611394565b61244a6113a7565b9061245361285e565b91600e548351156104195760208401526064420192834211610414575f805160206144768339815191525461249290610b6f906001600160a01b031681565b93843b156103d3575f604051809663155f840160e21b82528183816124ba8860048301612e6b565b03925af1918215610c55575f95602093612577575b505f805160206144b683398151915254869081906124f790610b6f906001600160a01b031681565b92612521604051998a9687958694634c0d927760e01b8652637730962360e01b9060048701612e96565b03925af1908115610c5557610412935f9261254c575b5061149863ffffffff83948194501684613fd5565b63ffffffff80935061256f6114989260203d602011610c8257610c748183610a5e565b935050612537565b80610c498861258593610a5e565b5f6124cf565b346103d3575f3660031901126103d3576018546040516001600160a01b039091168152602090f35b346103d35760403660031901126103d3576024356001600160801b03811681036103d3575f805160206144b6833981519152546001600160a01b031633036103d3576017805477ffffffffffffffffffffffffffffffff00000000000000001916604083811b77ffffffffffffffffffffffffffffffff00000000000000001691909117909155516001600160801b03909116815280602081010390f35b346103d3575f3660031901126103d357602060ff60165460081c16604051908152f35b346103d35761268861082361081936610542565b6126926004611159565b61269f6040519182610a5e565b600481526126ad6004611159565b602082019290601f1901368437600a548251156104195761041293526013546126d5836128b7565b526126df826128c7565b526126ee6117d26117cd612e17565b6126f7826128e4565b526127014261297f565b90613910565b346103d3575f3660031901126103d35761271f61285e565b6013548151156104195760208201526064420180421161041457610412916139d6565b346103d3575f3660031901126103d35761275a61285e565b600a548151156104195760208201526064420190814211610414575f805160206144768339815191525461279890610b6f906001600160a01b031681565b803b156103d3575f604051809263155f840160e21b82528183816127bf8860048301612e6b565b03925af18015610c55576118c393602092600192612824575b505f805160206144b6833981519152546127fc90610b6f906001600160a01b031681565b905f604051809781958294634c0d927760e01b845284637353772360e11b8b60048701612e96565b80610c495f61283293610a5e565b5f6127d8565b346103d3575f3660031901126103d357602063ffffffff60165460281c16604051908152f35b6040805190919061286f8382610a5e565b6001815291601f1901366020840137565b60405161016091906128928382610a5e565b600a815291601f1901366020840137565b634e487b7160e01b5f52603260045260245ffd5b8051600110156104195760400190565b8051600210156104195760600190565b8051156104195760200190565b8051600310156104195760800190565b8051600410156104195760a00190565b8051600510156104195760c00190565b8051600610156104195760e00190565b805160071015610419576101000190565b805160081015610419576101200190565b805160091015610419576101400190565b80518210156104195760209160051b010190565b634e487b7160e01b5f52601160045260245ffd5b906064820180921161041457565b90610140820180921161041457565b9060c0820180921161041457565b906080820180921161041457565b906020820180921161041457565b9190820180921161041457565b8181106129de575050565b5f81556001016129d3565b90601f82116129f6575050565b612a2291601c5f5260205f20906020601f840160051c83019310612a24575b601f0160051c01906129d3565b565b9091508190612a15565b90601f8211612a3b575050565b612a2291601d5f5260205f20906020601f840160051c83019310612a2457601f0160051c01906129d3565b90601f8211612a73575050565b612a2291601b5f5260205f20906020601f840160051c83019310612a2457601f0160051c01906129d3565b9190601f8111612aad57505050565b612a22925f5260205f20906020601f840160051c83019310612a2457601f0160051c01906129d3565b15612add57565b60405162461bcd60e51b815260206004820152602160248201527f77726f6e672072657175657374494420706173736564206279204761746577616044820152607960f81b6064820152608490fd5b15612b3357565b60405162461bcd60e51b815260206004820152602960248201527f4b4d5320646964206e6f742076657269667920746869732064656372797074696044820152681bdb881c995cdd5b1d60ba1b6064820152608490fd5b9081516001600160401b03811161051057612bb181612baa601b54610a12565b601b612a9e565b602092601f8211600114612be557612be0929382915f926113215750508160011b915f199060031b1c19161790565b601b55565b601b5f52601f198216937f3ad8aa4f87544323a9d1e5dd902f40c356527a7955687113db5f9a85ad579dc1915f5b868110612c495750836001959610612c31575b505050811b01601b55565b01515f1960f88460031b161c191690555f8080612c26565b91926020600181928685015181550194019201612c13565b939792919599989694909960018060a01b035f805160206144b6833981519152541633036103d35761166b611649612d316001600160401b039997612d23612db99f96612d06612d9c9f612ced8f9d9b612cd6612d5b9d612d369d15159060ff196016541660ff831617601655151514612dd8565b61ff006016549160081b169061ff00191617601655565b62ff00006016549160101b169062ff0000191617601655565b64ffff0000006016549160181b169064ffff000000191617601655565b5f52600860205260405f2090565b613cb2565b68ffffffff00000000006016549160281b169068ffffffff0000000000191617601655565b6016805470ffffffffffffffff0000000000000000001916604885901b67ffffffffffffffff60481b161790551691829116149182612dc5575b5050612dd8565b60018060a01b03166001600160601b0360a01b6018541617601855565b60165460081c60ff1690565b6001600160401b03161490505f80612d95565b15612ddf57565b60405162461bcd60e51b815260206004820152601060248201526f2bb937b733903232b1b93cb83a34b7b760811b6044820152606490fd5b60405190612e26604083610a5e565b6003825262557fa160e91b6020830152565b90602080835192838152019201905f5b818110612e555750505090565b8251845260209384019390920191600101612e48565b9060206105aa928181520190612e38565b6040513d5f823e3d90fd5b908160209103126103d3575190565b939092612eb16080949796939760a0875260a0870190612e38565b6001600160e01b03199097166020860152604085015260608401521515910152565b5f8051602061447683398151915254612ef690610b6f906001600160a01b031681565b91823b156103d3575f604051809463155f840160e21b8252818381612f1e8860048301612e6b565b03925af1918215610c55575f93602093612fb3575b505f805160206144b68339815191525484908190612f5b90610b6f906001600160a01b031681565b92612f8560405197889687958694634c0d927760e01b86526309353a0960e21b9060048701612e96565b03925af1908115610c55575f91612f9a575090565b6105aa915060203d602011610c8257610c748183610a5e565b80610c4986612fc193610a5e565b5f612f33565b5f8051602061447683398151915254612fea90610b6f906001600160a01b031681565b91823b156103d3575f604051809463155f840160e21b82528183816130128860048301612e6b565b03925af1918215610c55575f93602093613079575b505f805160206144b6833981519152548490819061304f90610b6f906001600160a01b031681565b92612f8560405197889687958694634c0d927760e01b865263090714b960e31b9060048701612e96565b80610c498661308793610a5e565b5f613027565b5f80516020614476833981519152546130b090610b6f906001600160a01b031681565b91823b156103d3575f604051809463155f840160e21b82528183816130d88860048301612e6b565b03925af1918215610c5557600193602093613140575b505f805160206144b6833981519152545f90819061311690610b6f906001600160a01b031681565b92612f8560405197889687958694634c0d927760e01b8652636c8f69cf60e01b9060048701612e96565b80610c495f61314e93610a5e565b5f6130ee565b5f805160206144768339815191525461317790610b6f906001600160a01b031681565b91823b156103d3575f604051809463155f840160e21b825281838161319f8860048301612e6b565b03925af1918215610c55575f93602093613206575b505f805160206144b683398151915254849081906131dc90610b6f906001600160a01b031681565b92612f8560405197889687958694634c0d927760e01b86526305878b3f60e31b9060048701612e96565b80610c498661321493610a5e565b5f6131b4565b5f805160206144768339815191525461323d90610b6f906001600160a01b031681565b91823b156103d3575f604051809463155f840160e21b82528183816132658860048301612e6b565b03925af1918215610c55575f936020936132cc575b505f805160206144b683398151915254849081906132a290610b6f906001600160a01b031681565b92612f8560405197889687958694634c0d927760e01b865263c375d83760e01b9060048701612e96565b80610c49866132da93610a5e565b5f61327a565b5f805160206144768339815191525461330390610b6f906001600160a01b031681565b91823b156103d3575f604051809463155f840160e21b825281838161332b8860048301612e6b565b03925af1918215610c55575f93602093613392575b505f805160206144b6833981519152548490819061336890610b6f906001600160a01b031681565b92612f8560405197889687958694634c0d927760e01b8652630526e1f160e01b9060048701612e96565b80610c49866133a093610a5e565b5f613340565b5f80516020614476833981519152546133c990610b6f906001600160a01b031681565b91823b156103d3575f604051809463155f840160e21b82528183816133f18860048301612e6b565b03925af1918215610c55575f93602093613458575b505f805160206144b6833981519152548490819061342e90610b6f906001600160a01b031681565b92612f8560405197889687958694634c0d927760e01b865263f5cc5a5760e01b9060048701612e96565b80610c498661346693610a5e565b5f613406565b5f805160206144768339815191525461348f90610b6f906001600160a01b031681565b91823b156103d3575f604051809463155f840160e21b82528183816134b78860048301612e6b565b03925af1918215610c55575f9360209361351e575b505f805160206144b683398151915254849081906134f490610b6f906001600160a01b031681565b92612f8560405197889687958694634c0d927760e01b86526323752ca760e01b9060048701612e96565b80610c498661352c93610a5e565b5f6134cc565b5f805160206144768339815191525461355590610b6f906001600160a01b031681565b91823b156103d3575f604051809463155f840160e21b825281838161357d8860048301612e6b565b03925af1918215610c55575f936020936135e4575b505f805160206144b683398151915254849081906135ba90610b6f906001600160a01b031681565b92612f8560405197889687958694634c0d927760e01b8652630755eafd60e21b9060048701612e96565b80610c49866135f293610a5e565b5f613592565b5f805160206144768339815191525461361b90610b6f906001600160a01b031681565b91823b156103d3575f604051809463155f840160e21b82528183816136438860048301612e6b565b03925af1918215610c55575f936020936136aa575b505f805160206144b6833981519152548490819061368090610b6f906001600160a01b031681565b92612f8560405197889687958694634c0d927760e01b865263d16444eb60e01b9060048701612e96565b80610c49866136b893610a5e565b5f613658565b5f80516020614476833981519152546136e190610b6f906001600160a01b031681565b91823b156103d3575f604051809463155f840160e21b82528183816137098860048301612e6b565b03925af1918215610c55575f93602093613770575b505f805160206144b6833981519152548490819061374690610b6f906001600160a01b031681565b92612f8560405197889687958694634c0d927760e01b86526317d3b54960e31b9060048701612e96565b80610c498661377e93610a5e565b5f61371e565b5f80516020614476833981519152546137a790610b6f906001600160a01b031681565b91823b156103d3575f604051809463155f840160e21b82528183816137cf8860048301612e6b565b03925af1918215610c55575f93602093613836575b505f805160206144b6833981519152548490819061380c90610b6f906001600160a01b031681565b92612f8560405197889687958694634c0d927760e01b865263c16d7f6b60e01b9060048701612e96565b80610c498661384493610a5e565b5f6137e4565b5f805160206144768339815191525461386d90610b6f906001600160a01b031681565b91823b156103d3575f604051809463155f840160e21b82528183816138958860048301612e6b565b03925af1918215610c55575f936020936138fc575b505f805160206144b683398151915254849081906138d290610b6f906001600160a01b031681565b92612f8560405197889687958694634c0d927760e01b865263a4b42fd960e01b9060048701612e96565b80610c498661390a93610a5e565b5f6138aa565b5f805160206144768339815191525461393390610b6f906001600160a01b031681565b91823b156103d3575f604051809463155f840160e21b825281838161395b8860048301612e6b565b03925af1918215610c55575f936020936139c2575b505f805160206144b6833981519152548490819061399890610b6f906001600160a01b031681565b92612f8560405197889687958694634c0d927760e01b865263e4dc796960e01b9060048701612e96565b80610c49866139d093610a5e565b5f613970565b5f80516020614476833981519152546139f990610b6f906001600160a01b031681565b91823b156103d3575f604051809463155f840160e21b8252818381613a218860048301612e6b565b03925af1918215610c55575f93602093613a88575b505f805160206144b68339815191525484908190613a5e90610b6f906001600160a01b031681565b92612f8560405197889687958694634c0d927760e01b86526372b9529360e11b9060048701612e96565b80610c4986613a9693610a5e565b5f613a36565b805f52600960205260405f2054613b2b575f52600960205260405f208151916001600160401b03831161051057600160401b8311610510576020908254848455808510613b10575b5001905f5260205f205f5b838110613afc5750505050565b600190602084519401938184015501613aef565b613b2590845f5285845f2091820191016129d3565b5f613ae4565b60405162461bcd60e51b815260206004820152601f60248201527f7265717565737465642068616e646c657320616c7265616479207361766564006044820152606490fd5b15613b7757565b60405162461bcd60e51b815260206004820152601760248201527f496e7075742065786365656473203235362062797465730000000000000000006044820152606490fd5b6040516101009190610120613bd18183610a5e565b8382526001600160401b0382941161051057601f190190369060200137565b60405160a09190613c018382610a5e565b6080815291601f1901366020840137565b60405160609190613c238382610a5e565b6040815291601f1901366020840137565b90613c3e826110ed565b613c4b6040519182610a5e565b8281528092613c5c601f19916110ed565b0190602036910137565b6101000390610100821161041457565b608003906080821161041457565b604003906040821161041457565b601f1981019190821161041457565b908151811015610419570160200190565b90604051918281549182825260208201905f5260205f20925f5b818110613ce1575050612a2292500383610a5e565b8454835260019485019487945060209093019201613ccc565b805f52600960205260405f205415613d1f575f5260096020526105aa60405f20613cb2565b60405162461bcd60e51b815260206004820152603360248201527f7265717565737465642068616e646c65732077657265206e6f7420736176656460448201527208199bdc881d1a1a5cc81c995c5d595cdd1251606a1b6064820152608490fd5b908160209103126103d357516105aa8161079e565b9290613dc892613dba9160018060a01b03168552608060208601526080850190612e38565b908382036040850152610575565b906060818303910152815180825260208201916020808360051b8301019401925f915b838310613dfa57505050505090565b9091929394602080613e18600193601f198682030187528951610575565b97019301930191939290613deb565b80515f905f905b808210613f1057505090613e5c81613e476020946129b8565b613e5081613c34565b9060248683013761436a565b7fed8d60e34876f751cc8b014c560745351147d9de11b9347c854e881b128ea60354909190613e9590610b6f906001600160a01b031681565b5f80516020614476833981519152549091905f906001600160a01b0316613ed26040519788968795869463dd66628760e01b865260048601613d95565b03925af1908115610c55575f91613ee7575090565b6105aa915060203d602011613f09575b613f018183610a5e565b810190613d80565b503d613ef7565b9091613f32613f2c613f2c613f258688612957565b5160081c90565b60ff1690565b6009811015613f505750613f476001916129b8565b925b0190613e2e565b60098103613f6a5750613f646001916129aa565b92613f49565b600a8103613f7e5750613f6460019161299c565b600b03613f9057613f6460019161298d565b60405162461bcd60e51b815260206004820152601760248201527f556e737570706f727465642068616e646c6520747970650000000000000000006044820152606490fd5b5f52600860205260405f20805490600160401b8210156105105760018201808255821015610419575f5260205f200155565b1561400e57565b60405162461bcd60e51b815260206004820152601760248201527f496e7075742065786365656473203132382062797465730000000000000000006044820152606490fd5b9060408251116140cf57614065613c12565b61406f8351613c84565b925f5b8481106140ba57505f5b81518110156140b3578061409561107e60019385613ca1565b6140ac6140a283896129c6565b915f1a9186613ca1565b530161407c565b5090925050565b805f6140c860019386613ca1565b5301614072565b60405162461bcd60e51b8152602060048201526016602482015275496e707574206578636565647320363420627974657360501b6044820152606490fd5b9260609261413892969596855260018060a01b03166020850152608060408501526080840190610575565b6001600160f81b0319909416910152565b5f805160206144d68339815191525461419b93926020929161417590610b6f906001600160a01b031681565b905f6040518097819582946302e817ff60e41b8452600b60f81b9133906004860161410d565b03925af1918215610c55575f9261421d575b505f805160206144768339815191525482906141d390610b6f906001600160a01b031681565b803b156103d3576040516346ce4e4960e11b815260048101929092523360248301525f908290604490829084905af18015610c555761420f5750565b80610c495f612a2293610a5e565b61423791925060203d602011610c8257610c748183610a5e565b905f6141ad565b60205f9160018060a01b035f805160206144d68339815191525416604051809481809463e0c5cbb360e01b82526142816004830191604083526040830190610575565b600960f81b9188019190915203925af1908115610c55575f91612f9a575090565b60205f9160018060a01b035f805160206144d68339815191525416604051809481809463e0c5cbb360e01b82526142e56004830191604083526040830190610575565b600b60f81b9188019190915203925af1908115610c55575f91612f9a575090565b60205f9160018060a01b035f805160206144d68339815191525416604051809481809463e0c5cbb360e01b82526143496004830191604083526040830190610575565b600560f91b9188019190915203925af1908115610c55575f91612f9a575090565b908051905f5b828110614397575050600581901b906001600160fb1b03811603610414576105aa916143e2565b600960ff6143a58385612957565b5160081c1610156143b9575b600101614370565b926001600160fb1b038416840361041457600584901b81016020018051601f19019052926143b1565b91908251601f198101908111610414576143fb90613c34565b905f5b81811061444a575061440f906129b8565b8351811015614445578061442861107e60019387613ca1565b61443e61443483613c92565b915f1a9185613ca1565b530161440f565b509150565b8061445760019287613ca1565b516001600160f81b0319165f1a61446e8286613ca1565b53016143fe56feed8d60e34876f751cc8b014c560745351147d9de11b9347c854e881b128ea6006d4407e7be21f808e6509aa9fa9143369579dd7d760fe20a2c09680fc146134f93ab6e17f2c461cce6ea5d4ec117e51dda77a64affc2b2c05f8cd440def0e700ed8d60e34876f751cc8b014c560745351147d9de11b9347c854e881b128ea601a264697066735822122090a6d955cfea81e611db0e2b2799ff24d2df6a6f150fb412b1a3989592bea7ee64736f6c634300081a0033ed8d60e34876f751cc8b014c560745351147d9de11b9347c854e881b128ea601","linkReferences":{}},"methodIdentifiers":{"callbackAddress(uint256,address)":"e572a526","callbackAddresses(uint256,address,address)":"4838a5c8","callbackBool(uint256,bool)":"2c3c59f8","callbackBoolTrustless(uint256,bool,bytes[])":"e6a6ee46","callbackBytes128(uint256,bytes)":"1d57abf4","callbackBytes256(uint256,bytes)":"d16444eb","callbackBytes256Trustless(uint256,bytes,bytes[])":"d2f2150d","callbackBytes64(uint256,bytes)":"c375d837","callbackMixed(uint256,bool,bool,uint8,uint8,uint16,uint32,uint64,uint64,uint64,address)":"be9daa48","callbackMixedBytes256(uint256,bool,address,bytes,bytes)":"e4dc7969","callbackMixedBytes256Trustless(uint256,bool,bytes,address,bytes[])":"6c8f69cf","callbackUint128(uint256,uint128)":"f5cc5a57","callbackUint16(uint256,uint16)":"24d4e824","callbackUint256(uint256,uint256)":"23752ca7","callbackUint32(uint256,uint32)":"77309623","callbackUint4(uint256,uint8)":"a4b42fd9","callbackUint64(uint256,uint64)":"c16d7f6b","callbackUint8(uint256,uint8)":"0526e1f1","latestRequestID()":"7752a687","requestAddress()":"fd05702b","requestBool()":"cc9df9f1","requestBoolAboveDelay()":"3a5ff6b0","requestBoolTrustless()":"fea71979","requestEbytes128NonTrivial(bytes32,bytes)":"5a8aaf42","requestEbytes128Trivial(bytes)":"80373286","requestEbytes256NonTrivial(bytes32,bytes)":"ea1106ca","requestEbytes256NonTrivialTrustless(bytes32,bytes)":"8ac573d8","requestEbytes256Trivial(bytes)":"67c71a2b","requestEbytes64NonTrivial(bytes32,bytes)":"5022a540","requestEbytes64Trivial(bytes)":"81bd4906","requestMixed(uint32,uint32)":"6da8b1a4","requestMixedBytes256(bytes32,bytes)":"faa776f5","requestMixedBytes256Trustless(bytes32,bytes)":"323566a5","requestSeveralAddresses()":"18288c78","requestUint128()":"580ccfc5","requestUint128NonTrivial(bytes32,bytes)":"74262db9","requestUint16()":"031165ca","requestUint256()":"9afbe861","requestUint256NonTrivial(bytes32,bytes)":"5a1d3bea","requestUint32(uint32,uint32)":"f459e61b","requestUint4()":"cfde774a","requestUint64()":"8f83ef7a","requestUint64NonTrivial(bytes32,bytes)":"d258d887","requestUint8()":"54dc83dc","yAddress()":"f5020b9f","yAddress2()":"3ffcf52a","yBool()":"4baa0782","yBytes128()":"c8779aca","yBytes256()":"4c4ef3c9","yBytes64()":"65ca0636","yUint128()":"cb76288d","yUint16()":"c39f47e5","yUint256()":"3db09e62","yUint32()":"ffcbf815","yUint4()":"f7d25d57","yUint64()":"9cec1b61","yUint64_2()":"f183f84d","yUint64_3()":"7bcbc6de","yUint8()":"14720686"},"id":4}