{"abi":[{"type":"constructor","inputs":[],"stateMutability":"nonpayable"},{"type":"function","name":"callbackAddress","inputs":[{"name":"","type":"uint256","internalType":"uint256"},{"name":"decryptedInput","type":"address","internalType":"address"}],"outputs":[{"name":"","type":"address","internalType":"address"}],"stateMutability":"nonpayable"},{"type":"function","name":"callbackAddresses","inputs":[{"name":"","type":"uint256","internalType":"uint256"},{"name":"decryptedInput1","type":"address","internalType":"address"},{"name":"decryptedInput2","type":"address","internalType":"address"}],"outputs":[{"name":"","type":"address","internalType":"address"}],"stateMutability":"nonpayable"},{"type":"function","name":"callbackBool","inputs":[{"name":"","type":"uint256","internalType":"uint256"},{"name":"decryptedInput","type":"bool","internalType":"bool"}],"outputs":[{"name":"","type":"bool","internalType":"bool"}],"stateMutability":"nonpayable"},{"type":"function","name":"callbackBoolTrustless","inputs":[{"name":"requestID","type":"uint256","internalType":"uint256"},{"name":"decryptedInput","type":"bool","internalType":"bool"},{"name":"signatures","type":"bytes[]","internalType":"bytes[]"}],"outputs":[{"name":"","type":"bool","internalType":"bool"}],"stateMutability":"nonpayable"},{"type":"function","name":"callbackBytes128","inputs":[{"name":"","type":"uint256","internalType":"uint256"},{"name":"decryptedInput","type":"bytes","internalType":"bytes"}],"outputs":[{"name":"","type":"bytes","internalType":"bytes"}],"stateMutability":"nonpayable"},{"type":"function","name":"callbackBytes256","inputs":[{"name":"","type":"uint256","internalType":"uint256"},{"name":"decryptedInput","type":"bytes","internalType":"bytes"}],"outputs":[{"name":"","type":"bytes","internalType":"bytes"}],"stateMutability":"nonpayable"},{"type":"function","name":"callbackBytes256Trustless","inputs":[{"name":"requestID","type":"uint256","internalType":"uint256"},{"name":"decryptedInput","type":"bytes","internalType":"bytes"},{"name":"signatures","type":"bytes[]","internalType":"bytes[]"}],"outputs":[{"name":"","type":"bytes","internalType":"bytes"}],"stateMutability":"nonpayable"},{"type":"function","name":"callbackBytes64","inputs":[{"name":"","type":"uint256","internalType":"uint256"},{"name":"decryptedInput","type":"bytes","internalType":"bytes"}],"outputs":[{"name":"","type":"bytes","internalType":"bytes"}],"stateMutability":"nonpayable"},{"type":"function","name":"callbackMixed","inputs":[{"name":"requestID","type":"uint256","internalType":"uint256"},{"name":"decBool_1","type":"bool","internalType":"bool"},{"name":"decBool_2","type":"bool","internalType":"bool"},{"name":"decUint4","type":"uint8","internalType":"uint8"},{"name":"decUint8","type":"uint8","internalType":"uint8"},{"name":"decUint16","type":"uint16","internalType":"uint16"},{"name":"decUint32","type":"uint32","internalType":"uint32"},{"name":"decUint64_1","type":"uint64","internalType":"uint64"},{"name":"decUint64_2","type":"uint64","internalType":"uint64"},{"name":"decUint64_3","type":"uint64","internalType":"uint64"},{"name":"decAddress","type":"address","internalType":"address"}],"outputs":[{"name":"","type":"uint8","internalType":"uint8"}],"stateMutability":"nonpayable"},{"type":"function","name":"callbackMixedBytes256","inputs":[{"name":"","type":"uint256","internalType":"uint256"},{"name":"decBool","type":"bool","internalType":"bool"},{"name":"decAddress","type":"address","internalType":"address"},{"name":"bytesRes","type":"bytes","internalType":"bytes"},{"name":"bytesRes2","type":"bytes","internalType":"bytes"}],"outputs":[],"stateMutability":"nonpayable"},{"type":"function","name":"callbackMixedBytes256Trustless","inputs":[{"name":"requestID","type":"uint256","internalType":"uint256"},{"name":"decBool","type":"bool","internalType":"bool"},{"name":"bytesRes","type":"bytes","internalType":"bytes"},{"name":"decAddress","type":"address","internalType":"address"},{"name":"signatures","type":"bytes[]","internalType":"bytes[]"}],"outputs":[],"stateMutability":"nonpayable"},{"type":"function","name":"callbackUint128","inputs":[{"name":"","type":"uint256","internalType":"uint256"},{"name":"decryptedInput","type":"uint128","internalType":"uint128"}],"outputs":[{"name":"","type":"uint128","internalType":"uint128"}],"stateMutability":"nonpayable"},{"type":"function","name":"callbackUint16","inputs":[{"name":"","type":"uint256","internalType":"uint256"},{"name":"decryptedInput","type":"uint16","internalType":"uint16"}],"outputs":[{"name":"","type":"uint16","internalType":"uint16"}],"stateMutability":"nonpayable"},{"type":"function","name":"callbackUint256","inputs":[{"name":"","type":"uint256","internalType":"uint256"},{"name":"decryptedInput","type":"uint256","internalType":"uint256"}],"outputs":[{"name":"","type":"uint256","internalType":"uint256"}],"stateMutability":"nonpayable"},{"type":"function","name":"callbackUint32","inputs":[{"name":"requestID","type":"uint256","internalType":"uint256"},{"name":"decryptedInput","type":"uint32","internalType":"uint32"}],"outputs":[{"name":"","type":"uint32","internalType":"uint32"}],"stateMutability":"nonpayable"},{"type":"function","name":"callbackUint4","inputs":[{"name":"","type":"uint256","internalType":"uint256"},{"name":"decryptedInput","type":"uint8","internalType":"uint8"}],"outputs":[{"name":"","type":"uint8","internalType":"uint8"}],"stateMutability":"nonpayable"},{"type":"function","name":"callbackUint64","inputs":[{"name":"","type":"uint256","internalType":"uint256"},{"name":"decryptedInput","type":"uint64","internalType":"uint64"}],"outputs":[{"name":"","type":"uint64","internalType":"uint64"}],"stateMutability":"nonpayable"},{"type":"function","name":"callbackUint8","inputs":[{"name":"","type":"uint256","internalType":"uint256"},{"name":"decryptedInput","type":"uint8","internalType":"uint8"}],"outputs":[{"name":"","type":"uint8","internalType":"uint8"}],"stateMutability":"nonpayable"},{"type":"function","name":"latestRequestID","inputs":[],"outputs":[{"name":"","type":"uint256","internalType":"uint256"}],"stateMutability":"view"},{"type":"function","name":"requestAddress","inputs":[],"outputs":[],"stateMutability":"nonpayable"},{"type":"function","name":"requestBool","inputs":[],"outputs":[],"stateMutability":"nonpayable"},{"type":"function","name":"requestBoolAboveDelay","inputs":[],"outputs":[],"stateMutability":"nonpayable"},{"type":"function","name":"requestBoolTrustless","inputs":[],"outputs":[],"stateMutability":"nonpayable"},{"type":"function","name":"requestEbytes128NonTrivial","inputs":[{"name":"inputHandle","type":"bytes32","internalType":"einput"},{"name":"inputProof","type":"bytes","internalType":"bytes"}],"outputs":[],"stateMutability":"nonpayable"},{"type":"function","name":"requestEbytes128Trivial","inputs":[{"name":"value","type":"bytes","internalType":"bytes"}],"outputs":[],"stateMutability":"nonpayable"},{"type":"function","name":"requestEbytes256NonTrivial","inputs":[{"name":"inputHandle","type":"bytes32","internalType":"einput"},{"name":"inputProof","type":"bytes","internalType":"bytes"}],"outputs":[],"stateMutability":"nonpayable"},{"type":"function","name":"requestEbytes256NonTrivialTrustless","inputs":[{"name":"inputHandle","type":"bytes32","internalType":"einput"},{"name":"inputProof","type":"bytes","internalType":"bytes"}],"outputs":[],"stateMutability":"nonpayable"},{"type":"function","name":"requestEbytes256Trivial","inputs":[{"name":"value","type":"bytes","internalType":"bytes"}],"outputs":[],"stateMutability":"nonpayable"},{"type":"function","name":"requestEbytes64NonTrivial","inputs":[{"name":"inputHandle","type":"bytes32","internalType":"einput"},{"name":"inputProof","type":"bytes","internalType":"bytes"}],"outputs":[],"stateMutability":"nonpayable"},{"type":"function","name":"requestEbytes64Trivial","inputs":[{"name":"value","type":"bytes","internalType":"bytes"}],"outputs":[],"stateMutability":"nonpayable"},{"type":"function","name":"requestMixed","inputs":[{"name":"input1","type":"uint32","internalType":"uint32"},{"name":"input2","type":"uint32","internalType":"uint32"}],"outputs":[],"stateMutability":"nonpayable"},{"type":"function","name":"requestMixedBytes256","inputs":[{"name":"inputHandle","type":"bytes32","internalType":"einput"},{"name":"inputProof","type":"bytes","internalType":"bytes"}],"outputs":[],"stateMutability":"nonpayable"},{"type":"function","name":"requestMixedBytes256Trustless","inputs":[{"name":"inputHandle","type":"bytes32","internalType":"einput"},{"name":"inputProof","type":"bytes","internalType":"bytes"}],"outputs":[],"stateMutability":"nonpayable"},{"type":"function","name":"requestSeveralAddresses","inputs":[],"outputs":[],"stateMutability":"nonpayable"},{"type":"function","name":"requestUint128","inputs":[],"outputs":[],"stateMutability":"nonpayable"},{"type":"function","name":"requestUint128NonTrivial","inputs":[{"name":"inputHandle","type":"bytes32","internalType":"einput"},{"name":"inputProof","type":"bytes","internalType":"bytes"}],"outputs":[],"stateMutability":"nonpayable"},{"type":"function","name":"requestUint16","inputs":[],"outputs":[],"stateMutability":"nonpayable"},{"type":"function","name":"requestUint256","inputs":[],"outputs":[],"stateMutability":"nonpayable"},{"type":"function","name":"requestUint256NonTrivial","inputs":[{"name":"inputHandle","type":"bytes32","internalType":"einput"},{"name":"inputProof","type":"bytes","internalType":"bytes"}],"outputs":[],"stateMutability":"nonpayable"},{"type":"function","name":"requestUint32","inputs":[{"name":"input1","type":"uint32","internalType":"uint32"},{"name":"input2","type":"uint32","internalType":"uint32"}],"outputs":[],"stateMutability":"nonpayable"},{"type":"function","name":"requestUint4","inputs":[],"outputs":[],"stateMutability":"nonpayable"},{"type":"function","name":"requestUint64","inputs":[],"outputs":[],"stateMutability":"nonpayable"},{"type":"function","name":"requestUint64NonTrivial","inputs":[{"name":"inputHandle","type":"bytes32","internalType":"einput"},{"name":"inputProof","type":"bytes","internalType":"bytes"}],"outputs":[],"stateMutability":"nonpayable"},{"type":"function","name":"requestUint8","inputs":[],"outputs":[],"stateMutability":"nonpayable"},{"type":"function","name":"yAddress","inputs":[],"outputs":[{"name":"","type":"address","internalType":"address"}],"stateMutability":"view"},{"type":"function","name":"yAddress2","inputs":[],"outputs":[{"name":"","type":"address","internalType":"address"}],"stateMutability":"view"},{"type":"function","name":"yBool","inputs":[],"outputs":[{"name":"","type":"bool","internalType":"bool"}],"stateMutability":"view"},{"type":"function","name":"yBytes128","inputs":[],"outputs":[{"name":"","type":"bytes","internalType":"bytes"}],"stateMutability":"view"},{"type":"function","name":"yBytes256","inputs":[],"outputs":[{"name":"","type":"bytes","internalType":"bytes"}],"stateMutability":"view"},{"type":"function","name":"yBytes64","inputs":[],"outputs":[{"name":"","type":"bytes","internalType":"bytes"}],"stateMutability":"view"},{"type":"function","name":"yUint128","inputs":[],"outputs":[{"name":"","type":"uint128","internalType":"uint128"}],"stateMutability":"view"},{"type":"function","name":"yUint16","inputs":[],"outputs":[{"name":"","type":"uint16","internalType":"uint16"}],"stateMutability":"view"},{"type":"function","name":"yUint256","inputs":[],"outputs":[{"name":"","type":"uint256","internalType":"uint256"}],"stateMutability":"view"},{"type":"function","name":"yUint32","inputs":[],"outputs":[{"name":"","type":"uint32","internalType":"uint32"}],"stateMutability":"view"},{"type":"function","name":"yUint4","inputs":[],"outputs":[{"name":"","type":"uint8","internalType":"uint8"}],"stateMutability":"view"},{"type":"function","name":"yUint64","inputs":[],"outputs":[{"name":"","type":"uint64","internalType":"uint64"}],"stateMutability":"view"},{"type":"function","name":"yUint64_2","inputs":[],"outputs":[{"name":"","type":"uint64","internalType":"uint64"}],"stateMutability":"view"},{"type":"function","name":"yUint64_3","inputs":[],"outputs":[{"name":"","type":"uint64","internalType":"uint64"}],"stateMutability":"view"},{"type":"function","name":"yUint8","inputs":[],"outputs":[{"name":"","type":"uint8","internalType":"uint8"}],"stateMutability":"view"}],"bytecode":{"object":"0x6080604052346100275761001161040e565b61001961002c565b615f4b6111268239615f4b90f35b610032565b60405190565b5f80fd5b5f1b90565b906100475f1991610036565b9181191691161790565b90565b90565b61006b61006661007092610051565b610054565b610051565b90565b90565b9061008b61008661009292610057565b610073565b825461003b565b9055565b5f1c90565b90565b6100aa6100af91610096565b61009b565b90565b6100bc905461009e565b90565b90565b6100d66100d16100db926100bf565b610054565b610051565b90565b90565b906100f66100f16100fd92610057565b6100de565b825461003b565b9055565b90565b61011061011591610096565b610101565b90565b6101229054610104565b90565b90565b61013c61013761014192610125565b610054565b610051565b90565b90565b9061015c61015761016392610057565b610144565b825461003b565b9055565b90565b61017661017b91610096565b610167565b90565b610188905461016a565b90565b90565b6101a261019d6101a79261018b565b610054565b610051565b90565b90565b906101c26101bd6101c992610057565b6101aa565b825461003b565b9055565b90565b6101dc6101e191610096565b6101cd565b90565b6101ee90546101d0565b90565b90565b61020861020361020d926101f1565b610054565b610051565b90565b90565b9061022861022361022f92610057565b610210565b825461003b565b9055565b90565b61024261024791610096565b610233565b90565b6102549054610236565b90565b90565b61026e61026961027392610257565b610054565b610051565b90565b90565b9061028e61028961029592610057565b610276565b825461003b565b9055565b90565b6102a86102ad91610096565b610299565b90565b6102ba905461029c565b90565b90565b6102d46102cf6102d9926102bd565b610054565b610051565b90565b90565b6102f36102ee6102f8926102dc565b610054565b610051565b90565b90565b61031261030d610317926102fb565b610054565b610051565b90565b90565b9061033261032d61033992610057565b61031a565b825461003b565b9055565b90565b61034c61035191610096565b61033d565b90565b61035e9054610340565b90565b90565b61037861037361037d92610361565b610054565b610051565b90565b90565b9061039861039361039f92610057565b610380565b825461003b565b9055565b90565b6103b26103b791610096565b6103a3565b90565b6103c490546103a6565b90565b90565b906103df6103da6103e692610057565b6103c7565b825461003b565b9055565b90565b6103f96103fe91610096565b6103ea565b90565b61040b90546103ed565b90565b61041661066b565b61042a61042360016106e3565b600a610076565b61043c610437600a6100b2565b61075a565b61045861045161044c60046100c2565b6107aa565b600b6100e1565b61046a610465600b610118565b6107d0565b61048661047f61047a602a610128565b61081d565b600c610147565b610498610493600c61017e565b610843565b6104b46104ad6104a8601061018e565b610890565b600d6101ad565b6104c66104c1600d6101e4565b6108b6565b6104e26104db6104d660206101f4565b610900565b600e610213565b6104f46104ef600e61024a565b610926565b61051661050f61050a6010600160401b0361025a565b610973565b600f610279565b610528610523600f6102b0565b610999565b61054861054161053c6411d440e13a6102c0565b610973565b6010610279565b61055a61055560106102b0565b610999565b61057761057061056b6119006102df565b610973565b6011610279565b61058961058460116102b0565b610999565b6105b16105aa6105a56c100000000000000000000000436102fe565b6109e6565b601261031d565b6105c36105be6012610354565b610a0c565b6105e56105de6105d96043600160ea1b01610364565b610a59565b6015610383565b6105f76105f260156103ba565b610a7f565b61061e610617738ba1f109551bd432803012645ac136ddd64dba72610af4565b60136103ca565b61063061062b6013610401565b610b2a565b61065761065073f48b8840387ba3809dae990c930f3b4766a86ca3610af4565b60146103ca565b6106696106646014610401565b610b2a565b565b610673610675565b565b61067d61068f565b61068d610688610b4b565b610bb6565b565b61069f61069a610ca6565b610d3f565b565b5f90565b90565b6106bc6106b76106c1926106a5565b610054565b610051565b90565b90565b6106db6106d66106e0926106c4565b610054565b610051565b90565b6106eb6106a1565b505f14610707576107046106ff60016106c7565b610d72565b90565b6107186107135f6106a8565b610d72565b90565b60018060a01b031690565b61073a61073561073f9261071b565b610054565b61071b565b90565b61074b90610726565b90565b61075790610742565b90565b61076661077591610057565b61076f3061074e565b90610e52565b565b5f90565b60ff1690565b61079561079061079a926106c4565b610054565b61077b565b90565b6107a76001610781565b90565b6107c86107cd916107b9610777565b506107c261079d565b90610fb8565b610057565b90565b6107dc6107eb91610057565b6107e53061074e565b90610e52565b565b5f90565b90565b61080861080361080d926107f1565b610054565b61077b565b90565b61081a60026107f4565b90565b61083b6108409161082c6107ed565b50610835610810565b90610fb8565b610057565b90565b61084f61085e91610057565b6108583061074e565b90610e52565b565b5f90565b90565b61087b61087661088092610864565b610054565b61077b565b90565b61088d6003610867565b90565b6108ae6108b39161089f610860565b506108a8610883565b90610fb8565b610057565b90565b6108c26108d191610057565b6108cb3061074e565b90610e52565b565b5f90565b6108eb6108e66108f0926100bf565b610054565b61077b565b90565b6108fd60046108d7565b90565b61091e6109239161090f6108d3565b506109186108f3565b90610fb8565b610057565b90565b61093261094191610057565b61093b3061074e565b90610e52565b565b5f90565b90565b61095e61095961096392610947565b610054565b61077b565b90565b610970600561094a565b90565b61099161099691610982610943565b5061098b610966565b90610fb8565b610057565b90565b6109a56109b491610057565b6109ae3061074e565b90610e52565b565b5f90565b90565b6109d16109cc6109d6926109ba565b610054565b61077b565b90565b6109e360066109bd565b90565b610a04610a09916109f56109b6565b506109fe6109d9565b90610fb8565b610057565b90565b610a18610a2791610057565b610a213061074e565b90610e52565b565b5f90565b90565b610a44610a3f610a4992610a2d565b610054565b61077b565b90565b610a566008610a30565b90565b610a77610a7c91610a68610a29565b50610a71610a4c565b90610fb8565b610057565b90565b610a8b610a9a91610057565b610a943061074e565b90610e52565b565b5f90565b610aa990610726565b90565b90565b610ac3610abe610ac892610aac565b610054565b61077b565b90565b610ad56007610aaf565b90565b610aec610ae7610af19261071b565b610054565b610051565b90565b610b22610b0c610b2792610b06610a9c565b50610aa0565b610b1d610b17610acb565b91610ad8565b610fb8565b610057565b90565b610b36610b4591610057565b610b3f3061074e565b90610e52565b565b5f90565b610b53610b47565b507333347831500f1e73f0cccbb95c9f86b94d7b112390565b90610b7d60018060a01b0391610036565b9181191691161790565b610b9090610742565b90565b90565b90610bab610ba6610bb292610b87565b610b93565b8254610b6c565b9055565b610bc9905f610bc3611067565b01610b96565b565b601f801991011690565b634e487b7160e01b5f52604160045260245ffd5b90610bf390610bcb565b810190811060018060401b03821117610c0b57604052565b610bd5565b90610c23610c1c61002c565b9283610be9565b565b610c2f6080610c10565b90565b5f90565b610c3e610c25565b90602080808085610c4d610c32565b815201610c58610c32565b815201610c63610c32565b815201610c6e610c32565b81525050565b610c7c610c36565b90565b610c896080610c10565b90565b610c959061071b565b90565b90610ca290610c8c565b9052565b610cae610c74565b5073fee8407e2f5e3ee68ad77cae98c434e637f516e5610d3c73687408ab54661ba0b4aef3a44156c616c6955e07610d3373fb03be574d14c256d56f09a198b586bdfc0a9de2610d2a739d6891a6240d6130c54ae243d8005063d05fe14b93610d21610d18610c7f565b975f8901610c98565b60208701610c98565b60408501610c98565b60608301610c98565b90565b610d4890611098565b565b610d5e610d59610d63926106a5565b610054565b61077b565b90565b610d6f5f610d4a565b90565b610d90610d9591610d816106a1565b50610d8a610d66565b90610fb8565b610057565b90565b60018060a01b031690565b610daf610db491610096565b610d98565b90565b610dc19054610da3565b90565b610dcd90610726565b90565b610dd990610dc4565b90565b610de590610742565b90565b5f80fd5b60e01b90565b5f80fd5b5f910312610e0057565b610df2565b610e0e90610051565b9052565b610e1b90610c8c565b9052565b916020610e40929493610e3960408201965f830190610e05565b0190610e12565b565b610e4a61002c565b3d5f823e3d90fd5b610e74610e6f610e6a5f610e64611101565b01610db7565b610dd0565b610ddc565b916365d0509c919092803b15610eef57610ea15f8094610eac610e9561002c565b97889687958694610dec565b845260048401610e1f565b03925af18015610eea57610ebe575b50565b610edd905f3d8111610ee3575b610ed58183610be9565b810190610df6565b5f610ebb565b503d610ecb565b610e42565b610de8565b5f90565b610f0190610726565b90565b610f0d90610ef8565b90565b610f1990610742565b90565b60ff60f81b1690565b60f81b90565b610f3f610f3a610f449261077b565b610f25565b610f1c565b90565b610f5081610051565b03610f5757565b5f80fd5b90505190610f6882610f47565b565b90602082820312610f8357610f80915f01610f5b565b90565b610df2565b610f9190610f1c565b9052565b916020610fb6929493610faf60408201965f830190610e05565b0190610f88565b565b90602090610fc4610ef4565b50610fe8610fe3610fde6001610fd8611101565b01610db7565b610f04565b610f10565b6110135f610ffb63e71746b89694610f2b565b9561101e61100761002c565b97889687958694610dec565b845260048401610f95565b03925af1908115611062575f91611034575b5090565b611055915060203d811161105b575b61104d8183610be9565b810190610f6a565b5f611030565b503d611043565b610e42565b7f93ab6e17f2c461cce6ea5d4ec117e51dda77a64affc2b2c05f8cd440def0e70090565b6110959051610c8c565b90565b6110ff9060036110f860606110ab611101565b936110c26110ba5f830161108b565b5f8701610b96565b6110da6110d16020830161108b565b60018701610b96565b6110f26110e96040830161108b565b60028701610b96565b0161108b565b9101610b96565b565b7fed8d60e34876f751cc8b014c560745351147d9de11b9347c854e881b128ea6009056fe60806040526004361015610013575b611dcb565b61001d5f356103cc565b8063031165ca146103c75780630526e1f1146103c257806314720686146103bd57806318288c78146103b85780631d57abf4146103b357806323752ca7146103ae57806324d4e824146103a95780632c3c59f8146103a4578063323566a51461039f5780633a5ff6b01461039a5780633db09e62146103955780633ffcf52a146103905780634838a5c81461038b5780634baa0782146103865780634c4ef3c9146103815780635022a5401461037c57806354dc83dc14610377578063580ccfc5146103725780635a1d3bea1461036d5780635a8aaf421461036857806365ca06361461036357806367c71a2b1461035e5780636c8f69cf146103595780636da8b1a41461035457806374262db91461034f578063773096231461034a5780637752a687146103455780637bcbc6de14610340578063803732861461033b57806381bd4906146103365780638ac573d8146103315780638f83ef7a1461032c5780639afbe861146103275780639cec1b6114610322578063a4b42fd91461031d578063be9daa4814610318578063c16d7f6b14610313578063c375d8371461030e578063c39f47e514610309578063c8779aca14610304578063cb76288d146102ff578063cc9df9f1146102fa578063cfde774a146102f5578063d16444eb146102f0578063d258d887146102eb578063d2f2150d146102e6578063e4dc7969146102e1578063e572a526146102dc578063e6a6ee46146102d7578063ea1106ca146102d2578063f183f84d146102cd578063f459e61b146102c8578063f5020b9f146102c3578063f5cc5a57146102be578063f7d25d57146102b9578063faa776f5146102b4578063fd05702b146102af578063fea71979146102aa5763ffcbf8150361000e57611d96565b611d24565b611cf1565b611cbd565b611c88565b611c42565b611bbd565b611b7a565b611b45565b611b01565b611acb565b611a44565b6119e0565b611920565b611882565b61184c565b611819565b6117e6565b6117b1565b6116fa565b6116b6565b611643565b61160d565b61159e565b611497565b611462565b61141f565b6113ec565b6113b8565b611384565b611350565b61131b565b611275565b611230565b6111ad565b611179565b6110e9565b610ede565b610e73565b610e30565b610dfc565b610dc9565b610d96565b610d62565b610d2d565b610b76565b610b05565b610a73565b6109c5565b61095a565b610926565b610884565b6107d7565b610728565b6106a3565b610574565b61053f565b6104c9565b6103f4565b60e01c90565b60405190565b5f80fd5b5f80fd5b5f9103126103ea57565b6103dc565b5f0190565b34610422576104043660046103e0565b61040c611f8d565b6104146103d2565b8061041e816103ef565b0390f35b6103d8565b5f80fd5b90565b6104378161042b565b0361043e57565b5f80fd5b9050359061044f8261042e565b565b60ff1690565b61046081610451565b0361046757565b5f80fd5b9050359061047882610457565b565b91906040838203126104a2578061049661049f925f8601610442565b9360200161046b565b90565b6103dc565b6104b090610451565b9052565b91906104c7905f602085019401906104a7565b565b346104fa576104f66104e56104df36600461047a565b906120b4565b6104ed6103d2565b918291826104b4565b0390f35b6103d8565b1c90565b60ff1690565b61051990600861051e93026104ff565b610503565b90565b9061052c9154610509565b90565b61053c6016600290610521565b90565b3461056f5761054f3660046103e0565b61056b61055a61052f565b6105626103d2565b918291826104b4565b0390f35b6103d8565b346105a2576105843660046103e0565b61058c61210c565b6105946103d2565b8061059e816103ef565b0390f35b6103d8565b5f80fd5b5f80fd5b5f80fd5b909182601f830112156105ed5781359167ffffffffffffffff83116105e85760200192600183028401116105e357565b6105af565b6105ab565b6105a7565b9190916040818403126106335761060b835f8301610442565b92602082013567ffffffffffffffff811161062e5761062a92016105b3565b9091565b610427565b6103dc565b5190565b60209181520190565b90825f9392825e0152565b601f801991011690565b6106796106826020936106879361067081610638565b9384809361063c565b95869101610645565b610650565b0190565b6106a09160208201915f81840391015261065a565b90565b346106d4576106d06106bf6106b93660046105f2565b9161241e565b6106c76103d2565b9182918261068b565b0390f35b6103d8565b919060408382031261070157806106f56106fe925f8601610442565b93602001610442565b90565b6103dc565b61070f9061042b565b9052565b9190610726905f60208501940190610706565b565b346107595761075561074461073e3660046106d9565b906124b1565b61074c6103d2565b91829182610713565b0390f35b6103d8565b61ffff1690565b61076e8161075e565b0361077557565b5f80fd5b9050359061078682610765565b565b91906040838203126107b057806107a46107ad925f8601610442565b93602001610779565b90565b6103dc565b6107be9061075e565b9052565b91906107d5905f602085019401906107b5565b565b34610808576108046107f36107ed366004610788565b9061256b565b6107fb6103d2565b918291826107c2565b0390f35b6103d8565b151590565b61081b8161080d565b0361082257565b5f80fd5b9050359061083382610812565b565b919060408382031261085d578061085161085a925f8601610442565b93602001610826565b90565b6103dc565b61086b9061080d565b9052565b9190610882905f60208501940190610862565b565b346108b5576108b16108a061089a366004610835565b90612636565b6108a86103d2565b9182918261086f565b0390f35b6103d8565b90565b6108c6816108ba565b036108cd57565b5f80fd5b905035906108de826108bd565b565b919091604081840312610921576108f9835f83016108d1565b92602082013567ffffffffffffffff811161091c5761091892016105b3565b9091565b610427565b6103dc565b346109555761093f6109393660046108e0565b9161268e565b6109476103d2565b80610951816103ef565b0390f35b6103d8565b346109885761096a3660046103e0565b6109726127a2565b61097a6103d2565b80610984816103ef565b0390f35b6103d8565b90565b6109a09060086109a593026104ff565b61098d565b90565b906109b39154610990565b90565b6109c2601a5f906109a8565b90565b346109f5576109d53660046103e0565b6109f16109e06109b6565b6109e86103d2565b91829182610713565b0390f35b6103d8565b60018060a01b031690565b610a15906008610a1a93026104ff565b6109fa565b90565b90610a289154610a05565b90565b610a3760195f90610a1d565b90565b60018060a01b031690565b610a4e90610a3a565b90565b610a5a90610a45565b9052565b9190610a71905f60208501940190610a51565b565b34610aa357610a833660046103e0565b610a9f610a8e610a2b565b610a966103d2565b91829182610a5e565b0390f35b6103d8565b610ab181610a45565b03610ab857565b5f80fd5b90503590610ac982610aa8565b565b9091606082840312610b0057610afd610ae6845f8501610442565b93610af48160208601610abc565b93604001610abc565b90565b6103dc565b34610b3657610b32610b21610b1b366004610acb565b916128ba565b610b296103d2565b91829182610a5e565b0390f35b6103d8565b60ff1690565b610b51906008610b5693026104ff565b610b3b565b90565b90610b649154610b41565b90565b610b7360165f90610b59565b90565b34610ba657610b863660046103e0565b610ba2610b91610b67565b610b996103d2565b9182918261086f565b0390f35b6103d8565b634e487b7160e01b5f525f60045260245ffd5b634e487b7160e01b5f52602260045260245ffd5b9060016002830492168015610bf2575b6020831014610bed57565b610bbe565b91607f1691610be2565b60209181520190565b5f5260205f2090565b905f9291805490610c28610c2183610bd2565b8094610bfc565b916001811690815f14610c7f5750600114610c43575b505050565b610c509192939450610c05565b915f925b818410610c6757505001905f8080610c3e565b60018160209295939554848601520191019290610c54565b92949550505060ff19168252151560200201905f8080610c3e565b90610ca491610c0e565b90565b634e487b7160e01b5f52604160045260245ffd5b90610cc590610650565b810190811067ffffffffffffffff821117610cdf57604052565b610ca7565b90610d04610cfd92610cf46103d2565b93848092610c9a565b0383610cbb565b565b905f10610d1957610d1690610ce4565b90565b610bab565b610d2a601d5f90610d06565b90565b34610d5d57610d3d3660046103e0565b610d59610d48610d1e565b610d506103d2565b9182918261068b565b0390f35b6103d8565b34610d9157610d7b610d753660046108e0565b916128d0565b610d836103d2565b80610d8d816103ef565b0390f35b6103d8565b34610dc457610da63660046103e0565b610dae612979565b610db66103d2565b80610dc0816103ef565b0390f35b6103d8565b34610df757610dd93660046103e0565b610de1612a16565b610de96103d2565b80610df3816103ef565b0390f35b6103d8565b34610e2b57610e15610e0f3660046108e0565b91612a8f565b610e1d6103d2565b80610e27816103ef565b0390f35b6103d8565b34610e5f57610e49610e433660046108e0565b91612b14565b610e516103d2565b80610e5b816103ef565b0390f35b6103d8565b610e70601b5f90610d06565b90565b34610ea357610e833660046103e0565b610e9f610e8e610e64565b610e966103d2565b9182918261068b565b0390f35b6103d8565b90602082820312610ed9575f82013567ffffffffffffffff8111610ed457610ed092016105b3565b9091565b610427565b6103dc565b34610f0d57610ef7610ef1366004610ea8565b90612b99565b610eff6103d2565b80610f09816103ef565b0390f35b6103d8565b5f80fd5b90610f29610f226103d2565b9283610cbb565b565b67ffffffffffffffff8111610f4957610f45602091610650565b0190565b610ca7565b90825f939282370152565b90929192610f6e610f6982610f2b565b610f16565b93818552602085019082840111610f8a57610f8892610f4e565b565b610f12565b9080601f83011215610fad57816020610faa93359101610f59565b90565b6105a7565b67ffffffffffffffff8111610fca5760208091020190565b610ca7565b929190610fe3610fde82610fb2565b610f16565b938185526020808601920281019183831161103a5781905b838210611009575050505050565b813567ffffffffffffffff81116110355760209161102a8784938701610f8f565b815201910190610ffb565b6105a7565b6105af565b9080601f8301121561105d5781602061105a93359101610fcf565b90565b6105a7565b91909160a0818403126110e45761107b835f8301610442565b926110898160208401610826565b92604083013567ffffffffffffffff81116110df57826110aa918501610f8f565b926110b88360608301610abc565b92608082013567ffffffffffffffff81116110da576110d7920161103f565b90565b610427565b610427565b6103dc565b3461111b576111056110fc366004611062565b93929092612f16565b61110d6103d2565b80611117816103ef565b0390f35b6103d8565b63ffffffff1690565b61113281611120565b0361113957565b5f80fd5b9050359061114a82611129565b565b91906040838203126111745780611168611171925f860161113d565b9360200161113d565b90565b6103dc565b346111a85761119261118c36600461114c565b90613086565b61119a6103d2565b806111a4816103ef565b0390f35b6103d8565b346111dc576111c66111c03660046108e0565b916132c4565b6111ce6103d2565b806111d8816103ef565b0390f35b6103d8565b919060408382031261120957806111fd611206925f8601610442565b9360200161113d565b90565b6103dc565b61121790611120565b9052565b919061122e905f6020850194019061120e565b565b346112615761125d61124c6112463660046111e1565b9061348a565b6112546103d2565b9182918261121b565b0390f35b6103d8565b611272601e5f906109a8565b90565b346112a5576112853660046103e0565b6112a1611290611266565b6112986103d2565b91829182610713565b0390f35b6103d8565b67ffffffffffffffff1690565b6112c79060086112cc93026104ff565b6112aa565b90565b906112da91546112b7565b90565b6112e960175f906112cf565b90565b67ffffffffffffffff1690565b611302906112ec565b9052565b9190611319905f602085019401906112f9565b565b3461134b5761132b3660046103e0565b6113476113366112dd565b61133e6103d2565b91829182611306565b0390f35b6103d8565b3461137f57611369611363366004610ea8565b9061349f565b6113716103d2565b8061137b816103ef565b0390f35b6103d8565b346113b35761139d611397366004610ea8565b90613529565b6113a56103d2565b806113af816103ef565b0390f35b6103d8565b346113e7576113d16113cb3660046108e0565b916135b3565b6113d96103d2565b806113e3816103ef565b0390f35b6103d8565b3461141a576113fc3660046103e0565b61140461364c565b61140c6103d2565b80611416816103ef565b0390f35b6103d8565b3461144d5761142f3660046103e0565b6114376136e9565b61143f6103d2565b80611449816103ef565b0390f35b6103d8565b61145f60166009906112cf565b90565b34611492576114723660046103e0565b61148e61147d611452565b6114856103d2565b91829182611306565b0390f35b6103d8565b346114c8576114c46114b36114ad36600461047a565b906137e1565b6114bb6103d2565b918291826104b4565b0390f35b6103d8565b6114d6816112ec565b036114dd57565b5f80fd5b905035906114ee826114cd565b565b91906101608382031261159957611509815f8501610442565b926115178260208301610826565b926115258360408401610826565b92611533816060850161046b565b92611541826080830161046b565b9261154f8360a08401610779565b9261155d8160c0850161113d565b9261156b8260e083016114e1565b9261159661157d8461010085016114e1565b9361158c8161012086016114e1565b9361014001610abc565b90565b6103dc565b346115db576115d76115c66115b43660046114f0565b99989098979197969296959395613a64565b6115ce6103d2565b918291826104b4565b0390f35b6103d8565b919060408382031261160857806115fc611605925f8601610442565b936020016114e1565b90565b6103dc565b3461163e5761163a6116296116233660046115e0565b90613ac8565b6116316103d2565b91829182611306565b0390f35b6103d8565b346116745761167061165f6116593660046105f2565b91613b2c565b6116676103d2565b9182918261068b565b0390f35b6103d8565b61ffff1690565b61169090600861169593026104ff565b611679565b90565b906116a39154611680565b90565b6116b36016600390611698565b90565b346116e6576116c63660046103e0565b6116e26116d16116a6565b6116d96103d2565b918291826107c2565b0390f35b6103d8565b6116f7601c5f90610d06565b90565b3461172a5761170a3660046103e0565b6117266117156116eb565b61171d6103d2565b9182918261068b565b0390f35b6103d8565b6fffffffffffffffffffffffffffffffff1690565b61175490600861175993026104ff565b61172f565b90565b906117679154611744565b90565b611777601760089061175c565b90565b6fffffffffffffffffffffffffffffffff1690565b6117989061177a565b9052565b91906117af905f6020850194019061178f565b565b346117e1576117c13660046103e0565b6117dd6117cc61176a565b6117d46103d2565b9182918261179c565b0390f35b6103d8565b34611814576117f63660046103e0565b6117fe613b42565b6118066103d2565b80611810816103ef565b0390f35b6103d8565b34611847576118293660046103e0565b611831613bbb565b6118396103d2565b80611843816103ef565b0390f35b6103d8565b3461187d576118796118686118623660046105f2565b91613c83565b6118706103d2565b9182918261068b565b0390f35b6103d8565b346118b15761189b6118953660046108e0565b91613c99565b6118a36103d2565b806118ad816103ef565b0390f35b6103d8565b60608183031261191b576118cc825f8301610442565b92602082013567ffffffffffffffff811161191657836118ed9184016105b3565b929093604082013567ffffffffffffffff81116119115761190e920161103f565b90565b610427565b610427565b6103dc565b346119545761195061193f6119363660046118b6565b92919091613db4565b6119476103d2565b9182918261068b565b0390f35b6103d8565b91909160a0818403126119db57611972835f8301610442565b926119808160208401610826565b9261198e8260408501610abc565b92606081013567ffffffffffffffff81116119d657836119af918301610f8f565b92608082013567ffffffffffffffff81116119d1576119ce9201610f8f565b90565b610427565b610427565b6103dc565b34611a12576119fc6119f3366004611959565b93929092613e2c565b611a046103d2565b80611a0e816103ef565b0390f35b6103d8565b9190604083820312611a3f5780611a33611a3c925f8601610442565b93602001610abc565b90565b6103dc565b34611a7557611a71611a60611a5a366004611a17565b90613e7d565b611a686103d2565b91829182610a5e565b0390f35b6103d8565b91606083830312611ac657611a91825f8501610442565b92611a9f8360208301610826565b92604082013567ffffffffffffffff8111611ac157611abe920161103f565b90565b610427565b6103dc565b34611afc57611af8611ae7611ae1366004611a7a565b91613f26565b611aef6103d2565b9182918261086f565b0390f35b6103d8565b34611b3057611b1a611b143660046108e0565b91613f3c565b611b226103d2565b80611b2c816103ef565b0390f35b6103d8565b611b4260166011906112cf565b90565b34611b7557611b553660046103e0565b611b71611b60611b35565b611b686103d2565b91829182611306565b0390f35b6103d8565b34611ba957611b93611b8d36600461114c565b90613fc1565b611b9b6103d2565b80611ba5816103ef565b0390f35b6103d8565b611bba60185f90610a1d565b90565b34611bed57611bcd3660046103e0565b611be9611bd8611bae565b611be06103d2565b91829182610a5e565b0390f35b6103d8565b611bfb8161177a565b03611c0257565b5f80fd5b90503590611c1382611bf2565b565b9190604083820312611c3d5780611c31611c3a925f8601610442565b93602001611c06565b90565b6103dc565b34611c7357611c6f611c5e611c58366004611c15565b90614119565b611c666103d2565b9182918261179c565b0390f35b6103d8565b611c856016600190610521565b90565b34611cb857611c983660046103e0565b611cb4611ca3611c78565b611cab6103d2565b918291826104b4565b0390f35b6103d8565b34611cec57611cd6611cd03660046108e0565b91614199565b611cde6103d2565b80611ce8816103ef565b0390f35b6103d8565b34611d1f57611d013660046103e0565b611d096142b6565b611d116103d2565b80611d1b816103ef565b0390f35b6103d8565b34611d5257611d343660046103e0565b611d3c61432f565b611d446103d2565b80611d4e816103ef565b0390f35b6103d8565b63ffffffff1690565b611d70906008611d7593026104ff565b611d57565b90565b90611d839154611d60565b90565b611d936016600590611d78565b90565b34611dc657611da63660046103e0565b611dc2611db1611d86565b611db96103d2565b9182918261121b565b0390f35b6103d8565b5f80fd5b90565b90565b611de9611de4611dee92611dcf565b611dd2565b61042b565b90565b67ffffffffffffffff8111611e095760208091020190565b610ca7565b90611e20611e1b83611df1565b610f16565b918252565b369037565b90611e4f611e3783611e0e565b92602080611e458693611df1565b9201910390611e25565b565b5f1c90565b90565b611e65611e6a91611e51565b611e56565b90565b611e779054611e59565b90565b634e487b7160e01b5f52603260045260245ffd5b5190565b90611e9c82611e8e565b811015611ead576020809102010190565b611e7a565b90565b611ec9611ec4611ece92611eb2565b611dd2565b61042b565b90565b90611edb9061042b565b9052565b611ef3611eee611ef892610a3a565b611dd2565b610a3a565b90565b611f0490611edf565b90565b63ffffffff60e01b1690565b60e01b90565b611f2d611f28611f3292611120565b611f13565b611f07565b90565b90565b611f4c611f47611f5192611f35565b611dd2565b61042b565b90565b634e487b7160e01b5f52601160045260245ffd5b611f77611f7d9193929361042b565b9261042b565b8201809211611f8857565b611f54565b612003611fa2611f9d6001611dd5565b611e2a565b611fcf611fb7611fb2600d611e6d565b6143bc565b611fca83611fc45f611eb5565b90611e92565b611ed1565b611fdc6324d4e824611f19565b5f91611ff242611fec6064611f38565b90611f68565b91611ffd5f94611eb5565b91614583565b50565b5f90565b1561201157565b5f80fd5b90612043929161203e3361203861203261202d6146d2565b610a45565b91610a45565b1461200a565b6120a3565b90565b60101b90565b9061205a62ff000091612046565b9181191691161790565b61207861207361207d92610451565b611dd2565b610451565b90565b90565b9061209861209361209f92612064565b612080565b825461204c565b9055565b9050506120b1816016612083565b90565b906120c6916120c1612006565b612015565b90565b90565b6120e06120db6120e5926120c9565b611dd2565b61042b565b90565b90565b6120f76120fc91611e51565b6120e8565b90565b61210990546120eb565b90565b6121b061212161211c60026120cc565b611e2a565b61214e61213661213160136120ff565b6146f0565b612149836121435f611eb5565b90611e92565b611ed1565b61217c61216361215e60146120ff565b6146f0565b612177836121716001611dd5565b90611e92565b611ed1565b612189634838a5c8611f19565b5f9161219f426121996064611f38565b90611f68565b916121aa5f94611eb5565b91614583565b50565b606090565b906121e79392916121e2336121dc6121d66121d16146d2565b610a45565b91610a45565b1461200a565b612401565b90565b5090565b601f602091010490565b1b90565b919060086122179102916122115f19846121f8565b926121f8565b9181191691161790565b61223561223061223a9261042b565b611dd2565b61042b565b90565b90565b919061225661225161225e93612221565b61223d565b9083546121fc565b9055565b5f90565b61227891612272612262565b91612240565b565b5b818110612286575050565b806122935f600193612266565b0161227b565b9190601f81116122a9575b505050565b6122b56122da93610c05565b9060206122c1846121ee565b830193106122e2575b6122d3906121ee565b019061227a565b5f80806122a4565b91506122d3819290506122ca565b90612300905f19906008026104ff565b191690565b8161230f916122f0565b906002021790565b9161232290826121ea565b9067ffffffffffffffff82116123e157612346826123408554610bd2565b85612299565b5f90601f831160011461237957918091612368935f9261236d575b5050612305565b90555b565b90915001355f80612361565b601f1983169161238885610c05565b925f5b8181106123c9575091600293918560019694106123af575b5050500201905561236b565b6123bf910135601f8416906122f0565b90555f80806123a3565b9193602060018192878701358155019501920161238b565b610ca7565b906123f19291612317565b565b6123fe913691610f59565b90565b61241b9392915050612416818390601c6123e6565b6123f3565b90565b90612431929161242c6121b3565b6121b8565b90565b90612462929161245d3361245761245161244c6146d2565b610a45565b91610a45565b1461200a565b6124a0565b90565b5f1b90565b906124765f1991612465565b9181191691161790565b9061249561249061249c92612221565b61223d565b825461246a565b9055565b9050506124ae81601a612480565b90565b906124c3916124be612262565b612434565b90565b5f90565b906124f892916124f3336124ed6124e76124e26146d2565b610a45565b91610a45565b1461200a565b61255a565b90565b60181b90565b9061251164ffff000000916124fb565b9181191691161790565b61252f61252a6125349261075e565b611dd2565b61075e565b90565b90565b9061254f61254a6125569261251b565b612537565b8254612501565b9055565b90505061256881601661253a565b90565b9061257d916125786124c6565b6124ca565b90565b5f90565b906125b292916125ad336125a76125a161259c6146d2565b610a45565b91610a45565b1461200a565b61261b565b90565b906125c160ff91612465565b9181191691161790565b6125d49061080d565b90565b90565b906125ef6125ea6125f6926125cb565b6125d7565b82546125b5565b9055565b61260661260b91611e51565b610b3b565b90565b61261890546125fa565b90565b6126299291505060166125da565b612633601661260e565b90565b9061264891612643612580565b612584565b90565b90565b61266261265d6126679261264b565b611dd2565b61042b565b90565b90565b61267961267e91611e51565b61266a565b90565b61268b905461266d565b90565b906126a0612781936126a693926123f3565b90614741565b61270a6126f16126be6126b9600361264e565b611e2a565b926126ec6126d46126cf600a612681565b614771565b6126e7866126e15f611eb5565b90611e92565b611ed1565b614786565b612705836126ff6001611dd5565b90611e92565b611ed1565b61273861271f61271a60136120ff565b6146f0565b6127338361272d60026120cc565b90611e92565b611ed1565b61277181612749636c8f69cf611f19565b5f9161275f426127596064611f38565b90611f68565b9161276b600194611eb5565b91614583565b61277c81601e612480565b61498a565b565b90565b61279a61279561279f92612783565b611dd2565b61042b565b90565b61281a6127b76127b26001611dd5565b611e2a565b6127e46127cc6127c7600a612681565b614771565b6127df836127d95f611eb5565b90611e92565b611ed1565b6127f1632c3c59f8611f19565b5f91612809426128036202a300612786565b90611f68565b916128145f94611eb5565b91614583565b50565b5f90565b9061285093929161284b3361284561283f61283a6146d2565b610a45565b91610a45565b1461200a565b61289d565b90565b9061286460018060a01b0391612465565b9181191691161790565b61287790611efb565b90565b90565b9061289261288d6128999261286e565b61287a565b8254612853565b9055565b6128b792939150506128b083601861287d565b601961287d565b90565b906128cd92916128c861281d565b612821565b90565b906128e2612952936128e893926123f3565b906149fc565b61291e6129066129006128fb6001611dd5565b611e2a565b92614a2c565b612919836129135f611eb5565b90611e92565b611ed1565b61292b63c375d837611f19565b5f916129414261293b6064611f38565b90611f68565b9161294c5f94611eb5565b91614583565b50565b90565b61296461296991611e51565b612955565b90565b6129769054612958565b90565b6129ef61298e6129896001611dd5565b611e2a565b6129bb6129a361299e600c61296c565b614a41565b6129b6836129b05f611eb5565b90611e92565b611ed1565b6129c8630526e1f1611f19565b5f916129de426129d86064611f38565b90611f68565b916129e95f94611eb5565b91614583565b50565b90565b612a01612a0691611e51565b6129f2565b90565b612a1390546129f5565b90565b612a8c612a2b612a266001611dd5565b611e2a565b612a58612a40612a3b6012612a09565b614a56565b612a5383612a4d5f611eb5565b90611e92565b611ed1565b612a6563f5cc5a57611f19565b5f91612a7b42612a756064611f38565b90611f68565b91612a865f94611eb5565b91614583565b50565b90612aa1612b1193612aa793926123f3565b90614a98565b612add612ac5612abf612aba6001611dd5565b611e2a565b92614ac8565b612ad883612ad25f611eb5565b90611e92565b611ed1565b612aea6323752ca7611f19565b5f91612b0042612afa6064611f38565b90611f68565b91612b0b5f94611eb5565b91614583565b50565b90612b26612b9693612b2c93926123f3565b90614b0a565b612b62612b4a612b44612b3f6001611dd5565b611e2a565b92614b3a565b612b5d83612b575f611eb5565b90611e92565b611ed1565b612b6f631d57abf4611f19565b5f91612b8542612b7f6064611f38565b90611f68565b91612b905f94611eb5565b91614583565b50565b612bb1612bac612c2093612bb6936123f3565b614cc0565b614dd9565b612bec612bd4612bce612bc96001611dd5565b611e2a565b92614786565b612be783612be15f611eb5565b90611e92565b611ed1565b612bf963d16444eb611f19565b5f91612c0f42612c096064611f38565b90611f68565b91612c1a5f94611eb5565b91614583565b50565b90612c5394939291612c4e33612c48612c42612c3d6146d2565b610a45565b91610a45565b1461200a565b612eaa565b565b612c61612c6691611e51565b61098d565b90565b612c739054612c55565b90565b60209181520190565b60207f7900000000000000000000000000000000000000000000000000000000000000917f77726f6e672072657175657374494420706173736564206279204761746577615f8201520152565b612cd96021604092612c76565b612ce281612c7f565b0190565b612cfb9060208101905f818303910152612ccc565b90565b15612d0557565b612d0d6103d2565b62461bcd60e51b815280612d2360048201612ce6565b0390fd5b60207f6f6e20726573756c740000000000000000000000000000000000000000000000917f4b4d5320646964206e6f742076657269667920746869732064656372797074695f8201520152565b612d816029604092612c76565b612d8a81612d27565b0190565b612da39060208101905f818303910152612d74565b90565b15612dad57565b612db56103d2565b62461bcd60e51b815280612dcb60048201612d8e565b0390fd5b90612dd981610638565b9067ffffffffffffffff8211612e9957612dfd82612df78554610bd2565b85612299565b602090601f8311600114612e3157918091612e20935f92612e25575b5050612305565b90555b565b90915001515f80612e19565b601f19831691612e4085610c05565b925f5b818110612e8157509160029391856001969410612e67575b50505002019055612e23565b612e77910151601f8416906122f0565b90555f8080612e5b565b91936020600181928787015181550195019201612e43565b610ca7565b90612ea891612dcf565b565b612f0d929391612eff612efa612f1497612ee3612f0695612edd612ed7612ed1601e612c69565b9261042b565b9161042b565b14612cfe565b612ef5612ef0601e612c69565b614f5a565b615121565b612da6565b60166125da565b601861287d565b601d612e9e565b565b90612f2394939291612c23565b565b90565b612f3c612f37612f4192612f25565b611dd2565b61042b565b90565b90565b612f53612f5891611e51565b612f44565b90565b612f659054612f47565b90565b90565b612f7f612f7a612f8492612f68565b611dd2565b61042b565b90565b90565b612f96612f9b91611e51565b612f87565b90565b612fa89054612f8a565b90565b90565b612fc2612fbd612fc792612fab565b611dd2565b61042b565b90565b90565b612fd9612fde91611e51565b612fca565b90565b612feb9054612fcd565b90565b90565b61300561300061300a92612fee565b611dd2565b61042b565b90565b90565b61302461301f6130299261300d565b611dd2565b61042b565b90565b90565b61304361303e6130489261302c565b611dd2565b61042b565b90565b90565b61306261305d6130679261304b565b611dd2565b61042b565b90565b61307e61307961308392611120565b611dd2565b61042b565b90565b906132bc6132c2926132b66132a56130a66130a1600a612f28565b611e2a565b6130d36130bb6130b6600a612681565b614771565b6130ce836130c85f611eb5565b90611e92565b611ed1565b6131016130e86130e3600a612681565b614771565b6130fc836130f66001611dd5565b90611e92565b611ed1565b61312f613116613111600b612f5b565b6151ff565b61312a8361312460026120cc565b90611e92565b611ed1565b61315d61314461313f600c61296c565b614a41565b61315883613152600361264e565b90611e92565b611ed1565b61318b61317261316d600d611e6d565b6143bc565b613186836131806004612f6b565b90611e92565b611ed1565b6131b96131a061319b600e612f9e565b615214565b6131b4836131ae6005612fae565b90611e92565b611ed1565b6131e76131ce6131c9600f612fe1565b615229565b6131e2836131dc6006612ff1565b90611e92565b611ed1565b6132156131fc6131f7600f612fe1565b615229565b6132108361320a6007613010565b90611e92565b611ed1565b61324361322a613225600f612fe1565b615229565b61323e83613238600861302f565b90611e92565b611ed1565b61327161325861325360136120ff565b6146f0565b61326c83613266600961304e565b90611e92565b611ed1565b61327e63be9daa48611f19565b5f916132944261328e6064611f38565b90611f68565b9161329f5f94611eb5565b91614583565b916132b0839161306a565b906152ab565b9161306a565b906152ab565b565b906132d6613346936132dc93926123f3565b906152f6565b6133126132fa6132f46132ef6001611dd5565b611e2a565b92614a56565b61330d836133075f611eb5565b90611e92565b611ed1565b61331f63f5cc5a57611f19565b5f916133354261332f6064611f38565b90611f68565b916133405f94611eb5565b91614583565b50565b5f90565b9061337b92916133763361337061336a6133656146d2565b610a45565b91610a45565b1461200a565b613418565b90565b613388905161042b565b90565b61339f61339a6133a49261042b565b611dd2565b611120565b90565b906133b29101611120565b90565b60281b90565b906133cf68ffffffff0000000000916133b5565b9181191691161790565b6133ed6133e86133f292611120565b611dd2565b611120565b90565b90565b9061340d613408613414926133d9565b6133f5565b82546133bb565b9055565b61342a61347c93926134779250615326565b61347161346c61346761345661345161344c866134465f611eb5565b90611e92565b61337e565b61338b565b936134616001611dd5565b90611e92565b61337e565b61338b565b906133a7565b6133a7565b6134878160166133f8565b90565b9061349c91613497613349565b61334d565b90565b6134b76134b2613526936134bc936123f3565b6153e6565b6154fc565b6134f26134da6134d46134cf6001611dd5565b611e2a565b92614b3a565b6134ed836134e75f611eb5565b90611e92565b611ed1565b6134ff631d57abf4611f19565b5f916135154261350f6064611f38565b90611f68565b916135205f94611eb5565b91614583565b50565b61354161353c6135b093613546936123f3565b6155c3565b6156d9565b61357c61356461355e6135596001611dd5565b611e2a565b92614a2c565b613577836135715f611eb5565b90611e92565b611ed1565b61358963c375d837611f19565b5f9161359f426135996064611f38565b90611f68565b916135aa5f94611eb5565b91614583565b50565b906135c561364a936135cb93926123f3565b90614741565b6136016135e96135e36135de6001611dd5565b611e2a565b92614786565b6135fc836135f65f611eb5565b90611e92565b611ed1565b61363a8161361263d2f2150d611f19565b5f91613628426136226064611f38565b90611f68565b91613634600194611eb5565b91614583565b61364581601e612480565b61498a565b565b6136c261366161365c6001611dd5565b611e2a565b61368e613676613671600f612fe1565b615229565b613689836136835f611eb5565b90611e92565b611ed1565b61369b63c16d7f6b611f19565b5f916136b1426136ab6064611f38565b90611f68565b916136bc5f94611eb5565b91614583565b50565b90565b6136d46136d991611e51565b6136c5565b90565b6136e690546136c8565b90565b61375f6136fe6136f96001611dd5565b611e2a565b61372b61371361370e60156136dc565b614ac8565b613726836137205f611eb5565b90611e92565b611ed1565b6137386323752ca7611f19565b5f9161374e426137486064611f38565b90611f68565b916137595f94611eb5565b91614583565b50565b90613790929161378b3361378561377f61377a6146d2565b610a45565b91610a45565b1461200a565b6137d0565b90565b60081b90565b906137a661ff0091613793565b9181191691161790565b906137c56137c06137cc92612064565b612080565b8254613799565b9055565b9050506137de8160166137b0565b90565b906137f3916137ee612006565b613762565b90565b9061382d9b9a9998979695949392916138283361382261381c6138176146d2565b610a45565b91610a45565b1461200a565b613944565b90565b5f7f57726f6e672064656372797074696f6e00000000000000000000000000000000910152565b6138646010602092612c76565b61386d81613830565b0190565b6138869060208101905f818303910152613857565b90565b1561389057565b6138986103d2565b62461bcd60e51b8152806138ae60048201613871565b0390fd5b60481b90565b906138d470ffffffffffffffff000000000000000000916138b2565b9181191691161790565b6138f26138ed6138f7926112ec565b611dd2565b6112ec565b90565b90565b9061391261390d613919926138de565b6138fa565b82546138b8565b9055565b60081c90565b61392f6139349161391d565b610503565b90565b6139419054613923565b90565b906139a8613a329a99976139a1613a0698613a399f9e9b976139ff9961399361399a9261398d6139876139fa9c6139ad9c506139818160166125da565b9261080d565b9161080d565b14613889565b60166137b0565b6016612083565b601661253a565b615326565b6139f46139ef6139ea6139d96139d46139cf866139c95f611eb5565b90611e92565b61337e565b61338b565b936139e46001611dd5565b90611e92565b61337e565b61338b565b906133a7565b6133a7565b60166133f8565b613a118160166138fd565b613a23613a1d846112ec565b916112ec565b149182613a46575b5050613889565b601861287d565b613a436016613937565b90565b613a5c919250613a5690926112ec565b916112ec565b145f80613a2b565b90613a7f9a999897969594939291613a7a612006565b6137f6565b90565b5f90565b90613ab49291613aaf33613aa9613aa3613a9e6146d2565b610a45565b91610a45565b1461200a565b613ab7565b90565b905050613ac58160166138fd565b90565b90613ada91613ad5613a82565b613a86565b90565b90613b0c939291613b0733613b01613afb613af66146d2565b610a45565b91610a45565b1461200a565b613b0f565b90565b613b299392915050613b24818390601b6123e6565b6123f3565b90565b90613b3f9291613b3a6121b3565b613add565b90565b613bb8613b57613b526001611dd5565b611e2a565b613b84613b6c613b67600a612681565b614771565b613b7f83613b795f611eb5565b90611e92565b611ed1565b613b91632c3c59f8611f19565b5f91613ba742613ba16064611f38565b90611f68565b91613bb25f94611eb5565b91614583565b50565b613c31613bd0613bcb6001611dd5565b611e2a565b613bfd613be5613be0600b612f5b565b6151ff565b613bf883613bf25f611eb5565b90611e92565b611ed1565b613c0a63a4b42fd9611f19565b5f91613c2042613c1a6064611f38565b90611f68565b91613c2b5f94611eb5565b91614583565b50565b90613c63939291613c5e33613c58613c52613c4d6146d2565b610a45565b91610a45565b1461200a565b613c66565b90565b613c809392915050613c7b818390601d6123e6565b6123f3565b90565b90613c969291613c916121b3565b613c34565b90565b90613cab613d1b93613cb193926123f3565b9061572c565b613ce7613ccf613cc9613cc46001611dd5565b611e2a565b92615229565b613ce283613cdc5f611eb5565b90611e92565b611ed1565b613cf463c16d7f6b611f19565b5f91613d0a42613d046064611f38565b90611f68565b91613d155f94611eb5565b91614583565b50565b90613d4e94939291613d4933613d43613d3d613d386146d2565b610a45565b91610a45565b1461200a565b613d51565b90565b613db194613d83613d9f93613d9a9350613d7d613d77613d71601e612c69565b9261042b565b9161042b565b14612cfe565b613d95613d90601e612c69565b614f5a565b615121565b612da6565b613dac818390601d6123e6565b6123f3565b90565b90613dc8939291613dc36121b3565b613d1e565b90565b90613dfb94939291613df633613df0613dea613de56146d2565b610a45565b91610a45565b1461200a565b613dfd565b565b5091613e1c613e2392613e15613e2a969560166125da565b601861287d565b601d612e9e565b601b612e9e565b565b90613e3994939291613dcb565b565b90613e699291613e6433613e5e613e58613e536146d2565b610a45565b91610a45565b1461200a565b613e6c565b90565b905050613e7a81601861287d565b90565b90613e8f91613e8a61281d565b613e3b565b90565b90613ec1939291613ebc33613eb6613eb0613eab6146d2565b610a45565b91610a45565b1461200a565b613ec4565b90565b613f1993613ef6613f1293613f0d9350613ef0613eea613ee4601e612c69565b9261042b565b9161042b565b14612cfe565b613f08613f03601e612c69565b614f5a565b615121565b612da6565b60166125da565b613f23601661260e565b90565b90613f399291613f34612580565b613e92565b90565b90613f4e613fbe93613f5493926123f3565b90614741565b613f8a613f72613f6c613f676001611dd5565b611e2a565b92614786565b613f8583613f7f5f611eb5565b90611e92565b611ed1565b613f9763d16444eb611f19565b5f91613fad42613fa76064611f38565b90611f68565b91613fb85f94611eb5565b91614583565b50565b9061405961405f92614053614042613fe1613fdc6001611dd5565b611e2a565b61400e613ff6613ff1600e612f9e565b615214565b614009836140035f611eb5565b90611e92565b611ed1565b61401b6377309623611f19565b5f916140314261402b6064611f38565b90611f68565b9161403c5f94611eb5565b91614583565b9161404d839161306a565b906152ab565b9161306a565b906152ab565b565b5f90565b90614093929161408e3361408861408261407d6146d2565b610a45565b91610a45565b1461200a565b614108565b90565b60401b90565b906140bf77ffffffffffffffffffffffffffffffff000000000000000091614096565b9181191691161790565b6140dd6140d86140e29261177a565b611dd2565b61177a565b90565b90565b906140fd6140f8614104926140c9565b6140e5565b825461409c565b9055565b9050506141168160176140e8565b90565b9061412b91614126614061565b614065565b90565b67ffffffffffffffff811161414c57614148602091610650565b0190565b610ca7565b9061416361415e8361412e565b610f16565b918252565b5f62557fa160e91b910152565b61417f6003614151565b9061418c60208301614168565b565b614196614175565b90565b906141ab6142b3936141b193926123f3565b90614741565b61424361422a6141c96141c46004612f6b565b611e2a565b926141f76141df6141da600a612681565b614771565b6141f2866141ec5f611eb5565b90611e92565b611ed1565b61422561420c61420760136120ff565b6146f0565b6142208661421a6001611dd5565b90611e92565b611ed1565b614786565b61423e8361423860026120cc565b90611e92565b611ed1565b61427f61426661426161425c61425761418e565b6155c3565b6156d9565b614a2c565b61427a83614274600361264e565b90611e92565b611ed1565b61428c63e4dc7969611f19565b5f916142a24261429c6064611f38565b90611f68565b916142ad5f94611eb5565b91614583565b50565b61432c6142cb6142c66001611dd5565b611e2a565b6142f86142e06142db60136120ff565b6146f0565b6142f3836142ed5f611eb5565b90611e92565b611ed1565b61430563e572a526611f19565b5f9161431b426143156064611f38565b90611f68565b916143265f94611eb5565b91614583565b50565b6143ba61434461433f6001611dd5565b611e2a565b614371614359614354600a612681565b614771565b61436c836143665f611eb5565b90611e92565b611ed1565b6143aa8161438263e6a6ee46611f19565b5f91614398426143926064611f38565b90611f68565b916143a4600194611eb5565b91614583565b6143b581601e612480565b61498a565b565b6143ce906143c8612262565b50612221565b90565b6143dd6143e291611e51565b6109fa565b90565b6143ef90546143d1565b90565b6143fb90611edf565b90565b614407906143f2565b90565b61441390611efb565b90565b5f80fd5b5f91031261442457565b6103dc565b60209181520190565b60200190565b6144419061042b565b9052565b9061445281602093614438565b0190565b60200190565b9061447961447361446c84611e8e565b8093614429565b92614432565b905f5b8181106144895750505090565b9091926144a261449c6001928651614445565b94614456565b910191909161447c565b6144c19160208201915f81840391015261445c565b90565b6144cc6103d2565b3d5f823e3d90fd5b6144dd90611edf565b90565b6144e9906144d4565b90565b6144f590611efb565b90565b905051906145058261042e565b565b906020828203126145205761451d915f016144f8565b90565b6103dc565b61452e90611f07565b9052565b906145819461457060809498979561456661455b61457a9560a08801908882035f8a015261445c565b9a6020870190614525565b6040850190610706565b6060830190610706565b0190610862565b565b9293909193614590612262565b506145b36145ae6145a95f6145a361575c565b016143e5565b6143fe565b61440a565b63557e100485823b156146cd576145e9926145de5f80946145d26103d2565b96879586948593611f13565b8352600483016144ac565b03925af19485156146c857614653614648935f9360209861469c575b5061462861462361461e86614618615780565b016143e5565b6144e0565b6144ec565b95634c0d927793979991909161463c6103d2565b9a8b998a988997611f13565b875260048701614532565b03925af1908115614697575f91614669575b5090565b61468a915060203d8111614690575b6146828183610cbb565b810190614507565b5f614665565b503d614678565b6144c4565b6146bb90853d81116146c1575b6146b38183610cbb565b81019061441a565b5f614605565b503d6146a9565b6144c4565b614416565b6146da61281d565b506146ed5f6146e7615780565b016143e5565b90565b614702906146fc612262565b50612221565b90565b5f90565b614712906108ba565b90565b90565b61472c61472761473192614715565b611dd2565b610451565b90565b61473e600b614718565b90565b61476e9161475a61476992614754614705565b50614709565b90614763614734565b91615864565b612221565b90565b6147839061477d612262565b50612221565b90565b61479890614792612262565b50612221565b90565b906147a590612221565b5f5260205260405f2090565b5490565b5f7f7265717565737465642068616e646c657320616c726561647920736176656400910152565b6147e9601f602092612c76565b6147f2816147b5565b0190565b61480b9060208101905f8183039101526147dc565b90565b1561481557565b61481d6103d2565b62461bcd60e51b815280614833600482016147f6565b0390fd5b61484661484c9193929361042b565b9261042b565b9161485883820261042b565b92818404149015171561486757565b611f54565b600190818003010490565b5f5260205f2090565b5b81811061488c575050565b806148995f600193612266565b01614881565b90918281106148ae575b505050565b6148cc6148c66148c06148d79561486c565b9261486c565b92614877565b918201910190614880565b5f80806148a9565b9068010000000000000000811161490857816148fd614906936147b1565b9082815561489f565b565b610ca7565b61491682611e8e565b9167ffffffffffffffff83116149795761494461493e60019261493986866148df565b614432565b92614877565b9204915f5b8381106149565750505050565b600190602061496c6149678661337e565b61223d565b9401938184015501614949565b610ca7565b906149889161490d565b565b6149c86149cd926149c06149a86149a36009869061479b565b6147b1565b6149ba6149b45f611eb5565b9161042b565b1461480e565b91600961479b565b61497e565b565b5f90565b6149e76149e26149ec9261304b565b611dd2565b610451565b90565b6149f960096149d3565b90565b614a2991614a15614a2492614a0f6149cf565b50614709565b90614a1e6149ef565b91615864565b612221565b90565b614a3e90614a38612262565b50612221565b90565b614a5390614a4d612262565b50612221565b90565b614a6890614a62612262565b50612221565b90565b5f90565b614a83614a7e614a889261302c565b611dd2565b610451565b90565b614a956008614a6f565b90565b614ac591614ab1614ac092614aab614a6b565b50614709565b90614aba614a8b565b91615864565b612221565b90565b614ada90614ad4612262565b50612221565b90565b5f90565b614af5614af0614afa92612f25565b611dd2565b610451565b90565b614b07600a614ae1565b90565b614b3791614b23614b3292614b1d614add565b50614709565b90614b2c614afd565b91615864565b612221565b90565b614b4c90614b46612262565b50612221565b90565b90565b614b66614b61614b6b92614b4f565b611dd2565b61042b565b90565b5f7f496e707574206578636565647320323536206279746573000000000000000000910152565b614ba26017602092612c76565b614bab81614b6e565b0190565b614bc49060208101905f818303910152614b95565b90565b15614bce57565b614bd66103d2565b62461bcd60e51b815280614bec60048201614baf565b0390fd5b90614c02614bfd83610f2b565b610f16565b918252565b369037565b90614c31614c1983614bf0565b92602080614c278693610f2b565b9201910390614c07565b565b614c42614c489193929361042b565b9261042b565b8203918211614c5357565b611f54565b6001614c64910161042b565b90565b60ff60f81b1690565b60f81b90565b614c8a614c85614c8f92611eb2565b614c70565b614c67565b90565b90614c9c82610638565b811015614cae57600160209102010190565b611e7a565b614cbd9051614c67565b90565b614cc86121b3565b50614cf0614cd582610638565b614ce9614ce3610100614b52565b9161042b565b1115614bc7565b614d03614cfe610100614b52565b614c0c565b91614d21610100614d1c614d1685610638565b91614b52565b614c33565b614d2a5f611eb5565b5b80614d3e614d388461042b565b9161042b565b1015614d6b57614d6690614d515f614c76565b614d60879183905f1a92614c92565b53614c58565b614d2b565b509091614d775f611eb5565b5b80614d93614d8d614d8885610638565b61042b565b9161042b565b1015614dd457614dcf90614db0614dab848390614c92565b614cb3565b614dc98791614dc0878590611f68565b905f1a92614c92565b53614c58565b614d78565b505050565b614df7614dfc91614de8614705565b50614df1614734565b906159d9565b612221565b90565b606090565b60207f20666f7220746869732072657175657374494400000000000000000000000000917f7265717565737465642068616e646c65732077657265206e6f742073617665645f8201520152565b614e5e6033604092612c76565b614e6781614e04565b0190565b614e809060208101905f818303910152614e51565b90565b15614e8a57565b614e926103d2565b62461bcd60e51b815280614ea860048201614e6b565b0390fd5b60209181520190565b614ebf9054612c55565b90565b60010190565b90614ee5614edf614ed8846147b1565b8093614eac565b92614877565b905f5b818110614ef55750505090565b909192614f15614f0f600192614f0a87614eb5565b614445565b94614ec2565b9101919091614ee8565b90614f2991614ec8565b90565b90614f4c614f4592614f3c6103d2565b93848092614f1f565b0383610cbb565b565b614f5790614f2c565b90565b614fa1614fa691614f69614dff565b50614f9a614f81614f7c6009849061479b565b6147b1565b614f93614f8d5f611eb5565b9161042b565b1415614e83565b600961479b565b614f4e565b90565b90565b614fc0614fbb614fc592614fa9565b611dd2565b61042b565b90565b614fd190611edf565b90565b614fdd90614fc8565b90565b614fe990611efb565b90565b90505190614ff982610812565b565b9060208282031261501457615011915f01614fec565b90565b6103dc565b5190565b60209181520190565b60200190565b61504b6150546020936150599361504281610638565b93848093610bfc565b95869101610645565b610650565b0190565b906150679161502c565b90565b60200190565b9061508461507d83615019565b809261501d565b908161509560208302840194615026565b925f915b8383106150a857505050505090565b909192939460206150ca6150c48385600195038752895161505d565b9761506a565b9301930191939290615099565b926151026151109261511e96946150f560808801925f890190610a51565b868203602088015261445c565b90848203604086015261065a565b916060818403910152615070565b90565b60209061512c612580565b5061515861513a6024614fac565b61514383615b81565b61514c81614c0c565b91858301378290615d19565b926151ab5f61516561575c565b6151b661518461517f61517a600385016143e5565b614fd4565b614fe0565b946151958463dd66628794016143e5565b969861519f6103d2565b998a9889978896611f13565b8652600486016150d7565b03925af19081156151fa575f916151cc575b5090565b6151ed915060203d81116151f3575b6151e58183610cbb565b810190614ffb565b5f6151c8565b503d6151db565b6144c4565b6152119061520b612262565b50612221565b90565b61522690615220612262565b50612221565b90565b61523b90615235612262565b50612221565b90565b90565b5f5260205f2090565b5490565b6152578161524a565b82101561527157615269600191615241565b910201905f90565b611e7a565b90815491680100000000000000008310156152a6578261529e9160016152a49501815561524e565b90612240565b565b610ca7565b906152c26152bd6152c793600861479b565b61523e565b615276565b565b5f90565b6152e16152dc6152e692612fee565b611dd2565b610451565b90565b6152f360066152cd565b90565b6153239161530f61531e926153096152c9565b50614709565b906153186152e9565b91615864565b612221565b90565b61533d61534291615335614dff565b50600861479b565b614f4e565b90565b90565b61535c61535761536192615345565b611dd2565b61042b565b90565b5f7f496e707574206578636565647320313238206279746573000000000000000000910152565b6153986017602092612c76565b6153a181615364565b0190565b6153ba9060208101905f81830391015261538b565b90565b156153c457565b6153cc6103d2565b62461bcd60e51b8152806153e2600482016153a5565b0390fd5b6153ee6121b3565b506154156153fb82610638565b61540e6154086080615348565b9161042b565b11156153bd565b6154276154226080615348565b614c0c565b91615444608061543f61543985610638565b91615348565b614c33565b61544d5f611eb5565b5b8061546161545b8461042b565b9161042b565b101561548e57615489906154745f614c76565b615483879183905f1a92614c92565b53614c58565b61544e565b50909161549a5f611eb5565b5b806154b66154b06154ab85610638565b61042b565b9161042b565b10156154f7576154f2906154d36154ce848390614c92565b614cb3565b6154ec87916154e3878590611f68565b905f1a92614c92565b53614c58565b61549b565b505050565b61551a61551f9161550b614add565b50615514614afd565b906159d9565b612221565b90565b90565b61553961553461553e92615522565b611dd2565b61042b565b90565b5f7f496e707574206578636565647320363420627974657300000000000000000000910152565b6155756016602092612c76565b61557e81615541565b0190565b6155979060208101905f818303910152615568565b90565b156155a157565b6155a96103d2565b62461bcd60e51b8152806155bf60048201615582565b0390fd5b6155cb6121b3565b506155f26155d882610638565b6155eb6155e56040615525565b9161042b565b111561559a565b6156046155ff6040615525565b614c0c565b91615621604061561c61561685610638565b91615525565b614c33565b61562a5f611eb5565b5b8061563e6156388461042b565b9161042b565b101561566b57615666906156515f614c76565b615660879183905f1a92614c92565b53614c58565b61562b565b5090916156775f611eb5565b5b8061569361568d61568885610638565b61042b565b9161042b565b10156156d4576156cf906156b06156ab848390614c92565b614cb3565b6156c987916156c0878590611f68565b905f1a92614c92565b53614c58565b615678565b505050565b6156f76156fc916156e86149cf565b506156f16149ef565b906159d9565b612221565b90565b5f90565b61571761571261571c92612fab565b611dd2565b610451565b90565b6157296005615703565b90565b615759916157456157549261573f6156ff565b50614709565b9061574e61571f565b91615864565b612221565b90565b7fed8d60e34876f751cc8b014c560745351147d9de11b9347c854e881b128ea60090565b7f93ab6e17f2c461cce6ea5d4ec117e51dda77a64affc2b2c05f8cd440def0e70090565b6157ad90611edf565b90565b6157b9906157a4565b90565b6157c590611efb565b90565b6157dc6157d76157e192610451565b614c70565b614c67565b90565b6157ed906108ba565b9052565b6157fa90614c67565b9052565b94939160609161583f9461582a6158379361582060808b01945f8c01906157e4565b60208a0190610a51565b878203604089015261065a565b9401906157f1565b565b91602061586292949361585b60408201965f830190610706565b0190610a51565b565b9291602090615871612262565b5061587a61575c565b946158c65f61589b61589661589160018b016143e5565b6157b0565b6157bc565b926158d1632e817ff091956158b13399916157c8565b906158ba6103d2565b998a9889978896611f13565b8652600486016157fe565b03925af19081156159ae576158f75f615901936158fc938291615980575b5095016143e5565b6143fe565b61440a565b638d9c9c92833392803b1561597b5761592d5f80946159386159216103d2565b97889687958694611f13565b845260048401615841565b03925af180156159765761594a575b50565b615969905f3d811161596f575b6159618183610cbb565b81019061441a565b5f615947565b503d615957565b6144c4565b614416565b6159a1915060203d81116159a7575b6159998183610cbb565b810190614507565b5f6158ef565b503d61598f565b6144c4565b929160206159cf6159d79360408701908782035f89015261065a565b9401906157f1565b565b906020906159e5612262565b50615a09615a046159ff60016159f961575c565b016143e5565b6157b0565b6157bc565b615a345f615a1c63e0c5cbb396946157c8565b95615a3f615a286103d2565b97889687958694611f13565b8452600484016159b3565b03925af1908115615a83575f91615a55575b5090565b615a76915060203d8111615a7c575b615a6e8183610cbb565b810190614507565b5f615a51565b503d615a64565b6144c4565b615aa790615aa1615a9b615aac94610451565b9161042b565b906104ff565b61042b565b90565b615ac3615abe615ac89261042b565b611dd2565b610451565b90565b5f7f556e737570706f727465642068616e646c652074797065000000000000000000910152565b615aff6017602092612c76565b615b0881615acb565b0190565b615b219060208101905f818303910152615af2565b90565b90565b615b3b615b36615b4092615b24565b611dd2565b61042b565b90565b90565b615b5a615b55615b5f92615b43565b611dd2565b61042b565b90565b90565b615b79615b74615b7e92615b62565b611dd2565b61042b565b90565b615b89612262565b50615b9381611e8e565b90615b9c612262565b92615ba65f611eb5565b935b84615bbb615bb58661042b565b9161042b565b1015615cfd57615bef615bea615bda615bd5868990611e92565b61337e565b615be46008614a6f565b90615a88565b615aaf565b80615c03615bfd60096149d3565b91610451565b105f14615c2f5750615c22615c2991615c1c6020615b65565b90611f68565b945b614c58565b93615ba8565b80615c43615c3d60096149d3565b91610451565b145f14615c695750615c62615c2991615c5c6080615348565b90611f68565b945b615c24565b80615c7d615c77600a614ae1565b91610451565b145f14615ca35750615c9c615c2991615c9660c0615b46565b90611f68565b945b615c64565b615cb6615cb0600b614718565b91610451565b145f14615cdb57615cd5615c2991615ccf610140615b27565b90611f68565b94615c9e565b615ce36103d2565b62461bcd60e51b815280615cf960048201615b0c565b0390fd5b91509250615d169150615d106020615b65565b90611f68565b90565b919091615d246121b3565b50615d2e83611e8e565b91615d385f611eb5565b5b80615d4c615d468661042b565b9161042b565b1015615dd257615d80615d7b615d6b615d66888590611e92565b61337e565b615d756008614a6f565b90615a88565b615aaf565b615d93615d8d60096149d3565b91610451565b1015615da8575b615da390614c58565b615d39565b91615dca615da391615dc46020615dbf8791615b65565b614837565b90615df6565b929050615d9a565b50925090615ded615df39291615de86020615b65565b614837565b90615e0f565b90565b90615dff6121b3565b5060208201016020815103905290565b91615e186121b3565b50615e3d615e38615e2885610638565b615e326020615b65565b90614c33565b614c0c565b90615e475f611eb5565b5b80615e5b615e558661042b565b9161042b565b1015615e9257615e8d90615e78615e73878390614c92565b614cb3565b615e87859183905f1a92614c92565b53614c58565b615e48565b5091615ea890615ea26020615b65565b90611f68565b5b80615ec4615ebe615eb987610638565b61042b565b9161042b565b1015615f0e57615f0990615ee1615edc868390614c92565b614cb3565b615f038491615efa84615ef46020615b65565b90614c33565b905f1a92614c92565b53614c58565b615ea9565b509091509056fea2646970667358221220296864e2fe914f2092300ab3358cea29e2a54d4032bdbe9953db2f7774f42e2d64736f6c634300081a0033","linkReferences":{}},"methodIdentifiers":{"callbackAddress(uint256,address)":"e572a526","callbackAddresses(uint256,address,address)":"4838a5c8","callbackBool(uint256,bool)":"2c3c59f8","callbackBoolTrustless(uint256,bool,bytes[])":"e6a6ee46","callbackBytes128(uint256,bytes)":"1d57abf4","callbackBytes256(uint256,bytes)":"d16444eb","callbackBytes256Trustless(uint256,bytes,bytes[])":"d2f2150d","callbackBytes64(uint256,bytes)":"c375d837","callbackMixed(uint256,bool,bool,uint8,uint8,uint16,uint32,uint64,uint64,uint64,address)":"be9daa48","callbackMixedBytes256(uint256,bool,address,bytes,bytes)":"e4dc7969","callbackMixedBytes256Trustless(uint256,bool,bytes,address,bytes[])":"6c8f69cf","callbackUint128(uint256,uint128)":"f5cc5a57","callbackUint16(uint256,uint16)":"24d4e824","callbackUint256(uint256,uint256)":"23752ca7","callbackUint32(uint256,uint32)":"77309623","callbackUint4(uint256,uint8)":"a4b42fd9","callbackUint64(uint256,uint64)":"c16d7f6b","callbackUint8(uint256,uint8)":"0526e1f1","latestRequestID()":"7752a687","requestAddress()":"fd05702b","requestBool()":"cc9df9f1","requestBoolAboveDelay()":"3a5ff6b0","requestBoolTrustless()":"fea71979","requestEbytes128NonTrivial(bytes32,bytes)":"5a8aaf42","requestEbytes128Trivial(bytes)":"80373286","requestEbytes256NonTrivial(bytes32,bytes)":"ea1106ca","requestEbytes256NonTrivialTrustless(bytes32,bytes)":"8ac573d8","requestEbytes256Trivial(bytes)":"67c71a2b","requestEbytes64NonTrivial(bytes32,bytes)":"5022a540","requestEbytes64Trivial(bytes)":"81bd4906","requestMixed(uint32,uint32)":"6da8b1a4","requestMixedBytes256(bytes32,bytes)":"faa776f5","requestMixedBytes256Trustless(bytes32,bytes)":"323566a5","requestSeveralAddresses()":"18288c78","requestUint128()":"580ccfc5","requestUint128NonTrivial(bytes32,bytes)":"74262db9","requestUint16()":"031165ca","requestUint256()":"9afbe861","requestUint256NonTrivial(bytes32,bytes)":"5a1d3bea","requestUint32(uint32,uint32)":"f459e61b","requestUint4()":"cfde774a","requestUint64()":"8f83ef7a","requestUint64NonTrivial(bytes32,bytes)":"d258d887","requestUint8()":"54dc83dc","yAddress()":"f5020b9f","yAddress2()":"3ffcf52a","yBool()":"4baa0782","yBytes128()":"c8779aca","yBytes256()":"4c4ef3c9","yBytes64()":"65ca0636","yUint128()":"cb76288d","yUint16()":"c39f47e5","yUint256()":"3db09e62","yUint32()":"ffcbf815","yUint4()":"f7d25d57","yUint64()":"9cec1b61","yUint64_2()":"f183f84d","yUint64_3()":"7bcbc6de","yUint8()":"14720686"},"id":8}